:10000000980500203113000023290000ED120000A4
:1000100000000000000000000000000000000000E0
:10002000000000000000000000000000B911000006
:10003000000000000000000059110000D115000070
:1000400029120000291200002912000029120000C4
:1000500029120000291200002912000029120000B4
:1000600029120000291200002912000029120000A4
:100070002912000029120000291200002912000094
:10040000FFFFFFFFFFFFFFFFFFFFFFFFFEFFFFFFFD
:1004100002B4714649084900095649008E4402BC9D
:100420007047C04602B4714649084900095C49005A
:100430008E4402BC7047C04603B471464908400070
:100440004900095E49008E4403BC704700224308FE
:100450008B4274D303098B425FD3030A8B4244D38C
:10046000030B8B4228D3030C8B420DD3FF220902CE
:1004700012BA030C8B4202D31212090265D0030B8D
:100480008B4219D300E0090AC30B8B4201D3CB0383
:10049000C01A5241830B8B4201D38B03C01A5241C5
:1004A000430B8B4201D34B03C01A5241030B8B42C7
:1004B00001D30B03C01A5241C30A8B4201D3CB02B2
:1004C000C01A5241830A8B4201D38B02C01A524197
:1004D000430A8B4201D34B02C01A5241030A8B429A
:1004E00001D30B02C01A5241CDD2C3098B4201D3B2
:1004F000CB01C01A524183098B4201D38B01C01A30
:10050000524143098B4201D34B01C01A52410309A6
:100510008B4201D30B01C01A5241C3088B4201D355
:10052000CB00C01A524183088B4201D38B00C01A02
:10053000524143088B4201D34B00C01A5241411A29
:1005400000D20146524110467047FFE701B5002036
:1005500000F006F802BDC0460029F7D076E77047E4
:100560007047C0461C2101231B04984201D3000C94
:1005700010391B0A984201D3000A08391B09984216
:1005800001D30009043902A2105C40187047C0462C
:10059000040302020101010100000000000000004C
:1005A000002B11D1002A0FD1002900D1002802D040
:1005B0000021C943080007B4024802A14018029074
:1005C00003BDC0469DFFFFFF03B4684601B5029816
:1005D00000F034F8019B9E4602B00CBC7047C04648
:1005E000F0B5CE46474680B5070099463B0C9C4681
:1005F00013041B0C1D000E0061460004140C000CBB
:1006000045434B4360436143C0182C0C20188C4673
:10061000834203D980235B029846C4444946794308
:100620007243030C63442D042D0CC91800044019B7
:100630008918C0BCB946B046F0BDC046F0B55746B3
:100640004E464546DE46E0B504000D00924699460A
:1006500083B08B4230D82DD04946504600F0BAF8CE
:1006600029000600200000F0B5F8331A9846203B18
:100670009B4633D45A465346934042461F00534646
:1006800093401E00AF423AD8AF4200D178E05B46BB
:10069000A41BBD41002B00DA75E00022002300926C
:1006A000019301235A46934001930123424693400C
:1006B000009328E08242CFD90022002300920193C8
:1006C0000C9B002B01D01C605D600098019903B069
:1006D000F0BCBB46B246A946A046F0BD4246202328
:1006E0009B1A5246DA40414613004A468A40170098
:1006F00042461F43534693401E00AF42C4D90022D6
:100700000023009201934346002BD9D0FB077208C7
:100710001A4346467B080EE0AB4201D1A2420CD8F8
:10072000A41A9D41012024196D410021013E241885
:100730004D41002E06D0AB42EED9013E24196D4149
:10074000002EF8D1009801995B4600196941002BF1
:1007500024DB2B005A464446D3402A00E2401C00CA
:100760005B461500002B2ADB26009E403300260046
:100770004746BE403200801A9941009001919FE7A0
:10078000A342BCD883E74246202300219B1A0022C3
:10079000009101920122DA40019286E7424620232D
:1007A0009B1A2A0046469A402300F34044461343CE
:1007B0002A00E2401C005B461500002BD4DA4246BA
:1007C0002F002023260097409B1ADE403B00334336
:1007D000CDE7C04610B5002903D1FFF7C3FE203096
:1007E00002E00800FFF7BEFE10BDC046F0B595B0B0
:1007F000254DAB681B69002B02D0280002A9984741
:10080000FA26224800F0D4FD0024B600AF683B6809
:10081000002BFCD06A462800D11D98470028F5D14E
:100820006B460221D87902F0EAF86B46DB797B2B24
:1008300003D1002404AB1C70E8E77D2B1DD10522F9
:10084000134904A802F0B7F80028DFD11530684436
:1008500002F07AF8041EECDD300001F0B3FF0294E0
:10086000FB68002B02D0280002A99847300001F055
:10087000A9FF084800F09CFDDBE73E2CC6D804AA7F
:1008800013550134C2E7C046CC2E00004C310000A5
:100890005331000059310000014B18607047C046C9
:1008A00000000020F0B51E00002797B005900691CB
:1008B0000892089B1878002801D138002DE3089B86
:1008C0000133079325280BD00699059B98470028EC
:1008D00000DA22E334000137079B26000893E8E79B
:1008E00010AC18220021200002F07DF8089B5B78F4
:1008F000252B17D1089AE37202320792012210AB1E
:10090000597A114200D175E1340004CC0392002AD7
:1009100000DB75E104201A7A02431A72039B5B42E2
:1009200003936DE100221400944611000392079B8B
:100930001B782B2B6FD068D8202B72D0232B72D032
:10094000002904D0042010AD297A014329726146A0
:10095000002906D010AD297A8C4608216046014353
:100960002972002C04D0102110AC257A2943217261
:100970000399002904D0202110A8047A2143017290
:10098000002A04D0402210A9087A02430A724421A6
:1009900010A8027A1140442902D140218A430272F0
:1009A0008022017A52420A43027200210A24079AE5
:1009B0002A2B41D1437A01310B430132437214781F
:1009C000022521002E394B42594110A8437A490093
:1009D000AB43194341722E2C46D153782A2B3ED07B
:1009E0000023013208351178541C080030380928DA
:1009F00061D910A91493087A840723430224DB0FDA
:100A00005B00A04303430B722EE02D2B0ED0302B46
:100A100096D1012201E001239C46079B01330793F5
:100A200085E70124F9E701230393F6E70121F4E7C1
:100A30002A0061433039C9181378551C1800303822
:100A40000928F5D9079B9342B9D0022410AB187A34
:100A50001391C90F4900A04301431972AFE7042164
:100A6000437A02320B4343721178501C10AB6C294D
:100A700041D025D868292DD06A2948D04C2952D098
:100A800010000278431C10A90793CA724B7A782A87
:100A900000D9A8E0572A4DD8412A03D0453A022A66
:100AA00000D9A0E0072110AA937A8B4303390B43A6
:100AB000937201236AE06B43303B2200CB1892E72C
:100AC00074292AD07A29DBD178215A7A8A431100F5
:100AD00030220DE051787824682906D1587A60399F
:100AE000A04301435972901CCBE71022597AA143CD
:100AF0000A435A72C5E7517878246C2903D1587A91
:100B00004C39A043EDE7597A1822A143F0E7782148
:100B10005A7A8A4311002822EAE778215A7A8A43CE
:100B200011003822E4E71A89AA491140AA4A0A4367
:100B30001A81A6E710005838202854D8FFF768FC1F
:100B4000335353535353535353B2533311B2B2B27B
:100B50005311535353533933475353475333535319
:100B600033000724887AA043063C2043887278210A
:100B70001940402904D1012410A8037A23430372A9
:100B80000023632A02D14A1E9141CBB210AA117AE6
:100B90008807C00F034301200340834000188143AE
:100BA0000B431372AAE60724887AA04304000220AC
:100BB000DBE707208A7A82431000032202438A720D
:100BC00078221340403B5A425341DBB2DEE7072014
:100BD0008A7A82431000032202438A7278221340E9
:100BE0005A1E9341F1E7012110AA137A0B431372A5
:100BF0000023CBE71A7A7F2A10D93400DB680393ED
:100C0000042310AA19420CD040CC002E0CDA022189
:100C1000537A8B4353720126764205E03400012358
:100C20007DE68B07F7D51669002510AA517A937ACD
:100C300049065B07090F5B0F0491D5601561012B15
:100C40003AD1C81E042821D8FFF7ECFB031919205C
:100C5000200008CC1360DB17536010AA137A03201E
:100C60001D000540034269D0079B089A0699059824
:100C700001F01DFE002800DA4FE13F182CE60723A3
:100C800007349C430CCC10921193E6E701CC10ABD7
:100C90001060C0175060049A012A05D1109AD2B290
:100CA000109200225A60D8E7049A022AD5D1002176
:100CB0005A5E1A60D217F5E7022B2ED1049BD81E7C
:100CC000042805D81500FFF7ADFB0E14141B1B00FC
:100CD00008CC28C2049B012B17D1109BDBB21093C8
:100CE00000231193B9E700232268201D0CC50400DE
:100CF000B3E70723E01D98430CC810921193F6E761
:100D000008CC136000235360E4E7049B022BA4D1BA
:100D1000109B09936B469B8CE1E7042B09D10720BC
:100D2000E31D83431C001868596808341060516043
:100D300093E7032B91D108CC13608EE7D07A782803
:100D400000D9C9E5622821D825283BD0582800D0F1
:100D5000C2E5109811991E2308AA9B18009312AAA5
:100D60000AAB01F058FD04901E2308AA9B180893B3
:100D7000002E3FDB4020049A9B1A10AA117A81436F
:100D800011729E4236D9F31A139333E06338152853
:100D900000D9A1E5FFF750FB65006F00A0FDA0FDA5
:100DA000A0FDA0FD6F00A0FDA0FDA0FDA0FD9C008A
:100DB00084008600A0FDA0FD2200A0FD8400A0FD0F
:100DC000A0FD84000699059B9847002800DAA4E05E
:100DD000013781E5FD87FFFF02400000109B04936F
:100DE000002E3ADB3100180001F0DBFD0025049BEA
:100DF0001B180893049B002B00D16DE5089B049AF7
:100E00009E1A2B005A1E9341F61810AB9B7ADA06F5
:100E100079D50236139A0992B6185B0601D5149B50
:100E2000F618039B002B00DC86E09B1B099310AB9C
:100E30001B7A5A07D60F002A00DABCE05B0600D402
:100E40006DE0002D07D028000699059B98470028E3
:100E500063DB35000137302662E0049801F099FD2C
:100E6000C4E7109B0AA803700923002508AA049070
:100E70009B180893C2E72B251A0705D410221D00E2
:100E80001540134200D02025109A119B002B00DB47
:100E90005FE70021504299412D251090119158E7AC
:100EA000002556E7109810AD002827D01E2308AA69
:100EB0009B18009312AA0AAB002101F0ACFCEF22B0
:100EC0006B8904901A40414B13436B8100254BE71B
:100ED0001368049A072A00D9FEE41000FFF7A2FA6B
:100EE0000C04060C08080C0C1F70F5E41F80F3E4DA
:100EF000FA171F605A60EFE41F60EDE4344B050001
:100F00000493344BB5E71A07D20FB61882E73000C6
:100F10000699059B9847002804DA17B0F0BD2026F3
:100F2000099B0393039A099B1100DB1901399B1A52
:100F30000391002AEBDC1F00002D06D02800069943
:100F4000059B98470028E8DB013710AB9B7ADA064F
:100F500001D41B0706D530200699059B9847002829
:100F6000DBDB013710AB9A7AD20606D5D87A069920
:100F7000059B98470028D0DB01373D00139EF319ED
:100F80005B1B002B1ADC089B049A0699059801F05C
:100F90008EFC0028C1DB47193D00039B5B19DB1B5E
:100FA000002B00DC98E420200699059B9847002838
:100FB000B3DB0137F1E7099B0393BDE730200699C6
:100FC000059B98470028A8DB0135D8E7107800007A
:100FD0006231000067310000034B013B002B00D160
:100FE0007047C046F9E7C0463175000037B5EFF3EA
:100FF000108572B68022144C144BD202E250144871
:1010000000F01CFD134B144A05211A600022134BFB
:1010100010000093012301F029FE0022022011009C
:1010200000F0D2FC0E4800F01DFC0E490E4A635839
:101030001A408023DB0413436350002D02D162B6B3
:10104000BFF36F8F00203EBD0070044044100000CD
:101050006C300000540100200048E801D90F000066
:101060007430000004100000FFFFFFF3882300210C
:10107000014A5B01D1507047007004404368196811
:10108000054B0A0CD218012389B28B401068034328
:10109000136000207047C0460070044001491022D0
:1010A0000A60704710ED00E0BFF34F8F30BF62B6AB
:1010B000BFF36F8F7047C046030605D41F23184047
:1010C0001E3B8340014A13607047C04600E100E0C8
:1010D00070B5FF26032532000540ED00AA408901C6
:1010E0003140D243A94044B2C3B200060AD4A30897
:1010F000C0240A489B001B18A40018590240114341
:10110000195170BD0F200340083B05489B089B0008
:101110001B18D86902401143D961F2E700E100E0F1
:1011200000ED00E030BFFDE7084A0949936809680F
:101130009866D966802307495B05486803434B607E
:1011400062B6BFF36F8F9368D86E70475C01002062
:101150003831000000ED00E013498A68134810445C
:10116000EFF3098CF0C043464C4655465E46674651
:10117000F8C072B60E4F0F4E8A698A603E60906E5C
:1011800000239366002800D162B6084C1019103075
:10119000F8C89846A146AA46B346BC462438F0C8CB
:1011A0008CF30988704700005C01002030000000CB
:1011B00004ED00E00000000804207146014202D066
:1011C000EFF3098001D1EFF30880816902390978D2
:1011D0000229FFD001B501F098FB01BD10B5203AFE
:1011E0001360029B01245360039B06499360049B98
:1011F000A143D36080235B04D36100239161026526
:10120000836610BD03280000064B9860101C81F314
:101210000988002162B6BFF36F8F0022002301F01E
:10122000F0FAC0465C01002001B5EFF305800549E6
:10123000401AC0000449014409C9984709BC9E46A8
:1012400002490847100000002C2F00005112000036
:10125000044B99689869884202D00349034A0A609E
:10126000704700005C01002004ED00E00000001069
:1012700070B51B4B0E005B6888B0DB05DB0D62B6FA
:10128000BFF36F8F0025140E2900FF2C09D1F33C0A
:101290001440082C05D001000135120701D531009A
:1012A00000250024032B06D18B69023B1A880D4BC5
:1012B0009A4200D10C682022684601F08BFB079B04
:1012C000002D0AD0DA0502D1074A13430793694675
:1012D000200001F016FB08B070BD5B0A5B02F5E769
:1012E00000ED00E002DF0000FF010000EFF30880E6
:1012F000EFF3098101B57246FFF7BAFF01BDC046A1
:10130000F0B5C02400220326FF25A40010002F0002
:101310003040C0008740054993089B005B1819596D
:101320000132B9431951202AF0D1F0BD00E100E0AB
:1013300072B6FFF79BFE07480749401880F30988FB
:10134000EFF314800221084380F31488BFF36F8FFA
:1013500001F0EEFA9806002000080000084B10B5D6
:101360009B68834209D1EFF30583002B05D08023CE
:10137000044A5B0551680B43536001F061F810BDEE
:101380005C01002000ED00E0014B18607047C04692
:1013900004000020023910B5012903D8034B1B6853
:1013A000984710BD01204042FBE7C04604000020E2
:1013B0000FB407B504AB04CB022104480193FFF737
:1013C00071FA03B008BC04B01847C046FF290000FA
:1013D00070B58025074CED00A6682A003368062109
:1013E000200098472A0033680721200098470020F2
:1013F00070BDC0466C2E0000054B0A0CD2180123AC
:1014000089B28B4010680343136000207047C046C8
:101410000070044001200B0C89B28840034A9B18DD
:101420001A6882431A6000207047C046007004406A
:1014300009480A4B10B5186001F034FC002808D0A8
:10144000074C2000FFF7A0FF2000FFF725FA00203F
:1014500010BD13204042FBE7CC2E000020010020ED
:101460006514000070B50400074D0A2804D12868EF
:1014700083680D215B68984728688368E1B25B68E0
:101480009847200070BDC04620010020406830B55C
:10149000436880681F2937D8C0251400AD002C4050
:1014A000AC4208D0950706D480256D00AC4204D02C
:1014B0006D19AC421AD0862027E001258D405C6969
:1014C000AC435C61D3061DD420231A4053425A41D9
:1014D000012352429A430332890041180B680C4899
:1014E000FF32034000201A430A6030BD01248C40C3
:1014F000150503D55C605D692C43E2E75505FAD517
:101500009C60F8E70422E7E716204042EDE7C0467A
:10151000FCF8FFFFF0B54568A8681F2935D880247E
:10152000A401A2422FD06C6801276469CC40260038
:101530003E403C4229D18024ED68E401254227D079
:10154000A2420FD180240822A402A34200D0043278
:10155000890041180B680F481204034000201A4309
:101560000A60F0BD80240922E402A342F0D0C02426
:101570000232E402A342EBD080243200A402A34250
:10158000E6D10A22E4E70022E2E716204042E8E73B
:101590008620FBE7FFFFF0FF0A4B30B5996818681B
:1015A000094A9C68094DC00301D4A14204D21168C4
:1015B0002868091811601B682B681068C018001B88
:1015C00030BDC04610E000E0500100204C0100207A
:1015D00070B5FFF7E1FF0C4B0C4A186811680C4C12
:1015E00040181060FA21002225681A600901401B8A
:1015F000FEF72CFFFA231B0143435B19236001F024
:1016000057F8FFF725FE70BD50010020480100206B
:10161000440100200020094A136A1B021B0A1362BE
:10162000074A084B1A60084B1860084B5A6007229B
:10163000986019680A431A607047C04600ED00E0E0
:101640009F0F00004C0100205001002010E000E03E
:10165000F0B50400374E384F85B000290AD0431C3E
:1016600008D10122336893433360FF231B063B609C
:1016700005B0F0BD3B680293631C34D18324640140
:1016800083235B019C4233DCEFF3108372B6039338
:10169000FFF782FFB3680093284B1A688518002271
:1016A0001D60274B1A60274B1B680193E81A904274
:1016B00020DA8023DB003B603A68B368013A72604D
:1016C0000022B260009A9A422FD294460298604457
:1016D000C01A4519194B1D60039B002BC8D162B677
:1016E000BFF36F8FC4E7013C002CC9DC0024CBE7BB
:1016F000154CC9E7FA23FA211B015C43134B00196F
:10170000C0180901FEF7A2FEFA231B014343019A08
:10171000501BC0188023DB00984204D90C4B984220
:10172000C9D83860C8E71800FBE7009AD31A5D19DA
:10173000D0E7C04610E000E04C0100204801002046
:101740005001002044010020611000009F0F0000A4
:10175000A0EBFF0010B5EFF3108472B6FFF71CFF8B
:10176000074B084A1B6812689B1A1818002C02D1F4
:1017700062B6BFF36F8FFA210901FEF767FE10BD55
:10178000480100204401002010B5EFF3108472B628
:10179000FFF702FF044B1B68C018002C02D162B691
:1017A000BFF36F8F10BDC0464801002010B514492B
:1017B0008B79DB0620D40B7BDB0715D4114B186823
:1017C000002810D00B784A789B06097B5B0F9206A5
:1017D000D840C9B2920F06D0CA0704D4062B05D050
:1017E000072B07D0400910BD074BE8E71421FEF78F
:1017F0002DFEF8E70C21FAE7044B1868F3E7C04622
:101800000040064054010020580100200C00002038
:10181000064B9A79D20702D4054B186870471B7A99
:10182000044A1B0710685B0FD840F7E700400640EA
:101830000C00002008000020084B1B681B039B0FB6
:10184000022B04D0032B05D00020834201D1044B8E
:1018500018687047FA208000FBE7C046007004401B
:10186000580100204168074A074BD150C378C02077
:101870009B04000311680340044801400B431360BC
:101880007047C0460070044044100000FFFFF3FFA3
:1018900010B50B4C63789B0701D5002010BDFFF7F6
:1018A00085FF0028F9D0E378E1785B069B0FC90932
:1018B0005B00044A5B185B009B5A5843EEE7C04646
:1018C000004006403C31000010B50C4A93791B07DC
:1018D0009B0F012B07D0022B08D00020834201D19F
:1018E000FFF7D6FF10BDFFF793FFFBE7137BDB0786
:1018F00002D4034B1868F5E7024BFBE700400640B3
:101900005401002058010020044B00201B7810B522
:101910009B0701D5FFF77CFF10BDC0460040064085
:10192000030070B50020082B10D81800FEF77AFDD0
:1019300005050F0F1C251F222800FFF7C5FF124ABF
:10194000124BD158090F0131FEF780FD70BD0E4DCD
:101950000E4CFFF7B9FF2959090F0131FEF776FD4B
:1019600029594903490FEEE7FFF766FFEEE7FFF756
:10197000CBFFEBE7FFF78CFFE8E7054B1868E5E7DF
:10198000FA208000E2E7C0460070044044100000E6
:101990005401002030B501210500094C0D40227B87
:1019A000237B0A408B432B432373824206D10020C2
:1019B00030BDC046013B002BFBD1F8E7014BF9E7F6
:1019C00000400640DD05000070B51B4B9C799E79F8
:1019D0001D7A24072D07A40FF6B26D0F954215D07E
:1019E000F5070BD5012C02D01D78AD0706D50126D1
:1019F0005D78B5435D709D793542FCD10E261D7A28
:101A0000520032402136B5432A431A7201255A78D2
:101A1000AA430D402A4303255A701A78AA43024369
:101A20001A70012C01D0820704D501209A79024056
:101A30008A42FBD1002070BD0040064002680D497B
:101A4000002310B58A4204D90B4B93429B415B4261
:101A500001333C24094900794A781B01A24302431F
:101A600013434B70002803D002238A791A42FCD01A
:101A700010BDC0469798000000127A000040064052
:101A8000F7B5204C0192E678A5790027F6B2EA0670
:101A900004D52025E7787D400127E5702578AC4600
:101AA000C500382062460540353810400543257092
:101AB000207BC20706D46078420703D50220A579AF
:101AC0000542FCD01020A5790542FCD1002F00D0A2
:101AD000E67060251F20019AC90152012A4030405A
:101AE0000A430243D2B2E270E1789142FCD1032171
:101AF000A27992080A42FBD1002B00D0984700201F
:101B0000FEBDC046004006400A23F0B553430E68B0
:101B100089B00693B30003930423009300230400C9
:101B20000D0005920296019304936B461B7803996E
:101B300006980793FEF78AFC0A210530FEF786FC1B
:101B400080B2071C002800D101270099BFB2794359
:101B50000598FEF77BFC331A864200D2831B029A5B
:101B6000934203D80293079B04970193039B9B190D
:101B70000393009B01330093212BD6D164213000C5
:101B8000FEF764FC03234343029A934200D278E0B9
:101B900080233D4A5B0311680B431360A3683B4AF3
:101BA0001340019AA360043A2368032A02D88022D2
:101BB00092021343F822E020354952051940019B57
:101BC000C000013B1B061340049A0B43D2045B0B7D
:101BD000D20C5B031343236023682E4A1340236017
:101BE0006B7BA2681B0203402B482979024004202A
:101BF0000A431A432B7B9B0003401343002901D067
:101C0000102213438021A360EB7989015B032268D2
:101C10000B40224920200A40134310222360EB7A14
:101C200061691B011340AA7A5201024013430B431E
:101C300063612B7A002B03D008236269134363612D
:101C40006B7A002B03D00123626913436361AB7984
:101C50005A1E9341124A5B079B18626813436360E4
:101C6000AA7BA368002A02D0802212031343EA7BD6
:101C7000002A02D08022D20213430020A36009B0C0
:101C8000F0BD0848FBE7C04638800440FFFFF3FF83
:101C9000FFFFFFE0FFFFFFDFE8F8FFFFFFDFFFFFD1
:101CA00000C01FC0210500008023DB0342681A42E8
:101CB000FCD04268054B0649134343600023054AA4
:101CC000836013680B4013607047C04600C01FC09C
:101CD000FFFFEFFF388004404068014B1840704719
:101CE00000C0FFC1030008485A680140F820800581
:101CF00002400A435A6058680840431E984103490D
:101D0000404208407047C04600C01FC01A0500008E
:101D1000F8B50F4F8300DD59013084003B59AB42C9
:101D200000D8F8BD6E682B6830009847002E0DD0A3
:101D3000F368002806D0C21780185040FF2800DD45
:101D4000FF20187001215A780A435A700835E5E7D8
:101D50002431000030B570240F4944430302591860
:101D60000E4B01251C190023802287B00593029396
:101D70000193183343430A480495C0180E35009068
:101D8000084B20000395520000F094F80422637B76
:101D90009343637307B030BD9805002038000020DE
:101DA0005C010020F72C000010B50124094B022033
:101DB0001C70FFF7ADFF01F028F80320FFF7A8FF24
:101DC00000F0A2F8FEF712FD034A137BA34313733E
:101DD00010BDC04690010020A800002010B50348A7
:101DE000034A0021121A00F0FEFD10BD3800002049
:101DF000940100208022F0B5254B1201A5B09B185C
:101E0000069383F308882349234A0B6A00251A4066
:101E1000C0231B0413430B6200F095FDFFF73EF94E
:101E200002221E4E08ABFF329A81B36000F039FFE8
:101E30000020FFF76DFF0120FFF76AFF00F04CFA6A
:101E4000174C184BB461802205930123164F174994
:101E50000493D2003B002000039502950195009564
:101E600000F028F804220790637B200093436373FB
:101E700000F076FF2800FFF76DFF0D4B3A00F3608E
:101E8000069B2000079935757360FFF7BDF9C046C2
:101E90009806002000ED00E0FFFF00FF5C0100203D
:101EA000A8000020BB310000A91D000098010020FF
:101EB000380000207FB50400D51D07225830A065EA
:101EC000E0650C9800262073042095430A9A6073FD
:101ED0000292099A0B980192089A4D19A0730092E8
:101EE00020002A00A660E673A661E661FFF776F996
:101EF000044B66659B68B34200D05B6E2800636646
:101F000004B070BD5C01002070B5204C86B0260086
:101F10001F4DAC4208D300F08BF83400AC4219D30B
:101F200000F0C4F906B070BDE36A0593236A049318
:101F3000E3690393A369029363690193236900939F
:101F4000E368A26861682068FFF7B4FF23685C65F6
:101F50003034DDE7606A431C0FD0C343DB17184001
:101F60000A220023C117FEF73BFB26680B00020084
:101F7000014304D1300000F03DF93034CEE73000A9
:101F80000449183000F01CFBF7E7C0463800002079
:101F900038000020792D000010B5074C2368002B75
:101FA00009D0FFF7D7FB03002068044AC3180021BB
:101FB000136100F010FF10BD880100205C010020BB
:101FC00010B5EFF3108472B600220B4B1A610A238E
:101FD0000A4A434300280ADC1360094B1960FFF7E3
:101FE000DBFF002C02D162B6BFF36F8F10BD022B56
:101FF000F2DA0223F0E7C0465C01002088010020ED
:102000008401002010B500290AD1EFF305800028D3
:1020100007D1064B9A699B689A4202D0FFF784F871
:1020200010BD62B6BFF36F8FFAE7C0465C010020B7
:10203000EFF3108172B6054B9A68D37B013BD373E3
:10204000002902D162B6BFF36F8F70475C01002098
:1020500070B506000D4800F07DFE0D4D041E00D148
:10206000EC68AB68002E0AD15A7BD20607D1A26970
:10207000002A04D1DA897F2A01D9AB6170BD9C4264
:1020800001D0FFF789FFAC61F8E7C0467801002076
:102090005C0100200D2270B582560400437B002AAB
:1020A00004DA7F221340437300F02CFE8023627B0E
:1020B0005B421343134A6373D369134D106AAB42F7
:1020C0001BD0002B19D00E26A6570E2159568E4232
:1020D0000ED0891B00290BDD5968236061600C60FC
:1020E0005C609068001B43425841FFF7B1FF70BD30
:1020F000834202D01B68002BE7D12560606004603A
:102100001462EEE75C01002078010020010070B548
:10211000EFF3108472B6174B174A98681568A842F7
:1021200007D1FFF739FF002C02D162B6BFF36F8FE2
:1021300070BD00251560114A1268AA4217D0C289E5
:102140007F2A14D8427BD20611D10E250C4A45575E
:10215000126895420BDB0B4A904208D01A698A42FA
:1021600002DCFFF797FFDCE7521A1A61DBE7002277
:10217000FBE7C0465C0100208001002088010020B0
:1021800084010020380000200D2370B5C356427B27
:10219000002B20DBD3061ED18369002B1BD1803B93
:1021A000124913434373CB69114D0C6AAB4218D0EB
:1021B000002B16D00E2686570E229A5696420BD02A
:1021C000921B002A08DD5A68036042601060586064
:1021D0000020FFF73DFF70BDA34202D01B68002B1B
:1021E000EAD10560446020600862F1E75C010020EC
:1021F0007801002010B5EFF3108472B60422437BFF
:10220000134205D1002C02D162B6BFF36F8F10BD0F
:1022100093434373FFF7B8FF21000248FFF7F2FE34
:10222000F5E7C046910100200D2210B5825604004A
:10223000437B002A04DA7F221340437300F062FDDF
:10224000034B9868001B43425841FFF701FF10BD44
:102250005C01002070B50400183000F0A9FDEFF318
:10226000108672B60D22A256637B002A05DA7F2201
:1022700013402000637300F045FD1023627B0A4D7C
:1022800013436373AB68181B43425841FFF7E0FEEA
:10229000002E02D162B6BFF36F8FAB68A34201D1AB
:1022A00000F051FD70BDC0465C01002010B5EFF399
:1022B000108472B6074B00209A68D37B0133D37326
:1022C000FFF7C6FE002C02D162B6BFF36F8F00F09D
:1022D0003AFD10BD5C010020002110B5034B044AFB
:1022E0000800DA611A62FFF76BFE10BD5C01002086
:1022F00078010020F8B5EFF3108572B67F221A4CF2
:10230000A068437B1340437300F0FCFC8022A36869
:102310005242597B15480A435A73E26982421CD0E3
:10232000002A1AD00E26276A9E570E2151568E4239
:102330000ED0891B00290BDD51681A6059600B60B3
:1023400053600120FFF784FE2800FEF7EDFEF8BD84
:10235000BA4202D01268002AE7D1226A18605A6095
:1023600013602362EDE7C0465C0100207801002085
:10237000F7B5060004000D000E4303D1FFF7BAFFC6
:10238000002034E002225242D317121BAB41002B33
:102390002EDC01D1002A2BD100F033FD031901936B
:1023A000EFF3108772B6144E144BB26810001A6027
:1023B000FFF73AFFB06822002B001149183000F0F7
:1023C000FFF81023B2683800517B0B435373FEF7BC
:1023D000ABFE00F016FD002304001D00019A121B45
:1023E000AB41AB4202DCCBD1AA42C9D01000FEBD4A
:1023F00002204042031BD2E75C0100208001002044
:10240000792D000010B50B000C00421C07D10133E0
:1024100005D1074B9868FFF71DFF200010BD210074
:10242000FFF7A6FF0A220023C117FEF7B9F8F5E768
:102430005C010020014B98687047C0465C01002099
:1024400070B50400EFF3108672B60823427B1A427F
:1024500005D0002E02D162B6BFF36F8F70BD202170
:10246000100088430100194348B2002820DB617343
:10247000A368002B02D0200000F04CFC2000183094
:1024800000F096FC2300A56D58339D4201D0002D2D
:1024900016D10120FFF7DCFD104B9B68A342D8D179
:1024A000EFF30583002BD4D13000FEF73DFED0E7DB
:1024B0005F210A4013432000637300F023FCD7E739
:1024C000280000F027FC2800183000F071FC0023E1
:1024D0002800EB66FFF758FED4E7C0465C010020F9
:1024E00010B50648064A0749121A00F073FA064A60
:1024F0000649074800F06EFA10BDC04600000020F3
:1025000038000020C031000000000000C031000091
:10251000000000200020044B10B51B68834201D14D
:10252000FFF718F910BDC0468C010020134BD0B541
:102530001C689C4200D10024FFF7ECFF002C12D055
:10254000226963690600C717921BBB41002B02DC9E
:1025500012D1002A10D01000002B04DC04D18023FB
:102560001B069A4200D30648064B1B69002B02D07B
:10257000984200DD1800D0BD0020F5E710000020D3
:10258000FFFFFF7F5C01002030B5036800280DD0FD
:102590000A4A5268904209D0002B07D01C695D6935
:1025A00001694269641855411C615D6142681360AC
:1025B0005A6000230360436030BDC0461000002015
:1025C000F7B5040016001F00531C01D17B1C67D017
:1025D000A160EFF3108372B602204042C11701934D
:1025E00002000B00921BBB41002B1BDB2D4B1A681A
:1025F0005B68801A9941801BB94102000B1E05DC03
:10260000002901D1002801D1012200232261636148
:10261000254F3D687E68BD4218D1276066603460F2
:102620007C6027E0FFF776FF01220023B6185F41A8
:102630000200C317B6185F4126616761E8E7121A06
:102640008B4122616361AE42E7D02D68002DE4D05A
:102650002869696922696369994202DCEFD1904275
:10266000EDD9801A99416B682861696163602560C2
:102670001C606C603B68BB420CD09C420AD1FFF7E7
:1026800055FF002803D0094B1B69834202D000216B
:10269000FEF7DEFF019B002B02D162B6BFF36F8F06
:1026A000F7BDC04618010020100000205C0100208A
:1026B000F0B58BB00400FFF729FDEFF3108372B67D
:1026C0000593324B1C60324B3248304D1C68016818
:1026D00042680691079229689C4219D0002C17D0B5
:1026E0002269636900920193019ACB1702910393C7
:1026F0009A4203DC23D1009A8A4220D9029A039B92
:10270000009E019FB61A9F4132003B002261636127
:10271000069E079F0A00CB17B6185F41002406608B
:1027200047602C60FFF702FF2100FEF791FF059B39
:10273000A34202D162B6BFF36F8F0BB0F0BD009B16
:10274000069E079F0893DB170993089A099BB61802
:102750005F41104B20001E605F60009BCA1A0B4B4C
:102760001A600023002222616361FFF70DFF059BC1
:10277000002B02D162B6BFF36F8F2000A368984789
:10278000EFF3108372B605939DE7C0468C010020DD
:10279000100000201801002010B5EFF3108472B66D
:1027A000FEF7D8FF00230200054908684968801831
:1027B00059419C4202D162B6BFF36F8F10BDC04633
:1027C0001801002070B5041E12D0FEF7DDFF0023B3
:1027D000084A050000212000FDF702FF0023064AF9
:1027E000FDF7DEFE0400FEF7CFFF401BA042FAD348
:1027F00070BDC046005A620240420F007047002080
:10280000704710B50400080011001A00A047FFF738
:1028100011FEFEF7A3FDF0B585B001900393D378C8
:1028200015001A00413A0F00082402926F2B0AD0BB
:1028300004D80234582B06D1063404E008220A24B6
:102840009343702BF8D00A9E220000233900019890
:10285000FDF7A6FE13008C46D2B2092B19D813003F
:102860003033DBB2013E33700023BB4202D1019B07
:102870009C4202D8039B9E4208D82B789B0613D516
:10288000082C0FD1AB781C43AC700DE0674601906B
:10289000DAE7130002995733DBB21929E2D837324D
:1028A000D3B2DFE7102CEDD0300005B0F0BDF7B5A6
:1028B0000F0015001E0014000190601BA64204D8F2
:1028C000002E09D12378002B06D020783900019BF7
:1028D000984701340028F0DAFEBD7047436889004C
:1028E0005B680020CA507047436889005B6800201D
:1028F000CB58136070478620404270478620404284
:10290000704710B500F0E1F910BD10B50100006886
:1029100000F0DBF910BD10B500210120FFF7F1FF39
:1029200010BD10B5FEF7FEFBFEF792FC10BD704720
:1029300010B5FFF7FCFFFFF751FAFFF7D1FDFEF7E7
:10294000DFFCFFF757FA7047030030B51A78202AEA
:102950000DD011000939042909D92B2A09D00021E9
:102960002D2A01D10133013100200A2508E001336D
:10297000ECE700210133F7E7684330300133801A78
:102980001A781400303C092CF6D9002900D14042B5
:1029900030BD030000201A5C002A00D170470130CE
:1029A000F9E7030000201A5C002A01D0884200D118
:1029B00070470130F7E730B50500101E09D000243C
:1029C000013A2B5D085DA24202D001348342F8D067
:1029D000181A30BD002310B59A4200D110BDCC5C4E
:1029E000C4540133F8E70300C9B28218934200D1FE
:1029F000704719700133F9E701204042704710B564
:102A0000FEF7C8FC10BD0020704710B50820140068
:102A1000132900D0C8B2FEF783FF2060002010BD4C
:102A2000436800205B681B690B60704743685B6804
:102A300018684240114041401960002070474368C7
:102A400000205B6859607047436800205B689960AC
:102A50007047436800205B68D9607047036930B5F0
:102A600058680024002804D1002A1AD1002030BD63
:102A7000280081420FD108689D68002C06D158605B
:102A80008D4200D1986000200860EDE720608D4203
:102A9000F9D19C60F7E705680400002DE8D1002A11
:102AA00007D05A6898680A6059600028DED199609A
:102AB000DDE716204042DAE710B5002202211E2091
:102AC000FEF706FB1E20FEF7F7FA002010BD10B53A
:102AD000002202211F20FEF7FBFA1F20FEF7ECFA6E
:102AE000002010BD436802699B6870B5A0331E6862
:102AF000516804001E6000290DD00D688B681A0013
:102B00003240334202D020004B689847002D02D05B
:102B100029002D68F2E770BD036905CB05C10020CF
:102B20007047F0B50369476889B00C007D68BE68DE
:102B30000193280000F0B6F8002802D1162676424C
:102B400038E0AB68DB68002BF8D03100280003AA1E
:102B50009847061EF2D104AD280000F094F82379BE
:102B6000012B2AD0022B29D0002B01D08626E6E7A4
:102B70002E71A379032BF9D100236B716279012A9D
:102B800002D0032AF2D10123EB71E379002B03D0A9
:102B9000012BEBD10223FF332B81236829000493FF
:102BA0000223FF33039AEB813868FEF7ADFF019BE8
:102BB00006CC06C3300009B0F0BD03232B71D8E763
:102BC00043680169DA6810B50A60802252008A8081
:102BD000FD3A8A711B7CCB71FFF7A3FF002010BD6B
:102BE00070B580260C00456836042868FFF774F835
:102BF0003042FAD02B68DC6070BD70B545680C00BF
:102C00002868FFF769F8830204D500202B68DB6889
:102C1000237070BD01204042FBE770B5456828680D
:102C2000FFF75AF80403E40FC30301D502231C4342
:102C3000830301D504231C43B02128680903FFF74F
:102C400051F8200070BD70B504000D00436818688D
:102C5000FFF72AF820002900FFF763FF041E03D1C5
:102C60000A200021FFF7CEFB200070BD70B51500D3
:102C70001E000C00FEF78EFE320029002000049B8F
:102C8000FEF7FEFE70BD10B5102200210400FFF714
:102C9000AAFEE1235B02236000236360A360E3607C
:102CA00010BD7047002808D0C3681888C005C00D43
:102CB0000138FF3843425841C0B27047EFF31083E8
:102CC00072B6FEE710B5FFF7F9FFF8B505000E0084
:102CD000EFF3108772B6FFF7ADFB31000400280058
:102CE000FFF7F0FF002F02D162B6BFF36F8F200015
:102CF000FEF734FBF8BD10B5EFF3108372B6FEF7A4
:102D0000D3F9F9E70368426813605A60002303604F
:102D10004360704710B50400FFF7F4FF0222637BA5
:102D2000934363730023A36010BD10B5002805D141
:102D3000EFF30580002802D1FEF7F6F910BD62B668
:102D4000BFF36F8FFAE710B5EFF3108072B6FFF79D
:102D5000ECFF10BD03000068834200D100207047E3
:102D600010B5EFF3108472B6FFF70EFA002C02D103
:102D700062B6BFF36F8F10BD183870B50400EFF363
:102D8000108572B62823427B1A420BD18368002B30
:102D900001D0FFF7BFFF1422637B200093436373CE
:102DA000FFF7F2F9002D02D162B6BFF36F8F70BD4D
:102DB00010B5EFF3108472B60368002B08D0FFF74C
:102DC000E3FB0020002C02D162B6BFF36F8F10BD71
:102DD00016204042F6E770B504000D00EFF31086B0
:102DE00072B6FFF7A3FB012805DDA04203DB290033
:102DF0002000FEF72DFC002E02D162B6BFF36F8FCC
:0C2E000070BD10B5FFF7C8FC10BD704796
:082E0C0030D8FF7F0100000037
:102E1400ED0F0000000000007D1000006C2E00008B
:102E24007D100000842E00007D1000009C2E000008
:102E3400D113000000000000072A0000B42E000097
:102E4400C12B0000CC2E000015160000E42E00005B
:102E5400CF2A0000FC2E0000B92A0000142F000025
:082E6400311400000000000021
:102E6C00683100008C300000943000001800002005
:102E7C000000000064300000783100008430000055
:102E8C00943000001C000020000000005C300000AA
:102E9C00883100007C3000009430000020000020BD
:102EAC0000000000543000009831000000000000C9
:102EBC00A430000024000020000000004E30000070
:102ECC00AA310000FC30000010310000300000205E
:102EDC003C01002044300000B13100000000000033
:102EEC000000000034000020000000004030000012
:102EFC009C310000EC300000B830000028000020AD
:102F0C003001002036300000A3310000DC3000001E
:102F1C00B83000002C000020240100202C300000D0
:102F2C000000000017290000000000001729000015
:102F3C000000000017290000000000001729000005
:102F4C0000000000172900000000000017290000F5
:102F5C0000000000172900000000000017290000E5
:102F6C0000000000172900000000000017290000D5
:102F7C0000000000172900000000000017290000C5
:102F8C0000000000172900000000000017290000B5
:102F9C0000000000172900000000000017290000A5
:102FAC000000000017290000000000001729000095
:102FBC000000000017290000000000001729000085
:102FCC000000000017290000000000001729000075
:102FDC000000000017290000000000001729000065
:102FEC000000000017290000000000001729000055
:102FFC000000000017290000000000001729000045
:10300C000000000017290000000000001729000034
:10301C00142F0000E52A0000FC2E0000E52A000019
:10302C000300FF7FFF7FFF7FFF7F0100FF7FFF7F9C
:10303C00FF7FFF7FFF7FFF7F0400FF7FFF7FFF7F0E
:10304C00FF7FFF7FFF7FFF7F0400FF7FFF7FFF7FFE
:10305C000400FF7FFF7FFF7F0400FF7FFF7FFF7F68
:10306C000048E80100000000000000000000010022
:10307C0009003810009004400A00381000A00440E9
:10308C000B00381000B00440DD280000E9280000D7
:10309C00F7280000FD280000F913000015140000AB
:1030AC00000000000B2A0000000000008D1400003E
:1030BC00212A00002D2A00003F2A0000492A000086
:1030CC00532A0000151500005D2A000000000000C6
:1030DC00FFFFFFFF00F00F40009004400040000095
:1030EC00FFFFFFFF80F00F4000B0044000400000E5
:1030FC0000400540B42E00000000000000C201009A
:10310C0000000000FB2B0000E12B00001B2C00003A
:10311C00472C0000192B0000142E00004C2E000030
:10312C00542E00006C2E00006C2E0000F5FFFFFFEB
:10313C008002DC020005B80580079508000A710BB7
:10314C007B696E69747D00626175643A007B6368AB
:10315C00616E67657D00286E696C290070696E6D03
:10316C0075784034303034623030300070696E6DB8
:10317C0075784034303034613030300070696E6DA9
:10318C0075784034303034393030300053494D008C
:10319C004750494F5F32004750494F5F300055410F
:1031AC0052545F30007379735F636C6F636B006DA7
:0431BC0061696E00D7
:1031C000FF270000F929000000093D0000800000F1
:0831D000100000201000002097
:1031D80000000000000000000000000000000000E7
:1031E80000000000000000000000000000000000D7
:0400000300001331B5
:00000001FF
