:10000000D0050020E9130000D9260000BD13000030
:10001000BD130000BD130000BD1300000000000070
:100020000000000000000000000000004911000076
:10003000BD13000000000000011100004115000088
:10004000C5110000C5110000C5110000C511000058
:10005000C5110000C5110000C5110000C511000048
:10006000C5110000C5110000C5110000C511000038
:10007000C5110000C5110000C5110000C511000028
:10008000C5110000C5110000C5110000C511000018
:10009000C5110000C5110000C5110000C511000008
:1000A000C5110000C5110000C5110000C5110000F8
:1000B000C5110000C5110000C5110000C5110000E8
:1000C000C5110000C5110000C5110000C5110000D8
:1000D000C5110000C5110000C5110000C5110000C8
:1000E000C5110000C5110000C5110000C5110000B8
:1000F000C5110000C5110000C5110000C5110000A8
:10010000C5110000C5110000C5110000C511000097
:10011000C5110000C5110000C5110000C511000087
:10012000C5110000C5110000C5110000C511000077
:10013000C5110000C5110000C5110000C511000067
:10014000C5110000C5110000C5110000C511000057
:10015000C5110000C5110000C5110000C511000047
:10016000C5110000C51100000000000000000000E3
:10017000000000000000000000000000000000007F
:10018000000000000000000000000000000000006F
:10019000000000000000000000000000000000005F
:1001A000000000000000000000000000000000004F
:10040000FFFFFFFFFFFFFFFFFFFFFFFFFEFFFFFFFD
:1004100053B94AB9002908BF00281CBF4FF0FF316B
:100420004FF0FF3000F074B9ADF1080C6DE904CE67
:1004300000F006F8DDF804E0DDE9022304B07047BF
:100440002DE9F047089E0D4604468846002B4DD105
:100450008A42944668D9B2FA82F252B101FA02F3A2
:10046000C2F1200120FA01F10CFA02FC41EA030872
:1004700094404FEA1C45210CB8FBF5FE1FFA8CF79F
:1004800005FB1E8341EA03430EFB07F199420BD99A
:100490001CEB03030EF1FF3080F01E81994240F205
:1004A0001B81AEF1020E63445B1AA4B2B3FBF5F0FC
:1004B00005FB103344EA034400FB07F7A7420AD9BF
:1004C0001CEB040400F1FF3380F00881A74240F2E6
:1004D000058164440238E41B40EA0E4000211EB14D
:1004E000D4400023C6E90043BDE8F0878B4208D919
:1004F000002E00F0EE800021C6E900050846BDE8A8
:10050000F087B3FA83F100294AD1AB4202D3824289
:1005100000F2F980841A65EB030301209846002E4F
:10052000E2D0C6E90048DFE702B9FFDEB2FA82F2A4
:10053000002A40F09180A1EB0C054FEA1C471FFAFE
:100540008CFE0121B5FBF7F307FB1350250C45EAA0
:1005500000450EFB03F0A84208D91CEB050503F18A
:10056000FF3802D2A84200F2CB8043462D1AA4B233
:10057000B5FBF7F007FB105544EA05440EFB00FEFF
:10058000A64508D91CEB040400F1FF3502D2A645AC
:1005900000F2BB802846A4EB0E0440EA03409EE72D
:1005A000C1F120078B4022FA07FC4CEA030C20FA29
:1005B00007F405FA01F31C43FD404FEA1C4900FA19
:1005C00001F3B5FBF9F8200C1FFA8CFE09FB185556
:1005D00040EA054508FB0EF0A84202FA01F20BD9E9
:1005E0001CEB050508F1FF3A80F08880A84240F234
:1005F0008580A8F1020865442D1AA4B2B5FBF9F074
:1006000009FB105544EA054500FB0EFEAE4508D92E
:100610001CEB050500F1FF346CD2AE456AD90238F7
:10062000654440EA0840A0FB0294A5EB0E05A542F4
:10063000C846A64656D353D05EB1B3EB080265EB6D
:100640000E0505FA07F722FA01F3CD401F43C6E96C
:1006500000750021BDE8F087C2F1200320FA03F104
:100660000CFA02FC25FA03F395400D434FEA1C47B0
:100670001FFA8CFEB3FBF7F107FB11302B0C43EA9A
:10068000004301FB0EF0984204FA02F408D91CEB77
:10069000030301F1FF382FD298422DD90239634468
:1006A0001B1AADB2B3FBF7F007FB103345EA034565
:1006B00000FB0EF3AB4208D91CEB050500F1FF3837
:1006C00016D2AB4214D902386544ED1A40EA014112
:1006D00038E73146304607E78646E5E61846FAE64B
:1006E0004B45A9D2B9EB020864EB0C0E0138A3E725
:1006F0004046EAE7204694E74146D1E7D0467BE70B
:10070000023B654432E7084609E76444023842E7A1
:10071000704700BF2DE9F04395B0284DAB681B69C9
:1007200013B102A9284698472548244EDFF8948043
:10073000DFF8949000F094FE0024AF683B68002B33
:10074000FCD00DF10701304698470028F6D19DF8FE
:100750000700022102F025F89DF807307B2B03D11A
:1007600000248DF81040E8E77D2B1ED1052241467C
:1007700004A801F0EEFF0028DFD10DF1150001F013
:10078000B2FF041EECDD4FF47A7001F0F7FE029424
:10079000FB6813B102A9304698474FF47A7001F014
:1007A000EDFE484600F05CFEDAE73E2CC5D804F1C9
:1007B00050026A44013402F8403CBEE7B42E000007
:1007C0005C3300006333000069330000014B1860A4
:1007D000704700BF000000202DE9F04F91B08B461C
:1007E000029092461C4600259AF8000008B9284657
:1007F0005FE325280AF1010707D0029B5946984775
:100800000028C0F25683013512E2182200210AA8FE
:1008100001F0BBFF9AF80130252B78D0002210465A
:10082000964694461646394617F8013B2B2B00F0A6
:100830009D8000F29480202B00F09B80232B00F001
:100840009B802EB19DF8306046F004068DF8306034
:10085000BCF1000F05D09DF8306046F008068DF819
:100860003060BEF1000F05D09DF8306046F01006F4
:100870008DF8306028B19DF8300040F020008DF8F0
:1008800030002AB19DF8302042F040028DF830202F
:100890009DF8302002F04400442803D16FF3861203
:1008A0008DF830209DF830202A2B42F080028DF800
:1008B00030207BD19DF8312042F001024B1C8DF895
:1008C00031201A782E2A9DF831200CBF01210021F9
:1008D00061F341028DF8312074D15A782A2A6AD006
:1008E000013300210A26184610F8012BA2F1300727
:1008F000092F40F28E809DF830200E91C2F3400007
:1009000040EAD17161F341028DF830205AE00AF1DA
:1009100002078DF833309DF83130D90740F1498115
:1009200054F8049BB9F1000F07DA9DF8302042F02B
:1009300004028DF83020C9F100095A0740F14281C4
:1009400054F8048BB8F1000F80F241819DF83130EA
:100950006FF341038DF831304FF0FF3837E12D2B25
:100960000CD0302B7FF46DAF01225CE74FF0010C0F
:1009700059E74FF0010E56E7012054E7012652E7F0
:100980000CFB0202303A33461E4616F8010BA0F16A
:100990003007092FF4D9994293D09DF830100D9269
:1009A000D20F62F341018DF830108AE70B46002226
:1009B0004FF00A0CE8E79DF8312042F004028DF870
:1009C000312002331F4617F8012B6C2A41D025D85D
:1009D000682A2BD06A2A46D04C2A4CD01F4617F8DA
:1009E000012B9DF831308DF83320782A00F2D98020
:1009F000572A4DD8412A03D0453A022A00F2D18025
:100A00009DF83230042262F302038DF83230012364
:100A10009EE006FB01213039034664E7742A26D0A4
:100A20007A2ADBD19DF8313006220DE05A78682A07
:100A30009DF8312006D1012161F3C6028DF83120E5
:100A40009F1CCCE71346022262F3C6038DF83130B7
:100A5000C5E75A786C2A9DF8312001D10421EBE7D3
:100A600013460322F0E79DF831300522ECE79DF8AC
:100A700031300722E8E7BDF8303023F4F04323F0AB
:100A8000020343F4804343F00203ADF83030A6E79D
:100A9000A2F15801202900F2848001A050F821F031
:100AA000650B0000A30B0000A30B0000A30B0000CC
:100AB000A30B0000A30B0000A30B0000A30B00007E
:100AC000A30B0000010A0000A30B0000650B00004F
:100AD000250B0000010A0000010A0000010A0000C5
:100AE000A30B0000250B0000A30B0000A30B0000CC
:100AF000A30B0000A30B00006D0B0000650B0000B2
:100B0000890B0000A30B0000A30B0000890B000061
:100B1000A30B0000650B0000A30B0000A30B00005B
:100B2000650B00009DF83210012003F0780360F39C
:100B30000201402B8DF8321002BF9DF8301041F0B9
:100B400001018DF83010632A31D1003B18BF012319
:100B50009DF83020C2F340010B4363F341028DF84E
:100B60003020D8E69DF832100220DEE79DF83220D2
:100B700003F07803A3F14000032161F30202434232
:100B80008DF832204341E3E79DF83220032113F032
:100B9000780F61F302028DF8322014BF0123002385
:100BA000D6E79DF8303043F001038DF83030002354
:100BB000CEE79DF93020002AB4BFDDF834904FF025
:100BC000FF39BAE69B077FF5C7AEDDF838809DF8A0
:100BD00031100023CDE90D339DF8323003F00703C7
:100BE000012BC1F3C30138D1CB1E042B22D8DFE87F
:100BF00003F003090921210054F8043BDA17CDE979
:100C00000A3206E0073424F00704F4E80223CDE9B1
:100C10000A239DF8303013F0030656D002983B4665
:100C20005246594601F015FD0028C0F242810544A4
:100C3000BA46D9E554F8043B01294FEAE372CDE9FD
:100C40000A3205D19DF828300A9300230B93E0E780
:100C50000229DED1BDF92830D0E7022B23D1CB1EEB
:100C6000042B13D8DFE803F0030A0A1212002268EB
:100C70000A920023201D0B930446CAE7E01D20F0D2
:100C80000700F0E80223CDE90A23F5E754F8043B16
:100C90000A9301294FF000030B93D3D00229B8D156
:100CA000BDF82830D0E7042B09D1E31D23F007035A
:100CB00003F10804D3E90023CDE90A23A9E7032BB4
:100CC00004BF54F8043B0A93A3E79DF83300782847
:100CD000AED8622822D825283FF48FAD5828A7D156
:100CE0000DF126030093DDE90A0104AB0CAA01F023
:100CF0006AFC8246B8F1000F0DF126000CDB9DF86E
:100D00003020A0EB0A036FF3861298458DF830204F
:100D100002D9A8EB03030D9380463DE06338152804
:100D200086D801A252F820F0A90D00000D0E000097
:100D3000310C0000310C0000310C0000310C0000BF
:100D40000D0E0000310C0000310C0000310C0000D1
:100D5000310C0000670E0000350E0000390E000057
:100D6000310C0000310C0000810D0000310C00003E
:100D7000350E0000310C0000310C0000350E000073
:100D8000B8F1000FDDF828A00ADB4146504601F01B
:100D9000D7FC0AEB00080026BAF1000F0CD147E798
:100DA000504601F0C6FCF4E70A9B8DF8103000268F
:100DB0000DF1100A0DF11108A8EB0A0306B1013379
:100DC0009DF83220D00668D5023352060D9948BFEF
:100DD0000E9A0B4448BF9B18B9F1000F76DD9DF8C1
:100DE0003020A9EB0309C2F38003039353076DD4AA
:100DF000500661D546B1029B5946304698470028B7
:100E000057DB039B01351E46302356E01E070FD4E7
:100E100013F0100618BF2026DDE90A23002BBFF6C9
:100E20005FAF524263EB4303CDE90A232D2657E718
:100E30002B26F1E7002653E70A9840B30DF126036D
:100E400000930CAA04AB002101F0BDFBBDF83230C9
:100E500003F0EF0343F4F04343F010038246ADF890
:100E60003230002646E70A9B07293FF6E1AEDFE86D
:100E700001F00C04060C08080C0C1D70D8E61D804F
:100E8000D6E6EA17C3E90052D2E61D60D0E6DFF8E5
:100E9000C8A006460AF105088EE7110748BF0133CE
:100EA00093E7184603935946029B98470028039BF3
:100EB00004DA11B0BDE8F08F20234D444A46002AE1
:100EC000A5EB090109F1FF39EBDC0D4636B1029BB8
:100ED0005946304698470028EBDB01359DF8323003
:100EE000D90601D41A0706D5029B594630209847E7
:100EF0000028DEDB01359DF83230DB0607D59DF892
:100F00003300029B594698470028D2DB01350D9EDD
:100F10002E44731B002B16DC02984346524659465A
:100F200001F097FB0028C4DB0544A944A9EB0503A5
:100F3000002B7FF77DAE029B594620209847002862
:100F4000B7DB0135F2E7029B59463020984700286D
:100F5000AFDB0135DDE700BF7233000010B54FF0A5
:100F60001003EFF3118483F31288BFF36F8F134ADA
:100F70001348937843F008039370124B124A5A6453
:100F800000F09EFD114B124A1A6000221146022009
:100F900000F03EFD0F4A1378002103F0C7031370E1
:100FA00008460D4A00F0EAFD0C4800F03BFC84F3D3
:100FB0001188BFF36F8F002010BD00BF00D0074025
:100FC0002432000000800440000023019001002032
:100FD00000127A0000400640783300002C320000F6
:100FE00072B607484CF22051C1814DF62811C181DB
:100FF00001884FF001029143018062B67047000002
:1010000000200540014910220A60704710ED00E001
:1010100072B6404080F31188BFF36F8FBFF34F8FDC
:1010200030BF62B6BFF36F8F704700BF43B2002B73
:1010300008DB012200F01F0002FA00F05B09024AFF
:1010400042F82300704700BF00E100E043B2002BEC
:10105000A8BF03F1604301F10101B8BF064B4FEA9D
:101060000111ACBF03F5614300F00F00C9B2B4BF7A
:10107000195483F80013704714ED00E030BFFFF7F8
:10108000FDBF00BF0F4A08B50F4B22F07F029A60E8
:10109000BFF34F8FBFF36F8FD3F8882022F4700215
:1010A000C3F88820EFF3148323F0040383F3148838
:1010B000BFF36F8F00F06AFE01F024F900F088F9A9
:1010C00000F06EFE0000000000ED00E0094A0A4951
:1010D00093680968D966094998664B6843F080535C
:1010E0004B60002383F31188BFF36F8F9368D86E32
:1010F000704700BF980100204833000000ED00E079
:101100000F498A684FF030001044EFF3098C80E8F3
:10111000F01F102080F31288BFF36F8F094F4FF03C
:1011200000668A698A603E60906E0023936680F351
:10113000118802F1300090E8F01F8CF309887047A5
:101140009801002004ED00E01EF0040F0CBFEFF347
:101150000880EFF30980816911F8021C0229FFD091
:1011600001B501F0B1FA01BD42F8203C009B42F804
:101170001C3C0A49019B42F8183C029B42F8143C73
:1011800021F001014FF0807342F8043C42F8081C42
:101190000023203A02658366704700BFB325000034
:1011A000074B9860104681F30988002163B681F3EC
:1011B0001188BFF36F8F0022002301F0FAF900BFFE
:1011C0009801002001B5EFF30580A0F110004FEA6F
:1011D000C0000449014409C99847BDE801400249DB
:1011E000084700005C2F0000ED110000044B9968D7
:1011F0009869884203D003494FF080520A607047D3
:101200009801002004ED00E00D4B9A6A9A6A9A6AF0
:10121000920508D59A6B9A6A120404D518B19A6A95
:1012200022F400429A62064B9A6A9A6AD20558BF23
:101230009A6A9A6A002042F47F429A620870704764
:1012400000ED00E00E4B9A6A9A6A9A6A920708D5F6
:101250005A6B9A6A120604D518B19A6A22F0800273
:101260009A62074B9A6A9A6A9A6AD20658BF9A6A31
:101270009A6A002042F0FF029A620870704700BF2D
:1012800000ED00E070B5484B5B688AB00E46C3F3D2
:101290000803002585F31188BFF36F8F02F07F41AB
:1012A000B1F17F4F11D102F00C0108290DD01107C7
:1012B00001D4064601250022033B8DF80720032BAD
:1012C0006AD8DFE803F00454585C2E46F3E7364B47
:1012D000DC6A14F002045FD1DA6A002A14DBDA6AED
:1012E000520011D5B26932F8021C4DF602729142D9
:1012F00009D093F8282002B30DF107010120FFF770
:10130000A1FF044600E034689DF807309BB9202215
:10131000314602A801F02EFA099B002D3ED0C3F3FE
:10132000080222B96FEA53236FEA4323099302A903
:10133000204601F0C7F90AB070BD93F829202AB100
:101340000DF107010120FFF75FFFDAE75A8D92B236
:10135000002AD9D09A6A9A6A9A6A9A6A9A6A9A6AA2
:101360009A6A6FEA02426FEA12429A62CCE70DF182
:1013700007010020C3E70DF107010020E3E70A4B56
:101380009A6A9A6A9A6A9A6A9A6A9A6A9A6A6FEAE8
:1013900002426FEA12429A620024B5E723F4FF7317
:1013A00023F00103C2E700BF00ED00E0024A5369E9
:1013B00043F010035361704700ED00E0EFF3088045
:1013C000EFF3098101B57246FFF75CFF01BD00BF75
:1013D000044800231021C21801334A2B82F800135D
:1013E000F9D1704700E100E0102080F31188FFF789
:1013F000F7FD08484FF40061401880F30988EFF3C7
:1014000014800221084380F31488BFF36F8FFFF725
:1014100039FE000010070020064B9B68834207D16D
:10142000EFF3058323B1044A536843F080535360BC
:1014300000F016BF9801002000ED00E0014B18609D
:10144000704700BF040000200239012902D8034B75
:101450001B6818474FF0FF30704700BF04000020A2
:101460000FB407B504AB022153F8042B04480193D1
:10147000FFF7B2F903B05DF804EB04B0704700BFAA
:10148000A327000038B5084CA5684FF440722B68BC
:101490000021204698472B684FF4407201212046D6
:1014A0009847002038BD00BF0C2E000008B5084B3F
:1014B0000848186001F094FB38B10748FFF7BEFFF9
:1014C0000548FFF783F9002008BD6FF01200FBE725
:1014D00040010020B42E0000DD1400000A2838B5B9
:1014E000074D044604D1286883680D215B6898473E
:1014F00028688368E1B25B689847204638BD00BF22
:10150000400100204FF0E02310B59A6919699869ED
:10151000094B11F4803F094901D1824206D21A6871
:101520000C6822441A604FF0E02212691B680A68B6
:101530001344181A10BD00BF8C0100208801002040
:1015400008B5FFF7DFFF0C4B0C4A18681168084418
:10155000106000221A600A4A13684FF4E151C01A61
:10156000B0FBF1F001FB0033136000F0ABFFBDE80E
:101570000840FFF73BBE00BF8C0100208401002023
:1015800080010020094B102283F82320084B41F6EC
:101590001F421A60074B002018604FF0E0235A6189
:1015A00098611A6942F007021A61704700ED00E085
:1015B000880100208C010020F8B5324D59B1431C40
:1015C00009D14FF0E022136923F0010313614FF0BA
:1015D0007F432B60F8BD40F61913B0F1FF3F08BF01
:1015E0001846441E002C2F6832DD9C42A8BF1C46C2
:1015F0004FF01003EFF3118683F31288BFF36F8F60
:10160000FFF780FF20494FF0E0230022D3F818C0F5
:101610000B6818441D4B08601A601D4B1B68C21AEA
:1016200018D54FF480632B604FF0E0222C6893694B
:101630009C4538BFBC44013CACEB030C5461604496
:1016400000249461086086F31188BFF36F8FC1E7AF
:101650000024CDE74FF4E15E0EFB042404F5E054D2
:101660001B1A1F34B4FBFEF40EFB0434B4F5806F78
:1016700004D9084B9C42D6D82C60D5E74FF480643F
:10168000FAE700BF88010020840100208C010020BF
:101690008001002020DFFF0010B54FF01003EFF3B2
:1016A000118483F31288BFF36F8FFFF72BFF074B73
:1016B000074A1B6812689B1A034484F31188BFF31E
:1016C0006F8F4FF4E150B3FBF0F010BD84010020A8
:1016D0008001002010B54FF01003EFF3118483F365
:1016E0001288BFF36F8FFFF70DFF044B1B68184480
:1016F00084F31188BFF36F8F10BD00BF84010020F9
:10170000084B1B7B03F00303012B05D0022B05D0F4
:1017100033B9054B18687047044BFBE70448704722
:1017200000207047004006409001002094010020F6
:10173000006CDC0208B5124A9379DB061CD4FFF773
:10174000DFFF13785178127BC3F3C20311F0300F1F
:1017500020FA03F002F0030200D00AB1022A04D1F9
:10176000062B03D0072B05D0400908BD1423B0FB7E
:10177000F3F0FAE70C23FAE7024B1868F5E700BF2D
:101780000040064014000020064B9A79D20755BF4E
:10179000054B064A1868187A42BFC0F34203106826
:1017A000D840704700400640140000201000002080
:1017B000034B1B781B0646BF024B1868002070477E
:1017C0000050064090010020054B1A78120641BFD8
:1017D000044A9B7810689B094CBFD8400020704792
:1017E000005006409001002008B50C4B1B68C3F365
:1017F0008143022B09D0032B0AD063B9FFF7D8FF2E
:10180000B0F5004F18BF002008BD054B1868FBE776
:101810004FF47A70F8E70020F6E700BF007004404C
:10182000940100200C4A436802F5805110B54B64C6
:1018300003784C681B0403F4403324F440342343FE
:101840004B60437811689B0403F4402321F440214A
:101850000B43136010BD00BF0070044010B50C4C6A
:1018600063789A0701D5002010BDA3799B06FAD4AE
:10187000FFF760FF0028F6D0E378E278C3F3411366
:101880005B0003EBD213034A32F813305843EBE703
:10189000004006404C330000034B187810F0020063
:1018A00001D0FFF771BF70470040064008B5094AF4
:1018B000907910F040000CD0FFF722FF137903F06D
:1018C0001F030133B0FBF3F3507900F01F00183011
:1018D000584308BD00400640084B5B68C3F3014312
:1018E000012B04D0032B04D02BB9FFF7B7BFFFF7B0
:1018F000DDBF034870470020704700BF00800440F0
:10190000006CDC02084B9B79C3F38103022B09D0E6
:10191000032B03D0012B03D1FFF736BFFFF7C6BF60
:10192000FFF79CBFFFF7ECBE0040064008B5132848
:101930004CD8DFE800F00D0D161D244B2B2F474B24
:101940004333373B3F4B4B4B4D0A4FF47A7008BD46
:10195000FFF7D8FF1F4B5B6C1B0F0133B0FBF3F09D
:10196000F5E7FFF7CFFF1B4B5B6CC3F30363F4E7B3
:10197000FFF7C8FF174B5B6CC3F30353EDE7FFF7AB
:10198000C1FF144B5B6CC3F30343E6E7BDE80840BB
:10199000FFF7A2BFBDE80840FFF726BFBDE808403B
:1019A00001F0DAB8BDE80840FFF776BFBDE80840AF
:1019B000FFF754BFBDE80840FFF778BFBDE8084017
:1019C000FFF7F6BEBDE80840FFF7FEBE0020BEE709
:1019D0000148BCE700800440006CDC0210B50B49F4
:1019E0000A7B0B7B00F0030403F0FC0323430B731F
:1019F00002F00303834205D1002010BD00BF013B6C
:101A0000FCD1F9E740F2DD53F9E700BF00400640A2
:101A100070B51D4B9C799D791E7AC6F3420696429D
:101A2000C4F38104EDB217D01B789B0701D4012CBD
:101A300009D1EE0707D5144B5D7805F0FE055D7002
:101A40009D79ED07FCD4104D2B7A520002F00E0266
:101A500003F0D0031A432A720B4B5A7801F00105A8
:101A600002F0FE022A435A701A7802F0FC02024386
:101A7000012C1A7001D0820704D59A7902F0010274
:101A80008A42FAD1002070BD0040064042780B4BDC
:101A900002F01F021A715979827801F0E00102F018
:101AA0001F020A435A711A7901780A4342F0400230
:101AB0001A719A795206FCD5704700BF0040064063
:101AC000036849F69702934230B526D914498B42F0
:101AD00094BF01210221134A0479137803F0F00323
:101AE0002343114C13706378457903F0C3032B43F0
:101AF00043EA01136370C3791178807901F05F01C3
:101B00009B010143DBB2117093702DB113781A065B
:101B100002D5A3799B07FCD530BD0021DBE700BFD0
:101B200000127A00005006400040064010B5124BEB
:101B30005A7802F0FD025A701A7802F03B0242F025
:101B4000800208461A709A7902F01C02082AFAD11B
:101B50005A79094C02F0BF025A71A3799A06FCD453
:101B6000FFF794FF637943F040036371A3799B0609
:101B7000FCD5002010BD00BF0040064038B515461A
:101B80000C46FFF72BFF29462046FFF7CFFF064AFA
:101B9000137803F03F0313709379C3F38103032B8E
:101BA000FAD1002038BD00BF00400640084B9842E3
:101BB0000AD003F58053984208D003F58053984229
:101BC0000CBF02200320704700207047012070479F
:101BD00000A00640F8B50B68B2EB031F4FEA0315EF
:101BE00034BF0125B2FBF5F55200B2FBF3F6B2FBB0
:101BF000F6F2934234BFD21A9A1A04466420B3FB19
:101C0000F0F303EB4303934257D32046FFF7CEFF95
:101C10002B4B53F82000030C03F1804303F58E2374
:101C200080B21F68012282403A431A60E37803F0D1
:101C3000F303E370237803F0E00343EA1523DBB2F8
:101C4000EDB223706570A37A06F01F0603F0E0037F
:101C50001E43A6724A7AA378920002F0040203F0AF
:101C6000E80313430A7912B1134343F01003A3703E
:101C70004B79E3748B796375237C43F08803237479
:101C8000637C43F0C0036374CB791BB1637B43F087
:101C9000080363730B7A1BB1637B43F00103637327
:101CA000E3788A7ADBB20AB143F00803CA7A0AB150
:101CB00043F00403E3700020F8BD40F2F530FBE789
:101CC000283300000E4B70B553F82040013053F814
:101CD0002060A64200D870BDD4E900352846984758
:101CE00065B1EB6830B10028B8BF4042FF28A8BFFB
:101CF000FF2018705A7842F001025A700834E8E761
:101D00003433000010B5104C1049702386B003FB2B
:101D1000004401220023CDE904230F22CDE9023241
:101D200001930B4B182202FB00334FF4A072009377
:101D300002FB0011074B204600F09CF8637B23F068
:101D40000403637306B010BD58000020D0050020C6
:101D500098010020432C000008B50A4B0122022004
:101D60001A70FFF7AFFF01F008F80320FFF7AAFF92
:101D700000F0AAF8FEF7CEFC034A137B23F0010320
:101D8000137308BDCC010020C80000200248034A9C
:101D90000021121A00F0F9BC58000020D0010020E8
:101DA00080B5DFF8B080A2B088F308882A4D2B4EAA
:101DB0006B69DFF8AC9043F400736B610024F0238F
:101DC00085F82230EC772C766C76AC7685F820405E
:101DD0006B6A43F4E0236B62FFF7E8FAFFF712F94E
:101DE0004FF0FF33AB62EB6240F20113ADF82430E9
:101DF00006ABB36000F0F3FE2046FFF763FF01205F
:101E0000184DFFF75FFF00F019FA174B05930123F8
:101E100016490094CDE903434FF480624B46CDE967
:101E200001442846B56100F025F86A7B074622F098
:101E3000040228466A7300F03EFF2046FFF762FF67
:101E40000B4BF3604A46394628463475C6F8048081
:101E5000FFF7A6F9100F002000ED00E09801002028
:101E6000591D0000C800002007340000D0010020E8
:101E7000580000207FB50C9E067307320426467377
:101E800000F158050B9E867322F00702C0E9165533
:101E90008E1800250A9A8560C0E90655C57302921E
:101EA000099A0192089A009232460446FFF75CF9BB
:101EB000044B65659B6803B15B6E6366304604B096
:101EC00070BD00BF98010020F0B5224C224D87B0B4
:101ED0002646AE4204F130040BD300F091F81D4CBD
:101EE0001E4F0A26AC4220D307B0BDE8F04000F0F8
:101EF00089B954F8043C059354F8103C049354F801
:101F0000143C039354F8183C029354F81C3C01937E
:101F100054F8203C009354E90C0154E90A23FFF7DC
:101F2000A9FF54F8303C5E65D2E7626A531C09D0C1
:101F300022EAE27282FB062352EA0301206803D1FF
:101F400000F042F93034CDE73946183000F040FA5D
:101F5000F8E700BF5800002058000020D72C0000F0
:101F600010B5084C23685BB1FFF796FB0346206869
:101F7000054A0344BDE810401361002100F0E3BEB0
:101F800010BD00BFC40100209801002010B54FF023
:101F90001003EFF3118483F31288BFF36F8F0C4BA0
:101FA00000221A6190424FF00A030A4A00FB03F331
:101FB00009DC1360084B1960FFF7D2FF84F3118826
:101FC000BFF36F8F10BD022BB8BF0223F1E700BF34
:101FD00098010020C4010020C001002049B9EFF39E
:101FE000058030B9054B9A699B689A4201D0FFF78A
:101FF0006DB881F31188BFF36F8F7047980100208F
:102000004FF01003EFF3118183F31288BFF36F8F4A
:10201000044B9A68D37B013BD37381F31188BFF3E0
:102020006F8F70479801002038B502460C480D4D5F
:1020300000F03BFE044600B9EC68AB684AB95A7B35
:10204000D20606D1A26922B9DA897F2A01D9AB6109
:1020500038BD9C4201D0FFF783FFAC61F8E700BFB9
:10206000B40100209801002070B590F90D20437B49
:10207000002A014604DA03F07F03437300F0EDFD0C
:102080004B7B154A63F07F034B73D2E9073402F1AF
:102090001C05AB421BD0D3B191F90E6093F90E0031
:1020A00086420FD0801B00280CDD5868C1E9003043
:1020B000016059609068431A5842BDE87040584129
:1020C000FFF7B2BFA34202D01B68002BE6D1C1E9E3
:1020D000005421601162EDE79801002038B50146F7
:1020E0004FF01003EFF3118483F31288BFF36F8F67
:1020F000154B164A98681568A84206D1FFF730FFBD
:1021000084F31188BFF36F8F38BD00251560104A26
:102110001268BAB1C2897F2A14D8427BD20611D183
:102120000C4A90F90E50126895420BDB0A4A904215
:1021300008D01A698A4202DCFFF796FFDEE7521ADE
:102140001A61DDE70022FBE798010020BC010020B6
:10215000C4010020C00100205800002070B490F994
:102160000D20437B002A2ADBDA0628D1826932BBA4
:10217000144A63F07F034373D2E9073402F11C056C
:10218000AB4217D0B3B190F90E6093F90E108E42A6
:102190000BD0891B002908DD5A68C0E900321060A5
:1021A000586070BC0020FFF73FBFA34202D01B68FD
:1021B000002BEAD1C0E9005420601062F1E770BC46
:1021C000704700BF9801002010B54FF01002EFF3E8
:1021D000118482F31288BFF36F8F427B510704D4BE
:1021E00084F31188BFF36F8F10BD22F00402427395
:1021F000FFF7B4FF21460248BDE81040FFF7EEBEEE
:10220000CD01002010B54FF01003EFF3118483F3DC
:102210001288BFF36F8F084B9A68D37B0133D37357
:102220000020FFF701FF84F31188BFF36F8FBDE833
:10223000104000F030BD00BF98010020044B002189
:1022400003F11C02C3E907220846FFF79FBE00BF47
:1022500098010020014B9868704700BF980100204A
:102260002DE9F04104464FF01003EFF3118683F39C
:102270001288BFF36F8F437B1A0705D586F3118849
:10228000BFF36F8FBDE8F08123F0200242F0080118
:10229000D20920D14173A36813B1204600F0E5FCB8
:1022A00004F1180000F039FD04F158074FF0000860
:1022B000A56DBD4200D0B5B90120FFF7B5FE104BAA
:1022C0009B68A342DAD1EFF30583002BD6D13046C9
:1022D000FEF7FCFED2E703F05F0343F0080343730D
:1022E00000F0BBFCD7E7284600F0BFFC05F1180062
:1022F00000F013FDC5F86C802846FFF72FFFD7E7E5
:102300009801002008B50648064A0749121A00F04D
:1023100031FABDE80840054A0549064800F02ABAE6
:1023200000000020580000200C34000000000000D5
:102330000C34000000000020034B1B680BB9FFF7B2
:10234000ABB90020704700BFC8010020114B10B589
:102350001C689C4208BF0024FFF7EEFF03466CB1E7
:10236000D4E90402C01A62EBE373012873F100029E
:102370000DDBB0F1004F73F1000301DB6FF00040A3
:10238000054B1B6913B19842A8BF184610BD002029
:10239000F6E700BF180000209801002030B5036860
:1023A00068B10A4A5268904209D043B1D3E9042186
:1023B000D0E90445121941EB0501C3E90421426843
:1023C00013605A600023C0E9003330BD18000020BC
:1023D000B3F1FF3F08BFB2F1FF3FF8B504461F4617
:1023E000154667D081604FF01003EFF3118683F339
:1023F0001288BFF36F8F6FF00102531B4FF0FF3C49
:102400006CEB0703002B1BDB2B4BD3E90013521A99
:102410006CEB0303551B63EB0703012D73F1000203
:10242000BCBF01250023C0E904532448D0E9003C87
:10243000834218D1C4E9000CCCF80040446026E087
:10244000FFF77AFF013547F100072D1847EBE077DA
:10245000C4E90457E9E7521A65EB07059C45C4E94E
:102460000425E7D01B68002BE4D0D3E90417D4E996
:1024700004258A4275EB070EEDDA8A1A67EB05052B
:10248000C3E904255A68C4E9003214605C6003683B
:1024900083420BD09C4209D1FFF758FF18B1084B7B
:1024A0001B69834202D00021FFF786F886F311886A
:1024B000BFF36F8FF8BD00BF380100201800002067
:1024C000980100202DE9F8430546FFF707FE4FF07D
:1024D0001003EFF3118483F31288BFF36F8F244E40
:1024E000DFF890803560244DD8F800003268404510
:1024F000D5E9001E4FEAE2770BD050B1D0E9043C99
:102500009A4277EB0C0916DA9B1A6CEB070CC0E9C0
:10251000043C52184EEB0707C5E90027002535603B
:10252000FFF714FF2946FFF747F884F31188BFF33C
:102530006F8FBDE8F88359184EEBE377D31A3360F9
:1025400000220023C0E90423C5E90017FFF726FF96
:1025500084F31188BFF36F8F836898474FF010039F
:10256000EFF3118483F31288BFF36F8FBCE700BFD2
:10257000C8010020180000203801002038B50446AA
:1025800078B1FFF7A7F805460648074AA4FB000103
:102590000023FDF73DFF0446FFF79CF8431BA342D1
:1025A000FAD338BD00A24A0440420F007047002011
:1025B0007047044608B5084611461A46A047FFF77B
:1025C00049FEFEF729FF2DE9F84F9A46D3786F2B85
:1025D00080460F461546A3F1410B29D024D8582B2D
:1025E00014BF0A261026DDF8289032460023404604
:1025F0003946FDF70DFF092AD4B21ED83034B04554
:10260000E4B277F1000309F8014D01D3D14511D8A7
:102610002B789B0605D5082E15D1AB7843F008031F
:10262000AB704846BDE8F88F03F0F703702BD7E78F
:102630000826D8E780460F46D7E7BBF1190F94BFAD
:1026400037345734DBE7102EEBD1AB7843F010036F
:10265000E6E72DE9F0410746884615461E46144632
:10266000B442A4EB050002D33EB923782BB114F891
:10267000010B4146B8470028F2DABDE8F081704707
:1026800043685B68002043F82120704743685B681B
:1026900053F821301360002070476FF085007047B9
:1026A000436819680B0C03F1804303F58E2389B24C
:1026B000186801228A4002431A60002070476FF0B8
:1026C0008500704700F0A2BA0146006800F09EBA8B
:1026D00000210120FFF7F6BF08B5FEF7CFFCBDE8EB
:1026E0000840FEF783BD30B50278202A034600F18A
:1026F0000100F9D0A2F109010429F5D92B2A08D04B
:102700002D2A0ABF034600210121013B00200A2592
:1027100006E003460021F8E7C2F1300205FB002085
:1027200013F8012FA2F13004092CF5D901B9404268
:1027300030BD034600201A5C02B970470130FAE749
:10274000034600201A5C0AB1884200D1704701306C
:10275000F8E710B503465AB10139841813F8010B94
:1027600011F8012FA34201D09042F7D0801A10BD7A
:102770001046FCE710B5431E0A44914200D110BD3B
:1027800011F8014B03F8014FF7E7C9B202440346C1
:10279000934200D1704703F8011BF9E74FF0FF3077
:1027A0007047FEF751BE002070470020704738B5D3
:1027B000154621B1012908D06FF0150038BD0B2056
:1027C000FFF7B4F828600020F8E7FFF79BF8F9E777
:1027D000002070470B0C03F1804303F58E23012288
:1027E000186889B202FA01F10143196000207047AC
:1027F0000B0C03F1804303F58E2301201A6889B284
:1028000000FA01F122EA010119600020704700205E
:102810007047132910B514BFC8B208461446FFF715
:1028200085F82060002010BD40681F2930B5D0E930
:10283000013539D802F44070B0F5407F07D09407D5
:1028400005D4B0F5807F05D0B0F5007F1CD06FF0C7
:10285000850018E0586901248C4020EA0400586182
:10286000D3061ED412F0200F0CBF4FF480724FF429
:10287000817255F8213023F4E06323F003031343FE
:1028800045F82130002030BD0120140500FA01F088
:1028900003D558605C692043E1E7540548BF986060
:1028A000F8E740F20312E4E76FF01500EBE7436846
:1028B0005B681B690B600020704743685B681868A1
:1028C00042400A4042401A600020704743685B68FB
:1028D00000205960704743685B680020996070472A
:1028E00043685B680020D96070470369586830B559
:1028F00058B10024814212D108689D6854B98D42B4
:10290000586000D19860002008606AB9002030BD8E
:102910002846EFE78D42206008BF9C60F3E705681A
:102920000446002DF4D13AB198685A680A6059609B
:102930000028EBD19960EAE76FF01500E7E708B5EA
:10294000002202213B20FEF781FB3B20FEF76EFBBD
:10295000002008BD08B5002202213C20FEF776FBCE
:102960003C20FEF763FB002008BD08B500220221D1
:102970003D20FEF76BFB3D20FEF758FB002008BD15
:1029800008B5002202213E20FEF760FB3E20FEF744
:102990004DFB002008BD08B5002202213F20FEF7B4
:1029A00055FB3F20FEF742FB002008BD40681F2971
:1029B00030B585682ED8B2F5005F25D044686469CB
:1029C000CC40E40726D4C068400426D5B2F5804F39
:1029D0000ED1B3F5003F0CBF08220C2255F8213070
:1029E00023F4702343EA024345F82130002030BD30
:1029F000B3F5802F0AD0B3F5C02F09D0B3F5003F4F
:102A000014BF00220A22E9E70022E7E70922E5E7EE
:102A10000B22E3E76FF01500E9E76FF08500E6E7CA
:102A2000436802699B68516870B5D3F8A060C3F829
:102A3000A060044651B10D688A68324002D04B68EC
:102A40002046984715B129462D68F5E770BD026903
:102A50000B4692E8030083E80300002070472DE94D
:102A6000FF4145680769D5E901680C46304600F02A
:102A7000B7F828B96FF01503184604B0BDE8F08127
:102A8000B368DB68002BF5D06A464146304698476C
:102A90000028EFD101A800F06BF840F20113ADF867
:102AA0000E30236801936379012B03D1E37923B1BD
:102AB000012B02D06FF08503DEE78DF80B308DF827
:102AC0000C302379012B12D0022B01D0002BF1D135
:102AD0008DF80830009A286801A9FFF77BF80346B3
:102AE0000028C7D194E8030087E80300C4E7032364
:102AF000EEE70169FFF7B3BF38B545680C462868B3
:102B000000F045F80306FAD52B68DC7138BD38B5FE
:102B1000456828680C4600F03AF8830641BF2B68E8
:102B2000DB792370002058BF4FF0FF3038BD38B537
:102B30004568286800F02BF8C0F3C004C20748BFFE
:102B400044F00204830748BF44F0040428680B21C2
:102B500000F028F8204638BD10B5FEF7EBFD04461E
:102B6000FEF7D0FEB4EBD00F94BF2046002010BD7E
:102B700010B50C2200210446FFF707FE4FF4803306
:102B80004FF4E132C4E900230023A36010BD0279B1
:102B90004179037B807C1B0443EA0123134343EA0E
:102BA0000060704710B5437903F03F0343EA1123F7
:102BB000DBB243710B0E8374CB060C4607D003794E
:102BC000C37901238374437C43F040034374FFF7CC
:102BD000DEFF204240F2EE3008BF002010BD7047FB
:102BE00038B1C3681888C0F30800A0F58073584254
:102BF000584170474FF01002EFF3118382F31288AF
:102C0000BFF36F8FFEE708B5FFF7F4FFF8B5054691
:102C10000E464FF01003EFF3118783F31288BFF3D2
:102C20006F8FFFF717FB314604462846FFF7EBFF8F
:102C300087F31188BFF36F8F2046BDE8F840FEF799
:102C4000EBBB08B54FF01002EFF3118382F312884B
:102C5000BFF36F8FFEF7DCF9F4E7D0E900321360C1
:102C60005A600023C0E90033704708B5FFF7F5FF4D
:102C7000437B23F0020343730023836008BD0346B4
:102C800020B9EFF305820AB9FEF720BA83F3118861
:102C9000BFF36F8F70474FF01003EFF3118083F392
:102CA0001288BFF36F8FFFF7EABF034600688342C5
:102CB00008BF0020704710B54FF01003EFF31184E8
:102CC00083F31288BFF36F8FFFF748FA84F31188FC
:102CD000BFF36F8F10BD10B501464FF01003EFF337
:102CE000118483F31288BFF36F8F10F80B3C13F03D
:102CF000280F0DD151F8103C18380BB1FFF7B5FF74
:102D000011F80B3C23F0140301F80B3CFFF726FAF3
:102D100084F31188BFF36F8F10BD10B54FF0100210
:102D2000EFF3118482F31288BFF36F8F03683BB116
:102D3000FFF734FB002084F31188BFF36F8F10BDC1
:102D40006FF01500F7E770B504460D464FF010031D
:102D5000EFF3118683F31288BFF36F8FFFF7F6FA54
:102D6000012805DDA04203DB29462046FEF724FCAE
:0C2D700086F31188BFF36F8F70BD7047B1
:082D7C00C4D6FF7F0100000036
:102D84005D0F000000000000A12600000C2E0000D2
:102D9400A1260000242E0000A12600003C2E0000E5
:102DA400A1260000542E0000A12600006C2E000075
:102DB4008514000000000000AB270000842E0000F2
:102DC4000F2800009C2E0000F32A0000B42E0000FF
:102DD40085150000CC2E000097290000E42E000089
:102DE40081290000FC2E00006B290000142F000034
:102DF400552900002C2F00003F290000442F00001B
:082E0400AD1400000000000005
:102E0C007B330000543200005C32000020000020B4
:102E1C00000000001C3200008B3300004C3200001C
:102E2C005C3200002400002000000000143200007E
:102E3C009B330000443200005C320000280000206C
:102E4C00000000000C320000AB3300003C320000EC
:102E5C005C3200002C000020000000000432000056
:102E6C00BB330000343200005C3200003000002024
:102E7C0000000000FC310000CB330000000000001B
:102E8C006C3200003400002000000000F63100001D
:102E9C00CF3300000000000080320000380000201A
:102EAC0000000000F0310000F63300000833000091
:102EBC00143300005000002008000020E231000014
:102ECC00FD33000000000000000000005400002052
:102EDC0000000000DE310000D3330000F8320000A7
:102EEC00943200003C00002074010020D43100001A
:102EFC00DA330000E8320000943200004000002079
:102F0C0068010020CA310000E1330000D832000013
:102F1C0094320000440000205C010020C03100000D
:102F2C00E8330000C8320000943200004800002052
:102F3C0050010020B6310000EF330000B832000021
:102F4C00943200004C00002044010020AC31000001
:102F5C0000000000D126000000000000D126000077
:102F6C0000000000D126000000000000D126000067
:102F7C0000000000D126000000000000D126000057
:102F8C0000000000D126000000000000D126000047
:102F9C0000000000D126000000000000D126000037
:102FAC0000000000D126000000000000D126000027
:102FBC0000000000D126000000000000D126000017
:102FCC0000000000D126000000000000D126000007
:102FDC0000000000D126000000000000D1260000F7
:102FEC0000000000D126000000000000D1260000E7
:102FFC0000000000D126000000000000D1260000D7
:10300C0000000000D126000000000000D1260000C6
:10301C0000000000D126000000000000D1260000B6
:10302C0000000000D126000000000000D1260000A6
:10303C0000000000D126000000000000D126000096
:10304C0000000000D126000000000000D126000086
:10305C0000000000D126000000000000D126000076
:10306C0000000000D126000000000000D126000066
:10307C0000000000D126000000000000D126000056
:10308C0000000000D126000000000000D126000046
:10309C0000000000D126000000000000D126000036
:1030AC0000000000D126000000000000D126000026
:1030BC0000000000D126000000000000D126000016
:1030CC0000000000D126000000000000D126000006
:1030DC0000000000D126000000000000D1260000F6
:1030EC0000000000D126000000000000D1260000E6
:1030FC0000000000D126000000000000D1260000D6
:10310C0000000000D126000000000000D1260000C5
:10311C0000000000D126000000000000D1260000B5
:10312C0000000000D1260000442F0000212A0000DE
:10313C002C2F0000212A0000142F0000212A00004F
:10314C00FC2E0000212A0000E42E0000212A0000A1
:10315C0000000000D126000000000000D126000075
:10316C0000000000D126000000000000D126000065
:10317C0000000000D126000000000000D126000055
:10318C0000000000D126000000000000D126000045
:10319C0000000000D126000000000000D126000035
:1031AC000500FF7FFF7FFF7FFF7F0400FF7FFF7F16
:1031BC00FF7FFF7F0300FF7FFF7FFF7FFF7F02000A
:1031CC00FF7FFF7FFF7FFF7F0100FF7FFF7FFF7F80
:1031DC00FF7FFF7FFF7F01000700FF7FFF7FFF7FE7
:1031EC00FF7FFF7FFF7FFF7FFF7FFF7FFF7FFF7FE3
:1031FC000700FF7FFF7FFF7F0700FF7FFF7FFF7FC1
:10320C000700FF7FFF7FFF7F0700FF7FFF7FFF7FB0
:08321C000700FF7FFF7FFF7F29
:1032240000127A00000400000102000000002201E4
:1032340009003810009004400A00381000A004402F
:103244000B00381000B004400C00381000C00440DB
:103254000D00381000D00440812600008D260000A7
:103264009B260000BF260000A7270000D1270000EE
:1032740000000000AF27000000000000D527000078
:10328400F1270000000000001328000000000000E7
:1032940029280000AF280000BB280000CD2800002A
:1032A400D7280000E1280000AD290000EB28000029
:1032B40000000000FFFFFFFF00F00F4000900440FB
:1032C40000400000FFFFFFFF40F00F4000A004405B
:1032D40000400000FFFFFFFF80F00F4000B00440FB
:1032E40000400000FFFFFFFFC0F00F4000C004409B
:1032F40000400000FFFFFFFF00F10F4000D004403A
:103304000040000000B006409C2E000000000000B9
:103314000F2B0000F92A00002F2B00005F2A000069
:103324004F2A00000A0034100B0034100C00341033
:10333400842D0000D42D0000DC2D00000C2E000094
:103344000C2E0000F5FFFFFF8002DC020005B8052B
:1033540080079508000A710B7B696E69747D0062B1
:103364006175643A007B6368616E67657D00286EF1
:10337400696C290000030C70696E6D7578403430F7
:103384003034643030300070696E6D75784034309C
:103394003034633030300070696E6D75784034308D
:1033A4003034623030300070696E6D75784034307E
:1033B4003034613030300070696E6D75784034306F
:1033C400303439303030004D43470053494D0047C5
:1033D40050494F5F34004750494F5F3300475049CD
:1033E4004F5F32004750494F5F31004750494F5FAC
:1033F4003000554152545F31007379735F636C6FD1
:08340400636B006D61696E004D
:10340C00AF2500009D27000000C201000001030051
:10341C0000093D000080000018000020180000206A
:10342C000000000000000000000000000000000090
:10343C000000000000000000000000000000000080
:10344C000000000000000000000000000000000070
:08345C00000000000000000068
:04000003000013E9FD
:00000001FF
