:1000000020060020C5140000ED2D0000991400000A
:1000100099140000991400009914000000000000D9
:100020000000000000000000000000004D11000072
:100030009914000000000000F9100000851800006D
:10004000FD110000FD110000FD110000FD11000078
:10005000FD110000FD110000FD110000FD11000068
:10006000FD110000FD110000FD110000FD11000058
:10007000FD110000FD110000FD110000FD11000048
:10008000FD110000FD110000FD110000FD11000038
:10009000FD110000FD110000FD110000FD11000028
:1000A000FD110000FD110000FD110000FD11000018
:1000B000FD110000FD110000FD110000FD11000008
:1000C000FD110000FD110000FD110000FD110000F8
:1000D000FD110000FD110000FD110000FD110000E8
:1000E000FD110000FD110000FD110000FD110000D8
:1000F000FD110000FD110000FD110000FD110000C8
:10010000FD110000FD110000FD110000FD110000B7
:10011000FD110000FD110000FD110000FD110000A7
:10012000FD110000FD110000FD110000FD11000097
:10013000FD110000FD110000FD110000FD11000087
:10014000FD110000FD110000FD110000FD11000077
:10015000FD110000FD110000FD110000FD11000067
:10016000FD110000FD110000FD110000FD11000057
:10017000FD110000FD110000FD110000FD11000047
:10018000FD110000FD110000FD110000FD11000037
:10019000FD110000FD110000FD110000FD11000027
:1001A000FD110000FD110000FD110000FD11000017
:1001B000FD110000FD110000FD110000FD11000007
:1001C000FD110000FD110000FD110000FD110000F7
:1001D000FD110000FD110000FD110000FD110000E7
:1001E000FD110000FD1100000000000000000000F3
:1001F00000000000000000000000000000000000FF
:1002000000000000000000000000000000000000EE
:1002100000000000000000000000000000000000DE
:1002200000000000000000000000000000000000CE
:10040000FFFFFFFFFFFFFFFFFFFFFFFFFE3FFFFFBD
:1004100053B94AB9002908BF00281CBF4FF0FF316B
:100420004FF0FF3000F074B9ADF1080C6DE904CE67
:1004300000F006F8DDF804E0DDE9022304B07047BF
:100440002DE9F047089E0D4604468846002B4DD105
:100450008A42944668D9B2FA82F252B101FA02F3A2
:10046000C2F1200120FA01F10CFA02FC41EA030872
:1004700094404FEA1C45210CB8FBF5FE1FFA8CF79F
:1004800005FB1E8341EA03430EFB07F199420BD99A
:100490001CEB03030EF1FF3080F01E81994240F205
:1004A0001B81AEF1020E63445B1AA4B2B3FBF5F0FC
:1004B00005FB103344EA034400FB07F7A7420AD9BF
:1004C0001CEB040400F1FF3380F00881A74240F2E6
:1004D000058164440238E41B40EA0E4000211EB14D
:1004E000D4400023C6E90043BDE8F0878B4208D919
:1004F000002E00F0EE800021C6E900050846BDE8A8
:10050000F087B3FA83F100294AD1AB4202D3824289
:1005100000F2F980841A65EB030301209846002E4F
:10052000E2D0C6E90048DFE702B9FFDEB2FA82F2A4
:10053000002A40F09180A1EB0C054FEA1C471FFAFE
:100540008CFE0121B5FBF7F307FB1350250C45EAA0
:1005500000450EFB03F0A84208D91CEB050503F18A
:10056000FF3802D2A84200F2CB8043462D1AA4B233
:10057000B5FBF7F007FB105544EA05440EFB00FEFF
:10058000A64508D91CEB040400F1FF3502D2A645AC
:1005900000F2BB802846A4EB0E0440EA03409EE72D
:1005A000C1F120078B4022FA07FC4CEA030C20FA29
:1005B00007F405FA01F31C43FD404FEA1C4900FA19
:1005C00001F3B5FBF9F8200C1FFA8CFE09FB185556
:1005D00040EA054508FB0EF0A84202FA01F20BD9E9
:1005E0001CEB050508F1FF3A80F08880A84240F234
:1005F0008580A8F1020865442D1AA4B2B5FBF9F074
:1006000009FB105544EA054500FB0EFEAE4508D92E
:100610001CEB050500F1FF346CD2AE456AD90238F7
:10062000654440EA0840A0FB0294A5EB0E05A542F4
:10063000C846A64656D353D05EB1B3EB080265EB6D
:100640000E0505FA07F722FA01F3CD401F43C6E96C
:1006500000750021BDE8F087C2F1200320FA03F104
:100660000CFA02FC25FA03F395400D434FEA1C47B0
:100670001FFA8CFEB3FBF7F107FB11302B0C43EA9A
:10068000004301FB0EF0984204FA02F408D91CEB77
:10069000030301F1FF382FD298422DD90239634468
:1006A0001B1AADB2B3FBF7F007FB103345EA034565
:1006B00000FB0EF3AB4208D91CEB050500F1FF3837
:1006C00016D2AB4214D902386544ED1A40EA014112
:1006D00038E73146304607E78646E5E61846FAE64B
:1006E0004B45A9D2B9EB020864EB0C0E0138A3E725
:1006F0004046EAE7204694E74146D1E7D0467BE70B
:10070000023B654432E7084609E76444023842E7A1
:10071000704700BF2DE9F04395B0284DAB681B69C9
:1007200013B102A9284698472548244EDFF8948043
:10073000DFF8949001F036F80024AF683B68002B96
:10074000FCD00DF10701304698470028F6D19DF8FE
:100750000700022102F0AFFB9DF807307B2B03D18D
:1007600000248DF81040E8E77D2B1ED1052241467C
:1007700004A802F078FB0028DFD10DF1150002F08B
:100780003CFB041EECDD4FF47A7002F081FA029417
:10079000FB6813B102A9304698474FF47A7002F013
:1007A00077FA484600F0FEFFDAE73E2CC5D804F1A0
:1007B00050026A44013402F8403CBEE79C37000016
:1007C000F43D0000FB3D0000013E0000014B1860BD
:1007D000704700BF000000202DE9F04F91B08B461C
:1007E000029092461C4600259AF8000008B9284657
:1007F0005FE325280AF1010707D0029B5946984775
:100800000028C0F25683013512E2182200210AA8FE
:1008100002F045FB9AF80130252B78D000221046D3
:10082000964694461646394617F8013B2B2B00F0A6
:100830009D8000F29480202B00F09B80232B00F001
:100840009B802EB19DF8306046F004068DF8306034
:10085000BCF1000F05D09DF8306046F008068DF819
:100860003060BEF1000F05D09DF8306046F01006F4
:100870008DF8306028B19DF8300040F020008DF8F0
:1008800030002AB19DF8302042F040028DF830202F
:100890009DF8302002F04400442803D16FF3861203
:1008A0008DF830209DF830202A2B42F080028DF800
:1008B00030207BD19DF8312042F001024B1C8DF895
:1008C00031201A782E2A9DF831200CBF01210021F9
:1008D00061F341028DF8312074D15A782A2A6AD006
:1008E000013300210A26184610F8012BA2F1300727
:1008F000092F40F28E809DF830200E91C2F3400007
:1009000040EAD17161F341028DF830205AE00AF1DA
:1009100002078DF833309DF83130D90740F1498115
:1009200054F8049BB9F1000F07DA9DF8302042F02B
:1009300004028DF83020C9F100095A0740F14281C4
:1009400054F8048BB8F1000F80F241819DF83130EA
:100950006FF341038DF831304FF0FF3837E12D2B25
:100960000CD0302B7FF46DAF01225CE74FF0010C0F
:1009700059E74FF0010E56E7012054E7012652E7F0
:100980000CFB0202303A33461E4616F8010BA0F16A
:100990003007092FF4D9994293D09DF830100D9269
:1009A000D20F62F341018DF830108AE70B46002226
:1009B0004FF00A0CE8E79DF8312042F004028DF870
:1009C000312002331F4617F8012B6C2A41D025D85D
:1009D000682A2BD06A2A46D04C2A4CD01F4617F8DA
:1009E000012B9DF831308DF83320782A00F2D98020
:1009F000572A4DD8412A03D0453A022A00F2D18025
:100A00009DF83230042262F302038DF83230012364
:100A10009EE006FB01213039034664E7742A26D0A4
:100A20007A2ADBD19DF8313006220DE05A78682A07
:100A30009DF8312006D1012161F3C6028DF83120E5
:100A40009F1CCCE71346022262F3C6038DF83130B7
:100A5000C5E75A786C2A9DF8312001D10421EBE7D3
:100A600013460322F0E79DF831300522ECE79DF8AC
:100A700031300722E8E7BDF8303023F4F04323F0AB
:100A8000020343F4804343F00203ADF83030A6E79D
:100A9000A2F15801202900F2848001A050F821F031
:100AA000650B0000A30B0000A30B0000A30B0000CC
:100AB000A30B0000A30B0000A30B0000A30B00007E
:100AC000A30B0000010A0000A30B0000650B00004F
:100AD000250B0000010A0000010A0000010A0000C5
:100AE000A30B0000250B0000A30B0000A30B0000CC
:100AF000A30B0000A30B00006D0B0000650B0000B2
:100B0000890B0000A30B0000A30B0000890B000061
:100B1000A30B0000650B0000A30B0000A30B00005B
:100B2000650B00009DF83210012003F0780360F39C
:100B30000201402B8DF8321002BF9DF8301041F0B9
:100B400001018DF83010632A31D1003B18BF012319
:100B50009DF83020C2F340010B4363F341028DF84E
:100B60003020D8E69DF832100220DEE79DF83220D2
:100B700003F07803A3F14000032161F30202434232
:100B80008DF832204341E3E79DF83220032113F032
:100B9000780F61F302028DF8322014BF0123002385
:100BA000D6E79DF8303043F001038DF83030002354
:100BB000CEE79DF93020002AB4BFDDF834904FF025
:100BC000FF39BAE69B077FF5C7AEDDF838809DF8A0
:100BD00031100023CDE90D339DF8323003F00703C7
:100BE000012BC1F3C30138D1CB1E042B22D8DFE87F
:100BF00003F003090921210054F8043BDA17CDE979
:100C00000A3206E0073424F00704F4E80223CDE9B1
:100C10000A239DF8303013F0030656D002983B4665
:100C20005246594602F09FF80028C0F2428105441E
:100C3000BA46D9E554F8043B01294FEAE372CDE9FD
:100C40000A3205D19DF828300A9300230B93E0E780
:100C50000229DED1BDF92830D0E7022B23D1CB1EEB
:100C6000042B13D8DFE803F0030A0A1212002268EB
:100C70000A920023201D0B930446CAE7E01D20F0D2
:100C80000700F0E80223CDE90A23F5E754F8043B16
:100C90000A9301294FF000030B93D3D00229B8D156
:100CA000BDF82830D0E7042B09D1E31D23F007035A
:100CB00003F10804D3E90023CDE90A23A9E7032BB4
:100CC00004BF54F8043B0A93A3E79DF83300782847
:100CD000AED8622822D825283FF48FAD5828A7D156
:100CE0000DF126030093DDE90A0104AB0CAA01F023
:100CF000F4FF8246B8F1000F0DF126000CDB9DF8E1
:100D00003020A0EB0A036FF3861298458DF830204F
:100D100002D9A8EB03030D9380463DE06338152804
:100D200086D801A252F820F0A90D00000D0E000097
:100D3000310C0000310C0000310C0000310C0000BF
:100D40000D0E0000310C0000310C0000310C0000D1
:100D5000310C0000670E0000350E0000390E000057
:100D6000310C0000310C0000810D0000310C00003E
:100D7000350E0000310C0000310C0000350E000073
:100D8000B8F1000FDDF828A00ADB4146504602F01A
:100D900061F80AEB00080026BAF1000F0CD147E712
:100DA000504602F050F8F4E70A9B8DF81030002608
:100DB0000DF1100A0DF11108A8EB0A0306B1013379
:100DC0009DF83220D00668D5023352060D9948BFEF
:100DD0000E9A0B4448BF9B18B9F1000F76DD9DF8C1
:100DE0003020A9EB0309C2F38003039353076DD4AA
:100DF000500661D546B1029B5946304698470028B7
:100E000057DB039B01351E46302356E01E070FD4E7
:100E100013F0100618BF2026DDE90A23002BBFF6C9
:100E20005FAF524263EB4303CDE90A232D2657E718
:100E30002B26F1E7002653E70A9840B30DF126036D
:100E400000930CAA04AB002101F047FFBDF832303B
:100E500003F0EF0343F4F04343F010038246ADF890
:100E60003230002646E70A9B07293FF6E1AEDFE86D
:100E700001F00C04060C08080C0C1D70D8E61D804F
:100E8000D6E6EA17C3E90052D2E61D60D0E6DFF8E5
:100E9000C8A006460AF105088EE7110748BF0133CE
:100EA00093E7184603935946029B98470028039BF3
:100EB00004DA11B0BDE8F08F20234D444A46002AE1
:100EC000A5EB090109F1FF39EBDC0D4636B1029BB8
:100ED0005946304698470028EBDB01359DF8323003
:100EE000D90601D41A0706D5029B594630209847E7
:100EF0000028DEDB01359DF83230DB0607D59DF892
:100F00003300029B594698470028D2DB01350D9EDD
:100F10002E44731B002B16DC02984346524659465A
:100F200001F021FF0028C4DB0544A944A9EB050317
:100F3000002B7FF77DAE029B594620209847002862
:100F4000B7DB0135F2E7029B59463020984700286D
:100F5000AFDB0135DDE700BF0A3E000038B54FF0DA
:100F60001003EFF3118583F31288BFF36F8F144AD8
:100F7000144C9378144843F0080393704FF08A732D
:100F8000636400F057FF114B114A1A600021114AA7
:100F9000084600F0ADFF01220021022000F0F2FE21
:100FA0000D4800F0E1FD636823F0406343F0806387
:100FB000636085F31188BFF36F8F002038BD00BFD9
:100FC00000D0074000800440083C0000C40100201D
:100FD000001BB700103E0000103C000006484CF219
:100FE0002051C1814DF62811C18101884FF00102C5
:100FF0009143018070470000002005400149102204
:101000000A60704710ED00E072B6404080F311882E
:10101000BFF36F8FBFF34F8F30BF62B6BFF36F8FD9
:10102000704700BF43B2002B08DB012200F01F0015
:1010300002FA00F05B09024A42F82300704700BF41
:1010400000E100E043B2002BA8BF03F1604301F1CF
:101050000101B8BF064B4FEA0111ACBF03F5614374
:1010600000F00F00C9B2B4BF195483F800137047E1
:1010700014ED00E030BFFFF7FDBF00BF0F4A08B519
:101080000F4B22F07F029A60BFF34F8FBFF36F8F39
:10109000D3F8882022F47002C3F88820EFF3148379
:1010A00023F0040383F31488BFF36F8F01F0E8F893
:1010B00001F09AFC00F0FAF901F0ECF800000000F1
:1010C00000ED00E0094A0A499368096899670949EF
:1010D00058674B6843F080534B60002383F31188BB
:1010E000BFF36F8F9368986F704700BFCC010020EB
:1010F000E03D000000ED00E012498A684FF030004A
:101100001044EFF3098C80E8F01F102080F3128860
:10111000BFF36F8F0C4F4FF000668A698A603E60A4
:10112000506F0023536780F3118804B5104600F018
:10113000FFF9BDE8044002F1300090E8F01F8CF3A5
:1011400009887047CC01002004ED00E01EF0040F78
:101150000CBFEFF30880EFF30980816911F8021CDE
:101160000229FFD001B501F039FE01BD42F8203C53
:10117000009B42F81C3C0A49019B42F8183C029B28
:1011800042F8143C21F001014FF0807342F8043C16
:1011900042F8081C0023203A02654367704700BFED
:1011A000C72C0000094A0346906870B113F1160F6E
:1011B000406E05D0A0F120029A4205D8834203D2A6
:1011C000814228BF0020704700207047CC010020DA
:1011D00008B5094B98600D46144600F0A9F9204661
:1011E00085F30988002163B681F31188BFF36F8FFF
:1011F0000022002301F067FDCC01002001B5EFF3D0
:101200000580A0F110004FEAC0000449014409C95B
:101210009847BDE8014002490847000044380000F3
:1012200025120000044B99689869884203D003494D
:101230004FF080520A607047CC01002004ED00E0BE
:1012400038B5194B14469A6A9A6A9A6A0546900705
:1012500019D5586B9A6A120615D519B19A6A22F0F7
:1012600080029A629A6A9A6A9A6AD1060ED49B6A36
:101270009A070BD400200C4A936A43F0FF03936251
:101280000023237038BD6FF01500EBE7064B5B6859
:101290001B05EFD52946FFF785FF0028EAD080F32C
:1012A00009880220E7E700BF00ED00E02DE9F843E0
:1012B000284B16469A6A9A6A9A6A9405074608D590
:1012C0009A6B9A6A100404D519B19A6A22F4004202
:1012D0009A62204B9A6A9A6AD10558BF9B6A1E4B44
:1012E0001C6814F0784423D0DFF868904FF0004871
:1012F000002514EA080F25D0EB0003F1804303F525
:1013000050435A691869D9F82830DA041AD5D9F83F
:1013100004301B0516D53946FFF744FF90B180F322
:10132000098802220C490B6823EA04040C60144665
:10133000084A936A43F47F43936200233370204644
:10134000BDE8F8830135052D4FEA5808D1D10022B8
:10135000E8E700BF00ED00E000D0004070B5494B69
:101360005B688AB00D46C3F30803002686F3118834
:10137000BFF36F8F02F07F41B1F17F4F11D102F0C7
:101380000C0108290DD0110701D4054601260022C1
:10139000033B8DF80720032B6CD8DFE803F00456DD
:1013A0005A5E3546F3E7374BDC6A14F0020461D12C
:1013B000DA6A002A15DBDA6A520012D5AA6932F815
:1013C000021C4DF6027291420AD093F828200AB30B
:1013D0000DF1070201212846FFF732FF044600E025
:1013E0002C689DF807309BB92022294602A801F0FD
:1013F0004BFD099B002E3FD0C3F3080222B96FEAD0
:1014000053236FEA4323099302A9204601F0E4FC29
:101410000AB070BD93F8292032B10DF10702012105
:101420002846FFF743FFD9E75A8D92B2002AD8D059
:101430009A6A9A6A9A6A9A6A9A6A9A6A9A6A6FEA37
:1014400002426FEA12429A62CBE70DF107020021D5
:10145000C1E70DF107020021E2E70A4B9A6A9A6A96
:101460009A6A9A6A9A6A9A6A9A6A6FEA02426FEA72
:1014700012429A620024B4E723F4FF7323F00103BD
:10148000C1E700BF00ED00E0024A536943F01003DA
:101490005361704700ED00E0EFF30880EFF309813E
:1014A00001B57246FFF75AFF01BD00BF0448002393
:1014B0001021C21801336A2B82F80013F9D170474A
:1014C00000E100E0102080F31188FFF787FD084855
:1014D0004FF40261401880F30988EFF31480022171
:1014E000084380F31488BFF36F8FFFF7C7FD000038
:1014F000A0070020064B9B68834207D1EFF30583CA
:1015000023B1044A536843F08053536001F01ABA80
:10151000CC01002000ED00E0024B034A034801210A
:1015200000F0BCB80000032000000020AC3C00002C
:10153000426E054B203A1A60044A2021C3E9011289
:101540001846012100F0B4B858010020088220009C
:1015500030B50B4BCC6810B9C3F8004830BDD1E9A9
:10156000005100F14002120103EB00109D500123D5
:10157000C0F80414C0F80844C0F80C34EEE700BF0B
:1015800000D000402DE9F04F8DB0DFF8D4900193EA
:101590008A4605460026564508DA6B68002B59D066
:1015A000019951B1D90605D06FF0150210460DB062
:1015B000BDE8F08F2B68DB06F6D1AB6829498B427A
:1015C00038D1D4B24FF01002EFF3118B82F31288AE
:1015D000BFF36F8FD9F80870D9F804300293D5E9BA
:1015E000002103EB07180A44D8F80410049205916F
:1015F0003A01D8F80C1003920B2C07912DD82046F5
:1016000004A9FFF7A5FFDDE902329A5808922A687B
:10161000013A099208A9D8F80C200B9238460134F7
:10162000FFF796FFE2B28BF31188BFF36F8F12F1D1
:10163000160FB9D029686B680891D4B219440139E2
:10164000AB6809910B2C0B93AED808A92046FFF785
:101650007FFF621C01360C359DE76FF01502E2E753
:10166000183C000008822000044A136843F001037C
:101670001360BFF34F8FBFF36F8F704700D00040F0
:10168000BFF35F8F044B1A6822F001021A601A68D8
:1016900042F078421A60704700D0004010B5034C09
:1016A00001232278FFF76EFF207010BD000200209A
:1016B0002DE9F04105460E464FF01003EFF3118877
:1016C00083F31288BFF36F8F174BD3E9014704EB05
:1016D000071421460B20FFF73BFF21463846FFF752
:1016E00037FF88F31188BFF36F8F104A00231278F9
:1016F00031462846FFF746FF10F1160F03D00C497C
:1017000000230B2801DDBDE8F08100F14002120149
:101710008B5001EB00120130C2F80434C2F80834D7
:10172000C2F80C34EDE700BF183C000000020020B6
:1017300000D0004070B50F4E35680C2D17D8FFF75C
:101740009FFF0D4A136C43F0040313640024A54269
:1017500005D10A4B1D70FFF787FF002070BD71682F
:10176000204601EB0411FFF7F3FE0134EFE74FF0E1
:10177000FF30F3E7183C0000008004400002002026
:10178000014B1860704700BF040000200239012996
:1017900002D8034B1B6818474FF0FF30704700BF5B
:1017A000040000200FB407B504AB022153F8042B4A
:1017B00004480193FFF710F803B05DF804EB04B0A0
:1017C000704700BFB72E000038B5084CA5684FF42D
:1017D00040722B680E21204698472B684FF44072C8
:1017E0000F2120469847002038BD00BF2437000055
:1017F00008B5084B0848186001F062FE38B1074888
:10180000FFF7BEFF0548FEF7E1FF002008BD6FF0BF
:101810001200FBE7640100209C3700002118000043
:101820000A2838B5074D044604D1286883680D217D
:101830005B68984728688368E1B25B6898472046F0
:1018400038BD00BF640100204FF0E02310B59A6955
:1018500019699869094B11F4803F094901D1824205
:1018600006D21A680C6822441A604FF0E02212690E
:101870001B680A681344181A10BD00BFC00100207D
:10188000BC01002008B5FFF7DFFF0C4B0C4A1868BD
:1018900011680844106000221A600A4A136842F670
:1018A000E061C01AB0FBF1F001FB0033136001F0FE
:1018B0007BF9BDE80840FFF7B5BC00BFC0010020C0
:1018C000B8010020B4010020094B102283F8232026
:1018D000084B42F6DF621A60074B002018604FF099
:1018E000E0235A6198611A6942F007021A61704751
:1018F00000ED00E0BC010020C0010020F8B5324D31
:1019000059B1431C09D14FF0E022136923F00103C0
:1019100013614FF07F432B60F8BD40F27553B0F177
:10192000FF3F08BF1846441E002C2F6832DD9C4242
:10193000A8BF1C464FF01003EFF3118683F3128803
:10194000BFF36F8FFFF780FF20494FF0E0230022A5
:10195000D3F818C00B6818441D4B08601A601D4B63
:101960001B68C21A18D54FF480632B604FF0E02239
:101970002C6893699C4538BFBC44013CACEB030C1C
:101980005461604400249461086086F31188BFF3B9
:101990006F8FC1E70024CDE742F6E06E0EFB042412
:1019A00004F53B541B1A1F34B4FBFEF40EFB043445
:1019B000B4F5806F04D9084B9C42D6D82C60D5E78B
:1019C0004FF48064FAE700BFBC010020B80100209A
:1019D000C0010020B401002060CCFF0010B54FF022
:1019E0001003EFF3118483F31288BFF36F8FFFF7B7
:1019F0002BFF074B074A1B6812689B1A034484F3AA
:101A00001188BFF36F8F42F6E060B3FBF0F010BDBA
:101A1000B8010020B401002010B54FF01003EFF31F
:101A2000118483F31288BFF36F8FFFF70DFF044B10
:101A30001B68184484F31188BFF36F8F10BD00BF7B
:101A4000B8010020084B1B7B03F00303012B05D0DA
:101A5000022B05D033B9054B18687047044BFBE7E0
:101A6000044870470020704700400640C401002031
:101A7000C8010020006CDC0208B5124A9379DB062D
:101A80001CD4FFF7DFFF13785178127BC3F3C20336
:101A900011F0300F20FA03F002F0030200D00AB177
:101AA000022A04D1062B03D0072B05D0400908BD1C
:101AB0001423B0FBF3F0FAE70C23FAE7024B1868A3
:101AC000F5E700BF004006400C000020064B9A7965
:101AD000D20755BF054B064A1868187A42BFC0F3B3
:101AE00042031068D8407047004006400C000020B8
:101AF00008000020034B1B781B0646BF024B1868EA
:101B00000020704700500640C4010020054B1A78A1
:101B1000120641BF044A9B7810689B094CBFD8400D
:101B20000020704700500640C401002008B50C4B4F
:101B30001B68C3F38143022B09D0032B0AD063B97E
:101B4000FFF7D8FFB0F5004F18BF002008BD054BC8
:101B50001868FBE74FF47A70F8E70020F6E700BF5B
:101B600000700440C80100201049436870B501F5B9
:101B7000805463640278666843788578120402F4BE
:101B8000403226F4403632435B00626003F00E03BD
:101B900005F0010213436366C3780A689B0403F4EB
:101BA000402322F4402213430B6070BD00700440B8
:101BB00010B50C4C63789A0701D5002010BDA379AD
:101BC0009B06FAD4FFF758FF0028F6D0E378E278B6
:101BD000C3F341135B0003EBD213034A32F8133013
:101BE0005843EBE700400640E43D0000034B187803
:101BF00010F0020001D0FFF769BF704700400640B7
:101C000008B50A4A907910F040000DD0FFF71AFF8E
:101C1000137903F007030133B0FBF3F3507900F0BD
:101C20001F0010305843400808BD00BF0040064068
:101C300010B50F4C6368C3F30143012B10D0032B85
:101C400011D093B9FFF7B4FF636E03F0010303FBF8
:101C50000000636EC3F342030133B0FBF3F010BD29
:101C6000FFF7CEFFF0E70348EEE70020ECE700BF08
:101C700000800440006CDC02084B9B79C3F38103B5
:101C8000022B09D0032B03D0012B03D1FFF71EBF7A
:101C9000FFF7B6BFFFF78CBFFFF7D4BE004006408A
:101CA00008B513284CD8DFE800F00D0D161D244BA5
:101CB0002B2F474B4333373B3F4B4B4B4D0A4FF496
:101CC0007A7008BDFFF7D8FF1F4B5B6C1B0F013309
:101CD000B0FBF3F0F5E7FFF7CFFF1B4B5B6CC3F3F3
:101CE0000363F4E7FFF7C8FF174B5B6CC3F30353C1
:101CF000EDE7FFF7C1FF144B5B6CC3F30343E6E76B
:101D0000BDE80840FFF794BFBDE80840FFF70EBFED
:101D1000BDE8084001F083BBBDE80840FFF766BF9F
:101D2000BDE80840FFF744BFBDE80840FFF768BFC3
:101D3000BDE80840FFF7EABEBDE80840FFF7DABE9D
:101D40000020BEE70148BCE700800440006CDC02D4
:101D500010B50B490A7B0B7B00F0030403F0FC0376
:101D600023430B7302F00303834205D1002010BD0F
:101D700000BF013BFCD1F9E740F2DD53F9E700BFBA
:101D80000040064070B51D4B9C799D791E7AC6F3C4
:101D900042069642C4F38104EDB217D01B789B072C
:101DA00001D4012C09D1EE0707D5144B5D7805F05D
:101DB000FE055D709D79ED07FCD4104D2B7A520025
:101DC00002F00E0203F0D0031A432A720B4B5A782A
:101DD00001F0010502F0FE022A435A701A7802F05F
:101DE000FC020243012C1A7001D0820704D59A79B3
:101DF00002F001028A42FAD1002070BD0040064084
:101E000042780B4B02F007021A715979827801F07F
:101E1000E00102F01F020A435A711A7901780A435D
:101E200042F040021A719A795206FCD5704700BF01
:101E300000400640036849F69702934230B526D920
:101E400014498B4294BF01210221134A047913786B
:101E500003F0F0032343114C13706378457903F0CA
:101E6000C3032B4343EA01136370C379117880796C
:101E700001F05F019B010143DBB2117093702DB142
:101E800013781A0602D5A3799B07FCD530BD002133
:101E9000DBE700BF00127A00005006400040064019
:101EA00010B5124B5A7802F0FD025A701A7802F0FF
:101EB0003B0242F0800208461A709A7902F01C0236
:101EC000082AFAD15A79094C02F0BF025A71A37953
:101ED0009A06FCD4FFF794FF637943F040036371E3
:101EE000A3799B06FCD5002010BD00BF0040064032
:101EF00038B515460C46FFF72BFF29462046FFF75D
:101F0000CFFF064A137803F03F0313709379C3F3AE
:101F10008103032BFAD1002038BD00BF00400640EA
:101F20000E4B984212D003F58053984210D003F51F
:101F3000805398420ED003F5805398420CD003F59D
:101F4000704398420CBF0420052070470020704762
:101F500001207047022070470320704700400C406A
:101F60002DE9F84F0B684FF00A090025044609FBDC
:101F700002FA4FEA83089E464FF0040C2E46BAFB45
:101F8000F8F00530B0FBF9F080B2012838BF01202D
:101F90000CFB00F7B2FBF7F7BB4234BFFF1ADF1BA5
:101FA00077455FFA8CFB0CF1010C9EBFBE465D4687
:101FB0000646BCF1210F9844E1D16422B3FBF2F351
:101FC00003EB43037345C0F085802046FFF7A8FF6D
:101FD000424B53F82000030C03F1804303F58E239A
:101FE00080B21F68012282403A431A60A36823F43A
:101FF0004023A36023682A1F032A98BF43F40033B9
:10200000013D2D0623F01F2323F0FF0305F0F855B3
:102010001D43C6F30C0635432560236823F00053A7
:102020002360A268CB7B087922F4E2621B0222F0D3
:10203000070203F4E06302431A438B7B9B0003F027
:102040000403134308B143F01003A360CB79226863
:102050005B0322F4005203F40053134323604A7AD3
:102060000B7A43EA0243E361A36943F08803A36167
:10207000A36943F44043A3614B7B0A7B60691B0166
:10208000520103F0100302F0200213430343636183
:102090008B7A1BB1636943F008036361CB7A1BB190
:1020A000636943F00103636188790D4B0D4A002891
:1020B00018BF1A46636813430A7C6360A3680AB1B9
:1020C00043F400234A7C0AB143F48023A360002038
:1020D000BDE8F88F40F22150FAE700BFB83D00009C
:1020E00000C01FE000C01FC008B5C36913F47F4FD4
:1020F000FBD143685B02FCD5436843F0C02343F443
:10210000F813436000238360FFF70AFF084B53F87E
:102110002020130C03F1804303F58E2392B219683B
:10212000012000FA02F221EA02021A6008BD00BF93
:10213000B83D000081680268084B120A0B4002F0AB
:1021400040021A43036880691B0A03F080031343AB
:1021500023F4407300F440701843704700C3F00F3D
:102160004268836903481B0C03F0C3031343184000
:10217000704700BFC3C0FFC110B50D4C8B0704EA08
:10218000010407D08269230422F4703203F440333F
:1021900013438361436803F0785323434360FFF79D
:1021A000DFFF204240F21A5008BF002010BD00BFE0
:1021B00003C01FC00E4B70B553F82040013053F8D8
:1021C0002060A64200D870BDD4E900352846984763
:1021D00065B1EB6830B10028B8BF4042FF28A8BF06
:1021E000FF2018705A7842F001025A700834E8E76C
:1021F000CC3D000030B5002387B00122CDE9042397
:102200000F22CDE9023201930C4C0D4B0D491822DF
:1022100004EBC01402FB00334FF4B075009305FBD0
:102220000011094B4FF4A072204600F0A3F8637B25
:1022300023F00403637307B030BD00BF50000020DB
:10224000CC010020400600202335000008B50A4BD1
:10225000012202201A70FFF7ADFF01F002FA0320FD
:10226000FFF7A8FF00F0B8F8FEF754FA034A137B13
:1022700023F00103137308BD01020020D0000020E9
:102280000248034A0021121A00F009BE5000002043
:102290000402002080B5DFF8BC80A6B088F308886F
:1022A0002D4D2E4E6B69DFF8B89043F40073002477
:1022B0006B61F02385F82230EC772C766C76AC7667
:1022C00085F820406B6A43F4E0236B62FFF7DCF88B
:1022D000FEF794FE4FF0FF33AB62EB62FFF72AFA92
:1022E000FFF71AF940F20113ADF8243006ABB360E2
:1022F000CDE91F4401F0E3F82046FFF75BFF012022
:10230000184DFFF757FF00F06BFA174B05930123A9
:1023100016490094CDE903434FF480624B46CDE962
:1023200001442846B56100F025F86A7B074622F093
:10233000040228466A7301F02EF92046FFF75AFF7F
:102340000B4BF3604A46394628463475C6F804807C
:10235000FEF73EFFC00F002000ED00E0CC010020A2
:102360004D220000D0000020D43E000020020020BA
:10237000500000202DE9FF410E9E0673042646738F
:102380000D9E867300F158050F46D61DC0E91655FF
:102390000C9A002526F007062037C0E90655C0E94B
:1023A00019768560C573C56606F1200802920B9AFE
:1023B000019288440A9A009242460446FEF7D6FEED
:1023C000044B65659B6803B11B6F2367404604B0EF
:1023D000BDE8F081CC010020F0B5224C224D87B041
:1023E0002646AE4204F130040BD300F091F81D4CA8
:1023F0001E4F0A26AC4220D307B0BDE8F04000F0E3
:10240000D3B954F8043C059354F8103C049354F8A1
:10241000143C039354F8183C029354F81C3C019369
:1024200054F8203C009354E90C0154E90A23FFF7C7
:10243000A1FF54F8303C5E65D2E7626A531C09D0B4
:1024400022EAE27282FB062352EA0301206803D1EA
:1024500000F042F93034CDE73946183000F02AFB5D
:10246000F8E700BF5000002050000020B735000002
:1024700010B5084C23685BB1FFF7B0FA034620683B
:10248000054A0344BDE810401361002101F0CBB8B8
:1024900010BD00BFF8010020CC01002010B54FF0A6
:1024A0001003EFF3118483F31288BFF36F8F0C4B8B
:1024B00000221A6190424FF00A030A4A00FB03F31C
:1024C00009DC1360084B1960FFF7D2FF84F3118811
:1024D000BFF36F8F10BD022BB8BF0223F1E700BF1F
:1024E000CC010020F8010020F401002049B9EFF3ED
:1024F000058030B9054B9A699B689A4201D0FEF776
:10250000E1BD81F31188BFF36F8F7047CC010020CC
:102510004FF01003EFF3118183F31288BFF36F8F35
:10252000044B9A68D37B013BD37381F31188BFF3CB
:102530006F8F7047CC01002038B502460C480D4D16
:1025400001F023F8044600B9EC68AB684AB95A7B3D
:10255000D20606D1A26922B9DA897F2A01D9AB61F4
:1025600038BD9C4201D0FFF783FFAC61F8E700BFA4
:10257000E8010020CC01002070B590F90D20437BCC
:10258000002A014604DA03F07F03437300F0D5FF0D
:102590004B7B154A63F07F034B73D2E9073402F19A
:1025A0001C05AB421BD0D3B191F90E6093F90E001C
:1025B00086420FD0801B00280CDD5868C1E900302E
:1025C000016059609068431A5842BDE87040584114
:1025D000FFF7B2BFA34202D01B68002BE6D1C1E9CE
:1025E000005421601162EDE7CC01002038B50146AE
:1025F0004FF01003EFF3118483F31288BFF36F8F52
:10260000154B164A98681568A84206D1FFF730FFA7
:1026100084F31188BFF36F8F38BD00251560104A11
:102620001268BAB1C2897F2A14D8427BD20611D16E
:102630000C4A90F90E50126895420BDB0A4A904200
:1026400008D01A698A4202DCFFF796FFDEE7521AC9
:102650001A61DDE70022FBE7CC010020F001002039
:10266000F8010020F40100205000002070B490F91F
:102670000D20437B002A2ADBDA0628D1826932BB8F
:10268000144A63F07F034373D2E9073402F11C0557
:10269000AB4217D0B3B190F90E6093F90E108E4291
:1026A0000BD0891B002908DD5A68C0E90032106090
:1026B000586070BC0020FFF73FBFA34202D01B68E8
:1026C000002BEAD1C0E9005420601062F1E770BC31
:1026D000704700BFCC01002010B54FF01002EFF39F
:1026E000118482F31288BFF36F8F427B510704D4A9
:1026F00084F31188BFF36F8F10BD22F00402427380
:10270000FFF7B4FF21460248BDE81040FFF7EEBED8
:102710000202002008B590F90D20437B002A0146F3
:1027200004DA03F07F03437300F007FF044B98685B
:10273000431A58425841BDE80840FFF7FDBE00BFAC
:10274000CC01002070B50446183000F056FF4FF061
:102750001003EFF3118683F31288BFF36F8F94F9A0
:102760000D20637B002A05DA03F07F0363732046A4
:1027700000F0E3FE0B4D637BA86843F01003637326
:10278000031B58425841FFF7D7FE86F31188BFF369
:102790006F8FAB68A34203D1BDE8704000F0EBBE81
:1027A00070BD00BFCC01002010B54FF01003EFF357
:1027B000118483F31288BFF36F8F084B9A68D37B21
:1027C0000133D3730020FFF7B7FE84F31188BFF302
:1027D0006F8FBDE8104000F0CEBE00BFCC010020DE
:1027E000044B002103F11C02C3E907220846FFF74E
:1027F00055BE00BFCC010020F8B54FF01003EFF339
:10280000118583F31288BFF36F8F1A498868437B61
:1028100003F07F03437300F090FE8B685A7B0846F9
:1028200062F07F025A7350F81C2F82421CD0DAB13A
:102830000F6A93F90E6092F90E40A6420FD0A41BC6
:10284000002C0CDD5168C3E900210B6053600120AE
:10285000FFF772FE2846BDE8F840FEF733BCBA42E7
:1028600002D01268002AE6D10A6AC3E900021360A6
:102870000B62ECE7CC01002050EA01032DE9F041A6
:1028800005460E4603D1FFF7B7FF002033E06FF097
:102890000104241A4FF0FF3363EB0103012C73F1A1
:1028A000000302DA00F0D9FE44194FF01003EFF3F1
:1028B000118883F31288BFF36F8F104F104BB868E5
:1028C0001860FFF727FFB8680E492A4633461830CC
:1028D00000F0F0F8BA68537B43F01003537340469E
:1028E000FEF7F0FB00F0B9FE201A63EB03030128AA
:1028F00073F10003C9DBBDE8F08100BFCC0100200B
:10290000F0010020B7350000B1F1FF3F08BFB0F182
:10291000FF3F08B506D1074B9868FFF713FF4FF04C
:10292000FF3008BDFFF7A8FF0A220023C117FDF7FB
:102930006FFDF6E7CC010020014B9868704700BF9F
:10294000CC0100202DE9F04104464FF01003EFF3D5
:10295000118683F31288BFF36F8F437B1A0705D567
:1029600086F31188BFF36F8FBDE8F08123F020025A
:1029700042F00801D20920D14173A36813B1204667
:1029800000F0E3FD04F1180000F037FE04F15807F1
:102990004FF00008A56DBD4200D0B5B90120FFF78A
:1029A000CBFD104B9B68A342DAD1EFF30583002BDC
:1029B000D6D13046FEF786FBD2E703F05F0343F043
:1029C0000803437300F0B9FDD7E7284600F0BDFDCA
:1029D00005F1180000F011FEC5F878802846FFF7D1
:1029E00045FED7E7CC01002008B50648064A07494E
:1029F000121A00F049FABDE80840054A05490648A0
:102A000000F042BA0000002050000020DC3E000030
:102A100000000000DC3E000000000020034B1B68AB
:102A20000BB9FEF7DBBF0020704700BFFC010020A0
:102A3000114B10B51C689C4208BF0024FFF7EEFF45
:102A400003466CB1D4E90402C01A62EBE3730128B7
:102A500073F100020DDBB0F1004F73F1000301DBF5
:102A60006FF00040054B1B6913B19842A8BF184690
:102A700010BD0020F6E700BF10000020CC010020B0
:102A800030B5036868B10A4A5268904209D043B130
:102A9000D3E90421D0E90445121941EB0501C3E94A
:102AA0000421426813605A600023C0E9003330BD3E
:102AB00010000020B3F1FF3F08BFB2F1FF3FF8B5AF
:102AC00004461F46154667D081604FF01003EFF3B0
:102AD000118683F31288BFF36F8F6FF00102531BCF
:102AE0004FF0FF3C6CEB0703002B1BDB2B4BD3E9B8
:102AF0000013521A6CEB0303551B63EB0703012D04
:102B000073F10002BCBF01250023C0E9045324482F
:102B1000D0E9003C834218D1C4E9000CCCF8004055
:102B2000446026E0FFF77AFF013547F100072D18D2
:102B300047EBE077C4E90457E9E7521A65EB07056C
:102B40009C45C4E90425E7D01B68002BE4D0D3E9F9
:102B50000417D4E904258A4275EB070EEDDA8A1AC8
:102B600067EB0505C3E904255A68C4E9003214601F
:102B70005C60036883420BD09C4209D1FFF758FF89
:102B800018B1084B1B69834202D00021FEF7B6FE44
:102B900086F31188BFF36F8FF8BD00BF500100208E
:102BA00010000020CC0100202DE9F8430546FFF776
:102BB0001DFD4FF01003EFF3118483F31288BFF370
:102BC0006F8F244EDFF890803560244DD8F80000D8
:102BD00032684045D5E9001E4FEAE2770BD050B18C
:102BE000D0E9043C9A4277EB0C0916DA9B1A6CEB9D
:102BF000070CC0E9043C52184EEB0707C5E9002753
:102C000000253560FFF714FF2946FEF777FE84F3B1
:102C10001188BFF36F8FBDE8F88359184EEBE37747
:102C2000D31A336000220023C0E90423C5E900174A
:102C3000FFF726FF84F31188BFF36F8F83689847EF
:102C40004FF01003EFF3118483F31288BFF36F8FFB
:102C5000BCE700BFFC010020100000205001002054
:102C600010B54FF01003EFF3118483F31288BFF314
:102C70006F8FFEF7B3FE054AD2E90031C01841F16B
:102C8000000184F31188BFF36F8F10BD5001002045
:102C900038B5044678B1FEF7BFFE05460648074A38
:102CA000A4FB00010023FDF7B3FB0446FEF7B4FECE
:102CB000431BA342FAD338BD000E270740420F0042
:102CC000704700207047044608B5084611461A466A
:102CD000A047FFF731FEFEF70DFC2DE9F84F9A46AD
:102CE000D3786F2B80460F461546A3F1410B29D0B0
:102CF00024D8582B14BF0A261026DDF82890324617
:102D0000002340463946FDF783FB092AD4B21ED87A
:102D10003034B045E4B277F1000309F8014D01D336
:102D2000D14511D82B789B0605D5082E15D1AB7847
:102D300043F00803AB704846BDE8F88F03F0F70393
:102D4000702BD7E70826D8E780460F46D7E7BBF1B8
:102D5000190F94BF37345734DBE7102EEBD1AB7823
:102D600043F01003E6E72DE9F04107468846154693
:102D70001E461446B442A4EB050002D33EB92378A4
:102D80002BB114F8010B4146B8470028F2DABDE830
:102D9000F081704743685B68002043F8212070474A
:102DA00043685B6853F821301360002070476FF070
:102DB00085007047436819680B0C03F1804303F5E5
:102DC0008E2389B2186801228A4002431A600020CB
:102DD00070476FF08500704700F088BB01460068BF
:102DE00000F084BB00210120FFF7F6BF08B5FEF715
:102DF00041F9BDE80840FEF715BA30B50278202A3F
:102E0000034600F10100F9D0A2F109010429F5D926
:102E10002B2A08D02D2A0ABF034600210121013B9D
:102E200000200A2506E003460021F8E7C2F130023F
:102E300005FB002013F8012FA2F13004092CF5D96D
:102E400001B9404230BD034600201A5C02B9704708
:102E50000130FAE7034600201A5C0AB1884200D12B
:102E600070470130F8E710B503465AB101398418AC
:102E700013F8010B11F8012FA34201D09042F7D0B3
:102E8000801A10BD1046FCE710B5431E0A4491425B
:102E900000D110BD11F8014B03F8014FF7E7C9B29B
:102EA00002440346934200D1704703F8011BF9E73F
:102EB0004FF0FF307047FEF769BC002070470020DC
:102EC000704738B5154621B1012908D06FF01500BB
:102ED00038BD0B20FEF7E4FE28600020F8E7FEF77F
:102EE000CBFEF9E7002070470B0C03F1804303F59C
:102EF0008E230122186889B202FA01F10143196098
:102F0000002070470B0C03F1804303F58E23012052
:102F10001A6889B200FA01F122EA01011960002061
:102F2000704700207047132910B514BFC8B2084677
:102F30001446FEF7B5FE2060002010BD40681F2932
:102F400030B5D0E9013539D802F44070B0F5407F92
:102F500007D0940705D4B0F5807F05D0B0F5007F89
:102F60001CD06FF0850018E0586901248C4020EADD
:102F700004005861D3061ED412F0200F0CBF4FF48A
:102F800080724FF4817255F8213023F4E06323F00E
:102F90000303134345F82130002030BD0120140500
:102FA00000FA01F003D558605C692043E1E754055D
:102FB00048BF9860F8E740F20312E4E76FF01500AD
:102FC000EBE743685B681B690B6000207047436850
:102FD0005B68186842400A4042401A60002070470F
:102FE00043685B6800205960704743685B68002055
:102FF0009960704743685B680020D9607047036937
:10300000586830B558B10024814212D108689D68D3
:1030100054B98D42586000D19860002008606AB9A8
:10302000002030BD2846EFE78D42206008BF9C603D
:10303000F3E705680446002DF4D13AB198685A6860
:103040000A6059600028EBD19960EAE76FF015003B
:10305000E7E708B5002202213B20FDF7F3FF3B2004
:10306000FDF7E0FF002008BD08B5002202213C204A
:10307000FDF7E8FF3C20FDF7D5FF002008BD08B5AF
:10308000002202213D20FDF7DDFF3D20FDF7CAFFB4
:10309000002008BD08B5002202213E20FDF7D2FF26
:1030A0003E20FDF7BFFF002008BD08B50022022129
:1030B0003F20FDF7C7FF3F20FDF7B4FF002008BD0C
:1030C00040681F2930B585682ED8B2F5005F25D03D
:1030D00044686469CC40E40726D4C068400426D51F
:1030E000B2F5804F0ED1B3F5003F0CBF08220C2281
:1030F00055F8213023F4702343EA024345F8213088
:10310000002030BDB3F5802F0AD0B3F5C02F09D011
:10311000B3F5003F14BF00220A22E9E70022E7E7E7
:103120000922E5E70B22E3E76FF01500E9E76FF00E
:103130008500E6E7436802699B68516870B5D3F87B
:10314000A060C3F8A060044651B10D688A6832409F
:1031500002D04B682046984715B129462D68F5E7FF
:1031600070BD012070470369C3E90012704702690E
:1031700013680BB151681847704702690B46D2E9D2
:10318000020183E803000020704743684FF0E061CC
:10319000186800F078B943684FF40011186800F01F
:1031A00072B943684FF40001186800F06CB94368C5
:1031B0004FF0E061186800F04DB943684FF400111A
:1031C000186800F047B943684FF40001186800F030
:1031D00041B908B543681868FEF7C2FFC0F3405014
:1031E00008BD08B543681868FEF7BAFFC0F3805001
:1031F00008BD38B545682868FEF7B2FF0446286860
:10320000FEF798FF10F4000018BFC4F3C05038BD9B
:103210002DE9F041D0F804800E4617460024E5B2AF
:103220007B1B002B07DDD8F80000FEF799FF830217
:1032300004F1010402D42846BDE8F081D8F800303A
:10324000DB687355EBE72DE9F041D0F804800E46BA
:1032500017460024E5B27B1B002B07DDD8F80000E1
:10326000FEF77EFF030204F1010402D42846BDE804
:10327000F081D8F80030725DDA60EBE738B5456868
:103280000C462868FEF76CFF0302FAD52B68DC6059
:1032900038BD38B5456828680C46FEF761FF8302E3
:1032A00041BF2B68DB682370002058BF4FF0FF3010
:1032B00038BD2DE9F0414768066986B0D7E9015865
:1032C0000C46284600F0FCF828B96FF01505284692
:1032D00006B0BDE8F081AB68DB68002BF5D028466E
:1032E0006A464146984705460028EED101A800F0FD
:1032F000A2F82379012B2FD0022B2ED013B16FF01F
:103300008505E4E78DF80850A379032BF7D162799E
:103310000023012A8DF8093002D0032AEFD10123BE
:103320008DF80B30E3791BB1012BE8D140F201138A
:10333000ADF80E302368019301A940F20113009A01
:103340003868ADF81430FEF70BFE94E8030006F180
:10335000080383E80300BAE703238DF80830D3E7B6
:1033600038B545680169EB688B604FF480738B81D9
:1033700003238B732B7CCB7304460831FFF799FF33
:1033800020466B699847002038BD38B545682868E5
:10339000FEF7E6FEC0F3C044C20348BF44F0020497
:1033A000830348BF44F0040428684FF43021FEF73B
:1033B000E3FE204638BD08B5002222201146FDF765
:1033C00041FEBDE808402220FDF72CBE38B5054679
:1033D000FFF70FFF044668B96B681868FEF7AAFE8E
:1033E000830205D52846FFF7F4FE041E18BF01240A
:1033F000204638BD0124FBE738B5436804460D4636
:103400001868FEF771FE20462946FFF752FF044672
:1034100018B90A200021FFF777FA204638BD10B509
:10342000FEF72AFB0446FEF727FCB4EBD00F94BF4F
:103430002046002010BD10B5142204460021FFF7DD
:103440002EFD00234FF4E132C4E90023C4E9023326
:10345000238210BD02680B0203F440431343036050
:10346000836901F4407223F44033134321F0704127
:10347000836121F47321836821F47F6121F00F01BE
:1034800019438160704703680A0202F4404223EA4C
:1034900002030360836901F4407223EA020323F408
:1034A000403321F07041836121F47321836821F45A
:1034B0007F6121F00F0123EA0101816070477047AD
:1034C00038B1C3681888C0F30800A0F5807358426B
:1034D000584170474FF01002EFF3118382F31288C6
:1034E000BFF36F8FFEE708B5FFF7F4FFF8B50546A9
:1034F0000E464FF01003EFF3118783F31288BFF3EA
:103500006F8FFFF719FA314604462846FFF7EBFFA5
:1035100087F31188BFF36F8F2046BDE8F840FDF7B1
:10352000E9BF08B54FF01002EFF3118382F3128860
:10353000BFF36F8FFDF768FDF4E7D0E90032136049
:103540005A600023C0E90033704708B5FFF7F5FF64
:10355000437B23F0020343730023836008BD0346CB
:1035600020B9EFF305820AB9FDF7ACBD83F31188EA
:10357000BFF36F8F70474FF01003EFF3118083F3A9
:103580001288BFF36F8FFFF7EABF034600688342DC
:1035900008BF0020704710B54FF01003EFF31184FF
:1035A00083F31288BFF36F8FFFF760F884F31188FD
:1035B000BFF36F8F10BD10B501464FF01003EFF34E
:1035C000118483F31288BFF36F8F10F80B3C13F054
:1035D000280F0DD151F8103C18380BB1FFF7B5FF8B
:1035E00011F80B3C23F0140301F80B3CFFF73EF8F5
:1035F00084F31188BFF36F8F10BD10B54FF0100228
:10360000EFF3118482F31288BFF36F8F03683BB12D
:10361000FFF736FA002084F31188BFF36F8F10BDD7
:103620006FF01500F7E770B504460D464FF0100334
:10363000EFF3118683F31288BFF36F8FFFF7F8F96A
:10364000012805DDA04203DB29462046FEF756F996
:1036500086F31188BFF36F8F70BD08B5FFF700FBCD
:0436600008BD7047EA
:08366400DCCDFF7F0100000036
:10366C005D0F000000000000B52D0000F4360000D6
:10367C00B52D00000C370000B52D000024370000DC
:10368C00B52D00003C370000B52D0000543700006C
:10369C00C917000000000000BF2E00006C370000AE
:1036AC00232F000084370000613300009C3700009A
:1036BC00C9180000B4370000AB300000CC37000054
:1036CC0095300000E43700007F300000FC3700002C
:1036DC006930000014380000533000002C38000012
:0836EC00F117000000000000CE
:1036F400483E0000943C00009C3C00001800002060
:1037040000000000003C0000583E00008C3C00001B
:103714009C3C00001C00002000000000F83B00005E
:10372400683E0000843C00009C3C00002000002017
:1037340000000000F03B0000783E00007C3C0000EC
:103744009C3C00002400002000000000E83B000036
:10375400883E0000743C00009C3C000028000020CF
:1037640000000000E03B0000983E00000000000064
:10377400B83C00002C00002000000000DA3B0000F0
:103784009C3E000000000000CC3C00003000002003
:1037940000000000D43B0000C33E0000543D000084
:1037A4006C3D000048000020A4010020CA3B00003A
:1037B400CA3E000000000000000000004C00002091
:1037C40000000000C63B0000A03E0000443D000095
:1037D400E03C00003400002098010020BC3B0000C5
:1037E400A73E0000343D0000E03C0000380000200B
:1037F4008C010020B23B0000AE3E0000243D0000DE
:10380400E03C00003C00002080010020A83B0000B8
:10381400B53E0000143D0000E03C000040000020E4
:10382400740100209E3B0000BC3E0000043D0000EB
:10383400E03C00004400002068010020943B0000AC
:1038440000000000E52D000000000000E52D000050
:1038540000000000E52D000000000000E52D000040
:1038640000000000E52D000000000000E52D000030
:1038740000000000E52D000000000000E52D000020
:1038840000000000E52D000000000000E52D000010
:1038940000000000E52D000000000000E52D000000
:1038A40000000000E52D000000000000E52D0000F0
:1038B40000000000E52D000000000000E52D0000E0
:1038C40000000000E52D000000000000E52D0000D0
:1038D40000000000E52D000000000000E52D0000C0
:1038E40000000000E52D000000000000E52D0000B0
:1038F40000000000E52D000000000000E52D0000A0
:1039040000000000E52D000000000000E52D00008F
:1039140000000000E52D000000000000E52D00007F
:1039240000000000E52D000000000000E52D00006F
:1039340000000000E52D000000000000E52D00005F
:1039440000000000E52D000000000000E52D00004F
:103954009C3700006F31000000000000E52D0000DE
:1039640000000000E52D000000000000E52D00002F
:1039740000000000E52D000000000000E52D00001F
:1039840000000000E52D000000000000E52D00000F
:1039940000000000E52D000000000000E52D0000FF
:1039A40000000000E52D000000000000E52D0000EF
:1039B40000000000E52D000000000000E52D0000DF
:1039C40000000000E52D000000000000E52D0000CF
:1039D40000000000E52D000000000000E52D0000BF
:1039E40000000000E52D000000000000E52D0000AF
:1039F40000000000E52D000000000000E52D00009F
:103A040000000000E52D000000000000E52D00008E
:103A140000000000E52D00002C38000035310000C6
:103A24001438000035310000FC3700003531000047
:103A3400E437000035310000CC3700003531000098
:103A440000000000E52D000000000000E52D00004E
:103A540000000000E52D000000000000E52D00003E
:103A640000000000E52D000000000000E52D00002E
:103A740000000000E52D000000000000E52D00001E
:103A840000000000E52D000000000000E52D00000E
:103A940000000000E52D000000000000E52D0000FE
:103AA40000000000E52D000000000000E52D0000EE
:103AB40000000000E52D000000000000E52D0000DE
:103AC40000000000E52D000000000000E52D0000CE
:103AD40000000000E52D000000000000E52D0000BE
:103AE40000000000E52D000000000000E52D0000AE
:103AF40000000000E52D000000000000E52D00009E
:103B040000000000E52D000000000000E52D00008D
:103B140000000000E52D000000000000E52D00007D
:103B240000000000E52D000000000000E52D00006D
:103B340000000000E52D000000000000E52D00005D
:103B440000000000E52D000000000000E52D00004D
:103B540000000000E52D000000000000E52D00003D
:103B640000000000E52D000000000000E52D00002D
:103B740000000000E52D000000000000E52D00001D
:103B840000000000E52D000000000000E52D00000D
:103B94000500FF7FFF7FFF7FFF7F0400FF7FFF7F24
:103BA400FF7FFF7F0300FF7FFF7FFF7FFF7F020018
:103BB400FF7FFF7FFF7FFF7F0100FF7FFF7FFF7F8E
:103BC400FF7FFF7FFF7F0700FF7FFF7FFF7FFF7F78
:103BD400FF7FFF7FFF7FFF7FFF7FFF7F0700FF7F68
:103BE400FF7FFF7F0700FF7FFF7FFF7F0700FF7FCF
:103BF400FF7FFF7F0700FF7FFF7FFF7F0700FF7FBF
:043C0400FF7FFF7FC0
:103C0800001BB7000004800001010000000014013F
:103C180005000000243C0000040000000000000033
:103C2800FFFFFFFF133E0000188661000000000040
:103C3800FFFFFF1F1E3E000010044100000003208C
:103C4800FFFFFFFF2B3E00001004410000000000B2
:103C5800FFFF0300383E00005DD77500000000201C
:103C6800FFFF0220403E00001004590009003810F0
:103C7800009004400A00381000A004400B003810DF
:103C880000B004400C00381000C004400D0038108B
:103C980000D00440952D0000A12D0000AF2D00009C
:103CA800D32D000000000020000000005DD7750043
:103CB800BB2E0000E52E000000000000C32E00000F
:103CC80000000000E92E0000052F000000000000A1
:103CD800272F0000000000003D2F0000C32F000028
:103CE800CF2F0000E12F0000EB2F0000F52F000080
:103CF800C1300000FF2F000000000000FFFFFFFFA1
:103D080000F00F400090044000400000FFFFFFFF5C
:103D180040F00F4000A0044000400000FFFFFFFFFC
:103D280080F00F4000B0044000400000FFFFFFFF9C
:103D3800C0F00F4000C0044000400000FFFFFFFF3C
:103D480000F10F4000D004400040000000600D402A
:103D5800843700000200000000C2010000000000DB
:103D6800B7330000933200007D3200008B3300002F
:103D7800F93300007B3100004732000011320000A7
:103D8800C7310000A3310000F3310000BB3100004F
:103D980097310000E3310000D3310000AF3100005B
:103DA8008B310000CD330000633100006731000023
:103DB80004002C1005002C1006002C1007002C10F5
:103DC80016002C106C360000BC360000C43600000B
:103DD800F4360000F4360000F5FFFFFF8002DC0235
:103DE8000005B80580079508000A710B7B696E69A4
:103DF800747D00626175643A007B6368616E676513
:103E08007D00286E696C290000000444454255472E
:103E18004745525F30004241434B47524F554E444D
:103E28005F30004241434B47524F554E445F31008B
:103E3800464C4153485F300052414D5F555F30005A
:103E480070696E6D757840343030346430303000CD
:103E580070696E6D757840343030346330303000BE
:103E680070696E6D757840343030346230303000AF
:103E780070696E6D757840343030346130303000A0
:103E880070696E6D757840343030343930303000B8
:103E98004D43470053494D004750494F5F34004751
:103EA80050494F5F33004750494F5F3200475049F0
:103EB8004F5F31004750494F5F3000554152545FC2
:103EC80034007379735F636C6F636B006D61696E47
:043ED80000000000E6
:103EDC00C32C0000B12E000000093D000080000042
:083EEC0010000020100000206E
:103EF40000000000000000000000000000000000BE
:103F040000000000000000000000000000000000AD
:103F1400000000000000000000000000000000009D
:083F2400000000000000000095
:04000003000014C520
:00000001FF
