:1000000020060020B9140000452A00008D140000CD
:100010008D1400008D1400008D14000000000000FD
:10002000000000000000000000000000411100007E
:100030008D14000000000000ED1000008518000085
:10004000F1110000F1110000F1110000F1110000A8
:10005000F1110000F1110000F1110000F111000098
:10006000F1110000F1110000F1110000F111000088
:10007000F1110000F1110000F1110000F111000078
:10008000F1110000F1110000F1110000F111000068
:10009000F1110000F1110000F1110000F111000058
:1000A000F1110000F1110000F1110000F111000048
:1000B000F1110000F1110000F1110000F111000038
:1000C000F1110000F1110000F1110000F111000028
:1000D000F1110000F1110000F1110000F111000018
:1000E000F1110000F1110000F1110000F111000008
:1000F000F1110000F1110000F1110000F1110000F8
:10010000F1110000F1110000F1110000F1110000E7
:10011000F1110000F1110000F1110000F1110000D7
:10012000F1110000F1110000F1110000F1110000C7
:10013000F1110000F1110000F1110000F1110000B7
:10014000F1110000F1110000F1110000F1110000A7
:10015000F1110000F1110000F1110000F111000097
:10016000F1110000F1110000F1110000F111000087
:10017000F1110000F1110000F1110000F111000077
:10018000F1110000F1110000F1110000F111000067
:10019000F1110000F111000000000000000000005B
:1001A000000000000000000000000000000000004F
:1001B000000000000000000000000000000000003F
:1001C000000000000000000000000000000000002F
:1001D000000000000000000000000000000000001F
:10040000FFFFFFFFFFFFFFFFFFFFFFFFFEFFFFFFFD
:1004100053B94AB9002908BF00281CBF4FF0FF316B
:100420004FF0FF3000F074B9ADF1080C6DE904CE67
:1004300000F006F8DDF804E0DDE9022304B07047BF
:100440002DE9F047089E0D4604468846002B4DD105
:100450008A42944668D9B2FA82F252B101FA02F3A2
:10046000C2F1200120FA01F10CFA02FC41EA030872
:1004700094404FEA1C45210CB8FBF5FE1FFA8CF79F
:1004800005FB1E8341EA03430EFB07F199420BD99A
:100490001CEB03030EF1FF3080F01E81994240F205
:1004A0001B81AEF1020E63445B1AA4B2B3FBF5F0FC
:1004B00005FB103344EA034400FB07F7A7420AD9BF
:1004C0001CEB040400F1FF3380F00881A74240F2E6
:1004D000058164440238E41B40EA0E4000211EB14D
:1004E000D4400023C6E90043BDE8F0878B4208D919
:1004F000002E00F0EE800021C6E900050846BDE8A8
:10050000F087B3FA83F100294AD1AB4202D3824289
:1005100000F2F980841A65EB030301209846002E4F
:10052000E2D0C6E90048DFE702B9FFDEB2FA82F2A4
:10053000002A40F09180A1EB0C054FEA1C471FFAFE
:100540008CFE0121B5FBF7F307FB1350250C45EAA0
:1005500000450EFB03F0A84208D91CEB050503F18A
:10056000FF3802D2A84200F2CB8043462D1AA4B233
:10057000B5FBF7F007FB105544EA05440EFB00FEFF
:10058000A64508D91CEB040400F1FF3502D2A645AC
:1005900000F2BB802846A4EB0E0440EA03409EE72D
:1005A000C1F120078B4022FA07FC4CEA030C20FA29
:1005B00007F405FA01F31C43FD404FEA1C4900FA19
:1005C00001F3B5FBF9F8200C1FFA8CFE09FB185556
:1005D00040EA054508FB0EF0A84202FA01F20BD9E9
:1005E0001CEB050508F1FF3A80F08880A84240F234
:1005F0008580A8F1020865442D1AA4B2B5FBF9F074
:1006000009FB105544EA054500FB0EFEAE4508D92E
:100610001CEB050500F1FF346CD2AE456AD90238F7
:10062000654440EA0840A0FB0294A5EB0E05A542F4
:10063000C846A64656D353D05EB1B3EB080265EB6D
:100640000E0505FA07F722FA01F3CD401F43C6E96C
:1006500000750021BDE8F087C2F1200320FA03F104
:100660000CFA02FC25FA03F395400D434FEA1C47B0
:100670001FFA8CFEB3FBF7F107FB11302B0C43EA9A
:10068000004301FB0EF0984204FA02F408D91CEB77
:10069000030301F1FF382FD298422DD90239634468
:1006A0001B1AADB2B3FBF7F007FB103345EA034565
:1006B00000FB0EF3AB4208D91CEB050500F1FF3837
:1006C00016D2AB4214D902386544ED1A40EA014112
:1006D00038E73146304607E78646E5E61846FAE64B
:1006E0004B45A9D2B9EB020864EB0C0E0138A3E725
:1006F0004046EAE7204694E74146D1E7D0467BE70B
:10070000023B654432E7084609E76444023842E7A1
:10071000704700BF2DE9F04395B0284DAB681B69C9
:1007200013B102A9284698472548244EDFF8948043
:10073000DFF8949001F030F80024AF683B68002B9C
:10074000FCD00DF10701304698470028F6D19DF8FE
:100750000700022102F0DBF99DF807307B2B03D163
:1007600000248DF81040E8E77D2B1ED1052241467C
:1007700004A802F0A4F90028DFD10DF1150002F061
:1007800068F9041EECDD4FF47A7002F0ADF80294C3
:10079000FB6813B102A9304698474FF47A7002F013
:1007A000A3F8484600F0F8FFDAE73E2CC5D804F17C
:1007B00050026A44013402F8403CBEE76032000057
:1007C000F8370000FF37000005380000014B1860C3
:1007D000704700BF000000202DE9F04F91B08B461C
:1007E000029092461C4600259AF8000008B9284657
:1007F0005FE325280AF1010707D0029B5946984775
:100800000028C0F25683013512E2182200210AA8FE
:1008100002F071F99AF80130252B78D000221046A9
:10082000964694461646394617F8013B2B2B00F0A6
:100830009D8000F29480202B00F09B80232B00F001
:100840009B802EB19DF8306046F004068DF8306034
:10085000BCF1000F05D09DF8306046F008068DF819
:100860003060BEF1000F05D09DF8306046F01006F4
:100870008DF8306028B19DF8300040F020008DF8F0
:1008800030002AB19DF8302042F040028DF830202F
:100890009DF8302002F04400442803D16FF3861203
:1008A0008DF830209DF830202A2B42F080028DF800
:1008B00030207BD19DF8312042F001024B1C8DF895
:1008C00031201A782E2A9DF831200CBF01210021F9
:1008D00061F341028DF8312074D15A782A2A6AD006
:1008E000013300210A26184610F8012BA2F1300727
:1008F000092F40F28E809DF830200E91C2F3400007
:1009000040EAD17161F341028DF830205AE00AF1DA
:1009100002078DF833309DF83130D90740F1498115
:1009200054F8049BB9F1000F07DA9DF8302042F02B
:1009300004028DF83020C9F100095A0740F14281C4
:1009400054F8048BB8F1000F80F241819DF83130EA
:100950006FF341038DF831304FF0FF3837E12D2B25
:100960000CD0302B7FF46DAF01225CE74FF0010C0F
:1009700059E74FF0010E56E7012054E7012652E7F0
:100980000CFB0202303A33461E4616F8010BA0F16A
:100990003007092FF4D9994293D09DF830100D9269
:1009A000D20F62F341018DF830108AE70B46002226
:1009B0004FF00A0CE8E79DF8312042F004028DF870
:1009C000312002331F4617F8012B6C2A41D025D85D
:1009D000682A2BD06A2A46D04C2A4CD01F4617F8DA
:1009E000012B9DF831308DF83320782A00F2D98020
:1009F000572A4DD8412A03D0453A022A00F2D18025
:100A00009DF83230042262F302038DF83230012364
:100A10009EE006FB01213039034664E7742A26D0A4
:100A20007A2ADBD19DF8313006220DE05A78682A07
:100A30009DF8312006D1012161F3C6028DF83120E5
:100A40009F1CCCE71346022262F3C6038DF83130B7
:100A5000C5E75A786C2A9DF8312001D10421EBE7D3
:100A600013460322F0E79DF831300522ECE79DF8AC
:100A700031300722E8E7BDF8303023F4F04323F0AB
:100A8000020343F4804343F00203ADF83030A6E79D
:100A9000A2F15801202900F2848001A050F821F031
:100AA000650B0000A30B0000A30B0000A30B0000CC
:100AB000A30B0000A30B0000A30B0000A30B00007E
:100AC000A30B0000010A0000A30B0000650B00004F
:100AD000250B0000010A0000010A0000010A0000C5
:100AE000A30B0000250B0000A30B0000A30B0000CC
:100AF000A30B0000A30B00006D0B0000650B0000B2
:100B0000890B0000A30B0000A30B0000890B000061
:100B1000A30B0000650B0000A30B0000A30B00005B
:100B2000650B00009DF83210012003F0780360F39C
:100B30000201402B8DF8321002BF9DF8301041F0B9
:100B400001018DF83010632A31D1003B18BF012319
:100B50009DF83020C2F340010B4363F341028DF84E
:100B60003020D8E69DF832100220DEE79DF83220D2
:100B700003F07803A3F14000032161F30202434232
:100B80008DF832204341E3E79DF83220032113F032
:100B9000780F61F302028DF8322014BF0123002385
:100BA000D6E79DF8303043F001038DF83030002354
:100BB000CEE79DF93020002AB4BFDDF834904FF025
:100BC000FF39BAE69B077FF5C7AEDDF838809DF8A0
:100BD00031100023CDE90D339DF8323003F00703C7
:100BE000012BC1F3C30138D1CB1E042B22D8DFE87F
:100BF00003F003090921210054F8043BDA17CDE979
:100C00000A3206E0073424F00704F4E80223CDE9B1
:100C10000A239DF8303013F0030656D002983B4665
:100C20005246594601F0CBFE0028C0F242810544ED
:100C3000BA46D9E554F8043B01294FEAE372CDE9FD
:100C40000A3205D19DF828300A9300230B93E0E780
:100C50000229DED1BDF92830D0E7022B23D1CB1EEB
:100C6000042B13D8DFE803F0030A0A1212002268EB
:100C70000A920023201D0B930446CAE7E01D20F0D2
:100C80000700F0E80223CDE90A23F5E754F8043B16
:100C90000A9301294FF000030B93D3D00229B8D156
:100CA000BDF82830D0E7042B09D1E31D23F007035A
:100CB00003F10804D3E90023CDE90A23A9E7032BB4
:100CC00004BF54F8043B0A93A3E79DF83300782847
:100CD000AED8622822D825283FF48FAD5828A7D156
:100CE0000DF126030093DDE90A0104AB0CAA01F023
:100CF00020FE8246B8F1000F0DF126000CDB9DF8B6
:100D00003020A0EB0A036FF3861298458DF830204F
:100D100002D9A8EB03030D9380463DE06338152804
:100D200086D801A252F820F0A90D00000D0E000097
:100D3000310C0000310C0000310C0000310C0000BF
:100D40000D0E0000310C0000310C0000310C0000D1
:100D5000310C0000670E0000350E0000390E000057
:100D6000310C0000310C0000810D0000310C00003E
:100D7000350E0000310C0000310C0000350E000073
:100D8000B8F1000FDDF828A00ADB4146504601F01B
:100D90008DFE0AEB00080026BAF1000F0CD147E7E0
:100DA000504601F07CFEF4E70A9B8DF810300026D7
:100DB0000DF1100A0DF11108A8EB0A0306B1013379
:100DC0009DF83220D00668D5023352060D9948BFEF
:100DD0000E9A0B4448BF9B18B9F1000F76DD9DF8C1
:100DE0003020A9EB0309C2F38003039353076DD4AA
:100DF000500661D546B1029B5946304698470028B7
:100E000057DB039B01351E46302356E01E070FD4E7
:100E100013F0100618BF2026DDE90A23002BBFF6C9
:100E20005FAF524263EB4303CDE90A232D2657E718
:100E30002B26F1E7002653E70A9840B30DF126036D
:100E400000930CAA04AB002101F073FDBDF8323011
:100E500003F0EF0343F4F04343F010038246ADF890
:100E60003230002646E70A9B07293FF6E1AEDFE86D
:100E700001F00C04060C08080C0C1D70D8E61D804F
:100E8000D6E6EA17C3E90052D2E61D60D0E6DFF8E5
:100E9000C8A006460AF105088EE7110748BF0133CE
:100EA00093E7184603935946029B98470028039BF3
:100EB00004DA11B0BDE8F08F20234D444A46002AE1
:100EC000A5EB090109F1FF39EBDC0D4636B1029BB8
:100ED0005946304698470028EBDB01359DF8323003
:100EE000D90601D41A0706D5029B594630209847E7
:100EF0000028DEDB01359DF83230DB0607D59DF892
:100F00003300029B594698470028D2DB01350D9EDD
:100F10002E44731B002B16DC02984346524659465A
:100F200001F04DFD0028C4DB0544A944A9EB0503ED
:100F3000002B7FF77DAE029B594620209847002862
:100F4000B7DB0135F2E7029B59463020984700286D
:100F5000AFDB0135DDE700BF0E38000010B54FF004
:100F60001003EFF3118483F31288BFF36F8F114ADC
:100F70001148937843F008039370104B4FF092722E
:100F80005A6400F02BFF0E4B0E4A1A6000210E4AE5
:100F9000084600F07DFF01220021022000F0C6FE7D
:100FA0000A4800F0D1FD84F31188BFF36F8F002051
:100FB00010BD00BF00D00740403600000080044054
:100FC000CC01002080F0FA021438000048360000FE
:100FD00006484CF22051C1814DF62811C18101888B
:100FE0004FF001029143018070470000002005404E
:100FF000014910220A60704710ED00E072B64040CF
:1010000080F31188BFF36F8FBFF34F8F30BF62B68D
:10101000BFF36F8F704700BF43B2002B08DB012284
:1010200000F01F0002FA00F05B09024A42F82300B8
:10103000704700BF00E100E043B2002BA8BF03F1FE
:10104000604301F10101B8BF064B4FEA0111ACBF8B
:1010500003F5614300F00F00C9B2B4BF195483F81F
:101060000013704714ED00E030BFFFF7FDBF00BF75
:101070000F4A08B50F4B22F07F029A60BFF34F8FE3
:10108000BFF36F8FD3F8882022F47002C3F8882052
:10109000EFF3148323F0040383F31488BFF36F8FFB
:1010A00001F01CF801F0E4FA00F0FAF901F020F880
:1010B0000000000000ED00E0094A0A499368096851
:1010C0009967094958674B6843F080534B60002388
:1010D00083F31188BFF36F8F9368986F704700BFD9
:1010E000D4010020E437000000ED00E012498A68D6
:1010F0004FF030001044EFF3098C80E8F01F10200F
:1011000080F31288BFF36F8F0C4F4FF000668A692F
:101110008A603E60506F0023536780F3118804B5E6
:10112000104600F0FFF9BDE8044002F1300090E8FD
:10113000F01F8CF309887047D401002004ED00E013
:101140001EF0040F0CBFEFF30880EFF309808169F4
:1011500011F8021C0229FFD001B501F06BFC01BDA2
:1011600042F8203C009B42F81C3C0A49019B42F893
:10117000183C029B42F8143C21F001014FF08073AF
:1011800042F8043C42F8081C0023203A02654367F9
:10119000704700BF1F290000094A0346906870B1DC
:1011A00013F1160F406E05D0A0F120029A4205D827
:1011B000834203D2814228BF00207047002070473D
:1011C000D401002008B5094B98600D46144600F084
:1011D000A9F9204685F30988002163B681F31188B7
:1011E000BFF36F8F0022002301F099FBD401002090
:1011F00001B5EFF30580A0F110004FEAC0000449EB
:10120000014409C99847BDE8014002490847000068
:101210000833000019120000044B9968986988424D
:1012200003D003494FF080520A607047D401002078
:1012300004ED00E038B5194B14469A6A9A6A9A6A26
:101240000546900719D5586B9A6A120615D519B13B
:101250009A6A22F080029A629A6A9A6A9A6AD10617
:101260000ED49B6A9A070BD400200C4A936A43F071
:10127000FF0393620023237038BD6FF01500EBE786
:10128000064B5B681B05EFD52946FFF785FF002855
:10129000EAD080F309880220E7E700BF00ED00E014
:1012A0002DE9F843284B16469A6A9A6A9A6A940579
:1012B000074608D59A6B9A6A100404D519B19A6A40
:1012C00022F400429A62204B9A6A9A6AD10558BF6A
:1012D0009B6A1E4B1C6814F0784423D0DFF868909A
:1012E0004FF00048002514EA080F25D0EB0003F169
:1012F000804303F550435A691869D9F82830DA0455
:101300001AD5D9F804301B0516D53946FFF744FF26
:1013100090B180F3098802220C490B6823EA040487
:101320000C601446084A936A43F47F439362002397
:1013300033702046BDE8F8830135052D4FEA580883
:10134000D1D10022E8E700BF00ED00E000D000406E
:1013500070B5494B5B688AB00D46C3F3080300269D
:1013600086F31188BFF36F8F02F07F41B1F17F4F99
:1013700011D102F00C0108290DD0110701D4054646
:1013800001260022033B8DF80720032B6CD8DFE8F1
:1013900003F004565A5E3546F3E7374BDC6A14F027
:1013A000020461D1DA6A002A15DBDA6A520012D52A
:1013B000AA6932F8021C4DF6027291420AD093F8E3
:1013C00028200AB30DF1070201212846FFF732FF5A
:1013D000044600E02C689DF807309BB9202229467E
:1013E00002A801F07DFB099B002E3FD0C3F3080249
:1013F00022B96FEA53236FEA4323099302A92046D7
:1014000001F016FB0AB070BD93F8292032B10DF13E
:10141000070201212846FFF743FFD9E75A8D92B210
:10142000002AD8D09A6A9A6A9A6A9A6A9A6A9A6AD2
:101430009A6A6FEA02426FEA12429A62CBE70DF1B2
:1014400007020021C1E70DF107020021E2E70A4B84
:101450009A6A9A6A9A6A9A6A9A6A9A6A9A6A6FEA17
:1014600002426FEA12429A620024B4E723F4FF7347
:1014700023F00103C1E700BF00ED00E0024A536919
:1014800043F010035361704700ED00E0EFF3088074
:10149000EFF3098101B57246FFF75AFF01BD00BFA6
:1014A000044800231021C2180133562B82F8001380
:1014B000F9D1704700E100E0102080F31188FFF7B8
:1014C00087FD08484FF40261401880F30988EFF364
:1014D00014800221084380F31488BFF36F8FFFF755
:1014E000C7FD0000A0070020064B9B68834207D180
:1014F000EFF3058323B1044A536843F080535360EC
:1015000001F064B8D401002000ED00E0024B034A72
:101510000348012100F0BCB80000032000000020B7
:10152000E4360000426E054B203A1A60044A20213E
:10153000C3E901121846012100F0B4B8700100207F
:101540000882200030B50B4BCC6810B9C3F80048B6
:1015500030BDD1E9005100F14002120103EB00104F
:101560009D500123C0F80414C0F80844C0F80C349E
:10157000EEE700BF00D000402DE9F04F8DB0DFF85E
:10158000D49001938A4605460026564508DA6B68D2
:10159000002B59D0019951B1D90605D06FF0150231
:1015A00010460DB0BDE8F08F2B68DB06F6D1AB68B6
:1015B00029498B4238D1D4B24FF01002EFF3118B8E
:1015C00082F31288BFF36F8FD9F80870D9F804300E
:1015D0000293D5E9002103EB07180A44D8F8041058
:1015E000049205913A01D8F80C1003920B2C079144
:1015F0002DD8204604A9FFF7A5FFDDE902329A584D
:1016000008922A68013A099208A9D8F80C200B928E
:1016100038460134FFF796FFE2B28BF31188BFF32F
:101620006F8F12F1160FB9D029686B680891D4B288
:1016300019440139AB6809910B2C0B93AED808A95A
:101640002046FFF77FFF621C01360C359DE76FF0E7
:101650001502E2E75036000008822000044A1368B1
:1016600043F001031360BFF34F8FBFF36F8F7047D9
:1016700000D00040BFF35F8F044B1A6822F00102D4
:101680001A601A6842F078421A60704700D0004031
:1016900010B5034C01232278FFF76EFF207010BDB8
:1016A000080200202DE9F04105460E464FF01003D8
:1016B000EFF3118883F31288BFF36F8F174BD3E9D1
:1016C000014704EB071421460B20FFF73BFF21469F
:1016D0003846FFF737FF88F31188BFF36F8F104A42
:1016E0000023127831462846FFF746FF10F1160F07
:1016F00003D00C4900230B2801DDBDE8F08100F187
:10170000400212018B5001EB00120130C2F8043488
:10171000C2F80834C2F80C34EDE700BF50360000C0
:101720000802002000D0004070B50F4E35680C2D27
:1017300017D8FFF79FFF0D4A136C43F0040313649F
:101740000024A54205D10A4B1D70FFF787FF00203A
:1017500070BD7168204601EB0411FFF7F3FE013400
:10176000EFE74FF0FF30F3E7503600000080044011
:1017700008020020014B1860704700BF04000020E1
:101780000239012902D8034B1B6818474FF0FF307C
:10179000704700BF040000200FB407B504AB02215E
:1017A00053F8042B04480193FFF716F803B05DF8D3
:1017B00004EB04B0704700BF0F2B000010B50A4CBB
:1017C0001021204601F0A5F92046084C112101F016
:1017D000A0F92046102101F09CF92046112101F0CA
:1017E00098F9002010BD00BFE8310000D0310000A2
:1017F00008B5084B0848186001F0B8FB38B1074835
:10180000FFF7B8FF0548FEF7E1FF002008BD6FF0C5
:101810001200FBE77C01002060320000211800006C
:101820000A2838B5074D044604D1286883680D217D
:101830005B68984728688368E1B25B6898472046F0
:1018400038BD00BF7C0100204FF0E02310B59A693D
:1018500019699869094B11F4803F094901D1824205
:1018600006D21A680C6822441A604FF0E02212690E
:101870001B680A681344181A10BD00BFC801002075
:10188000C401002008B5FFF7DFFF0C4B0C4A1868B5
:1018900011680844106000221A600A4A136842F670
:1018A000E061C01AB0FBF1F001FB0033136000F0FF
:1018B000BFFFBDE80840FFF7AFBC00BFC801002074
:1018C000C0010020BC010020094B102283F8232016
:1018D000084B42F6DF621A60074B002018604FF099
:1018E000E0235A6198611A6942F007021A61704751
:1018F00000ED00E0C4010020C8010020F8B5324D21
:1019000059B1431C09D14FF0E022136923F00103C0
:1019100013614FF07F432B60F8BD40F27553B0F177
:10192000FF3F08BF1846441E002C2F6832DD9C4242
:10193000A8BF1C464FF01003EFF3118683F3128803
:10194000BFF36F8FFFF780FF20494FF0E0230022A5
:10195000D3F818C00B6818441D4B08601A601D4B63
:101960001B68C21A18D54FF480632B604FF0E02239
:101970002C6893699C4538BFBC44013CACEB030C1C
:101980005461604400249461086086F31188BFF3B9
:101990006F8FC1E70024CDE742F6E06E0EFB042412
:1019A00004F53B541B1A1F34B4FBFEF40EFB043445
:1019B000B4F5806F04D9084B9C42D6D82C60D5E78B
:1019C0004FF48064FAE700BFC4010020C00100208A
:1019D000C8010020BC01002060CCFF0010B54FF012
:1019E0001003EFF3118483F31288BFF36F8FFFF7B7
:1019F0002BFF074B074A1B6812689B1A034484F3AA
:101A00001188BFF36F8F42F6E060B3FBF0F010BDBA
:101A1000C0010020BC01002010B54FF01003EFF30F
:101A2000118483F31288BFF36F8FFFF70DFF044B10
:101A30001B68184484F31188BFF36F8F10BD00BF7B
:101A4000C0010020084B1B7B03F00303012B05D0D2
:101A5000022B05D033B9054B18687047044BFBE7E0
:101A6000044870470020704700400640CC01002029
:101A7000D0010020006CDC0208B5124A9379DB0625
:101A80001CD4FFF7DFFF13785178127BC3F3C20336
:101A900011F0300F20FA03F002F0030200D00AB177
:101AA000022A04D1062B03D0072B05D0400908BD1C
:101AB0001423B0FBF3F0FAE70C23FAE7024B1868A3
:101AC000F5E700BF004006401C000020064B9A7955
:101AD000D20755BF054B064A1868187A42BFC0F3B3
:101AE00042031068D8407047004006401C000020A8
:101AF00018000020034B1B781B0646BF024B1868DA
:101B00000020704700500640CC01002008B50C4B67
:101B10001B68C3F38143022B09D0032B0AD063B99E
:101B2000FFF7E8FFB0F5004F18BF002008BD054BD8
:101B30001868FBE74FF47A70F8E70020F6E700BF7B
:101B400000700440D00100200C4A436802F5805127
:101B500010B54B6403784C681B0403F4403324F441
:101B6000403423434B60437811689B0403F44023C3
:101B700021F440210B43136010BD00BF00700440EE
:101B800010B50C4C63789A0701D5002010BDA379DD
:101B90009B06FAD4FFF770FF0028F6D0E378E278CE
:101BA000C3F341135B0003EBD213034A32F8133043
:101BB0005843EBE700400640E8370000034B187835
:101BC00010F0020001D0FFF781BF704700400640CF
:101BD00008B5094A907910F040000CD0FFF732FFA9
:101BE000137903F01F030133B0FBF3F3507900F0D6
:101BF0001F001830584308BD00400640084B5B6882
:101C0000C3F30143012B04D0032B04D02BB9FFF7FE
:101C1000B7BFFFF7DDBF034870470020704700BF24
:101C200000800440006CDC02084B9B79C3F3810305
:101C3000022B09D0032B03D0012B03D1FFF746BFA2
:101C4000FFF7C6BFFFF79CBFFFF7FCBE0040064092
:101C500008B5132848D8DFE800F00D0D161D2447FD
:101C60002B2F334747373B3F43474747490A4FF4FA
:101C70007A7008BDFFF7D8FF1D4B5B6C1B0F01335B
:101C8000B0FBF3F0F5E7FFF7CFFF194B5B6CC3F345
:101C90000363F4E7FFF7C8FF154B5B6CC3F3035313
:101CA000EDE7FFF7C1FF124B5B6CC3F30343E6E7BD
:101CB000BDE80840FFF7A2BFBDE80840FFF726BF18
:101CC000BDE80840FFF716BFBDE8084001F009B9BC
:101CD000BDE80840FFF772BFBDE80840FFF750BFFE
:101CE000BDE80840FFF774BF0020C2E70148C0E725
:101CF00000800440006CDC0210B50B490A7B0B7BB2
:101D000000F0030403F0FC0323430B7302F003030E
:101D1000834205D1002010BD00BF013BFCD1F9E793
:101D200040F2DD53F9E700BF0040064070B51D4B9F
:101D30009C799D791E7AC6F342069642C4F38104CB
:101D4000EDB217D01B789B0701D4012C09D1EE0707
:101D500007D5144B5D7805F0FE055D709D79ED07A4
:101D6000FCD4104D2B7A520002F00E0203F0D00387
:101D70001A432A720B4B5A7801F0010502F0FE0259
:101D80002A435A701A7802F0FC020243012C1A709E
:101D900001D0820704D59A7902F001028A42FAD171
:101DA000002070BD0040064042780B4B02F01F023D
:101DB0001A715979827801F0E00102F01F020A439A
:101DC0005A711A7901780A4342F040021A719A79DD
:101DD0005206FCD5704700BF00400640036849F634
:101DE0009702934230B522D912498B4294BF012108
:101DF0000221114A0479137803F0F00323430F4CB6
:101E000013706378457903F0C3032B4343EA01134E
:101E100063701378817903F05F030B4313702DB166
:101E200013781A0602D5A3799B07FCD530BD002193
:101E3000DFE700BF00127A00005006400040064075
:101E400010B5124B5A7802F0FD025A701A7802F05F
:101E50003B0242F0800208461A709A7902F01C0296
:101E6000082AFAD15A79094C02F0BF025A71A379B3
:101E70009A06FCD4FFF798FF637943F0400363713F
:101E8000A3799B06FCD5002010BD00BF0040064092
:101E900038B515460C46FFF72FFF29462046FFF7B9
:101EA000CFFF064A137803F03F0313709379C3F30F
:101EB0008103032BFAD1002038BD00BF004006404B
:101EC000114B984216D003F58053984214D003F575
:101ED0008053984212D003F58053984210D003F5F6
:101EE000FA2398420ED003F58053984214BF06207F
:101EF000052070470020704701207047022070477E
:101F0000032070470420704700A00640F8B50B6816
:101F1000B2EB031F4FEA031534BF0125B2FBF5F501
:101F20005200B2FBF3F6B2FBF6F2934234BFD21A80
:101F30009A1A04466420B3FBF0F303EB4303934285
:101F400060D32046FFF7BCFF304B53F82000030C52
:101F500003F1804303F58E2380B21F680122824083
:101F60003A431A60E37803F0F303E370237803F055
:101F7000E00343EA1523DBB2EDB223706570A37A68
:101F800006F01F0603F0E0031E43A6728A7AA378C8
:101F9000920002F0040203F0E80313430A7912B13D
:101FA000134343F01003A3704B7922785B0103F0D5
:101FB000200302F0DF02134323708B79E374CB79A3
:101FC0006375237C43F088032374637C43F0C00370
:101FD00063740B7A1BB1637B43F0080363734B7A22
:101FE0001BB1637B43F001036373E378CA7ADBB20E
:101FF0000AB143F008030A7B0AB143F00403E3701B
:102000000020F8BD40F2F530FBE700BFB837000014
:102010000E4B70B553F82040013053F82060A642B3
:1020200000D870BDD4E900352846984765B1EB6803
:1020300030B10028B8BF4042FF28A8BFFF20187069
:102040005A7842F001025A700834E8E7D0370000AD
:1020500030B5002387B00122CDE904230F22CDE95A
:10206000023201930C4C0D4B0D49182204EBC014A5
:1020700002FB00334FF4B075009305FB0011094BD0
:102080004FF4A072204600F0A3F8637B23F0040312
:10209000637307B030BD00BF68000020D40100208A
:1020A00040060020CF2F000008B50A4B0122022075
:1020B0001A70FFF7ADFF01F026F80320FFF7A8FF25
:1020C00000F0B8F8FEF726FB034A137B23F0010368
:1020D000137308BD09020020E80000200248034AEB
:1020E0000021121A00F007BD680000200C02002039
:1020F00080B5DFF8BC80A6B088F308882D4D2E4E41
:102100006B69DFF8B89043F4007300246B61F0232F
:1021100085F82230EC772C766C76AC7685F820400A
:102120006B6A43F4E0236B62FFF7A8F9FEF760FFE8
:102130004FF0FF33AB62EB62FFF7F6FAFFF7E6F919
:1021400040F20113ADF8243006ABB360CDE91F4473
:1021500000F00BFF2046FFF75BFF0120184DFFF753
:1021600057FF00F021FA174B0593012316490094FD
:10217000CDE903434FF480624B46CDE90144284644
:10218000B56100F025F86A7B074622F00402284674
:102190006A7300F056FF2046FFF75AFF0B4BF360BF
:1021A0004A46394628463475C6F80480FFF70AF8CF
:1021B000C00F002000ED00E0D4010020A9200000A5
:1021C000E8000020DF380000200200206800002026
:1021D0002DE9FF410E9E0673042646730D9E8673FD
:1021E00000F158050F46D61DC0E916550C9A00257A
:1021F00026F007062037C0E90655C0E91976856044
:10220000C573C56606F1200802920B9A01928844B4
:102210000A9A009242460446FEF7A2FF044B656507
:102220009B6803B11B6F2367404604B0BDE8F08193
:10223000D4010020F0B5224C224D87B02646AE4294
:1022400004F130040BD300F091F81D4C1E4F0A2608
:10225000AC4220D307B0BDE8F04000F089B954F893
:10226000043C059354F8103C049354F8143C039335
:1022700054F8183C029354F81C3C019354F8203C49
:10228000009354E90C0154E90A23FFF7A1FF54F825
:10229000303C5E65D2E7626A531C09D022EAE272E2
:1022A00082FB062352EA0301206803D100F042F9C1
:1022B0003034CDE73946183000F040FAF8E700BF77
:1022C00064000020640000206330000010B5084C5A
:1022D00023685BB1FFF782FB03462068054A03448D
:1022E000BDE810401361002100F0F3BE10BD00BF37
:1022F00000020020D401002010B54FF01003EFF3CE
:10230000118483F31288BFF36F8F0C4B00221A6184
:1023100090424FF00A030A4A00FB03F309DC136002
:10232000084B1960FFF7D2FF84F31188BFF36F8F5A
:1023300010BD022BB8BF0223F1E700BFD40100207B
:1023400000020020FC01002049B9EFF3058030B9FC
:10235000054B9A699B689A4201D0FEF7ADBE81F3A6
:102360001188BFF36F8F7047D40100204FF0100326
:10237000EFF3118183F31288BFF36F8F044B9A68D8
:10238000D37B013BD37381F31188BFF36F8F704709
:10239000D401002038B502460C480D4D00F04BFE2C
:1023A000044600B9EC68AB684AB95A7BD20606D13C
:1023B000A26922B9DA897F2A01D9AB6138BD9C4272
:1023C00001D0FFF783FFAC61F8E700BFF001002008
:1023D000D401002070B590F90D20437B002A0146FE
:1023E00004DA03F07F03437300F0FDFD4B7B154AD5
:1023F00063F07F034B73D2E9073402F11C05AB4253
:102400001BD0D3B191F90E6093F90E0086420FD024
:10241000801B00280CDD5868C1E90030016059605C
:102420009068431A5842BDE870405841FFF7B2BF68
:10243000A34202D01B68002BE6D1C1E90054216001
:102440001162EDE7D401002038B501464FF01003CA
:10245000EFF3118483F31288BFF36F8F154B164A85
:1024600098681568A84206D1FFF730FF84F31188F9
:10247000BFF36F8F38BD00251560104A1268BAB1DE
:10248000C2897F2A14D8427BD20611D10C4A90F916
:102490000E50126895420BDB0A4A904208D01A6926
:1024A0008A4202DCFFF796FFDEE7521A1A61DDE787
:1024B0000022FBE7D4010020F801002000020020E8
:1024C000FC0100206800002070B490F90D20437BCF
:1024D000002A2ADBDA0628D1826932BB144A63F06B
:1024E0007F034373D2E9073402F11C05AB4217D0D6
:1024F000B3B190F90E6093F90E108E420BD0891B88
:10250000002908DD5A68C0E900321060586070BCCC
:102510000020FFF73FBFA34202D01B68002BEAD187
:10252000C0E9005420601062F1E770BC704700BF42
:10253000D401002010B54FF01002EFF3118482F3A4
:102540001288BFF36F8F427B510704D484F3118844
:10255000BFF36F8F10BD22F004024273FFF7B4FF88
:1025600021460248BDE81040FFF7EEBE0A020020F7
:1025700010B54FF01003EFF3118483F31288BFF30B
:102580006F8F084B9A68D37B0133D3730020FFF71A
:1025900001FF84F31188BFF36F8FBDE8104000F096
:1025A00040BD00BFD4010020044B002103F11C02F8
:1025B000C3E907220846FFF79FBE00BFD4010020F1
:1025C000014B9868704700BFD40100202DE9F0410D
:1025D00004464FF01003EFF3118683F31288BFF324
:1025E0006F8F437B1A0705D586F31188BFF36F8F72
:1025F000BDE8F08123F0200242F00801D20920D189
:102600004173A36813B1204600F0F5FC04F11800F3
:1026100000F049FD04F158074FF00008A56DBD42D8
:1026200000D0B5B90120FFF7B5FE104B9B68A3425F
:10263000DAD1EFF30583002BD6D13046FEF73CFD0F
:10264000D2E703F05F0343F00803437300F0CBFCD1
:10265000D7E7284600F0CFFC05F1180000F023FD75
:10266000C5F878802846FFF72FFFD7E7D401002070
:1026700008B50648064A0749121A00F031FABDE8C3
:102680000840054A0549064800F02ABA0000002023
:1026900064000020E438000000000000E43800007E
:1026A00000000020034B1B680BB9FFF797B900200F
:1026B000704700BF04020020114B10B51C689C42FB
:1026C00008BF0024FFF7EEFF03466CB1D4E9040213
:1026D000C01A62EBE373012873F100020DDBB0F165
:1026E000004F73F1000301DB6FF00040054B1B69E5
:1026F00013B19842A8BF184610BD0020F6E700BFEE
:1027000020000020D401002030B5036868B10A4AD7
:102710005268904209D043B1D3E90421D0E904457D
:10272000121941EB0501C3E90421426813605A60A4
:102730000023C0E9003330BD20000020B3F1FF3F8B
:1027400008BFB2F1FF3FF8B504461F46154667D0F3
:1027500081604FF01003EFF3118683F31288BFF30B
:102760006F8F6FF00102531B4FF0FF3C6CEB0703C0
:10277000002B1BDB2B4BD3E90013521A6CEB03032A
:10278000551B63EB0703012D73F10002BCBF01254C
:102790000023C0E904532448D0E9003C834218D107
:1027A000C4E9000CCCF80040446026E0FFF77AFF53
:1027B000013547F100072D1847EBE077C4E90457CE
:1027C000E9E7521A65EB07059C45C4E90425E7D003
:1027D0001B68002BE4D0D3E90417D4E904258A420E
:1027E00075EB070EEDDA8A1A67EB0505C3E90425D8
:1027F0005A68C4E9003214605C60036883420BD0FD
:102800009C4209D1FFF758FF18B1084B1B6983425E
:1028100002D00021FFF772F886F31188BFF36F8FA3
:10282000F8BD00BF6801002020000020D401002076
:102830002DE9F8430546FFF707FE4FF01003EFF3CD
:10284000118483F31288BFF36F8F244EDFF89080DA
:102850003560244DD8F8000032684045D5E9001EA7
:102860004FEAE2770BD050B1D0E9043C9A4277EBC3
:102870000C0916DA9B1A6CEB070CC0E9043C5218E1
:102880004EEB0707C5E9002700253560FFF714FF69
:102890002946FFF733F884F31188BFF36F8FBDE843
:1028A000F88359184EEBE377D31A336000220023E4
:1028B000C0E90423C5E90017FFF726FF84F3118858
:1028C000BFF36F8F836898474FF01003EFF31184C5
:1028D00083F31288BFF36F8FBCE700BF04020020B0
:1028E000200000206801002038B5044678B1FFF7C9
:1028F00093F805460648074AA4FB00010023FDF7AC
:1029000087FD0446FFF788F8431BA342FAD338BD7E
:10291000000E270740420F00704700207047044612
:1029200008B5084611461A46A047FFF749FEFEF7CC
:10293000DBFD2DE9F84F9A46D3786F2B80460F4682
:102940001546A3F1410B29D024D8582B14BF0A26D1
:102950001026DDF828903246002340463946FDF720
:1029600057FD092AD4B21ED83034B045E4B277F10D
:10297000000309F8014D01D3D14511D82B789B06EE
:1029800005D5082E15D1AB7843F00803AB70484647
:10299000BDE8F88F03F0F703702BD7E70826D8E7D8
:1029A00080460F46D7E7BBF1190F94BF3734573431
:1029B000DBE7102EEBD1AB7843F01003E6E72DE90F
:1029C000F0410746884615461E461446B442A4EB1D
:1029D000050002D33EB923782BB114F8010B414610
:1029E000B8470028F2DABDE8F081704743685B68B9
:1029F000002043F82120704743685B6853F821307A
:102A00001360002070476FF08500704743681968B5
:102A10000B0C03F1804303F58E2389B21868012261
:102A20008A4002431A60002070476FF085007047AB
:102A300000F0B2BA0146006800F0AEBA00210120F1
:102A4000FFF7F6BF08B5FEF70FFBBDE80840FEF73D
:102A5000E3BB30B50278202A034600F10100F9D02B
:102A6000A2F109010429F5D92B2A08D02D2A0ABF81
:102A7000034600210121013B00200A2506E0034610
:102A80000021F8E7C2F1300205FB002013F8012F06
:102A9000A2F13004092CF5D901B9404230BD0346FA
:102AA00000201A5C02B970470130FAE703460020A3
:102AB0001A5C0AB1884200D170470130F8E710B5BE
:102AC00003465AB10139841813F8010B11F8012F8C
:102AD000A34201D09042F7D0801A10BD1046FCE707
:102AE00010B5431E0A44914200D110BD11F8014BAC
:102AF00003F8014FF7E7C9B202440346934200D1FD
:102B0000704703F8011BF9E74FF0FF307047FEF7FD
:102B100037BE83684FF440721B6818470020704727
:102B20000020704738B5154621B1012908D06FF053
:102B3000150038BD0B20FFF78BF828600020F8E760
:102B4000FFF772F8F9E7002070470B0C03F18043A0
:102B500003F58E230122186889B202FA01F10143BC
:102B60001960002070470B0C03F1804303F58E239E
:102B700001201A6889B200FA01F122EA0101196004
:102B80000020704700207047132910B514BFC8B249
:102B900008461446FFF75CF82060002010BD40682E
:102BA0001F2930B5D0E9013539D802F44070B0F5AD
:102BB000407F07D0940705D4B0F5807F05D0B0F5ED
:102BC000007F1CD06FF0850018E0586901248C400C
:102BD00020EA04005861D3061ED412F0200F0CBF67
:102BE0004FF480724FF4817255F8213023F4E06382
:102BF00023F00303134345F82130002030BD0120AA
:102C0000140500FA01F003D558605C692043E1E740
:102C1000540548BF9860F8E740F20312E4E76FF00C
:102C20001500EBE743685B681B690B600020704789
:102C300043685B68186842400A4042401A600020BE
:102C4000704743685B6800205960704743685B6861
:102C500000209960704743685B680020D960704726
:102C60000369586830B558B10024814212D1086810
:102C70009D6854B98D42586000D19860002008606A
:102C80006AB9002030BD2846EFE78D42206008BFBA
:102C90009C60F3E705680446002DF4D13AB19868CA
:102CA0005A680A6059600028EBD19960EAE76FF032
:102CB0001500E7E708B5002202213B20FEF7BCF92A
:102CC0003B20FEF7A9F9002008BD08B5002202212B
:102CD0003C20FEF7B1F93C20FEF79EF9002008BD2C
:102CE00008B5002202213D20FEF7A6F93D20FEF79F
:102CF00093F9002008BD08B5002202213E20FEF70E
:102D00009BF93E20FEF788F9002008BD08B5002297
:102D100002213F20FEF790F93F20FEF77DF90020C9
:102D200008BD40681F2930B585682ED8B2F5005F10
:102D300025D044686469CC40E40726D4C0684004C8
:102D400026D5B2F5804F0ED1B3F5003F0CBF082257
:102D50000C2255F8213023F4702343EA024345F84E
:102D60002130002030BDB3F5802F0AD0B3F5C02F3D
:102D700009D0B3F5003F14BF00220A22E9E7002280
:102D8000E7E70922E5E70B22E3E76FF01500E9E743
:102D90006FF08500E6E7436802699B68516870B58B
:102DA000D3F8A060C3F8A060044651B10D688A68EA
:102DB000324002D04B682046984715B129462D680D
:102DC000F5E770BD02690B4692E8030083E8030053
:102DD000002070472DE9F0414668076986B0D6E9C2
:102DE00001580C46284600F0C1F828B96FF01503C9
:102DF000184606B0BDE8F081AB68DB68002BF5D063
:102E0000284601AA4146984705460028EED102A867
:102E100000F073F822680292627901239A428DF8D9
:102E200013308DF8143004D0032A22D06FF08503BC
:102E3000DEE78DF80D50E3791BB1012BF6D140F29E
:102E40000113ADF810302379012B15D0022B01D0DE
:102E5000002BEBD18DF80C30019A306802A9FFF7F6
:102E600055F803460028C1D194E8030087E8030021
:102E7000BEE78DF80D30DEE70323EBE70169FFF7CE
:102E8000A9BF38B545680C46286800F046F8030627
:102E9000FAD52B68DC7138BD38B5456828680C4612
:102EA00000F03BF8830641BF2B68DB7923700020DC
:102EB00058BF4FF0FF3038BD38B54568286800F07E
:102EC0002CF8C0F3C004C20748BF44F002048307D3
:102ED00048BF44F0040428680B2100F029F820467C
:102EE00038BD10B5FEF7C8FD0446FEF79DFEB4EBF5
:102EF000D00F94BF2046002010BD10B51022002135
:102F00000446FFF7F8FD4FF080734FF4E132C4E957
:102F100000230023A360237310BD02794179037B52
:102F2000807C1B0443EA0123134343EA006070479B
:102F300010B5437903F03F0343EA1123DBB2437139
:102F40000B0E8374CB060C4607D00379C37901239B
:102F50008374437C43F040034374FFF7DEFF204259
:102F600040F2EE3008BF002010BD704738B1C36892
:102F70001888C0F30800A0F5807358425841704784
:102F80004FF01002EFF3118382F31288BFF36F8FBB
:102F9000FEE708B5FFF7F4FFF8B505460E464FF01B
:102FA0001003EFF3118783F31288BFF36F8FFFF7DE
:102FB00007FB314604462846FFF7EBFF87F31188ED
:102FC000BFF36F8F2046BDE8F840FEF78DBA08B515
:102FD0004FF01002EFF3118382F31288BFF36F8F6B
:102FE000FEF70CF8F4E7D0E9003213605A600023D2
:102FF000C0E90033704708B5FFF7F5FF437B23F0C6
:10300000020343730023836008BD034620B9EFF336
:1030100005820AB9FEF750B883F31188BFF36F8FAA
:1030200070474FF01003EFF3118083F31288BFF362
:103030006F8FFFF7EABF03460068834208BF002096
:10304000704710B54FF01003EFF3118483F312882B
:10305000BFF36F8FFFF738FA84F31188BFF36F8FD8
:1030600010BD10B501464FF01003EFF3118483F348
:103070001288BFF36F8F10F80B3C13F0280F0DD19F
:1030800051F8103C18380BB1FFF7B5FF11F80B3CA5
:1030900023F0140301F80B3CFFF716FA84F31188B0
:1030A000BFF36F8F10BD10B54FF01002EFF3118416
:1030B00082F31288BFF36F8F03683BB1FFF724FBE5
:1030C000002084F31188BFF36F8F10BD6FF01500DF
:1030D000F7E770B504460D464FF01003EFF3118685
:1030E00083F31288BFF36F8FFFF7E6FA012805DD3F
:1030F000A04203DB29462046FEF700FC86F3118838
:08310000BFF36F8F70BD704733
:0831080038D3FF7F0100000035
:103110005D0F0000000000000D2A0000A03100003B
:103120000D2A0000B83100000D2A0000D031000047
:103130000D2A0000E83100000D2A000000320000D6
:10314000BD17000000000000212B00001832000015
:10315000852B0000303200007D2E00004832000038
:103160007D2E000060320000C91800007832000097
:103170000D2D000090320000F72C0000A832000056
:10318000E12C0000C0320000CB2C0000D83200003F
:10319000B52C0000F0320000F11700000000000024
:1031A0004C380000CC360000D43600002800002047
:1031B00000000000363600005C380000C436000015
:1031C000D43600002C000020000000002E36000045
:1031D0006C380000BC360000D436000030000020FF
:1031E00000000000263600007C380000B4360000E5
:1031F000D436000034000020000000001E3600001D
:103200008C380000AC360000D436000038000020B6
:1032100000000000163600009C380000000000008E
:10322000F03600003C0000200000000010360000D6
:10323000A03800000000000004370000400000201B
:10324000000000000A360000C73800009837000070
:10325000A43700005800002010000020FC350000BA
:10326000CE3800008C370000A43700005C0000203E
:1032700008000020EE350000D538000000000000F6
:10328000000000006000002000000000EA3500009F
:10329000A43800007C3700001837000044000020EC
:1032A000B0010020E0350000AB3800006C370000B2
:1032B0001837000048000020A4010020D635000087
:1032C000B23800005C370000183700004C000020C6
:1032D00098010020CC350000B93800004C370000C0
:1032E00018370000500000208C010020C23500007B
:1032F000C03800003C3700001837000054000020A0
:0833000080010020B835000037
:10330800000000003D2A0000000000003D2A0000E7
:10331800000000003D2A0000000000003D2A0000D7
:10332800000000003D2A0000000000003D2A0000C7
:10333800000000003D2A0000000000003D2A0000B7
:10334800000000003D2A0000000000003D2A0000A7
:10335800000000003D2A0000000000003D2A000097
:10336800000000003D2A0000000000003D2A000087
:10337800000000003D2A0000000000003D2A000077
:10338800000000003D2A0000000000003D2A000067
:10339800000000003D2A0000000000003D2A000057
:1033A800000000003D2A0000000000003D2A000047
:1033B800000000003D2A0000000000003D2A000037
:1033C800000000003D2A0000000000003D2A000027
:1033D800000000003D2A0000000000003D2A000017
:1033E800000000003D2A0000000000003D2A000007
:1033F800000000003D2A0000000000003D2A0000F7
:10340800000000003D2A0000000000003D2A0000E6
:10341800000000003D2A0000000000003D2A0000D6
:10342800000000003D2A0000000000003D2A0000C6
:10343800000000003D2A0000000000003D2A0000B6
:10344800000000003D2A0000000000003D2A0000A6
:10345800000000003D2A0000000000003D2A000096
:10346800000000003D2A0000000000003D2A000086
:10347800000000003D2A0000000000003D2A000076
:10348800000000003D2A0000000000003D2A000066
:10349800000000003D2A0000000000003D2A000056
:1034A800000000003D2A0000000000003D2A000046
:1034B800000000003D2A0000000000003D2A000036
:1034C800000000003D2A0000000000003D2A000026
:1034D800000000003D2A0000F0320000972D000097
:1034E800D8320000972D0000C0320000972D000050
:1034F800A8320000972D000090320000972D0000A0
:10350800000000003D2A0000000000003D2A0000E5
:10351800000000003D2A0000000000003D2A0000D5
:10352800000000003D2A0000000000003D2A0000C5
:10353800000000003D2A0000000000003D2A0000B5
:10354800000000003D2A0000000000003D2A0000A5
:10355800000000003D2A0000000000003D2A000095
:10356800000000003D2A0000000000003D2A000085
:10357800000000003D2A0000000000003D2A000075
:10358800000000003D2A0000000000003D2A000065
:10359800000000003D2A0000000000003D2A000055
:1035A800000000003D2A0000000000003D2A000045
:1035B8000500FF7FFF7FFF7FFF7F0400FF7FFF7F06
:1035C800FF7FFF7F0300FF7FFF7FFF7FFF7F0200FA
:1035D800FF7FFF7FFF7FFF7F0100FF7FFF7FFF7F70
:1035E800FF7FFF7FFF7F04000700FF7FFF7FFF7FD4
:1035F800FF7FFF7F03000700FF7FFF7FFF7FFF7FC5
:10360800FF7FFF7FFF7FFF7FFF7FFF7FFF7F070039
:10361800FF7FFF7FFF7F0700FF7FFF7FFF7F0700A0
:10362800FF7FFF7FFF7F0700FF7FFF7FFF7F070090
:06363800FF7FFF7FFF7F12
:02363E00FFFF8C
:1036400080F0FA0200008000010200000000240166
:10365000050000005C3600000400000000000000CF
:10366000FFFFFFFF173800001886790000000000F8
:10367000FFFFFF1F2238000010044100000003205C
:10368000FFFFFFFF2F380000100441000000000082
:10369000FFFFFF073C3800005DD7750000000020E9
:1036A000FFFF0220443800001004590009003810C0
:1036B000009004400A00381000A004400B003810AD
:1036C00000B004400C00381000C004400D00381059
:1036D00000D00440ED290000F9290000072A00006D
:1036E0002B2A000000000020000000005DD77500BC
:1036F0001D2B0000472B000000000000252B0000C0
:10370000000000004B2B0000672B000000000000B1
:10371000892B0000000000009F2B0000252C0000DA
:10372000312C0000432C00004D2C0000572C0000D1
:10373000232D0000612C000000000000FFFFFFFFB0
:1037400000F00F400090044000400000FFFFFFFF2A
:1037500040F00F4000A0044000400000FFFFFFFFCA
:1037600080F00F4000B0044000400000FFFFFFFF6A
:10377000C0F00F4000C0044000400000FFFFFFFF0A
:1037800000F10F4000D004400040000000A00640BF
:10379000303200000000000000D00640303200004F
:1037A00002000000992E0000832E0000B92E0000B8
:1037B000D52D0000C52D00000A0034100B00341078
:1037C0000C0034100D0034100A0028100B002810D3
:1037D000103100006831000070310000A03100009D
:1037E000A0310000F5FFFFFF8002DC020005B805F4
:1037F00080079508000A710B7B696E69747D006211
:103800006175643A007B6368616E67657D00286E50
:10381000696C290000131844454255474745525FDB
:1038200030004241434B47524F554E445F300042B7
:1038300041434B47524F554E445F3100464C415334
:10384000485F300052414D5F555F300070696E6DCA
:1038500075784034303034643030300070696E6DCB
:1038600075784034303034633030300070696E6DBC
:1038700075784034303034623030300070696E6DAD
:1038800075784034303034613030300070696E6D9E
:103890007578403430303439303030004D43470093
:1038A00053494D004750494F5F34004750494F5FDF
:1038B00033004750494F5F32004750494F5F310056
:1038C0004750494F5F3000554152545F33005541D6
:1038D00052545F30007379735F636C6F636B006D7C
:0438E00061696E00AC
:1038E4001B290000092B000000C201000001030095
:1038F40000C201000001030000093D000080000037
:0839040020000020200000203B
:10390C0000000000000000000000000000000000AB
:10391C00000000000000000000000000000000009B
:10392C00000000000000000000000000000000008B
:0C393C000000000000000000000000007F
:04000003000014B92C
:00000001FF
