:10000000A8F5FF1F3513000057270000F11200006C
:1000100000000000000000000000000000000000E0
:10002000000000000000000000000000BD11000002
:1000300000000000000000005D110000D515000068
:100040002D1200002D1200002D1200002D120000B4
:100050002D1200002D1200002D1200002D120000A4
:100060002D1200002D1200002D1200002D12000094
:100070002D1200002D1200002D1200002D12000084
:10040000FFFFFFFFFFFFFFFFFFFFFFFFFEFFFFFFFD
:1004100002B4714649084900095649008E4402BC9D
:100420007047C04602B4714649084900095C49005A
:100430008E4402BC7047C04603B471464908400070
:100440004900095E49008E4403BC704700224308FE
:100450008B4274D303098B425FD3030A8B4244D38C
:10046000030B8B4228D3030C8B420DD3FF220902CE
:1004700012BA030C8B4202D31212090265D0030B8D
:100480008B4219D300E0090AC30B8B4201D3CB0383
:10049000C01A5241830B8B4201D38B03C01A5241C5
:1004A000430B8B4201D34B03C01A5241030B8B42C7
:1004B00001D30B03C01A5241C30A8B4201D3CB02B2
:1004C000C01A5241830A8B4201D38B02C01A524197
:1004D000430A8B4201D34B02C01A5241030A8B429A
:1004E00001D30B02C01A5241CDD2C3098B4201D3B2
:1004F000CB01C01A524183098B4201D38B01C01A30
:10050000524143098B4201D34B01C01A52410309A6
:100510008B4201D30B01C01A5241C3088B4201D355
:10052000CB00C01A524183088B4201D38B00C01A02
:10053000524143088B4201D34B00C01A5241411A29
:1005400000D20146524110467047FFE701B5002036
:1005500000F006F802BDC0460029F7D076E77047E4
:100560007047C0461C2101231B04984201D3000C94
:1005700010391B0A984201D3000A08391B09984216
:1005800001D30009043902A2105C40187047C0462C
:10059000040302020101010100000000000000004C
:1005A000002B11D1002A0FD1002900D1002802D040
:1005B0000021C943080007B4024802A14018029074
:1005C00003BDC0469DFFFFFF03B4684601B5029816
:1005D00000F034F8019B9E4602B00CBC7047C04648
:1005E000F0B5CE46474680B5070099463B0C9C4681
:1005F00013041B0C1D000E0061460004140C000CBB
:1006000045434B4360436143C0182C0C20188C4673
:10061000834203D980235B029846C4444946794308
:100620007243030C63442D042D0CC91800044019B7
:100630008918C0BCB946B046F0BDC046F0B55746B3
:100640004E464546DE46E0B504000D00924699460A
:1006500083B08B4230D82DD04946504600F0BAF8CE
:1006600029000600200000F0B5F8331A9846203B18
:100670009B4633D45A465346934042461F00534646
:1006800093401E00AF423AD8AF4200D178E05B46BB
:10069000A41BBD41002B00DA75E00022002300926C
:1006A000019301235A46934001930123424693400C
:1006B000009328E08242CFD90022002300920193C8
:1006C0000C9B002B01D01C605D600098019903B069
:1006D000F0BCBB46B246A946A046F0BD4246202328
:1006E0009B1A5246DA40414613004A468A40170098
:1006F00042461F43534693401E00AF42C4D90022D6
:100700000023009201934346002BD9D0FB077208C7
:100710001A4346467B080EE0AB4201D1A2420CD8F8
:10072000A41A9D41012024196D410021013E241885
:100730004D41002E06D0AB42EED9013E24196D4149
:10074000002EF8D1009801995B4600196941002BF1
:1007500024DB2B005A464446D3402A00E2401C00CA
:100760005B461500002B2ADB26009E403300260046
:100770004746BE403200801A9941009001919FE7A0
:10078000A342BCD883E74246202300219B1A0022C3
:10079000009101920122DA40019286E7424620232D
:1007A0009B1A2A0046469A402300F34044461343CE
:1007B0002A00E2401C005B461500002BD4DA4246BA
:1007C0002F002023260097409B1ADE403B00334336
:1007D000CDE7C04610B5002903D1FFF7C3FE203096
:1007E00002E00800FFF7BEFE10BDC046F0B595B0B0
:1007F000254DAB681B69002B02D0280002A9984741
:10080000FA26224800F0D6FD0024B600AF683B6807
:10081000002BFCD06A462800D11D98470028F5D14E
:100820006B460221D87902F004F86B46DB797B2B0A
:1008300003D1002404AB1C70E8E77D2B1DD10522F9
:10084000134904A801F0D1FF0028DFD11530684416
:1008500001F094FF041EECDD300001F0CDFE0294A7
:10086000FB68002B02D0280002A99847300001F055
:10087000C3FE084800F09EFDDBE73E2CC6D804AA64
:1008800013550134C2E7C046A02C0000702F0000B1
:10089000772F00007D2F0000014B18607047C04685
:1008A00000F0FF1FF0B51E00002797B005900691DD
:1008B0000892089B1878002801D138002DE3089B86
:1008C0000133079325280BD00699059B98470028EC
:1008D00000DA22E334000137079B26000893E8E79B
:1008E00010AC18220021200001F097FF089B5B78D4
:1008F000252B17D1089AE37202320792012210AB1E
:10090000597A114200D175E1340004CC0392002AD7
:1009100000DB75E104201A7A02431A72039B5B42E2
:1009200003936DE100221400944611000392079B8B
:100930001B782B2B6FD068D8202B72D0232B72D032
:10094000002904D0042010AD297A014329726146A0
:10095000002906D010AD297A8C4608216046014353
:100960002972002C04D0102110AC257A2943217261
:100970000399002904D0202110A8047A2143017290
:10098000002A04D0402210A9087A02430A724421A6
:1009900010A8027A1140442902D140218A430272F0
:1009A0008022017A52420A43027200210A24079AE5
:1009B0002A2B41D1437A01310B430132437214781F
:1009C000022521002E394B42594110A8437A490093
:1009D000AB43194341722E2C46D153782A2B3ED07B
:1009E0000023013208351178541C080030380928DA
:1009F00061D910A91493087A840723430224DB0FDA
:100A00005B00A04303430B722EE02D2B0ED0302B46
:100A100096D1012201E001239C46079B01330793F5
:100A200085E70124F9E701230393F6E70121F4E7C1
:100A30002A0061433039C9181378551C1800303822
:100A40000928F5D9079B9342B9D0022410AB187A34
:100A50001391C90F4900A04301431972AFE7042164
:100A6000437A02320B4343721178501C10AB6C294D
:100A700041D025D868292DD06A2948D04C2952D098
:100A800010000278431C10A90793CA724B7A782A87
:100A900000D9A8E0572A4DD8412A03D0453A022A66
:100AA00000D9A0E0072110AA937A8B4303390B43A6
:100AB000937201236AE06B43303B2200CB1892E72C
:100AC00074292AD07A29DBD178215A7A8A431100F5
:100AD00030220DE051787824682906D1587A60399F
:100AE000A04301435972901CCBE71022597AA143CD
:100AF0000A435A72C5E7517878246C2903D1587A91
:100B00004C39A043EDE7597A1822A143F0E7782148
:100B10005A7A8A4311002822EAE778215A7A8A43CE
:100B200011003822E4E71A89AA491140AA4A0A4367
:100B30001A81A6E710005838202854D8FFF768FC1F
:100B4000335353535353535353B2533311B2B2B27B
:100B50005311535353533933475353475333535319
:100B600033000724887AA043063C2043887278210A
:100B70001940402904D1012410A8037A23430372A9
:100B80000023632A02D14A1E9141CBB210AA117AE6
:100B90008807C00F034301200340834000188143AE
:100BA0000B431372AAE60724887AA04304000220AC
:100BB000DBE707208A7A82431000032202438A720D
:100BC00078221340403B5A425341DBB2DEE7072014
:100BD0008A7A82431000032202438A7278221340E9
:100BE0005A1E9341F1E7012110AA137A0B431372A5
:100BF0000023CBE71A7A7F2A10D93400DB680393ED
:100C0000042310AA19420CD040CC002E0CDA022189
:100C1000537A8B4353720126764205E03400012358
:100C20007DE68B07F7D51669002510AA517A937ACD
:100C300049065B07090F5B0F0491D5601561012B15
:100C40003AD1C81E042821D8FFF7ECFB031919205C
:100C5000200008CC1360DB17536010AA137A03201E
:100C60001D000540034269D0079B089A0699059824
:100C700001F037FD002800DA4FE13F182CE607238A
:100C800007349C430CCC10921193E6E701CC10ABD7
:100C90001060C0175060049A012A05D1109AD2B290
:100CA000109200225A60D8E7049A022AD5D1002176
:100CB0005A5E1A60D217F5E7022B2ED1049BD81E7C
:100CC000042805D81500FFF7ADFB0E14141B1B00FC
:100CD00008CC28C2049B012B17D1109BDBB21093C8
:100CE00000231193B9E700232268201D0CC50400DE
:100CF000B3E70723E01D98430CC810921193F6E761
:100D000008CC136000235360E4E7049B022BA4D1BA
:100D1000109B09936B469B8CE1E7042B09D10720BC
:100D2000E31D83431C001868596808341060516043
:100D300093E7032B91D108CC13608EE7D07A782803
:100D400000D9C9E5622821D825283BD0582800D0F1
:100D5000C2E5109811991E2308AA9B18009312AAA5
:100D60000AAB01F072FC04901E2308AA9B1808939A
:100D7000002E3FDB4020049A9B1A10AA117A81436F
:100D800011729E4236D9F31A139333E06338152853
:100D900000D9A1E5FFF750FB65006F00A0FDA0FDA5
:100DA000A0FDA0FD6F00A0FDA0FDA0FDA0FD9C008A
:100DB00084008600A0FDA0FD2200A0FD8400A0FD0F
:100DC000A0FD84000699059B9847002800DAA4E05E
:100DD000013781E5FD87FFFF02400000109B04936F
:100DE000002E3ADB3100180001F0F5FC0025049BD1
:100DF0001B180893049B002B00D16DE5089B049AF7
:100E00009E1A2B005A1E9341F61810AB9B7ADA06F5
:100E100079D50236139A0992B6185B0601D5149B50
:100E2000F618039B002B00DC86E09B1B099310AB9C
:100E30001B7A5A07D60F002A00DABCE05B0600D402
:100E40006DE0002D07D028000699059B98470028E3
:100E500063DB35000137302662E0049801F0B3FC13
:100E6000C4E7109B0AA803700923002508AA049070
:100E70009B180893C2E72B251A0705D410221D00E2
:100E80001540134200D02025109A119B002B00DB47
:100E90005FE70021504299412D251090119158E7AC
:100EA000002556E7109810AD002827D01E2308AA69
:100EB0009B18009312AA0AAB002101F0C6FBEF2297
:100EC0006B8904901A40414B13436B8100254BE71B
:100ED0001368049A072A00D9FEE41000FFF7A2FA6B
:100EE0000C04060C08080C0C1F70F5E41F80F3E4DA
:100EF000FA171F605A60EFE41F60EDE4344B050001
:100F00000493344BB5E71A07D20FB61882E73000C6
:100F10000699059B9847002804DA17B0F0BD2026F3
:100F2000099B0393039A099B1100DB1901399B1A52
:100F30000391002AEBDC1F00002D06D02800069943
:100F4000059B98470028E8DB013710AB9B7ADA064F
:100F500001D41B0706D530200699059B9847002829
:100F6000DBDB013710AB9A7AD20606D5D87A069920
:100F7000059B98470028D0DB01373D00139EF319ED
:100F80005B1B002B1ADC089B049A0699059801F05C
:100F9000A8FB0028C1DB47193D00039B5B19DB1B45
:100FA000002B00DC98E420200699059B9847002838
:100FB000B3DB0137F1E7099B0393BDE730200699C6
:100FC000059B98470028A8DB0135D8E7107800007A
:100FD000862F00008B2F0000F0B589B0EFF310834F
:100FE00072B601930123002404AD2A0003AE73708E
:100FF000174B3470B47003CB03C2100082CB82C293
:10100000144F154B154AFA5000F064FD144B154A65
:1010100021001A602000320000F0B8FD22002100FB
:10102000022000F005FD280000F028FC0E490F4AC0
:101030007B581A408023DB0413437B50019BA3425F
:1010400002D162B6BFF36F8F002009B0F0BDC04679
:10105000742E0000007004404410000000000310D3
:1010600068F1FF1F00127A0004100000FFFFFFF379
:1010700088230021014A5B01D15070470070044071
:1010800043681968054B0A0CD218012389B28B40BA
:1010900010680343136000207047C046007004408E
:1010A000014910220A60704710ED00E0BFF34F8F36
:1010B00030BF62B6BFF36F8F7047C046030605D4DA
:1010C0001F2318401E3B8340014A13607047C046EF
:1010D00000E100E070B5FF26032532000540ED0079
:1010E000AA4089013140D243A94044B2C3B20006AC
:1010F0000AD4A308C0240A489B001B18A40018594E
:1011000002401143195170BD0F200340083B0548B0
:101110009B089B001B18D86902401143D961F2E774
:1011200000E100E000ED00E030BFFDE7084A0949BA
:10113000936809689866D966802307495B05486803
:1011400003434B6062B6BFF36F8F9368D86E7047EE
:1011500070F1FF1F5C2F000000ED00E013498A686A
:1011600013481044EFF3098CF0C043464C465546F3
:101170005E466746F8C072B60E4F0F4E8A698A60A7
:101180003E60906E00239366002800D162B6084C42
:1011900010191030F8C89846A146AA46B346BC4676
:1011A0002438F0C88CF309887047000070F1FF1FE5
:1011B0003000000004ED00E000000008042071464B
:1011C000014202D0EFF3098001D1EFF30880816979
:1011D000023909780229FFD001B501F0B0FA01BD4A
:1011E00010B5203A1360029B01245360039B06490B
:1011F0009360049BA143D36080235B04D3610023ED
:1012000091610265836610BD37260000064B986029
:10121000101C81F30988002162B6BFF36F8F002292
:10122000002301F008FAC04670F1FF1F01B5EFF38B
:1012300005800549401AC0000449014409C998477E
:1012400009BC9E460249084710000000182D000006
:1012500055120000044B99689869884202D00349EE
:10126000034A0A607047000070F1FF1F04ED00E0C0
:101270000000001070B51B4B0E005B6888B0DB05EA
:10128000DB0D62B6BFF36F8F0025140E2900FF2C13
:1012900009D1F33C1440082C05D001000135120798
:1012A00001D5310000250024032B06D18B69023BB8
:1012B0001A880D4B9A4200D10C682022684601F032
:1012C000A3FA079B002D0AD0DA0502D1074A13437F
:1012D00007936946200001F02EFA08B070BD5B0A42
:1012E0005B02F5E700ED00E002DF0000FF01000017
:1012F000EFF30880EFF3098101B57246FFF7BAFFFB
:1013000001BDC046F0B5C02400220326FF25A4007D
:1013100010002F003040C0008740054993089B0013
:101320005B1819590132B9431951202AF0D1F0BD87
:1013300000E100E072B6FFF79BFE0748074940183E
:1013400080F30988EFF314800221084380F31488A6
:10135000BFF36F8F01F006FAA8F6FF1F0008000028
:10136000084B10B59B68834209D1EFF30583002B2E
:1013700005D08023044A5B0551680B43536000F09D
:101380008FFF10BD70F1FF1F00ED00E0014B1860F2
:101390007047C04604F0FF1F023910B5012903D879
:1013A000034B1B68984710BD01204042FBE7C04635
:1013B00004F0FF1F0FB407B504AB04CB02210448AF
:1013C0000193FFF76FFA03B008BC04B01847C0469A
:1013D0003328000070B58025074CAD00A6682A00B0
:1013E00033680121200098472A0033680221200039
:1013F0009847002070BDC046702C0000054B0A0CB9
:10140000D218012389B28B40106803431360002077
:101410007047C0460070044001200B0C89B2884020
:10142000034A9B181A6882431A6000207047C0461E
:101430000070044009480A4B10B5186001F0FBFA2F
:10144000002808D0074C2000FFF7A0FF2000FFF77E
:1014500023FA002010BD13204042FBE7A02C00001F
:1014600030F1FF1F6914000070B50400074D0A2811
:1014700004D1286883680D215B68984728688368D1
:10148000E1B25B689847200070BDC04630F1FF1F95
:10149000406830B5436880681F2937D8C0251400DC
:1014A000AD002C40AC4208D0950706D480256D00D5
:1014B000AC4204D06D19AC421AD0862027E0012539
:1014C0008D405C69AC435C61D3061DD420231A4077
:1014D00053425A41012352429A4303328900411830
:1014E0000B680C48FF32034000201A430A6030BDED
:1014F00001248C40150503D55C605D692C43E2E74F
:101500005505FAD59C60F8E70422E7E7162040422B
:10151000EDE7C046FCF8FFFFF0B54568A8681F2955
:1015200035D88024A401A2422FD06C6801276469B9
:10153000CC4026003E403C4229D18024ED68E401A5
:10154000254227D0A2420FD180240822A402A34220
:1015500000D00432890041180B680F481204034080
:1015600000201A430A60F0BD80240922E402A3424D
:10157000F0D0C0240232E402A342EBD08024320037
:10158000A402A342E6D10A22E4E70022E2E7162001
:101590004042E8E78620FBE7FFFFF0FF0A4B30B54B
:1015A00099681868094A9C68094DC00301D4A14292
:1015B00004D211682868091811601B682B6810682C
:1015C000C018001B30BDC04610E000E064F1FF1FF2
:1015D00060F1FF1F70B5FFF7E1FF0C4B0C4A186874
:1015E00011680C4C401810609621002225681A6082
:1015F0004901401BFEF72AFF96235B0143435B1919
:10160000236000F085FFFFF725FE70BD64F1FF1F2A
:101610005CF1FF1F58F1FF1F0020094A136A1B02EB
:101620001B0A1362074A084B1A60084B1860084BE4
:101630005A600722986019680A431A607047C046CA
:1016400000ED00E0BF12000060F1FF1F64F1FF1F1A
:1016500010E000E0F0B50400364E374F85B00029A9
:101660000AD0431C08D10122336893433360FF231F
:101670001B063B6005B0F0BD3B680293631C32D192
:101680002E4C2E4B9C4233DCEFF3108372B6039347
:10169000FFF784FFB3680093294B1A68851800226E
:1016A0001D60284B1A60284B1B680193E81A904272
:1016B00020DA8023DB003B603A68B368013A72604D
:1016C0000022B260009A9A422FD294460298604457
:1016D000C01A45191A4B1D60039B002BCAD162B674
:1016E000BFF36F8FC6E7013C002CCADC0024CBE7B8
:1016F000164CC9E7962396215B015C43144B0019F5
:10170000C0184901FEF7A2FE96235B014343019AEC
:10171000501BC0188023DB00984204D90D4B98421F
:10172000C9D83860C8E71800FBE7009AD31A5D19DA
:10173000D0E7C04610E000E060F1FF1FA50D0000FB
:101740005CF1FF1F64F1FF1F58F1FF1FA60D0000A1
:10175000BF12000080E8FF0010B5EFF3108472B6EE
:10176000FFF71CFF074B084A1B6812689B1A1818E2
:10177000002C02D162B6BFF36F8F96214901FEF7AC
:1017800065FE10BD5CF1FF1F58F1FF1F10B5EFF3B0
:10179000108472B6FFF702FF044B1B68C018002CC0
:1017A00002D162B6BFF36F8F10BDC0465CF1FF1F60
:1017B00010B50F4A9379DB0617D40E4B1868002832
:1017C0000CD0137852789B065B0F9206D840920F8C
:1017D00004D0062B03D0072B05D0400910BD1421DF
:1017E000FEF734FEFAE70C21FAE7034B1868F5E739
:1017F0000040064068F1FF1F0CF0FF1F064B9A796E
:10180000D20702D4054B186870471B7A044A1B079D
:1018100010685B0FD840F7E7004006400CF0FF1F50
:1018200008F0FF1F0020044B1B785BB2834201DAF3
:10183000024B18687047C0460050064068F1FF1F11
:101840000C4B10B51C682403A40F022C0CD0032CE5
:101850000DD00020844206D1FFF7E4FF80231B0255
:10186000984200D0200010BD034B1868FBE7FA2017
:101870008000F8E7007004406CF1FF1F30B5802550
:101880000C4A41680C4B0D4CD15003786D021B047F
:1018900011592B400A4D29400B4313514378C02066
:1018A0009B04000311680340064801400B4313608A
:1018B00030BDC04600700440441000000410000019
:1018C000FFFFFEFFFFFFF3FF10B50C4C63789B0793
:1018D00001D5002010BDA3799B06FAD4FFF768FF5D
:1018E0000028F6D0E378E1785B069B0FC9095B001E
:1018F000034A5B185B009B5A5843EBE700400640E5
:10190000602F0000044B00201B7810B59B0701D509
:10191000FFF774FF10BDC0460040064070B50A4C8A
:101920004023A279100018401A420BD01F252179BC
:10193000064B294018680131FEF788FD63792B407A
:101940001833584370BDC0460040064068F1FF1F81
:10195000064A074B10B5D358DB0302D4FFF7B4FF98
:1019600010BDFFF7DBFF4008FAE7C04600700440F7
:101970000410000010B50B4B9B791B079B0F022B2B
:101980000CD0032B04D0012B05D1FFF737FF01E06A
:10199000FFF7C4FF10BDFFF797FFFBE7024B186886
:1019A000F8E7C0460040064068F1FF1F70B50D28FB
:1019B00008D8FEF737FD090913071320233226291B
:1019C0002C2F0735002070BDFFF7D4FF164A174BA8
:1019D000D158090F0131FEF739FDF4E7124D134CD0
:1019E000FFF7C8FF2959090F0131FEF72FFD2959CB
:1019F0004903490FEEE7FFF7ABFFE4E7FFF720FFEE
:101A0000E1E700F0FEFFDEE7FFF77CFFDBE7FFF733
:101A10005BFFD8E7FFF782FFD5E7FFF703FFD2E7C9
:101A2000FA208000CFE7C046007004404410000058
:101A300070B51B4B9C799E791D7A24072D07A40F46
:101A4000F6B26D0F954215D0F5070BD5012C02D0DB
:101A50001D78AD0706D501265D78B5435D709D798B
:101A60003542FCD10E261D7A520032402136B54354
:101A70002A431A7201255A78AA430D402A430325A6
:101A80005A701A78AA4302431A70012C01D08207B7
:101A900004D501209A7902408A42FBD1002070BD12
:101AA0000040064010B51F244278094B22401A71AD
:101AB00059798278A14322400A435A7101781A79F0
:101AC0000A4340210A431A719A790A42FCD010BD98
:101AD0000040064002681549002330B58A4204D907
:101AE000134B93429B415B4201330F2411493C2528
:101AF0000A781B01A243047922435F240A700A7802
:101B00002240847922430C4C0A7062784079AA43BF
:101B1000024313436370002807D00B785BB2002B9D
:101B200003DA0223A2791A42FCD030BD9798000054
:101B300000127A00005006400040064002220800D1
:101B400010B5114C63789343637023783932134096
:101B5000453213432370643AA3791340082BFBD119
:101B600040226379934363712023A2791A42FCD106
:101B7000FFF798FF40236279134363712023A27912
:101B80001A42FCD0002010BD00400640080010B5ED
:101B90001100FFF7D3FF3F21054A13780B40137064
:101BA0003C3993799B080B40032BFAD1002010BDE0
:101BB00000400640F0B50E6889B0B30005930423D9
:101BC0000093002304000F000692049603930293EF
:101BD00005990698FEF73AFC80B2051C002800D152
:101BE00001250099ADB269430698FEF72FFC0099D4
:101BF000831B01936B1C594306980793FEF726FC41
:101C0000019B301A984202D26B469D8B0190019B3A
:101C1000049A934203D80493009B02950393009B7C
:101C200001330093059B9B190593009B212BCFD17A
:101C300064213000FEF70AFC03234343049A9342D5
:101C400048D38023244ADB0011680B4313600C2225
:101C5000E3789343E370039B043B032B03D80223F5
:101C6000E27A1343E3721F22A37A03999343013963
:101C70000B43DBB2A372A37A93431A00029B1B0AA5
:101C80001343DBB223706B4613221B7A6370A37875
:101C900093433A79002A02D01343102213432021A0
:101CA000A37022788A4322707B7922785B010B40F3
:101CB00013432370E378BA79DBB2002A01D00822FB
:101CC0001343FA79002A01D0042213430020E37061
:101CD00009B0F0BD0148FBE734800440B5040000C2
:101CE00082B06B46DA1D0023137013780133DBB228
:101CF00013700B0403D5802343710B4B19404B0425
:101D000003D540234371094B19401F230A001A4091
:101D1000194202D0D2B2027199434B1E99414842F6
:101D20000349084002B07047FF7FFFFFFFBFFFFF7E
:101D3000B4040000F8B50F4F8300DD590130840072
:101D40003B59AB4200D8F8BD6E682B68300098470D
:101D5000002E0DD0F368002806D0C217801850401E
:101D6000FF2800DDFF20187001215A780A435A70BD
:101D70000835E5E7482F000030B570240F4944438B
:101D8000030259180E4B01251C190023802287B02D
:101D9000059302930193183343430A480495C018EE
:101DA0000E350090084B20000395520000F094F887
:101DB0000422637B9343637307B030BDA8F5FF1F14
:101DC00048F0FF1F70F1FF1F892A000010B50124A1
:101DD000094B02201C70FFF7ADFF00F0DBFE032073
:101DE000FFF7A8FF00F0A2F8FEF700FD034A137BFF
:101DF000A343137310BDC046A4F1FF1FB8F0FF1F2B
:101E000010B50348034A0021121A00F006FD10BD68
:101E100048F0FF1FA8F1FF1F8022F0B5254B1201EB
:101E2000A5B09B18069383F308882349234A0B6ABD
:101E300000251A40C0231B0413430B6200F09DFCD5
:101E4000FFF72EF902221E4E08ABFF329A81B360D3
:101E500000F0F0FD0020FFF76DFF0120FFF76AFFA3
:101E600000F00AFA174C184BB46180220593012345
:101E7000164F17490493D2003B00200003950295AA
:101E80000195009500F028F804220790637B20005C
:101E90009343637300F02DFE2800FFF76DFF0D4B99
:101EA0003A00F360069B2000079935757360FFF7D1
:101EB000ADF9C046A8F6FF1F00ED00E0FFFF00FFF0
:101EC00070F1FF1FB8F0FF1F06300000CD1D0000AD
:101ED000A8F1FF1F48F0FF1F7FB50400D51D0722A2
:101EE0005830A065E0650C980026207304209543C7
:101EF0000A9A60730292099A0B980192089A4D19F6
:101F0000A073009220002A00A660E673A661E66135
:101F1000FFF766F9044B66659B68B34200D05B6EC1
:101F20002800636604B070BD70F1FF1F70B5204CCF
:101F300086B026001F4DAC4208D300F08BF8340069
:101F4000AC4219D300F082F906B070BDE36A059384
:101F5000236A0493E3690393A3690293636901937A
:101F600023690093E368A26861682068FFF7B4FF03
:101F700023685C653034DDE7606A431C0FD0C343DF
:101F8000DB1718400A220023C117FEF729FB266839
:101F90000B000200014304D1300000F03DF9303461
:101FA000CEE730000449183000F03AFAF7E7C046AF
:101FB00044F0FF1F44F0FF1F0B2B000010B5074C2F
:101FC0002368002B09D0FFF7C7FB03002068044AF1
:101FD000C3180021136100F0C7FD10BD9CF1FF1F65
:101FE00070F1FF1F10B5EFF3108472B600220B4B97
:101FF0001A610A230A4A434300280ADC1360094B8A
:102000001960FFF7DBFF002C02D162B6BFF36F8FC0
:1020100010BD022BF2DA0223F0E7C04670F1FF1F79
:102020009CF1FF1F98F1FF1F10B500290AD1EFF3B3
:102030000580002807D1064B9A699B689A4202D016
:10204000FFF774F810BD62B6BFF36F8FFAE7C046B2
:1020500070F1FF1FEFF3108172B6054B9A68D37BC6
:10206000013BD373002902D162B6BFF36F8F704773
:1020700070F1FF1F70B506000D4800F034FD0D4DE6
:10208000041E00D1EC68AB68002E0AD15A7BD20640
:1020900007D1A269002A04D1DA897F2A01D9AB616C
:1020A00070BD9C4201D0FFF789FFAC61F8E7C046E4
:1020B0008CF1FF1F70F1FF1F0D2270B582560400D6
:1020C000437B002A04DA7F221340437300F0E3FCD1
:1020D0008023627B5B421343134A6373D369134DBE
:1020E000106AAB421BD0002B19D00E26A6570E212A
:1020F00059568E420ED0891B00290BDD596823608A
:1021000061600C605C609068001B43425841FFF7BF
:10211000B1FF70BD834202D01B68002BE7D1256060
:10212000606004601462EEE770F1FF1F8CF1FF1F26
:10213000010070B5EFF3108472B6174B174A986818
:102140001568A84207D1FFF739FF002C02D162B60B
:10215000BFF36F8F70BD00251560114A1268AA4247
:1021600017D0C2897F2A14D8427BD20611D10E25FE
:102170000C4A4557126895420BDB0B4A904208D037
:102180001A698A4202DCFFF797FFDCE7521A1A61EC
:10219000DBE70022FBE7C04670F1FF1F94F1FF1F51
:1021A0009CF1FF1F98F1FF1F48F0FF1F0D2370B532
:1021B000C356427B002B20DBD3061ED18369002B44
:1021C0001BD1803B124913434373CB69114D0C6AF9
:1021D000AB4218D0002B16D00E2686570E229A56E8
:1021E00096420BD0921B002A08DD5A6803604260B9
:1021F000106058600020FFF73DFF70BDA34202D081
:102200001B68002BEAD10560446020600862F1E79A
:1022100070F1FF1F8CF1FF1F10B5EFF3108472B641
:102220000422437B134205D1002C02D162B6BFF3D6
:102230006F8F10BD93434373FFF7B8FF210002482F
:10224000FFF7F2FEF5E7C046A5F1FF1F10B5EFF36B
:10225000108472B6074B00209A68D37B0133D37386
:10226000FFF708FF002C02D162B6BFF36F8F00F0BA
:1022700033FC10BD70F1FF1F002110B5034B044A61
:102280000800DA611A62FFF7ADFE10BD70F1FF1FA2
:102290008CF1FF1F014B98687047C04670F1FF1F1B
:1022A00070B50400EFF3108672B60823427B1A4221
:1022B00005D0002E02D162B6BFF36F8F70BD202112
:1022C000100088430100194348B2002820DB6173E5
:1022D000A368002B02D0200000F0E5FB200018309E
:1022E00000F02FFC2300A56D58339D4201D0002D36
:1022F00016D10120FFF7BEFE104B9B68A342D8D138
:10230000EFF30583002BD4D13000FEF70FFFD0E7A9
:102310005F210A4013432000637300F0BCFBD7E742
:10232000280000F0C0FB2800183000F00AFC002351
:102330002800EB66FFF73AFFD4E7C04670F1FF1FB5
:1023400010B50648064A0749121A00F05DFA064A17
:102350000649074800F058FA10BDC04600F0FF1FBC
:1023600044F0FF1F0C300000000000000C300000A3
:1023700000F0FF1F0020044B10B51B68834201D101
:10238000FFF7EAF910BDC046A0F1FF1F134BD0B50F
:102390001C689C4200D10024FFF7ECFF002C12D0F7
:1023A000226963690600C717921BBB41002B02DC40
:1023B00012D1002A10D01000002B04DC04D180239D
:1023C0001B069A4200D30648064B1B69002B02D01D
:1023D000984200DD1800D0BD0020F5E710F0FF1F87
:1023E000FFFFFF7F70F1FF1F30B5036800280DD09D
:1023F0000A4A5268904209D0002B07D01C695D69D7
:1024000001694269641855411C615D61426813604D
:102410005A6000230360436030BDC04610F0FF1FC8
:10242000F7B5040016001F00531C01D17B1C67D0B8
:10243000A160EFF3108372B602204042C1170193EE
:1024400002000B00921BBB41002B1BDB2D4B1A68BB
:102450005B68801A9941801BB94102000B1E05DCA4
:10246000002901D1002801D10122002322616361EA
:10247000254F3D687E68BD4218D127606660346094
:102480007C6027E0FFF776FF01220023B6185F414A
:102490000200C317B6185F4126616761E8E7121AA8
:1024A0008B4122616361AE42E7D02D68002DE4D0FC
:1024B0002869696922696369994202DCEFD1904217
:1024C000EDD9801A99416B68286169616360256064
:1024D0001C606C603B68BB420CD09C420AD1FFF789
:1024E00055FF002803D0094B1B69834202D000210D
:1024F000FFF7B0F8019B002B02D162B6BFF36F8FDC
:10250000F7BDC04628F1FF1F10F0FF1F70F1FF1F3D
:10251000F0B58BB00400FFF70BFEEFF3108372B63B
:102520000593324B1C60324B3248304D1C680168B9
:1025300042680691079229689C4219D0002C17D056
:102540002269636900920193019ACB170291039368
:102550009A4203DC23D1009A8A4220D9029A039B33
:10256000009E019FB61A9F4132003B0022616361C9
:10257000069E079F0A00CB17B6185F41002406602D
:1025800047602C60FFF702FF2100FFF763F8059B0F
:10259000A34202D162B6BFF36F8F0BB0F0BD009BB8
:1025A000069E079F0893DB170993089A099BB618A4
:1025B0005F41104B20001E605F60009BCA1A0B4BEE
:1025C0001A600023002222616361FFF70DFF059B63
:1025D000002B02D162B6BFF36F8F2000A36898472B
:1025E000EFF3108372B605939DE7C046A0F1FF1F7D
:1025F00010F0FF1F28F1FF1F70B5041E12D0FFF767
:10260000C5F80023084A050000212000FDF7E8FF77
:102610000023064AFDF7C4FF0400FFF7B7F8401B8C
:10262000A042FAD370BDC046006CDC0240420F00ED
:1026300070470020704710B50400080011001A0010
:10264000A047FFF727FEFEF78BFEF0B585B001909F
:102650000393D37815001A00413A0F000824029220
:102660006F2B0AD004D80234582B06D1063404E06C
:1026700008220A249343702BF8D00A9E22000023DC
:1026800039000198FDF78CFF13008C46D2B2092B5C
:1026900019D813003033DBB2013E33700023BB4244
:1026A00002D1019B9C4202D8039B9E4208D82B7802
:1026B0009B0613D5082C0FD1AB781C43AC700DE0F2
:1026C00067460190DAE7130002995733DBB2192904
:1026D000E2D83732D3B2DFE7102CEDD0300005B0AE
:1026E000F0BDF7B50F0015001E0014000190601B2F
:1026F000A64204D8002E09D12378002B06D02078DA
:102700003900019B984701340028F0DAFEBD70477C
:10271000436889005B680020CA507047436889009D
:102720005B680020CB58136070478620404270479A
:1027300086204042704710B500F090F910BD10B5EA
:102740000100006800F08AF910BD10B500210120D9
:10275000FFF7F1FF10BD10B5FEF7E6FCFEF77AFDBE
:1027600010BD704710B5FFF7FCFFFFF749FBFFF7FF
:10277000E7FDFEF7C7FDFFF74FFB7047030030B5DD
:102780001A78202A0DD011000939042909D92B2AD9
:1027900009D000212D2A01D10133013100200A2561
:1027A00008E00133ECE700210133F7E768433030FC
:1027B0000133801A1A781400303C092CF6D900290C
:1027C00000D1404230BD030000201A5C002A00D135
:1027D00070470130F9E7030000201A5C002A01D09D
:1027E000884200D170470130F7E730B50500101E70
:1027F00009D00024013A2B5D085DA24202D00134C9
:102800008342F8D0181A30BD002310B59A4200D187
:1028100010BDCC5CC4540133F8E70300C9B2821880
:10282000934200D1704719700133F9E7012040420B
:10283000704710B5FEF7B0FD10BD0020704710B511
:102840000D201400132900D0C8B2FFF7AFF82060A4
:10285000002010BD436800205B681B690B60704757
:1028600043685B681868424011404140196000208D
:102870007047436800205B685960704743680020D8
:102880005B6899607047436800205B68D960704757
:10289000036930B558680024002804D1002A1AD1F1
:1028A000002030BD280081420FD108689D68002CAF
:1028B00006D158608D4200D1986000200860EDE795
:1028C00020608D42F9D19C60F7E705680400002D77
:1028D000E8D1002A07D05A6898680A605960002831
:1028E000DED19960DDE716204042DAE7002070472C
:1028F00010B5002202211E20FEF7ECFB1E20FEF781
:10290000DDFB002010BD10B5002202211F20FEF7C4
:10291000E1FB1F20FEF7D2FB002010BD43680269D7
:102920009B6870B5A0331E68516804001E600029C2
:102930000DD00D688B681A003240334202D020005F
:102940004B689847002D02D029002D68F2E770BD32
:1029500070B50C0080264568286800F066F83042A3
:10296000FAD02B68DC7170BD70B545680C00286822
:1029700000F05BF8830604D500202B68DB79237018
:1029800070BD01204042FBE770B54568286800F043
:102990004CF80122C40802231440104200D01C430A
:1029A000184201D004231C4328680B21FFF798F933
:1029B000200070BD7FB545686C68AE68200000F0EF
:1029C0003AF8002804D116246442200004B070BDF7
:1029D000A368DB68002BF6D02000310001AA9847DD
:1029E000041EF0D102AE300000F019F80223FF33CC
:1029F000F380EB683100019A28680293FFF7DAF858
:102A0000E3E710B5FEF7D4FE041E02D10024200037
:102A100010BDFEF7AFFFC008A042F7D3F7E7E123F0
:102A20005B02036000234360704703794079000232
:102A3000184370477047002808D0C3681888C0053D
:102A4000C00D0138FF3843425841C0B27047EFF320
:102A5000108372B6FEE710B5FFF7F9FFF8B5050071
:102A60000E00EFF3108772B6FFF714FC310004007C
:102A70002800FFF7F0FF002F02D162B6BFF36F8F7F
:102A80002000FEF76DFCF8BD10B5EFF3108372B6B1
:102A9000FEF70CFBF9E70368426813605A600023F5
:102AA00003604360704710B50400FFF7F4FF022293
:102AB000637B934363730023A36010BD10B50028AC
:102AC00005D1EFF30580002802D1FEF72FFB10BDE2
:102AD00062B6BFF36F8FFAE710B5EFF3108072B6EE
:102AE000FFF7ECFF10BD03000068834200D1002017
:102AF000704710B5EFF3108472B6FFF757FB002C48
:102B000002D162B6BFF36F8F10BD183870B50400E4
:102B1000EFF3108572B62823427B1A420BD18368EB
:102B2000002B01D0FFF7BFFF1422637B20009343EB
:102B30006373FFF73BFB002D02D162B6BFF36F8FCB
:102B400070BD10B5EFF3108472B60368002B08D087
:102B5000FFF74AFC0020002C02D162B6BFF36F8F52
:102B600010BD16204042F6E770B504000D00EFF3EB
:102B7000108672B6FFF70AFC012805DDA04203DBD0
:102B800029002000FEF766FD002E02D162B6BFF3D9
:062B90006F8F70BD70475D
:022B9600FFFF3F
:082B9800A4DAFF7F0100000038
:102BA000D90F00000000000081100000102C000070
:102BB00081100000282C000081100000402C000033
:102BC00081100000582C000081100000702C0000C3
:102BD000D5130000000000003B280000882C0000F6
:102BE000B5290000A02C000019160000B82C000028
:102BF00007290000D02C0000ED280000E82C000080
:102C0000F1280000002D0000351400000000000035
:102C10008C2F0000A42E0000AC2E000018F0FF1F27
:102C2000000000006C2E00009C2F00009C2E000075
:102C3000AC2E00001CF0FF1F00000000642E0000FE
:102C4000AC2F0000942E0000AC2E000020F0FF1FDF
:102C5000000000005C2E0000BC2F00008C2E000045
:102C6000AC2E000024F0FF1F00000000542E0000D6
:102C7000CC2F0000842E0000AC2E000028F0FF1F97
:102C8000000000004C2E0000DC2F000000000000BF
:102C9000BC2E00002CF0FF1F00000000462E00009C
:102CA000F52F0000242F0000342F00003CF0FF1F00
:102CB000A4F1FF1F382E0000FC2F000000000000D0
:102CC0000000000040F0FF1F00000000342E000054
:102CD000E02F0000142F0000D02E000030F0FF1F66
:102CE0004CF1FF1F2A2E0000E72F0000042F0000E8
:102CF000D02E000034F0FF1F40F1FF1F222E0000F5
:102D0000EE2F0000F42E0000D02E000038F0FF1F40
:082D100034F1FF1F182E000032
:102D1800000000004B270000000000004B270000C7
:102D2800000000004B270000000000004B270000B7
:102D3800000000004B270000000000004B270000A7
:102D4800000000004B270000000000004B27000097
:102D5800000000004B270000000000004B27000087
:102D6800000000004B270000000000004B27000077
:102D7800000000004B270000000000004B27000067
:102D8800000000004B270000000000004B27000057
:102D9800000000004B270000000000004B27000047
:102DA800000000004B270000000000004B27000037
:102DB800000000004B270000000000004B27000027
:102DC800000000004B270000000000004B27000017
:102DD800000000004B270000000000004B27000007
:102DE800000000004B270000000000004B270000F7
:102DF800000000004B270000000000004B270000E7
:102E0800002D00001D290000D02C00001D29000005
:102E18000500FF7FFF7FFF7FFF7F0400FF7FFF7FAD
:102E2800FF7F0200FF7FFF7FFF7FFF7FFF7FFF7F26
:102E380005000600FF7FFF7FFF7FFF7FFF7FFF7F8B
:102E4800FF7FFF7F0600FF7FFF7FFF7F0600FF7F7A
:102E5800FF7FFF7F0600FF7FFF7FFF7F0600FF7F6A
:0C2E6800FF7FFF7F0600FF7FFF7FFF7FE2
:102E7400010300000000011000127A000004800029
:102E840009003810009004400A00381000A00440E3
:102E94000B00381000B004400C00381000C004408F
:102EA4000D00381000D00440112700001D27000039
:102EB4002B27000031270000FD1300001914000027
:102EC400000000003F2800000000000091140000F2
:102ED4005528000061280000732800007D280000A8
:102EE4008728000019150000912800000000000048
:102EF400FFFFFFFF00F00F4000900440004000007F
:102F0400FFFFFFFF40F00F4000A00440000000005E
:102F1400FFFFFFFFC0F00F4000C00440004000006E
:102F240000A00640882C00000000000000C2010040
:102F340069290000512900008929000000000000CF
:102F440000000000A02B0000E82B0000F02B000084
:102F5400102C0000102C0000F5FFFFFF8002DC02A3
:102F64000005B80580079508000A710B7B696E6936
:102F7400747D00626175643A007B6368616E6765A5
:102F84007D00286E696C290070696E6D7578403417
:102F9400303034643030300070696E6D7578403490
:102FA400303034633030300070696E6D7578403481
:102FB400303034623030300070696E6D7578403472
:102FC400303034613030300070696E6D7578403463
:102FD400303034393030300053494D004750494F78
:102FE4005F33004750494F5F31004750494F5F30CE
:102FF40000554152545F30007379735F636C6F63A3
:083004006B006D61696E0000B4
:10300C00332600002D28000000093D000080000040
:08301C0010F0FF1F10F0FF1F70
:10302400000000000000000000000000000000009C
:10303400000000000000000000000000000000008C
:0C30440000000000000000000000000080
:0400000300001335B1
:00000001FF
