:10000000600600209D100000BF2500007110000058
:10001000711000007110000071100000000000005D
:10002000000000000000000000000000A50D00001E
:100030007110000000000000510D00008515000047
:10004000550E0000550E0000550E0000550E000024
:10005000550E0000550E0000550E0000550E000014
:10006000550E0000550E0000550E0000550E000004
:10007000550E0000550E0000550E0000550E0000F4
:10008000550E0000550E0000550E0000550E0000E4
:10009000550E0000550E0000550E0000550E0000D4
:1000A000550E0000550E0000550E0000550E0000C4
:1000B000550E0000550E0000550E0000550E0000B4
:1000C000550E0000550E0000550E0000550E0000A4
:1000D000550E0000550E0000550E0000550E000094
:1000E00053B94AB9002908BF00281CBF4FF0FF319F
:1000F0004FF0FF3000F074B9ADF1080C6DE904CE9B
:1001000000F006F8DDF804E0DDE9022304B07047F2
:100110002DE9F047089E0D4604468846002B4DD138
:100120008A42944668D9B2FA82F252B101FA02F3D5
:10013000C2F1200120FA01F10CFA02FC41EA0308A5
:1001400094404FEA1C45210CB8FBF5FE1FFA8CF7D2
:1001500005FB1E8341EA03430EFB07F199420BD9CD
:100160001CEB03030EF1FF3080F01E81994240F238
:100170001B81AEF1020E63445B1AA4B2B3FBF5F02F
:1001800005FB103344EA034400FB07F7A7420AD9F2
:100190001CEB040400F1FF3380F00881A74240F219
:1001A000058164440238E41B40EA0E4000211EB180
:1001B000D4400023C6E90043BDE8F0878B4208D94C
:1001C000002E00F0EE800021C6E900050846BDE8DB
:1001D000F087B3FA83F100294AD1AB4202D38242BD
:1001E00000F2F980841A65EB030301209846002E83
:1001F000E2D0C6E90048DFE702B9FFDEB2FA82F2D8
:10020000002A40F09180A1EB0C054FEA1C471FFA31
:100210008CFE0121B5FBF7F307FB1350250C45EAD3
:1002200000450EFB03F0A84208D91CEB050503F1BD
:10023000FF3802D2A84200F2CB8043462D1AA4B266
:10024000B5FBF7F007FB105544EA05440EFB00FE32
:10025000A64508D91CEB040400F1FF3502D2A645DF
:1002600000F2BB802846A4EB0E0440EA03409EE760
:10027000C1F120078B4022FA07FC4CEA030C20FA5C
:1002800007F405FA01F31C43FD404FEA1C4900FA4C
:1002900001F3B5FBF9F8200C1FFA8CFE09FB185589
:1002A00040EA054508FB0EF0A84202FA01F20BD91C
:1002B0001CEB050508F1FF3A80F08880A84240F267
:1002C0008580A8F1020865442D1AA4B2B5FBF9F0A7
:1002D00009FB105544EA054500FB0EFEAE4508D962
:1002E0001CEB050500F1FF346CD2AE456AD902382B
:1002F000654440EA0840A0FB0294A5EB0E05A54228
:10030000C846A64656D353D05EB1B3EB080265EBA0
:100310000E0505FA07F722FA01F3CD401F43C6E99F
:1003200000750021BDE8F087C2F1200320FA03F137
:100330000CFA02FC25FA03F395400D434FEA1C47E3
:100340001FFA8CFEB3FBF7F107FB11302B0C43EACD
:10035000004301FB0EF0984204FA02F408D91CEBAA
:10036000030301F1FF382FD298422DD9023963449B
:100370001B1AADB2B3FBF7F007FB103345EA034598
:1003800000FB0EF3AB4208D91CEB050500F1FF386A
:1003900016D2AB4214D902386544ED1A40EA014145
:1003A00038E73146304607E78646E5E61846FAE67E
:1003B0004B45A9D2B9EB020864EB0C0E0138A3E758
:1003C0004046EAE7204694E74146D1E7D0467BE73E
:1003D000023B654432E7084609E76444023842E7D5
:1003E000704700BF00ED00E0000800400408004036
:1003F00008080040FF0F240C2DE9F04395B0284D6C
:10040000AB681B6913B102A9284698472548244EBA
:10041000DFF89480DFF8949000F042FF0024AF688A
:100420003B68002BFCD00DF10701304698470028AF
:10043000F6D19DF80700022102F026F99DF8073059
:100440007B2B03D100248DF81040E8E77D2B1ED1D3
:100450000522414604A802F0EFF80028DFD10DF193
:10046000150002F0B3F8041EECDD4FF47A7002F0D0
:1004700007F80294FB6813B102A9304698474FF47D
:100480007A7001F0FDFF484600F00AFFDAE73E2CE3
:10049000C5D804F150026A44013402F8403CBEE77A
:1004A000B03000000C340000133400001934000098
:1004B000014B1860704700BF000000202DE9F04F8D
:1004C00091B08B46029092461C4600259AF8000097
:1004D00008B928465FE325280AF1010707D0029BE7
:1004E000594698470028C0F25683013512E2182277
:1004F00000210AA802F0BCF89AF80130252B78D028
:1005000000221046964694461646394617F8013B97
:100510002B2B00F09D8000F29480202B00F09B801C
:10052000232B00F09B802EB19DF8306046F004062E
:100530008DF83060BCF1000F05D09DF8306046F0BA
:1005400008068DF83060BEF1000F05D09DF83060D0
:1005500046F010068DF8306028B19DF8300040F06C
:1005600020008DF830002AB19DF8302042F0400282
:100570008DF830209DF8302002F04400442803D14B
:100580006FF386128DF830209DF830202A2B42F030
:1005900080028DF830207BD19DF8312042F001029D
:1005A0004B1C8DF831201A782E2A9DF831200CBF73
:1005B0000121002161F341028DF8312074D15A7874
:1005C0002A2A6AD0013300210A26184610F8012B86
:1005D000A2F13007092F40F28E809DF830200E9155
:1005E000C2F3400040EAD17161F341028DF830203E
:1005F0005AE00AF102078DF833309DF83130D907FF
:1006000040F1498154F8049BB9F1000F07DA9DF8D5
:10061000302042F004028DF83020C9F100095A0759
:1006200040F1428154F8048BB8F1000F80F241810F
:100630009DF831306FF341038DF831304FF0FF38C2
:1006400037E12D2B0CD0302B7FF46DAF01225CE70E
:100650004FF0010C59E74FF0010E56E7012054E727
:10066000012652E70CFB0202303A33461E4616F8CA
:10067000010BA0F13007092FF4D9994293D09DF8CE
:1006800030100D92D20F62F341018DF830108AE7DD
:100690000B4600224FF00A0CE8E79DF8312042F0AB
:1006A00004028DF8312002331F4617F8012B6C2A03
:1006B00041D025D8682A2BD06A2A46D04C2A4CD063
:1006C0001F4617F8012B9DF831308DF83320782A1A
:1006D00000F2D980572A4DD8412A03D0453A022A40
:1006E00000F2D1809DF83230042262F302038DF8CB
:1006F000323001239EE006FB01213039034664E7D6
:10070000742A26D07A2ADBD19DF8313006220DE0FA
:100710005A78682A9DF8312006D1012161F3C6027A
:100720008DF831209F1CCCE71346022262F3C603EA
:100730008DF83130C5E75A786C2A9DF8312001D107
:100740000421EBE713460322F0E79DF83130052240
:10075000ECE79DF831300722E8E7BDF8303023F4AC
:10076000F04323F0020343F4804343F00203ADF867
:100770003030A6E7A2F15801202900F2848001A0C0
:1007800050F821F0490800008708000087080000A1
:10079000870800008708000087080000870800001D
:1007A0008708000087080000E506000087080000B1
:1007B0004908000009080000E5060000E506000001
:1007C000E50600008708000009080000870800000F
:1007D0008708000087080000870800005108000013
:1007E000490800006D080000870800008708000025
:1007F0006D08000087080000490800008708000015
:1008000087080000490800009DF83210012003F01D
:10081000780360F30201402B8DF8321002BF9DF87F
:10082000301041F001018DF83010632A31D1003BC6
:1008300018BF01239DF83020C2F340010B4363F33E
:1008400041028DF83020D8E69DF832100220DEE714
:100850009DF8322003F07803A3F14000032161F3F7
:10086000020243428DF832204341E3E79DF83220F3
:10087000032113F0780F61F302028DF8322014BFC8
:1008800001230023D6E79DF8303043F001038DF8B3
:1008900030300023CEE79DF93020002AB4BFDDF8C8
:1008A00034904FF0FF39BAE69B077FF5C7AEDDF80D
:1008B00038809DF831100023CDE90D339DF832309A
:1008C00003F00703012BC1F3C30138D1CB1E042B66
:1008D00022D8DFE803F003090921210054F8043B82
:1008E000DA17CDE90A3206E0073424F00704F4E809
:1008F0000223CDE90A239DF8303013F0030656D0C9
:1009000002983B465246594601F025FE0028C0F2A7
:1009100042810544BA46D9E554F8043B01294FEA1F
:10092000E372CDE90A3205D19DF828300A930023FD
:100930000B93E0E70229DED1BDF92830D0E7022B86
:1009400023D1CB1E042B13D8DFE803F0030A0A12CD
:10095000120022680A920023201D0B930446CAE766
:10096000E01D20F00700F0E80223CDE90A23F5E7B7
:1009700054F8043B0A9301294FF000030B93D3D0A2
:100980000229B8D1BDF82830D0E7042B09D1E31DE6
:1009900023F0070303F10804D3E90023CDE90A2378
:1009A000A9E7032B04BF54F8043B0A93A3E79DF87F
:1009B00033007828AED8622822D825283FF48FAD9E
:1009C0005828A7D10DF126030093DDE90A0104ABF5
:1009D0000CAA01F07AFD8246B8F1000F0DF1260055
:1009E0000CDB9DF83020A0EB0A036FF386129845CC
:1009F0008DF8302002D9A8EB03030D9380463DE02B
:100A00006338152886D801A252F820F08D0A00001C
:100A1000F10A000015090000150900001509000081
:100A200015090000F10A0000150900001509000071
:100A300015090000150900004B0B0000190B000000
:100A40001D0B00001509000015090000650A0000D3
:100A500015090000190B0000150900001509000018
:100A6000190B0000B8F1000FDDF828A00ADB4146A1
:100A7000504601F0D8FD0AEB00080026BAF1000F3D
:100A80000CD147E7504601F0C7FDF4E70A9B8DF80B
:100A9000103000260DF1100A0DF11108A8EB0A0321
:100AA00006B101339DF83220D00668D502335206D4
:100AB0000D9948BF0E9A0B4448BF9B18B9F1000F1F
:100AC00076DD9DF83020A9EB0309C2F38003039380
:100AD00053076DD4500661D546B1029B5946304646
:100AE0009847002857DB039B01351E46302356E00C
:100AF0001E070FD413F0100618BF2026DDE90A23C5
:100B0000002BBFF65FAF524263EB4303CDE90A23EC
:100B10002D2657E72B26F1E7002653E70A9840B326
:100B20000DF1260300930CAA04AB002101F0CDFCCB
:100B3000BDF8323003F0EF0343F4F04343F0100309
:100B40008246ADF83230002646E70A9B07293FF679
:100B5000E1AEDFE801F00C04060C08080C0C1D7077
:100B6000D8E61D80D6E6EA17C3E90052D2E61D603A
:100B7000D0E6DFF8C8A006460AF105088EE711079F
:100B800048BF013393E7184603935946029B9847A1
:100B90000028039B04DA11B0BDE8F08F20234D44F8
:100BA0004A46002AA5EB090109F1FF39EBDC0D46A5
:100BB00036B1029B5946304698470028EBDB013599
:100BC0009DF83230D90601D41A0706D5029B594642
:100BD000302098470028DEDB01359DF83230DB06F7
:100BE00007D59DF83300029B594698470028D2DB71
:100BF00001350D9E2E44731B002B16DC02984346D4
:100C00005246594601F0A7FC0028C4DB0544A9441C
:100C1000A9EB0503002B7FF77DAE029B59462020F0
:100C200098470028B7DB0135F2E7029B5946302090
:100C300098470028AFDB0135DDE700BF2234000014
:100C4000436819880A0AB1F5007FC8B22EBF074A67
:100C500088324FF080414FF0010303FA00F334BFB4
:100C600041F8223053610020704700BF000004406B
:100C7000014910220A60704710ED00E072B6404052
:100C800080F31188BFF36F8FBFF34F8F30BF62B611
:100C9000BFF36F8F704700BF43B2002B08DB012208
:100CA00000F01F0002FA00F05B09024A42F823003C
:100CB000704700BF00E100E043B2002BA8BF03F182
:100CC000604301F10101B8BF064B4FEA4111ACBFCF
:100CD00003F5614300F00F00C9B2B4BF195483F8A3
:100CE0000013704714ED00E030BFFFF7FDBF00BFF9
:100CF00008B5084B084A23F07F039360BFF34F8F7A
:100D0000BFF36F8F00F0B6FF01F07EFA00F0BAF982
:100D100000F0BAFF0000000000ED00E0094A0A49B7
:100D2000936809689967094958674B6843F080538D
:100D30004B60002383F31188BFF36F8F9368986F24
:100D4000704700BF24020020F433000000ED00E0F3
:100D500012498A684FF030001044EFF3098C80E8A4
:100D6000F01F202080F31288BFF36F8F0C4F4FF0DD
:100D700000668A698A603E60506F0023536780F383
:100D8000118804B5104600F0BFF9BDE8044002F137
:100D9000300090E8F01F8CF309887047240200208F
:100DA00004ED00E01EF0040F0CBFEFF30880EFF33A
:100DB0000980816911F8021C0229FFD001B501F0F8
:100DC000F6FB01BD42F8203C009B42F81C3C0A495E
:100DD000019B42F8183C029B42F8143C21F00101AF
:100DE0004FF0807342F8043C42F8081C0023203A7C
:100DF00002654367704700BFB7240000094A0346F5
:100E0000906870B113F1160F406E05D0A0F120026A
:100E10009A4205D8834203D2814228BF00207047FE
:100E2000002070472402002008B5094B98600D4649
:100E3000144600F069F9204685F30988002163B65D
:100E400081F31188BFF36F8F0022002301F033FB81
:100E50002402002001B5EFF30580A0F110004FEA55
:100E6000C0000449014409C99847BDE8014002494E
:100E700008470000103100007D0E0000044B996807
:100E80009869884203D003494FF080520A60704746
:100E90002402002004ED00E038B5184B14469A6A8D
:100EA0009A6A9A6A0546900718D5586B9A6A12068C
:100EB00014D519B19A6A22F080029A629A6A9A6AE3
:100EC000D1060ED49B6A9A070BD400200B4A936A72
:100ED00043F0FF0393620023237038BD6FF01500C9
:100EE000ECE7064B5B681B05EFD52946FFF786FF4D
:100EF0000028EAD080F309880220E7E700ED00E04F
:100F00000C4B9A6A9A6A9A6A920508D59A6B9A6A01
:100F1000120404D518B19A6A22F400429A62054B71
:100F20009A6A9A6A9A6A002042F47F429A6208702A
:100F3000704700BF00ED00E070B5484B5B688AB0B9
:100F40000D46C3F30803002686F31188BFF36F8FA5
:100F500002F07F41B1F17F4F11D102F00C0108295D
:100F60000DD0110701D4054601260022033B8DF860
:100F70000720032B6BD8DFE803F00455595D354695
:100F8000F3E7364BDC6A14F0020460D1DA6A002A17
:100F900015DBDA6A520012D5AA6932F8021C4DF646
:100FA000027291420AD093F828200AB30DF1070289
:100FB00001212846FFF770FF044600E02C689DF8E9
:100FC00007309BB92022294602A801F046FB099B65
:100FD000002E3ED0C3F3080222B96FEA53236FEA12
:100FE0004323099302A9204601F0DFFA0AB070BD3D
:100FF00093F829202AB10DF107010120FFF780FFA6
:10100000DAE75A8D92B2002AD9D09A6A9A6A9A6A15
:101010009A6A9A6A9A6A9A6A6FEA02426FEA124276
:101020009A62CCE70DF107020021C2E70DF107013A
:101030000020E3E7094B9A6A9A6A9A6A9A6A9A6A5E
:101040009A6A9A6A6FEA02426FEA12429A6200242E
:10105000B5E723F4FF7323F00103C2E700ED00E0DE
:10106000024A536943F010035361704700ED00E0FA
:10107000EFF30880EFF3098101B57246FFF75CFFDB
:1010800001BD00BF044800232021C2180133282BD2
:1010900082F80013F9D1704700E100E000F058F940
:1010A000202080F3118808484FF40261401880F333
:1010B0000988EFF314800221084380F31488BFF3FA
:1010C0006F8FFFF715FE0000A0070020064B9B68FE
:1010D000834207D1EFF3058323B1044A536843F0F9
:1010E0008053536001F03EB82402002000ED00E080
:1010F000024B034A0348012100F06EB800000120B2
:1011000000000020A0320000426E054B203A1A6019
:10111000044A2021C3E901121846012100F066B8F3
:101120003801002000000B15F0B51F4F00268E423D
:1011300001DB1046F0BD44689CB353B104F1FF3CA1
:1011400014EA0C0F18D11F2C16D905681CEA050FDC
:1011500012D1202C0568D0F808C0D2B20FD9B4F152
:10116000004F0ED8013CB4FA84F4C4F11F046400AB
:10117000072A4CEA040406D96FF01502D9E70824BF
:10118000F6E73E24F4E725F01F05154345F010056A
:1011900044F00104C7F89820C7F89C500132C7F802
:1011A000A04001360C30C2E700ED00E0044B052200
:1011B000C3F89420BFF34F8FBFF36F8F704700BF0A
:1011C00000ED00E0BFF35F8F024B0022C3F89420D4
:1011D000704700BF00ED00E010B5034C01232278FA
:1011E000FFF7A2FF207010BD5802002008B5094A81
:1011F00000231278FFF798FF10F1160F02D0064A6D
:10120000072800DD08BDC2F89800C2F8A030013000
:10121000F6E700BF5802002000ED00E0144908681E
:10122000082810B521D8FFF7CDFF124C49680022DD
:10123000904201F10C0105D10F4B1870FFF7B6FF7A
:10124000002010BDC4F8982051F80C3C23F01F0377
:10125000134343F01003C4F89C3051F8043C43F0AE
:101260000103C4F8A0300132E2E74FF0FF30E8E7B5
:10127000AC32000000ED00E058020020014B186085
:10128000704700BF040000200239012902D8034B37
:101290001B6818474FF0FF30704700BF0400002064
:1012A0000FB407B504AB022153F8042B0448019393
:1012B000FFF704F903B05DF804EB04B0704700BF1A
:1012C0008926000038B54FF02003EFF3118583F332
:1012D0001288BFF36F8F4FF080431022174CC3F872
:1012E0003026174800F02EFA204600F033FB204647
:1012F00000F058FA00220121202001F064FC11487E
:1013000000F020FA4FF4867000F01CFA4FF4887059
:1013100000F018FA0C4801F081FC40F2112000F0B6
:1013200011FA0A4801F07AFC4FF0402000F0A0FBCF
:1013300085F31188BFF36F8F002038BD006CDC028D
:1013400000111000001410000F0001001000010037
:101350000E4E00240125306801680909328A0A40CE
:10136000738A934200D12C46706803682B40634017
:1013700000D10AE0B0680268002A03D0F068016872
:101380008D461047AD4630BFFDE77047E4030000CF
:1013900010B5164C40F281122046002101F076F97A
:1013A000204640F28112012101F070F920464FF4ED
:1013B000C8721D2101F06AF920464FF4C07218214D
:1013C00001F064F920464FF4C8721F2101F05EF964
:1013D00020464FF4C872042101F058F904484FF434
:1013E000C8720A2101F052F9002010BD80300000BF
:1013F0006830000008B5084B0848186001F039FD56
:1014000038B10748FFF73AFF0548FFF751F80020C9
:1014100008BD6FF01200FBE744010020B03000006F
:10142000251400000A2838B5074D044604D1286861
:1014300083680D215B68984728688368E1B25B6820
:101440009847204638BD00BF440100202DE9F843ED
:1014500046685404D6F810900D4607D5716809F512
:10146000006451F82410E940C90708D4B2F5804F50
:1014700008D0B2F5A03F0DD0B2F5005F30D06FF0CC
:1014800085002BE0B3F5802F2CD0B3F5003FF6D1CB
:10149000102707E0B3F5802F26D0B3F5003F0CBF2F
:1014A00002270327036903EB050898F80C20012A9B
:1014B00032D1D86C03F12C01002282420CD051F8B9
:1014C000044BB4F1FF3F11D003EB820314F1160F6C
:1014D0004FF0FF32DA620BD16FF00F00BDE8F883F6
:1014E0000027DFE71227DDE70127DBE70132E4E72A
:1014F000124801F0A5FB1F2C94BF043C1C3C09F5CD
:10150000C0020E4805EB4212214601F0A0FB0B4839
:1015100001F0A4FB88F80C40094C237823B9B0688B
:1015200000F0A6FA01232370B068064B98F80C105F
:101530003A4600F0BDFA0020D0E700BF005000405E
:1015400059020020672900004FF0E02310B59A6986
:1015500019699869094B11F4803F094901D1824208
:1015600006D21A680C6822441A604FF0E022126911
:101570001B680A681344181A10BD00BFFC01002044
:10158000F801002008B5FFF7DFFF0C4B0C4A186884
:1015900011680844106000221A600A4A13684FF468
:1015A0009651C01AB0FBF1F001FB0033136000F05C
:1015B0000BFFBDE80840FFF761BC00BFFC01002045
:1015C000F4010020F0010020094B202283F82320A1
:1015D000084B41F2BF221A60074B002018604FF001
:1015E000E0235A6198611A6942F007021A61704754
:1015F00000ED00E0F8010020FC010020F8B5324DBC
:1016000059B1431C09D14FF0E022136923F00103C3
:1016100013614FF07F432B60F8BD40F6A653B0F145
:10162000FF3F08BF1846441E002C2F6832DD9C4245
:10163000A8BF1C464FF02003EFF3118683F31288F6
:10164000BFF36F8FFFF780FF20494FF0E0230022A8
:10165000D3F818C00B6818441D4B08601A601D4B66
:101660001B68C21A18D54FF480632B604FF0E0223C
:101670002C6893699C4538BFBC44013CACEB030C1F
:101680005461604400249461086086F31188BFF3BC
:101690006F8FC1E70024CDE74FF4965E0EFB042464
:1016A00004F595541B1A1F34B4FBFEF40EFB0434EE
:1016B000B4F5806F04D9084B9C42D6D82C60D5E78E
:1016C0004FF48064FAE700BFF8010020F401002025
:1016D000FC010020F001002080E8FF0010B54FF071
:1016E0002003EFF3118483F31288BFF36F8FFFF7AA
:1016F0002BFF074B074A1B6812689B1A034484F3AD
:101700001188BFF36F8F4FF49650B3FBF0F010BD0C
:10171000F4010020F001002010B54FF02003EFF39A
:10172000118483F31288BFF36F8FFFF70DFF044B13
:101730001B68184484F31188BFF36F8F10BD00BF7E
:10174000F4010020B0F1004F28D038B3C0F30B03F0
:101750008BB1DAB21C2A18BF92004FEA132308BFDC
:101760000F4A03F1FF3318BF02F18042DBB214BF0E
:10177000C2F880321362000B10D0C0F30B0068B1C6
:10178000C3B2000A01381C2BC0B202D1044B18624C
:1017900070479B0003F18043C3F88002704700BF8D
:1017A000000004401949884205D0194B984202D0E4
:1017B000184B984228D14FF080421023C2F830369F
:1017C0008842D2F800351AD903F08071114B984243
:1017D00011484FF080730BD1D3F8303403400B43E2
:1017E00043F0404343F48043C2F800350020704783
:1017F000D3F8443403400B4343F04043F4E7D2F8BA
:10180000003523F08043EFE701207047001BB7004D
:10181000006CDC0200D8B805FF3FFF004FF08043AA
:101820000348D3F8103613F0100F18BF002070478C
:10183000001BB7004FF08043D3F81026D20211D41A
:10184000D3F80805D3F80835074AC3F3441300F06A
:101850001F00D35C01304CF2503253434000B3FBC5
:10186000F0F0704700207047703400004FF0804364
:10187000D3F81026D2060CD4D3F80005184009D0AE
:10188000D3F80035044813F4804F044B08BF1846C2
:1018900070470020704700BF00D8B805006CDC021C
:1018A0004FF08043D3F88402022817D0032818D0C1
:1018B000D0B9D3F880220AB9FFF7B0BFD3F880229D
:1018C000012A12D0D3F88022022A01D1FFF7B2BF39
:1018D000D3F88032032B08D1FFF7C8BF034B186839
:1018E00070474FF40040704700207047000200200E
:1018F0004FF08043D3F8E832032B0CD8DFE803F035
:1019000002040709FFF7CCBF044B18687047FFF7C4
:1019100085BFFFF7ABBF0020704700BF000200206B
:10192000AC304FF0804353F82030042B0DD8DFE863
:1019300003F00305070C0A00FFF770BFFFF796BF1F
:10194000034B1868704701F050B90020704700BF82
:10195000000200200F4B984202D8002001F028B965
:101960000D4B984201D80120F8E70C4B984201D862
:101970000220F3E70A4B984201D80320EEE7094B17
:10198000984201D80420E9E7074B984294BF05200C
:101990000620E3E7001BB70000366E01006CDC0296
:1019A00000A24A0400BD010500E1F50581B2012352
:1019B000B0F5003F4FEA104203FA01F305D3084A9D
:1019C000536011681942FCD07047920002F18042C6
:1019D000C2F82031D2F800111942FBD0704700BF85
:1019E0000000044081B20123B0F5003F4FEA1042ED
:1019F00003FA01F306D3094A9360116833EA01013F
:101A0000FBD07047920002F18042C2F84031D2F818
:101A1000001133EA0101FAD0704700BF0000044012
:101A2000B0F5007F4FEA1022C1B24FF0010303FA74
:101A300001F32DBF044A88324FF08041536138BF13
:101A400041F82230704700BF0000044010B5064B3B
:101A500033F811000C46FFF7E3FF044B53F8240062
:101A6000BDE8104001F0DAB8F83300009833000008
:101A7000B0F1402F10B54FF00003044612D10A4ACE
:101A8000C2E90033C2E90233C2E90433C2E90633D2
:101A90004FF080434FF48022C3F82022122001F03F
:101AA000BDF8024B236310BD0402002000B66DDBBD
:101AB000B0F1402F30B54FF0010404FA01F408BF33
:101AC0000D4DC461046208BF45F82130036812F06F
:101AD000100F14BF2146002123EA040312F0110F56
:101AE00043EA0103036014BF8460C46093074CBFE2
:101AF0004461846130BD00BF04020020054A0346F2
:101B0000002052F8041B994202D001300828F8D175
:101B1000704700BFA033000070B50C460546FFF7C4
:101B2000EDFF1E4B33F81010B1F5007F4FEA112284
:101B3000CEB22EBF1A4A88324FF080414FF00103D7
:101B400003FA06F334BF41F822305361154B53F8C2
:101B5000200001F063F844B1042C14D8D5F8F83F04
:101B6000E21CD34013F0010F14D0D5F8F83F1B0747
:101B700005D5D5F8F83F03F00703A3420CD1C5F80B
:101B8000F84F002070BD052C04D1D5F8F83F13F0B4
:101B9000800FE9E70320F5E70120F3E7FC330000BD
:101BA00000000440C03300000E4B70B553F82040D5
:101BB000013053F82060A64200D870BDD4E900354A
:101BC0002846984765B1EB6830B10028B8BF40425D
:101BD000FF28A8BFFF2018705A7842F001025A70FF
:101BE0000834E8E7E033000030B5002387B0012275
:101BF000CDE904230F22CDE9023201930C4C0D4BA9
:101C00000D49182204EBC01402FB00334FF4907509
:101C1000009305FB0011094B4FF48072204600F041
:101C2000A3F8637B23F00403637307B030BD00BFE8
:101C3000300000202402002080060020D52E000065
:101C400008B50A4B012202201A70FFF7ADFF01F020
:101C5000DDF90320FFF7A8FF00F0B8F8FEF7CCFB92
:101C6000034A137B23F00103137308BD5A020020BB
:101C7000B00000200248034A0021121A00F0F8BC0C
:101C8000300000205C02002080B5DFF8BC80A6B0E8
:101C900088F308882D4D2E4E6B69DFF8B89043F419
:101CA000007300246B61E02385F82230EC772C76FA
:101CB0006C76AC7685F820406B6A43F4E0236B6267
:101CC000FFF7CEF9FEF7D4FF4FF0FF33AB62EB62C4
:101CD000FFF7A4FAFFF70CFA40F20113ADF8243035
:101CE00006ABB360CDE91F4401F0C2F82046FFF710
:101CF0005BFF0120184DFFF757FF00F021FA174B4B
:101D00000593012316490094CDE903434FF4806203
:101D10004B46CDE901442846B56100F025F86A7BC1
:101D2000074622F0040228466A7301F00DF92046A6
:101D3000FFF75AFF0B4BF3604A4639462846347585
:101D4000C6F80480FFF770F8C00F002000ED00E037
:101D500024020020411C0000B0000020903400004C
:101D600060020020300000202DE9FF410E9E067326
:101D7000042646730D9E867300F158050F46D61D46
:101D8000C0E916550C9A002526F007062037C0E951
:101D90000655C0E919768560C573C56606F1200849
:101DA00002920B9A019288440A9A00924246044693
:101DB000FFF708F8044B65659B6803B11B6F236749
:101DC000404604B0BDE8F08124020020F0B5224C6A
:101DD000224D87B02646AE4204F130040BD300F00A
:101DE00091F81D4C1E4F0A26AC4220D307B0BDE827
:101DF000F04000F089B954F8043C059354F8103CC5
:101E0000049354F8143C039354F8183C029354F888
:101E10001C3C019354F8203C009354E90C0154E914
:101E20000A23FFF7A1FF54F8303C5E65D2E7626AEF
:101E3000531C09D022EAE27282FB062352EA030114
:101E4000206803D100F042F93034CDE7394618302C
:101E500000F040FAF8E700BF2C0000202C00002022
:101E6000692F000010B5084C23685BB1FFF736FC02
:101E700003462068054A0344BDE810401361002171
:101E800001F0AAB810BD00BF5002002024020020BB
:101E900010B54FF02003EFF3118483F31288BFF3E2
:101EA0006F8F0C4B00221A6190424FF00A030A4ACE
:101EB00000FB03F309DC1360084B1960FFF7D2FF46
:101EC00084F31188BFF36F8F10BD022BB8BF0223BC
:101ED000F1E700BF24020020500200204C02002045
:101EE00049B9EFF3058030B9054B9A699B689A426E
:101EF00001D0FEF713BF81F31188BFF36F8F7047D6
:101F0000240200204FF02003EFF3118183F31288A5
:101F1000BFF36F8F044B9A68D37B013BD37381F37C
:101F20001188BFF36F8F70472402002038B5024636
:101F30000C480D4D01F002F8044600B9EC68AB689E
:101F40004AB95A7BD20606D1A26922B9DA897F2A18
:101F500001D9AB6138BD9C4201D0FFF783FFAC6172
:101F6000F8E700BF400200202402002070B590F97D
:101F70000D20437B002A014604DA03F07F034373FC
:101F800000F0B4FF4B7B154A63F07F034B73D2E93B
:101F9000073402F11C05AB421BD0D3B191F90E609E
:101FA00093F90E0086420FD0801B00280CDD586884
:101FB000C1E90030016059609068431A5842BDE899
:101FC00070405841FFF7B2BFA34202D01B68002BFC
:101FD000E6D1C1E9005421601162EDE7240200203E
:101FE00038B501464FF02003EFF3118483F31288D4
:101FF000BFF36F8F154B164A98681568A84206D133
:10200000FFF730FF84F31188BFF36F8F38BD0025D1
:102010001560104A1268BAB1C2897F2A14D8427B6F
:10202000D20611D10C4A90F90E50126895420BDB82
:102030000A4A904208D01A698A4202DCFFF796FFEA
:10204000DEE7521A1A61DDE70022FBE724020020D6
:1020500048020020500200204C02002030000020E6
:1020600070B490F90D20437B002A2ADBDA0628D1D0
:10207000826932BB144A63F07F034373D2E90734A9
:1020800002F11C05AB4217D0B3B190F90E6093F981
:102090000E108E420BD0891B002908DD5A68C0E95A
:1020A00000321060586070BC0020FFF73FBFA342B1
:1020B00002D01B68002BEAD1C0E9005420601062F6
:1020C000F1E770BC704700BF2402002010B54FF04C
:1020D0002002EFF3118482F31288BFF36F8F427BEB
:1020E000510704D484F31188BFF36F8F10BD22F021
:1020F00004024273FFF7B4FF21460248BDE81040D6
:10210000FFF7EEBE5B02002010B54FF02003EFF3A7
:10211000118483F31288BFF36F8F084B9A68D37BC7
:102120000133D3730020FFF701FF84F31188BFF35D
:102130006F8FBDE8104000F0F7BE00BF2402002002
:10214000044B002103F11C02C3E907220846FFF7F4
:102150009FBE00BF24020020014B9868704700BF5B
:10216000240200202DE9F04104464FF02003EFF354
:10217000118683F31288BFF36F8F437B1A0705D54F
:1021800086F31188BFF36F8FBDE8F08123F0200242
:1021900042F00801D20920D14173A36813B120464F
:1021A00000F0ACFE04F1180000F000FF04F1580745
:1021B0004FF00008A56DBD4200D0B5B90120FFF772
:1021C000B5FE104B9B68A342DAD1EFF30583002BD9
:1021D000D6D13046FEF7A2FDD2E703F05F0343F00D
:1021E0000803437300F082FED7E7284600F086FE1E
:1021F00005F1180000F0DAFEC5F878802846FFF7F0
:102200002FFFD7E72402002008B50648064A0749F1
:10221000121A00F022FABDE80840054A05490648AE
:1022200000F01BBA000000202C00002098340000B1
:10223000000000009834000000000020034B1B68E1
:102240000BB9FFF74BBA0020704700BF54020020C3
:10225000114B10B51C689C4208BF0024FFF7EEFF2D
:1022600003466CB1D4E90402C01A62EBE37301289F
:1022700073F100020DDBB0F1004F73F1000301DBDD
:102280006FF00040054B1B6913B19842A8BF184678
:1022900010BD0020F6E700BF080000202402002047
:1022A00030B5036868B10A4A5268904209D043B118
:1022B000D3E90421D0E90445121941EB0501C3E932
:1022C0000421426813605A600023C0E9003330BD26
:1022D00008000020B3F1FF3F08BFB2F1FF3FF8B59F
:1022E00004461F46154667D081604FF02003EFF388
:1022F000118683F31288BFF36F8F6FF00102531BB7
:102300004FF0FF3C6CEB0703002B1BDB2B4BD3E99F
:102310000013521A6CEB0303551B63EB0703012DEB
:1023200073F10002BCBF01250023C0E90453244817
:10233000D0E9003C834218D1C4E9000CCCF800403D
:10234000446026E0FFF77AFF013547F100072D18BA
:1023500047EBE077C4E90457E9E7521A65EB070554
:102360009C45C4E90425E7D01B68002BE4D0D3E9E1
:102370000417D4E904258A4275EB070EEDDA8A1AB0
:1023800067EB0505C3E904255A68C4E90032146007
:102390005C60036883420BD09C4209D1FFF758FF71
:1023A00018B1084B1B69834202D00021FFF726F9C0
:1023B00086F31188BFF36F8FF8BD00BF3001002096
:1023C00008000020240200202DE9F8430546FFF70D
:1023D00007FE4FF02003EFF3118483F31288BFF35D
:1023E0006F8F244EDFF890803560244DD8F80000C0
:1023F00032684045D5E9001E4FEAE2770BD050B174
:10240000D0E9043C9A4277EB0C0916DA9B1A6CEB84
:10241000070CC0E9043C52184EEB0707C5E900273A
:1024200000253560FFF714FF2946FFF7E7F884F32E
:102430001188BFF36F8FBDE8F88359184EEBE3772F
:10244000D31A336000220023C0E90423C5E9001732
:10245000FFF726FF84F31188BFF36F8F83689847D7
:102460004FF02003EFF3118483F31288BFF36F8FD3
:10247000BCE700BF5402002008000020300100200B
:1024800038B5044678B1FFF747F905460648074ACC
:10249000A4FB00010023FDF723FE0446FFF73CF9EF
:1024A000431BA342FAD338BD006CDC0240420F004C
:1024B000704700207047044608B5084611461A4682
:1024C000A047FFF749FEFEF701FE2DE9F84F9A46B7
:1024D000D3786F2B80460F461546A3F1410B29D0C8
:1024E00024D8582B14BF0A261026DDF8289032462F
:1024F000002340463946FDF7F3FD092AD4B21ED821
:102500003034B045E4B277F1000309F8014D01D34E
:10251000D14511D82B789B0605D5082E15D1AB785F
:1025200043F00803AB704846BDE8F88F03F0F703AB
:10253000702BD7E70826D8E780460F46D7E7BBF1D0
:10254000190F94BF37345734DBE7102EEBD1AB783B
:1025500043F01003E6E72DE9F041074688461546AB
:102560001E461446B442A4EB050002D33EB92378BC
:102570002BB114F8010B4146B8470028F2DABDE848
:10258000F081704743685B68002043F82120704762
:1025900043685B6853F821301360002070476FF088
:1025A000850070476FF08500704700F078BC0146E9
:1025B000006800F074BC00210120FFF7F6BF08B5E9
:1025C000FEF792FBBDE80840FEF758BC30B5027834
:1025D000202A034600F10100F9D0A2F109010429E3
:1025E000F5D92B2A08D02D2A0ABF03460021012144
:1025F000013B00200A2506E003460021F8E7C2F16E
:10260000300205FB002013F8012FA2F13004092C41
:10261000F5D901B9404230BD034600201A5C02B929
:1026200070470130FAE7034600201A5C0AB188427D
:1026300000D170470130F8E710B503465AB10139AF
:10264000841813F8010B11F8012FA34201D0904216
:10265000F7D0801A10BD1046FCE710B5431E0A449F
:10266000914200D110BD11F8014B03F8014FF7E77B
:10267000C9B202440346934200D1704703F8011BDC
:10268000F9E74FF0FF307047FEF7FEBD83681B6827
:102690001847002070470020704710B514460729DE
:1026A00009D8DFE801F0040A0C0E101214160020FD
:1026B000FFF736F92060002010BD0120F8E7022066
:1026C000F6E70320F4E70420F2E70520F0E7062010
:1026D000EEE70720ECE70020704770B5436802F48E
:1026E0004074B4F5407F5D6818693AD0940738D4D7
:1026F00012F0300F10D0DB6801EB401453F8246067
:1027000026F0180643F82460D60623D553F8246033
:1027100046F0100643F824600123140503FA01F182
:1027200044BF00F5086345F82310530548BF00F582
:102730000A6300F5006048BF45F8231055F82030C3
:1027400012F4007F14BF194323EA010145F8201059
:10275000002070BD9606DFD553F8246046F00806C9
:10276000D8E76FF08500F4E743685A681B6903F502
:102770000463002052F823300B607047406810B5A6
:102780004368046903EB840303F50053C943002045
:10279000C3F88010C3F88021C3F8800010BD4368DF
:1027A0005A681B6903F50863002042F8231070473C
:1027B00043685A681B6903F50A63002042F8231036
:1027C000704743685A681B6903F50C63002042F8A0
:1027D000231070470369586830B558B1002481420E
:1027E00012D108689D6854B98D42586000D1986034
:1027F000002008606AB9002030BD2846EFE78D420E
:10280000206008BF9C60F3E705680446002DF4D102
:102810003AB198685A680A6059600028EBD199600B
:10282000EAE76FF01500E7E7436810B50469196936
:102830005868FFF70BF904F10C0304F12C02012195
:1028400003F8011B9342FBD10023E36410BD38B5AC
:102850000446FFF7E9FF2569002202212020FEF748
:102860002BFA2020FEF718FAEB6C5A1CEA6405EBF1
:1028700083052023EB620022256902212120FEF737
:102880001BFA2120FEF708FAEB6C5A1CEA6405EBF0
:1028900083052123EB620022256902212220FEF715
:1028A0000BFA2220FEF7F8F9EB6C24695A1CEA6453
:1028B00005EB83052223EB62002202212320FEF791
:1028C000FBF92320FEF7E8F9E36C5A1CE26404EB01
:1028D00083042323E362002038BD38B50446FFF7A4
:1028E000A3FF2569002202210420FEF7E5F9042058
:1028F000FEF7D2F9EB6C5A1CEA6405EB830504235E
:10290000EB620022256902210520FEF7D5F905209A
:10291000FEF7C2F9EB6C5A1CEA6405EB830505234C
:10292000EB620022256902210620FEF7C5F9062088
:10293000FEF7B2F9EB6C24695A1CEA6405EB8305D7
:102940000623EB62002202210720FEF7B5F90720DB
:10295000FEF7A2F9E36C5A1CE26404EB830407233C
:10296000E362002038BD2DE9F84FD0F810A0D0F870
:10297000048007460AF120095646347B012CA6EB59
:102980000A0B04D101364E45F7D1BDE8F88FD8F8CF
:1029900008002146456A00F048F9DAF804100029D9
:1029A000F0D025FA04F404F001040D6804FA0BF4E5
:1029B0008A68224002D04B6838469847002DE1D003
:1029C00029462D68F4E743681B68D3F8042E5206A5
:1029D00043BFD3F8303E0B7000204FF0FF307047FC
:1029E00043681B68D3F8042ED206FBD5C3F8201E1B
:1029F000704743681A68D2F8043E41F24C610B42BA
:102A000041F2506114BF012000200B4241F24F619E
:102A100018BF40F002000B424FF0030318BF40F014
:102A20000400C2F8043E704770B546680023D8B26F
:102A3000141A002C06DD3468D4F8045EAD0603F1E8
:102A4000010300D470BD085CC4F8200EEFE770B538
:102A500046680023D8B2141A002C06DD3468D4F876
:102A6000045E6D0603F1010300D470BDD4F8304E4E
:102A70000C54EFE743681B680422C3F8102E70471C
:102A800043681B680422C3F8142E704743681B6810
:102A90009868C0F3C000704743681B68D3F8042EE1
:102AA000D3F8100E10F0040018BFC2F300107047E6
:102AB00043681B680822C3F8102E704743681B68E0
:102AC0000822C3F8142E704743681B68D3F8040E1D
:102AD000C0F38010704743681B680F22C3F8102EA4
:102AE000704743681B680F22C3F8142E70470120FB
:102AF00070470369C3E900127047026913680BB19C
:102B000051681847704708B500220E201146FEF79D
:102B1000D3F8BDE808400E20FEF7BEB8F0B5446813
:102B200087B0D4E901560746284600F0A2F920B93B
:102B30006FF01506304607B0F0BDAB68DB68002BC0
:102B4000F6D031466A462846984706460028EFD117
:102B5000257C012D16D0022D18BF002501A800F0FC
:102B600084F88DF8085040F20113ADF80C30009A4B
:102B7000E3682068019301A900F0E1F86369384631
:102B80009847D7E70325E9E708B50146FFF784FF33
:102B900060B94B681B68D3F8103E1B0705D5084683
:102BA000FFF792FF003818BF012008BD0120FCE7A5
:102BB0004FF08042D2F8003423F4704343EA0033EC
:102BC000C2F800347047800000F180401AB14FF025
:102BD0000053C0F8003321B94FF08043C0F80033F0
:102BE00070470139C0F80013704710B54FF08044AA
:102BF000D4F8A033DBB2FF2B0ED1FEF779FED4F868
:102C0000A0230146C2F3072202F5807200230002CE
:102C1000090EFDF765FA10BD0020FCE708B5FEF7C8
:102C2000C5FEBDE80840FEF7DDBE0268012303FAD9
:102C300001F10A42436A02D1194218BF416270474A
:102C40004FF080434FF40062C3F820227047C2F374
:102C5000130300EB8100120D835070474FF0804347
:102C60004FF40062C3F84022704710B514220021CF
:102C70000446FFF7FDFC4FF480334FF4E132C4E922
:102C800000230023C4E90233237410BD2DE9F0436F
:102C9000044600284ED000294CD0002A4AD00368B0
:102CA0001B050AD5006810F4804004D0B2FBF1F196
:102CB000013921620020BDE8F0834FF00A084FF08F
:102CC000FF350F2708FB02F94FEA011CAE463E46CE
:102CD000B9FBFCF00538B0F5202F06F101030ED248
:102CE000B0FBF8F000FB0333B2FBF3F3994234BFBF
:102CF0005B1ACB1A73453EBF054637469E46013EDA
:102D0000072EACEB010CE3D16B1C07FB0333B2FBCA
:102D1000F3F2914234BF521A8A1A6423B1FBF3F1E1
:102D200001EB4101914207D3B5F5803F04D2A76280
:102D30002562BFE70420BEE741F25160BBE7F8B56A
:102D40000D4617460446002800F08D80002900F04B
:102D50008A80002A00F087800121FEF7DDFE06460A
:102D6000002872D16B7AD3B1D4F8003E43F001133E
:102D7000C4F8003ED4F8083E23F47063C4F8083E5B
:102D80006B7BD4F8082E1B0203F470631343C4F862
:102D9000083ED4F8083E43F00103C4F8083E2B7AFD
:102DA000D3B1D4F8003E43F00213C4F8003ED4F887
:102DB000083E23F47023C4F8083EAB7BD4F8082EF9
:102DC0001B0403F470231343C4F8083ED4F8083EF0
:102DD00043F00203C4F8083EEA7AE97BE879D301BC
:102DE00043EAC033880200F400600343287B43EACF
:102DF00040232879000100F0300003436879800106
:102E000000F040000343A879800000F00C00890323
:102E100001F4804103430B43297C090301F48051F1
:102E20000B4343F001032968236082B14FF416532A
:102E3000B3FBF1F35943B1F5165F16D12362AB7AB8
:102E40006BB1636843F4807363603046F8BD3A4603
:102E50002046FFF71BFF0028F1D00646F5E7636820
:102E600023F48073F0E70426EFE741F25166ECE7C4
:102E7000704738B1C3681888C0F30800A0F58073A4
:102E80005842584170474FF02002EFF3118382F30C
:102E90001288BFF36F8FFEE708B5FFF7F4FFF8B5B0
:102EA00005460E464FF02003EFF3118783F3128897
:102EB000BFF36F8FFFF750F9314604462846FFF7FE
:102EC000EBFF87F31188BFF36F8F2046BDE8F84012
:102ED000FEF7FCB808B54FF02002EFF3118382F340
:102EE0001288BFF36F8FFDF7C9FEF4E7D0E9003217
:102EF00013605A600023C0E90033704708B5FFF73C
:102F0000F5FF437B23F0020343730023836008BD76
:102F1000034620B9EFF305820AB9FDF7FFBE83F33C
:102F20001188BFF36F8F70474FF02003EFF31180CC
:102F300083F31288BFF36F8FFFF7EABF0346006881
:102F4000834208BF0020704710B54FF02003EFF315
:102F5000118483F31288BFF36F8FFFF781F884F336
:102F60001188BFF36F8F10BD10B501464FF02003DD
:102F7000EFF3118483F31288BFF36F8F10F80B3CCB
:102F800013F0280F0DD151F8103C18380BB1FFF792
:102F9000B5FF11F80B3C23F0140301F80B3CFFF7CD
:102FA0005FF884F31188BFF36F8F10BD10B54FF039
:102FB0002002EFF3118482F31288BFF36F8F03684E
:102FC0003BB1FFF76DF9002084F31188BFF36F8FD9
:102FD00010BD6FF01500F7E770B504460D464FF0D1
:102FE0002003EFF3118683F31288BFF36F8FFFF78F
:102FF0002FF9012805DDA04203DB29462046FEF714
:0E300000FDFA86F31188BFF36F8F70BD704725
:02300E00FFFFC2
:0830100000D1FF7F0100000068
:10301800C512000000000000410C000068300000EC
:10302800410C0000803000009113000000000000F7
:1030380097260000983000001D2B0000B0300000DB
:10304800C9150000C83000004F280000E03000001B
:10305800DB280000F8300000F51300000000000035
:103068002834000098320000803200001000002050
:10307800000000007A320000303400009032000076
:1030880080320000140000200000000074320000AC
:103098004634000000000000CC3200001800002078
:1030A800000000006E3200005B3400003433000082
:1030B8004C33000024000020E801002064320000A6
:1030C8006634000000000000000000002800002016
:1030D80000000000603200004D340000F8320000AB
:1030E800103300001C000020980100205832000016
:1030F80054340000E03200001033000020000020AB
:083108004801002050320000D4
:1031100000000000B725000000000000B7250000F7
:1031200000000000B725000000000000B7250000E7
:10313000F830000067290000F8300000672900001F
:10314000F830000067290000F8300000672900000F
:1031500000000000B725000000000000B7250000B7
:1031600000000000B725000000000000B7250000A7
:1031700000000000B725000000000000B725000097
:10318000B0300000FB2A000000000000B72500005E
:1031900000000000B725000000000000B725000077
:1031A00000000000B725000000000000B725000067
:1031B00000000000B725000000000000B725000057
:1031C00000000000B725000000000000B725000047
:1031D00000000000B725000000000000B725000037
:1031E00000000000B725000000000000B725000027
:1031F00000000000B725000000000000B725000017
:1032000000000000B725000000000000B725000006
:10321000E030000067290000E0300000672900006E
:10322000E030000067290000E0300000672900005E
:1032300000000000B725000000000000B7250000D6
:1032400000000000B725000000000000B7250000C6
:10325000FF7FFF7FFF7FFF7FFF7FFF7FFF7FFF7F7E
:10326000FF7FFF7F0300FF7FFF7FFF7FFF7FFF7FE9
:10327000FF7FFF7FFF7FFF7FFF7FFF7FFF7FFF7F5E
:1032800085250000912500009F250000A525000050
:103290000D000000001000400D00000080100040F4
:1032A000000000200000000000000B0602000000EB
:1032B000B432000000000000373400002200020792
:1032C000000000203F3400001E000B119326000078
:1032D000D7260000000000009B2600000000000030
:1032E000FFFFFFFF00C0084000400040001000400A
:1032F000000000000E000000FFFFFFFF00C00840BC
:103300000040004000100040010000000F000000DD
:10331000DB260000692700007D2700009F270000B2
:10332000B1270000C32700004D140000D52700007E
:10333000000000000060084098300000000000001D
:1033400000C2010000000000072B0000C729000098
:10335000E1290000F3290000000000000000000047
:10336000292A00004F2A0000752A0000812A000047
:10337000992A0000B12A0000BD2A00008D2A000011
:10338000C92A0000D72A0000E32A0000892B000088
:10339000EF2A0000F32A00000E0000000F000000DA
:1033A000006008400070084000800840009008401D
:1033B00000A00840006009400070094000800940FA
:1033C0000B0001000C0001000D0001000E000100C7
:1033D0000F000100100001001100010012000100A7
:1033E0001830000048300000503000006830000005
:1033F00068300000F5FFFFFF0E000F000B010C010D
:103400000D010E010F011001110112017B696E699E
:10341000747D00626175643A007B6368616E676504
:103420007D00286E696C290070696F30403830006B
:1034300070696F30403000464C4153485F30005354
:1034400052414D5F3000535953434F4E004750494E
:103450004F5F31004750494F5F3000464C4558435D
:103460004F4D4D5F30007379735F636C6F636B001A
:1034700000080C0F1214181A1C1E202224262829BA
:103480002A2C2D2E30313234353638393A3B3C3DFA
:083490006D61696E000000008F
:10349800B324000083260000080000200800002054
:1034A8000000000000000000000000000000000014
:0C34B80000000000000000000000000008
:040000030000109D4C
:00000001FF
