:1000000080060030A5110000890D00007911000064
:1000100079110000791100007911000079110000B8
:10002000000000000000000000000000790E000049
:100030007911000000000000210E0000511800009E
:10004000F90E0000F90E0000F90E0000F90E000094
:10005000F90E0000F90E0000F90E0000F90E000084
:10006000F90E0000F90E0000F90E0000F90E000074
:10007000F90E0000F90E0000F90E0000F90E000064
:10008000F90E0000F90E0000F90E0000F90E000054
:10009000F90E0000F90E0000F90E0000F90E000044
:1000A000F90E0000F90E0000F90E0000F90E000034
:1000B000F90E0000F90E0000F90E0000F90E000024
:1000C000F90E0000F90E0000F90E0000F90E000014
:1000D000F90E0000F90E0000F90E0000F90E000004
:1000E000F90E0000F90E0000F90E0000F90E0000F4
:1000F000F90E0000F90E0000F90E0000F90E0000E4
:10010000F90E0000F90E0000F90E0000F90E0000D3
:10011000F90E0000F90E0000F90E0000F90E0000C3
:10012000F90E0000F90E0000F90E0000F90E0000B3
:1001300053B94AB9002908BF00281CBF4FF0FF314E
:100140004FF0FF3000F080B9ADF1080C6DE904CE3E
:1001500000F006F8DDF804E0DDE9022304B07047A2
:100160002DE9F04F099E0D4604460F46002B47D15E
:100170008A4294465FD9B2FA82F343B1C3F12001B7
:100180009F4002FA03FC9C4020FA01F10F434FEA22
:100190001C451FFA8CFE220CB7FBF5F105FB11770D
:1001A00001FB0EF042EA0742904208D91CEB020222
:1001B00001F1FF3702D2904200F234813946121A1F
:1001C000A4B2B2FBF5F005FB102200FB0EFE44EAE0
:1001D0000244A64508D91CEB040400F1FF3202D208
:1001E000A64500F21981104640EA0140A4EB0E0436
:1001F00000211EB1DC400023C6E90043BDE8F08FBA
:100200008B4208D9002E00F0FB800021C6E90005D2
:100210000846BDE8F08FB3FA83F100294BD1AB4219
:10022000C0F0F180824240F2EE800846002EE5D018
:10023000C6E90047E2E702B9FFDEB2FA82F3002B1B
:1002400040F09D808D1A4FEA124E97B20121B5FB06
:10025000FEF20EFB1250250C45EA004507FB02F0AA
:10026000A8420FD91CEB050502F1FF382CBF4FF057
:1002700001094FF00009A84203D9B9F1000F00F0BD
:10028000CE8042462D1AA4B2B5FBFEF00EFB1055EF
:1002900000FB07F744EA0544A74208D91CEB040415
:1002A00000F1FF3502D2A74200F2B3802846E41BDA
:1002B00040EA02409DE7C1F120078B4005FA01F4B6
:1002C00022FA07FCFD408A404CEA030C20FA07F3AF
:1002D0004FEA1C491C431FFA8CFE00FA01F3200C64
:1002E000B5FBF9F809FB185540EA054508FB0EF087
:1002F000A8420FD91CEB050508F1FF3A2CBF4FF0BF
:10030000010B4FF0000BA84203D9BBF1000F00F026
:100310008C80D0462D1AA4B2B5FBF9F009FB10551C
:1003200000FB0EFE44EA0545AE4507D91CEB05056A
:1003300000F1FF3401D2AE457ED8204640EA0840A5
:10034000A5EB0E05A0FB029845454C46C64602D3D8
:1003500006D14B4504D20138B9EB020468EB0C0E10
:10036000002E6FD01A1B65EB0E0522FA01F305FA79
:1003700007F7CD4000211F43C6E900753EE702FAAA
:1003800003FCC3F1200001FA03F24FEA1C4EC14006
:1003900024FA00F51FFA8CF79C401543B1FBFEF0E0
:1003A0002A0C0EFB101142EA014200FB07F19142B8
:1003B0000ED91CEB020200F1FF382CBF4FF00109EF
:1003C0004FF00009914202D9B9F1000F31D04046F7
:1003D000521AADB2B2FBFEF10EFB112245EA024504
:1003E00001FB07F2AA4207D91CEB050501F1FF3812
:1003F00001D2AA4223D84146AD1A41EA004126E77C
:1004000031463046FAE6841A65EB030301201F46A5
:100410000CE7644402384AE764440238E4E6023AEE
:1004200065442FE702396244C9E6A8F10208654431
:1004300070E702386244CBE7023865447EE7023950
:100440006544D9E73146D9E6704700BF2DE9F0434E
:1004500095B0284DAB681B6913B1284602A998478F
:10046000254801F071F80024224EDFF89080DFF873
:100470009090AF683B68002BFCD030460DF107012F
:1004800098470028F6D102219DF8070002F0EEFA05
:100490009DF807307B2B03D100248DF81040E8E74E
:1004A0007D2B1ED10522414604A802F0B7FA002890
:1004B000DFD10DF1150002F07BFA041EECDD4FF4E4
:1004C0007A7002F091F90294FB6813B1304602A9E8
:1004D00098474FF47A7002F087F9484601F034F8F3
:1004E000DAE73E2CC5D804F150026A4402F8403CD9
:1004F0000134BEE7D0340000F2380000F9380000C3
:10050000FF3800000B6801330B60014B1B68184774
:1005100000000030014B1860704700BF0000003041
:1005200007B50B46002102460191034801A900F0DE
:1005300005F803B05DF804FB050500002DE9F04F58
:100540008B4692461C46002591B002909AF8000016
:1005500008B928465FE325280AF1010707D0594664
:10056000029B98470028C0F25683013512E21822F8
:1005700000210AA802F06EFA9AF80130252B78D0F3
:1005800000221046964694461646394617F8013B17
:100590002B2B00F09D8000F29480202B00F09B809C
:1005A000232B00F09B802EB19DF8306046F00406AE
:1005B0008DF83060BCF1000F05D09DF8306046F03A
:1005C00008068DF83060BEF1000F05D09DF8306050
:1005D00046F010068DF8306028B19DF8300040F0EC
:1005E00020008DF830002AB19DF8302042F0400202
:1005F0008DF830209DF8302002F04400442803D1CB
:100600006FF386128DF830209DF830202A2B42F0AF
:1006100080028DF830207BD19DF831204B1C42F0B8
:1006200001028DF831201A782E2A0CBF01210021F9
:100630009DF8312061F341028DF8312074D15A7850
:100640002A2A6AD000210A260133184610F8012B05
:10065000A2F13007092F40F28E809DF830200E91D4
:10066000C2F3400040EAD17161F341028DF83020BD
:100670005AE00AF102078DF833309DF83130D9077E
:1006800040F1498154F8049BB9F1000F07DA9DF855
:100690003020C9F1000942F004028DF830205A07D9
:1006A00040F1428154F8048BB8F1000F80F241818F
:1006B0009DF831306FF341038DF831304FF0FF3842
:1006C00037E12D2B0CD0302B7FF46DAF01225CE78E
:1006D0004FF0010C59E74FF0010E56E7012054E7A7
:1006E000012652E733460CFB0202303A1E4616F84A
:1006F000010BA0F13007092FF4D9994293D09DF84E
:1007000030100D92D20F62F341018DF830108AE75C
:100710000B4600224FF00A0CE8E79DF83120023327
:1007200042F004028DF831201F4617F8012B6C2A85
:1007300041D025D8682A2BD06A2A46D04C2A4CD0E2
:100740001F4617F8012B9DF83130782A8DF8332099
:1007500000F2D980572A4DD8412A03D0453A022ABF
:1007600000F2D18004229DF8323062F302038DF84A
:10077000323001239EE006FB01210346303964E755
:10078000742A26D07A2ADBD106229DF831300DE07A
:100790005A78682A9DF8312006D1012161F3C602FA
:1007A0008DF831209F1CCCE71346022262F3C6036A
:1007B0008DF83130C5E75A786C2A9DF8312001D187
:1007C0000421EBE713460322F0E705229DF83130C0
:1007D000ECE707229DF83130E8E7BDF8303023F42C
:1007E000F04323F0020343F4804343F00203ADF8E7
:1007F0003030A6E7A2F15801202900F2848001A040
:1008000050F821F0C908000007090000070900009E
:100810000709000007090000070900000709000098
:10082000070900000709000065070000070900002C
:10083000C90800008908000065070000650700007E
:10084000650700000709000089080000070900008B
:10085000070900000709000007090000D10800008F
:10086000C9080000ED0800000709000007090000A2
:10087000ED08000007090000C90800000709000092
:1008800007090000C908000001209DF8321003F09C
:10089000780360F30201402B8DF8321002BF9DF8FF
:1008A000301041F001018DF83010632A31D1003B46
:1008B00018BF01239DF83020C2F340010B4363F3BE
:1008C00041028DF83020D8E602209DF83210DEE794
:1008D00003219DF8322003F07803A3F1400061F377
:1008E000020243428DF832204341E3E703219DF8A1
:1008F000322013F0780F61F3020214BF01230023AA
:100900008DF83220D6E79DF8303043F001038DF8A2
:1009100030300023CEE79DF93020002AACBF4FF0E5
:10092000FF39DDF83490BAE69B077FF5C7AEDDF8F6
:1009300038800023CDE90D339DF832309DF8311019
:1009400003F00703012BC1F3C30138D1CB1E042BE5
:1009500022D8DFE803F003090921210054F8043B01
:10096000DA17CDE90A3206E0073424F00704F4E888
:100970000223CDE90A239DF8303013F0030656D048
:100980003B4652465946029801F0A6FF0028C0F2A5
:1009900042810544BA46D9E554F8043B01294FEA9F
:1009A000E372CDE90A3205D19DF828300A9300237D
:1009B0000B93E0E70229DED1BDF92830D0E7022B06
:1009C00023D1CB1E042B13D8DFE803F0030A0A124D
:1009D000120000232268201D0A920B930446CAE7E6
:1009E000E01D20F00700F0E80223CDE90A23F5E737
:1009F00054F8043B01290A934FF000030B93D3D022
:100A00000229B8D1BDF82830D0E7042B09D1E31D65
:100A100023F0070303F10804D3E90023CDE90A23F7
:100A2000A9E7032B04BF54F8043B0A93A3E79DF8FE
:100A300033007828AED8622822D825283FF48FAD1D
:100A40005828A7D1DDE90A010DF1260300930CAA6D
:100A500004AB01F0FBFE8246B8F1000F0DF1260059
:100A60000CDB9DF83020A0EB0A036FF3861298454B
:100A70008DF8302002D9A8EB03030D9380463DE0AA
:100A80006338152886D801A252F820F00D0B00001B
:100A9000710B000095090000950900009509000000
:100AA00095090000710B00009509000095090000F0
:100AB0009509000095090000CB0B0000990B000080
:100AC0009D0B00009509000095090000E50A000053
:100AD00095090000990B0000950900009509000098
:100AE000990B0000B8F1000FDDF828A00ADB4146A1
:100AF000504601F08AFF00260AEB0008BAF1000F09
:100B00000CD147E7504601F079FFF4E700260A9B35
:100B10000DF1100A8DF810300DF11108A8EB0A0341
:100B200006B101339DF83220D00668D50233520653
:100B30000D9948BF0E9A0B4448BF9B18B9F1000F9E
:100B400076DD9DF83020A9EB0309C2F380030393FF
:100B500053076DD4500661D546B159463046029BC5
:100B60009847002857DB039B01351E46302356E08B
:100B70001E070FD413F0100618BF2026DDE90A2344
:100B8000002BBFF65FAF524263EB43032D26CDE946
:100B90000A2357E72B26F1E7002653E70A9840B3CC
:100BA0000DF126030093002104AB0CAA01F04EFEC8
:100BB000BDF83230824603F0EF0343F4F04343F0D4
:100BC00010030026ADF8323046E70A9B07293FF6AE
:100BD000E1AEDFE801F00C04060C08080C0C1D70F7
:100BE000D8E61D80D6E6EA17C3E90052D2E61D60BA
:100BF000D0E6DFF8C8A006460AF105088EE711071F
:100C000048BF013393E7184603935946029B984720
:100C10000028039B04DA11B0BDE8F08F20234D4477
:100C20004A46002AA5EB090109F1FF39EBDC0D4624
:100C300036B159463046029B98470028EBDB013518
:100C40009DF83230D90601D41A0706D5594630200E
:100C5000029B98470028DEDB01359DF83230DB0629
:100C600007D559469DF83300029B98470028D2DBF0
:100C700001350D9E2E44731B002B16DC4346524655
:100C80005946029801F028FE0028C4DB0544A94417
:100C9000A9EB0503002B7FF77DAE59462020029B70
:100CA00098470028B7DB0135F2E759463020029B10
:100CB00098470028AFDB0135DDE700BF08390000A9
:100CC000044608B54FF02002EFF3118382F3128837
:100CD000BFF36F8F02F05FF9204600F079FA034806
:100CE00001F09DFD00F00AF8FCE700BF0E3900009E
:100CF000014910220A60704710ED00E072B64040D2
:100D000080F31188BFF36F8FBFF34F8F30BF62B690
:100D1000BFF36F8F704700BF43B2002B08DB012287
:100D200000F01F0002FA00F0024A5B0942F82300BB
:100D3000704700BF00E100E043B2002B01F1010168
:100D4000ACBF03F16043064B4FEA4111C9B2ABBFE0
:100D500003F5614300F00F0083F800131954704746
:100D600014ED00E0034808B501F059FD0020FFF73D
:100D7000A7FF00BF46390000014B024A1A607047C6
:100D800004000030650D000008B5034B1B68984750
:100D9000BDE8084000F0C4B80400003030BFFFF7E1
:100DA000FDBF00BF0F4A08B50F4B22F07F029A60CB
:100DB000BFF34F8FBFF36F8FD3F8882022F47002F8
:100DC000C3F88820EFF3148323F0040383F314881B
:100DD000BFF36F8F01F0F8F801F0CAFB00F0D6F90D
:100DE00001F0FCF80000000000ED00E0094A0A49AB
:100DF000936809685867996708494B6843F08053BE
:100E00004B60002383F31188BFF36F8F9368986F53
:100E1000704700BF44020030D438000000ED00E00D
:100E200013498A684FF030001044EFF3098C80E8D2
:100E3000F01F202080F31288BFF36F8F0D4F4FF00B
:100E400000668A698A603E60506F0023536780F3B2
:100E5000118802F1300090E8F01F8CF3098802F14C
:100E6000000004B501F07AFDBDE8044070470000C1
:100E70004402003004ED00E01EF0040F0CBFEFF35D
:100E80000880EFF30980816911F8021C0229FFD064
:100E900001B501F05BFD01BD42F8203C009B0B4910
:100EA00042F81C3C019B21F0010142F8183C029BD6
:100EB00042F8081C42F8143C4FF0807342F8043C9E
:100EC0000023203A02654367704700BF39280000BD
:100ED000084B9860436E83F30B88104681F30988B2
:100EE000002163B681F31188BFF36F8F00220023C6
:100EF00001F0A2FC4402003001B5EFF30580A0F13F
:100F000010004FEAC0000449014409C99847BDE8F0
:100F1000014002490847000030350000210F000061
:100F2000044B99689869884203D003494FF0805276
:100F30000A6070474402003004ED00E0134BD3F820
:100F4000E820D3F8E420D3F8E420D00715D4D3F870
:100F5000E420910711D4D3F8E42052070DD4D3F83C
:100F6000E420100709D4D3F8E420D10605D4D3F83F
:100F7000E420920658BFD3F8E430044AD2F8E430B3
:100F800043F0FF03C2F8E430704700BF00ED00E01B
:100F9000094B9A6A9A6A986A9A6A9A6A9A6A9A6AE3
:100FA0009A6A10F480106FEA02426FEA124218BF88
:100FB00002209A62704700BF00ED00E00D4B9A6A74
:100FC0009A6A9A6A920508D59A6B9A6A120404D5AD
:100FD00018B19A6A22F400429A620020054B9A6A7C
:100FE0009A6AD20558BF9A6A9A6A42F47F429A6214
:100FF0000870704700ED00E00E4B9A6A9A6A9A6A90
:10100000920708D55A6B9A6A120604D518B19A6AE3
:1010100022F080029A620020064B9A6A9A6A9A6AC3
:10102000D20658BF9A6A9A6A42F0FF029A62087022
:10103000704700BF00ED00E070B5484B0D465B689F
:1010400000268AB0C3F3080386F31188BFF36F8FBD
:1010500002F07F41B1F17F4F1CD112F0010118D095
:10106000540602F0080173D482F00402C2F3800631
:1010700061B1EFF389850022033B8DF80720042B33
:101080005FD8DFE803F00954584A5C00EFF3888525
:10109000F1E70E463546EEE7304BDC6A14F0020409
:1010A0004FD1DA6A002A14DBDA6A520011D5AA6934
:1010B00032F8021C4DF60272914209D093F82820B2
:1010C000FAB101200DF10701FFF796FF044600E099
:1010D0002C689DF8073093B92022294602A801F018
:1010E000AEFC099B7EB3C3F3080222B96FEA532317
:1010F0006FEA43230993204602A901F025FC0AB0B8
:1011000070BD93F829202AB101200DF10701FFF7E6
:1011100055FFDBE75A8D92B212B1FFF739FFD5E7E1
:10112000D3F8E430002BD4D0FFF708FFD1E700203C
:101130000DF10701C8E700200DF10701E7E7FFF710
:10114000FDFE0024C5E723F4FF7323F00103D1E77C
:10115000002990D1054601268DE700BF00ED00E093
:10116000044B5A6942F010025A615A6942F4806293
:101170005A61704700ED00E0EFF30880EFF309815A
:1011800001B57246FFF758FF01BD00BF00232021C3
:101190000348C21801333C2B82F80013F9D1704781
:1011A00000E100E0202080F3118808484FF400613E
:1011B000401880F30988EFF314800221084380F37C
:1011C0001488BFF36F8FFFF7EDFD0000C0070030FC
:1011D000BFF34F8F0549064BCA6802F4E062134320
:1011E000CB60BFF34F8F00BFFDE700BF00ED00E015
:1011F0000400FA05064B9B68834207D1EFF3058391
:1012000023B1044A536843F08053536001F05EB940
:101210004402003000ED00E01FB5094C094A2346A6
:101220000121094800F0F2F800230393074B012144
:10123000E41A01A80193029400F0F2F804B010BD82
:10124000000001300000003060370000380000303E
:1012500010B50B680C7A23F01F0204F01F031A4329
:10126000CB68640923F01F03054943EA440343F0B4
:101270000103C1F89800C1F89C20C1F8A03010BD4E
:1012800000ED00E02DE9F04F0F46144606464FF002
:101290000008524D85B0B84509DAD6F80490B9F186
:1012A000000F3BD0B9F11F0F05D86FF01504204691
:1012B00005B0BDE8F08F19F01F0FF6D1D6F800A0E9
:1012C0001AF01F0FF1D1504601F04CFB834609EB99
:1012D0000A00013801F046FB8345E6D11BF1160FE9
:1012E000E3D0631E5B45E0DBC5F898B0D5F89C10F1
:1012F000C5F898B0D5F8A03021F01F0143F01F0ABF
:10130000D6E900321A44994202F1FF391ED1CA458A
:1013100008D131465FFA8BF001F02DFB08F101088E
:101320000C36B8E73146C5F898B0D5F89C3022F0B5
:101330001F0203F01F031A43C5F89C20E0B201F01E
:101340001AFB10F1160FB0D0441CE7E7013BCA4569
:10135000E0B223F01F03C5F898B008D1D5F8A0205B
:10136000314602F01F021343C5F8A030E7E7D5F875
:10137000A01001F01F010B43C5F8A030314601F069
:10138000FAFA10F1160F90D0C5F898B0D5F89C2055
:101390009DF808300AF1FF3A62F304038DF8083033
:1013A000D5F8A0309DF808205B0863F347128DF84C
:1013B0000820D6E900321344009323F01F03411C98
:1013C0005344A3EB0903C8B223F01F030728039378
:1013D0003FF66BAF6946FFF73BFFB5E700ED00E076
:1013E0000522044BC3F89420BFF34F8FBFF36F8FD8
:1013F000704700BF00ED00E0BFF35F8F0022024B9B
:10140000C3F89420704700BF00ED00E010B5034C16
:101410002278FFF737FF207010BD00BF7802003040
:101420002DE9F74F294D8A4606464FF00008AB4696
:10143000274FD0451BDAD6F80490B9F1000F3FD002
:1014400031680846019101F08DFA0199044609EBD3
:101450000100013801F086FA84424FF014021D4B5E
:1014600008D06FF0150302FB08F84BF8083003B002
:10147000BDE8F08F14F1160F2C60F8D01978A14256
:10148000F5DD02FB08B0C7F89840C7F89840D7F8D8
:101490009C4000F10801007B64F304000871D7F858
:1014A000A0000C79400860F347140C71D7F89C1029
:1014B00021F01F016960D7F8A01021F01F012961F8
:1014C00008F1010814350C36B3E700BF40010030C5
:1014D00000ED00E07802003038B50E4D2C68082C85
:1014E00015D80020FFF788FF0B4B0C4AC3F8C0202B
:1014F000844205D10A4B00201C70FFF771FF38BDF4
:10150000696801EB0011FFF7A3FE0130F0E74FF02F
:10151000FF30F4E76C37000000ED00E0AAFF440064
:1015200078020030014B1860704700BF080000309F
:101530000239012902D8034B1B6818474FF0FF30CE
:10154000704700BF080000300FB407B504AB53F874
:10155000042B022104480193FEF7F0FF03B05DF86D
:1015600004EB04B0704700BF6D2A000070B54FF067
:101570002003EFF3118683F31288BFF36F8F4FF0D0
:10158000FF322024314B324D9A62DA62314B3248BD
:10159000C3F8C84000F064FA304800F039FA284631
:1015A00000F05EFA284600F089FA00220121204668
:1015B00001F0F8FC2A4800F02BFA4FF0A0444FF459
:1015C00000534FF44670C4F8203200F021FA254849
:1015D00001F034FD40F21C4000F01AFA224801F0FC
:1015E0002DFDD4F8183A1A2043F04003C4F8183AF5
:1015F0004FF08063C4F8203201F020FD40F2034038
:1016000000F006FA40F2044000F002FA40F2054011
:1016100000F0FEF940F2064000F0FAF940F207400F
:1016200000F0F6F940F21A2000F0F2F940F21B2027
:1016300000F0EEF90D4800F0AFFBFFF79DFB86F3DD
:101640001188BFF36F8F002070BD00BF00ED00E078
:1016500000D8B80500000250001BB7000891100028
:10166000089410000F0001001C0002000040005010
:1016700010B5114C40F2011220461D2101F0F8F97D
:10168000204640F201121E2101F0F2F920460B4CD7
:101690004FF48952052101F0EBF920464FF48952AD
:1016A000122101F0E5F920464FF48952092101F099
:1016B000DFF9002010BD00BFA03400008834000016
:1016C00008B50848084B186001F0E3FD38B1074839
:1016D000FFF728FF0548FEF71DFF002008BD6FF04B
:1016E0001200FBE7D034000054010030F116000076
:1016F0000A2838B50446074D04D1286883680D21AF
:101700005B68984728688368E1B25B689847204621
:1017100038BD00BF540100302DE9F8434668540439
:101720000D46D6F8109007D5716809F5006451F898
:101730002410E940C90708D4B2F5804F08D0B2F5AB
:10174000A03F0DD0B2F5005F30D06FF085002BE0E8
:10175000B3F5802F2CD0B3F5003FF6D1102707E06A
:10176000B3F5802F26D0B3F5003F0CBF0227032727
:10177000036903EB050898F80C20012A32D10022F6
:10178000D86C03F12C0182420CD051F8044BB4F117
:10179000FF3F11D003EB82034FF0FF3214F1160F1D
:1017A000DA620BD16FF00F00BDE8F8830027DFE7A6
:1017B0001227DDE70127DBE70132E4E7124801F0F9
:1017C0004FFC1F2C94BF043C1C3C09F5C002214671
:1017D0000D4805EB421201F04AFC0B4801F04EFCAB
:1017E00088F80C40094C237823B9B06800F0D4FA8B
:1017F00001232370B0683A46054B98F80C1000F0AE
:101800000BFB0020D0E700BF0060005079020030E1
:10181000512D00004FF0E0239A69196910B511F4B9
:10182000803F98690849094B01D1824206D21A6863
:101830000C6822441A604FF0E02212691B680A68A3
:101840001344181A10BD00BF080200300C0200300B
:1018500008B5FFF7DFFF0C4B0C4A18681168084405
:10186000106000224FF416511A60094A1368C01A1A
:10187000B0FBF1F001FB0033136000F059FFBDE84D
:101880000840FFF74DBB00BF0C02003004020030DF
:10189000000200302022094B002083F8232042F26E
:1018A0007F52074B1A60074B18604FF0E0235A61D4
:1018B00098611A6942F007021A61704700ED00E072
:1018C000080200300C020030F8B5324D59B1431C0B
:1018D00009D14FF0E022136923F0010313614FF0A7
:1018E0007F432B60F8BD40F2D263B0F1FF3F08BFE9
:1018F0001846441E002C2F6832DD9C42A8BF1C46AF
:101900004FF02003EFF3118683F31288BFF36F8F3C
:10191000FFF780FF4FF0E02300221F49D3F818C0E3
:101920000B6818441D4B08601A601D4B1B68C21AD7
:1019300018D54FF480632B604FF0E0222C68936938
:10194000013C546100249C4538BFBC44ACEB030C03
:1019500060449461086086F31188BFF36F8FC1E71C
:101960000024CDE74FF4165E0EFB042404F5155455
:101970003F34B4FBFEF41B1A0EFB0434B4F5806F45
:1019800004D9084B9C42D6D82C60D5E74FF480642C
:10199000FAE700BF08020030040200300C020030F9
:1019A0000002003000C3FF0010B54FF02003EFF33A
:1019B000118483F31288BFF36F8FFFF72BFF074B60
:1019C000074A1B6812689B1A034484F31188BFF30B
:1019D0006F8F4FF41650B3FBF0F010BD04020030CF
:1019E0000002003010B54FF02003EFF3118483F3B1
:1019F0001288BFF36F8FFFF70DFF044B1B6818446D
:101A000084F31188BFF36F8F10BD00BF0402003054
:101A1000B0F1004F10B51DD00221104CD0B1C0F371
:101A20000B039BB1DAB23F2A4FEA132308BFD4F865
:101A3000982003F1FF33DBB215BF9200134302F18C
:101A4000A042C4F8983018BFC2F8603201294FEAAA
:101A5000103000D110BD0121E0E700BF00000250AE
:101A6000124B984205D0124B984202D0114B98422B
:101A700019D14FF0A0434FF00062C3F84821C3F8DA
:101A80002822202203F50033C3F8C820094B9842CE
:101A9000094B4FF000001A690CBF42F0804242F43B
:101AA00080421A6170470120704700BF001BB700D9
:101AB000006CDC0200D8B805003001502D4B984274
:101AC00041D92D4B984240D92C4B98423FD92C4BB1
:101AD00098423ED92B4B98423DD92B4B98423CD94A
:101AE0002A4B98423BD92A4B98423AD903F53703FF
:101AF00003F5D853984236D9264B984235D9264B10
:101B0000984234D9254B984294BF0B200C201F22B9
:101B1000234BC3F8E82FD3F8802022F00F020243B2
:101B2000C3F8802002221A60D3F8E02F5207FBD5B9
:101B30004FF0A042D2F8003423F4704343EA00305F
:101B4000C2F8000470470020E1E70120DFE702202F
:101B5000DDE70320DBE70420D9E70520D7E70620EF
:101B6000D5E70720D3E70820D1E70920CFE70A20EF
:101B7000CDE700BFC0D8A70080B14F01408AF70170
:101B800000639F02C03B47038014EF0340ED9604BF
:101B900000C63E05C0C2DA0680A4BF0780D1F008A7
:101BA00000400350034B1869034B10F4804018BFEA
:101BB0001846704700300150001BB7004FF0A0439B
:101BC000D3F8180A024B10F0400018BF18467047AF
:101BD00040420F00034B186A10F080701CBF024B8C
:101BE00018687047003001500C000030034B186932
:101BF000034B10F0804018BF18467047003001506A
:101C000000D8B8050C4BD3F8B820500603D4D3F84D
:101C10009820D1070BD5D3F8B82012060AD4D3F8F0
:101C2000980010F0010018BF4FF4004070474FF4C7
:101C30000040704700207047000002504FF0A04362
:101C4000D3F88402032821D8DFE800F002191C1E13
:101C5000D3F880220AB9FFF7A5BFD3F88022012A62
:101C600001D1FFF7B7BFD3F88022022A01D1FFF7D5
:101C7000A5BFD3F88032032B09D1FFF7B7BF044BC0
:101C800018687047034BFBE7FFF7BCBF00207047A5
:101C900014020030180200304FF0A042AC3008B5FA
:101CA00052F82030062B28D8DFE803F0040811157D
:101CB0001C202300BDE80840FFF7C0BFD2F8C403D2
:101CC0000F4AC0B2431C1068B0FBF3F008BDBDE87A
:101CD0000840FFF767BFFFF789FFD2F88833DBB210
:101CE0000133F1E7BDE80840FFF768BF054B18680E
:101CF000ECE7BDE80840FFF785BF0020E6E700BF3E
:101D000014020030100200304FF0A04208B5D2F8A3
:101D1000D032062B25D8DFE803F0040811151C2467
:101D20002000BDE80840FFF789BFD2F8C4030E4A7F
:101D3000C0B2431C1068B0FBF3F008BDBDE808401A
:101D4000FFF730BFFFF752FFD2F88833DBB2013321
:101D5000F1E7BDE80840FFF731BFBDE80840FFF7F5
:101D600051BF0020E9E700BF140200300120084BFA
:101D700033F811301A0ADBB200FA03F34FF0A04037
:101D8000883240F82230034B53F8210001F056B955
:101D9000D83800006038000038B51B4B0446984224
:101DA0004FF0000325D00221184AC2E90033002574
:101DB00006202B4603EB43020832013300FA02F2FD
:101DC000994245EA0205F5D80F4B9C4208BF4FF4F3
:101DD00080224FF0A04315BF4FF0804212200C48E4
:101DE000C3F8202218BFC3F8282201F027F9256381
:101DF00038BD084A0821C2E90033C2E90233C2E90A
:101E00000433C2E90633D2E7004000503C02003000
:101E10001E0002001C02003030B501240F4D8C4022
:101E2000A8420CBF0E4D0F4D12F0100FC46104629A
:101E300045F8213014BF21460021036812F0110F2C
:101E400023EA040343EA0103036014BF8460C4600F
:101E500093074CBF4461846130BD00BF0040005017
:101E60001C0200303C02003003460020044A52F8B5
:101E7000041B994202D001300928F8D1704700BFF5
:101E80007838000038B50C460546FFF7EDFF012114
:101E9000194B33F810301A0ADBB201FA03F34FF092
:101EA000A041883241F82230144B53F8200001F051
:101EB000C5F844B1042C14D8D5F8F83FE21CD3403F
:101EC00013F0010F14D0D5F8F83F1B0705D5D5F84E
:101ED000F83F03F00703A3420CD10020C5F8F84FE8
:101EE00038BD052C04D1D5F8F83F13F0800FE9E791
:101EF0000320F5E70120F3E7E03800009C380000FC
:101F00000E4B70B553F82040013053F82060A642C4
:101F100000D870BDD4E900352846984765B1EB6814
:101F200030B10028B8BF4042FF28A8BFFF2018707A
:101F30005A7842F001025A700834E8E7C0380000CD
:101F40000023012210B586B0CDE904230F22CDE98C
:101F50000232182201930B4B0B4C02FB00334FF45F
:101F6000A0720A4904EBC01402FB00110093204642
:101F7000074B00F0AFF8637B23F00403637306B0F4
:101F800010BD00BF44020030380000308006003031
:101F9000F5320000012208B5094B02201A70FFF744
:101FA000AFFF01F043FA0320FFF7AAFF00F0C2F8E9
:101FB000FEF74CFA034A137B23F00103137308BDA9
:101FC0007A020030B80000300248034A0021121A99
:101FD00000F040BD380000307C02003080B5354B49
:101FE000A6B003F5006787F3088883F30A88002406
:101FF000E023314D314E85F82230EC772C766C762B
:10200000AC7685F82040EC766B6ADFF8B49043F448
:10201000E0236B626B6A43F400236B62AC63EB6892
:102020009BB243F0BF6343F40833EB60FFF798F8CB
:10203000FEF75EFE4FF0FF33AB62EB62FFF74CFA48
:10204000FFF7EAF840F20113ADF8243006ABB360B5
:10205000CDE91F4401F01CF92046FFF751FF012094
:10206000FFF74EFF00F020FA164B174D05930123A2
:1020700016494FF48062CDE9034328464B46CDE92B
:1020800001440094B56100F025F880466A7B28463B
:1020900022F004026A7301F067F92046FFF750FF4F
:1020A0000B4B4A4641462846F36034757760FEF78D
:1020B0000FFF00BFC007003000ED00E04402003019
:1020C000951F00009B390000B800003080020030EE
:1020D000380000302DE9FF410E9E00F158050673CF
:1020E0000426C0E916550025044646730D9EC0E936
:1020F00006558673D61D0C9A26F00706C0E91916F8
:102100008560C573C56602920B9A01EB06080192C1
:102110000A9A00924246FEF7BFFE054B65659B6832
:1021200003B11B6F4046236704B0BDE8F08100BFD8
:1021300044020030F0B5224C224D87B02646AE4214
:1021400004F130040BD300F091F80A261C4C1E4F0A
:10215000AC4220D307B0BDE8F04000F089B954F894
:10216000043C54E90C01059354F8103C049354F8D2
:10217000143C039354F8183C029354F81C3C01930C
:1021800054F8203C009354E90A23FFF7A3FF54F8C6
:10219000303C5E65D2E7626A531C09D022EAE272E3
:1021A00082FB062352EA0301206803D100F042F9C2
:1021B0003034CDE73946183000F040FAF8E700BF78
:1021C00034000030340000308933000010B5084C72
:1021D00023685BB1FFF7E8FB03462068054A034428
:1021E0000021BDE81040136101F006B910BD00BF29
:1021F000700200304402003010B54FF02003EFF3BE
:10220000118483F31288BFF36F8F00220B4B90422F
:102210001A614FF00A030A4A00FB03F309DC13605A
:10222000084B1960FFF7D2FF84F31188BFF36F8F5B
:1022300010BD022BB8BF0223F1E700BF44020030FB
:10224000700200306C02003049B9EFF3058030B9FC
:10225000054B9A699B689A4201D0FEF7C7BD81F38E
:102260001188BFF36F8F7047440200304FF0200396
:10227000EFF3118183F31288BFF36F8F044B9A68D9
:10228000D37B013BD37381F31188BFF36F8F70470A
:102290004402003038B502460C4801F05FF80C4D9E
:1022A000044600B9EC68AB684AB95A7BD20606D13D
:1022B000A26922B9DA897F2A01D9AB6138BD9C4273
:1022C00001D0FFF783FFAC61F8E700BF6002003088
:1022D0004402003070B590F90D200146002A437B7E
:1022E00004DA03F07F03437301F010F84B7B154AC7
:1022F00063F07F034B7302F11C05D2E90734AB4254
:102300001BD0D3B191F90E6093F90E0086420FD025
:10231000801B00280CDD5868C1E90030016059605D
:102320009068BDE87040431A58425841FFF7B2BF69
:10233000A34202D01B68002BE6D1C1E90054216002
:102340001162EDE744020030014638B54FF020033A
:10235000EFF3118483F31288BFF36F8F154B164A86
:1023600098681568A84206D1FFF730FF84F31188FA
:10237000BFF36F8F38BD00251560104A1268BAB1DF
:10238000C2897F2A14D8427BD20611D10C4A90F917
:102390000E50126895420BDB0A4A904208D01A6927
:1023A0008A4202DCFFF796FFDEE7521A1A61DDE788
:1023B0000022FBE744020030680200307002003067
:1023C0006C0200303800003070B490F90D20437B6F
:1023D000002A2ADBDA0628D1826932BB144A63F06C
:1023E0007F03437302F11C05D2E90734AB4217D0D7
:1023F000B3B190F90E6093F90E108E420BD0891B89
:10240000002908DD5A68C0E90032106058600020D9
:1024100070BCFFF73FBFA34202D01B68002BEAD17C
:10242000C0E9005420601062F1E770BC704700BF43
:102430004402003010B54FF02002EFF3118482F314
:102440001288BFF36F8F427B510704D484F3118845
:10245000BFF36F8F10BD22F004024273FFF7B4FF89
:102460002146BDE810400148FFF7EEBE7B02003078
:1024700010B54FF02003EFF3118483F31288BFF3FC
:102480006F8F084B00209A68D37B0133D373FFF71B
:1024900001FF84F31188BFF36F8FBDE8104000F097
:1024A00053BF00BF440200300021044B084603F133
:1024B0001C02C3E90722FFF79FBE00BF44020030A1
:1024C000014B9868704700BF440200302DE9F0418D
:1024D00004464FF02003EFF3118683F31288BFF315
:1024E0006F8F437B1A0705D586F31188BFF36F8F73
:1024F000BDE8F08123F0200242F00801D20920D18A
:102500004173A36813B1204600F008FF04F11800DE
:1025100000F05CFF4FF0000804F15807A56DBD42C4
:1025200000D0B5B90120FFF7B5FE104B9B68A34260
:10253000DAD1EFF30583002BD6D13046FEF756FCF7
:10254000D2E703F05F0343F00803437300F0DEFEBD
:10255000D7E7284600F0E2FE05F1180000F036FF4C
:102560002846C5F87880FFF72FFFD7E744020030F0
:1025700008B50648064A0749121A00F060FABDE895
:102580000840054A0549064800F059BA00000030E5
:1025900034000030A039000000000000A039000025
:1025A00000000030034B1B680BB9FFF7FDB900209A
:1025B000704700BF74020030114B10B51C689C427C
:1025C00008BF0024FFF7EEFF03466CB1D4E9040214
:1025D000C01A62EBE373012873F100020DDBB0F166
:1025E000004F73F1000301DB6FF00040054B1B69E6
:1025F00013B19842A8BF184610BD0020F6E700BFEF
:10260000100000304402003030B5036868B10A4A57
:102610005268904209D043B1D3E90421D0E904457E
:10262000121941EB0501C3E90421426813605A60A5
:102630000023C0E9003330BD10000030B3F1FF3F8C
:1026400008BFB2F1FF3FF8B504461F46154667D0F4
:1026500081604FF02003EFF3118683F31288BFF3FC
:102660006F8F6FF001024FF0FF3C531B6CEB0703C1
:10267000002B1BDB2B4BD3E90013521A6CEB03032B
:10268000551B63EB0703012D73F10002BCBF01254D
:102690000023C0E904532448D0E9003C834218D108
:1026A000C4E9000CCCF80040446026E0FFF77AFF54
:1026B000013547F100072D1847EBE077C4E90457CF
:1026C000E9E7521A65EB07059C45C4E90425E7D004
:1026D0001B68002BE4D0D3E90417D4E904258A420F
:1026E00075EB070EEDDA8A1A67EB0505C3E90425D9
:1026F0005A68C4E9003214605C60036883420BD0FE
:102700009C4209D1FFF758FF18B1084B1B6983425F
:1027100002D00021FFF7D8F886F31188BFF36F8F3E
:10272000F8BD00BF38010030100000304402003016
:102730002DE9F8430546FFF707FE4FF02003EFF3BE
:10274000118483F31288BFF36F8F244EDFF89080DB
:102750003560244DD8F80000326840454FEAE277F2
:10276000D5E9001E0BD050B1D0E9043C9A4277EB7A
:102770000C0916DA9B1A6CEB070CC0E9043C5218E2
:102780004EEB0707C5E9002700253560FFF714FF6A
:102790002946FFF799F884F31188BFF36F8FBDE8DE
:1027A000F88359184EEBE377D31A336000220023E5
:1027B000C0E90423C5E90017FFF726FF84F3118859
:1027C000BFF36F8F836898474FF02003EFF31184B6
:1027D00083F31288BFF36F8FBCE700BF7402003031
:1027E000100000303801003038B5044678B1FFF7EA
:1027F000F9F8054606480023A4FB0001054AFDF749
:1028000097FC0446FFF7EEF8431BA342FAD338BD0A
:1028100000D8B80540420F007047002070470FB441
:1028200007B504A951F8040B0191FDF779FE03B037
:102830005DF804EB04B07047044608B5084611463D
:102840001A46A047FFF73CFEFEF7D4FC2DE9F84FEF
:102850009A46D37880466F2B0F461546A3F1410B5D
:1028600029D024D8582B14BF0A261026DDF828902A
:102870003246002340463946FDF75AFC092AD4B2B5
:102880001ED83034B045E4B277F1000309F8014DA9
:1028900001D3D14511D82B789B0605D5082E15D12B
:1028A000AB7843F00803AB704846BDE8F88F03F0FF
:1028B000F703702BD7E70826D8E780460F46D7E7FF
:1028C000BBF1190F94BF37345734DBE7102EEBD12F
:1028D000AB7843F01003E6E72DE9F0410746884660
:1028E00015461E461446B442A4EB050002D33EB979
:1028F00023782BB1414614F8010BB8470028F2DACF
:10290000BDE8F0817047436800205B6843F82120F0
:102910007047436800205B6853F8213013607047AC
:102920006FF0850070470121436800201B881A0A58
:10293000DBB201FA03F34FF0A041883241F82230B4
:1029400070476FF08500704700F0B9BC0146006821
:1029500000F0B5BC00210120FFF7F6BF436E83F302
:102960000B88704740E800F313F4803FD8B208BFEB
:102970006FF0150070477FB50A894E890B684D6866
:1029800002F01F0242EA461200938DF8082023F05D
:102990001F036A1E134423F01F030728039304D860
:1029A0006946FEF755FC04B070BD6FF01500FAE7FC
:1029B00030B502780346202A00F10100F9D0A2F1D7
:1029C00009010429F5D92B2A08D02D2A0ABF03466C
:1029D0000021012100200A25013B06E003460021D9
:1029E000F8E7C2F1300205FB002013F8012FA2F135
:1029F0003004092CF5D901B9404230BD034600200E
:102A00001A5C02B970470130FAE7034600201A5CED
:102A10000AB1884200D170470130F8E7034610B58B
:102A20005AB10139841813F8010B11F8012FA34290
:102A300001D09042F7D0801A10BD1046FCE710B5C7
:102A4000431E0A44914200D110BD11F8014B03F816
:102A5000014FF7E70346C9B20244934200D17047E1
:102A600003F8011BF9E74FF0FF307047FEF760BD38
:102A700083681B681847002070470020704710B516
:102A8000144608290AD8DFE801F0050B0D0F1113D1
:102A900015171900002000F09FFA2060002010BDDB
:102AA0000120F8E70220F6E70320F4E70420F2E72C
:102AB0000520F0E70620EEE70720ECE7FFF724F912
:102AC000EBE70020704770B5436802F44074B4F53A
:102AD000407F5D68186939D0940737D412F0300F01
:102AE00010D0DB6801EB401453F8246026F0300668
:102AF00043F82460D60622D553F8246046F0200619
:102B000043F824600123140503FA01F144BF00F5E2
:102B1000086345F82310530544BF00F50A6345F8E0
:102B2000231000F5006055F8203012F4007F14BF28
:102B3000194323EA010145F82010002070BD9606D4
:102B4000E0D553F8246046F01006D9E76FF0850011
:102B5000F4E7436800205A681B6903F5046352F8E0
:102B600023300B607047406810B543680469C9435F
:102B7000002003EB840303F50053C3F88010C3F86F
:102B80008021C3F8800010BD436800205A681B698B
:102B900003F5086342F823107047436800205A6821
:102BA0001B6903F50A6342F823107047436800204D
:102BB0005A681B6903F50C6342F8231070470369D8
:102BC00030B5586858B10024814212D108689D6818
:102BD00054B98D42586000D19860002008606AB9ED
:102BE000002030BD2846EFE78D42206008BF9C6082
:102BF000F3E705680446002DF4D13AB15A689868A5
:102C00000A6059600028EBD19960EAE76FF015007F
:102C1000E7E7436810B5196904695868FFF7A6F833
:102C2000012104F10C0304F12C0203F8011B93426F
:102C3000FBD10023E36410BD38B50446FFF7E9FF7C
:102C40002569002202212020FEF776F82020FEF7D9
:102C500063F8EB6C02215A1CEA6405EB8305202320
:102C60000022EB6221202569FEF766F82120FEF79D
:102C700053F8EB6C02215A1CEA6405EB830521230F
:102C80000022EB6222202569FEF756F82220FEF78B
:102C900043F8EB6C24695A1CEA6405EB8305222394
:102CA0000022EB6202212320FEF746F82320FEF7E4
:102CB00033F8E36C00205A1CE26404EB8304232302
:102CC000E36238BD38B50446FFF7A3FF256900224B
:102CD00002210420FEF730F80420FEF71DF8EB6C0B
:102CE00002215A1CEA6405EB830504230022EB62EF
:102CF00005202569FEF720F80520FEF70DF8EB6C9E
:102D000002215A1CEA6405EB830505230022EB62CD
:102D100006202569FEF710F80620FDF7FDFFEB6C95
:102D200024695A1CEA6405EB830506230022EB6242
:102D300002210720FEF700F80720FDF7EDFFE36C06
:102D400000205A1CE26404EB83040723E36238BDCD
:102D50002DE9F84FD0F810A007465646D0F8048069
:102D60000AF12009347BA6EB0A0B012C04D10136B1
:102D70004E45F7D1BDE8F88FD8F808002146456ADE
:102D800000F063F9DAF804100029F0D025FA04F411
:102D900004F001040D6804FA0BF48A68224002D0A2
:102DA00038464B689847002DE1D029462D68F4E756
:102DB00043681B68D3F8042E520643BFD3F8303E55
:102DC00000200B704FF0FF30704743681B68D3F84A
:102DD000042ED206FBD5C3F8201E704741F24C6189
:102DE00043681A68D2F8043E0B4241F2506114BFA6
:102DF000012000200B4241F24F6118BF40F0020059
:102E00000B424FF0030318BF40F00400C2F8043E29
:102E10007047002370B54668D8B2141A002C05DD3F
:102E200034680133D4F8045EAD0600D470BD085C8C
:102E3000C4F8200EF0E7002370B54668D8B2141A23
:102E4000002C05DD34680133D4F8045E6D0600D42F
:102E500070BDD4F8304E0C54F0E7042243681B6870
:102E6000C3F8102E7047042243681B68C3F8142E61
:102E7000704743681B689868C0F3C0007047436898
:102E80001B68D3F8042ED3F8100E10F0040018BFFE
:102E9000C2F300107047082243681B68C3F8102E65
:102EA0007047082243681B68C3F8142E70474368B4
:102EB0001B68D3F8040EC0F3801070470F224368DC
:102EC0001B68C3F8102E70470F2243681B68C3F8B5
:102ED000142E7047012070470369C3E90012704740
:102EE000026913680BB1516818477047002208B592
:102EF0000E201146FDF720FFBDE808400E20FDF72B
:102F00000BBFF0B5446887B00746D4E901562846A0
:102F100000F0BFF920B96FF01506304607B0F0BDDC
:102F2000AB68DB68002BF6D031466A4628469847E6
:102F300006460028EFD1257C012D16D0022D18BFA2
:102F4000002501A800F0A1F840F201138DF8085007
:102F5000ADF80C30E368009A206801A9019300F0F5
:102F6000FEF8384663699847D7E70325E9E708B5CF
:102F70000146FFF784FF60B94B681B68D3F8103E29
:102F80001B0705D50846FFF792FF003818BF012040
:102F900008BD0120FCE74FF0E022136923F0010394
:102FA0001361704783000838072803F1A04306D84F
:102FB000090289B241F0FF01C3F8001370471AB14A
:102FC0004FF00052C3F8002321B94FF08042C3F8FC
:102FD000002370470139EFE710B50446FEF75CFEA9
:102FE000A30003F1A043D3F82023D3F8201302F465
:102FF0007F43CAB20132B3FBF2F30133B0FBF3F00B
:1030000010BD012283B29A40030C9B0003F1A04340
:10301000C3F82021D3F800111142FBD070470122E0
:1030200083B29A40030C9B0003F1A043C3F84021F4
:10303000D3F8001132EA0101FAD0704708B5FFF762
:10304000E0FFBDE80840FFF7EABF0123026803FA8A
:1030500001F10A42436A02D1194218BF4162704726
:103060004FF0A0434FF40062C3F820227047C2F330
:10307000130300EB8100120D835070474FF0A04303
:103080004FF40062C3F840227047142210B50021AB
:103090000446FFF7DFFC4FF480334FF4E132C4E91C
:1030A00000230023C4E90233237410BD2DE9F0434B
:1030B000044600284ED000294CD0002A4AD003688C
:1030C0001B050AD5006810F4804004D0B2FBF1F172
:1030D000013921620020BDE8F0834FF0FF350F2752
:1030E0004FF00A08AE463E4608FB02F94FEA011CC3
:1030F000B9FBFCF00538B0F5202F06F101030ED224
:10310000B0FBF8F000FB0333B2FBF3F3994234BF9A
:103110005B1ACB1A73453EBF054637469E46013EB5
:10312000072EACEB010CE3D16B1C07FB0333B2FBA6
:10313000F3F26423914234BF521A8A1AB1FBF3F1BD
:1031400001EB4101914207D3B5F5803F04D2A7625C
:103150002562BFE70420BEE741F25160BBE7F8B546
:103160000D4617460446002800F08D80002900F027
:103170008A80002A00F087800121FEF783FE064640
:10318000002872D16B7AD3B1D4F8003E43F001131A
:10319000C4F8003ED4F8083E23F47063C4F8083E37
:1031A0006B7BD4F8082E1B0203F470631343C4F83E
:1031B000083ED4F8083E43F00103C4F8083E2B7AD9
:1031C000D3B1D4F8003E43F00213C4F8003ED4F863
:1031D000083E23F47023C4F8083EAB7BD4F8082ED5
:1031E0001B0403F470231343C4F8083ED4F8083ECC
:1031F00043F00203C4F8083EEA7AE97BE879D30198
:1032000043EAC033880200F400600343287B89034B
:1032100043EA4023287901F48041000100F03000A6
:1032200003436879800100F040000343A8798000DF
:1032300000F00C0003430B43297C090301F4805187
:103240000B4343F001032968236082B14FF4165306
:10325000B3FBF1F35943B1F5165F16D12362AB7A94
:103260006BB1636843F4807363603046F8BD3A46DF
:103270002046FFF71BFF0028F1D00646F5E76368FC
:1032800023F48073F0E70426EFE741F25166ECE7A0
:10329000704738B1C3681888C0F30800A0F5807380
:1032A0005842584170474FF02002EFF3118382F3E8
:1032B0001288BFF36F8FFEE708B5FFF7F4FFF8B58C
:1032C00005460E464FF02003EFF3118783F3128873
:1032D000BFF36F8FFFF7F4F8314604462846FFF737
:1032E000EBFF87F31188BFF36F8F2046BDE8F840EE
:1032F000FDF780BF08B54FF02002EFF3118382F392
:103300001288BFF36F8FFDF7F9FCF4E7D0E90032C4
:1033100013605A600023C0E90033704708B5FFF717
:10332000F5FF437B23F0020343730023836008BD52
:10333000034620B9EFF305820AB9FDF757BD83F3C1
:103340001188BFF36F8F70474FF02003EFF31180A8
:1033500083F31288BFF36F8FFFF7EABF034600685D
:10336000834208BF0020704710B54FF02003EFF3F1
:10337000118483F31288BFF36F8FFFF725F884F36E
:103380001188BFF36F8F10BD014610B54FF02003B9
:10339000EFF3118483F31288BFF36F8F10F80B3CA7
:1033A00013F0280F0DD151F8103C18380BB1FFF76E
:1033B000B5FF11F80B3C23F0140301F80B3CFFF7A9
:1033C00003F884F31188BFF36F8F10BD10B54FF071
:1033D0002002EFF3118482F31288BFF36F8F03682A
:1033E0003BB1FFF711F9002084F31188BFF36F8F11
:1033F00010BD6FF01500F7E770B504460D464FF0AD
:103400002003EFF3118683F31288BFF36F8FFFF76A
:10341000D3F8012805DDA04203DB29462046FEF74C
:0E34200053FA86F31188BFF36F8F70BD7047AB
:02342E00FFFF9E
:0834300030CDFF7F0100000018
:103438006D150000000000002729000088340000F6
:1034480027290000A03400007116000000000000C9
:103458007B2A0000B8340000032F0000D03400009D
:1034680095180000E8340000392C000000350000F1
:10347800C52C000018350000C1160000000000002F
:103488003739000058370000403700001800003076
:10349800000000003A3700003F39000050370000B4
:1034A800403700001C0000300000000034370000E6
:1034B800713900000000000094370000200000303F
:1034C800000000002E37000086390000FC3700009D
:1034D800143800002C000030F801003024370000B8
:1034E80091390000000000000000000030000030AA
:1034F800000000002037000078390000C0370000C5
:10350800D837000024000030A80100301837000028
:103518007F390000A8370000D837000028000030A5
:083528005801003010370000CB
:10353000000000005529000000000000552900008F
:10354000000000005529000000000000552900007F
:1035500018350000512D000018350000512D0000D5
:1035600018350000512D000018350000512D0000C5
:10357000000000005529000000000000552900004F
:10358000000000005529000000000000552900003F
:10359000000000005529000000000000552900002F
:1035A000D0340000E12E000000000000552900008A
:1035B000000000005529000000000000552900000F
:1035C00000000000552900000000000055290000FF
:1035D00000000000552900000000000055290000EF
:1035E00000000000552900000000000055290000DF
:1035F00000000000552900000000000055290000CF
:1036000000000000552900000000000055290000BE
:1036100000000000552900000000000055290000AE
:10362000000000005529000000000000552900009E
:1036300000350000512D000000350000512D000024
:1036400000350000512D000000350000512D000014
:10365000000000005529000000000000552900006E
:10366000000000005529000000000000552900005E
:10367000000000005529000000000000552900004E
:10368000000000005529000000000000552900003E
:10369000000000005529000000000000552900002E
:1036A000000000005529000000000000552900001E
:1036B000000000005529000000000000552900000E
:1036C00000000000552900000000000055290000FE
:1036D00000000000552900000000000055290000EE
:1036E00000000000552900000000000055290000DE
:1036F00000000000552900000000000055290000CE
:1037000000000000552900000000000055290000BD
:10371000FF7FFF7FFF7FFF7FFF7FFF7FFF7FFF7FB9
:10372000FF7FFF7F0300FF7FFF7FFF7FFF7FFF7F24
:10373000FF7FFF7FFF7FFF7FFF7FFF7FFF7FFF7F99
:103740000729000013290000212900004329000057
:103750000D000000001000500D000000801000500F
:103760000000003000000000060001000200000020
:1037700074370000000000006239000006000000FD
:10378000E0D70900000000306A3900002100000085
:10379000E0FF0030772A0000C32A0000000000008C
:1037A0007F2A000000000000FFFFFFFF00C008505C
:1037B0000040005000100050000000000E0000000B
:1037C000FFFFFFFF00C008500040005000100050F5
:1037D000010000000F000000C72A0000532B00006A
:1037E000672B0000892B00009B2B0000AD2B0000F5
:1037F00019170000BF2B00000000000000600850F7
:10380000B83400000000000000C201000000000009
:10381000ED2E0000B12D0000CB2D0000DD2D0000AD
:103820000000000000000000132E0000372E0000F2
:103830005B2E0000672E00007F2E0000972E0000F8
:10384000A32E0000732E0000AF2E0000BD2E00003E
:10385000C92E00006F2F0000D52E0000D92E0000C9
:103860000E0000000F00000010000000110000001A
:10387000090002000A0002000060085000700850B1
:10388000008008500090085000A0085000600950C7
:10389000007009500080095000F009500B00010031
:1038A0000C0001000D0001000E0001000F000100DE
:1038B0001000010011000100120001001C000200B4
:1038C0003834000068340000703400008834000090
:1038D00088340000F5FFFFFF0E000F0010001100FC
:1038E0000B010C010D010E010F011001110112015C
:1038F0001C027B696E69747D00626175643A007BAD
:103900006368616E67657D00286E696C2900466199
:10391000696C656420746F207265626F6F743A2001
:103920007370696E6E696E6720656E646C65737323
:103930006C792E2E2E0A0070696F3040383000707E
:10394000696F304030004E4D49207265636569767D
:10395000656421205265626F6F74696E672E2E2E2A
:103960000A00464C4153485F30005352414D5F308E
:1039700000535953434F4E004750494F5F31004762
:1039800050494F5F3000464C4558434F4D4D5F30D6
:10399000007379735F636C6F636B006D61696E00B8
:1039A0001B2800009D0D0000672A00000024F40081
:0839B00010000030100000308F
:1039B80000000000000000000000000000000000FF
:0C39C800000000000000000000000000F3
:04000003000011A543
:00000001FF
