:100000008807002075130000013B00003113000039
:1000100000000000000000000000000000000000E0
:10002000000000000000000000000000E5110000DA
:10003000000000000000000085110000000000002A
:100040005512000055120000551200005512000014
:100050005512000055120000551200005512000004
:1000600055120000551200005512000055120000F4
:1000700055120000551200005512000055120000E4
:1000800055120000551200005512000055120000D4
:1000900055120000551200005512000055120000C4
:0800A00055120000551200008A
:1000A80002B4714649084900095649008E4402BC09
:1000B8007047C04602B4714649084900095C4900C6
:1000C8008E4402BC7047C04603B4714649084000DC
:1000D8004900095E49008E4403BC704703460B4340
:1000E8007FD4002243088B4274D303098B425FD329
:1000F800030A8B4244D3030B8B4228D3030C8B4255
:100108000DD3FF22090212BA030C8B4202D312123A
:10011800090265D0030B8B4219D300E0090AC30B0F
:100128008B4201D3CB03C01A5241830B8B4201D3BC
:100138008B03C01A5241430B8B4201D34B03C01AA5
:100148005241030B8B4201D30B03C01A5241C30A1D
:100158008B4201D3CB02C01A5241830A8B4201D38E
:100168008B02C01A5241430A8B4201D34B02C01A78
:100178005241030A8B4201D30B02C01A5241CDD21D
:10018800C3098B4201D3CB01C01A524183098B4268
:1001980001D38B01C01A524143098B4201D34B0151
:1001A800C01A524103098B4201D30B01C01A5241B4
:1001B800C3088B4201D3CB00C01A524183088B423B
:1001C80001D38B00C01A524143088B4201D34B0024
:1001D800C01A5241411A00D2014652411046704796
:1001E8005DE0CA0F00D04942031000D3404253409B
:1001F80000229C4603098B422DD3030A8B4212D35B
:10020800FC22890112BA030A8B420CD3890192118C
:100218008B4208D3890192118B4204D389013AD0C9
:10022800921100E08909C3098B4201D3CB01C01A9E
:10023800524183098B4201D38B01C01A52414309B1
:100248008B4201D34B01C01A524103098B4201D39F
:100258000B01C01A5241C3088B4201D3CB00C01A0C
:10026800524183088B4201D38B00C01A5241D9D224
:1002780043088B4201D34B00C01A5241411A00D2A5
:100288000146634652415B10104601D34042002BA1
:1002980000D54942704763465B1000D3404201B520
:1002A800002000F005F802BD0029F8D016E77047D5
:1002B8007047C0461C2101231B04984201D3000C3F
:1002C80010391B0A984201D3000A08391B099842C1
:1002D80001D30009043902A2105C40187047C046D7
:1002E80004030202010101010000000000000000F7
:1002F800002B11D1002A0FD1002900D1002802D0EB
:100308000021C943080007B4024802A1401802901E
:1003180003BDC0469DFFFFFF03B4684601B50298C0
:1003280000F034F8019B9E4602B00CBC7047C046F2
:10033800F0B5CE46474680B5070099463B0C9C462B
:1003480013041B0C1D000E0061460004140C000C65
:1003580045434B4360436143C0182C0C20188C461E
:10036800834203D980235B029846C44449467943B3
:100378007243030C63442D042D0CC9180004401962
:100388008918C0BCB946B046F0BDC046F0B557465E
:100398004E464546DE46E0B504000D0092469946B5
:1003A80083B08B4230D82DD04946504600F0BAF879
:1003B80029000600200000F0B5F8331A9846203BC3
:1003C8009B4633D45A465346934042461F005346F1
:1003D80093401E00AF423AD8AF4200D178E05B4666
:1003E800A41BBD41002B00DA75E000220023009217
:1003F800019301235A4693400193012342469340B7
:10040800009328E08242CFD9002200230092019372
:100418000C9B002B01D01C605D600098019903B013
:10042800F0BCBB46B246A946A046F0BD42462023D2
:100438009B1A5246DA40414613004A468A40170042
:1004480042461F43534693401E00AF42C4D9002280
:100458000023009201934346002BD9D0FB07720872
:100468001A4346467B080EE0AB4201D1A2420CD8A3
:10047800A41A9D41012024196D410021013E241830
:100488004D41002E06D0AB42EED9013E24196D41F4
:10049800002EF8D1009801995B4600196941002B9C
:1004A80024DB2B005A464446D3402A00E2401C0075
:1004B8005B461500002B2ADB26009E4033002600F1
:1004C8004746BE403200801A9941009001919FE74B
:1004D800A342BCD883E74246202300219B1A00226E
:1004E800009101920122DA40019286E742462023D8
:1004F8009B1A2A0046469A402300F3404446134379
:100508002A00E2401C005B461500002BD4DA424664
:100518002F002023260097409B1ADE403B003343E0
:10052800CDE7C04610B5002903D1FFF7C3FE203040
:1005380002E00800FFF7BEFE10BDC046F0B595B05A
:10054800254DAB681B69002B02D0280002A99847EB
:10055800FA26224800F04AFF0024B600AF683B683C
:10056800002BFCD06A462800D11D98470028F5D1F9
:100578006B460221D87903F038FB6B46DB797B2B7D
:1005880003D1002404AB1C70E8E77D2B1DD10522A4
:10059800134904A803F005FB0028DFD1153068448F
:1005A80003F0BDFA041EECDD300003F0D9FD02941F
:1005B800FB68002B02D0280002A99847300003F0FE
:1005C800CFFD084800F012FFDBE73E2CC6D804AA8E
:1005D80013550134C2E7C0466C420000684400006D
:1005E8006F44000075440000014B18607047C04616
:1005F80000000020F0B585B00192078B04003B078E
:100608000DD51023012900D020231F432783019BE8
:10061800002B02D162B6BFF36F8F05B0F0BD072380
:100628003B400393022908D1200003F061F9002818
:10063800EDD0238B012800D07DE06369268B0093E1
:10064800002B09DA0723002701229E4325686760EB
:1006580027601643268326E007233340591F0022CC
:10066800012959D825686260226007329643062B13
:100678000ED1002D0AD02A00638B01339BB2126879
:10068800190001339BB2002AF9D1618302231E436A
:100698002000268303F02CF90027B84203D020223B
:1006A800238B134323830723218B039A0B40029345
:1006B800934203D0A3680122002B04D10022954263
:1006C80001D1974219D008230B432383019B002BA8
:1006D80002D162B6BFF36F8F002A4CD1002D5BD1D7
:1006E800002F02D020003549B847EFF3108272B6C8
:1006F80001920822238B934323831022238B1342D6
:1007080052D00121934323830723278B3B40039334
:10071800002900D086E77AE715001700042BC2D11C
:1007280003339E432000268303F0E2F80028BAD062
:1007380020231E438EE7032807D122691768072262
:100748009343013A1343238307E0042808D122691D
:100758005768072293431843208300250095A2E792
:10076800052805D122699768072293430343EAE7DE
:1007780000252F00F2E7A1680029AFD00B6801938C
:100788004B6820001E00029A009BB047019B002B7B
:10079800A4D019001B68F2E729002000009B029AE8
:1007A8002D6803F0C1F899E720212022194013424F
:1007B800AAD0934302212383A6E7C04653390000F9
:1007C80070B504000E0003F0C9F8051E2EDBEFF328
:1007D800108372B60722208B618B1C4D0240A94200
:1007E8002ED0022A10D1013115006183002B05D1CA
:1007F800013362B6BFF36F8F002B17D0002331008F
:10080800200003F091F811E0810701D0062A0FD1EA
:1008180000213160616800290FD166602660151ECD
:1008280010D11A0002212000FFF7E4FE280070BD55
:100838000525052A05D1862503E00E606660EEE7EA
:100848000B256D42002BD4D0F0E7C046FFFF000017
:10085800F0B51E00002797B0059006910892089BF6
:100868001878002801D138002DE3089B013307933D
:1008780025280BD00699059B9847002800DA22E323
:1008880034000137079B26000893E8E710AC1822CC
:100898000021200003F09DF9089B5B78252B17D1D8
:1008A800089AE37202320792012210AB597A114278
:1008B80000D175E1340004CC0392002A00DB75E115
:1008C80004201A7A02431A72039B5B4203936DE178
:1008D80000221400944611000392079B1B782B2BCF
:1008E8006FD068D8202B72D0232B72D0002904D067
:1008F800042010AD297A014329726146002906D0E7
:1009080010AD297A8C460821604601432972002CD3
:1009180004D0102110AC257A2943217203990029AB
:1009280004D0202110A8047A21430172002A04D09F
:10093800402210A9087A02430A72442110A8027AB8
:100948001140442902D140218A4302728022017A4F
:1009580052420A43027200210A24079A2A2B41D1E3
:10096800437A01310B430132437214780225210086
:100978002E394B42594110A8437A4900AB431943D9
:1009880041722E2C46D153782A2B3ED000230132B7
:1009980008351178541C08003038092861D910A985
:1009A8001493087A840723430224DB0F5B00A043D7
:1009B80003430B722EE02D2B0ED0302B96D1012243
:1009C80001E001239C46079B0133079385E7012437
:1009D800F9E701230393F6E70121F4E72A006143CD
:1009E8003039C9181378551C180030380928F5D93A
:1009F800079B9342B9D0022410AB187A1391C90F00
:100A08004900A04301431972AFE70421437A023237
:100A18000B4343721178501C10AB6C2941D025D878
:100A280068292DD06A2948D04C2952D01000027864
:100A3800431C10A90793CA724B7A782A00D9A8E0F8
:100A4800572A4DD8412A03D0453A022A00D9A0E0B6
:100A5800072110AA937A8B4303390B43937201231E
:100A68006AE06B43303B2200CB1892E774292AD006
:100A78007A29DBD178215A7A8A43110030220DE095
:100A880051787824682906D1587A6039A0430143FF
:100A98005972901CCBE71022597AA1430A435A7223
:100AA800C5E7517878246C2903D1587A4C39A0438A
:100AB800EDE7597A1822A143F0E778215A7A8A4358
:100AC80011002822EAE778215A7A8A43110038224D
:100AD800E4E71A89AA491140AA4A0A431A81A6E7F3
:100AE80010005838202854D8FFF7DAFA33535353F4
:100AF8005353535353B2533311B2B2B253115353E6
:100B0800535339334753534753335353330007240D
:100B1800887AA043063C20438872782119404029EE
:100B280004D1012410A8037A234303720023632A03
:100B380002D14A1E9141CBB210AA117A8807C00F80
:100B48000343012003408340001881430B43137281
:100B5800AAE60724887AA04304000220DBE70720DE
:100B68008A7A82431000032202438A727822134051
:100B7800403B5A425341DBB2DEE707208A7A824380
:100B88001000032202438A72782213405A1E9341AE
:100B9800F1E7012110AA137A0B4313720023CBE764
:100BA8001A7A7F2A10D93400DB680393042310AA29
:100BB80019420CD040CC002E0CDA0221537A8B4318
:100BC80053720126764205E0340001237DE68B0747
:100BD800F7D51669002510AA517A937A49065B075A
:100BE800090F5B0F0491D5601561012B3AD1C81E1E
:100BF800042821D8FFF75EFA03191920200008CC31
:100C08001360DB17536010AA137A03201D000540F8
:100C1800034269D0079B089A0699059802F03DFFA0
:100C2800002800DA4FE13F182CE6072307349C43DD
:100C38000CCC10921193E6E701CC10AB1060C017F2
:100C48005060049A012A05D1109AD2B2109200225B
:100C58005A60D8E7049A022AD5D100215A5E1A6050
:100C6800D217F5E7022B2ED1049BD81E042805D8ED
:100C78001500FFF71FFA0E14141B1B0008CC28C21E
:100C8800049B012B17D1109BDBB210930023119307
:100C9800B9E700232268201D0CC50400B3E7072329
:100CA800E01D98430CC810921193F6E708CC136026
:100CB80000235360E4E7049B022BA4D1109B099303
:100CC8006B469B8CE1E7042B09D10720E31D834386
:100CD8001C001868596808341060516093E7032BAA
:100CE80091D108CC13608EE7D07A782800D9C9E56D
:100CF800622821D825283BD0582800D0C2E5109872
:100D080011991E2308AA9B18009312AA0AAB02F095
:100D180078FE04901E2308AA9B180893002E3FDB38
:100D28004020049A9B1A10AA117A814311729E429C
:100D380036D9F31A139333E06338152800D9A1E59F
:100D4800FFF7C2F965006F00A0FDA0FDA0FDA0FDA2
:100D58006F00A0FDA0FDA0FDA0FD9C008400860002
:100D6800A0FDA0FD2200A0FD8400A0FDA0FD840040
:100D78000699059B9847002800DAA4E0013781E529
:100D8800FD87FFFF02400000109B0493002E3ADB12
:100D98003100180002F0F0FE0025049B1B18089390
:100DA800049B002B00D16DE5089B049A9E1A2B002A
:100DB8005A1E9341F61810AB9B7ADA0679D502369B
:100DC800139A0992B6185B0601D5149BF618039B73
:100DD800002B00DC86E09B1B099310AB1B7A5A079B
:100DE800D60F002A00DABCE05B0600D46DE0002DC7
:100DF80007D028000699059B9847002863DB350033
:100E08000137302662E0049802F0AEFEC4E7109B7A
:100E18000AA803700923002508AA04909B180893C0
:100E2800C2E72B251A0705D410221D0015401342CE
:100E380000D02025109A119B002B00DB5FE70021D2
:100E4800504299412D251090119158E7002556E7F9
:100E5800109810AD002827D01E2308AA9B180093CD
:100E680012AA0AAB002102F0CCFDEF226B89049094
:100E78001A40414B13436B8100254BE71368049AD2
:100E8800072A00D9FEE41000FFF714F90C04060C39
:100E980008080C0C1F70F5E41F80F3E4FA171F60B4
:100EA8005A60EFE41F60EDE4344B05000493344BC3
:100EB800B5E71A07D20FB61882E730000699059BE6
:100EC8009847002804DA17B0F0BD2026099B039341
:100ED800039A099B1100DB1901399B1A0391002A17
:100EE800EBDC1F00002D06D028000699059B9847CB
:100EF8000028E8DB013710AB9B7ADA0601D41B0720
:100F080006D530200699059B98470028DBDB01377A
:100F180010AB9A7AD20606D5D87A0699059B9847D7
:100F28000028D0DB01373D00139EF3195B1B002B13
:100F38001ADC089B049A0699059802F0AEFD002871
:100F4800C1DB47193D00039B5B19DB1B002B00DC51
:100F580098E420200699059B98470028B3DB0137C1
:100F6800F1E7099B0393BDE730200699059B984755
:100F78000028A8DB0135D8E7107800007E4400007F
:100F88008344000070B50500EFF3108672B60B4B72
:100F98001C68002C02D1002E0CD070BD002D07D08B
:100FA8006368002B02D0064A107898472468F0E757
:100FB800A368F6E762B6BFF36F8FEEE7F80100208B
:100FC8000002002030B50E4B85B01A68002A11D1F6
:100FD80001321A6001AB19000A4A31CA31C10A4A02
:100FE800002A09D001980299039A02F01FFE0020F6
:100FF800FFF7C8FF05B030BD62B6BFF36F8FF6E7E5
:101008000400002000020020353C000070B588B0C4
:101018006E461C4C01000500300002F055FD23000F
:1010280007CE07C3207800282AD00022164B1A6062
:101038006B1C0ED0A368154A590CD80300238018DE
:1010480059410023124AFFF753F90121281A03F0E6
:101058006DF801F01DFF0120FFF794FF05AB1A00A2
:10106800210061C961C20B4A002A04D0059806997B
:10107800079A02F0C8FDFFF7A5FF02F0C1F8207833
:1010880008B070BD00020020040000203F420F009D
:1010980040420F000F3C0000014910220A607047CF
:1010A80010ED00E0BFF34F8F30BF62B6BFF36F8F14
:1010B8007047C04672B620BF002800D162B670479C
:1010C800030605D41F2318401E3B8340014A1360C2
:1010D8007047C04600E100E0054A43099B009B5861
:1010E8001F2210401E3A8240100018407047C04628
:1010F80000E100E070B5FF26032532000540ED0051
:10110800AA4089013140D243A94044B2C3B2000683
:101118000AD4A308C0240A489B001B18A400185925
:1011280002401143195170BD0F200340083B054888
:101138009B089B001B18D86902401143D961F2E74C
:1011480000E100E000ED00E030BFFDE7084A094992
:10115800936809689866D966802307495B054868DB
:1011680003434B6062B6BFF36F8F9368D86E7047C6
:10117800400300206444000000ED00E013498A6841
:1011880013481044EFF3098CF0C043464C465546CB
:101198005E466746F8C072B60E4F0F4ECA698A603F
:1011A8003E60906E00239366002800D162B6084C1A
:1011B80010191030F8C89846A146AA46B346BC464E
:1011C8002438F0C88CF309887047000040030020D9
:1011D8003000000004ED00E0000000080420714623
:1011E800014202D0EFF3098001D1EFF30880816951
:1011F800023909780229FFD001B502F071FC01BD5E
:1012080010B5203A1360029B01245360039B0649E2
:101218009360049BA143D36080235B04D3610023C4
:1012280091610265836610BDF7390000064B98602E
:10123800101C81F30988002162B6BFF36F8F00226A
:10124800002302F0D4FBC0464003002001B572B66B
:101258000A4A9069002803D00021916102F021FE1A
:1012680062B6EFF305800649401AC00005490144FB
:1012780009C9984709BC9E4603490847400300200E
:1012880010000000CC42000095120000044B996841
:10129800D869884202D00349034A0A6070470000AF
:1012A8004003002004ED00E00000001070B51B4B67
:1012B8000E005B6888B0DB05DB0D62B6BFF36F8F8D
:1012C8000025140E2900FF2C09D1F33C1440082CEA
:1012D80005D001000135120701D531000025002491
:1012E800032B06D18B69023B1A880D4B9A4200D119
:1012F8000C682022684602F063FC079B002D0AD088
:10130800DA0502D1074A134307936946200002F021
:10131800E3FB08B070BD5B0A5B02F5E700ED00E097
:1013280002DF0000FF010000EFF30880EFF30981FE
:1013380001B57246FFF7BAFF01BDC046F0B5C0243B
:1013480000220326FF25A40010002F003040C00013
:101358008740054993089B005B1819590132B94326
:1013680019511A2AF0D1F0BD00E100E002F042FF65
:1013780072B607480749401880F30988EFF31480CC
:101388000221084380F31488BFF36F8F02F0BBFB80
:101398008808002000080000084B10B59B688342AD
:1013A80009D1EFF30583002B05D08023044A5B05A0
:1013B80051680B43536001F0FFFF10BD400300204C
:1013C80000ED00E0014B18607047C046080000209F
:1013D800023910B5012903D8034B1B68984710BD83
:1013E80001204042FBE7C046080000200FB407B5C3
:1013F80004AB04CB022104480193FFF729FA03B098
:1014080008BC04B01847C046F33B000010B50228DA
:1014180005D90123024A023800011343984710BD39
:10142800C0430000074B70B5C31A0D0006499B1056
:10143800594304004022054802F019FC010020002D
:10144800A84770BD1C020020B76DDBB654420000EF
:1014580037B540230C00084A0849821A92105143B4
:10146800009305002300064A064802F034FC011EDA
:1014780001DA2800A04737BD1C020020B76DDBB693
:101488004F3D0000544200000022F8B5012104003D
:101498001000FFF72FFE0020FFF712FE114800F0A2
:1014A80073FF114B984219D1206900F0ADF902F091
:1014B800B2FC27690D4E3800310002F061FA0028AD
:1014C8000BDB24690125200031003D641C3002F04B
:1014D80057FA002801DB0020E564F8BD05204042EA
:1014E800FBE7C0462D1500000000AD0BEC430000E3
:1014F8000C2370B5434304000020084AD1188D6BB3
:1015080040338863D018CE6B02F0A2FB002D03D0C5
:10151800320021000248A84770BDC0461C020020C6
:101528005442000010B5040001280DD003280FD044
:10153800002808D1084B1A6C0723100018401A42DB
:1015480001D1FFF7D5FF10BD00F06CF92000F8E7D6
:1015580000F07AF9F7E7C0461C02002070B5EFF3F7
:10156800108572B60223012410490A6813430B60E0
:10157800224210D080220E4BD205D158D358214296
:1015880009D00C48403002F063FB002D05D0002044
:10159800FFF7AEFF70BD2C1E04D162B6BFF36F8F8C
:1015A800002CF4D1012000F001FFF3E76C020020C9
:1015B8000C0400001C0200201FB56B460093019329
:1015C8000023029301330393064A6B4602F0B5FBEE
:1015D800002805DB802200236846D20101F0AEFA1C
:1015E80005B000BD6B3D000010B503210548494218
:1015F80002F0F2FD0123184202D1180000F0F8FEB3
:1016080010BDC0466C020020C3B21C2043430148F1
:10161800C01870471C020020F7B501900121274827
:1016280002F0CEFD011E0BD1254C0C22201D02F02C
:10163800D0FA012323482100A3601C30FFF7C0F82B
:10164800019B013B012B1FD802F01EFC041E03D195
:101658001D4B1B78002B28D1EFF3108572B601249F
:1016680080268327F605FF00F359F259D2030CD5DB
:101678009B0702D0019B012B07D1002C10D0002D15
:1016880002D162B6BFF36F8FF7BD002C03D02800DC
:10169800FFF710FDE8E70021212001F05DFEE3E7F8
:1016A800C12302229B00F250EEE78022C2230221CE
:1016B800D2059B000500D150D2E7C0467002002039
:1016C8000C0200201C0200208403002010B50348EF
:1016D80000F0C2FF024B1860002010BD8A440000D1
:1016E8008C02002007B5002200230092019380227B
:1016F80000239202054802F06DF8054B186802F0C5
:1017080056F90022034B1A6007BDC0464800002066
:10171800880200207402002037B51D4C20688368B9
:101728003921DB6898471B4D00280ED000200300A4
:1017380028702A78002A01D0012B1FDD164B18804B
:1017480000F09AFE01232B7037BD206883686A4633
:101758000C211B6998470028E8D1009B01980F4984
:101768009C00FEF7BBFC0C4B201800229B5E00B2CD
:10177800C31ADA179B1853401BB2DAE7013A2A70EA
:10178800074A136801331360FFF7ACFFDCE7C04674
:101798008C020020820300208003002090D00300E8
:1017A8009402002010B501220021084802F0F7FC3D
:1017B80000280AD0064B074918680023CB60064B5F
:1017C8004B6003238B60FEF7FBFF10BD7402002003
:1017D8008802002078020020E5170000074B10B5AA
:1017E8001B68002B05D100F047FE0122044B1A703C
:1017F80010BD044801F0AEFAFAE7C0468C0200209A
:10180800820300200C000020034B044A18600023C8
:101818001360034A1360704788020020900200207A
:1018280094020020002210B5024B1A70FFF7BAFF8D
:1018380010BDC0468203002010B5024802F096FC95
:1018480010BDC0464800002010B5034A1368013394
:101858001360FFF747FF10BD9002002009480A4BAC
:1018680010B5186002F0E7FA002808D0074C2000ED
:10187800FFF7A8FD2000FEF7B7FE002010BD1320DB
:101888004042FBE76C4200009802002099180000D3
:1018980070B50400074D0A2804D1286883680D2113
:1018A8005B68984728688368E1B25B6898472000BE
:1018B80070BDC046980200201F231840A023E022D4
:1018C800DB05800010B5C018D2008358024C09040B
:1018D80023401943815010BDFFFFFCFF436810B53A
:1018E8005868044BC458624011406140C150002000
:1018F80010BDC04604050000436800205A68014B2B
:10190800D15070470C0500004368034A5868835853
:101918004B40835000207047040500000A4B10B567
:101928001A78002A0DD1012106201970FFF7E2FB71
:101938000620FFF7C5FBC1238021044A9B00090646
:10194800D150002010BDC046830300200060004035
:10195800F7B50E00416837000C7A1F210569A020F1
:1019680064010F4040023C4382420AD1A02021403A
:10197800C131FF318900C0050958C90707D5862735
:10198800A5E08020E9688001824200D195E001212C
:10199800B140E8680143A020E96001216F69400275
:1019A800B140844638008843624501D13800084375
:1019B8006861A869C0270200FF028A43BB4201D1BF
:1019C80002000A4328698027AA610200FF028A43AD
:1019D800BB4201D102000A43C1232A61424A9B004B
:1019E800D1580F230020194010339C461E3B02009B
:1019F80045323D4FFF329200BA586746120A3A40C4
:101A080094425ED10A00C2401A425AD0A2273649EF
:101A180082005218FF00D1599943D151C222834004
:101A2800314992008B50C0B200F0A6FD0021200081
:101A3800FFF742FFEA680123F24000271A423AD032
:101A48006A69F2401A4244D0AA690337F2401A423E
:101A580005D12F69F7403B400227FF1AFFB26B46BA
:101A6800D81D00F0A3FD214B98422FD16B46DA799F
:101A7800A2231D4E9100DB008919C8581C4D240271
:101A88002840F825C850C8586D012C4004433F042D
:101A98002743CF50002717499200521817606A460B
:101AA800D4790122A1008919C8581043C850C1230C
:101AB800A2409B00F2503800FEBD0120B040814397
:101AC80069E70130042800D091E7AFE713277F4288
:101AD800F1E729692000F1400B400321C91AC9B276
:101AE800FFF7EAFEE7E7C046006000400000AD0BE4
:101AF800FFE0FCFF006100404368F7B59C462D48B5
:101B08002D4B1340834246D010D8062B45D006D81B
:101B1800002B42D00420022B15D01A38FEBD802499
:101B280001206403A3420ED01738F7E72348834205
:101B380035D0A0240320E403A34204D08020C003AE
:101B4800834233D102200325D30601D49506ED0F35
:101B580001263400530A33401F00130A9C430194A2
:101B6800930507D563465B6814051AD5A1228E40F4
:101B7800D2009E501F231940019B00025B003B438B
:101B88001843A023C131AD00FF3128438900DB058C
:101B9800C8500020C2E70720D5E71800D3E7052082
:101BA800D1E75205E6D58E40054AE2E716204042C5
:101BB800B4E7C046060010000600F000020040002E
:101BC8000C050000F0B50024434F85B03B68039333
:101BD800A34216D0414B012699695A690A43D9682C
:101BE8001B6991430291A222A021D200C9058A58FB
:101BF800029C53409C430023029D0193002D30D149
:101C08003D60002301201F26354A36490700C125BB
:101C18009F40AD004D593D420ED01768002F0BD0A4
:101C28001F0005004537FF37BF007F583F0A374080
:101C3800BD4000272C43176001330432042BE5D143
:101C4800002C26D1039B002B09D001250026234F09
:101C58007B69BA69FC6813439C43002C2BD105B0FF
:101C6800F0BD354210D01F2301981840029B334223
:101C780006D10300A022C133FF339B00D205D358FD
:101C88000021FFF719FEB543019B7600013301934C
:101C9800B4E7124B59680029D4D00D688B681A0034
:101CA8002240234202D04B680F489847002DC9D0E4
:101CB80029002D68F2E72C420BD039690123F14045
:101CC8001F2019400233591AC9B23040FFF7F4FDFA
:101CD800AC4301366D00C0E77C6100409C020020E7
:101CE80000610040006000409C4200000122014B5E
:101CF8001A60704700C0004070B5036914000C29D1
:101D08000ED15B6A084D09495D432800FEF7E6F9E4
:101D1800064920602800FEF7C7FA0020616070BD00
:101D280086204042FBE7C04690D0030040420F00A7
:101D38000022034B10B500691A6000F0E3FE10BDE5
:101D480000C1004030B5046985B0A36A002B30D0CB
:101D5800392901D00C292FD12500103501225242F2
:101D6800D317280000F014FE00230393134B694691
:101D780001930323A06A0293FEF722FD0122524237
:101D8800D317200000F0DAFEA06A01F010FEA123AC
:101D98000B4ADB00D3589A0501D50A4A134301229E
:101DA8006362094B1A60280000F06EFE002005B03F
:101DB80030BD0B204042FAE78620FBE7F51C000007
:101DC80000C0004000FCFFFF04C0004010B50469DB
:101DD8000020FFF719FCA0620122002120005242D6
:101DE80002F077F82000103002F06CF80022012190
:101DF8000C20FFF77FF90C20FFF762F9C1230121BE
:101E0800024A9B000020D15010BDC04600C00040CF
:101E1800074B1A68002A07D000201860A323054A38
:101E2800DB00D3580B70704701204042FBE7C046E7
:101E380008210040002000409023024ADB00D058CF
:101E4800D05070470020004030B54B79012B39D174
:101E58008B79032B36D1CB79002B33D10C79002C1D
:101E680002D0022C2ED10C3496220B681202934217
:101E780000D16AE03CD896229201934200D166E0F4
:101E880023D89622D200934263D013D896225200C8
:101E9800934261D096259C22AD009202AB4211D1AB
:101EA8003A4B3B4D5A513B4A9C50036905C905C3FF
:101EB800002030BD96221201934250D09622520142
:101EC80093424FD086204042F3E7E122D201934269
:101ED8004AD009D8E1229201934247D09622D201F2
:101EE8009342EFD12C4ADBE780222C4D1204D5E730
:101EF800E122920293423CD013D896225202934296
:101F080039D008D8264A934237D0E12212029342A8
:101F1800D8D1244AC4E7E12252029342D2D1224ABC
:101F2800BEE7E122120393422AD008D81F4A9342FF
:101F380028D0E122D2029342C4D11D4AB0E71D4AFB
:101F48009342BFD180225205AAE71B4AA8E71B4A41
:101F5800A6E79E22D202A3E7A0225202A0E79D2272
:101F680012039DE7164A9BE7164A99E7EC2292036B
:101F780096E7154A94E7154A92E7E52212048FE797
:101F8800134A8DE78022D2048AE7C0460020004029
:101F9800240500006C05000000A04E00127A000025
:101FA800C0DA000000F0EB0000E0D70190D0030099
:101FB80000705F0740420F0000509D00005027004E
:101FC80000B0130000F0750000B0AF0300903A01B4
:101FD80000D0BE0EF8B5A122A025A023802600219E
:101FE800114CDB05D2007604ED0061519E50EC26C1
:101FF8000327F6009F510D4E99510D4B1931E150B1
:102008000C4B0139E15001235B42A35008320169AE
:10201800A350FFF719FF002805D104236351064B8D
:10202800186001232360F8BD002000406407000009
:10203800140500000C05000008210040F8B50E004A
:1020480001F022FF6424174D00280AD001232B60D9
:102058000EE0013C21200021E4B201F07DF9002CC2
:1020680006D001220021280002F099F80028F0D0BB
:1020780000230122FA240C4FA4003B600B4B1A608A
:102088000B4A0C4BD6503B68002B05D10120013C74
:1020980001F0BDFE002CF6D10122074B1A60002387
:1020A8002B60F8BDE40200201C21004008200040FD
:1020B800002000401C0500000C200040054A10B517
:1020C8001368C81A0002000A1B18136001F0BEFA50
:1020D80010BDC046F40200200200F0B550320C02D8
:1020E8009200214992B285B0521803928022A82604
:1020F8005202824083005B18F60001939B59240A20
:1021080002921A4A184F0199BD582A025B1B120AFB
:102118001B028A511B0A012B02D1132002F020F85E
:102128008021AA1CA31A1B021B0A09048B4200D98E
:1021380014000023039A1360D123029A9B00FA50DB
:10214800019A23021B0A9351084BFB589D4207D062
:102158008022E31A023B1B021B0A1204934201D895
:1021680005B0F0BD2300CCE70010014004050000D5
:10217800F8B5002601248021154A49021568002E69
:1021880000D0F8BDC120134B800018580842F8D081
:1021980011480768002FF4D00660D220800019503B
:1021A800A82180260D48C900595818583604431AE2
:1021B8001B021B0AB34200D901002600002D04D0DF
:1021C800002010605268A847D5E71560D9E7C046D7
:1021D800E802002000100140401101400405000001
:1021E800A12370B50024104DDB00EC508022C123E0
:1021F80080219B005202EA500C4A853BFF3B890232
:10220800D150112022000121FEF774FF1120FEF7A2
:1022180057FF0123064A02201360064A2B60136009
:10222800FFF7FAF9200070BD0010014000E100E05E
:1022380008100140F002002070B5431C20D114485A
:10224800134B984221DC8024124A134B2404D358A0
:10225800124A12689B1A190223405D426B41090A0F
:102268005B42184001310918A14200D30C490D4BBB
:102278000D485118186000205860FFF72DFF70BDF9
:1022880001380028DCDC0020DDE70548DBE7C04634
:10229800FEFF7F000010014004050000F40200204A
:1022A800FFFF7F00E8020020C5200000044A054B1C
:1022B800D058054B1B68C01A0002000A7047C04678
:1022C8000010014004050000F4020020214910B567
:1022D8000B68DBB2012B38D11F4A13681B061B0F92
:1022E8000D2B0AD81D48C35C002B06D01C4B1D487B
:1022F800186080201C4B0002186013681B061B0F17
:102308000D2B0DD81948C35C002B09D08020C123A0
:102318000124DB00C005C4500B68DBB2A34214D112
:1023280013681B061B0F0D2B03D8114AD35C002B17
:102338000BD0104B1A68012A04D00F4A1A601A6889
:10234800012AFCD1C0220D4B1A600D4B0D4A1A60B0
:1023580010BDC046E00F00F0E80F00F0A9440000EF
:1023680004050040DFFF07C0186C0040B7440000B8
:10237800C544000000EC06407593000014EC0640CC
:10238800240000200024F400054B1A79002A05D106
:102398005A711860013203481A7170470248FCE705
:1023A800F80200200000AD0B0C00AD0B002802D095
:1023B80001280CD070470B4B80221860C1230221E2
:1023C800D2059B00D1500122074B1A60F2E7002288
:1023D800064B1A60C122013BFF3B920098501860DF
:1023E800E8E7C04604010040080000400001004042
:1023F80070B5041E02D0012818D070BD8025C223F4
:10240800022283269B00ED05EA50154B013A18601D
:10241800144B154C1A60F600AB59DB03EDD50120BF
:10242800013C01F0F4FC002CF6D1E6E78026C2233B
:1024380000229B00F605F0500C4B0B4D1A600C4B1C
:1024480018600C4AB358B2582340D203D5D5002B94
:10245800D3D02000013D01F0DAFC002DF1D1CCE70A
:10246800040100400C00004010270000000100405B
:10247800040000400C04000080238021114ADB0581
:1024880098589A58490210B50A4217D001221042AA
:1024980014D08320C000185808420FD00A49487940
:1024A800C4B200280CD109480460C1200824800067
:1024B8001C50074B07484A711A6010BD0648FCE7D4
:1024C8000648FAE70C040000F80200200C0100405E
:1024D800100000400000AD0B0500AD0B0B00AD0B6C
:1024E800204B10B51A68002A0AD0002080221860F4
:1024F800C22301219B00D205D1501B4B1B68984772
:102508001A4B1A68002A0BD000221A608022C223B4
:1025180002219B00D205D150134B01201B6898471C
:10252800134B1A68002A0BD000221A608022C2239B
:1025380010219B00D205D1500B4B02201B689847F5
:102548000C4B1A68002A0CD0002280211A60C22382
:1025580008209B00C905C850034B05385A711B68F1
:10256800984710BD00010040F80200200401004017
:10257800100100400C010040012383401A070DD0D0
:10258800EFF3108172B6064AD06B9843D0630029E6
:1025980002D162B6BFF36F8F024800E0024870476D
:1025A800000300200000AD0B0400AD0BF7B5164981
:1025B8000F22002301248C460190144D1448EFF398
:1025C800108672B61100D94021421AD027009F40C8
:1025D800E96B0F4215D13943E96301990B70002E5D
:1025E8000DD1094862B6BFF36F8F604507D021004F
:1025F800994001338A43DBB2002AE0D1FEBD02488C
:10260800FCE7002EEED0F2E70000AD0B000300203F
:102618000200AD0BF8B50F4F8300DD59013084007F
:102628003B59AB4200D8F8BD6E682B68300098471C
:10263800002E0DD0F368002806D0C217801850402D
:10264800FF2800DDFF20187001215A780A435A70CC
:102658000835E5E750440000F8B5051E02D100240E
:102668002000F8BD0378002BF9D0104C104E27003D
:10267800B44209D13C00B442F1D0200001F0DBFBA8
:1026880000280BD11834F6E7200001F0D4FB00280D
:1026980002D02368AB42E3D01834E9E72800216868
:1026A80001F074FA0028EDD1DAE7C0465442000080
:1026B800CC42000030B570240F4944430302591836
:1026C8000E4B01251C190023802287B00593029325
:1026D8000193183343430A480495C0180E350090F7
:1026E800084B20000395520000F094F80422637B05
:1026F8009343637307B030BD880700208000002033
:10270800400300207529000010B50124094B022060
:102718001C70FFF77FFF01F06CFD0320FFF77AFFC5
:1027280000F0CEF8FDF70AFF034A137BA3431373A7
:1027380010BDC04684030020F000002010B50348F7
:10274800034A0021121A01F044FA10BD800000204B
:10275800880300208022F0B5254B1201A5B09B18F4
:10276800069383F308882349234A0B6A00251A40F5
:10277800C0231B0413430B6201F0D0F9FEF78CFC55
:1027880002221E4E08ABFF329A81B36001F052FB61
:102798000020FFF73FFF0120FFF73CFF00F046FD58
:1027A800174C184BF461802205930123164F1749E3
:1027B8000493D2003B0020000395029501950095F3
:1027C80000F028F804220790637B2000934363738A
:1027D80001F0F4FB2800FFF76DFF0D4B3A00F360A2
:1027E800069B2000079935757360FEF71FFDC046EC
:1027F8008808002000ED00E0FFFF00FF40030020F4
:10280800F0000020D34400001127000088030020B6
:10281800800000207FB50400D51D07225830A06530
:10282800E0650C9800262073042095430A9A60738B
:102838000292099A0B980192089A4D19A073009276
:1028480020002A00A660E673A661E661FEF7D8FCC0
:10285800044B66659B68B34200D05B6E28006366D4
:1028680004B070BD4003002070B50400002086B09D
:1028780005900E98119D04900D98109E03900C9849
:1028880002900B9801900A9800902000FFF7C2FF71
:102898002B00721C01D1013305D02B00334305D125
:1028A800200000F0D7FB200006B070BD20003200E9
:1028B8002B000249183000F051FEF4E7DD3F00001C
:1028C800F0B5264C87B02500254B9C4209D300F073
:1028D800DFFA2C00224B9C4219D300F091FC07B080
:1028E800F0BDE36A0593236A0493E3690393A3693C
:1028F80002936369019323690093E368A26861689E
:102908002068FFF787FF23685C653034DCE7636A7B
:102918005A1C14D0DA43D2171340D917CF03002119
:102928005A0C1048DE031743801979410D4B25686E
:10293800984206D1002904D1280000F08BFB3034DE
:10294800C8E7FA2200239200FDF7D2FC0200280013
:102958000B001830044900F001FEF0E744000020A5
:1029680044000020E7030000DD3F000010B5EFF34E
:10297800108372B601F0CEFB044B9861FEF746FB5C
:102988000028F4D1FEF78EFBF1E7C0464003002093
:10299800F0B585B0040015000393EFF3108672B606
:1029A800C26833003649002A0DD080688F68B84263
:1029B80017D0039A2A431AD1002E5DD162B6BFF30D
:1029C8006F8F103B0AE08868807B40B20132E2607A
:1029D8008A682061A260002E05D00023180005B087
:1029E800F0BD2069F2E762B6BFF36F8FF6E70E23FA
:1029F8000E21C3567956994200DD19000A007F322C
:102A080001DA7F214942002202928B4202DD01F065
:102A18004EFA02901B4F039B2200310038000095AC
:102A2800019300F065FB0028D7D0EFF3108572B64C
:102A3800236821699C420BD0002B09D09B7B5BB299
:102A4800994200DD19000B007F3301DA7F214942EA
:102A5800A06801F02CFA002802D1029B002B05D0B7
:102A68002900380000F0FEF90B2306E0002DFBD109
:102A780062B6BFF36F8FF7E710235B42AEE7C0463D
:102A88004003002085030020836870B50400002BF4
:102A98002FD01A4A926893422ED1DA7B013ADA7320
:102AA800C368012B05D9013BC36000F0A9FB0020D6
:102AB80070BDEFF3108572B60169806801F0F7F90F
:102AC800200001F0E0FAA06000280BD00E23C356C6
:102AD80023610023C36601F071FA2900084800F059
:102AE800C1F9E2E7E060002DDFD162B6BFF36F8F76
:102AF800DBE716204042DBE70120FBE7400300202C
:102B08008503002070B50400EFF3108572B601F05C
:102B1800BAFA002808D00023C36601F04FFA29004A
:102B2800054800F09FF970BDA268E3689B1A591E1A
:102B38008B419B18A360F2E78503002013B50100C1
:102B4800EFF3108072B68C68002C07D0013C8C60C3
:102B5800002815D162B6BFF36F8F16BD14001C4351
:102B680006D100280ED162B6BFF36F8F1038F4E794
:102B7800009201930A000100044800F0B9FAECE75A
:102B88000020EAE710204042E7E7C046850300201E
:102B9800F0B5050087B0EFF3108772B62E002C6FE2
:102BA8008836002C13D10221300001F09FF900284B
:102BB8003FD100232A00029301235B42DC1739002E
:102BC800009301947832374800F046FCE3E7236825
:102BD8006A6F2B67944200D16B67022332681343F4
:102BE80033600423E2689A43033B1343E36063685A
:102BF800002F02D162B6BFF36F8F20009847EFF322
:102C0800108372B60593E36801211A008A435008BD
:102C1800084218D1E260022233689343059A336070
:102C2800DB05DB0F002A39D0002BB4D100F00CFBF8
:102C3800B1E72C00803400220121200001F038FA8D
:102C48000028F8D1B5E703229343E360164B1868D0
:102C58000028E0D0002703680493426803009442E8
:102C68000ED10268104B002F12D159681A608142A8
:102C780000D15A60002303600830FFF743FF3B0090
:102C8800049A002AC7D01F00136810000493E4E7D1
:102C980059683A608842EDD15F60EBE762B6BFF3EE
:102CA8006F8FC1E78503002068030020F8B5C3686B
:102CB8000E00590801220D0004001540114226D1CA
:102CC8009908114225D13268002A01D18268326000
:102CD80001252B4202D0A3686D1933603768002F95
:102CE80032D01B4B00209B68BB4204D101F0CCF8CA
:102CF80001235840C0B23B00012288331B68990861
:102D08001140134222D0002906D0002807D11025EF
:102D18006D420023336012E0DB081342F7D1002331
:102D280023607B6F002B0CD17C673C67380001F077
:102D3800E9F80423E2681343E3603368A3602800DA
:102D4800F8BD1C607C67F1E71625E1E71325DFE78E
:102D58004003002010B50100014801F0DCF810BD67
:102D680068010020F0B5040000202067606720009B
:102D78002600783089B0A067E0678036201D0E9D58
:102D8800C6670430C6670120002D07D0287946425F
:102D98007041FF264042B0430230FF30260088369B
:102DA8003060002001267642F717049003930290C2
:102DB8000190069607972000084B0094FFF754FDF2
:102DC800002D05D02968002902D0200001F062F802
:102DD800200001F062F809B0F0BDC046992B000050
:102DE80010B5074C2368002B09D0FFF75FFA0300E2
:102DF8002068044AC3180021136101F097F910BD37
:102E0800780300204003002070B504000E00EFF3A3
:102E1800108572B600210F4BC20319610021430CC3
:102E28000D4880185941FA2200239200FDF760FAF4
:102E38000A4B002C0ADC1860094B1E60FFF7D0FF14
:102E4800002D02D162B6BFF36F8F70BD0228F2DA8F
:102E58000220F0E740030020E70300007803002089
:102E68007403002010B500290AD1EFF3058000286B
:102E780007D1064BDA699B689A4202D0FEF766F9D9
:102E880010BD62B6BFF36F8FFAE7C046400300205B
:102E9800EFF3108172B6054B9A68D37B013BD3736D
:102EA800002902D162B6BFF36F8F7047400300203C
:102EB80070B506000D4801F07BF80D4D041E00D1D9
:102EC800EC68AB68002E0AD15A7BD20607D1A269FA
:102ED800002A04D1DA897F2A01D9EB6170BD9C42AE
:102EE80001D0FFF77DFFEC61F8E7C04660030020E2
:102EF800400300200D2270B582560400437B002A4F
:102F080004DA7F221340437301F01EF88023627BAA
:102F18005B421343134A6373136A134D506AAB42FF
:102F28001BD0002B19D00E26A6570E2159568E42BB
:102F38000ED0891B00290BDD5968236061600C6085
:102F48005C609068001B43425841FFF7B1FF70BDB9
:102F5800834202D01B68002BE7D1256060600460C3
:102F68005462EEE74003002060030020010070B5C2
:102F7800EFF3108472B6174B174A98681568A84281
:102F880007D1FFF72DFF002C02D162B6BFF36F8F78
:102F980070BD00251560114A1268AA4217D0C2896F
:102FA8007F2A14D8427BD20611D10E250C4A4557E8
:102FB800126895420BDB0B4A904208D01A698A4284
:102FC80002DCFFF797FFDCE7521A1A61DBE7002201
:102FD800FBE7C04640030020700300207803002070
:102FE80074030020800000200D2370B5C356427B77
:102FF800002B20DBD3061ED18369002B1BD1803B1D
:103008001249134343730B6A114D4C6AAB4218D0F3
:10301800002B16D00E2686570E229A5696420BD0B3
:10302800921B002A08DD5A680360426010605860ED
:103038000020FFF73DFF70BDA34202D01B68002BA4
:10304800EAD10560446020604862F1E7400300204F
:103058006003002010B5EFF3108472B60422437B9E
:10306800134205D1002C02D162B6BFF36F8F10BD99
:1030780093434373FFF7B8FF21000248FFF7F2FEBE
:10308800F5E7C046850300200D2210B582560400DE
:10309800437B002A04DA7F221340437300F054FF75
:1030A800034B9868001B43425841FFF701FF10BDCE
:1030B80040030020F8B5040016001D00EFF3108748
:1030C80072B600F0A3FF002F02D162B6BFF36F8F74
:1030D8002B00721C01D1013306D0200032002B00D6
:1030E8000249183000F03AFAF8BDC046DD3F00004A
:1030F80010B50C00064B11009868064B1860029A30
:10310800039BFFF7D7FF2000FEF720F810BDC0464D
:103118004003002070030020F8B50400EFF3108688
:1031280072B6437B4DB2DA0636D18269002A33D1B2
:103138007F321340437300F007FF8023627B5B42BA
:103148001343174A6373136A1648A57383421DD045
:10315800002B1BD0576A0E2159568D4211D0491B9E
:1031680000290EDD5A682360626014605C600120EB
:10317800FFF79EFE0120002E02D162B6BFF36F8FCB
:10318800F8BDBB4202D01B68002BE4D1536A206013
:1031980063601C605462EAE70020A573EBE7C04651
:1031A800400300206003002070B50400183000F0D0
:1031B8009EFFEFF3108672B60D22A256637B002A9B
:1031C80005DA7F2213402000637300F0BDFE102350
:1031D800627B0A4D13436373AB68181B4342584123
:1031E800FFF766FE002E02D162B6BFF36F8FAB68A1
:1031F800A34201D100F0D5FE70BDC04640030020B7
:1032080010B5EFF3108472B6074B00209A68D37B91
:103218000133D373FFF74CFE002C02D162B6BFF323
:103228006F8F00F0BEFE10BD40030020002110B5D6
:10323800034B044A08001A625A62FFF7E5FD10BD05
:103248004003002060030020F8B5EFF3108572B644
:103258007F221A4CA068437B1340437300F074FE2E
:103268008022A3685242597B15480A435A73226A3E
:1032780082421CD0002A1AD00E26676A9E570E2159
:1032880051568E420ED0891B00290BDD51681A60F9
:1032980059600B6053600120FFF70AFE2800FDF714
:1032A80055FFF8BDBA4202D01268002AE7D1626A17
:1032B80018605A6013606362EDE7C046400300205F
:1032C80060030020F7B5060004000D000E4303D18B
:1032D800FFF7BAFF002034E002225242D317121B34
:1032E800AB41002B2EDC01D1002A2BD100F034FF9A
:1032F80003190193EFF3108772B6144E144BB2689A
:1033080010001A60FFF7C0FEB06822002B001149B8
:10331800183000F023F91023B2683800517B0B43B2
:103328005373FDF713FF00F017FF002304001D007F
:10333800019A121BAB41AB4202DCCBD1AA42C9D0E5
:103348001000FEBD02204042031BD2E740030020CC
:1033580070030020DD3F000010B50B000C00421C7C
:1033680007D1013305D1094B9868FFF71DFF2000ED
:1033780010BD2100FFF7A6FFFA220023C117920013
:10338800FCF7D6FF4904C00B0843F1E740030020CF
:10339800014B98687047C04640030020EFF305834F
:1033A8000020834205D17F22024B9B68DB899A4229
:1033B800404170474003002070B50400EFF31086C9
:1033C80072B60823427B1A4205D0002E02D162B69B
:1033D800BFF36F8F70BD202110008843010019438F
:1033E80048B2002820DB6173A368002B02D02000BC
:1033F80000F0B2FD2000183000F079FE2300A56D22
:1034080058339D4201D0002D16D10120FFF750FD01
:10341800104B9B68A342D8D1EFF30583002BD4D17E
:103428003000FDF793FED0E75F210A4013432000E8
:10343800637300F089FDD7E7280000F08DFD2800B0
:10344800183000F054FE00232800EB66FFF7CCFD8F
:10345800D4E7C0464003002073B5069D079E089C2C
:1034680000950196FFF744FE002C03D0024B9B68A1
:103478005B69236076BDC0464003002010B506484E
:10348800064A0749121A00F09BFB064A06490748F4
:1034980000F096FB10BDC046000000208000002010
:1034A800E444000000000000E444000000000020A4
:1034B8000020044B10B51B68834201D1FEF7F6FECD
:1034C80010BDC0467C030020134BD0B51C689C423D
:1034D80000D10024FFF7ECFF002C12D022696369A9
:1034E8000600C717921BBB41002B02DC12D1002A31
:1034F80010D01000002B04DC04D180231B069A4254
:1035080000D30648064B1B69002B02D0984200DD09
:103518001800D0BD0020F5E728000020FFFFFF7F3E
:103528004003002030B5036800280DD00A4A5268CD
:10353800904209D0002B07D01C695D690169426976
:10354800641855411C615D61426813605A6000232C
:103558000360436030BDC04628000020F7B5040072
:1035680016001F00531C01D17B1C67D0A160EFF32C
:10357800108372B602204042C117019302000B006B
:10358800921BBB41002B1BDB2D4B1A685B68801A12
:103598009941801BB94102000B1E05DC002901D1AD
:1035A800002801D10122002322616361254F3D6873
:1035B8007E68BD4218D12760666034607C6027E071
:1035C800FFF776FF01220023B6185F410200C317F8
:1035D800B6185F4126616761E8E7121A8B412261DC
:1035E8006361AE42E7D02D68002DE4D0286969698F
:1035F80022696369994202DCEFD19042EDD9801AC1
:1036080099416B6828616961636025601C606C6022
:103618003B68BB420CD09C420AD1FFF755FF0028FB
:1036280003D0094B1B69834202D00021FEF704FE38
:10363800019B002B02D162B6BFF36F8FF7BDC04666
:10364800600100202800002040030020F0B58BB066
:103658000400FFF78BFCEFF3108372B60593324B2F
:103668001C60324B3248304D1C6801684268069134
:10367800079229689C4219D0002C17D022696369E7
:1036880000920193019ACB17029103939A4203DCAB
:1036980023D1009A8A4220D9029A039B009E019F57
:1036A800B61A9F4132003B0022616361069E079F64
:1036B8000A00CB17B6185F410024066047602C60EB
:1036C800FFF702FF2100FEF7B7FD059BA34202D1D9
:1036D80062B6BFF36F8F0BB0F0BD009B069E079FCD
:1036E8000893DB170993089A099BB6185F41104B9A
:1036F80020001E605F60009BCA1A0B4B1A600023F3
:10370800002222616361FFF70DFF059B002B02D1A8
:1037180062B6BFF36F8F2000A3689847EFF310835A
:1037280072B605939DE7C0467C0300202800002060
:103738006001002010B5EFF3108472B6FEF7B6FDF5
:1037480000230200054908684968801859419C42CD
:1037580002D162B6BFF36F8F10BDC0466001002072
:1037680070B50400EFF3108672B6C16A806A012250
:10377800002312184B41002B01D1012A05D9A26A56
:10378800E36A20001249FFF7E9FE236B0133236344
:10379800236A002B01D020009847A5691834A54258
:1037A80001D0002D05D1002E02D162B6BFF36F8F74
:1037B80070BD280000F0DBFB0023EB669E4202D1BF
:1037C80062B6BFF36F8F280000F0F8FBF0E7C04641
:1037D80069370000F0B585B019000390100000901B
:1037E8000191531C01D14B1C46D00A9C0B9D0A9B8E
:1037F800013302D10B9B01331AD00A9B0B9A134356
:1038080016D00A9E0B9F02225242D317921BBB412D
:10381800002B0DDA01246442E51732003B00A4189E
:103828005D41002D04DC01D1002C01D101240025CB
:1038380002225242D317121A8B41002B0DDA0126AD
:103848007642F71736184F4100960197019B002BD7
:1038580003DA0022002300920193039800F047FC4A
:10386800039B039A9C62DD62002304491363039857
:10387800009A019BFFF772FE05B0F0BD69370000A2
:103888001FB5084B002402938022012302A90C7162
:10389800054800915B420549D200FFF763FA200012
:1038A80004B010BDD8440000680100208810002032
:1038B8007047031E0CD0032142680A40012A04D035
:1038C8008A4205D10268002A02D000209860704719
:1038D80016204042FBE742688160D2430021030082
:1038E8000800920700D11868596070470020704797
:1038F8000300008B072102000A40084205D11B681B
:103908001000002B00D003207047022A04D1588BE6
:10391800434258418000F7E70020012AF4D11B6890
:103928008342F1D00530EFE7F7B507000D00081D19
:1039380019001E000192FFF7CEFF041E04D03300C9
:1039480029003800019AA047F7BD10B5EFF310829F
:1039580072B641610121FCF74DFE10BD10B50C0097
:1039680000280AD0002908D0081DFFF7A2FF002868
:1039780005D10322A368934301D01620404210BD0D
:1039880070B505000C0000280ED000290CD00B687B
:10399800002B09D04B68002B06D01C22002100F018
:1039A80018F900202C6170BD16204042FBE710B5C5
:1039B800EFF3108272B60723048B1C40022C09D047
:1039C800012C12D086246442002A0CD162B6BFF3BF
:1039D8006F8F08E0438B013B9BB24383002BF3D1ED
:1039E8002100FCF707FE200010BD0524EBE710B509
:1039F8000400080011001A00A047FFF7C9FCFDF7F2
:103A0800CBFCF0B585B001900393D37815001A006C
:103A1800413A0F00082402926F2B0AD004D80234CE
:103A2800582B06D1063404E008220A249343702B4D
:103A3800F8D00A9E2200002339000198FCF758FCB0
:103A480013008C46D2B2092B19D813003033DBB2DD
:103A5800013E33700023BB4202D1019B9C4202D835
:103A6800039B9E4208D82B789B0613D5082C0FD1B0
:103A7800AB781C43AC700DE067460190DAE71300A1
:103A880002995733DBB21929E2D83732D3B2DFE7CC
:103A9800102CEDD0300005B0F0BDF7B50F001500C3
:103AA8001E0014000190601BA64204D8002E09D104
:103AB8002378002B06D020783900019B98470134E1
:103AC8000028F0DAFEBD704710B504000C22002172
:103AD80000F07FF8200010BD10B500F0BFF910BD50
:103AE80010B50100006800F0B9F910BD10B500214B
:103AF8000120FFF7F1FF10BD10B5FDF725FBFDF71D
:103B0800C5FB10BD704710B5FFF7FCFFFEF716FEAA
:103B1800FFF7B4FCFDF712FCFEF71CFE704703002C
:103B280030B51A78202A0DD011000939042909D98D
:103B38002B2A09D000212D2A01D10133013100207F
:103B48000A2508E00133ECE700210133F7E7684371
:103B580030300133801A1A781400303C092CF6D919
:103B6800002900D1404230BD030000201A5C002A21
:103B780000D170470130F9E7030000201A5C002AE1
:103B880001D0884200D170470130F7E7002210B514
:103B9800835C8C5CA34202D10132002BF8D1181B44
:103BA80010BD30B50500101E09D00024013A2B5D68
:103BB800085DA24202D001348342F8D0181A30BD01
:103BC800002310B59A4200D110BDCC5CC454013317
:103BD800F8E70300C9B28218934200D17047197000
:103BE8000133F9E701204042704710B5FDF7F0FBBB
:103BF80010BDEFF3108372B6002B02D162B6BFF38B
:103C08006F8F0020704784B00190C0B20291039278
:103C1800062809D18022A0230121D205DB00D1503A
:103C2800BFF34F8F20BFFDE704B0704784B0019009
:103C38000291039262B6BFF36F8F04B07047CAB2A5
:103C48000C21514303695B18186C0723184070470F
:103C5800EFF3108172B6C02203681A40022313439F
:103C68000360002902D162B6BFF36F8F7047F7B5C2
:103C780003690192C9B2EFF3108672B60C242500CD
:103C88004D435D192F6CC0253A002A4094462F42B7
:103C980002D0019A62450DD101224C431B191A64C6
:103CA80000239E420AD04368C90059184B689847B8
:103CB8000020FEBD002E06D101235B4262B6BFF391
:103CC8006F8F0133EFD101204042F2E710B5802217
:103CD800FFF7CDFF10BDF8B5944604000769C9B2D7
:103CE800EFF3108672B60C2207254A43BA18106CF7
:103CF8000540012D10D1069810640020864214D08A
:103D08000C2260464A43BA18D3636368C9009063BB
:103D1800CB5898470020F8BDC0221040069A82422E
:103D280009D178204042002EF5D162B6BFF36F8FDB
:103D38000028E5D0EFE70120F4E713B580240094CC
:103D4800FFF7C9FF16BDCBB21C2110B55943006956
:103D580040180021904710BD10B50020FEF726FB43
:103D680010BD10B51000FEF7CDFE10BD10B5FDF763
:103D780063FD0020FEF73CFB10BD10B5FDF712FDFA
:103D880010BD436800205A68A223DB00D3580B609B
:103D98007047436800205A68A123DB00D150704760
:103DA800036930B558680024002804D1002A1AD1C4
:103DB800002030BD280081420FD108689D68002C82
:103DC80006D158608D4200D1986000200860EDE768
:103DD80020608D42F9D19C60F7E705680400002D4A
:103DE800E8D1002A07D05A6898680A605960002804
:103DF800DED19960DDE716204042DAE7036905CB9A
:103E080005C100207047704710B5804710BD10B538
:103E180000F0A6F910BD10B50020FDF75DF90028E7
:103E280001D1FDF74DF98022A3230021D205DB0043
:103E3800D15010BD7047002808D0C3681888C00545
:103E4800C00D0138FF3843425841C0B27047EFF304
:103E5800108372B6FEE710B5FFF7F9FFF8B5050055
:103E68000E00EFF3108772B6FFF792FA31000400E4
:103E78002800FFF7F0FF002F02D162B6BFF36F8F63
:103E88002000FDF789FAF8BDEFF30580431E98413D
:103E9800C0B2704758204042704710B5FFF7DAF8B3
:103EA80010BD10B5FDF78EF8FFF7ADFF10BD0E225F
:103EB80010B58256030000208A4202D01800FFF78E
:103EC8002BF910BD030000209860D8601B605B6070
:103ED8007047002A07D08A4205D38160C26000601B
:103EE80040600020704716204042FBE7012230B5B1
:103EF800140003688C401D00CB40A54313400560A7
:103F0800180030BD10B5002804D000227830110008
:103F180000F0CEF810BD37B501900800EFF310851A
:103F280072B601A9FEF7C2FE0400002D02D162B6E6
:103F3800BFF36F8F002C05DDFFF730FA002801D0A2
:103F4800FFF782F920003EBD0368426813605A609B
:103F5800002303604360704710B50400FFF7F4FFC7
:103F68000222637B934363730023A36010BD10B5E3
:103F7800EFF3108472B6FFF7EFFF002C02D162B6A0
:103F8800BFF36F8F10BD10B5002805D1EFF3058082
:103F9800002802D1FDF7DAF810BD62B6BFF36F8FC3
:103FA800FAE710B5EFF3108072B6FFF7ECFF10BD1B
:103FB80003000068834200D10020704710B5EFF37A
:103FC800108472B6FFF710F8002C02D162B6BFF366
:103FD8006F8F10BD183870B50400EFF3108572B6F6
:103FE8002823427B1A420BD18368002B01D0FFF7AC
:103FF800B3FF1422637B200093436373FEF7F4FF3F
:10400800002D02D162B6BFF36F8F70BD70B504008A
:104018000D00FFF739F80223627B13436373002D09
:1040280013D02B68A5609D4216D0002B14D00E210A
:1040380061560E229A56914208D0521A002A05DD7E
:104048005A682360626014605C6070BD6A6893425D
:1040580002D01B68002BECD16B68256063601C6084
:104068006C60F2E770B5EFF3108572B6FFF7A0FF4A
:10407800041E01D0FFF770FF002D02D162B6BFF316
:104088006F8F200070BD70B5EFF3108572B6FFF723
:104098008FFF041E05D0FFF75FFF2000183000F0E7
:1040A80026F8002D02D162B6BFF36F8F200070BDD5
:1040B800F8B50E001500EFF3108772B6FFF778FF1A
:1040C8000400002084420CD02000E6666561FFF7FA
:1040D80043FF2000183000F00AF82000FEF784FFA4
:1040E8000120002F02D162B6BFF36F8FF8BD10B563
:1040F800EFF3108472B60368002B08D0FFF712FAAA
:104108000020002C02D162B6BFF36F8F10BD1620BD
:104118004042F6E710B5EFF3108472B6FFF7D4F912
:10412800002C02D162B6BFF36F8F10BD70B50400CA
:104138000D00EFF3108672B6FFF7C6F9012805DD0A
:10414800A04203DB29002000FEF776F8002E02D1FA
:1041580062B6BFF36F8F70BD10B5FFF7EBFA10BDF5
:1041680010B5002801D0FDF751F910BD10B50400B5
:10417800FFF7BDFF002811D1636A002B01D0200092
:10418800984720001830FFF76DFF002806D0FFF78A
:1041980015FFEFF3108072B6FFF7F5FE10BD0300B0
:1041A80030B5EFF3108472B61D6800208D4201D13E
:1041B8001A600130002C02D162B6BFF36F8F30BD98
:1041C8000300EFF3108272B600681960002A02D16A
:1041D80062B6BFF36F8F70470300EFF3108272B6B9
:1041E800006801401960002A02D162B6BFF36F8FE0
:0C41F8007047704700480047D5220000C7
:0842040090C1FF7F01000000E2
:10420C00FB3B000000000000911400005442000031
:10421C00DD1F00006C420000E92100008442000018
:10422C00251900009C4200008938000000000000A5
:10423C006518000000000000D51D0000B44200000D
:08424C00D5160000000000007F
:1042540084440000DC430000C84300003000002018
:104264001C020020B6430000984400000000000037
:104274003C4400003C0000201C000020AE43000031
:104284009F440000000000000000000040000020E7
:1042940000000000AA430000914400001C440000F8
:1042A400F8430000340000209C020020A4430000D6
:1042B4008A44000000000000284400003800002068
:0842C400B80200209C43000039
:1042CC00E9240000113E000000000000F53A000057
:1042DC0000000000F53A000000000000F53A000074
:1042EC0000000000F53A000000000000F53A000064
:1042FC0000000000CD1B000000000000F53A00009B
:10430C0000000000F53A000000000000F53A000043
:10431C0000000000F53A000000000000F53A000033
:10432C00B4420000391D000000000000F53A000006
:10433C0000000000F53A000000000000F53A000013
:10434C0000000000F53A0000000000007921000098
:10435C0000000000F53A000000000000F53A0000F3
:10436C0000000000F53A000000000000F53A0000E3
:10437C0000000000F53A000000000000F53A0000D3
:10438C0000000000F53A000000000000F53A0000C3
:10439C00FF7FFF7FFF7FFF7FFF7FFF7FFF7FFF7F21
:1043AC00FF7FFF7FFF7FFF7FFF7FFF7FFF7FFF7F11
:0243BC00FF7F81
:0243BE00FFFFFF
:1043C0000438FDD870470000C1150000D53C00003E
:1043D000433D000000000000473C00006515000060
:1043E000F1150000613D0000753D0000591400000A
:1043F0002D14000000000000011B00008B3D000098
:10440000E51800009B3D0000011900001119000093
:1044100059190000A93D000000000000FFFFFFFF48
:10442000000000500000000000000000000000003C
:10443000000000004D1D0000011D0000191E0000BD
:1044400045200000411E0000511E0000053E0000F6
:104450000C420000244200002C4200004C420000AC
:1044600054420000F5FFFFFF7B696E69747D0062B6
:104470006175643A007B6368616E67657D00286ED4
:10448000696C2900434C4F434B0054454D505F30FD
:10449000004750494F5F3000554152545F30007320
:1044A00079735F636C6F636B0001010001000000B2
:1044B00000000000000000000001000100000000FA
:1044C00000000000000000000000010100000001E9
:1044D0000000016D61696E00737973776F726B71A3
:0444E00000000000D8
:1044E400F538000001000000ED3B00000000000072
:1044F40021170000000000000000000000C20100BD
:10450400000103000024F4002800002028000020FB
:104514000000000000000000000000000000000097
:044524000000000093
:04452800FFFFFFFF93
:10452C0000000000000000006937000000000000DF
:10453C00000000000000000060000020600000206F
:10454C00833D00000000000000000000000000009F
:08455C00000000000000000057
:040000030000137571
:00000001FF
