:10000000C0070020511300002B3B00002513000007
:100010002513000025130000251300000000000038
:100020000000000000000000000000009910000027
:100030002513000000000000511000009F3E00004A
:100040001511000015110000151100001511000018
:100050001511000015110000151100001511000008
:1000600015110000151100001511000015110000F8
:1000700015110000151100001511000015110000E8
:1000800015110000151100001511000015110000D8
:1000900015110000151100001511000015110000C8
:1000A00015110000151100001511000015110000B8
:1000B00015110000151100001511000015110000A8
:1000C0001511000015110000151100001511000098
:1000D0001511000015110000151100001511000088
:1000E0001511000015110000151100001511000078
:1000F0001511000015110000151100001511000068
:1001000053B94AB9002908BF00281CBF4FF0FF317E
:100110004FF0FF3000F074B9ADF1080C6DE904CE7A
:1001200000F006F8DDF804E0DDE9022304B07047D2
:100130002DE9F047089E0D4604468846002B4DD118
:100140008A42944668D9B2FA82F252B101FA02F3B5
:10015000C2F1200120FA01F10CFA02FC41EA030885
:1001600094404FEA1C45210CB8FBF5FE1FFA8CF7B2
:1001700005FB1E8341EA03430EFB07F199420BD9AD
:100180001CEB03030EF1FF3080F01E81994240F218
:100190001B81AEF1020E63445B1AA4B2B3FBF5F00F
:1001A00005FB103344EA034400FB07F7A7420AD9D2
:1001B0001CEB040400F1FF3380F00881A74240F2F9
:1001C000058164440238E41B40EA0E4000211EB160
:1001D000D4400023C6E90043BDE8F0878B4208D92C
:1001E000002E00F0EE800021C6E900050846BDE8BB
:1001F000F087B3FA83F100294AD1AB4202D382429D
:1002000000F2F980841A65EB030301209846002E62
:10021000E2D0C6E90048DFE702B9FFDEB2FA82F2B7
:10022000002A40F09180A1EB0C054FEA1C471FFA11
:100230008CFE0121B5FBF7F307FB1350250C45EAB3
:1002400000450EFB03F0A84208D91CEB050503F19D
:10025000FF3802D2A84200F2CB8043462D1AA4B246
:10026000B5FBF7F007FB105544EA05440EFB00FE12
:10027000A64508D91CEB040400F1FF3502D2A645BF
:1002800000F2BB802846A4EB0E0440EA03409EE740
:10029000C1F120078B4022FA07FC4CEA030C20FA3C
:1002A00007F405FA01F31C43FD404FEA1C4900FA2C
:1002B00001F3B5FBF9F8200C1FFA8CFE09FB185569
:1002C00040EA054508FB0EF0A84202FA01F20BD9FC
:1002D0001CEB050508F1FF3A80F08880A84240F247
:1002E0008580A8F1020865442D1AA4B2B5FBF9F087
:1002F00009FB105544EA054500FB0EFEAE4508D942
:100300001CEB050500F1FF346CD2AE456AD902380A
:10031000654440EA0840A0FB0294A5EB0E05A54207
:10032000C846A64656D353D05EB1B3EB080265EB80
:100330000E0505FA07F722FA01F3CD401F43C6E97F
:1003400000750021BDE8F087C2F1200320FA03F117
:100350000CFA02FC25FA03F395400D434FEA1C47C3
:100360001FFA8CFEB3FBF7F107FB11302B0C43EAAD
:10037000004301FB0EF0984204FA02F408D91CEB8A
:10038000030301F1FF382FD298422DD9023963447B
:100390001B1AADB2B3FBF7F007FB103345EA034578
:1003A00000FB0EF3AB4208D91CEB050500F1FF384A
:1003B00016D2AB4214D902386544ED1A40EA014125
:1003C00038E73146304607E78646E5E61846FAE65E
:1003D0004B45A9D2B9EB020864EB0C0E0138A3E738
:1003E0004046EAE7204694E74146D1E7D0467BE71E
:1003F000023B654432E7084609E76444023842E7B5
:10040000704700BF2DE9F04395B0284DAB681B69DC
:1004100013B102A9284698472548244EDFF8948056
:10042000DFF8949000F0D0FF0024AF683B68002B09
:10043000FCD00DF10701304698470028F6D19DF811
:100440000700022103F0E2FB9DF807307B2B03D16C
:1004500000248DF81040E8E77D2B1ED1052241468F
:1004600004A803F0ABFB0028DFD10DF1150003F069
:1004700063FB041EECDD4FF47A7003F034FF02944A
:10048000FB6813B102A9304698474FF47A7003F025
:100490002AFF484600F098FFDAE73E2CC5D804F161
:1004A00050026A44013402F8403CBEE7A043000019
:1004B000744600007B46000081460000014B186036
:1004C000704700BF000000202DE9F84FB0F81890E9
:1004D00019F00808044693460DD001290CBF49F0D5
:1004E000100949F02009A0F818908BF31188BFF388
:1004F0006F8FBDE8F88F09F00709022907D1204660
:1005000003F0CDF90028F0D00128238B4ED1676984
:10051000218B002F15DA256821F00701C4E9008836
:1005200041F0010121830026218B01F0070ACA4511
:1005300002D0A368002B5AD10DB9002E71D0002330
:1005400056E001F007035A1F012A1ED821F00701C7
:10055000062B256889B2C4E900880AD13DB1638BB6
:100560002A46126801339BB2002AFAD1638341F014
:1005700002012183204603F092F906460028D3D0D9
:10058000238B43F020032383CDE7042B0CD121F0F0
:10059000070189B22183204603F081F9054600282E
:1005A000C1D041F0200121830025BCE7032809D1F7
:1005B000226923F00703166843F00603238300250E
:1005C0002F46B1E7042806D1226923F007035668B5
:1005D00043F00403F2E7052806D1226923F007035C
:1005E000966843F00503E9E700252E46E8E7012376
:1005F00041F0080121838BF31188BFF36F8FFBB9A2
:1006000085BB16B11F492046B0474FF02003EFF3DA
:10061000118B83F31288BFF36F8F238B23F00803B2
:100620002383238BDA0625D523F0100323830121AE
:10063000B4F8189009F0070900297FF45EAF54E779
:10064000A1680029DCD0D1F80090D1F804B03B4675
:1006500052462046D847B9F1000FD1D04946D9F8C3
:100660000090F2E729463B46524620462D6803F0AB
:1006700032F9C5E713F020011EBF23F020032383C6
:100680000221D5E7033900002DE9F04F91B08B46E8
:10069000029092461C4600259AF8000008B92846A8
:1006A0005FE325280AF1010707D0029B59469847C6
:1006B0000028C0F25683013512E2182200210AA850
:1006C00003F098FA9AF80130252B78D000221046D2
:1006D000964694461646394617F8013B2B2B00F0F8
:1006E0009D8000F29480202B00F09B80232B00F053
:1006F0009B802EB19DF8306046F004068DF8306086
:10070000BCF1000F05D09DF8306046F008068DF86A
:100710003060BEF1000F05D09DF8306046F0100645
:100720008DF8306028B19DF8300040F020008DF841
:1007300030002AB19DF8302042F040028DF8302080
:100740009DF8302002F04400442803D16FF3861254
:100750008DF830209DF830202A2B42F080028DF851
:1007600030207BD19DF8312042F001024B1C8DF8E6
:1007700031201A782E2A9DF831200CBF012100214A
:1007800061F341028DF8312074D15A782A2A6AD057
:10079000013300210A26184610F8012BA2F1300778
:1007A000092F40F28E809DF830200E91C2F3400058
:1007B00040EAD17161F341028DF830205AE00AF12C
:1007C00002078DF833309DF83130D90740F1498167
:1007D00054F8049BB9F1000F07DA9DF8302042F07D
:1007E00004028DF83020C9F100095A0740F1428116
:1007F00054F8048BB8F1000F80F241819DF831303C
:100800006FF341038DF831304FF0FF3837E12D2B76
:100810000CD0302B7FF46DAF01225CE74FF0010C60
:1008200059E74FF0010E56E7012054E7012652E741
:100830000CFB0202303A33461E4616F8010BA0F1BB
:100840003007092FF4D9994293D09DF830100D92BA
:10085000D20F62F341018DF830108AE70B46002277
:100860004FF00A0CE8E79DF8312042F004028DF8C1
:10087000312002331F4617F8012B6C2A41D025D8AE
:10088000682A2BD06A2A46D04C2A4CD01F4617F82B
:10089000012B9DF831308DF83320782A00F2D98071
:1008A000572A4DD8412A03D0453A022A00F2D18076
:1008B0009DF83230042262F302038DF832300123B6
:1008C0009EE006FB01213039034664E7742A26D0F6
:1008D0007A2ADBD19DF8313006220DE05A78682A59
:1008E0009DF8312006D1012161F3C6028DF8312037
:1008F0009F1CCCE71346022262F3C6038DF8313009
:10090000C5E75A786C2A9DF8312001D10421EBE724
:1009100013460322F0E79DF831300522ECE79DF8FD
:1009200031300722E8E7BDF8303023F4F04323F0FC
:10093000020343F4804343F00203ADF83030A6E7EE
:10094000A2F15801202900F2848001A050F821F082
:10095000150A0000530A0000530A0000530A000061
:10096000530A0000530A0000530A0000530A000013
:10097000530A0000B1080000530A0000150A0000E5
:10098000D5090000B1080000B1080000B10800005E
:10099000530A0000D5090000530A0000530A000062
:1009A000530A0000530A00001D0A0000150A000047
:1009B000390A0000530A0000530A0000390A0000F7
:1009C000530A0000150A0000530A0000530A0000F1
:1009D000150A00009DF83210012003F0780360F33F
:1009E0000201402B8DF8321002BF9DF8301041F00B
:1009F00001018DF83010632A31D1003B18BF01236B
:100A00009DF83020C2F340010B4363F341028DF89F
:100A10003020D8E69DF832100220DEE79DF8322023
:100A200003F07803A3F14000032161F30202434283
:100A30008DF832204341E3E79DF83220032113F083
:100A4000780F61F302028DF8322014BF01230023D6
:100A5000D6E79DF8303043F001038DF830300023A5
:100A6000CEE79DF93020002AB4BFDDF834904FF076
:100A7000FF39BAE69B077FF5C7AEDDF838809DF8F1
:100A800031100023CDE90D339DF8323003F0070318
:100A9000012BC1F3C30138D1CB1E042B22D8DFE8D0
:100AA00003F003090921210054F8043BDA17CDE9CA
:100AB0000A3206E0073424F00704F4E80223CDE903
:100AC0000A239DF8303013F0030656D002983B46B7
:100AD0005246594603F003F80028C0F2428105440B
:100AE000BA46D9E554F8043B01294FEAE372CDE94F
:100AF0000A3205D19DF828300A9300230B93E0E7D2
:100B00000229DED1BDF92830D0E7022B23D1CB1E3C
:100B1000042B13D8DFE803F0030A0A12120022683C
:100B20000A920023201D0B930446CAE7E01D20F023
:100B30000700F0E80223CDE90A23F5E754F8043B67
:100B40000A9301294FF000030B93D3D00229B8D1A7
:100B5000BDF82830D0E7042B09D1E31D23F00703AB
:100B600003F10804D3E90023CDE90A23A9E7032B05
:100B700004BF54F8043B0A93A3E79DF83300782898
:100B8000AED8622822D825283FF48FAD5828A7D1A7
:100B90000DF126030093DDE90A0104AB0CAA02F073
:100BA00058FF8246B8F1000F0DF126000CDB9DF8CE
:100BB0003020A0EB0A036FF3861298458DF83020A1
:100BC00002D9A8EB03030D9380463DE06338152856
:100BD00086D801A252F820F0590C0000BD0C00008C
:100BE000E10A0000E10A0000E10A0000E10A000059
:100BF000BD0C0000E10A0000E10A0000E10A00006B
:100C0000E10A0000170D0000E50C0000E90C0000EF
:100C1000E10A0000E10A0000310C0000E10A0000D6
:100C2000E50C0000E10A0000E10A0000E50C00000C
:100C3000B8F1000FDDF828A00ADB4146504602F06B
:100C4000A8FF0AEB00080026BAF1000F0CD147E715
:100C5000504602F097FFF4E70A9B8DF8103000260B
:100C60000DF1100A0DF11108A8EB0A0306B10133CA
:100C70009DF83220D00668D5023352060D9948BF40
:100C80000E9A0B4448BF9B18B9F1000F76DD9DF812
:100C90003020A9EB0309C2F38003039353076DD4FB
:100CA000500661D546B1029B594630469847002808
:100CB00057DB039B01351E46302356E01E070FD439
:100CC00013F0100618BF2026DDE90A23002BBFF61B
:100CD0005FAF524263EB4303CDE90A232D2657E76A
:100CE0002B26F1E7002653E70A9840B30DF12603BF
:100CF00000930CAA04AB002102F0ABFEBDF8323029
:100D000003F0EF0343F4F04343F010038246ADF8E1
:100D10003230002646E70A9B07293FF6E1AEDFE8BE
:100D200001F00C04060C08080C0C1D70D8E61D80A0
:100D3000D6E6EA17C3E90052D2E61D60D0E6DFF836
:100D4000C8A006460AF105088EE7110748BF01331F
:100D500093E7184603935946029B98470028039B44
:100D600004DA11B0BDE8F08F20234D444A46002A32
:100D7000A5EB090109F1FF39EBDC0D4636B1029B09
:100D80005946304698470028EBDB01359DF8323054
:100D9000D90601D41A0706D5029B59463020984738
:100DA0000028DEDB01359DF83230DB0607D59DF8E3
:100DB0003300029B594698470028D2DB01350D9E2F
:100DC0002E44731B002B16DC0298434652465946AC
:100DD00002F085FE0028C4DB0544A944A9EB050305
:100DE000002B7FF77DAE029B5946202098470028B4
:100DF000B7DB0135F2E7029B5946302098470028BF
:100E0000AFDB0135DDE700BF8A460000F8B50546D7
:100E10004FF02003EFF3118683F31288BFF36F8F37
:100E2000094B1C685CB1094FD4E90132002D08BFA1
:100E300013460BB1387898472468002CF4D186F318
:100E40001188BFF36F8FF8BDF80100200002002069
:100E50001FB50F4B1A68BAB901221A600D4A07CAAA
:100E600001AB83E807000C4A4AB193E8070002F09F
:100E7000E2FE002005B05DF804EBFFF7C7BF82F388
:100E80001188BFF36F8FF4E705B05DF804FB00BF76
:100E90000400002000020020373C0000F0B589B0BB
:100EA0006E4601460546304602F030FE96E80700E1
:100EB000174C84E807002078274638B3154B0021EB
:100EC00019606B1C0DD0144816464FF4004C134AA1
:100ED0000023E6FB0C01FFF713F90121281A03F0A8
:100EE000E4F901F0B1FF0120FFF790FF97E8070058
:100EF00005AB83E807000A4A1AB193E8070002F03D
:100F000087FEFFF7A5FF02F06DF9207809B0F0BD6C
:100F100000020020040000203F420F0040420F006A
:100F2000113C0000014910220A60704710ED00E0FA
:100F300072B6404080F31188BFF36F8FBFF34F8FBD
:100F400030BF62B6BFF36F8F704700BF72B64940C3
:100F500081F3118820BF80F3118862B6704700BF0B
:100F600043B2002B08DB012200F01F0002FA00F060
:100F70005B09024A42F82300704700BF00E100E02D
:100F8000054B420900F01F0053F82220012303FA09
:100F900000F01040704700BF00E100E043B2002BBA
:100FA000A8BF03F1604301F10101B8BF064B4FEA4E
:100FB0004111ACBF03F5614300F00F00C9B2B4BFEB
:100FC000195483F80013704714ED00E030BFFFF7A9
:100FD000FDBF00BF0F4A08B50F4B22F07F029A6099
:100FE000BFF34F8FBFF36F8FD3F8882022F47002C6
:100FF000C3F88820EFF3148323F0040383F31488E9
:10100000BFF36F8F01F06AFB02F030FA00F094F941
:1010100001F06EFB0000000000ED00E0094A0A4903
:1010200093680968D966094998664B6843F080530C
:101030004B60002383F31188BFF36F8F9368D86EE2
:10104000704700BF780300207046000000ED00E00C
:101050000F498A684FF030001044EFF3098C80E8A4
:10106000F01F202080F31288BFF36F8F094F4FF0DD
:101070000066CA698A603E60906E0023936680F3C2
:10108000118802F1300090E8F01F8CF30988704756
:101090007803002004ED00E01EF0040F0CBFEFF316
:1010A0000880EFF30980816911F8021C0229FFD042
:1010B00001B502F032FD01BD42F8203C009B42F830
:1010C0001C3C0A49019B42F8183C029B42F8143C24
:1010D00021F001014FF0807342F8043C42F8081CF3
:1010E0000023203A02658366704700BF3F3A000044
:1010F000074B9860104681F30988002163B681F39D
:101100001188BFF36F8F0022002302F098FC00BF0C
:101110007803002001B572B60B4A906900281EBF03
:101120000021916102F066FF62B6EFF30580A0F145
:1011300010004FEAC0000549014409C99847BDE8BD
:1011400001400349084700007803002018440000CC
:1011500055110000044B9968D869884203D00349AF
:101160004FF080520A6070477803002004ED00E0E1
:101170000D4B9A6A9A6A9A6A920508D59A6B9A6A8E
:10118000120404D518B19A6A22F400429A62064BFE
:101190009A6A9A6AD20558BF9A6A9A6A002042F4FB
:1011A0007F429A620870704700ED00E00E4B9A6A29
:1011B0009A6A9A6A920708D55A6B9A6A120604D5F7
:1011C00018B19A6A22F080029A62074B9A6A9A6A68
:1011D0009A6AD20658BF9A6A9A6A002042F0FF02C1
:1011E0009A620870704700BF00ED00E070B5484B90
:1011F0005B688AB00E46C3F30803002585F31188A7
:10120000BFF36F8F02F07F41B1F17F4F11D102F038
:101210000C0108290DD0110701D406460125002232
:10122000033B8DF80720032B6AD8DFE803F0045452
:10123000585C2E46F3E7364BDC6A14F002045FD1AB
:10124000DA6A002A14DBDA6A520011D5B26932F880
:10125000021C4DF60272914209D093F8282002B385
:101260000DF107010120FFF7A1FF044600E03468FB
:101270009DF807309BB92022314602A802F0AFFC4E
:10128000099B002D3ED0C3F3080222B96FEA532315
:101290006FEA4323099302A9204602F03CFC0AB0FE
:1012A00070BD93F829202AB10DF107010120FFF745
:1012B0005FFFDAE75A8D92B2002AD9D09A6A9A6A09
:1012C0009A6A9A6A9A6A9A6A9A6A6FEA02426FEA14
:1012D00012429A62CCE70DF107010020C3E70DF13D
:1012E00007010020E3E70A4B9A6A9A6A9A6A9A6AA7
:1012F0009A6A9A6A9A6A6FEA02426FEA12429A629C
:101300000024B5E723F4FF7323F00103C2E700BF15
:1013100000ED00E0024A536943F010035361704747
:1013200000ED00E0EFF30880EFF3098101B57246AC
:10133000FFF75CFF01BD00BF044800232021C21855
:101340000133302B82F80013F9D1704700E100E03F
:1013500002F0ECFF202080F3118808484FF4006170
:10136000401880F30988EFF314800221084380F3CA
:101370001488BFF36F8FFFF72DFE000000090020D7
:10138000064B9B68834207D1EFF3058323B1044AE0
:10139000536843F08053536002F004B87803002090
:1013A00000ED00E0014B1860704700BF080000200E
:1013B0000239012902D8034B1B6818474FF0FF3050
:1013C000704700BF080000200FB407B504AB02212E
:1013D00053F8042B04480193FFF756F903B05DF866
:1013E00004EB04B0704700BF0D3C00004FF020023A
:1013F000EFF3118382F31288BFF36F8F044A012148
:10140000C2F8401583F31188BFF36F8F0020704737
:1014100000E0014020B1034B800143F00103184775
:10142000704700BFC0450000084B70B5C31A0D4699
:1014300007499B10044659430648402202F022FC0B
:101440002B4601462046BDE8704018471C0200208C
:10145000B76DDBB68843000073B50C4C0C4A4023D3
:10146000041B00930D460B460A49A410614306462F
:10147000094802F033FC011E05DA30462B4602B063
:10148000BDE87040184702B070BD00BF1C020020CC
:101490004D3D0000B76DDBB688430000002270B5FB
:1014A000012104461046FFF779FD0020FFF758FDA3
:1014B000104800F0A5FF104B984218D1206900F0A9
:1014C000C9F902F0FAFC26690C49304602F036FAF6
:1014D00000280BDB246909490125356404F11C004F
:1014E00002F02CFA002801DBE564002070BD6FF0EB
:1014F0000400FBE7351500000000AD0BEC450000D3
:1015000001460C2309484B4370B5C418D4E90E5664
:1015100000224033A263184402F0A1FB2DB13246F1
:101520002B460348BDE87040184770BD1C020020E0
:1015300088430000012810B504460AD003280CD0C7
:1015400078B9084B1B6C5B070BD1BDE81040FFF767
:10155000D7BF00F08DF92046F7E7BDE8104000F056
:1015600095B910BD1C02002008B54FF02003EFF321
:10157000118183F31288BFF36F8F124A136843F00F
:10158000020013F0010310600CD04FF08042D2F83B
:101590000C34D2F80C2413F0010303D00A4802F0F3
:1015A0005EFB012381F31188BFF36F8F23B1BDE888
:1015B00008400020FFF7A4BFBDE80840012002F06A
:1015C00089BC00BF6C0200205C0200201FB5002215
:1015D0000123CDE90223094ACDF800D06B46CDF8AE
:1015E00004D002F0ACFB002805DB4FF4804200235E
:1015F000684601F08BFA05B05DF804FB653D00001C
:10160000094BBFF35B8F53E8002F22F0020143E840
:1016100000100028F7D1BFF35B8FD30702D401205D
:1016200002F073BC704700BF6C020020024AC3B2D4
:101630001C2003FB002070471C020020F8B528493D
:10164000BFF35B8F0646012251E8003F41E80020CE
:101650000028F9D1BFF35B8F33B9224922484B6090
:10166000CB608A6002F07DF9731E012B20D802F056
:10167000B6FC044610B91D4B1B7853BB4FF020033A
:10168000EFF3118583F31288BFF36F8F01244FF0BE
:101690008047D7F81834D7F81824D20309D59B0708
:1016A00001D0012E05D174B185F31188BFF36F8F7E
:1016B000F8BD1CB12846FFF749FCEAE700212120CC
:1016C00001F040FEE5E74FF080430222C3F8042317
:1016D000EEE74FF080430222C3F808230546D6E721
:1016E000700200200C02002038020020BC03002001
:1016F00008B5094B1B6853B94FF080430222C3F869
:10170000342C00F08FFE054B01221A7008BDBDE895
:101710000840034801F002BB8C020020BA030020FD
:101720000C0000200D4BBFF35B8F012253E8001F1C
:10173000002903D143E800200028F7D1BFF35B8FD5
:101740000AD107490023CB60064B4B6003238B6013
:10175000054B186802F005B9704700BF74020020FD
:1017600078020020F11600008802002008B5034826
:1017700000F046FF024B1860002008BD96460000AE
:101780008C02002007B500220023CDE90023084881
:101790004FF40032002301F0F7FF064B186802F007
:1017A00029F9054B00221A6003B05DF804FB00BF65
:1017B00048000020880200207402002037B5204D28
:1017C000286883681F4CDB683921984798B100234B
:1017D00023701A46217809B1012A25DD1A4A13809F
:1017E0004FF080430222C3F8342C00F01BFE01238B
:1017F000237003B030BD286883686A461B690C21DA
:1018000098470028E3D1114A019B93FBF2F3009A19
:1018100003EB82030C4AB2F900201BB29A1A002A89
:10182000B8BF524212B2D5E7094A136801390133F1
:101830002170136003B0BDE83040FFF7A3BF00BFC5
:101840008C020020BA030020B803002090D00300CF
:1018500094020020034B044A186000231360034ADB
:10186000136070478802002090020020940200203C
:10187000024B00221A70FFF755BF00BFBA030020C9
:10188000014802F034BD00BF48000020024A13683E
:1018900001331360FFF776BF9002002008B5084BB4
:1018A0000848186002F06AFB38B10748FFF77AFD74
:1018B0000548FEF703FE002008BD6FF01200FBE7AD
:1018C00098020020A0430000CD1800000A2838B577
:1018D000074D044604D1286883680D215B6898474A
:1018E00028688368E1B25B689847204638BD00BF2E
:1018F0009802002008B5094B1A786AB901211970BD
:1019000006200521FFF74AFB0620FFF729FB044BC1
:101910004FF00042C3F80423002008BDBB030020A1
:10192000006000402B4BF0B544682B4813408342C5
:1019300041D00DD8062B15D005D89BB1022B3CD039
:101940006FF0150036E0B3F5801FF9D1012309E0EF
:101950002248834233D0B3F5A00F32D0B3F5800FC5
:10196000EED10223D00654BFC2F34016032682F400
:1019700080759705C2F34020C5F3002507D512F402
:10198000006F67681FD001228A40C7F80825227AB5
:10199000134C012A01F01F0140EA450218BF4FF025
:1019A000A04442EA032301F5E07143EA860344F8C8
:1019B00021300020F0BD0723D4E70423D2E705231C
:1019C000D0E70323CEE7520542BF01228A40C7F881
:1019D0000C25DCE70600F0000600100002004000C5
:1019E0000003005000F01F024009084B012818BFF7
:1019F0004FF0A04303EB8203D3F8002722F44032D8
:101A000042EA0142C3F80027704700BF00030050BC
:101A10002DE9F84F0369D0F804A0DE68DFF87CB048
:101A20008846D3E905210A4326EA0206DAF80420AB
:101A30001B69D2F810555D4026EA0505374601249A
:101A40004FF0000917B92846BDE8F88F3C4221D075
:101A50009AF8083009F01F00344240EA431014D1CC
:101A60004209012A00F01F0314BF4FF0A0425A465A
:101A700003F5E07352F82330C3F30143022B02BF96
:101A8000D8F800302343C8F800300021FFF7AAFF40
:101A900027EA040709F101096400D3E700030050B5
:101AA000F0B5002485B0CDE90044CDE90244284ECC
:101AB000D6F87C516DB102A92648FFF7A9FF03A90A
:101AC00000902548FFF7A4FF0190C6F87C41D6F8A6
:101AD0007C3122491E4C002201269446D4F804335E
:101AE00006FA02F0184216D00B68A3B102F5A273F1
:101AF00004AF54F82330C1F800C0C3F3403007EB03
:101B00008000C3F3042350F8107C06FA03F33B4330
:101B100040F8103C0B680132082A01F10401DDD1C4
:101B2000009A22B10E4B0B49586802F079F9019ADC
:101B300022B10C4B0849586802F072F92DB10548E2
:101B400002F07FF9044802F07CF905B0F0BD00BF57
:101B500000600040D0430000E84300000061004006
:101B60009C020020B8020020F7B5144642680769BD
:101B7000127A01F01F05B4F5A03F0E4645EA421562
:101B800010D16909012905F01F02614902F5E072CF
:101B900018BF4FF0A04151F82220D00707D56FF0B1
:101BA00085009AE0B4F5005FF96800F09880FA6863
:101BB0000121B14011437A69F9600121B140B4F5C6
:101BC000A03F0CBF0A438A437A61BA69B3F5C02FBC
:101BD0000CBF0A438A43BA613A69B3F5802F0CBF40
:101BE000114322EA01014B4A3961D2F80433002043
:101BF000DBB200F5A27152F82110C1F305218D422C
:101C000072D123FA00F1C9076ED5830003F1804336
:101C100003F5C043D3F8101521F00101C3F81015E6
:101C200001238340C2F80833C0B200F071FC28469B
:101C30000021FFF7D7FEF868F04010F001004CD00B
:101C40007869F04010F0010455D0BB69F340DB0720
:101C50005FBF396921FA06F606F00106C6F10206F1
:101C60000DF1070054BFF6B2032600F071FC2A4BB9
:101C700098423DD19DF80720930003F1804303F57E
:101C8000C0432D02D3F8101521F44F3121F44071D7
:101C9000C3F81015D3F8101505F47C550D4345EA2B
:101CA0000646C3F81065930003F1804303F5C24371
:101CB000002018609DF807101B688B0003F180431B
:101CC00003F5C043D3F8102542F00102C3F81025F4
:101CD000104A01238B40C2F8043303B0F0BD012247
:101CE000B24021EA020166E70130082881D19EE76F
:101CF0006FF01200F1E73969F14001F00101C1F123
:101D000003012846C9B2FFF76DFE2046E5E700BF94
:101D100000030050006000400000AD0B014B0122A9
:101D20001A60704700C000400C2903690BD15B6A40
:101D3000064907484B4393FBF0F100FB1133116058
:101D40005360002070476FF08500704790D003000B
:101D500040420F00044B00690022C3F80021D3F871
:101D6000003100F0B3BE00BF00C000407FB5056980
:101D7000AB6A63B3392901D00C292BD105F11006C8
:101D80004FF0FF324FF0FF33304600F0E5FD134BCC
:101D90000193A86A0323002469460394029301F087
:101DA000E0FD4FF0FF324FF0FF33284600F0AEFE6B
:101DB000A86A01F01FFE0A4BD3F808256A620122C7
:101DC0005A60304600F040FE204604B070BD6FF00F
:101DD0000A00FAE76FF08500F7E700BF1D1D00005D
:101DE00000C0004010B504690020FFF71FFCA0628E
:101DF0004FF0FF320021204602F012F904F11000EA
:101E000002F007F9002201210C20FFF7C7F80C208F
:101E1000FFF7A6F8024B0122C3F80423002010BDEF
:101E200000C00040074BD3F8082142B10020C3F89E
:101E30000801D3F80821D3F818350B7070474FF01C
:101E4000FF30704700200040024BD3F88004C3F8F5
:101E5000800470470020004070B54B79012B24D0DE
:101E6000032B1FD110268B79032B1BD1CC79CCB936
:101E70000A79012A1BD0022A1BD09AB914460B6892
:101E8000B3F5164F66D031D8B3F5165F64D01AD8C3
:101E9000B3F5966F62D00ED8B3F5967F61D0B3F5E7
:101EA000167F61D06FF0850053E00026DBE74FF42A
:101EB00080740E22E3E7B3F5166F58D0B3F5965F42
:101EC000F0D1354B39E0B3F5E14F53D007D8B3F536
:101ED000615F51D0B3F5964FE4D1304B2DE047F61A
:101EE0001225AB42DED14FF4000326E0B3F5613F8B
:101EF00045D011D8B3F5963F43D008D84DF6C0254C
:101F0000AB4240D0B3F5614FCCD1254B15E0B3F5D2
:101F1000E13FC7D1234B10E0B3F5612F36D007D88E
:101F2000214DAB4234D0B3F5E12FBBD11F4B04E0C0
:101F30001F4DAB42B6D14FF080531E4D324322436A
:101F4000C5F82435C5F86C25036903C983E8030087
:101F5000002070BD184BF0E7184BEEE74FF49E23BE
:101F6000EBE74FF4A033E8E74FF41C33E5E74FF419
:101F70001D23E2E7124BE0E74FF46C13DDE7114B52
:101F8000DBE7114BD9E74FF46503D6E70F4BD4E7F6
:101F90004FF08063D1E700BF00B0130000A04E00F7
:101FA00000F0EB0000E0D70190D0030000705F0765
:101FB00040420F000020004000509D0000502700CC
:101FC00000F0750000B0AF0300903A0100D0BE0EE3
:101FD000F8B50E4602F003F81A4D78BB64240127C9
:101FE000BFF35B8F55E8003F002B03D145E800723B
:101FF000002AF7D1BFF35B8F07D021200021013CDD
:1020000001F0A0F914F0FF04EAD10F4C0023C4F84A
:102010001C31D4F81C310123A360C4F81C654FF4B3
:102020007A76D4F81C3123B9012001F044FF013E37
:10203000F7D10123E36000232B60F8BD01232B605F
:10204000E3E700BF000300200020004010B54FF080
:10205000A042134C00234021C4F80035C2F80815F3
:102060000321C2F81817C2F8203A2823C4F81435FF
:102070000623C4F80C354FF0FF33C4F80835016966
:10208000C4F81035FFF7E8FE40B90423C4F8003562
:10209000C4F80801D4F808310123236010BD00BF43
:1020A00000200040044A1368C81A20F07F4003440F
:1020B000136001F0BBBA00BF100300202DE9F84304
:1020C000860006F1804600F1500406F58836A4002B
:1020D000A4B204F180444FF48037D6F84035DFF8DD
:1020E0006C8021F07F4504F588348740D8F804954A
:1020F000A3EB090323F07F4329F07F42012BC6F8AD
:10210000402502D1132002F0EEF809F10202AB1AC9
:1021100023F07F43B3F5000F88BF154600232360EB
:102120002368C8F8447325F07F43C6F84035D8F8D3
:102130000435994506D0EB1A023B23F07F43B3F5F3
:10214000000F01D8BDE8F8832B46CFE7001001400F
:1021500070B5154D154C00262B68002006B170BDDA
:10216000D4F80423D203FAD5D4F84021002AF6D0BB
:10217000C4F84061D4F840214FF48032C4F84823B9
:10218000D4F84015D4F80465721A22F07F42B2F5F3
:10219000000F88BF314601261BB16A682860984746
:1021A000DAE72B60DBE700BF0403002000100140EA
:1021B00038B50F4C00254FF48033C4F80855C4F8E7
:1021C00004330C4B4FF40032C3F8802101212A461E
:1021D0001120FEF7E3FE1120FEF7C2FE0123064A9E
:1021E000A360022023601360FFF728FA284638BD59
:1021F0000010014000E100E00C030020134AB0F1A0
:10220000FF3F14BF03461346013B002B1CDD9342E6
:10221000A8BF13460E4AD2F804050E4A1168401AA8
:1022200010F4000F20F07F4218BF00230132134446
:10223000094A0A48106000205060044A934294BF43
:10224000C9188918FFF73ABF0023E3E7FFFF7F00B3
:10225000001001401003002004030020A52000000E
:10226000044BD3F80405044B1B68C01A20F07F40D0
:10227000704700BF0010014010030020024AD2F84E
:102280000034002BFBD0704700E0014010B501F096
:1022900008FE40B14FF080430022C3F80C21C3F880
:1022A0001021C3F8382501F0FCFD002846D04FF07E
:1022B00080524C4BD2F80414C3F82015D2F80814FD
:1022C000C3F82415D2F80C14C3F82815D2F810144A
:1022D000C3F82C15D2F81414C3F83015D2F818141A
:1022E000C3F83415D2F81C14C3F84015D2F82014E2
:1022F000C3F84415D2F82414C3F84815D2F82814AA
:10230000C3F84C15D2F82C14C3F85015D2F8301479
:10231000C3F85415D2F83414C3F86015D2F8381441
:10232000C3F86415D2F83C14C3F86815D2F8401409
:10233000C3F86C15D2F84424C3F8702501F0B1FD40
:1023400048B14FF08043D3F80024D20744BF6FF068
:102350000102C3F800244FF08053D3F830210D2A36
:102360000ED1D3F83431022B02D81F4AD35C3BB1D3
:102370004FF01023D3F808224FF08043C3F85825BC
:102380004FF01023D3F80022002A03DBD3F80432E5
:10239000002B22DA154901234FF01020C1F8043533
:1023A0001224FFF76BFFC0F80042FFF767FFC0F889
:1023B0000442FFF763FF0023C1F80435FFF75EFF17
:1023C000BFF34F8F0A490B4BCA6802F4E062134314
:1023D000CB60BFF34F8F00BFFDE7074B074A1A6082
:1023E00010BD00BF00C00040BC46000000E001403E
:1023F00000ED00E00400FA05240000200090D00366
:10240000054B1A792AB95A71012218601A710348CA
:1024100070470348704700BF140300200000AD0B55
:102420000C00AD0B4FF08043D3F80C24D3F80C1400
:10243000C80316D5D10714D5D3F81824D20310D564
:102440000A494A7902F0FF006AB9C3F80C01D3F8CF
:102450000C2107480822C3F8042301224A711A619B
:102460007047044870470448704700BF14030020B9
:102470000000AD0B0500AD0B0B00AD0B4FF0804322
:1024800010B5D3F8002152B10020C3F80001D3F8F1
:1024900000210122C3F808231C4B1B6898474FF00A
:1024A0008043D3F804215AB10022C3F80421D3F8A1
:1024B00004210222C3F80823144B01201B6898470B
:1024C0004FF08043D3F810215AB10022C3F81021F5
:1024D000D3F810211022C3F808230C4B02201B68EC
:1024E00098474FF08043D3F80C2172B10022C3F813
:1024F0000C21D3F80C110821C3F80813034B5A71AF
:10250000BDE810401B680320184710BD14030020CD
:10251000012303FA00F0C3B293B14FF02003EFF3AD
:10252000118183F31288BFF36F8F064A936D23EAFC
:102530000000906581F31188BFF36F8F02487047E8
:10254000024870471C0300200000AD0B0400AD0BD7
:102550002DE9F0410546DFF85CE01748DFF85C80C4
:102560000024FF220126E3B24FF02001EFF3118C8B
:1025700081F31288BFF36F8F22FA03F1C9070AD5DE
:10258000DEF8581006FA03F7394201BF3943CEF896
:10259000581040462B708CF31188BFF36F8F404565
:1025A00005D006FA03F39A4304F10104DBD1BDE838
:1025B000F08100BF1C0300200200AD0B0000AD0B3A
:1025C0000E4B70B553F82040013053F82060A642FE
:1025D00000D870BDD4E900352846984765B1EB684E
:1025E00030B10028B8BF4042FF28A8BFFF201870B4
:1025F0005A7842F001025A700834E8E75C4600005D
:1026000070B5054610B90024204670BD0378002B34
:10261000F9D00E4C0E4EB44208D10C4CB442F2D05C
:10262000204601F0ABFC50B91834F7E7204601F022
:10263000A5FC10B12368AB42E6D01834EBE7216863
:10264000284601F0AFFA0028EED1DDE7884300000C
:102650001844000010B5104C1049702386B003FBDD
:10266000004401220023CDE904230F22CDE90232E8
:1026700001930B4B182202FB00334FF4A07200931E
:1026800002FB0011074B204600F09EF8637B23F00D
:102690000403637306B010BD80000020C007002053
:1026A000780300202D29000008B50A4B01220220E2
:1026B0001A70FFF785FF01F037FE0320FFF780FF58
:1026C00000F0D8F8FDF79EFE034A137B23F00103C8
:1026D000137308BDBC030020F00000200248034A29
:1026E0000021121A01F086BA80000020C0030020E9
:1026F00080B5DFF8B480A2B088F308882B4D2C4E4B
:102700006B69DFF8B09043F400736B610024E02341
:1027100085F82230EC772C766C76AC7685F8204004
:102720006B6A43F4E0236B6285F82340FEF7F2FD09
:10273000FEF7F8FB4FF0FF33AB62EB6240F20113A0
:10274000ADF8243006ABB36001F017FC2046FFF76C
:1027500037FF0120184DFFF733FF00F05FFD174BE7
:102760000593012316490094CDE903434FF4806299
:102770004B46CDE901442846F56100F025F86A7B17
:10278000074622F0040228466A7301F0C2FC204684
:10279000FFF760FF0B4BF3604A4639462846347515
:1027A000C6F80480FEF7A4FC0011002000ED00E054
:1027B00078030020A9260000F0000020BF4600009A
:1027C000C0030020800000207FB50C9E06730732F6
:1027D0000426467300F158050B9E867322F007020B
:1027E000C0E916558E1800250A9A8560C0E906557D
:1027F000C5730292099A0192089A009232460446E1
:10280000FEF75AFC044B65659B6803B15B6E63661B
:10281000304604B070BD00BF78030020F0B587B02B
:1028200000270597109F04970F9F03970E9F02970D
:10283000DDE912650D9F01970C9F00970446FFF795
:10284000C3FFB5F1FF3F08BFB6F1FF3F05D055EA22
:10285000060305D1204600F0DBFB204607B0F0BDA3
:10286000034932462B4604F1180000F065FEF4E7F8
:10287000334100002DE9F043294C2A4D87B026460C
:10288000AE4204F130040FD300F0DEFA244CDFF83E
:1028900098904FF4004640F2E737AC4220D307B09F
:1028A000BDE8F04300F09EBC54F8043C059354F896
:1028B000103C049354F8143C039354F8183C0293CE
:1028C00054F81C3C019354F8203C009354E90C014B
:1028D00054E90A23FFF778FF54F8303C5E65CEE7F1
:1028E000636A5A1C0DD023EAE37300213846C3FB08
:1028F000060151EAC333D4F8008004D1404600F009
:1029000087FB3034C9E74FF47A720023FDF7F8FBF8
:1029100002460B4608F11800494600F00DFEF0E7AC
:1029200048000020480000203341000008B5094C51
:102930004FF02002EFF3118382F31288BFF36F8F01
:1029400001F0A3FCA061FEF7A9FA0028F0D1FEF780
:10295000EFFAEDE7780300202DE9F341044617462E
:102960001E464FF02003EFF3118883F31288BFF364
:102970006F8FC368324A6BB180689168884219D002
:1029800057EA060318D188F31188BFF36F8F6FF0F1
:102990000F000CE0916891F90E1021610133E360A2
:1029A0009368A36088F31188BFF36F8F002002B093
:1029B000BDE8F0812169F0E791F90E1090F90E3031
:1029C0009942A8BF19466FF07E029142B8BF1146E6
:1029D0008B422EDD01F015FB0546CDE90076194846
:1029E0002246414600F070FB0028E0D04FF0200363
:1029F000EFF3118683F31288BFF36F8F2368216989
:102A00009C420AD04BB193F90E309942A8BF1946A7
:102A10006FF07E039942B8BF1946A06801F0F1FA41
:102A200000B945B10748314600F0FCF96FF00A00E3
:102A3000BDE70025D1E786F31188BFF36F8FF5E777
:102A400078030020BD03002038B583680446002BBE
:102A500032D01C4A9268934231D1DA7B013ADA7360
:102A6000C368012B05D9013BC36000F0BBFB00200C
:102A700038BD4FF02003EFF3118583F31288BFF3C5
:102A80006F8F0169806801F0BCFA204601F0B2FB4B
:102A9000A06058B190F90E2022610022C26601F0B8
:102AA00038FB0948294600F0BDF9DEE7E06085F310
:102AB0001188BFF36F8FD8E76FF01500D8E74FF09C
:102AC000FF30D5E778030020BD03002038B5044669
:102AD0004FF02003EFF3118583F31288BFF36F8F5C
:102AE00001F088FB48B10022C26601F012FB2946C2
:102AF0000548BDE8384000F095B9D4E902329A4261
:102B000018BF0133A360F2E7BD03002013B54FF0F7
:102B10002004EFF3118184F31288BFF36F8F846870
:102B200044B1013C846081F31188BFF36F8F0020B2
:102B300002B010BD52EA030406D181F31188BFF33D
:102B40006F8F6FF00F00F3E7CDE9002302460248D4
:102B500000F0BAFAECE700BFBD0300202DE9F04F0A
:102B6000454E85B004464FF0FF384FF0FF394FF027
:102B70002003EFF3118783F31288BFF36F8F256F64
:102B80008DB9022104F1880001F056FA002832D1F3
:102B90000023CDE90089029304F1780239463748D1
:102BA00000F052FCE3E7626F2B682367954200D187
:102BB0006367D4F8883043F00203C4F88830EB68C8
:102BC00023F0040343F00103EB606B6887F3118883
:102BD000BFF36F8F284698474FF02003EFF3118B18
:102BE00083F31288BFF36F8FEB68990723F001021C
:102BF0000BD4EA600EE004F1800500220121284692
:102C000001F010FB0028F8D1C2E7306823F003037D
:102C1000EB6070B9D4F8883023F00203C4F8883030
:102C20008BF31188BFF36F8FD805A0D400F002FB9F
:102C30009DE70027D0F800A03B4642689542014638
:102C40000CD1016897B972683160824200D171601D
:102C500040F8083BFFF73AFF39460023BAF1000F6E
:102C6000D8D050460F46DAF800A0E6E7726839601F
:102C7000904208BF7760EBE7A0030020BD0300206F
:102C8000F8B5C3689A0704460E46C3F340051FD43F
:102C90005F071FD40A680AB982680A60D80744BF70
:102CA000A368336037684CBF022501256FB31A4B08
:102CB0009B68BB4211D101F092F980F00100C0B2D3
:102CC000D7F88830D907C3F3800221D53AB140B98B
:102CD0006FF00F050023336012E00020F0E71B07C0
:102CE000F6D4002323607B6F63B9C7E91C443846E0
:102CF00001F0ADF9E36843F00403E3603368A360D7
:102D00002846F8BD1C607C67F1E76FF01505E1E728
:102D10006FF01205DEE700BF78030020014601488E
:102D200001F09CB968010020F0B589B0044600208C
:102D3000C4E91C000E9D04F17800C4E91E0004F1F2
:102D40008000C4E920001DB32879002840F201105A
:102D500008BF0120C4F8880000204FF0FF364FF074
:102D6000FF37CDE90330CDE90100CDE90667094B16
:102D700000942046FFF752FD25B1296811B1204685
:102D800001F033F9204609B0BDE8F04001F030B958
:102D90000120DFE75D2B000010B5084C23685BB114
:102DA000FFF75EFA03462068054A0344BDE8104079
:102DB0001361002101F079BA10BD00BFB0030020FB
:102DC00078030020F8B504460D464FF02003EFF3DA
:102DD000118683F31288BFF36F8F0F4B00214FF4DE
:102DE000004740F2E73019614FF47A720023E4FBA8
:102DF0000701FDF785F9002C084B09DC1860084B2A
:102E00001D60FFF7C9FF86F31188BFF36F8FF8BD10
:102E10000228B8BF0220F1E778030020B0030020A9
:102E2000AC03002049B9EFF3058030B9054BDA69EE
:102E30009B689A4201D0FEF7F1B881F31188BFF385
:102E40006F8F7047780300204FF02003EFF311815C
:102E500083F31288BFF36F8F044B9A68D37B013BD7
:102E6000D37381F31188BFF36F8F7047780300200D
:102E700038B502460C480D4D01F045F9044600B93D
:102E8000EC68AB684AB95A7BD20606D1A26922B96E
:102E9000DA897F2A01D9EB6138BD9C4201D0FFF766
:102EA0007BFFEC61F8E700BF980300207803002067
:102EB00070B590F90D20437B002A014604DA03F037
:102EC0007F03437301F0E7F84B7B154A63F07F0300
:102ED0004B73D2E9083402F12005AB421BD0D3B1C9
:102EE00091F90E6093F90E0086420FD0801B0028E6
:102EF0000CDD5868C1E90030016059609068431AE0
:102F00005842BDE870405841FFF7B2BFA34202D01B
:102F10001B68002BE6D1C1E9005421605162EDE746
:102F20007803002038B501464FF02003EFF31184F9
:102F300083F31288BFF36F8F154B164A9868156894
:102F4000A84206D1FFF728FF84F31188BFF36F8FE3
:102F500038BD00251560104A1268BAB1C2897F2AAF
:102F600014D8427BD20611D10C4A90F90E50126847
:102F700095420BDB0A4A904208D01A698A4202DC69
:102F8000FFF796FFDEE7521A1A61DDE70022FBE742
:102F900078030020A8030020B0030020AC03002029
:102FA0008000002070B490F90D20437B002A2ADBBA
:102FB000DA0628D1826932BB144A63F07F03437377
:102FC000D2E9083402F12005AB4217D0B3B190F931
:102FD0000E6093F90E108E420BD0891B002908DD7C
:102FE0005A68C0E900321060586070BC0020FFF7DA
:102FF0003FBFA34202D01B68002BEAD1C0E90054B6
:1030000020605062F1E770BC704700BF7803002079
:1030100010B54FF02002EFF3118482F31288BFF352
:103020006F8F427B510704D484F31188BFF36F8FF5
:1030300010BD22F004024273FFF7B4FF214602489C
:10304000BDE81040FFF7EEBEBD03002008B590F9C3
:103050000D20437B002A014604DA03F07F0343730B
:1030600001F019F8044B9868431A58425841BDE8DA
:103070000840FFF7FDBE00BF780300202DE9F041B6
:10308000064615461C464FF02003EFF3118783F3E5
:103090001288BFF36F8F01F06EF887F31188BFF3CA
:1030A0006F8FB4F1FF3F08BFB5F1FF3F08D02A464C
:1030B000234606F118000349BDE8F04100F03CBA90
:1030C000BDE8F0813341000010B5074B9868074B0D
:1030D0000C4618601146DDE90223FFF7CFFF2046BA
:1030E000BDE81040FDF79ABF78030020A803002038
:1030F000F8B504464FF02003EFF3118683F31288EE
:10310000BFF36F8F437BDA0649B233D182698ABB42
:1031100003F07F03437300F0BEFF437B174A8173C4
:1031200063F07F034373104650F8203F83421BD067
:10313000D3B1576A93F90E50A94210D06D1A002DE1
:103140000DDD5A68C4E9003214605C600120FFF7AD
:103150008FFE012086F31188BFF36F8FF8BDBB424D
:1031600002D01B68002BE5D1536AC4E900031C6040
:103170005462EBE7A1730020ECE700BF7803002066
:1031800070B50446183001F06AF84FF02003EFF3F1
:10319000118683F31288BFF36F8F94F90D20637B40
:1031A000002A05DA03F07F036373204600F073FF03
:1031B0000B4D637BA86843F010036373031B5842F5
:1031C0005841FFF755FE86F31188BFF36F8FAB6848
:1031D000A34203D1BDE8704000F08BBF70BD00BFBB
:1031E0007803002010B54FF02003EFF3118483F330
:1031F0001288BFF36F8F084B9A68D37B0133D37368
:103200000020FFF735FE84F31188BFF36F8FBDE810
:10321000104000F06EBF00BF78030020044B002177
:1032200003F12002C3E908220846FFF7CBBD00BF27
:1032300078030020F8B54FF02003EFF3118583F3F6
:103240001288BFF36F8F1A498868437B03F07F03AE
:10325000437300F020FF8B685A7B084662F07F02C0
:103260005A7350F8202F82421CD0DAB14F6A93F97A
:103270000E6092F90E40A6420FD0A41B002C0CDD6C
:103280005168C3E900210B6053600120FFF7F0FD96
:103290002846BDE8F840FDF7C1BEBA4202D0126828
:1032A000002AE6D14A6AC3E9000213604B62ECE7E8
:1032B0007803002050EA01032DE9F04105460E464F
:1032C00003D1FFF7B7FF002033E06FF00104241AA9
:1032D0004FF0FF3363EB0103012C73F1000302DABB
:1032E00000F0FDFF44194FF02003EFF3118883F342
:1032F0001288BFF36F8F104F104BB8681860FFF73C
:10330000A5FEB8680E492A463346183000F014F975
:10331000BA68537B43F0100353734046FDF77EFEBB
:1033200000F0DDFF201A63EB0303012873F10003B3
:10333000C9DBBDE8F08100BF78030020A8030020AE
:1033400033410000B1F1FF3F08BFB0F1FF3F08B5C6
:1033500006D1084B9868FFF713FF4FF0FF3008BD08
:10336000FFF7A8FF4FF47A7380FB0303C00B40EA1A
:103370004340F4E778030020014B9868704700BF92
:1033800078030020EFF305833BB9054B9B68D88990
:103390007F288CBF0020012070470020704700BFAD
:1033A000780300202DE9F04104464FF02003EFF3AD
:1033B000118683F31288BFF36F8F437B1A0705D5FD
:1033C00086F31188BFF36F8FBDE8F08123F02002F0
:1033D00042F00801D20920D14173A36813B12046FD
:1033E00000F061FE04F1180000F039FF04F1580705
:1033F0004FF00008A56DBD4200D0B5B90120FFF720
:1034000037FD104B9B68A342DAD1EFF30583002B05
:10341000D6D13046FDF702FED2E703F05F0343F05A
:103420000803437300F037FED7E7284600F03BFE61
:1034300005F1180000F013FFC5F86C802846FFF76F
:10344000B1FDD7E778030020D3B5DDE90667089C16
:10345000CDE90067FFF738FE1CB1034B9B685B6941
:10346000236002B0D0BD00BF7803002008B5064835
:10347000064A0749121A00F0B2FBBDE80840054AA7
:103480000549064800F0ABBB00000020800000208A
:10349000D046000000000000D046000000000020E0
:1034A000034B1B680BB9FEF7DBBE0020704700BF63
:1034B000B4030020114B10B51C689C4208BF0024C7
:1034C000FFF7EEFF03466CB1D4E90402C01A62EBC9
:1034D000E373012873F100020DDBB0F1004F73F1CB
:1034E000000301DB6FF00040054B1B6913B19842EC
:1034F000A8BF184610BD0020F6E700BF2800002036
:103500007803002030B5036868B10A4A52689042D7
:1035100009D043B1D3E90421D0E90445121941EBA4
:103520000501C3E90421426813605A600023C0E921
:10353000003330BD28000020B3F1FF3F08BFB2F1D7
:10354000FF3FF8B504461F46154667D081604FF02F
:103550002003EFF3118683F31288BFF36F8F6FF0B0
:103560000102531B4FF0FF3C6CEB0703002B1BDBEE
:103570002B4BD3E90013521A6CEB0303551B63EB7F
:103580000703012D73F10002BCBF01250023C0E930
:1035900004532448D0E9003C834218D1C4E9000C0C
:1035A000CCF80040446026E0FFF77AFF013547F190
:1035B00000072D1847EBE077C4E90457E9E7521AF2
:1035C00065EB07059C45C4E90425E7D01B68002B83
:1035D000E4D0D3E90417D4E904258A4275EB070E39
:1035E000EDDA8A1A67EB0505C3E904255A68C4E9D0
:1035F000003214605C60036883420BD09C4209D1A6
:10360000FFF758FF18B1084B1B69834202D0002115
:10361000FEF7F4FD86F31188BFF36F8FF8BD00BF8E
:103620006001002028000020780300202DE9F843E5
:103630000546FFF777FC4FF02003EFF3118483F387
:103640001288BFF36F8F244EDFF890803560244DD1
:10365000D8F8000032684045D5E9001E4FEAE2770D
:103660000BD050B1D0E9043C9A4277EB0C0916DA42
:103670009B1A6CEB070CC0E9043C52184EEB070791
:10368000C5E9002700253560FFF714FF2946FEF73E
:10369000B5FD84F31188BFF36F8FBDE8F883591827
:1036A0004EEBE377D31A336000220023C0E90423F2
:1036B000C5E90017FFF726FF84F31188BFF36F8F6A
:1036C000836898474FF02003EFF3118483F3128847
:1036D000BFF36F8FBCE700BFB403002028000020B9
:1036E0006001002010B54FF02003EFF3118483F345
:1036F0001288BFF36F8FFEF7B3FD054AD2E90031A0
:10370000C01841F1000184F31188BFF36F8F10BD21
:103710006001002070B504464FF02003EFF31186DE
:1037200083F31288BFF36F8FD0E90A32013342F17D
:103730000002022B72F1000304D3D0E90A231149DD
:10374000FFF7FAFE236B01332363236A0BB1204694
:10375000984754F8185FA54200D025B986F3118820
:10376000BFF36F8F70BD284600F0A7FC0023EB6607
:1037700086F31188BFF36F8F2846BDE8704000F0D4
:10378000C8BC00BF153700002DE9F04111460546C1
:103790001846B0F1FF3F08BFB1F1FF3FDDE9062356
:1037A000884607463CD0B3F1FF3F08BFB2F1FF3F68
:1037B00014461E4613D01A4311D06FF00102121B9B
:1037C0004FF0FF3262EB0302002A08DA013C63F19A
:1037D0000006012C76F10003BCBF012400266FF027
:1037E00001035B1A4FF0FF3363EB0003002B08DA91
:1037F0004A1E60F10007002F9046BCBF4FF0000842
:103800004746284600F02BFD00232B63C5E90A46F6
:1038100042463B4628460349BDE8F041FFF78CBECF
:10382000BDE8F081153700001FB5094B029302ABCC
:1038300000240093074908488DF80C404FF0FF33EF
:103840004FF48062FFF770FA204604B010BD00BF4D
:10385000C4460000001100206801002070470346A4
:1038600058B1426802F00302012A03D0032A04D1AE
:10387000026812B10020986070476FF01500704721
:103880004268816002F00302032A4FF000020346FF
:103890000CBF006810465A60704700207047038BC9
:1038A00013F0070305D10368002B0CBF0020032091
:1038B0007047022B05D1438B002B14BF002004203E
:1038C0007047012B05D10368002B0CBF0020052099
:1038D0007047002070472DE9F0410D460746194614
:1038E000281D90461E46FFF7CBFF044638B13346ED
:1038F000424629463846A446BDE8F0416047BDE847
:10390000F08110B44FF02004EFF3118284F3128899
:10391000BFF36F8F416110BC0121FCF7D5BD10B51D
:103920000C4640B139B1081DFFF799FF28B9A368CB
:1039300033F0030301D06FF0150010BD38B50C460D
:10394000054658B151B10B6843B14B6833B11C22E5
:10395000002100F04FF92C61002038BD6FF01500F8
:10396000FBE770B504460E46FFF7D9FF051E31DBB5
:103970004FF02003EFF3118183F31288BFF36F8FB1
:10398000638B208B4FF6FF75AB4200F007022ED001
:10399000022A0ED1013363831546012381F3118876
:1039A000BFF36F8FB3B1002331462046FFF793FF7B
:1039B00010E0830701D0062A0ED10023336063682C
:1039C00093B9C4E90066154662B90A462046022149
:1039D000FCF77AFD284670BD052A0CBF6FF08505FF
:1039E0006FF004050023D9E71E606660EBE76FF017
:1039F0000A05F7E710B54FF02003EFF3118283F3C8
:103A00001288BFF36F8F048B04F00704022C0AD0D6
:103A1000012C0CBF6FF004006FF0850082F3118859
:103A2000BFF36F8F08E0438B013B9BB2438323B905
:103A30002146FCF749FD204610BD2046EEE704462E
:103A400008B5084611461A46A047FFF795FCFDF752
:103A500097FC2DE9F84F9A46D3786F2B80460F4696
:103A60001546A3F1410B29D024D8582B14BF0A26A0
:103A70001026DDF828903246002340463946FCF7F0
:103A80003FFB092AD4B21ED83034B045E4B277F1F6
:103A9000000309F8014D01D3D14511D82B789B06BD
:103AA00005D5082E15D1AB7843F00803AB70484616
:103AB000BDE8F88F03F0F703702BD7E70826D8E7A7
:103AC00080460F46D7E7BBF1190F94BF3734573400
:103AD000DBE7102EEBD1AB7843F01003E6E72DE9DE
:103AE000F0410746884615461E461446B442A4EBEC
:103AF000050002D33EB923782BB114F8010B4146DF
:103B0000B8470028F2DABDE8F08170470022C0E92A
:103B100000228260704700F047BA0146006800F05A
:103B200043BA00210120FFF7F6BF08B5FDF74EFAB2
:103B3000BDE80840FDF70EBB30B50278202A0346E9
:103B400000F10100F9D0A2F109010429F5D92B2ACD
:103B500008D02D2A0ABF034600210121013B002085
:103B60000A2506E003460021F8E7C2F1300205FB12
:103B7000002013F8012FA2F13004092CF5D901B966
:103B8000404230BD034600201A5C02B97047013044
:103B9000FAE7034600201A5C0AB1884200D1704758
:103BA0000130F8E7431E013913F8012F11F8010F16
:103BB000824201D1002AF7D1101A704710B503468E
:103BC0005AB10139841813F8010B11F8012FA342DF
:103BD00001D09042F7D0801A10BD1046FCE710B516
:103BE000431E0A44914200D110BD11F8014B03F865
:103BF000014FF7E7C9B202440346934200D1704730
:103C000003F8011BF9E74FF0FF307047FDF7D0BB19
:103C100084B004AB03E907009DF80430062B08D1FB
:103C20004FF080430122C3F80025BFF34F8F20BF20
:103C3000FDE704B0704784B004AB03E9070000233C
:103C400083F31188BFF36F8F04B070470369C9B263
:103C50000C2201FB0233186C00F0070070474FF094
:103C60002003EFF3118283F31288BFF36F8F036891
:103C700003F0C00343F00203036082F31188BFF333
:103C80006F8F7047034670B50069C9B24FF02004CA
:103C9000EFF3118684F31288BFF36F8F0C2505FBB9
:103CA0000104246C14F0C00401D0A24210D105FB21
:103CB000010001220264002086F31188BFF36F8F98
:103CC00028B95B6803EBC1014B689847002070BDC1
:103CD0004FF0FF30F0E78022FFF7D4BFF8B5069F22
:103CE00004690546C9B24FF02000EFF3118C80F350
:103CF0001288BFF36F8F0C2606FB0146306C00F074
:103D0000070EBEF1010F11D1376400268CF3118824
:103D1000BFF36F8F46B90C2000FB0144C4E90E23AA
:103D20006B6853F8313098473046F8BD00F0C0005A
:103D3000874214BF4FF0FF366FF07706E6E713B502
:103D400080240094FFF7CAFF02B010BD006910B4D0
:103D5000CBB21C2403FB0400002110BC1047002040
:103D600000F0B8B81046FEF7B1BE08B5FDF788FD03
:103D7000BDE80840002000F0C8B8FDF7D3BC436898
:103D80005B68D3F810350B600020704743685B68B0
:103D9000D3F8040542400A404240C3F804250020FD
:103DA000704743685B680020C3F808157047436894
:103DB0005B680020C3F80C15704743685A68D2F856
:103DC00004354B40C2F80435002070470369586839
:103DD00030B558B10024814212D108689D6854B9A9
:103DE0008D42586000D19860002008606AB90020B8
:103DF00030BD2846EFE78D42206008BF9C60F3E7A6
:103E000005680446002DF4D13AB198685A680A60F2
:103E100059600028EBD19960EAE76FF01500E7E7F9
:103E200070B50E461546014650B104688A682A40AE
:103E300002D04B683046984714B121462468F5E714
:103E400070BD2DE9F0410769D0F80480FC68D7E91E
:103E50000532134324EA0304012600250CB9BDE80A
:103E6000F081264210D0396998F80830E94001F015
:103E70000101C1F1030105F01F00C9B240EA43107E
:103E8000FDF7B0FD24EA060401357600E6E7026995
:103E90000B4692E8030083E8030000207047704758
:103EA00070474FF08053D3F83001A0F10D03584212
:103EB00058417047004700F016BA08B50020FDF7DA
:103EC0005FF808B9FDF74CF84FF080430022C3F8C3
:103ED000182508BD10B101280CD070474FF0804361
:103EE000C3F80401D3F804210222C3F804230122F9
:103EF0009A6070474FF080430022C3F80021D3F846
:103F00000021C3F804031860704738B510B10128C8
:103F100017D038BD4FF080440223C4F80833C4F8EA
:103F20000401D4F804310123E36042F21075D4F89F
:103F30001834DB03EDD50120FFF7BDFF013DF6D1BD
:103F4000E7E74FF080440023C4F80803C4F80031C9
:103F5000D4F80031606042F21075D4F80C34D4F813
:103F60000C24D20303F00103D3D5002BD1D00120C0
:103F7000FFF7A1FF013DF0D1CBE7704738B1C3682F
:103F80001888C0F30800A0F5807358425841704764
:103F90004FF02002EFF3118382F31288BFF36F8F8B
:103FA000FEE708B5FFF7F4FFF8B505460E464FF0FB
:103FB0002003EFF3118783F31288BFF36F8FFFF7AE
:103FC000DBF9314604462846FFF7EBFF87F31188FB
:103FD000BFF36F8F2046BDE8F840FDF7D1B9EFF38E
:103FE0000580003818BF012070476FF057007047F8
:103FF000FFF70EB808B5FCF72BFFBDE80840FFF748
:104000004FBF90F90E308B4201D0FFF771B80020FE
:10401000704703460020C3E90200C3E9003370473C
:104020003AB18A4205D3C0E90212C0E9000000207B
:1040300070476FF015007047026801238B4022EA39
:104040000303036022FA01F000F00100704720B181
:1040500000221146783000F0E5B8704737B501907E
:1040600008464FF02003EFF3118583F31288BFF366
:104070006F8F01A9FEF704FE044685F31188BFF394
:104080006F8F002804DDFFF77DF908B1FFF7D2F844
:10409000204603B030BDD0E9003213605A600023DF
:1040A000C0E90033704708B5FFF7F5FF437B23F005
:1040B000020343730023836008BD08B54FF020035B
:1040C000EFF3118183F31288BFF36F8FFFF7EBFFDC
:1040D00081F31188BFF36F8F08BD034620B9EFF35A
:1040E00005820AB9FCF79ABF83F31188BFF36F8F7B
:1040F00070474FF02003EFF3118083F31288BFF372
:104100006F8FFFF7EABF03460068834208BF0020B5
:10411000704710B54FF02003EFF3118483F312883A
:10412000BFF36F8FFEF73EFF84F31188BFF36F8FED
:1041300010BD10B501464FF02003EFF3118483F357
:104140001288BFF36F8F10F80B3C13F0280F0DD1BE
:1041500051F8103C18380BB1FFF7A5FF11F80B3CD4
:1041600023F0140301F80B3CFEF71CFF84F31188C5
:10417000BFF36F8F10BD38B504460D46FEF766FFDE
:10418000637B43F00203637395B12B68A5609D4286
:1041900015D0A3B194F90E1093F90E20914208D0D6
:1041A000521A002A05DD5A68C4E9003214605C60C6
:1041B00038BD6A68934202D01B68002BECD16B6853
:1041C000C4E900531C606C60F2E710B54FF02003A7
:1041D000EFF3118483F31288BFF36F8FFFF793FF20
:1041E000014608B1FFF75FFF84F31188BFF36F8FBB
:1041F000084610BD38B54FF02003EFF3118583F367
:104200001288BFF36F8FFFF77EFF044620B1FFF7E0
:104210004AFF183000F023F885F31188BFF36F8F41
:10422000204638BD38B54FF02003EFF3118583F3F6
:104230001288BFF36F8FFFF766FF044650B1C16667
:104240004261FFF730FF183000F009F82046FEF712
:10425000A9FE012085F31188BFF36F8F38BD10B51B
:104260004FF02002EFF3118482F31288BFF36F8FB7
:1042700003683BB1FFF746F9002084F31188BFF3D0
:104280006F8F10BD6FF01500F7E710B54FF02003EA
:10429000EFF3118483F31288BFF36F8FFFF70AF9EE
:1042A00084F31188BFF36F8F10BD70B504460D46BF
:1042B0004FF02003EFF3118683F31288BFF36F8F63
:1042C000FFF7F8F8012805DDA04203DB2946204668
:1042D000FDF794FF86F31188BFF36F8F70BD08B5AB
:1042E000FFF700FA08BD08B1FDF794B8704710B5A4
:1042F0000446FFF7B4FFB0B9636A0BB12046984794
:1043000004F11800FFF761FF68B1FFF702FF4FF0FB
:104310002003EFF3118083F31288BFF36F8FBDE8A2
:104320001040FFF7DABE10BD70470000FDF7AEBFCA
:0843300000BEFF7F0100000048
:10433800ED130000000000009D14000088430000F9
:104348004D200000A0430000B1210000B843000048
:10435800F5180000E8430000F5180000D0430000FD
:1043680029380000000000009D180000000000002F
:10437800E51D0000004400006D170000000000006B
:1043880090460000DC450000C845000030000020D1
:104398001C020020B8450000AB46000000000000E9
:1043A80048460000400000201C000020B0450000E6
:1043B800B246000000000000000000004400002099
:1043C80000000000AC450000A44600001C460000A8
:1043D800F8450000380000209C020020A645000097
:1043E8009D46000028460000F845000034000020E3
:1043F800B8020020A045000096460000000000001A
:10440800344600003C000020D402002098450000FB
:104418007D240000B53E000000000000233B0000A2
:1044280000000000233B000000000000233B0000C8
:1044380000000000233B000000000000233B0000B8
:1044480000000000A11A000000000000233B00004B
:1044580000000000233B000000000000233B000098
:1044680000000000233B000000000000233B000088
:1044780000440000551D000000000000233B000020
:1044880000000000233B000000000000233B000068
:1044980000000000233B0000000000005121000044
:1044A80000000000233B000000000000233B000048
:1044B80000000000233B000000000000233B000038
:1044C80000000000233B000000000000233B000028
:1044D80000000000233B000000000000233B000018
:1044E80000000000233B000000000000233B000008
:1044F80000000000233B000000000000233B0000F8
:1045080000000000233B000000000000233B0000E7
:1045180000000000233B000000000000233B0000D7
:1045280000000000233B000000000000233B0000C7
:1045380000000000233B000000000000233B0000B7
:1045480000000000233B000000000000233B0000A7
:1045580000000000233B000000000000233B000097
:1045680000000000233B000000000000233B000087
:1045780000000000233B000000000000233B000077
:1045880000000000233B000000000000233B000067
:10459800FF7FFF7FFF7FFF7FFF7FFF7FFF7FFF7F23
:1045A800FF7FFF7FFF7FFF7FFF7FFF7FFF7FFF7F13
:0845B800FF7FFF7FFF7FFF7F03
:1045C0000338FDD870470000CD150000D73C00002F
:1045D0003F3D0000000000004D3C00006915000058
:1045E000011600005F3D00006B3D00005914000003
:1045F0002914000000000000251900007F3D000084
:104600008D3D0000A33D0000AF3D0000BB3D00001C
:10461000691B0000CD3D000000000000FFFFFFFF10
:104620000000005000000000FF03000000030050E5
:104630000100000000000000000000000000000079
:104640006D1D0000291D0000251E0000D11F000067
:10465000491E0000591E00008F3E00003843000034
:10466000504300005843000080430000884300008E
:10467000F5FFFFFF7B696E69747D00626175643AC6
:10468000007B6368616E67657D00286E696C290038
:10469000434C4F434B0054454D505F300047504909
:1046A0004F5F31004750494F5F3000554152545FD2
:1046B00030007379735F636C6F636B000000016D92
:1046C00061696E00737973776F726B71000000001F
:1046D0009B38000001000000073C000000000000C3
:1046E000BD170000000000000000000000C2010033
:1046F000000103000090D0032800002028000020C3
:1047000000000000000000000000000000000000A9
:084710000000000000000000A1
:104718000000000000000000153700000000000045
:104728000000000000000000600000206000002081
:104738007B3D0000000000000000000000000000B9
:08474800000000000000000069
:040000030000135195
:00000001FF
