:1000000050060020A11100006D2F00005D110000BE
:1000100000000000000000000000000000000000E0
:1000200000000000000000000000000011100000AF
:100030000000000000000000B10F00000000000000
:10004000811000008110000081100000811000006C
:10005000811000008110000081100000811000005C
:10006000811000008110000081100000811000004C
:10007000811000008110000081100000811000003C
:10008000811000008110000081100000811000002C
:10009000811000008110000081100000811000001C
:0800A000811000008110000036
:1000A80002B4714649084900095649008E4402BC09
:1000B8007047C04602B4714649084900095C4900C6
:1000C8008E4402BC7047C04603B4714649084000DC
:1000D8004900095E49008E4403BC70477047C0461A
:1000E8001C2101231B04984201D3000C10391B0A60
:1000F800984201D3000A08391B09984201D3000924
:10010800043902A2105C40187047C046040302027A
:10011800010101010000000000000000002B11D1C6
:10012800002A0FD1002900D1002802D00021C9439C
:10013800080007B4024802A14018029003BDC04657
:100148009DFFFFFF03B4684601B5029800F034F83C
:10015800019B9E4602B00CBC7047C046F0B5CE4627
:10016800474680B5070099463B0C9C4613041B0C78
:100178001D000E0061460004140C000C45434B435F
:1001880060436143C0182C0C20188C46834203D965
:1001980080235B029846C444494679437243030C62
:1001A80063442D042D0CC918000440198918C0BCDB
:1001B800B946B046F0BDC046F0B557464E4645462E
:1001C800DE46E0B504000D009246994683B08B42A6
:1001D80030D82DD04946504600F0BAF8290006001C
:1001E800200000F0B5F8331A9846203B9B4633D4DC
:1001F8005A465346934042461F00534693401E00BA
:10020800AF423AD8AF4200D178E05B46A41BBD416B
:10021800002B00DA75E000220023009201930123ED
:100228005A4693400193012342469340009328E0A5
:100238008242CFD900220023009201930C9B002B0D
:1002480001D01C605D600098019903B0F0BCBB460A
:10025800B246A946A046F0BD424620239B1A524604
:10026800DA40414613004A468A40170042461F4377
:10027800534693401E00AF42C4D900220023009287
:1002880001934346002BD9D0FB0772081A43464610
:100298007B080EE0AB4201D1A2420CD8A41A9D41C2
:1002A800012024196D410021013E24184D41002EE2
:1002B80006D0AB42EED9013E24196D41002EF8D18B
:1002C800009801995B4600196941002B24DB2B003B
:1002D8005A464446D3402A00E2401C005B461500BB
:1002E800002B2ADB26009E40330026004746BE40EE
:1002F8003200801A9941009001919FE7A342BCD82F
:1003080083E74246202300219B1A00220091019294
:100318000122DA40019286E7424620239B1A2A00EE
:1003280046469A402300F340444613432A00E240DD
:100338001C005B461500002BD4DA42462F00202310
:10034800260097409B1ADE403B003343CDE7C0466A
:1003580010B5002903D1FFF7C3FE203002E00800E2
:10036800FFF7BEFE10BDC046F0B595B0254DAB6891
:100378001B69002B02D0280002A99847FA262248B8
:1003880000F04AFF0024B600AF683B68002BFCD0A1
:100398006A462800D11D98470028F5D16B460221EE
:1003A800D87902F04DFE6B46DB797B2B03D1002414
:1003B80004AB1C70E8E77D2B1DD10522134904A866
:1003C80002F01AFE0028DFD11530684402F0DDFD86
:1003D800041EECDD300003F052F80294FB68002B99
:1003E80002D0280002A99847300003F048F80848CE
:1003F80000F012FFDBE73E2CC6D804AA13550134DF
:10040800C2E7C04640350000143700001B37000023
:1004180021370000014B18607047C04600000020DB
:10042800F0B585B00192078B04003B070DD510236A
:10043800012900D020231F432783019B002B02D1D1
:1004480062B6BFF36F8F05B0F0BD07233B4003933F
:10045800022908D1200002F0A1FC0028EDD0238B4E
:10046800012800D07DE06369268B0093002B09DA10
:100478000723002701229E432568676027601643EB
:10048800268326E007233340591F0022012959D823
:1004980025686260226007329643062B0ED1002D34
:1004A8000AD02A00638B01339BB21268190001330A
:1004B8009BB2002AF9D1618302231E4320002683C0
:1004C80002F06CFC0027B84203D02022238B134390
:1004D80023830723218B039A0B400293934203D073
:1004E800A3680122002B04D10022954201D1974232
:1004F80019D008230B432383019B002B02D162B63A
:10050800BFF36F8F002A4CD1002D5BD1002F02D092
:1005180020003549B847EFF3108272B601920822DD
:10052800238B934323831022238B134252D0012120
:10053800934323830723278B3B400393002900D051
:1005480086E77AE715001700042BC2D103339E43D0
:100558002000268302F022FC0028BAD020231E4364
:100568008EE7032807D12269176807229343013AC7
:100578001343238307E0042808D122695768072218
:1005880093431843208300250095A2E7052805D149
:1005980022699768072293430343EAE700252F005F
:1005A800F2E7A1680029AFD00B6801934B682000DF
:1005B8001E00029A009BB047019B002BA4D0190093
:1005C8001B68F2E729002000009B029A2D6802F0C0
:1005D80001FC99E72021202219401342AAD0934315
:1005E80002212383A6E7C046FF2D000070B5040052
:1005F8000E0002F009FC051E2EDBEFF3108372B625
:100608000722208B618B1C4D0240A9422ED0022A62
:1006180010D1013115006183002B05D1013362B679
:10062800BFF36F8F002B17D000233100200002F09A
:10063800D1FB11E0810701D0062A0FD100213160DA
:10064800616800290FD166602660151E10D11A0056
:1006580002212000FFF7E4FE280070BD0525052AC9
:1006680005D1862503E00E606660EEE70B256D4236
:10067800002BD4D0F0E7C046FFFF0000F0B51E0005
:10068800002797B0059006910892089B18780028D3
:1006980001D138002DE3089B0133079325280BD09F
:1006A8000699059B9847002800DA22E334000137B1
:1006B800079B26000893E8E710AC182200212000C9
:1006C80002F0B2FC089B5B78252B17D1089AE372DD
:1006D80002320792012210AB597A114200D175E11A
:1006E800340004CC0392002A00DB75E104201A7A56
:1006F80002431A72039B5B4203936DE100221400CC
:10070800944611000392079B1B782B2B6FD068D857
:10071800202B72D0232B72D0002904D0042010ADD6
:10072800297A014329726146002906D010AD297A39
:100738008C460821604601432972002C04D0102100
:1007480010AC257A294321720399002904D020216D
:1007580010A8047A21430172002A04D0402210A96B
:10076800087A02430A72442110A8027A11404429E7
:1007780002D140218A4302728022017A52420A43FE
:10078800027200210A24079A2A2B41D1437A0131A7
:100798000B43013243721478022521002E394B4253
:1007A800594110A8437A4900AB43194341722E2C92
:1007B80046D153782A2B3ED00023013208351178D0
:1007C800541C08003038092861D910A91493087AF4
:1007D800840723430224DB0F5B00A04303430B720F
:1007E8002EE02D2B0ED0302B96D1012201E00123D3
:1007F8009C46079B0133079385E70124F9E701230A
:100808000393F6E70121F4E72A0061433039C91858
:100818001378551C180030380928F5D9079B9342DE
:10082800B9D0022410AB187A1391C90F4900A0431C
:1008380001431972AFE70421437A02320B43437232
:100848001178501C10AB6C2941D025D868292DD0BF
:100858006A2948D04C2952D010000278431C10A9AC
:100868000793CA724B7A782A00D9A8E0572A4DD83C
:10087800412A03D0453A022A00D9A0E0072110AA4C
:10088800937A8B4303390B43937201236AE06B43DA
:10089800303B2200CB1892E774292AD07A29DBD181
:1008A80078215A7A8A43110030220DE05178782451
:1008B800682906D1587A6039A04301435972901CBF
:1008C800CBE71022597AA1430A435A72C5E75178F7
:1008D80078246C2903D1587A4C39A043EDE7597A2A
:1008E8001822A143F0E778215A7A8A431100282276
:1008F800EAE778215A7A8A4311003822E4E71A890C
:10090800AA491140AA4A0A431A81A6E71000583892
:10091800202854D8FFF7C4FB33535353535353532E
:1009280053B2533311B2B2B25311535353533933F1
:10093800475353475333535333000724887AA0430C
:10094800063C2043887278211940402904D10124AB
:1009580010A8037A234303720023632A02D14A1E94
:100968009141CBB210AA117A8807C00F0343012026
:1009780003408340001881430B431372AAE60724FF
:10098800887AA04304000220DBE707208A7A8243A2
:100998001000032202438A7278221340403B5A42D5
:1009A8005341DBB2DEE707208A7A82431000032234
:1009B80002438A72782213405A1E9341F1E70121BB
:1009C80010AA137A0B4313720023CBE71A7A7F2AF3
:1009D80010D93400DB680393042310AA19420CD001
:1009E80040CC002E0CDA0221537A8B435372012635
:1009F800764205E0340001237DE68B07F7D51669BA
:100A0800002510AA517A937A49065B07090F5B0FF4
:100A18000491D5601561012B3AD1C81E042821D84C
:100A2800FFF748FB03191920200008CC1360DB17D7
:100A3800536010AA137A03201D000540034269D0B1
:100A4800079B089A0699059802F05DFA002800DAD3
:100A58004FE13F182CE6072307349C430CCC109237
:100A68001193E6E701CC10AB1060C0175060049AF0
:100A7800012A05D1109AD2B2109200225A60D8E702
:100A8800049A022AD5D100215A5E1A60D217F5E7D6
:100A9800022B2ED1049BD81E042805D81500FFF779
:100AA80009FB0E14141B1B0008CC28C2049B012B45
:100AB80017D1109BDBB2109300231193B9E70023E1
:100AC8002268201D0CC50400B3E70723E01D9843E6
:100AD8000CC810921193F6E708CC136000235360FA
:100AE800E4E7049B022BA4D1109B09936B469B8CD3
:100AF800E1E7042B09D10720E31D83431C00186894
:100B0800596808341060516093E7032B91D108CCE1
:100B180013608EE7D07A782800D9C9E5622821D8F1
:100B280025283BD0582800D0C2E5109811991E23DB
:100B380008AA9B18009312AA0AAB02F098F904902D
:100B48001E2308AA9B180893002E3FDB4020049A16
:100B58009B1A10AA117A814311729E4236D9F31A50
:100B6800139333E06338152800D9A1E5FFF7ACFAF1
:100B780065006F00A0FDA0FDA0FDA0FD6F00A0FD19
:100B8800A0FDA0FDA0FD9C0084008600A0FDA0FDA6
:100B98002200A0FD8400A0FDA0FD84000699059B0D
:100BA8009847002800DAA4E0013781E5FD87FFFFB8
:100BB80002400000109B0493002E3ADB310018001D
:100BC80002F010FA0025049B1B180893049B002BC5
:100BD80000D16DE5089B049A9E1A2B005A1E93417A
:100BE800F61810AB9B7ADA0679D50236139A099271
:100BF800B6185B0601D5149BF618039B002B00DC86
:100C080086E09B1B099310AB1B7A5A07D60F002A64
:100C180000DABCE05B0600D46DE0002D07D02800A8
:100C28000699059B9847002863DB35000137302675
:100C380062E0049802F0CEF9C4E7109B0AA803709A
:100C48000923002508AA04909B180893C2E72B25BE
:100C58001A0705D410221D001540134200D0202584
:100C6800109A119B002B00DB5FE70021504299414D
:100C78002D251090119158E7002556E7109810ADD2
:100C8800002827D01E2308AA9B18009312AA0AAB93
:100C9800002102F0ECF8EF226B8904901A40414BD6
:100CA80013436B8100254BE71368049A072A00D980
:100CB800FEE41000FFF7FEF90C04060C08080C0C03
:100CC8001F70F5E41F80F3E4FA171F605A60EFE421
:100CD8001F60EDE4344B05000493344BB5E71A0765
:100CE800D20FB61882E730000699059B984700286E
:100CF80004DA17B0F0BD2026099B0393039A099BD9
:100D08001100DB1901399B1A0391002AEBDC1F0043
:100D1800002D06D028000699059B98470028E8DB97
:100D2800013710AB9B7ADA0601D41B0706D53020B1
:100D38000699059B98470028DBDB013710AB9A7AA8
:100D4800D20606D5D87A0699059B98470028D0DBA5
:100D580001373D00139EF3195B1B002B1ADC089B1F
:100D6800049A0699059802F0CEF80028C1DB4719C5
:100D78003D00039B5B19DB1B002B00DC98E4202063
:100D88000699059B98470028B3DB0137F1E7099BD3
:100D98000393BDE730200699059B98470028A8DBF8
:100DA8000135D8E7107800002A3700002F370000F7
:100DB80070B50500EFF3108672B60B4B1C68002C5B
:100DC80002D1002E0CD070BD002D07D06368002B17
:100DD80002D0064A107898472468F0E7A368F6E737
:100DE80062B6BFF36F8FEEE71801002020010020E4
:100DF80030B50E4B85B01A68002A11D101321A603D
:100E080001AB19000A4A31CA31C10A4A002A09D07D
:100E180001980299039A02F034F90020FFF7C8FFFD
:100E280005B030BD62B6BFF36F8FF6E7040000204F
:100E3800200100208B30000070B588B06E461C4C35
:100E480001000500300002F075F8230007CE07C343
:100E5800207800282AD00022164B1A606B1C0ED06E
:100E6800A368154A590CD803002380185941002358
:100E7800124AFFF753F90121281A02F0E6FA01F0A5
:100E88006DFB0120FFF794FF05AB1A00210061C933
:100E980061C20B4A002A04D005980699079A02F005
:100EA800DDF8FFF7A5FF01F0C9FC207808B070BD98
:100EB80020010020040000203F420F0040420F00A4
:100EC80065300000014910220A60704710ED00E00B
:100ED800BFF34F8F30BF62B6BFF36F8F7047C04606
:100EE80072B620BF002800D162B67047030605D449
:100EF8001F2318401E3B8340014A13607047C046B9
:100F080000E100E0054A43099B009B581F2210405E
:100F18001E3A8240100018407047C04600E100E0C9
:100F280070B5FF26032532000540ED00AA4089016F
:100F38003140D243A94044B2C3B200060AD4A30840
:100F4800C0240A489B001B18A400185902401143EA
:100F5800195170BD0F200340083B05489B089B00B2
:100F68001B18D86902401143D961F2E700E100E09B
:100F780000ED00E030BFFDE7084A094993680968B9
:100F88009866D966802307495B05486803434B6028
:100F980062B6BFF36F8F9368D86E70471002002057
:100FA8001037000000ED00E013498A681348104428
:100FB800EFF3098CF0C043464C4655465E466746FB
:100FC800F8C072B60E4F0F4ECA698A603E60906EC6
:100FD80000239366002800D162B6084C101910301F
:100FE800F8C89846A146AA46B346BC462438F0C875
:100FF8008CF30988704700001002002030000000C0
:1010080004ED00E00000000804207146014202D00F
:10101800EFF3098001D1EFF308808169023909787B
:101028000229FFD001B501F091FF01BD10B5203AAA
:101038001360029B01245360039B06499360049B41
:10104800A143D36080235B04D361002391610265CF
:10105800836610BD632E0000064B9860101C81F358
:101068000988002162B6BFF36F8F0022002301F0C8
:10107800F4FEC0461002002001B572B60A4A906913
:10108800002803D00021916102F023F962B6EFF342
:1010980005800649401AC0000549014409C9984716
:1010A80009BC9E46034908471002002010000000B2
:1010B80088350000C1100000044B9968D86988423F
:1010C80002D00349034A0A6070470000100200205A
:1010D80004ED00E00000001070B51B4B0E005B68CB
:1010E80088B0DB05DB0D62B6BFF36F8F0025140EE9
:1010F8002900FF2C09D1F33C1440082C05D001002D
:101108000135120701D5310000250024032B06D133
:101118008B69023B1A880D4B9A4200D10C68202239
:10112800684601F078FF079B002D0AD0DA0502D146
:10113800074A134307936946200001F003FF08B0EC
:1011480070BD5B0A5B02F5E700ED00E002DF00001E
:10115800FF010000EFF30880EFF3098101B5724643
:10116800FFF7BAFF01BDC046F0B5C0240022032630
:10117800FF25A40010002F003040C000874005491B
:1011880093089B005B1819590132B94319511A2A5F
:10119800F0D1F0BD00E100E002F0A2F972B6074814
:1011A8000749401880F30988EFF3148002210843A7
:1011B80080F31488BFF36F8F01F0DBFE5007002027
:1011C80000080000084B10B59B68834209D1EFF373
:1011D8000583002B05D08023044A5B0551680B4327
:1011E800536001F0F9FB10BD1002002000ED00E093
:1011F800014B18607047C04608000020023910B53E
:10120800012903D8034B1B68984710BD01204042B1
:10121800FBE7C046080000200FB407B504AB04CBB9
:10122800022104480193FFF729FA03B008BC04B06F
:101238001847C0464930000010B5022805D90123D7
:10124800024A023800011343984710BD8036000057
:10125800074B70B5C31A0D0006499B10594304008B
:101268004022054801F02EFF01002000A84770BD6C
:101278003C010020B76DDBB62835000037B54023A8
:101288000C00084A0849821A92105143009305003D
:101298002300064A064801F049FF011E01DA28002A
:1012A800A04737BD3C010020B76DDBB6A531000073
:1012B800283500000022F8B5012104001000FFF7CE
:1012C8002FFE0020FFF712FE0F4800F037FE0F4BED
:1012D800984216D101F0C4FF27690D4E380031003D
:1012E80001F0A4FD00280BDB246901252000310052
:1012F8003D641C3001F09AFD002801DB0020E56404
:10130800F8BD05204042FBE7511300000000AD0B7B
:10131800AC3600000C2370B5434304000020084A93
:10132800D1188D6B40338863D018CE6B01F0BBFEAB
:10133800002D03D0320021000248A84770BDC046E6
:101348003C0100202835000010B5002802D00128F3
:1013580007D010BD044B1A6C0723100018401A421E
:10136800F7D1FFF7D7FFF4E73C01002070B5EFF3A2
:10137800108572B60223012410490A6813430B60D2
:10138800224210D080220E4BD205D158D358214288
:1013980009D00C48403001F086FE002D05D0002011
:1013A800FFF7B8FF70BD2C1E04D162B6BFF36F8F74
:1013B800002CF4D1012000F0D3FDF3E78C010020CC
:1013C8000C0400003C0100201FB56B4600930193FC
:1013D8000023029301330393064A6B4601F0D8FEBB
:1013E800002805DB802200236846D20101F034F88A
:1013F80005B000BDCB31000010B5032105484942B6
:1014080002F060F80123184202D1180000F0DCFD58
:1014180010BDC0468C010020F8B5060001213548F2
:1014280002F044F8011E0BD1334C0C22201D01F0B0
:10143800FBFD012331482100A3601C30FFF7D6F8DB
:10144800731E012B2AD8012E07D180222C4BD205DE
:10145800D35803221340012B20D001F034FF041E7F
:1014680003D1284B1B78002B3CD1EFF3108572B6C3
:1014780001248027FF058322D200BB58BA58D20323
:101488000DD503221340012B01D0012E07D1002CCA
:1014980023D0002D02D162B6BFF36F8FF8BD002CA8
:1014A80016D02800FFF71CFDA322D200BB58DBB2E0
:1014B800002BE0D1144908680028DCD00B60013308
:1014C800BB50C022114952008B50114A1360D2E719
:1014D8000021212001F05EFAE6E7C12302229B00E9
:1014E800FA50DBE78022C2230221D2059B000500C7
:1014F800D150BEE7900100202C0100203C010020C3
:101508001C040000490200200401004000E100E042
:101518000800004009480A4B10B5186001F0AAFEFF
:10152800002808D0074C2000FFF762FE2000FEF7D5
:1015380071FF002010BD13204042FBE7403500003A
:10154800940100205115000070B50400074D0A28C9
:1015580004D1286883680D215B68984728688368E8
:10156800E1B25B689847200070BDC0469401002036
:101578001F231840A023E022DB05800010B5C01807
:10158800D2008358024C090423401943815010BDEE
:10159800FFFFFCFF436810B55868044BC45862400D
:1015A80011406140C150002010BDC0460405000034
:1015B800436800205A68014BD15070470C05000061
:1015C8004368034A586883584B408350002070474B
:1015D800040500000A4B10B51A78002A0DD1012124
:1015E80006201970FFF79CFC0620FFF77FFCC1233B
:1015F8008021044A9B000906D150002010BDC04636
:101608004802002000600040F7B50E00416837002E
:101618000C7A1F210569A02064010F4040023C4359
:1016280082420AD1A0202140C131FF318900C00582
:101638000958C90707D58627A5E08020E9688001F1
:10164800824200D195E00121B140E8680143A02021
:10165800E96001216F694002B1408446380088433F
:10166800624501D1380008436861A869C0270200B3
:10167800FF028A43BB4201D102000A43286980273E
:10168800AA610200FF028A43BB4201D102000A4359
:10169800C1232A61424A9B00D1580F2300201940D8
:1016A80010339C461E3B020045323D4FFF329200EC
:1016B800BA586746120A3A4094425ED10A00C240BC
:1016C8001A425AD0A227364982005218FF00D1592F
:1016D8009943D151C2228340314992008B50C0B204
:1016E80000F0ECFC00212000FFF742FFEA6801232C
:1016F800F24000271A423AD06A69F2401A4244D0AE
:10170800AA690337F2401A4205D12F69F7403B40D6
:101718000227FF1AFFB26B46D81D00F0E9FC214BE7
:1017280098422FD16B46DA79A2231D4E9100DB0037
:101738008919C8581C4D24022840F825C850C85893
:101748006D012C4004433F042743CF50002717491D
:101758009200521817606A46D4790122A1008919AB
:10176800C8581043C850C123A2409B00F25038000B
:10177800FEBD0120B040814369E70130042800D054
:1017880091E7AFE713277F42F1E729692000F1408D
:101798000B400321C91AC9B2FFF7EAFEE7E7C046C2
:1017A800006000400000AD0BFFE0FCFF006100405E
:1017B8004368F7B59C462D482D4B1340834246D0CD
:1017C80010D8062B45D006D8002B42D00420022B77
:1017D80015D01A38FEBD802401206403A3420ED020
:1017E8001738F7E72348834235D0A0240320E403C1
:1017F800A34204D08020C003834233D102200325B2
:10180800D30601D49506ED0F01263400530A334060
:101818001F00130A9C430194930507D563465B6830
:1018280014051AD5A1228E40D2009E501F231940BC
:10183800019B00025B003B431843A023C131AD006C
:10184800FF3128438900DB05C8500020C2E7072084
:10185800D5E71800D3E70520D1E75205E6D58E4035
:10186800054AE2E716204042B4E7C04606001000E9
:101878000600F000020040000C050000F0B500244E
:10188800434F85B03B680393A34216D0414B0126D2
:1018980099695A690A43D9681B6991430291A2223E
:1018A800A021D200C9058A58029C53409C430023BA
:1018B800029D0193002D30D13D60002301201F2699
:1018C800354A36490700C1259F40AD004D593D4274
:1018D8000ED01768002F0BD01F0005004537FF37C3
:1018E800BF007F583F0A3740BD4000272C43176090
:1018F80001330432042BE5D1002C26D1039B002BA5
:1019080009D001250026234F7B69BA69FC68134377
:101918009C43002C2BD105B0F0BD354210D01F23BD
:1019280001981840029B334206D10300A022C1331C
:10193800FF339B00D205D3580021FFF719FEB543AA
:10194800019B760001330193B4E7124B59680029D3
:10195800D4D00D688B681A002240234202D04B680D
:101968000F489847002DC9D029002D68F2E72C426E
:101978000BD039690123F1401F2019400233591A4D
:10198800C9B23040FFF7F4FDAC4301366D00C0E743
:101998007C61004098010020006100400060004028
:1019A80070350000074B1A68002A07D0002018601D
:1019B800A323054ADB00D3580B707047012040422F
:1019C800FBE7C04608210040002000409023024A5F
:1019D800DB00D058D05070470020004070B54B79DC
:1019E800012B3CD18B79032B39D1CD79002D01D036
:1019F800012D34D10C79002C02D0022C2FD10C34BB
:101A080096220B681202934200D16BE03DD89622D1
:101A18009201934200D167E024D89622D2009342E3
:101A280064D014D896225200934262D096269C2203
:101A3800B6009202B34212D13A4B3B4E2C439A5114
:101A48003A4A9C50036905C905C3002070BD962217
:101A58001201934250D09622520193424FD08620D1
:101A68004042F3E7E122D20193424AD009D8E12269
:101A78009201934247D09622D2019342EFD12C4A49
:101A8800DAE780222B4E1204D4E7E1229202934235
:101A98003CD013D896225202934239D008D8264A0D
:101AA800934237D0E12212029342D8D1234AC3E7A6
:101AB800E12252029342D2D1214ABDE7E122120328
:101AC80093422AD008D81F4A934228D0E122D20252
:101AD8009342C4D11C4AAFE71C4A9342BFD180222B
:101AE8005205A9E71A4AA7E71A4AA5E79E22D20291
:101AF800A2E7A02252029FE79D2212039CE7164A02
:101B08009AE7164A98E7EC22920395E7144A93E776
:101B1800144A91E7E52212048EE7134A8CE78022E3
:101B2800D20489E700200040240500006C0500006D
:101B380000A04E00127A0000C0DA000000F0EB00AE
:101B480000E0D70190D0030000705F0740420F000B
:101B580000509D000050270000B0130000F07500F1
:101B680000B0AF0300903A0100D0BE0EF8B50E00E9
:101B780001F0A9FB6424174D00280AD001232B602B
:101B88000EE0013C21200021E4B200F003FF002C0C
:101B980006D001220021280001F077FC0028F0D0AF
:101BA80000230122FA240C4FA4003B600B4B1A605F
:101BB8000B4A0C4BD6503B68002B05D10120013C49
:101BC80001F04AFB002CF6D10122074B1A600023D2
:101BD8002B60F8BDB40100201C2100400820004003
:101BE800002000401C0500000C200040A022F8B591
:101BF8000021A02380260B25174CD200A150DB051D
:101C08000832B6009E50154FFE3EFF3EDE51144F7F
:101C1800D951144FE551144F023DE55180277F00FB
:101C28009F50E427FF00DE51E526F600995108236E
:101C3800A350A2230A22DB000169E250FFF7CEFE7F
:101C4800002807D1A0220423D200A350074B186014
:101C580001232360F8BDC04600200040240700008F
:101C68002C070000140500000C05000008210040A6
:101C7800054A10B51368C81A0002000A1B18136039
:101C880000F0E2FF10BDC046C40100200200F0B51C
:101C980050320C029200214992B285B05218039238
:101CA8008022A8265202824083005B18F600019326
:101CB8009B59240A02921A4A184F0199BD582A02C0
:101CC8005B1B120A1B028A511B0A012B02D113202B
:101CD80001F0D5FB8021AA1CA31A1B021B0A0904C8
:101CE8008B4200D914000023039A1360D123029A6F
:101CF8009B00FA50019A23021B0A9351084BFB5888
:101D08009D4207D08022E31A023B1B021B0A1204E1
:101D1800934201D805B0F0BD2300CCE70010014084
:101D280004050000F8B5002601248021154A49025F
:101D38001568002E00D0F8BDC120134B800018583C
:101D48000842F8D011480768002FF4D00660D22066
:101D580080001950A82180260D48C90059581858E4
:101D68003604431A1B021B0AB34200D9010026009D
:101D7800002D04D0002010605268A847D5E71560F0
:101D8800D9E7C046B80100200010014040110140C9
:101D980004050000A12370B50024104DDB00EC50B1
:101DA8008022C12380219B005202EA500C4A853BC5
:101DB800FF3B8902D150112022000121FFF7B0F822
:101DC8001120FFF793F80123064A02201360064A00
:101DD8002B601360FFF720FB200070BD001001404E
:101DE80000E100E008100140C001002070B5431C6C
:101DF80020D11448134B984221DC8024124A134BFB
:101E08002404D358124A12689B1A190223405D42CF
:101E18006B41090A5B42184001310918A14200D3FD
:101E28000C490D4B0D485118186000205860FFF7F9
:101E38002DFF70BD01380028DCDC0020DDE70548F7
:101E4800DBE7C046FEFF7F000010014004050000EC
:101E5800C4010020FFFF7F00B8010020791C0000AA
:101E6800044A054BD058054B1B68C01A0002000AEB
:101E78007047C0460010014004050000C40100205E
:101E8800214910B50B68DBB2012B38D11F4A136802
:101E98001B061B0F0D2B0AD81D48C35C002B06D050
:101EA8001C4B1D48186080201C4B000218601368EA
:101EB8001B061B0F0D2B0DD81948C35C002B09D02E
:101EC8008020C1230124DB00C005C4500B68DBB2AD
:101ED800A34214D113681B061B0F0D2B03D8114AFC
:101EE800D35C002B0BD0104B1A68012A04D00F4A80
:101EF8001A601A68012AFCD1C0220D4B1A600D4BDA
:101F08000D4A1A6010BDC046E00F00F0E80F00F05F
:101F18004E37000004050040DFFF07C0186C004082
:101F28005C3700006A37000000EC0640759300003B
:101F380014EC0640140000200024F400054B1A7924
:101F4800002A04D11860013203481A717047034807
:101F5800FCE7C046C80100200000AD0B0C00AD0B2B
:101F6800002802D001281ED0704780238321DB057A
:101F7800C9005A5858580131FF31C00311D5032000
:101F88000240012A0DD15A5000220C4B02211A603E
:101F98008022C123D2059B00D1500122084B1A6030
:101FA800E2E70022EFE70022064B1A60C122013B5C
:101FB800FF3B920098501860D6E7C04604010040E5
:101FC800080000400001004070B5041E02D001283E
:101FD80018D070BD8025C223022283269B00ED0500
:101FE800EA50154B013A1860144B154C1A60F6006C
:101FF800AB59DB03EDD50120013C01F02DF9002C94
:10200800F6D1E6E78026C22300229B00F605F050B1
:102018000C4B0B4D1A600C4B18600C4AB358B25855
:102028002340D203D5D5002BD3D02000013D01F0A9
:1020380013F9002DF1D1CCE7040100400C00004059
:102048001027000000010040040000400C040000BC
:10205800164B10B51A68002A0AD000208022186092
:10206800C22301219B00D205D150114B1B68984710
:10207800104B1A68002A0FD000221A608322053BF1
:10208800FF3BD20099589A588A0706D1A32101220A
:10209800C9005A50084B1A6010BDC2220221920092
:1020A8009950034B01201B689847F5E70001004051
:1020B800C8010020040100400800004001238340BB
:1020C8001A070DD0EFF3108172B6064AD06B984309
:1020D800D063002902D162B6BFF36F8F024800E0D7
:1020E80002487047D00100200000AD0B0400AD0B82
:1020F800F7B516490F22002301248C460190144D90
:102108001448EFF3108672B61100D94021421AD054
:1021180027009F40E96B0F4215D13943E9630199C4
:102128000B70002E0DD1094862B6BFF36F8F604562
:1021380007D02100994001338A43DBB2002AE0D15D
:10214800FEBD0248FCE7002EEED0F2E70000AD0B22
:10215800D00100200200AD0BF8B50F4F8300DD5908
:10216800013084003B59AB4200D8F8BD6E682B683B
:1021780030009847002E0DD0F368002806D0C2170B
:1021880080185040FF2800DDFF20187001215A7880
:102198000A435A700835E5E7FC36000030B570246C
:1021A8000F494443030259180E4B01251C190023FB
:1021B800802287B0059302930193183343430A485A
:1021C8000495C0180E350090084B20000395520066
:1021D80000F094F80422637B9343637307B030BD27
:1021E80050060020300000201002002005240000C6
:1021F80010B50124094B02201C70FFF7ADFF01F058
:102208006EF90320FFF7A8FF00F0A2F8FEF7ACF87C
:10221800034A137BA343137310BDC0464902002031
:10222800A000002010B50348034A0021121A00F04C
:10223800FBFE10BD300000204C0200208022F0B5CB
:10224800254B1201A5B09B18069383F308882349F0
:10225800234A0B6A00251A40C0231B0413430B6250
:1022680000F092FEFEF72EFE02221E4E08ABFF3251
:102278009A81B36000F0FDFF0020FFF76DFF012099
:10228800FFF76AFF00F0F0FA174C184BF461802250
:1022980005930123164F17490493D2003B002000F1
:1022A800039502950195009500F028F804220790FF
:1022B800637B20009343637301F03FF82800FFF726
:1022C8006DFF0D4B3A00F360069B200007993575AA
:1022D8007360FEF7C1FEC0465007002000ED00E025
:1022E800FFFF00FF10020020A00000207837000048
:1022F800F921000050020020300000207FB50400C2
:10230800D51D07225830A065E0650C98002620737B
:10231800042095430A9A60730292099A0B980192D5
:10232800089A4D19A073009220002A00A660E6734F
:10233800A661E661FEF77AFE044B66659B68B342C8
:1023480000D05B6E2800636604B070BD10020020E8
:10235800F0B5264C87B02500254B9C4209D300F0E8
:10236800FDF82C00224B9C4219D300F067FA07B005
:10237800F0BDE36A0593236A0493E3690393A369B1
:1023880002936369019323690093E368A268616813
:102398002068FFF7B3FF23685C653034DCE7636AC5
:1023A8005A1C14D0DA43D2171340D917CF0300218F
:1023B8005A0C1048DE031743801979410D4B2568E4
:1023C800984206D1002904D1280000F0A9F9303438
:1023D800C8E7FA2200239200FDF7A0FE02002800B9
:1023E8000B001830044900F0B7FBF0E7300000207C
:1023F80030000020E70300005B33000010B5EFF366
:10240800108372B601F015F8044B9861FEF714FDBD
:102418000028F4D1FEF75CFDF1E7C0461002002069
:1024280070B50400EFF3108572B600F0DAFF0028EB
:1024380008D00023C36600F080FF2900054800F09B
:1024480077F870BDA268E3689B1A591E8B419B18E8
:10245800A360F2E74A02002013B50100EFF31080F1
:1024680072B68C68002C07D0013C8C60002815D10E
:1024780062B6BFF36F8F16BD14001C4306D1002847
:102488000ED162B6BFF36F8F1038F4E70092019354
:102498000A000100044800F091F9ECE70020EAE79F
:1024A80010204042E7E7C0464A02002010B5074C1A
:1024B8002368002B09D0FFF7D3FC03002068044AE7
:1024C800C3180021136100F0C0FF10BD40020020B6
:1024D8001002002070B504000E00EFF3108572B6EC
:1024E80000210F4BC20319610021430C0D488018CD
:1024F8005941FA2200239200FDF710FE0A4B002CE6
:102508000ADC1860094B1E60FFF7D0FF002D02D1CE
:1025180062B6BFF36F8F70BD0228F2DA0220F0E7CF
:1025280010020020E7030000400200203C020020C7
:1025380010B500290AD1EFF30580002807D1064B12
:10254800DA699B689A4202D0FEF716FD10BD62B6A2
:10255800BFF36F8FFAE7C04610020020EFF3108137
:1025680072B6054B9A68D37B013BD373002902D11D
:1025780062B6BFF36F8F70471002002070B5060077
:102588000D4800F0D4FE0D4D041E00D1EC68AB6878
:10259800002E0AD15A7BD20607D1A269002A04D19B
:1025A800DA897F2A01D9EB6170BD9C4201D0FFF71F
:1025B8007DFFEC61F8E7C0463002002010020020E1
:1025C8000D2270B582560400437B002A04DA7F226C
:1025D8001340437300F083FE8023627B5B42134306
:1025E800134A6373136A134D506AAB421BD0002B16
:1025F80019D00E26A6570E2159568E420ED0891B89
:1026080000290BDD5968236061600C605C6090688C
:10261800001B43425841FFF7B1FF70BD834202D00F
:102628001B68002BE7D12560606004605462EEE708
:102638001002002030020020010070B5EFF3108472
:1026480072B6174B174A98681568A84207D1FFF762
:102658002DFF002C02D162B6BFF36F8F70BD00252D
:102668001560114A1268AA4217D0C2897F2A14D865
:10267800427BD20611D10E250C4A45571268954265
:102688000BDB0B4A904208D01A698A4202DCFFF73A
:1026980097FFDCE7521A1A61DBE70022FBE7C04626
:1026A8001002002038020020400200203C020020D6
:1026B800300000200D2370B5C356427B002B20DB71
:1026C800D3061ED18369002B1BD1803B12491343CB
:1026D80043730B6A114D4C6AAB4218D0002B16D0CD
:1026E8000E2686570E229A5696420BD0921B002A27
:1026F80008DD5A6803604260106058600020FFF7E8
:102708003DFF70BDA34202D01B68002BEAD10560D3
:10271800446020604862F1E7100200203002002087
:1027280010B5EFF3108472B60422437B134205D12F
:10273800002C02D162B6BFF36F8F10BD9343437371
:10274800FFF7B8FF21000248FFF7F2FEF5E7C046A1
:102758004A0200200D2210B582560400437B002A4D
:1027680004DA7F221340437300F0B9FD034B9868E5
:10277800001B43425841FFF701FF10BD1002002023
:10278800F8B5040016001D00EFF3108772B600F0CC
:10279800FCFD002F02D162B6BFF36F8F2B00721CB5
:1027A80001D1013306D0200032002B000249183035
:1027B80000F0D2F9F8BDC0465B33000010B50C003C
:1027C800064B11009868064B1860029A039BFFF7A6
:1027D800D7FF2000FEF7D0FB10BDC0461002002036
:1027E8003802002070B50400183000F00FFEEFF337
:1027F800108672B60D22A256637B002A05DA7F2264
:1028080013402000637300F06AFD1023627B0A4DB9
:1028180013436373AB68181B43425841FFF7AEFE7E
:10282800002E02D162B6BFF36F8FAB68A34201D10D
:1028380000F076FD70BDC0461002002010B5EFF321
:10284800108472B6074B00209A68D37B0133D37388
:10285800FFF794FE002C02D162B6BFF36F8F00F031
:102868005FFD10BD10020020002110B5034B044A83
:1028780008001A625A62FFF72DFE10BD10020020F0
:1028880030020020F8B5EFF3108572B67F221A4C9B
:10289800A068437B1340437300F021FD8022A368A6
:1028A8005242597B15480A435A73226A82421CD005
:1028B800002A1AD00E26676A9E570E2151568E425C
:1028C8000ED0891B00290BDD51681A6059600B6016
:1028D80053600120FFF752FE2800FEF74DFBF8BDBC
:1028E800BA4202D01268002AE7D1626A18605A60B8
:1028F80013606362EDE7C04610020020300200203A
:10290800F7B5060004000D000E4303D1FFF7BAFF28
:10291800002034E002225242D317121BAB41002B95
:102928002EDC01D1002A2BD100F0A5FD031901935B
:10293800EFF3108772B6144E144BB26810001A6089
:10294800FFF708FFB06822002B001149183000F08B
:1029580003F91023B2683800517B0B435373FEF719
:102968000BFB00F088FD002304001D00019A121BD8
:10297800AB41AB4202DCCBD1AA42C9D01000FEBDAC
:1029880002204042031BD2E7100200203802002038
:102998005B33000010B50B000C00421C07D101335B
:1029A80005D1094B9868FFF71DFF200010BD2100D5
:1029B800FFF7A6FFFA220023C1179200FDF7CEFB0E
:1029C8004904C00B0843F1E710020020014B986846
:1029D8007047C0461002002070B50400EFF310865F
:1029E80072B60823427B1A4205D0002E02D162B685
:1029F800BFF36F8F70BD2021100088430100194379
:102A080048B2002820DB6173A368002B02D02000A5
:102A180000F06DFC2000183000F0F8FC2300A56DD4
:102A280058339D4201D0002D16D10120FFF7A6FD95
:102A3800104B9B68A342D8D1EFF30583002BD4D168
:102A48003000FEF799FAD0E75F210A4013432000CF
:102A5800637300F044FCD7E7280000F048FC280026
:102A6800183000F0D3FC00232800EB66FFF722FEA5
:102A7800D4E7C0461002002010B50648064A0749A8
:102A8800121A00F0C8FA064A0649074800F0C3FAC5
:102A980010BDC04600000020300000208037000034
:102AA8000000000080370000000000200020044BD8
:102AB80010B51B68834201D1FFF7D2F910BDC0469B
:102AC80044020020134BD0B51C689C4200D100245E
:102AD800FFF7ECFF002C12D0226963690600C717C4
:102AE800921BBB41002B02DC12D1002A10D010002F
:102AF800002B04DC04D180231B069A4200D306482D
:102B0800064B1B69002B02D0984200DD1800D0BD8F
:102B18000020F5E718000020FFFFFF7F10020020CB
:102B280030B5036800280DD00A4A5268904209D08F
:102B3800002B07D01C695D69016942696418554119
:102B48001C615D61426813605A6000230360436042
:102B580030BDC04618000020F7B5040016001F005D
:102B6800531C01D17B1C67D0A160EFF3108372B6B0
:102B780002204042C117019302000B00921BBB4187
:102B8800002B1BDB2D4B1A685B68801A9941801B50
:102B9800B94102000B1E05DC002901D1002801D132
:102BA8000122002322616361254F3D687E68BD4292
:102BB80018D12760666034607C6027E0FFF776FFF5
:102BC80001220023B6185F410200C317B6185F41FF
:102BD80026616761E8E7121A8B4122616361AE42A0
:102BE800E7D02D68002DE4D02869696922696369F6
:102BF800994202DCEFD19042EDD9801A99416B6875
:102C080028616961636025601C606C603B68BB4239
:102C18000CD09C420AD1FFF755FF002803D0094B7E
:102C28001B69834202D00021FFF7E0F8019B002BCB
:102C380002D162B6BFF36F8FF7BDC0461001002006
:102C48001800002010020020F0B58BB00400FFF738
:102C5800F3FCEFF3108372B60593324B1C60324BD2
:102C68003248304D1C68016842680691079229680D
:102C78009C4219D0002C17D02269636900920193F5
:102C8800019ACB17029103939A4203DC23D1009A4D
:102C98008A4220D9029A039B009E019FB61A9F413F
:102CA80032003B0022616361069E079F0A00CB1732
:102CB800B6185F410024066047602C60FFF702FFEA
:102CC8002100FFF793F8059BA34202D162B6BFF338
:102CD8006F8F0BB0F0BD009B069E079F0893DB1714
:102CE8000993089A099BB6185F41104B20001E6093
:102CF8005F60009BCA1A0B4B1A60002300222261F6
:102D08006361FFF70DFF059B002B02D162B6BFF38D
:102D18006F8F2000A3689847EFF3108372B605936E
:102D28009DE7C04644020020180000201001002042
:102D380010B5EFF3108472B6FFF792F80023020083
:102D4800054908684968801859419C4202D162B611
:102D5800BFF36F8F10BDC046100100207047031EDF
:102D68000CD0032142680A40012A04D08A4205D1C6
:102D78000268002A02D0002098607047162040425E
:102D8800FBE742688160D2430021030008009207F4
:102D980000D1186859607047002070470300008B05
:102DA800072102000A40084205D11B681000002BC9
:102DB80000D003207047022A04D1588B434258415F
:102DC8008000F7E70020012AF4D11B688342F1D084
:102DD8000530EFE7F7B507000D00081D19001E00C4
:102DE8000192FFF7CEFF041E04D0330029003800FB
:102DF800019AA047F7BD10B5EFF3108272B6416192
:102E08000121FDF70DFB10BD10B50C0000280AD0FC
:102E1800002908D0081DFFF7A2FF002805D10322CA
:102E2800A368934301D01620404210BD70B5050039
:102E38000C0000280ED000290CD00B68002B09D0FC
:102E48004B68002B06D01C22002100F0EDF8002072
:102E58002C6170BD16204042FBE710B50400080045
:102E680011001A00A047FFF7B1FDFEF7ABF9F0B566
:102E780085B001900393D37815001A00413A0F00EA
:102E8800082402926F2B0AD004D80234582B06D19A
:102E9800063404E008220A249343702BF8D00A9ED3
:102EA8002200002339000198FDF738F913008C46F9
:102EB800D2B2092B19D813003033DBB2013E33707C
:102EC8000023BB4202D1019B9C4202D8039B9E4235
:102ED80008D82B789B0613D5082C0FD1AB781C4348
:102EE800AC700DE067460190DAE71300029957339A
:102EF800DBB21929E2D83732D3B2DFE7102CEDD094
:102F0800300005B0F0BDF7B50F0015001E00140025
:102F18000190601BA64204D8002E09D12378002B0B
:102F280006D020783900019B984701340028F0DA50
:102F3800FEBD704710B504000C22002100F074F8A3
:102F4800200010BD10B500F0A8F910BD10B50100A3
:102F5800006800F0A2F910BD10B500210120FFF7AC
:102F6800F1FF10BD10B5FEF705F8FEF7A5F810BD86
:102F7800704710B5FFF7FCFFFFF754F9FFF77CFD2A
:102F8800FEF7F2F8FFF75AF97047030030B51A78E0
:102F9800202A0DD011000939042909D92B2A09D072
:102FA80000212D2A01D10133013100200A2508E032
:102FB8000133ECE700210133F7E768433030013390
:102FC800801A1A781400303C092CF6D9002900D14F
:102FD800404230BD030000201A5C002A00D170472F
:102FE8000130F9E7030000201A5C002A01D088426A
:102FF80000D170470130F7E730B50500101E09D041
:103008000024013A2B5D085DA24202D001348342BC
:10301800F8D0181A30BD002310B59A4200D110BD5F
:10302800CC5CC4540133F8E70300C9B28218934258
:1030380000D1704719700133F9E701204042704709
:1030480010B5FEF7DBF810BDEFF3108372B6002B56
:1030580002D162B6BFF36F8F0020704784B0019031
:10306800C0B202910392062809D18022A02301212F
:10307800D205DB00D150BFF34F8F20BFFDE704B06E
:10308800704784B001900291039262B6BFF36F8FCC
:1030980004B07047CAB20C21514303695B18186C1D
:1030A800072318407047EFF3108172B6C0220368F7
:1030B8001A40022313430360002902D162B6BFF30A
:1030C8006F8F7047F7B503690192C9B2EFF31086A5
:1030D80072B60C2425004D435D192F6CC0253A00AB
:1030E8002A4094462F4202D0019A62450DD101220E
:1030F8004C431B191A6400239E420AD04368C90036
:1031080059184B6898470020FEBD002E06D10123B0
:103118005B4262B6BFF36F8F0133EFD101204042AB
:10312800F2E710B58022FFF7CDFF10BDF8B5944641
:1031380004000769C9B2EFF3108672B60C2207259E
:103148004A43BA18106C0540012D10D10698106436
:103158000020864214D00C2260464A43BA18D36332
:103168006368C9009063CB5898470020F8BDC02217
:103178001040069A824209D178204042002EF5D1AB
:1031880062B6BFF36F8F0028E5D0EFE70120F4E7C0
:1031980013B580240094FFF7C9FF16BDCBB21C21DC
:1031A80010B55943006940180021904710BD10B56B
:1031B8000020FEF7D5FE10BD10B50020FEF704FF75
:1031C80010BD10B51000FFF72BF910BD43680020A3
:1031D8005A68A223DB00D3580B607047436800206D
:1031E8005A68A123DB00D1507047036930B558688D
:1031F8000024002804D1002A1AD1002030BD28005C
:1032080081420FD108689D68002C06D158608D4214
:1032180000D1986000200860EDE720608D42F9D168
:103228009C60F7E705680400002DE8D1002A07D064
:103238005A6898680A6059600028DED19960DDE70D
:1032480016204042DAE7036905CB05C10020704724
:10325800704710B5804710BD10B500F010F910BDCB
:1032680010B50020FDF74EFE002801D1FDF73EFE07
:1032780010BD7047002808D0C3681888C005C00D65
:103288000138FF3843425841C0B27047EFF310830A
:1032980072B6FEE710B5FFF7F9FFF8B505000E00A6
:1032A800EFF3108772B6FFF791FB31000400280096
:1032B800FFF7F0FF002F02D162B6BFF36F8F200037
:1032C800FDF780FFF8BDEFF30580431E9841C0B2BB
:1032D800704710B5FDF78CFDFFF7BAFF10BD036806
:1032E800426813605A60002303604360704710B55A
:1032F8000400FFF7F4FF0222637B93436373002308
:10330800A36010BD10B5002805D1EFF30580002893
:1033180002D1FDF731FE10BD62B6BFF36F8FFAE739
:1033280010B5EFF3108072B6FFF7ECFF10BD030085
:103338000068834200D10020704710B5EFF3108475
:1033480072B6FFF7B7F9002C02D162B6BFF36F8FE0
:1033580010BD183870B50400EFF3108572B6282335
:10336800427B1A420BD18368002B01D0FFF7BFFFC5
:103378001422637B200093436373FFF79BF9002DAE
:1033880002D162B6BFF36F8F70BD70B504000D0037
:10339800FFF7E0F90223627B13436373002D13D018
:1033A8002B68A5609D4216D0002B14D00E216156C3
:1033B8000E229A56914208D0521A002A05DD5A6800
:1033C8002360626014605C6070BD6A68934202D0DA
:1033D8001B68002BECD16B68256063601C606C6017
:1033E800F2E770B5EFF3108572B6FFF7A0FF041E81
:1033F80005D0FFF77CFF2000183000F007F8002DFB
:1034080002D162B6BFF36F8F200070BD10B5EFF325
:10341800108472B60368002B08D0FFF781FB0020E8
:10342800002C02D162B6BFF36F8F10BD1620404248
:10343800F6E710B5EFF3108472B6FFF743FB002CE4
:1034480002D162B6BFF36F8F10BD70B504000D00D6
:10345800EFF3108672B6FFF735FB012805DDA042B1
:1034680003DB29002000FEF7C1FC002E02D162B662
:10347800BFF36F8F70BD10B5FFF75AFC10BD10B5C4
:10348800002801D0FDF7D8FE10BD030030B5EFF3DA
:10349800108472B61D6800208D4201D11A60013077
:1034A800002C02D162B6BFF36F8F30BD0300EFF37B
:1034B800108272B600681960002A02D162B6BFF3A2
:1034C8006F8F70470300EFF3108272B600680140F7
:1034D8001960002A02D162B6BFF36F8F7047704738
:0834E80000480047891E0000A6
:0834F000D0CCFF7F01000000B9
:1034F8005130000000000000BD1200002835000017
:10350800F51B0000403500009D1D000058350000E7
:10351800DD150000703500001D15000000000000DA
:10352800303700009C36000088360000200000205C
:103538003C0100206A3600003D3700000000000012
:10354800E8360000280000200C0000206236000049
:103558004437000000000000000000002C0000209C
:10356800000000005E36000036370000DC36000040
:10357800B8360000240000209801002058360000CA
:10358800592000005B32000000000000612F00009D
:1035980000000000612F000000000000612F000003
:1035A80000000000612F000000000000612F0000F3
:1035B800000000008518000000000000612F0000D6
:1035C80000000000612F000000000000612F0000D3
:1035D80000000000612F000000000000612F0000C3
:1035E80000000000612F000000000000612F0000B3
:1035F80000000000612F000000000000612F0000A3
:1036080000000000612F0000000000002D1D0000D8
:1036180000000000612F000000000000612F000082
:1036280000000000612F000000000000612F000072
:1036380000000000612F000000000000612F000062
:1036480000000000612F000000000000612F000052
:10365800FF7FFF7FFF7FFF7FFF7FFF7FFF7FFF7F72
:0A366800FF7FFF7FFF7FFF7FFF7FE2
:0E367200FFFFFFFFFFFFFFFFFFFFFFFFFFFF58
:103680000438FDD870470000D11300002B31000032
:1036900099310000000000009D300000751300000B
:1036A00001140000B7310000C13100008512000094
:1036B0005912000000000000B9170000D5310000C9
:1036C0009D150000E5310000B9150000C915000086
:1036D00011160000F331000000000000FFFFFFFFA3
:1036E0000000005000000000AD190000751B000034
:1036F000D5190000E51900004F320000F834000031
:10370000103500001835000028350000283500006D
:10371000F5FFFFFF7B696E69747D00626175643A35
:10372000007B6368616E67657D00286E696C2900A7
:10373000434C4F434B004750494F5F300055415277
:10374000545F30007379735F636C6F636B000101CA
:103750000001000000000000000000000000010067
:103760000100000000000000000000000000000157
:1037700001000000010000016D61696E00000000A1
:10378000A12D0000010000004330000000C2010034
:10379000000103000024F40018000020180000209D
:1037A0000000000000000000000000000000000019
:04000003000011A147
:00000001FF
