:10000000A00B0020BD130000553600009113000026
:1000100091130000911300009113000000000000F4
:10002000000000000000000000000000A51000001B
:10003000911300000000000051100000D73A0000AA
:100040005511000055110000551100005511000018
:100050005511000055110000551100005511000008
:1000600055110000551100005511000055110000F8
:1000700055110000551100005511000055110000E8
:1000800055110000551100005511000055110000D8
:1000900055110000551100005511000055110000C8
:1000A00055110000551100005511000055110000B8
:1000B00055110000551100005511000055110000A8
:1000C0005511000055110000551100005511000098
:1000D0005511000055110000551100005511000088
:1000E0005511000055110000551100005511000078
:1000F0005511000055110000551100005511000068
:1001000053B94AB9002908BF00281CBF4FF0FF317E
:100110004FF0FF3000F074B9ADF1080C6DE904CE7A
:1001200000F006F8DDF804E0DDE9022304B07047D2
:100130002DE9F047089E0D4604468846002B4DD118
:100140008A42944668D9B2FA82F252B101FA02F3B5
:10015000C2F1200120FA01F10CFA02FC41EA030885
:1001600094404FEA1C45210CB8FBF5FE1FFA8CF7B2
:1001700005FB1E8341EA03430EFB07F199420BD9AD
:100180001CEB03030EF1FF3080F01E81994240F218
:100190001B81AEF1020E63445B1AA4B2B3FBF5F00F
:1001A00005FB103344EA034400FB07F7A7420AD9D2
:1001B0001CEB040400F1FF3380F00881A74240F2F9
:1001C000058164440238E41B40EA0E4000211EB160
:1001D000D4400023C6E90043BDE8F0878B4208D92C
:1001E000002E00F0EE800021C6E900050846BDE8BB
:1001F000F087B3FA83F100294AD1AB4202D382429D
:1002000000F2F980841A65EB030301209846002E62
:10021000E2D0C6E90048DFE702B9FFDEB2FA82F2B7
:10022000002A40F09180A1EB0C054FEA1C471FFA11
:100230008CFE0121B5FBF7F307FB1350250C45EAB3
:1002400000450EFB03F0A84208D91CEB050503F19D
:10025000FF3802D2A84200F2CB8043462D1AA4B246
:10026000B5FBF7F007FB105544EA05440EFB00FE12
:10027000A64508D91CEB040400F1FF3502D2A645BF
:1002800000F2BB802846A4EB0E0440EA03409EE740
:10029000C1F120078B4022FA07FC4CEA030C20FA3C
:1002A00007F405FA01F31C43FD404FEA1C4900FA2C
:1002B00001F3B5FBF9F8200C1FFA8CFE09FB185569
:1002C00040EA054508FB0EF0A84202FA01F20BD9FC
:1002D0001CEB050508F1FF3A80F08880A84240F247
:1002E0008580A8F1020865442D1AA4B2B5FBF9F087
:1002F00009FB105544EA054500FB0EFEAE4508D942
:100300001CEB050500F1FF346CD2AE456AD902380A
:10031000654440EA0840A0FB0294A5EB0E05A54207
:10032000C846A64656D353D05EB1B3EB080265EB80
:100330000E0505FA07F722FA01F3CD401F43C6E97F
:1003400000750021BDE8F087C2F1200320FA03F117
:100350000CFA02FC25FA03F395400D434FEA1C47C3
:100360001FFA8CFEB3FBF7F107FB11302B0C43EAAD
:10037000004301FB0EF0984204FA02F408D91CEB8A
:10038000030301F1FF382FD298422DD9023963447B
:100390001B1AADB2B3FBF7F007FB103345EA034578
:1003A00000FB0EF3AB4208D91CEB050500F1FF384A
:1003B00016D2AB4214D902386544ED1A40EA014125
:1003C00038E73146304607E78646E5E61846FAE65E
:1003D0004B45A9D2B9EB020864EB0C0E0138A3E738
:1003E0004046EAE7204694E74146D1E7D0467BE71E
:1003F000023B654432E7084609E76444023842E7B5
:10040000704700BF2DE9F04395B0284DAB681B69DC
:1004100013B102A9284698472548244EDFF8948056
:10042000DFF8949001F0CCF80024AF683B68002B13
:10043000FCD00DF10701304698470028F6D19DF811
:100440000700022103F075F99DF807307B2B03D1DB
:1004500000248DF81040E8E77D2B1ED1052241468F
:1004600004A803F03EF90028DFD10DF1150003F0D8
:10047000F8F8041EECDD4FF47A7003F09CFC029453
:10048000FB6813B102A9304698474FF47A7003F025
:1004900092FC484601F094F8DAE73E2CC5D804F106
:1004A00050026A44013402F8403CBEE7443E00007A
:1004B000544100005B41000061410000014B1860A5
:1004C000704700BF000000202DE9F84FB0F81890E9
:1004D00019F00808044693460DD001290CBF49F0D5
:1004E000100949F02009A0F818908BF31188BFF388
:1004F0006F8FBDE8F88F09F00709022907D1204660
:1005000002F087FF0028F0D00128238B4ED16769C5
:10051000218B002F15DA256821F00701C4E9008836
:1005200041F0010121830026218B01F0070ACA4511
:1005300002D0A368002B5AD10DB9002E71D0002330
:1005400056E001F007035A1F012A1ED821F00701C7
:10055000062B256889B2C4E900880AD13DB1638BB6
:100560002A46126801339BB2002AFAD1638341F014
:1005700002012183204602F04CFF06460028D3D01A
:10058000238B43F020032383CDE7042B0CD121F0F0
:10059000070189B22183204602F03BFF054600286F
:1005A000C1D041F0200121830025BCE7032809D1F7
:1005B000226923F00703166843F00603238300250E
:1005C0002F46B1E7042806D1226923F007035668B5
:1005D00043F00403F2E7052806D1226923F007035C
:1005E000966843F00503E9E700252E46E8E7012376
:1005F00041F0080121838BF31188BFF36F8FFBB9A2
:1006000085BB16B11F492046B0474FF02003EFF3DA
:10061000118B83F31288BFF36F8F238B23F00803B2
:100620002383238BDA0625D523F0100323830121AE
:10063000B4F8189009F0070900297FF45EAF54E779
:10064000A1680029DCD0D1F80090D1F804B03B4675
:1006500052462046D847B9F1000FD1D04946D9F8C3
:100660000090F2E729463B46524620462D6802F0AC
:10067000ECFEC5E713F020011EBF23F02003238307
:100680000221D5E7773400002DE9F04F91B08B4679
:10069000029092461C4600259AF8000008B92846A8
:1006A0005FE325280AF1010707D0029B59469847C6
:1006B0000028C0F25683013512E2182200210AA850
:1006C00003F02BF89AF80130252B78D00022104641
:1006D000964694461646394617F8013B2B2B00F0F8
:1006E0009D8000F29480202B00F09B80232B00F053
:1006F0009B802EB19DF8306046F004068DF8306086
:10070000BCF1000F05D09DF8306046F008068DF86A
:100710003060BEF1000F05D09DF8306046F0100645
:100720008DF8306028B19DF8300040F020008DF841
:1007300030002AB19DF8302042F040028DF8302080
:100740009DF8302002F04400442803D16FF3861254
:100750008DF830209DF830202A2B42F080028DF851
:1007600030207BD19DF8312042F001024B1C8DF8E6
:1007700031201A782E2A9DF831200CBF012100214A
:1007800061F341028DF8312074D15A782A2A6AD057
:10079000013300210A26184610F8012BA2F1300778
:1007A000092F40F28E809DF830200E91C2F3400058
:1007B00040EAD17161F341028DF830205AE00AF12C
:1007C00002078DF833309DF83130D90740F1498167
:1007D00054F8049BB9F1000F07DA9DF8302042F07D
:1007E00004028DF83020C9F100095A0740F1428116
:1007F00054F8048BB8F1000F80F241819DF831303C
:100800006FF341038DF831304FF0FF3837E12D2B76
:100810000CD0302B7FF46DAF01225CE74FF0010C60
:1008200059E74FF0010E56E7012054E7012652E741
:100830000CFB0202303A33461E4616F8010BA0F1BB
:100840003007092FF4D9994293D09DF830100D92BA
:10085000D20F62F341018DF830108AE70B46002277
:100860004FF00A0CE8E79DF8312042F004028DF8C1
:10087000312002331F4617F8012B6C2A41D025D8AE
:10088000682A2BD06A2A46D04C2A4CD01F4617F82B
:10089000012B9DF831308DF83320782A00F2D98071
:1008A000572A4DD8412A03D0453A022A00F2D18076
:1008B0009DF83230042262F302038DF832300123B6
:1008C0009EE006FB01213039034664E7742A26D0F6
:1008D0007A2ADBD19DF8313006220DE05A78682A59
:1008E0009DF8312006D1012161F3C6028DF8312037
:1008F0009F1CCCE71346022262F3C6038DF8313009
:10090000C5E75A786C2A9DF8312001D10421EBE724
:1009100013460322F0E79DF831300522ECE79DF8FD
:1009200031300722E8E7BDF8303023F4F04323F0FC
:10093000020343F4804343F00203ADF83030A6E7EE
:10094000A2F15801202900F2848001A050F821F082
:10095000150A0000530A0000530A0000530A000061
:10096000530A0000530A0000530A0000530A000013
:10097000530A0000B1080000530A0000150A0000E5
:10098000D5090000B1080000B1080000B10800005E
:10099000530A0000D5090000530A0000530A000062
:1009A000530A0000530A00001D0A0000150A000047
:1009B000390A0000530A0000530A0000390A0000F7
:1009C000530A0000150A0000530A0000530A0000F1
:1009D000150A00009DF83210012003F0780360F33F
:1009E0000201402B8DF8321002BF9DF8301041F00B
:1009F00001018DF83010632A31D1003B18BF01236B
:100A00009DF83020C2F340010B4363F341028DF89F
:100A10003020D8E69DF832100220DEE79DF8322023
:100A200003F07803A3F14000032161F30202434283
:100A30008DF832204341E3E79DF83220032113F083
:100A4000780F61F302028DF8322014BF01230023D6
:100A5000D6E79DF8303043F001038DF830300023A5
:100A6000CEE79DF93020002AB4BFDDF834904FF076
:100A7000FF39BAE69B077FF5C7AEDDF838809DF8F1
:100A800031100023CDE90D339DF8323003F0070318
:100A9000012BC1F3C30138D1CB1E042B22D8DFE8D0
:100AA00003F003090921210054F8043BDA17CDE9CA
:100AB0000A3206E0073424F00704F4E80223CDE903
:100AC0000A239DF8303013F0030656D002983B46B7
:100AD0005246594602F098FD0028C0F24281054472
:100AE000BA46D9E554F8043B01294FEAE372CDE94F
:100AF0000A3205D19DF828300A9300230B93E0E7D2
:100B00000229DED1BDF92830D0E7022B23D1CB1E3C
:100B1000042B13D8DFE803F0030A0A12120022683C
:100B20000A920023201D0B930446CAE7E01D20F023
:100B30000700F0E80223CDE90A23F5E754F8043B67
:100B40000A9301294FF000030B93D3D00229B8D1A7
:100B5000BDF82830D0E7042B09D1E31D23F00703AB
:100B600003F10804D3E90023CDE90A23A9E7032B05
:100B700004BF54F8043B0A93A3E79DF83300782898
:100B8000AED8622822D825283FF48FAD5828A7D1A7
:100B90000DF126030093DDE90A0104AB0CAA02F073
:100BA000EDFC8246B8F1000F0DF126000CDB9DF83C
:100BB0003020A0EB0A036FF3861298458DF83020A1
:100BC00002D9A8EB03030D9380463DE06338152856
:100BD00086D801A252F820F0590C0000BD0C00008C
:100BE000E10A0000E10A0000E10A0000E10A000059
:100BF000BD0C0000E10A0000E10A0000E10A00006B
:100C0000E10A0000170D0000E50C0000E90C0000EF
:100C1000E10A0000E10A0000310C0000E10A0000D6
:100C2000E50C0000E10A0000E10A0000E50C00000C
:100C3000B8F1000FDDF828A00ADB4146504602F06B
:100C400047FD0AEB00080026BAF1000F0CD147E778
:100C5000504602F036FDF4E70A9B8DF8103000266E
:100C60000DF1100A0DF11108A8EB0A0306B10133CA
:100C70009DF83220D00668D5023352060D9948BF40
:100C80000E9A0B4448BF9B18B9F1000F76DD9DF812
:100C90003020A9EB0309C2F38003039353076DD4FB
:100CA000500661D546B1029B594630469847002808
:100CB00057DB039B01351E46302356E01E070FD439
:100CC00013F0100618BF2026DDE90A23002BBFF61B
:100CD0005FAF524263EB4303CDE90A232D2657E76A
:100CE0002B26F1E7002653E70A9840B30DF12603BF
:100CF00000930CAA04AB002102F040FCBDF8323096
:100D000003F0EF0343F4F04343F010038246ADF8E1
:100D10003230002646E70A9B07293FF6E1AEDFE8BE
:100D200001F00C04060C08080C0C1D70D8E61D80A0
:100D3000D6E6EA17C3E90052D2E61D60D0E6DFF836
:100D4000C8A006460AF105088EE7110748BF01331F
:100D500093E7184603935946029B98470028039B44
:100D600004DA11B0BDE8F08F20234D444A46002A32
:100D7000A5EB090109F1FF39EBDC0D4636B1029B09
:100D80005946304698470028EBDB01359DF8323054
:100D9000D90601D41A0706D5029B59463020984738
:100DA0000028DEDB01359DF83230DB0607D59DF8E3
:100DB0003300029B594698470028D2DB01350D9E2F
:100DC0002E44731B002B16DC0298434652465946AC
:100DD00002F01AFC0028C4DB0544A944A9EB050372
:100DE000002B7FF77DAE029B5946202098470028B4
:100DF000B7DB0135F2E7029B5946302098470028BF
:100E0000AFDB0135DDE700BF6A410000F8B50546FC
:100E10004FF02003EFF3118683F31288BFF36F8F37
:100E2000094B1C685CB1094FD4E90132002D08BFA1
:100E300013460BB1387898472468002CF4D186F318
:100E40001188BFF36F8FF8BD60010020680100209A
:100E50001FB50F4B1A68BAB901221A600D4A07CAAA
:100E600001AB83E807000C4A4AB193E8070002F09F
:100E700075FC002005B05DF804EBFFF7C7BF82F3F7
:100E80001188BFF36F8FF4E705B05DF804FB00BF76
:100E900004000020680100205D370000F0B589B033
:100EA0006E4601460546304602F0C5FB96E807004F
:100EB000174C84E807002078274638B3154B0021EB
:100EC00019606B1C0DD0144816464FF4004C134AA1
:100ED0000023E6FB0C01FFF713F90121281A02F0A9
:100EE0004CFF01F079FE0120FFF790FF97E8070023
:100EF00005AB83E807000A4A1AB193E8070002F03D
:100F00001AFCFFF7A5FF01F0EDFF207809B0F0BD56
:100F100068010020040000203F420F0040420F0003
:100F200037370000014910220A60704710ED00E0D9
:100F300072B6404080F31188BFF36F8FBFF34F8FBD
:100F400030BF62B6BFF36F8F704700BF72B64940C3
:100F500081F3118820BF80F3118862B6704700BF0B
:100F600043B2002B08DB012200F01F0002FA00F060
:100F70005B09024A42F82300704700BF00E100E02D
:100F8000054B420900F01F0053F82220012303FA09
:100F900000F01040704700BF00E100E043B2002BBA
:100FA000A8BF03F1604301F10101B8BF064B4FEA4E
:100FB0004111ACBF03F5614300F00F00C9B2B4BFEB
:100FC000195483F80013704714ED00E030BFFFF7A9
:100FD000FDBF00BF0F4A08B50F4B22F07F029A6099
:100FE000BFF34F8FBFF36F8FD3F8882022F47002C6
:100FF000C3F88820EFF3148323F0040383F31488E9
:10100000BFF36F8F01F028FC02F08EF800F0CAF9F0
:1010100001F02CFC0000000000ED00E0094A0A4944
:10102000936809689967094958674B6843F080538A
:101030004B60002383F31188BFF36F8F9368986F21
:10104000704700BF480300205041000000ED00E061
:1010500012498A684FF030001044EFF3098C80E8A1
:10106000F01F202080F31288BFF36F8F0C4F4FF0DA
:101070000066CA698A603E60506F0023536780F340
:10108000118804B5104600F0CFF9BDE8044002F124
:10109000300090E8F01F8CF3098870474803002067
:1010A00004ED00E01EF0040F0CBFEFF30880EFF337
:1010B0000980816911F8021C0229FFD001B502F0F4
:1010C000C1FA01BD42F8203C009B42F81C3C0A4991
:1010D000019B42F8183C029B42F8143C21F00101AC
:1010E0004FF0807342F8043C42F8081C0023203A79
:1010F00002654367704700BF69350000094A03462F
:10110000906870B113F1160F406E05D0A0F1200267
:101110009A4205D8834203D2814228BF00207047FB
:10112000002070474803002008B5094B98600D4621
:10113000144600F079F9204685F30988002163B64A
:1011400081F31188BFF36F8F0022002302F00CFAA5
:101150004803002001B572B60B4A906900281EBFF3
:101160000021916102F03AFD62B6EFF30580A0F133
:1011700010004FEAC0000549014409C99847BDE87D
:10118000014003490847000048030020A43E000036
:1011900095110000044B9968D869884203D003492F
:1011A0004FF080520A6070474803002004ED00E0D1
:1011B00038B5194B14469A6A9A6A9A6A0546900796
:1011C00019D5586B9A6A120615D519B19A6A22F088
:1011D00080029A629A6A9A6A9A6AD1060ED49B6AC7
:1011E0009A070BD400200C4A936A43F0FF039362E2
:1011F0000023237038BD6FF01500EBE7064B5B68EA
:101200001B05EFD52946FFF779FF0028EAD080F3C8
:1012100009880220E7E700BF00ED00E00D4B9A6A65
:101220009A6A9A6A920508D59A6B9A6A120404D54A
:1012300018B19A6A22F400429A62064B9A6A9A6A34
:10124000D20558BF9A6A9A6A002042F47F429A6295
:101250000870704700ED00E070B5484B5B688AB0DD
:101260000D46C3F30803002686F31188BFF36F8F82
:1012700002F07F41B1F17F4F11D102F00C0108293A
:101280000DD0110701D4054601260022033B8DF83D
:101290000720032B6BD8DFE803F00455595D354672
:1012A000F3E7364BDC6A14F0020460D1DA6A002AF4
:1012B00015DBDA6A520012D5AA6932F8021C4DF623
:1012C000027291420AD093F828200AB30DF1070266
:1012D00001212846FFF76CFF044600E02C689DF8CA
:1012E00007309BB92022294602A802F00BFA099B7D
:1012F000002E3ED0C3F3080222B96FEA53236FEAEF
:101300004323099302A9204602F09AF90AB070BD5E
:1013100093F829202AB10DF107010120FFF77EFF84
:10132000DAE75A8D92B2002AD9D09A6A9A6A9A6AF2
:101330009A6A9A6A9A6A9A6A6FEA02426FEA124253
:101340009A62CCE70DF107020021C2E70DF1070117
:101350000020E3E7094B9A6A9A6A9A6A9A6A9A6A3B
:101360009A6A9A6A6FEA02426FEA12429A6200240B
:10137000B5E723F4FF7323F00103C2E700ED00E0BB
:10138000024A536943F010035361704700ED00E0D7
:10139000EFF30880EFF3098101B57246FFF75CFFB8
:1013A00001BD00BF044800232021C2180133302BA7
:1013B00082F80013F9D1704700E100E002F000FD6F
:1013C000202080F3118808484FF40261401880F310
:1013D0000988EFF314800221084380F31488BFF3D7
:1013E0006F8FFFF7F7FD0000200D0020064B9B6874
:1013F000834207D1EFF3058323B1044A536843F0D6
:101400008053536001F03EBE4803002000ED00E031
:10141000024B034A0348012100F06EB8000004208B
:101420000000002058400000426E054B203A1A6030
:10143000044A2021C3E901121846012100F066B8D0
:101440007401002000000B15F0B51F4F00268E42DE
:1014500001DB1046F0BD44689CB353B104F1FF3C7E
:1014600014EA0C0F18D11F2C16D905681CEA050FB9
:1014700012D1202C0568D0F808C0D2B20FD9B4F12F
:10148000004F0ED8013CB4FA84F4C4F11F04640088
:10149000072A4CEA040406D96FF01502D9E708249C
:1014A000F6E73E24F4E725F01F05154345F0100547
:1014B00044F00104C7F89820C7F89C500132C7F8DF
:1014C000A04001360C30C2E700ED00E0044B0522DD
:1014D000C3F89420BFF34F8FBFF36F8F704700BFE7
:1014E00000ED00E0BFF35F8F024B0022C3F89420B1
:1014F000704700BF00ED00E010B5034C01232278D7
:10150000FFF7A2FF207010BD8003002008B5094A34
:1015100000231278FFF798FF10F1160F02D0064A49
:10152000072800DD08BDC2F89800C2F8A0300130DD
:10153000F6E700BF8003002000ED00E014490868D2
:10154000082810B521D8FFF7CDFF124C49680022BA
:10155000904201F10C0105D10F4B1870FFF7B6FF57
:10156000002010BDC4F8982051F80C3C23F01F0354
:10157000134343F01003C4F89C3051F8043C43F08B
:101580000103C4F8A0300132E2E74FF0FF30E8E792
:101590006440000000ED00E080030020014B186073
:1015A000704700BF080000200239012902D8034B10
:1015B0001B6818474FF0FF30704700BF080000203D
:1015C0000FB407B504AB022153F8042B0448019370
:1015D000FFF75AF803B05DF804EB04B0704700BFA2
:1015E000333700004FF02003EFF3118283F31288AA
:1015F000BFF36F8F06490123C1F840354FF080419A
:10160000C1F8783582F31188BFF36F8F00207047DF
:1016100000E0014020B1034B800143F00103184773
:10162000704700BF50400000084B70B5C31A0D460C
:1016300007499B10044659430648402202F0B5F87A
:101640002B4601462046BDE8704018479001002017
:10165000B76DDBB6143E000073B50C4C0C4A40234A
:10166000041B00930D460B460A49A410614306462D
:10167000094802F0C6F8011E05DA30462B4602B0D2
:10168000BDE87040184702B070BD00BF9001002057
:1016900073380000B76DDBB6143E0000002270B551
:1016A000012104461046FFF779FC0020FFF758FCA3
:1016B0000F4800F029FF0F4B984215D102F019FA9C
:1016C00026690D49304601F0F3FE00280BDB246942
:1016D00009490125356404F11C0001F0E9FE0028E8
:1016E00001DBE564002070BD6FF00400FBE700BF84
:1016F000311700000000AD0BA840000001460C238C
:1017000009484B4370B5C418D4E90E560022403343
:10171000A263184402F036F82DB132462B46034836
:10172000BDE87040184770BD90010020143E0000D5
:1017300010B1012804D07047034B1B6C5B0701D12B
:10174000FFF7DCBF704700BF9001002008B54FF0E5
:101750002003EFF3118183F31288BFF36F8F124AD6
:10176000136843F0020013F0010310600CD04FF037
:101770008042D2F80C34D2F80C2413F0010303D0C9
:101780000A4801F0FFFF012381F31188BFF36F8F37
:1017900023B1BDE808400020FFF7B0BFBDE8084016
:1017A000012002F0B0B900BFE0010020D00100200C
:1017B0001FB500220123CDE90223094ACDF800D04C
:1017C0006B46CDF804D002F04DF8002805DB4FF44D
:1017D00080420023684601F07FF905B05DF804FB04
:1017E00091380000094BBFF35B8F53E8002F22F0C4
:1017F000020143E800100028F7D1BFF35B8FD30745
:1018000002D4012000F090BE704700BFE00100202C
:101810002DE9F0413949BFF35B8F0746012251E8BA
:10182000003F41E800200028F9D1BFF35B8F33B9B6
:10183000334934484B60CB608A6001F04CFE7B1E1C
:10184000012B2FD8012F07D14FF08043D3F81C3440
:1018500003F00303012B25D002F0BAF9044618B9AE
:10186000294B1B78002B41D14FF02003EFF3118659
:1018700083F31288BFF36F8F0124DFF890804FF05D
:101880008045D5F81834D5F81824D2030CD503F0C8
:101890000303012B01D0012F06D10CB386F311886D
:1018A000BFF36F8FBDE8F081ACB13046FFF74EFB60
:1018B000D5F81835002BE4D1D5F80421002AE0D062
:1018C000C5F80431D5F804310123C5F81835C8F836
:1018D0008031AB60D5E70021212001F0B3FBE7E7C1
:1018E0004FF080430222C3F80423DBE74FF080432C
:1018F0000222C3F808230646BFE700BFE401002028
:1019000080010020AC0100209207002000E100E0EF
:1019100008B5084B0848186002F029F938B10748A3
:10192000FFF73CFE0548FEF7C9FD002008BD6FF03B
:101930001200FBE7E8010020443E000041190000CE
:101940000A2838B5074D044604D1286883680D215C
:101950005B68984728688368E1B25B6898472046CF
:1019600038BD00BFE801002008B5094B1A786AB9F4
:101970000121197006200521FFF710FB0620FFF753
:10198000EFFA044B4FF00042C3F80423002008BDD7
:1019900081030020006000402B4BF0B544682B48C9
:1019A0001340834241D00DD8062B15D005D89BB1EA
:1019B000022B3CD06FF0150036E0B3F5801FF9D153
:1019C000012309E02248834233D0B3F5A00F32D07F
:1019D000B3F5800FEED10223D00654BFC2F34016F8
:1019E000032682F480759705C2F34020C5F30025D5
:1019F00007D512F4006F67681FD001228A40C7F82C
:101A00000825227A134C012A01F01F0140EA450201
:101A100018BF4FF0A04442EA032301F5E07143EA06
:101A2000860344F821300020F0BD0723D4E70423C7
:101A3000D2E70523D0E70323CEE7520542BF0122B8
:101A40008A40C7F80C25DCE70600F000060010000D
:101A5000020040000003005000F01F024009084B44
:101A6000012818BF4FF0A04303EB8203D3F80027EF
:101A700022F4403242EA0142C3F80027704700BF17
:101A8000000300502DE9F84F0369D0F804A0DE6888
:101A9000DFF87CB08846D3E905210A4326EA02062E
:101AA000DAF804201B69D2F810555D4026EA0505D6
:101AB000374601244FF0000917B92846BDE8F88FD2
:101AC0003C4221D09AF8083009F01F00344240EA25
:101AD000431014D14209012A00F01F0314BF4FF034
:101AE000A0425A4603F5E07352F82330C3F3014392
:101AF000022B02BFD8F800302343C8F80030002181
:101B0000FFF7AAFF27EA040709F101096400D3E7F8
:101B100000030050F0B5002485B0CDE90044CDE9C4
:101B20000244284ED6F87C516DB102A92648FFF731
:101B3000A9FF03A900902548FFF7A4FF0190C6F86C
:101B40007C41D6F87C3122491E4C00220126944665
:101B5000D4F8043306FA02F0184216D00B68A3B189
:101B600002F5A27304AF54F82330C1F800C0C3F3E8
:101B7000403007EB8000C3F3042350F8107C06FAD2
:101B800003F33B4340F8103C0B680132082A01F193
:101B90000401DDD1009A22B10E4B0B49586801F0C7
:101BA000CBFE019A22B10C4B0849586801F0C4FEE3
:101BB0002DB1054801F0D1FE044801F0CEFE05B07C
:101BC000F0BD00BF00600040743E00008C3E00008D
:101BD00000610040EC01002008020020F7B5144627
:101BE00042680769127A01F01F05B4F5A03F0E465E
:101BF00045EA421510D16909012905F01F02614922
:101C000002F5E07218BF4FF0A04151F82220D00732
:101C100007D56FF085009AE0B4F5005FF96800F031
:101C20009880FA680121B14011437A69F960012175
:101C3000B140B4F5A03F0CBF0A438A437A61BA6948
:101C4000B3F5C02F0CBF0A438A43BA613A69B3F5B2
:101C5000802F0CBF114322EA01014B4A3961D2F8AF
:101C600004330020DBB200F5A27152F82110C1F359
:101C700005218D4272D123FA00F1C9076ED5830088
:101C800003F1804303F5C043D3F8101521F001019F
:101C9000C3F8101501238340C2F80833C0B200F026
:101CA000B3FC28460021FFF7D7FEF868F04010F09B
:101CB00001004CD07869F04010F0010455D0BB69A8
:101CC000F340DB075FBF396921FA06F606F001062B
:101CD000C6F102060DF1070054BFF6B2032600F06C
:101CE000B3FC2A4B98423DD19DF80720930003F1A5
:101CF000804303F5C0432D02D3F8101521F44F3172
:101D000021F44071C3F81015D3F8101505F47C5573
:101D10000D4345EA0646C3F81065930003F180437E
:101D200003F5C243002018609DF807101B688B0064
:101D300003F1804303F5C043D3F8102542F00102BC
:101D4000C3F81025104A01238B40C2F8043303B0B6
:101D5000F0BD0122B24021EA020166E70130082805
:101D600081D19EE76FF01200F1E73969F14001F08F
:101D70000101C1F103012846C9B2FFF76DFE2046FB
:101D8000E5E700BF00030050006000400000AD0B1D
:101D9000036803F01F025B09012B0260024818BFB1
:101DA0004FF0A040704700BF00030050F0B54B79E2
:101DB000012B2AD0032B25D110268B79032B21D17F
:101DC000CC792CB1012C1DD143685B689B0719D0DD
:101DD0000A7912B1022A15D10E220B684568B3F5B3
:101DE000164F2D6865D02DD8B3F5165F64D016D880
:101DF000B3F5966F62D00AD8B3F5967F61D0B3F58C
:101E0000167F61D06FF0850052E00026D5E7B3F56C
:101E1000166F5CD0B3F5965FF4D1374B3CE0B3F569
:101E2000E14F57D007D8B3F5615F55D0B3F5964F62
:101E3000E8D1324B30E047F61227BB42E2D14FF4F3
:101E4000000329E0B3F5613F48D013D8B3F5963FBE
:101E500047D009D84DF6C027BB4244D0B3F5614FF7
:101E6000D0D14FF46B0317E0B3F5E13FCAD14FF087
:101E7000EB7311E0B3F5612F38D008D8204FBB4287
:101E800037D0B3F5E12FBDD14FF0E86304E01D4F2B
:101E9000BB42B7D14FF08053C5F82435036903C95D
:101EA000344322430433C5F86C2583E80300002043
:101EB000F0BD4FF41D03EFE7134BEDE74FF49E2306
:101EC000EAE74FF4A033E7E74FF41C33E4E74FF4BD
:101ED0001D23E1E70D4BDFE70D4BDDE74FF06C73A2
:101EE000DAE70C4BD8E74FF46503D5E74FF07063A2
:101EF000D2E74FF08063CFE700B0130000A04E00A0
:101F000090D0030040420F000050270000C0750031
:101F100000F03A0000903A01F8B5066905460F4610
:101F200001F056FE10B92C4B1B7883B94FF02003FB
:101F3000EFF3118483F31288BFF36F8F686801F0A9
:101F400062FD28BB84F31188BFF36F8FEEE7642432
:101F5000686801F058FD70B9012001F0C8FD013C2E
:101F6000F6D10021212001F06DF8F0E784F311880B
:101F7000BFF36F8FF5E74FF02003EFF3118483F386
:101F80001288BFF36F8F686801F03DFD0028EDD027
:101F900006F8107F69680B680122C3F84465C3F82E
:101FA00048250022C3F82021D3F82001C3F8582186
:101FB000D3F858214A68D20641BF0822C3F8002549
:101FC0004FF48002C3F8042301229A6084F311883D
:101FD000BFF36F8FF8BD00BF92070020F7B54568CB
:101FE00006692C680023C4F800350746AB683060EA
:101FF00001A80193FFF7CCFE019A01239340C0F89A
:102000000835AB68019301A8FFF7C2FE019B03F5F9
:10201000E073032240F82320E868421C02D0297EA6
:1020200001F0E3FCD5E902232869C4F80C25C4F8C3
:102030001435431C02D0697E01F0D7FC6B69581C33
:1020400013D001A80193FFF7A3FE019A0123934047
:10205000C0F808356B69019301A8FFF799FE019B51
:1020600003F5E073032240F82320D5E904323969EF
:10207000C4F808253846C4F810350431FFF796FE39
:102080000746002845D16B68190719D506F11200DB
:1020900000F012FB224B98423ED1B07CC30003F10A
:1020A000804303F5F83304F10C0204F59071C3F892
:1020B0001015C3F814251B4A01238340C2F80435C8
:1020C0000823C4F80035EB6801330CD00023C4F8B2
:1020D0001031D4F8103106F11103C4F8343501235E
:1020E000C4F8383523606B681A075CBF4FF4807200
:1020F000C4F80423DB0644BF4FF48003C4F8043360
:1021000010360023C4F84465C4F848350123A360A1
:10211000E360384603B0F0BD6FF00407F9E700BF95
:102120000000AD0B00F00140044A1368C81A20F00B
:102130007F400344136001F0D7B800BF3002002095
:102140002DE9F843860006F1804600F1500406F5BB
:102150008836A400A4B204F180444FF48037D6F846
:102160004035DFF86C8021F07F4504F588348740E6
:10217000D8F80495A3EB090323F07F4329F07F42AD
:10218000012BC6F8402502D1132001F014FE09F1FD
:102190000202AB1A23F07F43B3F5000F88BF154648
:1021A000002323602368C8F8447325F07F43C6F8F2
:1021B0004035D8F80435994506D0EB1A023B23F098
:1021C0007F43B3F5000F01D8BDE8F8832B46CFE776
:1021D0000010014070B5154D154C00262B680020ED
:1021E00006B170BDD4F80423D203FAD5D4F8402147
:1021F000002AF6D0C4F84061D4F840214FF4803270
:10220000C4F84823D4F84015D4F80465721A22F0B3
:102210007F42B2F5000F88BF314601261BB16A68C4
:1022200028609847DAE72B60DBE700BF2402002034
:102230000010014038B50F4C00254FF48033C4F82E
:102240000855C4F804330C4B4FF40032C3F8802116
:1022500001212A461120FEF7A1FE1120FEF780FE83
:102260000123064AA360022023601360FFF7D0FA1F
:10227000284638BD0010014000E100E02C0200209B
:10228000134AB0F1FF3F14BF03461346013B002B36
:102290001CDD9342A8BF13460E4AD2F804050E4A2D
:1022A0001168401A10F4000F20F07F4218BF00237D
:1022B00001321344094A0A48106000205060044A61
:1022C000934294BFC9188918FFF73ABF0023E3E788
:1022D000FFFF7F0000100140300200202402002098
:1022E00029210000044BD3F80405044B1B68C01AD5
:1022F00020F07F40704700BF0010014030020020F6
:102300004FF08053D3F83021082A06D1D3F8343166
:10231000052B02D8024AD05C70470020704700BFEE
:10232000B1410000024AD2F80034002BFBD07047C4
:1023300000E0014010B501F0D0FB40B14FF0804308
:102340000022C3F80C21C3F81021C3F8382501F08E
:10235000C4FB002846D04FF08052604BD2F80414E2
:10236000C3F82015D2F80814C3F82415D2F80C14B9
:10237000C3F82815D2F81014C3F82C15D2F8141489
:10238000C3F83015D2F81814C3F83415D2F81C1459
:10239000C3F84015D2F82014C3F84415D2F8241419
:1023A000C3F84815D2F82814C3F84C15D2F82C14E9
:1023B000C3F85015D2F83014C3F85415D2F83414B9
:1023C000C3F86015D2F83814C3F86415D2F83C1479
:1023D000C3F86815D2F84014C3F86C15D2F8442439
:1023E000C3F87025FFF78CFF18B13D4B3D4AC3F889
:1023F0008C26FFF785FF18B13B4BFB22C3F818254D
:10240000FFF77EFF70B14FF080414FF08053D1F85D
:10241000E42ED3F8583222F00F0203F00F031343D7
:10242000C1F8E43EFFF76CFF20B1304B4FF400726F
:10243000C3F8402601F051FB48B14FF08043D3F878
:102440000024D20744BF6FF00102C3F800244FF00C
:102450008053D3F83021082A0ED1D3F83431052B1C
:1024600002D8234AD35C3BB14FF01023D3F80822A3
:102470004FF08043C3F858254FF01023D3F80022C3
:10248000002A03DBD3F80432002B22DA1949012396
:102490004FF01020C1F804351224FFF743FFC0F8B5
:1024A0000042FFF73FFFC0F80442FFF73BFF002365
:1024B000C1F80435FFF736FFBFF34F8F0E490F4BBE
:1024C000CA6802F4E0621343CB60BFF34F8F00BFD2
:1024D000FDE70B4B0B4A1A6010BD00BF00C0004067
:1024E000005000404881030000F00040009002408E
:1024F000AB41000000E0014000ED00E00400FA05FF
:10250000340000200090D003044B1A7922B9012234
:1025100018609A80024870470248704734020020D1
:102520000000AD0B0C00AD0B38B510B1012817D071
:1025300038BD4FF080440223C4F80833C4F80401C6
:10254000D4F804310123E36042F21075D4F8183452
:10255000DB03EDD5012001F0CAFA013DF6D1E7E732
:102560004FF080440023C4F80803C4F80031D4F8C5
:102570000031606042F21075D4F80C34D4F80C24A9
:10258000D20303F0010305D523B1012001F0AFFA16
:10259000013DF1D1014B00225A71C9E734020020FC
:1025A0004FF0804310B5D3F800216AB10022C3F880
:1025B0000021D3F800210122C3F80823114B5879D8
:1025C00010B95A711B6898474FF08043D3F8042123
:1025D00072B10022C3F80421D3F80421D3F81824DF
:1025E000D3F81814920704D10122C3F818259A6071
:1025F00010BD0222C3F80823024BBDE810401B683F
:102600000120184734020020012303FA00F0C3B26E
:1026100093B14FF02003EFF3118183F31288BFF3DE
:102620006F8F064AD36D23EA0000D06581F31188CD
:10263000BFF36F8F02487047024870473C0200208A
:102640000000AD0B0400AD0B2DE9F0410546DFF8AD
:102650005CE01748DFF85C800024FF220126E3B22B
:102660004FF02001EFF3118C81F31288BFF36F8FCD
:1026700022FA03F1C9070AD5DEF85C1006FA03F75F
:10268000394201BF3943CEF85C1040462B708CF3C1
:102690001188BFF36F8F404505D006FA03F39A43C4
:1026A00004F10104DBD1BDE8F08100BF3C02002051
:1026B0000200AD0B0000AD0B2DE9F041144A154EA0
:1026C000154F0546154800244FF0010E5FFA84FCB3
:1026D0004FF02003EFF3118883F31288BFF36F8F5D
:1026E0000EFA0CF3134207D031680B4201BF1943B5
:1026F000316085F800C0384688F31188BFF36F8FCA
:10270000B84203D09A4304F10104DFD1BDE8F0815F
:10271000FFFF0F009C0200200000AD0B0200AD0B7C
:1027200010B5144C144A1549032323616361144BFB
:10273000A261E3614FF4806323620023A3626362BA
:10274000E36222660F4A6266E01D1022A2662367DA
:10275000E366636700F0ABFFBFF35F8F0A49204673
:1027600000F0A5FFBFF35F8F2023A371BFF35F8F3E
:1027700010BD00BFA0020020B7410000C041000012
:102780009203002082030020C44100000E4B70B56C
:1027900053F82040013053F82060A64200D870BDA5
:1027A000D4E900352846984765B1EB6830B1002878
:1027B000B8BF4042FF28A8BFFF2018705A7842F0E7
:1027C00001025A700834E8E73C41000030B50023AC
:1027D00087B00122CDE904230F22CDE90232019313
:1027E0000C4C0D4B0D49182204EBC01402FB0033B6
:1027F0004FF4B075009305FB0011094B4FF4A07224
:10280000204600F0A5F8637B23F00403637307B050
:1028100030BD00BF5800002048030020C00B00203E
:102820006D2A000008B50A4B012202201A70FFF73A
:10283000ADFF01F0C4FA0320FFF7A8FF00F0BAF8DB
:10284000FDF7E0FD034A137B23F00103137308BD7A
:1028500092070020D80000200248034A0021121AE3
:1028600000F05BBF580000209407002080B5DFF81F
:10287000C080A6B088F308882E4D2F4E6B69DFF814
:10288000BC9043F4007300246B61E02385F8223090
:10289000EC772C766C76AC7685F820406B6A43F446
:1028A000E0236B6285F82340FEF76AFDFEF73AFBF2
:1028B0004FF0FF33AB62EB62FEF740FEFEF7A8FD80
:1028C00040F20113ADF8243006ABB360CDE91F44EC
:1028D00001F04CF92046FFF759FF0120184DFFF792
:1028E00055FF00F01BFB174B05930123164900947D
:1028F000CDE903434FF480624B46CDE901442846BD
:10290000F56100F025F86A7B074622F004022846AC
:102910006A7301F098F92046FFF758FF0B4BF360FC
:102920004A46394628463475C6F80480FEF7FCFB53
:102930004015002000ED00E048030020252800009D
:10294000D8000020CB410000A00700205800002044
:102950002DE9FF410E9E0673042646730D9E867375
:1029600000F158050F46D61DC0E916550C9A0025F2
:1029700026F007062037C0E90655C0E919768560BC
:10298000C573C56606F1200802920B9A019288442D
:102990000A9A009242460446FEF794FB044B656592
:1029A0009B6803B11B6F2367404604B0BDE8F0810C
:1029B000480300202DE9F043294C2A4D87B02646D4
:1029C000AE4204F130040FD300F006F9244CDFF8D6
:1029D00098904FF4004640F2E737AC4220D307B05E
:1029E000BDE8F04300F07EBA54F8043C059354F877
:1029F000103C049354F8143C039354F8183C02938D
:102A000054F81C3C019354F8203C009354E90C0109
:102A100054E90A23FFF79CFF54F8303C5E65CEE78B
:102A2000636A5A1C0DD023EAE37300213846C3FBC6
:102A3000060151EAC333D4F8008004D1404600F0C7
:102A4000AFF93034C9E74FF47A720023FDF758FB31
:102A500002460B4608F11800494600F0CBFBF0E7B0
:102A60005800002058000020673C000008B5094CC1
:102A70004FF02002EFF3118382F31288BFF36F8FC0
:102A800001F06BF9A061FEF709FA0028F0D1FEF71A
:102A90004FFAEDE74803002038B504464FF0200315
:102AA000EFF3118583F31288BFF36F8F01F027F9DD
:102AB00048B10022826701F0C6F829460548BDE802
:102AC000384000F077B8D4E902329A4218BF013397
:102AD000A360F2E79307002013B54FF02004EFF353
:102AE000118184F31288BFF36F8F846844B1013C75
:102AF000846081F31188BFF36F8F002002B010BD96
:102B000052EA030406D181F31188BFF36F8F6FF08F
:102B10000F00F3E7CDE900230246024800F09CF9DC
:102B2000ECE700BF9307002010B5084C23685BB1A9
:102B3000FFF7D8FB03462068054A0344BDE8104070
:102B40001361002101F019B910BD00BF7803002006
:102B500048030020F8B504460D464FF02003EFF37C
:102B6000118683F31288BFF36F8F0F4B00214FF450
:102B7000004740F2E73019614FF47A720023E4FB1A
:102B80000701FDF7BDFA002C084B09DC1860084B63
:102B90001D60FFF7C9FF86F31188BFF36F8FF8BD83
:102BA0000228B8BF0220F1E7480300207803002084
:102BB0007403002049B9EFF3058030B9054BDA6999
:102BC0009B689A4201D0FEF729BA81F31188BFF3BE
:102BD0006F8F7047480300204FF02003EFF31181FF
:102BE00083F31288BFF36F8F044B9A68D37B013B4A
:102BF000D37381F31188BFF36F8F704748030020B0
:102C000038B502460C480D4D01F017F8044600B9DE
:102C1000EC68AB684AB95A7BD20606D1A26922B9E0
:102C2000DA897F2A01D9EB6138BD9C4201D0FFF7D8
:102C30007BFFEC61F8E700BF680300204803002039
:102C400070B590F90D20437B002A014604DA03F0A9
:102C50007F03437300F0C9FF4B7B154A63F07F038A
:102C60004B73D2E9083402F12005AB421BD0D3B13B
:102C700091F90E6093F90E0086420FD0801B002858
:102C80000CDD5868C1E90030016059609068431A52
:102C90005842BDE870405841FFF7B2BFA34202D08E
:102CA0001B68002BE6D1C1E9005421605162EDE7B9
:102CB0004803002038B501464FF02003EFF311849C
:102CC00083F31288BFF36F8F154B164A9868156807
:102CD000A84206D1FFF728FF84F31188BFF36F8F56
:102CE00038BD00251560104A1268BAB1C2897F2A22
:102CF00014D8427BD20611D10C4A90F90E501268BA
:102D000095420BDB0A4A904208D01A698A4202DCDB
:102D1000FFF796FFDEE7521A1A61DDE70022FBE7B4
:102D20004803002070030020780300207403002073
:102D30005800002070B490F90D20437B002A2ADB54
:102D4000DA0628D1826932BB144A63F07F034373E9
:102D5000D2E9083402F12005AB4217D0B3B190F9A3
:102D60000E6093F90E108E420BD0891B002908DDEE
:102D70005A68C0E900321060586070BC0020FFF74C
:102D80003FBFA34202D01B68002BEAD1C0E9005428
:102D900020605062F1E770BC704700BF480300201C
:102DA00010B54FF02002EFF3118482F31288BFF3C5
:102DB0006F8F427B510704D484F31188BFF36F8F68
:102DC00010BD22F004024273FFF7B4FF214602480F
:102DD000BDE81040FFF7EEBE9307002008B590F95C
:102DE0000D20437B002A014604DA03F07F0343737E
:102DF00000F0FBFE044B9868431A58425841BDE866
:102E00000840FFF7FDBE00BF480300202DE9F04158
:102E1000064615461C464FF02003EFF3118783F357
:102E20001288BFF36F8F00F040FF87F31188BFF364
:102E30006F8FB4F1FF3F08BFB5F1FF3F08D02A46BE
:102E4000234606F118000349BDE8F04100F0D2B96D
:102E5000BDE8F081673C000010B5074B9868074B50
:102E60000C4618601146DDE90223FFF7CFFF20462C
:102E7000BDE81040FEF7D2B84803002070030020E0
:102E800070B50446183000F052FF4FF02003EFF306
:102E9000118683F31288BFF36F8F94F90D20637B43
:102EA000002A05DA03F07F036373204600F09DFEDD
:102EB0000B4D637BA86843F010036373031B5842F8
:102EC0005841FFF79DFE86F31188BFF36F8FAB6803
:102ED000A34203D1BDE8704000F0A5BE70BD00BFA5
:102EE0004803002010B54FF02003EFF3118483F363
:102EF0001288BFF36F8F084B9A68D37B0133D3736B
:102F00000020FFF77DFE84F31188BFF36F8FBDE8CB
:102F1000104000F088BE00BF48030020044B002191
:102F200003F12002C3E908220846FFF713BE00BFE1
:102F300048030020F8B54FF02003EFF3118583F329
:102F40001288BFF36F8F1A498868437B03F07F03B1
:102F5000437300F04AFE8B685A7B084662F07F029A
:102F60005A7350F8202F82421CD0DAB14F6A93F97D
:102F70000E6092F90E40A6420FD0A41B002C0CDD6F
:102F80005168C3E900210B6053600120FFF738FE50
:102F90002846BDE8F840FEF741B8BA4202D01268B0
:102FA000002AE6D14A6AC3E9000213604B62ECE7EB
:102FB0004803002050EA01032DE9F04105460E4682
:102FC00003D1FFF7B7FF002033E06FF00104241AAC
:102FD0004FF0FF3363EB0103012C73F1000302DABE
:102FE00000F0E5FE44194FF02003EFF3118883F35E
:102FF0001288BFF36F8F104F104BB8681860FFF73F
:10300000EDFEB8680E492A463346183000F0F2F853
:10301000BA68537B43F0100353734046FDF7FEFF3D
:1030200000F0C5FE201A63EB0303012873F10003CF
:10303000C9DBBDE8F08100BF480300207003002019
:10304000673C0000B1F1FF3F08BFB0F1FF3F08B59A
:1030500006D1084B9868FFF713FF4FF0FF3008BD0B
:10306000FFF7A8FF4FF47A7380FB0303C00B40EA1D
:103070004340F4E748030020014B9868704700BFC5
:10308000480300202DE9F04104464FF02003EFF300
:10309000118683F31288BFF36F8F437B1A0705D520
:1030A00086F31188BFF36F8FBDE8F08123F0200213
:1030B00042F00801D20920D14173A36813B1204620
:1030C00000F09BFD04F1180000F031FE04F15807F8
:1030D0004FF00008A56DBD4200D0B5B90120FFF743
:1030E0008FFD104B9B68A342DAD1EFF30583002BD1
:1030F000D6D13046FDF792FFD2E703F05F0343F0ED
:103100000803437300F071FDD7E7284600F075FD12
:1031100005F1180000F00BFEC5F878802846FFF78F
:1031200009FED7E74803002008B50648064A0749C4
:10313000121A00F0E7FABDE80840054A05490648BA
:1031400000F0E0BA0000002058000020D04100004C
:1031500000000000D041000000000020034B1B686D
:103160000BB9FFF7BFB80020704700BF7C030020F9
:10317000114B10B51C689C4208BF0024FFF7EEFFFE
:1031800003466CB1D4E90402C01A62EBE373012870
:1031900073F100020DDBB0F1004F73F1000301DBAE
:1031A0006FF00040054B1B6913B19842A8BF184649
:1031B00010BD0020F6E700BF3800002048030020C3
:1031C00030B5036868B10A4A5268904209D043B1E9
:1031D000D3E90421D0E90445121941EB0501C3E903
:1031E0000421426813605A600023C0E9003330BDF7
:1031F00038000020B3F1FF3F08BFB2F1FF3FF8B540
:1032000004461F46154667D081604FF02003EFF358
:10321000118683F31288BFF36F8F6FF00102531B87
:103220004FF0FF3C6CEB0703002B1BDB2B4BD3E970
:103230000013521A6CEB0303551B63EB0703012DBC
:1032400073F10002BCBF01250023C0E904532448E8
:10325000D0E9003C834218D1C4E9000CCCF800400E
:10326000446026E0FFF77AFF013547F100072D188B
:1032700047EBE077C4E90457E9E7521A65EB070525
:103280009C45C4E90425E7D01B68002BE4D0D3E9B2
:103290000417D4E904258A4275EB070EEDDA8A1A81
:1032A00067EB0505C3E904255A68C4E900321460D8
:1032B0005C60036883420BD09C4209D1FFF758FF42
:1032C00018B1084B1B69834202D00021FEF7D8FFDA
:1032D00086F31188BFF36F8FF8BD00BF580100203F
:1032E00038000020480300202DE9F8430546FFF789
:1032F000E1FC4FF02003EFF3118483F31288BFF356
:103300006F8F244EDFF890803560244DD8F8000090
:1033100032684045D5E9001E4FEAE2770BD050B144
:10332000D0E9043C9A4277EB0C0916DA9B1A6CEB55
:10333000070CC0E9043C52184EEB0707C5E900270B
:1033400000253560FFF714FF2946FEF799FF84F347
:103350001188BFF36F8FBDE8F88359184EEBE37700
:10336000D31A336000220023C0E90423C5E9001703
:10337000FFF726FF84F31188BFF36F8F83689847A8
:103380004FF02003EFF3118483F31288BFF36F8FA4
:10339000BCE700BF7C03002038000020580100205B
:1033A00010B54FF02003EFF3118483F31288BFF3BD
:1033B0006F8FFEF797FF054AD2E90031C01841F13F
:1033C000000184F31188BFF36F8F10BD58010020F6
:1033D0007047034658B1426802F00302012A03D045
:1033E000032A04D1026812B10020986070476FF080
:1033F000150070474268816002F00302032A4FF013
:10340000000203460CBF006810465A607047002057
:103410007047038B13F0070305D10368002B0CBF23
:10342000002003207047022B05D1438B002B14BFD3
:10343000002004207047012B05D10368002B0CBF2E
:10344000002005207047002070472DE9F0410D460F
:1034500007461946281D90461E46FFF7CBFF044637
:1034600038B13346424629463846A446BDE8F041C5
:103470006047BDE8F08110B44FF02004EFF31182F3
:1034800084F31288BFF36F8F416110BC0121FDF7F7
:103490001BB810B50C4640B139B1081DFFF799FFB4
:1034A00028B9A36833F0030301D06FF0150010BDF5
:1034B00038B50C46054658B151B10B6843B14B685D
:1034C00033B11C22002100F028F92C61002038BD06
:1034D0006FF01500FBE770B504460E46FFF7D9FF05
:1034E000051E31DB4FF02003EFF3118183F31288C7
:1034F000BFF36F8F638B208B4FF6FF75AB4200F0ED
:1035000007022ED0022A0ED1013363831546012310
:1035100081F31188BFF36F8FB3B10023314620468A
:10352000FFF793FF10E0830701D0062A0ED1002396
:103530003360636893B9C4E90066154662B90A4608
:1035400020460221FCF7C0FF284670BD052A0CBFAB
:103550006FF085056FF004050023D9E71E606660F3
:10356000EBE76FF00A05F7E7044608B50846114691
:103570001A46A047FFF780FDFDF738FF2DE9F84F09
:103580009A46D3786F2B80460F461546A3F1410B20
:1035900029D024D8582B14BF0A261026DDF82890ED
:1035A0003246002340463946FCF7AAFD092AD4B228
:1035B0001ED83034B045E4B277F1000309F8014D6C
:1035C00001D3D14511D82B789B0605D5082E15D1EE
:1035D000AB7843F00803AB704846BDE8F88F03F0C2
:1035E000F703702BD7E70826D8E780460F46D7E7C2
:1035F000BBF1190F94BF37345734DBE7102EEBD1F2
:10360000AB7843F01003E6E72DE9F0410746884622
:1036100015461E461446B442A4EB050002D33EB93B
:1036200023782BB114F8010B4146B8470028F2DA91
:10363000BDE8F08170470022C0E900228260704737
:1036400000F0ABBA0146006800F0A7BA00210120E3
:10365000FFF7F6BF08B5FDF7B9FCBDE80840FDF778
:1036600099BD30B50278202A034600F10100F9D057
:10367000A2F109010429F5D92B2A08D02D2A0ABF65
:10368000034600210121013B00200A2506E00346F4
:103690000021F8E7C2F1300205FB002013F8012FEA
:1036A000A2F13004092CF5D901B9404230BD0139ED
:1036B000034611F8012F0AB91A70704703F8012B5D
:1036C000F7E7034600201A5C02B970470130FAE7B9
:1036D000034600201A5C0AB1884200D170470130CD
:1036E000F8E710B503465AB10139841813F8010BF5
:1036F00011F8012FA34201D09042F7D0801A10BDDB
:103700001046FCE710B5431E0A44914200D110BD9B
:1037100011F8014B03F8014FF7E7C9B20244034621
:10372000934200D1704703F8011BF9E74FF0FF30D7
:103730007047FDF739BF84B004AB03E907009DF87B
:103740000430062B08D14FF080430122C3F8002536
:10375000BFF34F8F20BFFDE704B0704784B004ABC8
:1037600003E90700002383F31188BFF36F8F04B0D0
:1037700070470369C9B20C2201FB0233186C00F0D8
:10378000070070474FF02003EFF3118283F3128894
:10379000BFF36F8F036803F0C00343F002030360BD
:1037A00082F31188BFF36F8F7047034670B50069CD
:1037B000C9B24FF02004EFF3118684F31288BFF3EF
:1037C0006F8F0C2505FB0104246C14F0C00401D09C
:1037D000A24210D105FB010001220264002086F301
:1037E0001188BFF36F8F28B95B6803EBC1014B6889
:1037F0009847002070BD4FF0FF30F0E78022FFF7C0
:10380000D4BFF8B5069F04690546C9B24FF0200041
:10381000EFF3118C80F31288BFF36F8F0C2606FB39
:103820000146306C00F0070EBEF1010F11D1376474
:1038300000268CF31188BFF36F8F46B90C2000FB74
:103840000144C4E90E236B6853F831309847304681
:10385000F8BD00F0C000874214BF4FF0FF366FF094
:103860007706E6E713B580240094FFF7CAFF02B09D
:1038700010BD006910B4CBB21C2403FB040000216E
:1038800010BC1047002000F03EB90020FEF74CBEEF
:103890001046FFF701B943685B68D3F810350B6039
:1038A0000020704743685B68D3F8040542400A4033
:1038B0004240C3F804250020704743685B6800203D
:1038C000C3F80815704743685B680020C3F80C15FF
:1038D000704743685A68D2F804354B40C2F8043543
:1038E000002070470369586830B558B10024814200
:1038F00012D108689D6854B98D42586000D1986013
:10390000002008606AB9002030BD2846EFE78D42EC
:10391000206008BF9C60F3E705680446002DF4D1E1
:103920003AB198685A680A6059600028EBD19960EA
:10393000EAE76FF01500E7E770B50E461546014659
:1039400050B104688A682A4002D04B6830469847D4
:1039500014B121462468F5E770BD2DE9F0410769EF
:10396000D0F80480FC68D7E90532134324EA030445
:10397000012600250CB9BDE8F081264210D0396936
:1039800098F80830E94001F00101C1F1030105F0A8
:103990001F00C9B240EA4310FEF75EF824EA0604AD
:1039A00001357600E6E702690B46D2E9010183E8BA
:1039B00003000020704743681B68D3F88004C3F8F5
:1039C00080047047436802691B68D3F8100148B14E
:1039D000527C0A700020C3F81001D3F81021012294
:1039E0001A6070474FF0FF30704707B5019001A88B
:1039F000FEF7CEF9019B03F5E073890040F8231030
:103A000003B05DF804FB02680346D2F8580140B9E0
:103A10005B681B0706D4D2F82001003818BF0120CC
:103A200070470120704743681B68D3F80423D10511
:103A300018D5D3F82021AAB14FF02001EFF311825D
:103A400081F31288BFF36F8FD3F8201131B10021B9
:103A5000C3F82011D3F820110121D96082F3118815
:103A6000BFF36F8F42685268D20615D54FF0200120
:103A7000EFF3118281F31288BFF36F8FD3F85811DF
:103A800011B10021C3F800154FF48001C3F80813E9
:103A900082F31188BFF36F8F704710B50022044680
:103AA00001212820FDF77AFA2820FDF759FA20464F
:103AB000BDE81040FEF792BA10B50022044601217D
:103AC0000220FDF76BFA0220FDF74AFA2046BDE816
:103AD0001040FEF783BA704770474FF08053D3F819
:103AE0003001A0F10803584258417047004700F0E8
:103AF00062B908B50020FDF743FA18B9BDE80840DF
:103B0000FDF72EBA08BD10B101281DD070474FF047
:103B10008043D3F81824D3F81814C90312D502F03F
:103B20000302012A0ED1C3F818254FF0804300226A
:103B3000C3F80421D3F804210222C3F8042301228C
:103B40009A6070470022EEE74FF080430022C3F8EE
:103B50000021D3F80021C3F8040318607047FEF772
:103B6000DFBD08B5FFF7FBFF002008BD704738B187
:103B7000C3681888C0F30800A0F580735842584104
:103B800070474FF02002EFF3118382F31288BFF3E6
:103B90006F8FFEE708B5FFF7F4FFF8B505460E4650
:103BA0004FF02003EFF3118783F31288BFF36F8F79
:103BB000FFF762FA314604462846FFF7EBFF87F32A
:103BC0001188BFF36F8F2046BDE8F840FDF70EBCAB
:103BD000EFF30580003818BF0120704708B5FDF7E6
:103BE00037F9BDE80840FFF777BFD0E9003213602E
:103BF0005A600023C0E90033704708B5FFF7F5FFAE
:103C0000437B23F0020343730023836008BD034614
:103C100020B9EFF305820AB9FDF700BA83F31188E2
:103C2000BFF36F8F70474FF02003EFF3118083F3E2
:103C30001288BFF36F8FFFF7EABF03460068834225
:103C400008BF0020704710B54FF02003EFF3118438
:103C500083F31288BFF36F8FFFF76CF884F311883A
:103C6000BFF36F8F10BD10B501464FF02003EFF387
:103C7000118483F31288BFF36F8F10F80B3C13F09D
:103C8000280F0DD151F8103C18380BB1FFF7B5FFD4
:103C900011F80B3C23F0140301F80B3CFFF74AF832
:103CA00084F31188BFF36F8F10BD38B504460D46FD
:103CB000FFF794F8637B43F00203637395B12B68BD
:103CC000A5609D4215D0A3B194F90E1093F90E2072
:103CD000914208D0521A002A05DD5A68C4E9003220
:103CE00014605C6038BD6A68934202D01B68002B88
:103CF000ECD16B68C4E900531C606C60F2E738B526
:103D00004FF02003EFF3118583F31288BFF36F8F19
:103D1000FFF793FF044620B1FFF76FFF183000F064
:103D200006F885F31188BFF36F8F204638BD10B5B4
:103D30004FF02002EFF3118482F31288BFF36F8FEC
:103D400003683BB1FFF73CFA002084F31188BFF30E
:103D50006F8F10BD6FF01500F7E710B54FF020031F
:103D6000EFF3118483F31288BFF36F8FFFF700FA2C
:103D700084F31188BFF36F8F10BD70B504460D46F4
:103D80004FF02003EFF3118683F31288BFF36F8F98
:103D9000FFF7EEF9012805DDA04203DB29462046A6
:103DA000FEF76EFA86F31188BFF36F8F70BD08B50A
:103DB000FFF7F6FA08BD08B1FDF72CBC7047704755
:043DC000FEF7B8BA98
:083DC4006CC3FF7F0100000049
:103DCC00E515000000000000633B0000000000004F
:103DDC009D160000143E00009B3A00002C3E000093
:103DEC00B93A0000443E0000352200005C3E000061
:103DFC00691900008C3E000069190000743E000037
:083E0C00111900000000000084
:103E14007F410000984000008440000040000020E2
:103E24009001002044400000934100002041000024
:103E3400F04000004C000020200000203C40000026
:103E44009A41000004410000F040000050000020AE
:103E54000C00002034400000A141000000000000DC
:103E6400000000005400002000000000304000006A
:103E74008C410000D8400000B440000048000020FD
:103E8400EC0100202A40000085410000E4400000CD
:103E9400B440000044000020080200202440000038
:103EA400A1250000ED3A0000000000004D3600009E
:103EB400443E0000273A0000000000004D36000098
:103EC400000000004D360000000000004D360000E8
:103ED40000000000151B0000000000004D3600002B
:103EE400000000004D360000000000004D360000C8
:103EF400000000004D360000000000004D360000B8
:103F0400000000004D360000000000004D360000A7
:103F1400000000004D360000000000004D36000097
:103F2400000000004D36000000000000D521000014
:103F3400000000004D360000000000004D36000077
:103F4400000000004D360000000000004D36000067
:103F5400000000004D360000000000004D36000057
:103F6400000000004D360000000000004D36000047
:103F7400000000004D360000000000004D36000037
:103F8400000000004D360000000000004D36000027
:103F9400000000004D360000000000004D36000017
:103FA400000000004D360000000000004D36000007
:103FB400000000004D360000000000004D360000F7
:103FC400000000004D360000000000004D360000E7
:103FD400000000004D360000000000004D360000D7
:103FE4002C3E0000273A0000000000004D3600007F
:103FF400000000004D360000000000004D360000B7
:10400400000000004D360000000000004D360000A6
:10401400000000004D360000000000004D36000096
:10402400FF7FFF7FFF7FFF7FFF7FFF7FFF7FFF7F9C
:10403400FF7FFF7FFF7FFF7FFF7FFF7FFF7FFF7F8C
:08404400FF7FFF7FFF7FFF7F7C
:04404C00FFFFFFFF74
:104050000338FDD870470000000000200000000079
:1040600000000B06020000006C4000000000000091
:104070007041000026000207000000207841000087
:1040800022000B11B1170000FD3700006538000059
:1040900000000000733700004D170000E517000016
:1040A000853800008B3800005916000029160000E2
:1040B000000000009919000097380000A5380000A2
:1040C000BB380000C7380000D3380000DD1B0000FB
:1040D000E538000000000000FFFFFFFF0000005077
:1040E00000000000FFFF000000030050010000007E
:1040F000C5390000191F0000B7390000AD1D0000D0
:10410000A7390000002000400B000000060000005E
:104110000800000007000000050000000303000085
:104120000080024008000000220000002100000082
:10413000FFFFFFFFFFFFFFFF03000000CC3D00007B
:10414000F43D0000FC3D0000143E0000143E000061
:10415000F5FFFFFF7B696E69747D00626175643AEB
:10416000007B6368616E67657D00286E696C29005D
:10417000464C4153485F30005352414D5F3000433D
:104180004C4F434B004750494F5F31004750494F18
:104190005F3000554152545F3100554152545F30F9
:1041A000007379735F636C6F636B00000000000144
:1041B000010100000000005465726D696E616C00C1
:1041C00052545400534547474552006D61696E0093
:1041D0000F340000010000002D3700000000000037
:1041E00000C2010000010300000000000000000008
:1041F0000000000000C201000001030000000000F8
:10420000000000000090D00338000020380000209B
:10421000000000000000000000000000000000009E
:08422000000000000000000096
:04000003000013BD29
:00000001FF
