:10000000600B002099130000F93600006D1300000A
:100010006D1300006D1300006D1300000000000060
:10002000000000000000000000000000811000003F
:100030006D130000000000002D100000CB3A0000FE
:1000400031110000311100003111000031110000A8
:100050003111000031110000311100003111000098
:100060003111000031110000311100003111000088
:100070003111000031110000311100003111000078
:100080003111000031110000311100003111000068
:100090003111000031110000311100003111000058
:1000A0003111000031110000311100003111000048
:1000B0003111000031110000311100003111000038
:1000C0003111000031110000311100003111000028
:0C00D0003111000031110000311100005E
:1000DC0053B94AB9002908BF00281CBF4FF0FF31A3
:1000EC004FF0FF3000F074B9ADF1080C6DE904CE9F
:1000FC0000F006F8DDF804E0DDE9022304B07047F7
:10010C002DE9F047089E0D4604468846002B4DD13C
:10011C008A42944668D9B2FA82F252B101FA02F3D9
:10012C00C2F1200120FA01F10CFA02FC41EA0308A9
:10013C0094404FEA1C45210CB8FBF5FE1FFA8CF7D6
:10014C0005FB1E8341EA03430EFB07F199420BD9D1
:10015C001CEB03030EF1FF3080F01E81994240F23C
:10016C001B81AEF1020E63445B1AA4B2B3FBF5F033
:10017C0005FB103344EA034400FB07F7A7420AD9F6
:10018C001CEB040400F1FF3380F00881A74240F21D
:10019C00058164440238E41B40EA0E4000211EB184
:1001AC00D4400023C6E90043BDE8F0878B4208D950
:1001BC00002E00F0EE800021C6E900050846BDE8DF
:1001CC00F087B3FA83F100294AD1AB4202D38242C1
:1001DC0000F2F980841A65EB030301209846002E87
:1001EC00E2D0C6E90048DFE702B9FFDEB2FA82F2DC
:1001FC00002A40F09180A1EB0C054FEA1C471FFA36
:10020C008CFE0121B5FBF7F307FB1350250C45EAD7
:10021C0000450EFB03F0A84208D91CEB050503F1C1
:10022C00FF3802D2A84200F2CB8043462D1AA4B26A
:10023C00B5FBF7F007FB105544EA05440EFB00FE36
:10024C00A64508D91CEB040400F1FF3502D2A645E3
:10025C0000F2BB802846A4EB0E0440EA03409EE764
:10026C00C1F120078B4022FA07FC4CEA030C20FA60
:10027C0007F405FA01F31C43FD404FEA1C4900FA50
:10028C0001F3B5FBF9F8200C1FFA8CFE09FB18558D
:10029C0040EA054508FB0EF0A84202FA01F20BD920
:1002AC001CEB050508F1FF3A80F08880A84240F26B
:1002BC008580A8F1020865442D1AA4B2B5FBF9F0AB
:1002CC0009FB105544EA054500FB0EFEAE4508D966
:1002DC001CEB050500F1FF346CD2AE456AD902382F
:1002EC00654440EA0840A0FB0294A5EB0E05A5422C
:1002FC00C846A64656D353D05EB1B3EB080265EBA5
:10030C000E0505FA07F722FA01F3CD401F43C6E9A3
:10031C0000750021BDE8F087C2F1200320FA03F13B
:10032C000CFA02FC25FA03F395400D434FEA1C47E7
:10033C001FFA8CFEB3FBF7F107FB11302B0C43EAD1
:10034C00004301FB0EF0984204FA02F408D91CEBAE
:10035C00030301F1FF382FD298422DD9023963449F
:10036C001B1AADB2B3FBF7F007FB103345EA03459C
:10037C0000FB0EF3AB4208D91CEB050500F1FF386E
:10038C0016D2AB4214D902386544ED1A40EA014149
:10039C0038E73146304607E78646E5E61846FAE682
:1003AC004B45A9D2B9EB020864EB0C0E0138A3E75C
:1003BC004046EAE7204694E74146D1E7D0467BE742
:1003CC00023B654432E7084609E76444023842E7D9
:1003DC00704700BF2DE9F04395B0284DAB681B6901
:1003EC0013B102A9284698472548244EDFF894807B
:1003FC00DFF8949001F0CCF80024AF683B68002B38
:10040C00FCD00DF10701304698470028F6D19DF835
:10041C000700022103F0D9F99DF807307B2B03D19B
:10042C0000248DF81040E8E77D2B1ED105224146B3
:10043C0004A803F0A2F90028DFD10DF1150003F098
:10044C005CF9041EECDD4FF47A7003F081FC02942D
:10045C00FB6813B102A9304698474FF47A7003F049
:10046C0077FC484601F094F8DAE73E2CC5D804F145
:10047C0050026A44013402F8403CBEE7C43D00001F
:10048C003C4000004340000049400000014B186014
:10049C00704700BF000000202DE9F84FB0F818900D
:1004AC0019F00808044693460DD001290CBF49F0F9
:1004BC00100949F02009A0F818908BF31188BFF3AC
:1004CC006F8FBDE8F88F09F00709022907D1204684
:1004DC0002F0EBFF0028F0D00128238B4ED1676986
:1004EC00218B002F15DA256821F00701C4E900885B
:1004FC0041F0010121830026218B01F0070ACA4536
:10050C0002D0A368002B5AD10DB9002E71D0002354
:10051C0056E001F007035A1F012A1ED821F00701EB
:10052C00062B256889B2C4E900880AD13DB1638BDA
:10053C002A46126801339BB2002AFAD1638341F038
:10054C0002012183204602F0B0FF06460028D3D0DA
:10055C00238B43F020032383CDE7042B0CD121F014
:10056C00070189B22183204602F09FFF054600282F
:10057C00C1D041F0200121830025BCE7032809D11B
:10058C00226923F00703166843F006032383002532
:10059C002F46B1E7042806D1226923F007035668D9
:1005AC0043F00403F2E7052806D1226923F0070380
:1005BC00966843F00503E9E700252E46E8E701239A
:1005CC0041F0080121838BF31188BFF36F8FFBB9C6
:1005DC0085BB16B11F492046B0474FF02003EFF3FF
:1005EC00118B83F31288BFF36F8F238B23F00803D7
:1005FC002383238BDA0625D523F0100323830121D3
:10060C00B4F8189009F0070900297FF45EAF54E79D
:10061C00A1680029DCD0D1F80090D1F804B03B4699
:10062C0052462046D847B9F1000FD1D04946D9F8E7
:10063C000090F2E729463B46524620462D6802F0D0
:10064C0050FFC5E713F020011EBF23F020032383C6
:10065C000221D5E71B3500002DE9F04F91B08B46F8
:10066C00029092461C4600259AF8000008B92846CC
:10067C005FE325280AF1010707D0029B59469847EA
:10068C000028C0F25683013512E2182200210AA874
:10069C0003F08FF89AF80130252B78D00022104601
:1006AC00964694461646394617F8013B2B2B00F01C
:1006BC009D8000F29480202B00F09B80232B00F077
:1006CC009B802EB19DF8306046F004068DF83060AA
:1006DC00BCF1000F05D09DF8306046F008068DF88F
:1006EC003060BEF1000F05D09DF8306046F010066A
:1006FC008DF8306028B19DF8300040F020008DF866
:10070C0030002AB19DF8302042F040028DF83020A4
:10071C009DF8302002F04400442803D16FF3861278
:10072C008DF830209DF830202A2B42F080028DF875
:10073C0030207BD19DF8312042F001024B1C8DF80A
:10074C0031201A782E2A9DF831200CBF012100216E
:10075C0061F341028DF8312074D15A782A2A6AD07B
:10076C00013300210A26184610F8012BA2F130079C
:10077C00092F40F28E809DF830200E91C2F340007C
:10078C0040EAD17161F341028DF830205AE00AF150
:10079C0002078DF833309DF83130D90740F149818B
:1007AC0054F8049BB9F1000F07DA9DF8302042F0A1
:1007BC0004028DF83020C9F100095A0740F142813A
:1007CC0054F8048BB8F1000F80F241819DF8313060
:1007DC006FF341038DF831304FF0FF3837E12D2B9B
:1007EC000CD0302B7FF46DAF01225CE74FF0010C85
:1007FC0059E74FF0010E56E7012054E7012652E766
:10080C000CFB0202303A33461E4616F8010BA0F1DF
:10081C003007092FF4D9994293D09DF830100D92DE
:10082C00D20F62F341018DF830108AE70B4600229B
:10083C004FF00A0CE8E79DF8312042F004028DF8E5
:10084C00312002331F4617F8012B6C2A41D025D8D2
:10085C00682A2BD06A2A46D04C2A4CD01F4617F84F
:10086C00012B9DF831308DF83320782A00F2D98095
:10087C00572A4DD8412A03D0453A022A00F2D1809A
:10088C009DF83230042262F302038DF832300123DA
:10089C009EE006FB01213039034664E7742A26D01A
:1008AC007A2ADBD19DF8313006220DE05A78682A7D
:1008BC009DF8312006D1012161F3C6028DF831205B
:1008CC009F1CCCE71346022262F3C6038DF831302D
:1008DC00C5E75A786C2A9DF8312001D10421EBE749
:1008EC0013460322F0E79DF831300522ECE79DF822
:1008FC0031300722E8E7BDF8303023F4F04323F021
:10090C00020343F4804343F00203ADF83030A6E712
:10091C00A2F15801202900F2848001A050F821F0A6
:10092C00F10900002F0A00002F0A00002F0A000016
:10093C002F0A00002F0A00002F0A00002F0A0000C7
:10094C002F0A00008D0800002F0A0000F10900009A
:10095C00B10900008D0800008D0800008D08000012
:10096C002F0A0000B10900002F0A00002F0A000016
:10097C002F0A00002F0A0000F9090000F1090000FD
:10098C00150A00002F0A00002F0A0000150A0000AB
:10099C002F0A0000F10900002F0A00002F0A0000A6
:1009AC00F10900009DF83210012003F0780360F388
:1009BC000201402B8DF8321002BF9DF8301041F02F
:1009CC0001018DF83010632A31D1003B18BF01238F
:1009DC009DF83020C2F340010B4363F341028DF8C4
:1009EC003020D8E69DF832100220DEE79DF8322048
:1009FC0003F07803A3F14000032161F302024342A8
:100A0C008DF832204341E3E79DF83220032113F0A7
:100A1C00780F61F302028DF8322014BF01230023FA
:100A2C00D6E79DF8303043F001038DF830300023C9
:100A3C00CEE79DF93020002AB4BFDDF834904FF09A
:100A4C00FF39BAE69B077FF5C7AEDDF838809DF815
:100A5C0031100023CDE90D339DF8323003F007033C
:100A6C00012BC1F3C30138D1CB1E042B22D8DFE8F4
:100A7C0003F003090921210054F8043BDA17CDE9EE
:100A8C000A3206E0073424F00704F4E80223CDE927
:100A9C000A239DF8303013F0030656D002983B46DB
:100AAC005246594602F0FCFD0028C0F24281054432
:100ABC00BA46D9E554F8043B01294FEAE372CDE973
:100ACC000A3205D19DF828300A9300230B93E0E7F6
:100ADC000229DED1BDF92830D0E7022B23D1CB1E61
:100AEC00042B13D8DFE803F0030A0A121200226861
:100AFC000A920023201D0B930446CAE7E01D20F048
:100B0C000700F0E80223CDE90A23F5E754F8043B8B
:100B1C000A9301294FF000030B93D3D00229B8D1CB
:100B2C00BDF82830D0E7042B09D1E31D23F00703CF
:100B3C0003F10804D3E90023CDE90A23A9E7032B29
:100B4C0004BF54F8043B0A93A3E79DF833007828BC
:100B5C00AED8622822D825283FF48FAD5828A7D1CB
:100B6C000DF126030093DDE90A0104AB0CAA02F097
:100B7C0051FD8246B8F1000F0DF126000CDB9DF8FB
:100B8C003020A0EB0A036FF3861298458DF83020C5
:100B9C0002D9A8EB03030D9380463DE0633815287A
:100BAC0086D801A252F820F0350C0000990C0000F8
:100BBC00BD0A0000BD0A0000BD0A0000BD0A00000D
:100BCC00990C0000BD0A0000BD0A0000BD0A00001F
:100BDC00BD0A0000F30C0000C10C0000C50C0000A5
:100BEC00BD0A0000BD0A00000D0C0000BD0A00008B
:100BFC00C10C0000BD0A0000BD0A0000C10C0000C1
:100C0C00B8F1000FDDF828A00ADB4146504602F08F
:100C1C00ABFD0AEB00080026BAF1000F0CD147E738
:100C2C00504602F09AFDF4E70A9B8DF8103000262E
:100C3C000DF1100A0DF11108A8EB0A0306B10133EE
:100C4C009DF83220D00668D5023352060D9948BF64
:100C5C000E9A0B4448BF9B18B9F1000F76DD9DF836
:100C6C003020A9EB0309C2F38003039353076DD41F
:100C7C00500661D546B1029B59463046984700282C
:100C8C0057DB039B01351E46302356E01E070FD45D
:100C9C0013F0100618BF2026DDE90A23002BBFF63F
:100CAC005FAF524263EB4303CDE90A232D2657E78E
:100CBC002B26F1E7002653E70A9840B30DF12603E3
:100CCC0000930CAA04AB002102F0A4FCBDF8323056
:100CDC0003F0EF0343F4F04343F010038246ADF806
:100CEC003230002646E70A9B07293FF6E1AEDFE8E3
:100CFC0001F00C04060C08080C0C1D70D8E61D80C5
:100D0C00D6E6EA17C3E90052D2E61D60D0E6DFF85A
:100D1C00C8A006460AF105088EE7110748BF013343
:100D2C0093E7184603935946029B98470028039B68
:100D3C0004DA11B0BDE8F08F20234D444A46002A56
:100D4C00A5EB090109F1FF39EBDC0D4636B1029B2D
:100D5C005946304698470028EBDB01359DF8323078
:100D6C00D90601D41A0706D5029B5946302098475C
:100D7C000028DEDB01359DF83230DB0607D59DF807
:100D8C003300029B594698470028D2DB01350D9E53
:100D9C002E44731B002B16DC0298434652465946D0
:100DAC0002F07EFC0028C4DB0544A944A9EB050332
:100DBC00002B7FF77DAE029B5946202098470028D8
:100DCC00B7DB0135F2E7029B5946302098470028E3
:100DDC00AFDB0135DDE700BF52400000F8B505463A
:100DEC004FF02003EFF3118683F31288BFF36F8F5C
:100DFC00094B1C685CB1094FD4E90132002D08BFC6
:100E0C0013460BB1387898472468002CF4D186F33C
:100E1C001188BFF36F8FF8BD4801002050010020EE
:100E2C001FB50F4B1A68BAB901221A600D4A07CACE
:100E3C0001AB83E807000C4A4AB193E8070002F0C3
:100E4C00D9FC002005B05DF804EBFFF7C7BF82F3B7
:100E5C001188BFF36F8FF4E705B05DF804FB00BF9A
:100E6C00040000205001002001380000F0B589B0CA
:100E7C006E4601460546304602F029FC96E807000E
:100E8C00174C84E807002078274638B3154B00210F
:100E9C0019606B1C0DD0144816464FF4004C134AC5
:100EAC000023E6FB0C01FFF713F90121281A02F0CD
:100EBC0031FF01F0DDFE0120FFF790FF97E80700FE
:100ECC0005AB83E807000A4A1AB193E8070002F061
:100EDC007EFCFFF7A5FF02F051F8207809B0F0BDB9
:100EEC0050010020040000203F420F0040420F0040
:100EFC00DB370000014910220A60704710ED00E05A
:100F0C0072B6404080F31188BFF36F8FBFF34F8FE1
:100F1C0030BF62B6BFF36F8F704700BF72B64940E7
:100F2C0081F3118820BF80F3118862B6704700BF2F
:100F3C0043B2002B08DB012200F01F0002FA00F084
:100F4C005B09024A42F82300704700BF00E100E051
:100F5C00054B420900F01F0053F82220012303FA2D
:100F6C0000F01040704700BF00E100E043B2002BDE
:100F7C00A8BF03F1604301F10101B8BF064B4FEA72
:100F8C004111ACBF03F5614300F00F00C9B2B4BF0F
:100F9C00195483F80013704714ED00E030BFFFF7CD
:100FAC00FDBF00BF0F4A08B50F4B22F07F029A60BD
:100FBC00BFF34F8FBFF36F8FD3F8882022F47002EA
:100FCC00C3F88820EFF3148323F0040383F314880D
:100FDC00BFF36F8F01F08CFC02F0F2F800F0CAF94D
:100FEC0001F090FC0000000000ED00E0094A0A4905
:100FFC00936809689967094958674B6843F08053AF
:10100C004B60002383F31188BFF36F8F9368986F45
:10101C00704700BF040300203840000000ED00E0E2
:10102C0012498A684FF030001044EFF3098C80E8C5
:10103C00F01F202080F31288BFF36F8F0C4F4FF0FE
:10104C000066CA698A603E60506F0023536780F364
:10105C00118804B5104600F0CFF9BDE8044002F148
:10106C00300090E8F01F8CF30988704704030020CF
:10107C0004ED00E01EF0040F0CBFEFF30880EFF35B
:10108C000980816911F8021C0229FFD001B502F018
:10109C0025FB01BD42F8203C009B42F81C3C0A4950
:1010AC00019B42F8183C029B42F8143C21F00101D0
:1010BC004FF0807342F8043C42F8081C0023203A9D
:1010CC0002654367704700BF0D360000094A0346AE
:1010DC00906870B113F1160F406E05D0A0F120028C
:1010EC009A4205D8834203D2814228BF0020704720
:1010FC00002070470403002008B5094B98600D468A
:10110C00144600F079F9204685F30988002163B66E
:10111C0081F31188BFF36F8F0022002302F070FA65
:10112C000403002001B572B60B4A906900281EBF5B
:10113C000021916102F01FFD62B6EFF30580A0F172
:10114C0010004FEAC0000549014409C99847BDE8A1
:10115C000140034908470000040300200C3E000036
:10116C0071110000044B9968D869884203D0034977
:10117C004FF080520A6070470403002004ED00E039
:10118C0038B5194B14469A6A9A6A9A6A05469007BA
:10119C0019D5586B9A6A120615D519B19A6A22F0AC
:1011AC0080029A629A6A9A6A9A6AD1060ED49B6AEB
:1011BC009A070BD400200C4A936A43F0FF03936206
:1011CC000023237038BD6FF01500EBE7064B5B680E
:1011DC001B05EFD52946FFF779FF0028EAD080F3ED
:1011EC0009880220E7E700BF00ED00E00D4B9A6A8A
:1011FC009A6A9A6A920508D59A6B9A6A120404D56F
:10120C0018B19A6A22F400429A62064B9A6A9A6A58
:10121C00D20558BF9A6A9A6A002042F47F429A62B9
:10122C000870704700ED00E070B5484B5B688AB001
:10123C000D46C3F30803002686F31188BFF36F8FA6
:10124C0002F07F41B1F17F4F11D102F00C0108295E
:10125C000DD0110701D4054601260022033B8DF861
:10126C000720032B6BD8DFE803F00455595D354696
:10127C00F3E7364BDC6A14F0020460D1DA6A002A18
:10128C0015DBDA6A520012D5AA6932F8021C4DF647
:10129C00027291420AD093F828200AB30DF107028A
:1012AC0001212846FFF76CFF044600E02C689DF8EE
:1012BC0007309BB92022294602A802F06FFA099B3D
:1012CC00002E3ED0C3F3080222B96FEA53236FEA13
:1012DC004323099302A9204602F0FEF90AB070BD1F
:1012EC0093F829202AB10DF107010120FFF77EFFA9
:1012FC00DAE75A8D92B2002AD9D09A6A9A6A9A6A17
:10130C009A6A9A6A9A6A9A6A6FEA02426FEA124277
:10131C009A62CCE70DF107020021C2E70DF107013B
:10132C000020E3E7094B9A6A9A6A9A6A9A6A9A6A5F
:10133C009A6A9A6A6FEA02426FEA12429A6200242F
:10134C00B5E723F4FF7323F00103C2E700ED00E0DF
:10135C00024A536943F010035361704700ED00E0FB
:10136C00EFF30880EFF3098101B57246FFF75CFFDC
:10137C0001BD00BF044800232021C2180133272BD4
:10138C0082F80013F9D1704700E100E002F0E6FCAE
:10139C00202080F3118808484FF40261401880F334
:1013AC000988EFF314800221084380F31488BFF3FB
:1013BC006F8FFFF7F7FD0000E00C0020064B9B68D9
:1013CC00834207D1EFF3058323B1044A536843F0FA
:1013DC008053536001F0A2BE0403002000ED00E036
:1013EC00024B034A0348012100F06EB800000120B3
:1013FC0000000020683F0000426E054B203A1A6046
:10140C00044A2021C3E901121846012100F066B8F4
:10141C005C01002000000B15F0B51F4F00268E421A
:10142C0001DB1046F0BD44689CB353B104F1FF3CA2
:10143C0014EA0C0F18D11F2C16D905681CEA050FDD
:10144C0012D1202C0568D0F808C0D2B20FD9B4F153
:10145C00004F0ED8013CB4FA84F4C4F11F046400AC
:10146C00072A4CEA040406D96FF01502D9E70824C0
:10147C00F6E73E24F4E725F01F05154345F010056B
:10148C0044F00104C7F89820C7F89C500132C7F803
:10149C00A04001360C30C2E700ED00E0044B052201
:1014AC00C3F89420BFF34F8FBFF36F8F704700BF0B
:1014BC0000ED00E0BFF35F8F024B0022C3F89420D5
:1014CC00704700BF00ED00E010B5034C01232278FB
:1014DC00FFF7A2FF207010BD3C03002008B5094A9D
:1014EC0000231278FFF798FF10F1160F02D0064A6E
:1014FC00072800DD08BDC2F89800C2F8A030013002
:10150C00F6E700BF3C03002000ED00E0144908683A
:10151C00082810B521D8FFF7CDFF124C49680022DE
:10152C00904201F10C0105D10F4B1870FFF7B6FF7B
:10153C00002010BDC4F8982051F80C3C23F01F0378
:10154C00134343F01003C4F89C3051F8043C43F0AF
:10155C000103C4F8A0300132E2E74FF0FF30E8E7B6
:10156C00743F000000ED00E03C030020014B1860CC
:10157C00704700BF080000200239012902D8034B34
:10158C001B6818474FF0FF30704700BF0800002061
:10159C000FB407B504AB022153F8042B0448019394
:1015AC00FFF75AF803B05DF804EB04B0704700BFC6
:1015BC00D73700004FF02003EFF3118283F312882A
:1015CC00BFF36F8F06490123C1F840354FF08041BE
:1015DC00C1F8783582F31188BFF36F8F0020704704
:1015EC0000E0014020B1034B800143F00103184798
:1015FC00704700BF603F0000084B70B5C31A0D4622
:10160C0007499B10044659430648402202F019F939
:10161C002B4601462046BDE8704018477801002053
:10162C00B76DDBB6AC3D000073B50C4C0C4A4023D7
:10163C00041B00930D460B460A49A4106143064651
:10164C00094802F02AF9011E05DA30462B4602B091
:10165C00BDE87040184702B070BD00BF7801002093
:10166C0017390000B76DDBB6AC3D0000002270B539
:10167C00012104461046FFF779FC0020FFF758FCC7
:10168C000F4800F045FF0F4B984215D102F02AFA93
:10169C0026690D49304601F057FF00280BDB246901
:1016AC0009490125356404F11C0001F04DFF0028A7
:1016BC0001DBE564002070BD6FF00400FBE700BFA8
:1016CC000D1700000000AD0BB83F000001460C23C5
:1016DC0009484B4370B5C418D4E90E560022403368
:1016EC00A263184402F09AF82DB132462B460348F7
:1016FC00BDE87040184770BD78010020AC3D00007B
:10170C0010B1012804D07047034B1B6C5B0701D14F
:10171C00FFF7DCBF704700BF7801002008B54FF021
:10172C002003EFF3118183F31288BFF36F8F124AFA
:10173C00136843F0020013F0010310600CD04FF05B
:10174C008042D2F80C34D2F80C2413F0010303D0ED
:10175C000A4802F063F8012381F31188BFF36F8FFD
:10176C0023B1BDE808400020FFF7B0BFBDE808403A
:10177C00012000F0DDBE00BFC8010020B801002030
:10178C001FB500220123CDE90223094ACDF800D070
:10179C006B46CDF804D002F0B1F8002805DB4FF40D
:1017AC0080420023684601F0E3F905B05DF804FBC4
:1017BC002F39000010B5074C23782BB94FF4A570C6
:1017CC0002F0C6FA01232370BDE81040002000F09F
:1017DC00AFBE00BF3D030020094BBFF35B8F53E846
:1017EC00002F22F0020143E800100028F7D1BFF3CC
:1017FC005B8FD30702D4012000F0E2BE704700BF1C
:10180C00C80100202DE9F0413949BFF35B8F074631
:10181C00012251E8003F41E800200028F9D1BFF334
:10182C005B8F33B9334934484B60CB608A6001F02D
:10183C009EFE7B1E012B2FD8012F07D14FF080432A
:10184C00D3F81C3403F00303012B25D002F08DF9DF
:10185C00044618B9294B1B78002B41D14FF02003BB
:10186C00EFF3118683F31288BFF36F8F0124DFF837
:10187C0090804FF08045D5F81834D5F81824D20351
:10188C000CD503F00303012B01D0012F06D10CB3AF
:10189C0086F31188BFF36F8FBDE8F081ACB1304691
:1018AC00FFF73CFBD5F81835002BE4D1D5F8042113
:1018BC00002AE0D0C5F80431D5F804310123C5F86D
:1018CC001835C8F88031AB60D5E70021212001F034
:1018DC0005FCE7E74FF080430222C3F80423DBE763
:1018EC004FF080430222C3F808230646BFE700BF2F
:1018FC00CC01002068010020940100204F0700203B
:10190C0000E100E008B5084B0848186002F0FCF84C
:10191C0038B10748FFF72AFE0548FEF7B7FD00204F
:10192C0008BD6FF01200FBE7D0010020C43D0000A1
:10193C00411900000A2838B5074D044604D128681F
:10194C0083680D215B68984728688368E1B25B68FF
:10195C009847204638BD00BFD001002008B5094B80
:10196C001A786AB90121197006200521FFF7FEFAD1
:10197C000620FFF7DDFA044B4FF00042C3F80423B6
:10198C00002008BD3E03002000600040F7B517465C
:10199C0042680669127A01F01F04B7F5A03F0D46A4
:1019AC0044EA42140CD104F01F0202F5E0724FF02D
:1019BC00A04151F82220D00707D56FF085009AE09E
:1019CC00B7F5005FF16800F09880F2680121A9403A
:1019DC0011437269F1600121A940B7F5A03F0CBF1A
:1019EC000A438A437261B269B3F5C02F0CBF0A4334
:1019FC008A43B2613269B3F5802F0CBF114322EADE
:101A0C0001014A4A3161D2F804330020DBB200F5FF
:101A1C00A27152F82110C1F304218C4272D123FA25
:101A2C0000F1C9076ED5830003F1804303F5C04371
:101A3C00D3F8101521F00101C3F8101501238340D0
:101A4C00C2F80833C0B200F02BFE2046002101F092
:101A5C006BFFF068E84010F001004CD07069E84072
:101A6C0010F0010255D0B369EB40DB075FBF316961
:101A7C0021FA05F505F00105C5F102050DF1070088
:101A8C0054BFEDB2032500F02BFE294B98423DD1FB
:101A9C009DF80720930003F1804303F5C043240213
:101AAC00D3F8101521F4473121F44071C3F8101507
:101ABC00D3F8101504F4F8540C4344EA0545C3F864
:101ACC001055930003F1804303F5C24300201860C6
:101ADC009DF807101B688B0003F1804303F5C0438E
:101AEC00D3F8102542F00102C3F810250F4A012348
:101AFC008B40C2F8043303B0F0BD0122AA4021EAA6
:101B0C00020166E70130082881D19EE76FF01200D0
:101B1C00F1E73169E94001F00101C1F1030120460F
:101B2C00C9B201F001FF1046E5E700BF00600040BC
:101B3C000000AD0B2A4B70B546682A48134083420F
:101B4C003ED00DD8062B15D005D89BB1022B39D021
:101B5C006FF0150033E0B3F5801FF9D1012309E0D4
:101B6C002148834230D0B3F5A00F2FD0B3F5800FAE
:101B7C00EED10223D00654BFC2F34015032582F4E4
:101B8C00807412F4007FC2F34020C4F3002407D009
:101B9C0012F4006F76681BD001228A40C6F8082523
:101BAC0040EA440201F01F0142EA032301F5E0710F
:101BBC004FF0A04243EA850342F82130002070BD6B
:101BCC000723D7E70423D5E70523D3E70323D1E77E
:101BDC00520542BF01228A40C6F80C25E0E700BF3F
:101BEC000600F00006001000020040002DE9F8434A
:101BFC00414BD3F87C51002D59D0404B4FF0A049AC
:101C0C00D3E90521DF68D9F810451B690A4327EA97
:101C1C0002075C4027EA04043A4601264FF000080C
:101C2C0082BB354BC3F87C21D3F87C31344A324823
:101C3C00002301261F46D0F8041306FA03FC1CEA05
:101C4C00010F0CD0116851B103F5A27150F821109D
:101C5C001760C1F3042106FA01F10C43116801333A
:101C6C00082B02F10402E6D11CBB4DB1234ED6E980
:101C7C000531F2680B4322EA0302012400254ABB1A
:101C8C00BDE8F88316420ED03E4208F01F0008BF94
:101C9C0000F5E0734FF0000108BF59F8233001F054
:101CAC0043FE22EA060208F101087600B8E72C464A
:101CBC00BCE7124B59680029D7D00E68114F8A68BF
:101CCC00224002D04B6838469847002ECDD0314682
:101CDC003668F4E714420CD03169E94001F0010197
:101CEC00C1F10301C9B205F01F0001F01DFE22EA8B
:101CFC00040201356400C2E700600040D4010020FA
:101D0C0000610040F43D000070B54B79012B24D1EB
:101D1C008B79032B21D1CC792CB1012C1DD14368AB
:101D2C005B689B0719D00A7912B1022A15D10E22D1
:101D3C000B684568B3F5164F2D6862D02BD8B3F5F8
:101D4C00165F61D014D8B3F5966F5FD008D8B3F591
:101D5C00967F5ED0B3F5167F5ED06FF085004FE0B6
:101D6C00B3F5166F5BD0B3F5965FF6D1364B3CE00E
:101D7C00B3F5E14F56D007D8B3F5615F54D0B3F546
:101D8C00964FEAD1314B30E047F61226B342E4D1FC
:101D9C004FF4000329E0B3F5613F47D013D8B3F5F6
:101DAC00963F46D009D84DF6C026B34243D0B3F582
:101DBC00614FD2D14FF46B0317E0B3F5E13FCCD1B7
:101DCC004FF0EB7311E0B3F5612F37D008D8204EEC
:101DDC00B34236D0B3F5E12FBFD14FF0E86304E046
:101DEC001C4EB342B9D14FF08053C5F8243503696A
:101DFC0003C922430433C5F86C2583E80300002093
:101E0C0070BD4FF41D03F0E7134BEEE74FF49E2328
:101E1C00EBE74FF4A033E8E74FF41C33E5E74FF45E
:101E2C001D23E2E70D4BE0E70D4BDEE74FF06C7343
:101E3C00DBE70C4BD9E74FF46503D6E74FF0706343
:101E4C00D3E74FF08063D0E700B0130000A04E0042
:101E5C0090D0030040420F000050270000C07500D6
:101E6C0000F03A0000903A01F8B5066905460F46B5
:101E7C0001F07BFE10B92C4B1B7883B94FF020037B
:101E8C00EFF3118483F31288BFF36F8F686801F04E
:101E9C00CCFD28BB84F31188BFF36F8FEEE764246D
:101EAC00686801F0C2FD70B9012001F019FE013C17
:101EBC00F6D10021212001F011F9F0E784F311880B
:101ECC00BFF36F8FF5E74FF02003EFF3118483F32B
:101EDC001288BFF36F8F686801F0A7FD0028EDD062
:101EEC0006F8107F69680B680122C3F84465C3F8D3
:101EFC0048250022C3F82021D3F82001C3F858212B
:101F0C00D3F858214A68D20641BF0822C3F80025ED
:101F1C004FF48002C3F8042301229A6084F31188E1
:101F2C00BFF36F8FF8BD00BF4F070020F8B500223C
:101F3C00074601210220FFF719F80220FEF7F8FFEF
:101F4C007D683E692C68D5F808C00023C4F80035BC
:101F5C004FF0A0410CF01F0301229A4003F5E073EF
:101F6C003760C1F80825032241F82320EA68501C89
:101F7C0007D0287E02F01F0303F5E073800041F8C0
:101F8C002300C4F80CC5C4F814252A69531C09D0C5
:101F9C00697E02F01F0303F5E0734FF0A040890047
:101FAC0040F823106969481C0CD001F01F034FF056
:101FBC00A04C0120984003F5E073CCF808050320F1
:101FCC004CF82300C4F808153846C4F81025311D08
:101FDC00FFF79AFE0746002845D16B68190719D5FB
:101FEC0006F1120000F0B4FB214B98423DD1B07CBD
:101FFC00C30003F1804303F5F83304F10C0204F53C
:10200C009071C3F81015C3F814251A4A01238340A4
:10201C00C2F804350823C4F80035EB6801330CD042
:10202C000023C4F81031D4F8103106F11103C4F8B0
:10203C0034350123C4F8383523606B681A075CBF4C
:10204C004FF48072C4F80423DB0644BF4FF48003C2
:10205C00C4F8043310360023C4F84465C4F848357A
:10206C000123A360E3603846F8BD6FF00407FAE77C
:10207C000000AD0B00F00140044A1368C81A20F0B0
:10208C007F400344136001F07BB900BFFC010020CA
:10209C002DE9F843860006F1804600F1500406F560
:1020AC008836A400A4B204F180444FF48037D6F8EB
:1020BC004035DFF86C8021F07F4504F5883487408B
:1020CC00D8F80495A3EB090323F07F4329F07F4252
:1020DC00012BC6F8402502D1132001F039FE09F17D
:1020EC000202AB1A23F07F43B3F5000F88BF1546ED
:1020FC00002323602368C8F8447325F07F43C6F897
:10210C004035D8F80435994506D0EB1A023B23F03C
:10211C007F43B3F5000F01D8BDE8F8832B46CFE71A
:10212C000010014070B5154D154C00262B68002091
:10213C0006B170BDD4F80423D203FAD5D4F84021EB
:10214C00002AF6D0C4F84061D4F840214FF4803214
:10215C00C4F84823D4F84015D4F80465721A22F058
:10216C007F42B2F5000F88BF314601261BB16A6869
:10217C0028609847DAE72B60DBE700BFF00100200E
:10218C000010014038B50F4C00254FF48033C4F8D3
:10219C000855C4F804330C4B4FF40032C3F88021BB
:1021AC0001212A461120FEF7E1FE1120FEF7C0FEA8
:1021BC000123064AA360022023601360FFF722FB71
:1021CC00284638BD0010014000E100E0F801002075
:1021DC00134AB0F1FF3F14BF03461346013B002BDB
:1021EC001CDD9342A8BF13460E4AD2F804050E4AD2
:1021FC001168401A10F4000F20F07F4218BF002322
:10220C0001321344094A0A48106000205060044A05
:10221C00934294BFC9188918FFF73ABF0023E3E72C
:10222C00FFFF7F0000100140FC010020F0010020A6
:10223C0085200000044BD3F80405044B1B68C01A1E
:10224C0020F07F40704700BF00100140FC010020CF
:10225C004FF0704393F8E02F062A09D1D3F8E83FEA
:10226C00C3F30313033B042B02D8024AD05C704720
:10227C000020704794400000024AD2F80034002B32
:10228C00FBD0704700E0014010B501F01AFC40B1E2
:10229C004FF08053904AD3F82433C3F30423C2F88D
:1022AC004035FFF7D5FF10B18C4B8D4A5A6701F0C2
:1022BC0008FC48B14FF080534FF08042D3F84432C1
:1022CC00C3F34233C2F83C35FFF7C2FF30B1854A45
:1022DC00D2F8FC3023F08073C2F8FC3001F0F1FB33
:1022EC0040B14FF080430022C3F80C21C3F81021F9
:1022FC00C3F83825FFF7ACFF20B14FF08043032221
:10230C00C3F8A025FFF7A4FF60B1774B0522C3F8F3
:10231C0010260122C3F888260022C3F818263F2273
:10232C00C3F814264FF08053D3F83021511C09BF49
:10233C004FF07043D3F8343193F8E02FD3F8E83FE3
:10234C0008BFC3F30313062A4DD1033B042B03D858
:10235C00664AD35C002B46D04FF08052644BD2F8C7
:10236C000414C3F82015D2F80814C3F82415D2F8B5
:10237C000C14C3F82815D2F81014C3F82C15D2F885
:10238C001414C3F83015D2F81814C3F83415D2F855
:10239C001C14C3F84015D2F82014C3F84415D2F815
:1023AC002414C3F84815D2F82814C3F84C15D2F8E5
:1023BC002C14C3F85015D2F83014C3F85415D2F8B5
:1023CC003414C3F86015D2F83814C3F86415D2F875
:1023DC003C14C3F86815D2F84014C3F86C15D2F845
:1023EC004424C3F8702501F06CFB48B14FF08053C6
:1023FC004FF08042D3F8583203F04F03C2F8E43E5A
:10240C0001F05FFB48B14FF08043D3F80024D207B2
:10241C0044BF6FF00102C3F800244FF08053D3F88F
:10242C003021062A26D1D3F83431033B042B02D8B1
:10243C00304AD35C63B1304AD2F83C3743F4806302
:10244C00C2F83C374FF08053D3F83031062B11D102
:10245C004FF08053D3F83431033B042B02D8274A76
:10246C00D35C3BB14FF01023D3F808224FF08043DC
:10247C00C3F858254FF01023D3F80022002A03DBB1
:10248C00D3F80432002B22DA1D4901234FF010201F
:10249C00C1F804351524FFF7EFFEC0F80042FFF732
:1024AC00EBFEC0F80442FFF7E7FE0023C1F8043549
:1024BC00FFF7E2FEBFF34F8F0A49124BCA6802F4D2
:1024CC00E0621343CB60BFF34F8F00BFFDE70E4BB1
:1024DC000E4A1A6010BD00BF0030014000C007401A
:1024EC000DF0ADBA00ED00E000500040854000005A
:1024FC0000C000408A400000001000408F400000E7
:10250C0000E001400400FA05200000200090D003F8
:10251C00044B1A7922B9012218609A80024870473C
:10252C0002487047000200200000AD0B0C00AD0B00
:10253C0030B510B1012834D030BD4FF08043D3F802
:10254C001824D3F81814C90329D502F00302012A60
:10255C0025D1C3F818254FF080430022C3F804217D
:10256C00D3F804210222C3F80423134AD2F8FC0046
:10257C0040F08073C2F8FC30104B1C6844F0010131
:10258C0019605D685968491BB1F50A5FFAD31C6084
:10259C004FF08043C2F8FC0001229A60CCE7002285
:1025AC00D7E74FF080430022C3F80021D3F8002175
:1025BC00C3F804031860BFE700ED00E0001000E072
:1025CC0038B510B1012817D038BD4FF08044022324
:1025DC00C4F80833C4F80401D4F804310123E360CF
:1025EC0042F21075D4F81834DB03EDD5012001F05C
:1025FC0077FA013DF6D1E7E74FF080440023C4F8A9
:10260C000803C4F80031D4F80031606042F2107550
:10261C00D4F80C34D4F80C24D20303F0010305D500
:10262C0023B1012001F05CFA013DF1D1014B0022F4
:10263C005A71C9E7000200204FF0804310B5D3F85F
:10264C0000216AB10022C3F80021D3F80021012235
:10265C00C3F80823114B587910B95A711B68984765
:10266C004FF08043D3F8042172B10022C3F8042147
:10267C00D3F80421D3F81824D3F81814920704D1F2
:10268C000122C3F818259A6010BD0222C3F8082352
:10269C00024BBDE810401B680120184700020020C7
:1026AC00012303FA00F0C3B293B14FF02003EFF310
:1026BC00118183F31288BFF36F8F064AD36C23EA20
:1026CC000000D06481F31188BFF36F8F024870470C
:1026DC0002487047080200200000AD0B0400AD0B4F
:1026EC002DE9F0410546DFF85CE01748DFF85C8027
:1026FC000024FF220126E3B24FF02001EFF3118CEE
:10270C0081F31288BFF36F8F22FA03F1C9070AD540
:10271C00DEF84C1006FA03F7394201BF3943CEF804
:10272C004C1040462B708CF31188BFF36F8F4045D3
:10273C0005D006FA03F39A4304F10104DBD1BDE89A
:10274C00F08100BF080200200200AD0B0000AD0BB1
:10275C002DE9F041144A154E154F05461548002435
:10276C004FF0010E5FFA84FC4FF02003EFF3118859
:10277C0083F31288BFF36F8F0EFA0CF3134207D05A
:10278C0031680B4201BF1943316085F800C03846EF
:10279C0088F31188BFF36F8FB84203D09A4304F1CA
:1027AC000104DFD1BDE8F081FFFF0F0058020020CB
:1027BC000000AD0B0200AD0B10B5144C144A1549BA
:1027CC00032323616361144BA261E3614FF48063C3
:1027DC0023620023A3626362E36222660F4A62668D
:1027EC00E01D1022A2662367E366636700F0ABFF6F
:1027FC00BFF35F8F0A49204600F0A5FFBFF35F8F40
:10280C002023A371BFF35F8F10BD00BF5C020020BB
:10281C0099400000A24000004F0300203F0300201D
:10282C00A64000000E4B70B553F82040013053F811
:10283C002060A64200D870BDD4E9003528469847E0
:10284C0065B1EB6830B10028B8BF4042FF28A8BF83
:10285C00FF2018705A7842F001025A700834E8E7E9
:10286C002440000030B5002387B00122CDE90423B9
:10287C000F22CDE9023201930C4C0D4B0D4918225D
:10288C0004EBC01402FB00334FF4B075009305FB4E
:10289C000011094B4FF4A072204600F0A5F8637BA1
:1028AC0023F00403637307B030BD00BF4000002069
:1028BC0004030020800B0020112B000008B50A4BEC
:1028CC00012202201A70FFF7ADFF01F045FA032038
:1028DC00FFF7A8FF00F0BAF8FDF77CFD034A137B65
:1028EC0023F00103137308BD4F070020C000002024
:1028FC000248034A0021121A00F05BBF400000207E
:10290C005007002080B5DFF8C080A6B088F3088897
:10291C002E4D2F4E6B69DFF8BC9043F400730024EE
:10292C006B61E02385F82230EC772C766C76AC76F4
:10293C0085F820406B6A43F4E0236B6285F82340F2
:10294C00FEF706FDFEF7D6FA4FF0FF33AB62EB62F3
:10295C00FEF7DCFDFEF744FD40F20113ADF8243028
:10296C0006ABB360CDE91F4401F0CDF82046FFF76C
:10297C0059FF0120184DFFF755FF00F01BFB174BBB
:10298C000593012316490094CDE903434FF480626B
:10299C004B46CDE901442846F56100F025F86A7BE9
:1029AC00074622F0040228466A7301F019F9204602
:1029BC00FFF758FF0B4BF3604A46394628463475EF
:1029CC00C6F80480FEF798FB0015002000ED00E02F
:1029DC0004030020C9280000C0000020AD40000006
:1029EC0060070020400000202DE9FF410E9E067379
:1029FC00042646730D9E867300F158050F46D61DAE
:102A0C00C0E916550C9A002526F007062037C0E9B8
:102A1C000655C0E919768560C573C56606F12008B0
:102A2C0002920B9A019288440A9A009242460446FA
:102A3C00FEF730FB044B65659B6803B11B6F236786
:102A4C00404604B0BDE8F081040300202DE9F043BA
:102A5C00294C2A4D87B02646AE4204F130040FD3E0
:102A6C0000F006F9244CDFF898904FF4004640F241
:102A7C00E737AC4220D307B0BDE8F04300F07EBA94
:102A8C0054F8043C059354F8103C049354F8143C4B
:102A9C00039354F8183C029354F81C3C019354F8DB
:102AAC00203C009354E90C0154E90A23FFF79CFFE6
:102ABC0054F8303C5E65CEE7636A5A1C0DD023EAAD
:102ACC00E37300213846C3FB060151EAC333D4F843
:102ADC00008004D1404600F0AFF93034C9E74FF420
:102AEC007A720023FDF7F4FA02460B4608F118003F
:102AFC00494600F0CBFBF0E73C0000203C000020F6
:102B0C000D3C000008B5094C4FF02002EFF3118387
:102B1C0082F31288BFF36F8F01F0ECF8A061FEF71F
:102B2C00A5F90028F0D1FEF7EBF9EDE7040300203E
:102B3C0038B504464FF02003EFF3118583F3128868
:102B4C00BFF36F8F01F0A8F848B10022826701F043
:102B5C0047F829460548BDE8384000F077B8D4E975
:102B6C0002329A4218BF0133A360F2E750070020EB
:102B7C0013B54FF02004EFF3118184F31288BFF3E7
:102B8C006F8F846844B1013C846081F31188BFF37A
:102B9C006F8F002002B010BD52EA030406D181F3FE
:102BAC001188BFF36F8F6FF00F00F3E7CDE90023AF
:102BBC000246024800F09CF9ECE700BF50070020E9
:102BCC0010B5084C23685BB1FFF734FB0346206853
:102BDC00054A0344BDE810401361002101F09AB886
:102BEC0010BD00BF3403002004030020F8B50446D8
:102BFC000D464FF02003EFF3118683F31288BFF3D9
:102C0C006F8F0F4B00214FF4004740F2E7301961F2
:102C1C004FF47A720023E4FB0701FDF759FA002CFC
:102C2C00084B09DC1860084B1D60FFF7C9FF86F3E1
:102C3C001188BFF36F8FF8BD0228B8BF0220F1E7EF
:102C4C0004030020340300203003002049B9EFF3C3
:102C5C00058030B9054BDA699B689A4201D0FEF7C2
:102C6C00C5B981F31188BFF36F8F7047040300203F
:102C7C004FF02003EFF3118183F31288BFF36F8FB2
:102C8C00044B9A68D37B013BD37381F31188BFF358
:102C9C006F8F70470403002038B502460C480D4D69
:102CAC0000F098FF044600B9EC68AB684AB95A7B4F
:102CBC00D20606D1A26922B9DA897F2A01D9EB6141
:102CCC0038BD9C4201D0FFF77BFFEC61F8E700BFF9
:102CDC00240300200403002070B590F90D20437BE1
:102CEC00002A014604DA03F07F03437300F04AFF25
:102CFC004B7B154A63F07F034B73D2E9083402F126
:102D0C002005AB421BD0D3B191F90E6093F90E00A4
:102D1C0086420FD0801B00280CDD5868C1E90030BA
:102D2C00016059609068431A5842BDE870405841A0
:102D3C00FFF7B2BFA34202D01B68002BE6D1C1E95A
:102D4C00005421605162EDE70403002038B50146C0
:102D5C004FF02003EFF3118483F31288BFF36F8FCE
:102D6C00154B164A98681568A84206D1FFF728FF3C
:102D7C0084F31188BFF36F8F38BD00251560104A9E
:102D8C001268BAB1C2897F2A14D8427BD20611D1FB
:102D9C000C4A90F90E50126895420BDB0A4A90428D
:102DAC0008D01A698A4202DCFFF796FFDEE7521A56
:102DBC001A61DDE70022FBE7040300202C0300204E
:102DCC0034030020300300204000002070B490F940
:102DDC000D20437B002A2ADBDA0628D1826932BB1C
:102DEC00144A63F07F034373D2E9083402F12005DF
:102DFC00AB4217D0B3B190F90E6093F90E108E421E
:102E0C000BD0891B002908DD5A68C0E9003210601C
:102E1C00586070BC0020FFF73FBFA34202D01B6874
:102E2C00002BEAD1C0E9005420605062F1E770BC7D
:102E3C00704700BF0403002010B54FF02002EFF3E1
:102E4C00118482F31288BFF36F8F427B510704D435
:102E5C0084F31188BFF36F8F10BD22F0040242730C
:102E6C00FFF7B4FF21460248BDE81040FFF7EEBE65
:102E7C005007002008B590F90D20437B002A01462D
:102E8C0004DA03F07F03437300F07CFE044B986874
:102E9C00431A58425841BDE80840FFF7FDBE00BF39
:102EAC00040300202DE9F041064615461C464FF060
:102EBC002003EFF3118783F31288BFF36F8F00F0B9
:102ECC00C1FE87F31188BFF36F8FB4F1FF3F08BFCA
:102EDC00B5F1FF3F08D02A46234606F118000349F6
:102EEC00BDE8F04100F0D2B9BDE8F0810D3C000026
:102EFC0010B5074B9868074B0C4618601146DDE976
:102F0C000223FFF7CFFF2046BDE81040FEF76EB856
:102F1C00040300202C03002070B50446183000F088
:102F2C00D3FE4FF02003EFF3118683F31288BFF327
:102F3C006F8F94F90D20637B002A05DA03F07F0371
:102F4C006373204600F01EFE0B4D637BA86843F0B4
:102F5C0010036373031B58425841FFF79DFE86F321
:102F6C001188BFF36F8FAB68A34203D1BDE87040EB
:102F7C0000F026BE70BD00BF0403002010B54FF05A
:102F8C002003EFF3118483F31288BFF36F8F084B88
:102F9C009A68D37B0133D3730020FFF77DFE84F353
:102FAC001188BFF36F8FBDE8104000F009BE00BF61
:102FBC0004030020044B002103F12002C3E9082282
:102FCC000846FFF713BE00BF04030020F8B54FF00E
:102FDC002003EFF3118583F31288BFF36F8F1A4927
:102FEC008868437B03F07F03437300F0CBFD8B6851
:102FFC005A7B084662F07F025A7350F8202F8242A7
:10300C001CD0DAB14F6A93F90E6092F90E40A642C9
:10301C000FD0A41B002C0CDD5168C3E900210B6000
:10302C0053600120FFF738FE2846BDE8F840FDF755
:10303C00DDBFBA4202D01268002AE6D14A6AC3E95F
:10304C00000213604B62ECE70403002050EA01031A
:10305C002DE9F04105460E4603D1FFF7B7FF0020DE
:10306C0033E06FF00104241A4FF0FF3363EB0103DC
:10307C00012C73F1000302DA00F066FE44194FF0E4
:10308C002003EFF3118883F31288BFF36F8F104F77
:10309C00104BB8681860FFF7EDFEB8680E492A4669
:1030AC003346183000F0F2F8BA68537B43F0100343
:1030BC0053734046FDF79AFF00F046FE201A63EB6F
:1030CC000303012873F10003C9DBBDE8F08100BFE5
:1030DC00040300202C0300200D3C0000B1F1FF3F45
:1030EC0008BFB0F1FF3F08B506D1084B9868FFF751
:1030FC0013FF4FF0FF3008BDFFF7A8FF4FF47A73B2
:10310C0080FB0303C00B40EA4340F4E704030020B8
:10311C00014B9868704700BF040300202DE9F04173
:10312C0004464FF02003EFF3118683F31288BFF3AC
:10313C006F8F437B1A0705D586F31188BFF36F8F0A
:10314C00BDE8F08123F0200242F00801D20920D121
:10315C004173A36813B1204600F01CFD04F1180064
:10316C0000F0B2FD04F158074FF00008A56DBD4208
:10317C0000D0B5B90120FFF78FFD104B9B68A3421F
:10318C00DAD1EFF30583002BD6D13046FDF72EFFB5
:10319C00D2E703F05F0343F00803437300F0F2FC43
:1031AC00D7E7284600F0F6FC05F1180000F08CFD7E
:1031BC00C5F878802846FFF709FED7E704030020FE
:1031CC0008B50648064A0749121A00F0E7FABDE8A6
:1031DC000840054A0549064800F0E0BA0000002006
:1031EC003C000020B440000000000000B44000008F
:1031FC0000000020034B1B680BB9FFF71BB8002025
:10320C00704700BF38030020114B10B51C689C425E
:10321C0008BF0024FFF7EEFF03466CB1D4E90402AB
:10322C00C01A62EBE373012873F100020DDBB0F1FD
:10323C00004F73F1000301DB6FF00040054B1B697D
:10324C0013B19842A8BF184610BD0020F6E700BF86
:10325C00240000200403002030B5036868B10A4A3A
:10326C005268904209D043B1D3E90421D0E9044516
:10327C00121941EB0501C3E90421426813605A603D
:10328C000023C0E9003330BD24000020B3F1FF3F20
:10329C0008BFB2F1FF3FF8B504461F46154667D08C
:1032AC0081604FF02003EFF3118683F31288BFF394
:1032BC006F8F6FF00102531B4FF0FF3C6CEB070359
:1032CC00002B1BDB2B4BD3E90013521A6CEB0303C3
:1032DC00551B63EB0703012D73F10002BCBF0125E5
:1032EC000023C0E904532448D0E9003C834218D1A0
:1032FC00C4E9000CCCF80040446026E0FFF77AFFEC
:10330C00013547F100072D1847EBE077C4E9045766
:10331C00E9E7521A65EB07059C45C4E90425E7D09B
:10332C001B68002BE4D0D3E90417D4E904258A42A6
:10333C0075EB070EEDDA8A1A67EB0505C3E9042570
:10334C005A68C4E9003214605C60036883420BD095
:10335C009C4209D1FFF758FF18B1084B1B698342F7
:10336C0002D00021FEF734FF86F31188BFF36F8F74
:10337C00F8BD00BF40010020240000200403002001
:10338C002DE9F8430546FFF7E1FC4FF02003EFF37E
:10339C00118483F31288BFF36F8F244EDFF8908073
:1033AC003560244DD8F8000032684045D5E9001E40
:1033BC004FEAE2770BD050B1D0E9043C9A4277EB5C
:1033CC000C0916DA9B1A6CEB070CC0E9043C52187A
:1033DC004EEB0707C5E9002700253560FFF714FF02
:1033EC002946FEF7F5FE84F31188BFF36F8FBDE815
:1033FC00F88359184EEBE377D31A3360002200237D
:10340C00C0E90423C5E90017FFF726FF84F31188F0
:10341C00BFF36F8F836898474FF02003EFF311844D
:10342C0083F31288BFF36F8FBCE700BF3803002013
:10343C00240000204001002010B54FF02003EFF3D2
:10344C00118483F31288BFF36F8FFEF7F3FE054AE6
:10345C00D2E90031C01841F1000184F31188BFF3A7
:10346C006F8F10BD400100207047034658B1426871
:10347C0002F00302012A03D0032A04D1026812B11C
:10348C000020986070476FF01500704742688160AB
:10349C0002F00302032A4FF0000203460CBF00683F
:1034AC0010465A60704700207047038B13F00703D7
:1034BC0005D10368002B0CBF002003207047022BA2
:1034CC0005D1438B002B14BF002004207047012B27
:1034DC0005D10368002B0CBF00200520704700208D
:1034EC0070472DE9F0410D4607461946281D9046B8
:1034FC001E46FFF7CBFF044638B1334642462946F9
:10350C003846A446BDE8F0416047BDE8F08110B4F0
:10351C004FF02004EFF3118284F31288BFF36F8F06
:10352C00416110BC0121FCF7B7BF10B50C4640B18E
:10353C0039B1081DFFF799FF28B9A36833F00303CD
:10354C0001D06FF0150010BD38B50C46054658B1CA
:10355C0051B10B6843B14B6833B11C22002100F010
:10356C0028F92C61002038BD6FF01500FBE770B511
:10357C0004460E46FFF7D9FF051E31DB4FF0200342
:10358C00EFF3118183F31288BFF36F8F638B208B62
:10359C004FF6FF75AB4200F007022ED0022A0ED177
:1035AC00013363831546012381F31188BFF36F8FB9
:1035BC00B3B1002331462046FFF793FF10E0830799
:1035CC0001D0062A0ED100233360636893B9C4E995
:1035DC000066154662B90A4620460221FCF75CFFDC
:1035EC00284670BD052A0CBF6FF085056FF00405E9
:1035FC000023D9E71E606660EBE76FF00A05F7E77A
:10360C00044608B5084611461A46A047FFF780FD48
:10361C00FDF7D4FE2DE9F84F9A46D3786F2B8046F0
:10362C000F461546A3F1410B29D024D8582B14BFB3
:10363C000A261026DDF828903246002340463946EB
:10364C00FCF746FD092AD4B21ED83034B045E4B29A
:10365C0077F1000309F8014D01D3D14511D82B782E
:10366C009B0605D5082E15D1AB7843F00803AB703B
:10367C004846BDE8F88F03F0F703702BD7E7082610
:10368C00D8E780460F46D7E7BBF1190F94BF373404
:10369C005734DBE7102EEBD1AB7843F01003E6E7A1
:1036AC002DE9F0410746884615461E461446B4429D
:1036BC00A4EB050002D33EB923782BB114F8010B0F
:1036CC004146B8470028F2DABDE8F0817047002285
:1036DC00C0E900228260704700F02CBA01460068F5
:1036EC0000F028BA00210120FFF7F6BF08B5FDF75E
:1036FC0055FCBDE80840FDF735BD30B50278202AF1
:10370C00034600F10100F9D0A2F109010429F5D911
:10371C002B2A08D02D2A0ABF034600210121013B88
:10372C0000200A2506E003460021F8E7C2F130022A
:10373C0005FB002013F8012FA2F13004092CF5D958
:10374C0001B9404230BD0139034611F8012F0AB9C5
:10375C001A70704703F8012BF7E7034600201A5C38
:10376C0002B970470130FAE7034600201A5C0AB12F
:10377C00884200D170470130F8E710B503465AB1C2
:10378C000139841813F8010B11F8012FA34201D051
:10379C009042F7D0801A10BD1046FCE710B5431EBE
:1037AC000A44914200D110BD11F8014B03F8014FAE
:1037BC00F7E7C9B202440346934200D1704703F8BD
:1037CC00011BF9E74FF0FF307047FDF7D5BE84B011
:1037DC0004AB03E907009DF80430062B08D14FF029
:1037EC0080430122C3F80025BFF34F8F20BFFDE7B4
:1037FC0004B0704784B004AB03E90700002383F3E3
:10380C001188BFF36F8F04B070470369C9B20C22E3
:10381C0001FB0233186C00F0070070474FF02003D7
:10382C00EFF3118283F31288BFF36F8F036803F0F9
:10383C00C00343F00203036082F31188BFF36F8F60
:10384C007047034670B50069C9B24FF02004EFF31E
:10385C00118684F31288BFF36F8F0C2505FB0104CE
:10386C00246C14F0C00401D0A24210D105FB01005D
:10387C0001220264002086F31188BFF36F8F28B9F0
:10388C005B6803EBC1014B689847002070BD4FF09B
:10389C00FF30F0E78022FFF7D4BFF8B5069F04692C
:1038AC000546C9B24FF02000EFF3118C80F312885B
:1038BC00BFF36F8F0C2606FB0146306C00F0070E31
:1038CC00BEF1010F11D1376400268CF31188BFF3C0
:1038DC006F8F46B90C2000FB0144C4E90E236B68C2
:1038EC0053F8313098473046F8BD00F0C00087429D
:1038FC0014BF4FF0FF366FF07706E6E713B5802460
:10390C000094FFF7CAFF02B010BD006910B4CBB22F
:10391C001C2403FB0400002110BC10470020FEF700
:10392C004FBE1046FFF704B900F01F00800000F1F5
:10393C00A040D0F8003723F4403343EA0143C0F8E9
:10394C000037704743685B68D3F810350B60002074
:10395C00704743685B68D3F8040542400A40424014
:10396C00C3F804250020704743685B680020C3F847
:10397C000815704743685B680020C3F80C15704746
:10398C0043685A68D2F804354B40C2F8043500201D
:10399C0070470369586830B558B10024814212D180
:1039AC0008689D6854B98D42586000D19860002019
:1039BC0008606AB9002030BD2846EFE78D422060D0
:1039CC0008BF9C60F3E705680446002DF4D13AB1BA
:1039DC0098685A680A6059600028EBD19960EAE748
:1039EC006FF01500E7E702690B46D2E9010183E8A5
:1039FC0003000020704743681B68D3F88004C3F8A9
:103A0C0080047047436802691B68D3F8100148B101
:103A1C00527C0A700020C3F81001D3F81021012247
:103A2C001A6070474FF0FF30704702680346D2F8B7
:103A3C00580140B95B681B0706D4D2F82001003846
:103A4C0018BF012070470120704743681B68D3F8EA
:103A5C000423D10518D5D3F82021AAB14FF02001A9
:103A6C00EFF3118281F31288BFF36F8FD3F820111B
:103A7C0031B10021C3F82011D3F820110121D960F4
:103A8C0082F31188BFF36F8F42685268D20615D546
:103A9C004FF02001EFF3118281F31288BFF36F8F87
:103AAC00D3F8581111B10021C3F800154FF480015F
:103ABC00C3F8081382F31188BFF36F8F70477047F8
:103ACC0070474FF08053D3F83001421C04BF4FF0C5
:103ADC00704393F8E00F831F5842584170470047DA
:103AEC0000F036B908B50020FDF732FA18B9BDE878
:103AFC000840FDF71DBA08BDFEF75EBE08B5FFF71E
:103B0C00FBFF002008BD704738B1C3681888C0F3AC
:103B1C000800A0F580735842584170474FF02002BE
:103B2C00EFF3118382F31288BFF36F8FFEE708B5B2
:103B3C00FFF7F4FFF8B505460E464FF02003EFF300
:103B4C00118783F31288BFF36F8FFFF7E1FA3146C9
:103B5C0004462846FFF7EBFF87F31188BFF36F8FFE
:103B6C002046BDE8F840FDF729BCEFF3058000388E
:103B7C0018BF0120704708B5FDF752F9BDE80840A1
:103B8C00FFF79EBFD0E9003213605A600023C0E9F2
:103B9C000033704708B5FFF7F5FF437B23F00203B2
:103BAC0043730023836008BD034620B9EFF30582FD
:103BBC000AB9FDF71BBA83F31188BFF36F8F7047F7
:103BCC004FF02003EFF3118083F31288BFF36F8F54
:103BDC00FFF7EABF03460068834208BF0020704726
:103BEC0010B54FF02003EFF3118483F31288BFF369
:103BFC006F8FFFF7EBF884F31188BFF36F8F10BD55
:103C0C0010B501464FF02003EFF3118483F31288B3
:103C1C00BFF36F8F10F80B3C13F0280F0DD151F838
:103C2C00103C18380BB1FFF7B5FF11F80B3C23F023
:103C3C00140301F80B3CFFF7C9F884F31188BFF3A8
:103C4C006F8F10BD38B504460D46FFF713F9637B33
:103C5C0043F00203637395B12B68A5609D4215D0A8
:103C6C00A3B194F90E1093F90E20914208D0521A78
:103C7C00002A05DD5A68C4E9003214605C6038BD66
:103C8C006A68934202D01B68002BECD16B68C4E9C4
:103C9C0000531C606C60F2E738B54FF02003EFF373
:103CAC00118583F31288BFF36F8FFFF793FF0446E0
:103CBC0020B1FFF76FFF183000F006F885F311887C
:103CCC00BFF36F8F204638BD10B54FF02002EFF3D5
:103CDC00118482F31288BFF36F8F03683BB1FFF737
:103CEC00BBFA002084F31188BFF36F8F10BD6FF007
:103CFC001500F7E710B54FF02003EFF3118483F3B1
:103D0C001288BFF36F8FFFF77FFA84F31188BFF32C
:103D1C006F8F10BD70B504460D464FF02003EFF3C6
:103D2C00118683F31288BFF36F8FFFF76DFA0128AA
:103D3C0005DDA04203DB29462046FEF749FA86F34F
:103D4C001188BFF36F8F70BD08B5FFF775FB08BD09
:103D5C0008B1FDF747BC704770470000FEF794BAF6
:083D6C00A0C3FF7F010000006D
:103D7400C115000000000000093B00000000000025
:103D840079160000AC3D0000391F0000C43D00005E
:103D940091210000DC3D000069190000F43D0000A1
:083DA4001119000000000000ED
:103DAC0067400000A83F0000943F00002C0000205A
:103DBC0078010020563F00007440000008400000CD
:103DCC00F43F0000340000200C0000204E3F0000A7
:103DDC007B400000000000000000000038000020C4
:103DEC00000000004A3F00006D400000E83F00006A
:103DFC00C43F000030000020D4010020443F0000EC
:103E0C0045260000EB3A000000000000F1360000EF
:103E1C00C43D0000573A000000000000F1360000DD
:103E2C0000000000F136000000000000F136000038
:103E3C0000000000F91B000000000000F13600003B
:103E4C0000000000F136000000000000F136000018
:103E5C0000000000F136000000000000F136000008
:103E6C0000000000F136000000000000F1360000F8
:103E7C0000000000F136000000000000F1360000E8
:103E8C0000000000F13600000000000031210000AD
:103E9C0000000000F136000000000000F1360000C8
:103EAC0000000000F136000000000000F1360000B8
:103EBC0000000000F136000000000000F1360000A8
:103ECC0000000000F136000000000000F136000098
:103EDC0000000000F136000000000000F136000088
:103EEC0000000000F136000000000000F136000078
:103EFC0000000000F136000000000000F136000068
:103F0C0000000000F136000000000000F136000057
:103F1C0000000000F136000000000000F136000047
:103F2C0000000000F136000000000000F136000037
:083F3C0000000000F136000056
:103F4400FF7FFF7FFF7FFF7FFF7FFF7FFF7FFF7F7D
:0A3F5400FF7FFF7FFF7FFF7FFF7FED
:023F5E00FFFF63
:103F60000338FDD87047000000000020000000006A
:103F700000000B06020000007C3F00000000000073
:103F800058400000240002070000002060400000AC
:103F90001E000B118D170000A13800000939000028
:103FA000000000001738000029170000E517000086
:103FB000C117000029390000351600000516000061
:103FC00000000000411B0000513900005F39000073
:103FD00075390000813900008D3900009919000001
:103FE0009F39000000000000FFFFFFFF00000050AD
:103FF00000000000113A0000751E0000033A0000A6
:10400000151D0000F3390000002000400B000000E7
:104010000600000008000000070000000500000086
:1040200000000000743D0000943D00009C3D000035
:10403000AC3D0000AC3D0000F5FFFFFF7B696E6901
:10404000747D00626175643A007B6368616E6765C8
:104050007D00286E696C2900464C4153485F300052
:104060005352414D5F3000434C4F434B0047504942
:104070004F5F3000554152545F30007379735F6376
:104080006C6F636B00000001010100000001010082
:104090000000000101000000005465726D696E614E
:1040A0006C0052545400534547474552006D6169B6
:0440B0006E0000009E
:1040B400B334000001000000D1370000000000000C
:1040C40000C2010000010300000000000000000025
:0C40D4000090D0032400002024000020F5
:1040E00000000000000000000000000000000000D0
:04000003000013994D
:00000001FF
