:020000040800F2
:10000000B0060020D50F0008AF270008910F0008A8
:1000100000000000000000000000000000000000E0
:100020000000000000000000000000005D0E00085D
:100030000000000000000000FD0D0008111A00087B
:10004000CD0E0008CD0E0008CD0E0008CD0E000824
:10005000CD0E0008CD0E0008CD0E0008CD0E000814
:10006000CD0E0008CD0E0008CD0E0008CD0E000804
:10007000CD0E0008CD0E0008CD0E0008CD0E0008F4
:10008000CD0E0008CD0E0008CD0E0008CD0E0008E4
:10009000CD0E0008CD0E0008CD0E0008CD0E0008D4
:1000A000CD0E0008CD0E0008CD0E0008CD0E0008C4
:0C00B000CD0E0008CD0E0008CD0E00089B
:1000BC0002B4714649084900095649008E4402BCF5
:1000CC007047C04602B4714649084900095C4900B2
:1000DC008E4402BC7047C04603B4714649084000C8
:1000EC004900095E49008E4403BC70470022430856
:1000FC008B4274D303098B425FD3030A8B4244D3E4
:10010C00030B8B4228D3030C8B420DD3FF22090225
:10011C0012BA030C8B4202D31212090265D0030BE4
:10012C008B4219D300E0090AC30B8B4201D3CB03DA
:10013C00C01A5241830B8B4201D38B03C01A52411C
:10014C00430B8B4201D34B03C01A5241030B8B421E
:10015C0001D30B03C01A5241C30A8B4201D3CB0209
:10016C00C01A5241830A8B4201D38B02C01A5241EE
:10017C00430A8B4201D34B02C01A5241030A8B42F1
:10018C0001D30B02C01A5241CDD2C3098B4201D309
:10019C00CB01C01A524183098B4201D38B01C01A87
:1001AC00524143098B4201D34B01C01A52410309FE
:1001BC008B4201D30B01C01A5241C3088B4201D3AD
:1001CC00CB00C01A524183088B4201D38B00C01A5A
:1001DC00524143088B4201D34B00C01A5241411A81
:1001EC0000D20146524110467047FFE701B500208E
:1001FC0000F006F802BDC0460029F7D076E770473C
:10020C007047C0461C2101231B04984201D3000CEB
:10021C0010391B0A984201D3000A08391B0998426D
:10022C0001D30009043902A2105C40187047C04683
:10023C0004030202010101010000000000000000A3
:10024C00002B11D1002A0FD1002900D1002802D097
:10025C000021C943080007B4024802A140180290CB
:10026C0003BDC0469DFFFFFF03B4684601B502986D
:10027C0000F034F8019B9E4602B00CBC7047C0469F
:10028C00F0B5CE46474680B5070099463B0C9C46D8
:10029C0013041B0C1D000E0061460004140C000C12
:1002AC0045434B4360436143C0182C0C20188C46CB
:1002BC00834203D980235B029846C4444946794360
:1002CC007243030C63442D042D0CC918000440190F
:1002DC008918C0BCB946B046F0BDC046F0B557460B
:1002EC004E464546DE46E0B504000D009246994662
:1002FC0083B08B4230D82DD04946504600F0BAF826
:10030C0029000600200000F0B5F8331A9846203B6F
:10031C009B4633D45A465346934042461F0053469D
:10032C0093401E00AF423AD8AF4200D178E05B4612
:10033C00A41BBD41002B00DA75E0002200230092C3
:10034C00019301235A469340019301234246934063
:10035C00009328E08242CFD900220023009201931F
:10036C000C9B002B01D01C605D600098019903B0C0
:10037C00F0BCBB46B246A946A046F0BD424620237F
:10038C009B1A5246DA40414613004A468A401700EF
:10039C0042461F43534693401E00AF42C4D900222D
:1003AC000023009201934346002BD9D0FB0772081F
:1003BC001A4346467B080EE0AB4201D1A2420CD850
:1003CC00A41A9D41012024196D410021013E2418DD
:1003DC004D41002E06D0AB42EED9013E24196D41A1
:1003EC00002EF8D1009801995B4600196941002B49
:1003FC0024DB2B005A464446D3402A00E2401C0022
:10040C005B461500002B2ADB26009E40330026009D
:10041C004746BE403200801A9941009001919FE7F7
:10042C00A342BCD883E74246202300219B1A00221A
:10043C00009101920122DA40019286E74246202384
:10044C009B1A2A0046469A402300F3404446134325
:10045C002A00E2401C005B461500002BD4DA424611
:10046C002F002023260097409B1ADE403B0033438D
:10047C00CDE7C04610B5002903D1FFF7C3FE2030ED
:10048C0002E00800FFF7BEFE10BDC046F0B595B007
:10049C00254DAB681B69002B02D0280002A9984798
:1004AC00FA26224800F06CFE0024B600AF683B68C8
:1004BC00002BFCD06A462800D11D98470028F5D1A6
:1004CC006B460221D87902F0CEF96B46DB797B2B97
:1004DC0003D1002404AB1C70E8E77D2B1DD1052251
:1004EC00134904A802F09BF90028DFD115306844A9
:1004FC0002F05EF9041EECDD300002F08DF802947F
:10050C00FB68002B02D0280002A99847300002F0AB
:10051C0083F8084800F034FEDBE73E2CC6D804AA6A
:10052C0013550134C2E7C0462C2F0008D232000804
:10053C00D9320008DF320008014B18607047C04602
:10054C0000000020F0B51E00002797B00590069122
:10055C000892089B1878002801D138002DE3089BDD
:10056C000133079325280BD00699059B9847002843
:10057C0000DA22E334000137079B26000893E8E7F2
:10058C0010AC18220021200002F061F9089B5B7866
:10059C00252B17D1089AE37202320792012210AB75
:1005AC00597A114200D175E1340004CC0392002A2F
:1005BC0000DB75E104201A7A02431A72039B5B423A
:1005CC0003936DE100221400944611000392079BE3
:1005DC001B782B2B6FD068D8202B72D0232B72D08A
:1005EC00002904D0042010AD297A014329726146F8
:1005FC00002906D010AD297A8C46082160460143AB
:10060C002972002C04D0102110AC257A29432172B8
:10061C000399002904D0202110A8047A21430172E7
:10062C00002A04D0402210A9087A02430A724421FD
:10063C0010A8027A1140442902D140218A43027247
:10064C008022017A52420A43027200210A24079A3C
:10065C002A2B41D1437A01310B4301324372147876
:10066C00022521002E394B42594110A8437A4900EA
:10067C00AB43194341722E2C46D153782A2B3ED0D2
:10068C000023013208351178541C08003038092831
:10069C0061D910A91493087A840723430224DB0F31
:1006AC005B00A04303430B722EE02D2B0ED0302B9E
:1006BC0096D1012201E001239C46079B013307934D
:1006CC0085E70124F9E701230393F6E70121F4E719
:1006DC002A0061433039C9181378551C180030387A
:1006EC000928F5D9079B9342B9D0022410AB187A8C
:1006FC001391C90F4900A04301431972AFE70421BC
:10070C00437A02320B4343721178501C10AB6C29A4
:10071C0041D025D868292DD06A2948D04C2952D0EF
:10072C0010000278431C10A90793CA724B7A782ADE
:10073C0000D9A8E0572A4DD8412A03D0453A022ABD
:10074C0000D9A0E0072110AA937A8B4303390B43FD
:10075C00937201236AE06B43303B2200CB1892E783
:10076C0074292AD07A29DBD178215A7A8A4311004C
:10077C0030220DE051787824682906D1587A6039F6
:10078C00A04301435972901CCBE71022597AA14324
:10079C000A435A72C5E7517878246C2903D1587AE8
:1007AC004C39A043EDE7597A1822A143F0E77821A0
:1007BC005A7A8A4311002822EAE778215A7A8A4326
:1007CC0011003822E4E71A89AA491140AA4A0A43BF
:1007DC001A81A6E710005838202854D8FFF768FC77
:1007EC00335353535353535353B2533311B2B2B2D3
:1007FC005311535353533933475353475333535371
:10080C0033000724887AA043063C20438872782161
:10081C001940402904D1012410A8037A2343037200
:10082C000023632A02D14A1E9141CBB210AA117A3D
:10083C008807C00F03430120034083400018814305
:10084C000B431372AAE60724887AA0430400022003
:10085C00DBE707208A7A82431000032202438A7264
:10086C0078221340403B5A425341DBB2DEE707206B
:10087C008A7A82431000032202438A727822134040
:10088C005A1E9341F1E7012110AA137A0B431372FC
:10089C000023CBE71A7A7F2A10D93400DB68039344
:1008AC00042310AA19420CD040CC002E0CDA0221E1
:1008BC00537A8B4353720126764205E034000123B0
:1008CC007DE68B07F7D51669002510AA517A937A25
:1008DC0049065B07090F5B0F0491D5601561012B6D
:1008EC003AD1C81E042821D8FFF7ECFB03191920B4
:1008FC00200008CC1360DB17536010AA137A032076
:10090C001D000540034269D0079B089A069905987B
:10091C0001F0F7FE002800DA4FE13F182CE6072320
:10092C0007349C430CCC10921193E6E701CC10AB2E
:10093C001060C0175060049A012A05D1109AD2B2E7
:10094C00109200225A60D8E7049A022AD5D10021CD
:10095C005A5E1A60D217F5E7022B2ED1049BD81ED3
:10096C00042805D81500FFF7ADFB0E14141B1B0053
:10097C0008CC28C2049B012B17D1109BDBB210931F
:10098C0000231193B9E700232268201D0CC5040035
:10099C00B3E70723E01D98430CC810921193F6E7B8
:1009AC0008CC136000235360E4E7049B022BA4D112
:1009BC00109B09936B469B8CE1E7042B09D1072014
:1009CC00E31D83431C00186859680834106051609B
:1009DC0093E7032B91D108CC13608EE7D07A78285B
:1009EC0000D9C9E5622821D825283BD0582800D049
:1009FC00C2E5109811991E2308AA9B18009312AAFD
:100A0C000AAB01F032FE04901E2308AA9B1808932F
:100A1C00002E3FDB4020049A9B1A10AA117A8143C6
:100A2C0011729E4236D9F31A139333E063381528AA
:100A3C0000D9A1E5FFF750FB65006F00A0FDA0FDFC
:100A4C00A0FDA0FD6F00A0FDA0FDA0FDA0FD9C00E1
:100A5C0084008600A0FDA0FD2200A0FD8400A0FD66
:100A6C00A0FD84000699059B9847002800DAA4E0B5
:100A7C00013781E5FD87FFFF02400000109B0493C6
:100A8C00002E3ADB3100180001F0BFFE0025049B5C
:100A9C001B180893049B002B00D16DE5089B049A4E
:100AAC009E1A2B005A1E9341F61810AB9B7ADA064D
:100ABC0079D50236139A0992B6185B0601D5149BA8
:100ACC00F618039B002B00DC86E09B1B099310ABF4
:100ADC001B7A5A07D60F002A00DABCE05B0600D45A
:100AEC006DE0002D07D028000699059B984700283B
:100AFC0063DB35000137302662E0049801F07DFE9F
:100B0C00C4E7109B0AA803700923002508AA0490C7
:100B1C009B180893C2E72B251A0705D410221D0039
:100B2C001540134200D02025109A119B002B00DB9E
:100B3C005FE70021504299412D251090119158E703
:100B4C00002556E7109810AD002827D01E2308AAC0
:100B5C009B18009312AA0AAB002101F086FDEF222C
:100B6C006B8904901A40414B13436B8100254BE772
:100B7C001368049A072A00D9FEE41000FFF7A2FAC2
:100B8C000C04060C08080C0C1F70F5E41F80F3E431
:100B9C00FA171F605A60EFE41F60EDE4344B050058
:100BAC000493344BB5E71A07D20FB61882E730001E
:100BBC000699059B9847002804DA17B0F0BD20264B
:100BCC00099B0393039A099B1100DB1901399B1AAA
:100BDC000391002AEBDC1F00002D06D0280006999B
:100BEC00059B98470028E8DB013710AB9B7ADA06A7
:100BFC0001D41B0706D530200699059B9847002881
:100C0C00DBDB013710AB9A7AD20606D5D87A069977
:100C1C00059B98470028D0DB01373D00139EF31944
:100C2C005B1B002B1ADC089B049A0699059801F0B3
:100C3C0068FD0028C1DB47193D00039B5B19DB1BDA
:100C4C00002B00DC98E420200699059B984700288F
:100C5C00B3DB0137F1E7099B0393BDE7302006991D
:100C6C00059B98470028A8DB0135D8E710780000D1
:100C7C00E8320008ED32000882B0EFF3108372B650
:100C8C00002B02D162B6BFF36F8F0120094B0A4AC9
:100C9C001A600A4A116C01431164136C084A034030
:100CAC000193019BC02300201168DB000B431360F0
:100CBC0002B070473C0000200024F40000100240F9
:100CCC0000000140F8B504000E0017000309AF281E
:100CDC0015D80C4A9B009D58002D02D11320404280
:100CEC000CE0280001F0CFFF0028F7D00F212800DE
:100CFC003B003200214001F04FFE0020F8BD1620D1
:100D0C00EDE7C046CC300008014910220A6070475C
:100D1C0010ED00E0BFF34F8F30BF62B6BFF36F8FA3
:100D2C007047C046030605D41F2318401E3B834062
:100D3C00014A13607047C04600E100E070B5FF2621
:100D4C00032532000540ED00AA4089013140D24311
:100D5C00A94044B2C3B200060AD4A308C0240A486E
:100D6C009B001B18A400185902401143195170BD67
:100D7C000F200340083B05489B089B001B18D869B3
:100D8C0002401143D961F2E700E100E000ED00E020
:100D9C0030BFFDE7FF22084B10B59343074A936021
:100DAC00BFF34F8FBFF36F8F01F030F801F0D8FA1B
:100DBC0000F0F2F801F036F80000000800ED00E059
:100DCC00084A094993680968586799678023074955
:100DDC005B05486803434B6062B6BFF36F8F936843
:100DEC00986F704774020020C832000800ED00E0D4
:100DFC0013498A6813481044EFF3098CF0C043463A
:100E0C004C4655465E466746F8C072B60E4F0F4EBE
:100E1C008A698A603E60506F00235367002800D1B6
:100E2C0062B6084C10191030F8C89846A146AA466C
:100E3C00B346BC462438F0C88CF3098870470000D0
:100E4C00740200203000000004ED00E000000008F7
:100E5C0004207146014202D0EFF3098001D1EFF377
:100E6C0008808169023909780229FFD001B501F0A7
:100E7C008CFC01BD10B5203A1360029B0124536019
:100E8C00039B06499360049BA143D36080235B04BE
:100E9C00D361002391610265436710BD632600088E
:100EAC00064B9860101C81F30988002162B6BFF3D1
:100EBC006F8F0022002301F0CEFBC046740200208D
:100ECC0001B5EFF305800549401AC00004490144FF
:100EDC0009C9984709BC9E46024908471000000002
:100EEC00742F0008F50E0008044B99689869884225
:100EFC0002D00349034A0A607047000074020020C4
:100F0C0004ED00E00000001070B51B4B0E005B6898
:100F1C0088B0DB05DB0D62B6BFF36F8F0025140EB6
:100F2C002900FF2C09D1F33C1440082C05D00100FA
:100F3C000135120701D5310000250024032B06D101
:100F4C008B69023B1A880D4B9A4200D10C68202207
:100F5C00684601F073FC079B002D0AD0DA0502D11C
:100F6C00074A134307936946200001F00AFC08B0B6
:100F7C0070BD5B0A5B02F5E700ED00E002DF0000EC
:100F8C00FF010000EFF30880EFF3098101B5724611
:100F9C00FFF7BAFF01BDC046F0B5C02400220326FE
:100FAC00FF25A40010002F003040C00087400549E9
:100FBC0093089B005B1819590132B94319511F2A28
:100FCC00F0D1F0BD00E100E072B6074807494018C7
:100FDC0080F30988EFF314800221084380F314880E
:100FEC00BFF36F8FFFF7D6FEB0070020000800009C
:100FFC00084B10B59B68834209D1EFF30583002B96
:10100C0005D08023044A5B0551680B43536001F003
:10101C0057F910BD7402002000ED00E010B501215D
:10102C00024B034A034800F063F810BD0040022055
:10103C0000000020F8300008F0B514000500002670
:10104C0085B002910393029B9E4202DB200005B007
:10105C00F0BD6868002833D0039B002B07D0431EDB
:10106C0003421DD1FF281BD92A681A4218D1E3B2BA
:10107C0000932B68AF680193082320280AD980229B
:10108C0036331206904205D80138FFF7BBF81F2300
:10109C001B1A5B001F43FF231C40009B072B02D92C
:1010AC0016246442D2E7FF21019B074A8B4323435A
:1010BC00EF390B439460D36001231F431761E4188D
:1010CC0001360C35BFE7C04690ED00E00522034B1E
:1010DC005A60BFF34F8FBFF36F8F704790ED00E0F6
:1010EC00BFF35F8F0022014B5A60704790ED00E018
:1010FC0010B5034C01232278FFF79EFF207010BD22
:10110C00A8020020F8B5114D2C68082C1BD8FFF74D
:10111C00E7FF102669680022FF2501270C4894423E
:10112C0005D10C4B1C70FFF7D1FF0020F8BD82607D
:10113C000B68AB4313433343C3608B6801323B43AF
:10114C0003610C31EBE701204042EFE7043100086A
:10115C0090ED00E0A8020020014B18607047C046DB
:10116C0004000020023910B5012903D8034B1B6879
:10117C00984710BD01204042FBE7C0460400002008
:10118C000FB407B504AB04CB022104480193FFF75D
:10119C00D9F903B008BC04B01847C046732800083E
:1011AC00F8B504000E000127C5005519B44200DB48
:1011BC00F8BD3B00A3400A4AD16819408B4203D0CA
:1011CC00116919408B4207D1D36013612B68002B36
:1011DC0002D020006968984701340835E6E7C0461C
:1011EC0000180240064B0200185601239340054993
:1011FC0010B5CC6F2343CB67FFF794FD10BDC046F1
:10120C001B330008041802401F2805DC0122824011
:10121C000249CB6F9343CB677047C046041802401A
:10122C0010B50400080003290CD80123104AFEF75E
:10123C0049FF020A0E16A3401168994311605168C8
:10124C009943516010BDA34011681943F6E7A340C0
:10125C00516819435160116899431160F2E7A3403A
:10126C0011681943116051680B435360EAE7C0469B
:10127C0000180240064B10B5C400E058002803D1FA
:10128C00E1501B195A6010BD10204042FBE7C046CC
:10129C00800100200022034BC000C2501B185A6072
:1012AC007047C046800100201FB5086805282ED85D
:1012BC00FEF708FF032D0F192D23164A4868916B72
:1012CC0001439163936B03400093009B002005B096
:1012DC0000BD104A4868D16B0143D163D36B034006
:1012EC000193019BF2E70B4A4868116C01431164AE
:1012FC00136C03400293029BE8E7064A4868516B63
:10130C0001435163536B03400393039BDEE7862039
:10131C004042DCE700100240086800B505281DD8E3
:10132C00FEF7D0FE031C0A101C160E4A4968936B7C
:10133C008B439363002000BD0A4A4968D36B8B43EF
:10134C00D363F7E7074A4968136C8B431364F1E7DF
:10135C00044A4968536B8B435363EBE78620404246
:10136C00E9E7C046001002400B68032B02D9053B8D
:10137C00012B04D80020034B1B6813607047862098
:10138C004042FBE73C000020002330B587B00193BE
:10139C00029300F041F803A801F090FA8022194C56
:1013AC00D2002368134207D1802321685B000B43D2
:1013BC00236023681342FCD00722A3689343A360E5
:1013CC00A368114A1340A3603823A26815001D407E
:1013DC001A42FAD123680D4A01A913402360E3682D
:1013EC000B4A03A81A408023DB041343E36000F08C
:1013FC006FFC2368074A1340236001F067FA28004A
:10140C0007B030BD00100240FFF0FFFFFFFFFFFEF2
:10141C00FFFFFFF1FFFFFEFF8020064A4005D16B66
:10142C0082B00143D163D36B03400193019B02B0A3
:10143C007047C0460010024009480A4B10B51860AE
:10144C0001F021FC002808D0074C2000FFF784FE97
:10145C002000FFF771F8002010BD13204042FBE77D
:10146C002C2F0008000200207914000870B504002D
:10147C00074D0A2804D1286883680D215B689847BA
:10148C0028688368E1B25B689847200070BDC0464D
:10149C0000020020F8B51D0080230C0047681100E5
:1014AC009B010269994221D1C022E30452031340EB
:1014BC00A210134303221A402A49183292005258A0
:1014CC0007211B0C99400A40DA401300BA68002629
:1014DC009A4209D12000FFF797FE2000FFF7DAFEB1
:1014EC0031002000FFF79CFE3000F8BD8023DB01AB
:1014FC00994232D020001C49FFF7BCFE061E2FD1AA
:10150C00C022E30452031340A21013431A00032118
:10151C000A40144992005218116EBF681B0C080047
:10152C0007219F4099403B00884303431366802367
:10153C000121DB029D4209D0C0230231DB029D4216
:10154C0004D00A4BED186B425D4169002000FFF797
:10155C0067FE2000FFF746FEC6E786267642C3E705
:10156C001026FBE700180240772900080000FEFF58
:10157C0070B545680C4C0C3500290DD0200001F0DD
:10158C0082FB002802D11320404270BDA3681B6867
:10159C00290020009847F8E7200001F074FB002890
:1015AC00F1D0A3685B68F3E76C2E000843681B68F6
:1015BC00EFF31081012282F31088986802439A603D
:1015CC0081F310880C4A934205D00C4A934202D006
:1015DC000B4A934203D1402259680A435A60EFF3F5
:1015EC001081012282F310881868FF3202431A60BE
:1015FC0081F310887047C046003801400044004019
:10160C000048004043681B68EFF31080012181F310
:10161C0010889A688A439A6080F310880C4A934227
:10162C0005D00C4A934202D00B4A934203D140217D
:10163C005A688A435A60EFF31081012282F31088B2
:10164C0006481A6802401A6081F310887047C04639
:10165C00003801400044004000480040FFFEFFFFFE
:10166C00F7B5036945680C002E685F680C353800C7
:10167C0001F009FB002817D0BB68DB68002B13D0E6
:10168C002900380001AA984700280DDB3368074A67
:10169C0013403360002C07D0019B60082100C01858
:1016AC00FEF724FD80B2F060F7BDC046FF7FFFFF60
:1016BC00F7B503694668344F346800935F603300B4
:1016CC000C3305000193380001F0DDFA002802D13B
:1016DC0005204042FEBDBB6838001B680199984745
:1016EC00071EF5D16B68316A1A68F06901F022F8AF
:1016FC000028EFDB0122236893432360EFF3108172
:10170C0082F3108823680B321343236081F3108813
:10171C00B369022B2ED0012B31D03B0020681B4A21
:10172C001F431040074327606368194A13406360E6
:10173C00337D002B06D0C0216B6889001A68936832
:10174C000B439360009B28001968FFF789FF012366
:10175C0022681343236080239B03E2691A42FCD066
:10176C008023DB03E2691A42FCD02800B368984757
:10177C000020AFE7802780237F01DB00CEE78027A6
:10178C00C0237F01F9E7C0466C2E0008FFE9FFEF8C
:10179C00FFCFFFFFF0B5036985B0039343680D00DD
:1017AC001C680B79012B16D09A1E51424A419202A9
:1017BC0069790292022911D84D4A4F00BA5A019206
:1017CC00AA79022A0DD0042A00D18AE01F007E1EBD
:1017DC00B7413F0308E0C022D200E9E78022920122
:1017EC00EDE75F425F413F07EE7900960026B44675
:1017FC00009E012E02D1C026B600B446DE1E012E7C
:10180C0000D871E0002B02D0042A00D16CE0022336
:10181C00994369D0012A67D9042A65D0009B002B13
:10182C001AD0344B9C4214D0334B9C4211D0334BC6
:10183C009C420ED0324B9C420BD0324B9C4208D077
:10184C00314B9C4205D0314B9C4202D0304B9C42D8
:10185C004AD1009B012B47D1012223689343C0221C
:10186C0023602368D2001340029A9A4205D0236861
:10187C00284A1340029A13432360C02263689201E2
:10188C001340019A9A4205D06368234A1340019A87
:10189C00134363602368214A13409F4204D023689A
:1018AC001F4A13403B432360C022A368920013409D
:1018BC009C4505D0A3681B4A134062461343A360A2
:1018CC00039B29681B68994204D0FFF7C9FE2B685B
:1018DC00039A13600123002022681343236005B090
:1018EC00F0BD80277F017FE786204042F7E7C046A6
:1018FC00CC32000800380140004400400048004051
:10190C00004C004000500040003C01400080004072
:10191C0000840040FFF9FFFFFFCFFFFF0010001015
:10192C00FFEFFFEFFFFCFFFF036930B51B6880245E
:10193C000B604368C0201A68C0001368E4000340C1
:10194C000220A34204D01E481B1858424341D8B26F
:10195C00C024802508715368A401002023406D0128
:10196C00AB4206D00230A34203D00130002B00D191
:10197C000238C02448711068124BE40018401368F8
:10198C00234080246401A04212D080246405A0422C
:10199C0012D15842434101338B719368C02292009B
:1019AC001340094A00209B185A425341CB7130BD59
:1019BC00584243410333EFE7584243410233EBE7CC
:1019CC0000FAFFFF0010001000FDFFFF0A4B30B5BE
:1019DC0099681868094A9C68094DC00301D4A14252
:1019EC0004D211682868091811601B682B681068EC
:1019FC00C018001B30BDC04610E000E07002002093
:101A0C006C02002070B5FFF7E1FF0C4B0C4A186814
:101A1C0011680C4C40181060C821002225681A600F
:101A2C004901401BFEF762FBC8235B0143435B1972
:101A3C00236000F07DFDFFF757FA70BD70020020A7
:101A4C0068020020640200200020094A136A1B026D
:101A5C001B0A1362074A084B1A60084B1860084BA4
:101A6C005A600722986019680A431A607047C0468A
:101A7C0000ED00E0FF1800006C0200207002002056
:101A8C0010E000E0F0B50400364E374F85B0002969
:101A9C000AD0431C08D10122336893433360FF23DF
:101AAC001B063B6005B0F0BD3B680293631C32D152
:101ABC002E4C2E4B9C4233DCEFF3108372B6039307
:101ACC00FFF784FFB3680093294B1A68851800222E
:101ADC001D60284B1A60284B1B680193E81A904232
:101AEC0020DA8023DB003B603A68B368013A72600D
:101AFC000022B260009A9A422FD294460298604417
:101B0C00C01A45191A4B1D60039B002BCAD162B633
:101B1C00BFF36F8FC6E7013C002CCADC0024CBE777
:101B2C00164CC9E7C823C8215B015C43144B001950
:101B3C00C0184901FEF7DAFAC8235B014343019A46
:101B4C00501BC0188023DB00984204D90D4B9842DF
:101B5C00C9D83860C8E71800FBE7009AD31A5D199A
:101B6C00D0E7C04610E000E06C0200203B0A000009
:101B7C006802002070020020640200203C0A000071
:101B8C00FF18000000DCFF0010B5EFF3108472B6F4
:101B9C00FFF71CFF074B084A1B6812689B1A1818A2
:101BAC00002C02D162B6BFF36F8FC8214901FEF73A
:101BBC009DFA10BD680200206402002010B5EFF3FE
:101BCC00108472B6FFF702FF044B1B68C018002C80
:101BDC0002D162B6BFF36F8F10BDC0466802002001
:101BEC000E4B421E10B59A4216D80D4A0223904253
:101BFC0003D80C4B83429B415B4207240A490020CB
:101C0C000A68A2431A430A600A682240934204D02D
:101C1C000A682240934200D0012010BDFF8FD003F0
:101C2C00006CDC0200366E01002002400B68234A77
:101C3C001B051B0F9B009B581F221340D84070B5EF
:101C4C001F4E0D0033680400834229D380221D4BA4
:101C5C00520419680A431A608022D96852050A4353
:101C6C00DA608022920419681142FCD09A681649F5
:101C7C000A4029680A4307219A609A688A4311002E
:101C8C0002220A4338219A609A680A40102AFBD132
:101C9C009A680E4900200A4069680A439A6003E07A
:101CAC00FFF79EFF0028D1D03368A34202D9200051
:101CBC00FFF796FF002800D1346070BD7432000825
:101CCC003C00002000100240FFF0FFFFFF8FFFFFE1
:101CDC00184AF8B50E00116803000120890128D4B8
:101CEC00802019685D689C681368C000034207D1A6
:101CFC00802317685B003B43136013680342FCD0DE
:101D0C00D3680D4803402802034302200B432343AE
:101D1C0003430909D36001310848FEF7E7F97F2333
:101D2C00610F1D4001316843FEF7E0F93100FFF708
:101D3C007DFFF8BD001002408C80FF1F0024F400D2
:101D4C00F8B50F4F8300DD59013084003B59AB428D
:101D5C0000D8F8BD6E682B6830009847002E0DD067
:101D6C00F368002806D0C21780185040FF2800DD09
:101D7C00FF20187001215A780A435A700835E5E79C
:101D8C00B4320008104903025918104B30B5C40185
:101D9C00E41800230125802287B005930293019358
:101DAC00183343430A480495C0180E350090094B6C
:101DBC0020000395520000F09BF80422637B9343B0
:101DCC00637307B030BDC046B00600207800002019
:101DDC0074020020E52C000810B50124094B0220E8
:101DEC001C70FFF7ADFF00F0FDFF0320FFF7A8FF0D
:101DFC0000F0ACF8FEF74AFB034A137BA3431373C2
:101E0C0010BDC046A9020020F800002010B5034800
:101E1C00034A0021121A00F01AFD10BD78000020B0
:101E2C00AC0200208022F0B5284B1201A9B09B18FF
:101E3C00069383F308882649264A0B6A00241A4025
:101E4C00C0231B0413430B6200F0B1FCFEF75CFFD4
:101E5C00FFF758F9FFF7E2F802221F4E08ABFF32EA
:101E6C009A81B3602194229400F00CFF2000FFF7BC
:101E7C0067FF0120FFF764FF00F00EFA174D184BB7
:101E8C00B561802205930123164F17490493D200A4
:101E9C003B002800039402940194009400F028F86D
:101EAC00042207906B7B280093436B7300F049FF6F
:101EBC002000FFF767FF0D4B3A00F360069B2800EC
:101ECC00079934757360FEF7EBFFC046B00700202E
:101EDC0000ED00E0FFFF00FF74020020F80000207E
:101EEC0074330008E51D0008B002002078000020C3
:101EFC007FB504005830A065E0650C980025207370
:101F0C00042060730B980732A073072082438E184D
:101F1C00A2660A9A20000292099AA5600192089A78
:101F2C00E5730092A5613200E5616166E566FEF736
:101F3C00A1FF054B65659B68AB4200D01B6F300061
:101F4C00236704B070BDC0467402002070B5204CED
:101F5C0086B026001F4DAC4208D300F08BF834003D
:101F6C00AC4219D300F082F906B070BDE36A059358
:101F7C00236A0493E3690393A3690293636901934E
:101F8C0023690093E368A26861682068FFF7B0FFDB
:101F9C0023685C653034DDE7606A431C0FD0C343B3
:101FAC00DB1718400A220023C117FEF769F92668CF
:101FBC000B000200014304D1300000F03DF9303435
:101FCC00CEE730000449183000F03AFAF7E7C04683
:101FDC007400002074000020672D000810B5074C19
:101FEC002368002B09D0FFF7CFFD03002068044ABB
:101FFC00C3180021136100F0DFFE10BDA002002009
:10200C007402002010B5EFF3108472B600220B4B53
:10201C001A610A230A4A434300280ADC1360094B5D
:10202C001960FFF7DBFF002C02D162B6BFF36F8F94
:10203C0010BD022BF2DA0223F0E7C0467402002036
:10204C00A00200209C02002010B500290AD1EFF359
:10205C000580002807D1064B9A699B689A4202D0EA
:10206C00FEF7AEFE10BD62B6BFF36F8FFAE7C04647
:10207C0074020020EFF3108172B6054B9A68D37B83
:10208C00013BD373002902D162B6BFF36F8F704747
:10209C007402002070B506000D4800F04CFE0D4D8A
:1020AC00041E00D1EC68AB68002E0AD15A7BD20614
:1020BC0007D1A269002A04D1DA897F2A01D9AB6140
:1020CC0070BD9C4201D0FFF789FFAC61F8E7C046B8
:1020DC0090020020740200200D2270B5825604007C
:1020EC00437B002A04DA7F221340437300F0FBFD8C
:1020FC008023627B5B421343134A6373D369134D92
:10210C00106AAB421BD0002B19D00E26A6570E21FD
:10211C0059568E420ED0891B00290BDD596823605D
:10212C0061600C605C609068001B43425841FFF793
:10213C00B1FF70BD834202D01B68002BE7D1256034
:10214C00606004601462EEE77402002090020020CC
:10215C00010070B5EFF3108472B6174B174A9868EC
:10216C001568A84207D1FFF739FF002C02D162B6DF
:10217C00BFF36F8F70BD00251560114A1268AA421B
:10218C0017D0C2897F2A14D8427BD20611D10E25D2
:10219C000C4A4557126895420BDB0B4A904208D00B
:1021AC001A698A4202DCFFF797FFDCE7521A1A61C0
:1021BC00DBE70022FBE7C0467402002098020020F7
:1021CC00A00200209C020020780000200D2370B596
:1021DC00C356427B002B20DBD3061ED18369002B18
:1021EC001BD1803B124913434373CB69114D0C6ACD
:1021FC00AB4218D0002B16D00E2686570E229A56BC
:10220C0096420BD0921B002A08DD5A68036042608C
:10221C00106058600020FFF73DFF70BDA34202D054
:10222C001B68002BEAD10560446020600862F1E76E
:10223C00740200209002002010B5EFF3108472B6E7
:10224C000422437B134205D1002C02D162B6BFF3AA
:10225C006F8F10BD93434373FFF7B8FF2100024803
:10226C00FFF7F2FEF5E7C046AA02002010B5EFF327
:10227C00108472B6074B00209A68D37B0133D3735A
:10228C00FFF708FF002C02D162B6BFF36F8F00F08E
:10229C004BFD10BD74020020002110B5034B044A05
:1022AC000800DA611A62FFF7ADFE10BD740200205F
:1022BC0090020020014B98687047C04674020020C1
:1022CC0070B50400EFF3108672B60823427B1A42F5
:1022DC0005D0002E02D162B6BFF36F8F70BD2021E6
:1022EC00100088430100194348B2002820DB6173B9
:1022FC00A368002B02D0200000F0FDFC2000183059
:10230C0000F047FD2300A56D58339D4201D0002DF0
:10231C0016D10120FFF7BEFE104B9B68A342D8D10B
:10232C00EFF30583002BD4D13000FEF749FDD0E745
:10233C005F210A4013432000637300F0D4FCD7E7FD
:10234C00280000F0D8FC2800183000F022FD0023F3
:10235C002800AB67FFF73AFFD4E7C04674020020B1
:10236C0010B50648064A0749121A00F067FA064AE1
:10237C000649074800F062FA10BDC0460000002074
:10238C00740000207C330008000000007C3300083F
:10239C00000000200020044B10B51B68834201D1C3
:1023AC00FFF7F2FB10BDC046A4020020134BD0B5C2
:1023BC001C689C4200D10024FFF7ECFF002C12D0CB
:1023CC00226963690600C717921BBB41002B02DC14
:1023DC0012D1002A10D01000002B04DC04D1802371
:1023EC001B069A4200D30648064B1B69002B02D0F1
:1023FC00984200DD1800D0BD0020F5E74000002019
:10240C00FFFFFF7F7402002030B5036800280DD059
:10241C000A4A5268904209D0002B07D01C695D69AA
:10242C0001694269641855411C615D614268136021
:10243C005A6000230360436030BDC046400000205A
:10244C00F7B5040016001F00531C01D17B1C67D08C
:10245C00A160EFF3108372B602204042C1170193C2
:10246C0002000B00921BBB41002B1BDB2D4B1A688F
:10247C005B68801A9941801BB94102000B1E05DC78
:10248C00002901D1002801D10122002322616361BE
:10249C00254F3D687E68BD4218D127606660346068
:1024AC007C6027E0FFF776FF01220023B6185F411E
:1024BC000200C317B6185F4126616761E8E7121A7C
:1024CC008B4122616361AE42E7D02D68002DE4D0D0
:1024DC002869696922696369994202DCEFD19042EB
:1024EC00EDD9801A99416B68286169616360256038
:1024FC001C606C603B68BB420CD09C420AD1FFF75D
:10250C0055FF002803D0094B1B69834202D00021E0
:10251C00FFF7B8FA019B002B02D162B6BFF36F8FA5
:10252C00F7BDC04678010020400000207402002056
:10253C00F0B58BB00400FFF70BFEEFF3108372B60F
:10254C000593324B1C60324B3248304D1C6801688D
:10255C0042680691079229689C4219D0002C17D02A
:10256C002269636900920193019ACB17029103933C
:10257C009A4203DC23D1009A8A4220D9029A039B07
:10258C00009E019FB61A9F4132003B00226163619D
:10259C00069E079F0A00CB17B6185F410024066001
:1025AC0047602C60FFF702FF2100FFF76BFA059BD9
:1025BC00A34202D162B6BFF36F8F0BB0F0BD009B8C
:1025CC00069E079F0893DB170993089A099BB61878
:1025DC005F41104B20001E605F60009BCA1A0B4BC2
:1025EC001A600023002222616361FFF70DFF059B37
:1025FC00002B02D162B6BFF36F8F2000A3689847FF
:10260C00EFF3108372B605939DE7C046A402002039
:10261C00400000207801002070B5041E12D0FFF796
:10262C00CDFA0023084A050000212000FDF728FE02
:10263C000023064AFDF704FE0400FFF7BFFA401B17
:10264C00A042FAD370BDC0460090D00340420F00A8
:10265C0070470020704710B50400080011001A00E4
:10266C00A047FFF727FEFEF7C3FCF0B585B001903D
:10267C000393D37815001A00413A0F0008240292F4
:10268C006F2B0AD004D80234582B06D1063404E040
:10269C0008220A249343702BF8D00A9E22000023B0
:1026AC0039000198FDF7CCFD13008C46D2B2092BF2
:1026BC0019D813003033DBB2013E33700023BB4218
:1026CC0002D1019B9C4202D8039B9E4208D82B78D6
:1026DC009B0613D5082C0FD1AB781C43AC700DE0C6
:1026EC0067460190DAE7130002995733DBB21929D8
:1026FC00E2D83732D3B2DFE7102CEDD0300005B082
:10270C00F0BDF7B50F0015001E0014000190601B02
:10271C00A64204D8002E09D12378002B06D02078AD
:10272C003900019B984701340028F0DAFEBD704750
:10273C0000207047F7B50400019100291BD000263A
:10274C00FF2735002368F0211A003A400B4214D1C0
:10275C00202561680D43190B09011B053940180F21
:10276C0008432900FEF7AEFA0834002804D1019B77
:10277C0001369E42E6D10020FEBD102AEBD1302559
:10278C00E9E710B500F092FA10BD10B50100006831
:10279C0000F08CFA10BD10B500210120FFF7F1FFFD
:1027AC0010BD10B5FEF7F4FAFEF79EFB10BD704796
:1027BC00030030B51A78202A0DD0110009390429EC
:1027CC0009D92B2A09D000212D2A01D1013301313D
:1027DC0000200A2508E00133ECE700210133F7E77C
:1027EC00684330300133801A1A781400303C092CBD
:1027FC00F6D9002900D1404230BD030000201A5CFC
:10280C00002A00D170470130F9E7030000201A5C60
:10281C00002A01D0884200D170470130F7E730B56B
:10282C000500101E09D00024013A2B5D085DA24260
:10283C0002D001348342F8D0181A30BD002310B5F1
:10284C009A4200D110BDCC5CC4540133F8E70300AC
:10285C00C9B28218934200D1704719700133F9E75D
:10286C0001204042704710B5FEF77CFC10BD0022E1
:10287C0010B511000520FEF761FA002206201100A8
:10288C00FEF75CFA002207201100FEF757FA002031
:10289C0010BD10B5026910210420FEF781FC10BD9B
:1028AC0010B5026904210220FEF77AFC10BD10B5A8
:1028BC00026902210020FEF773FC10BD082343605F
:1028CC000023036080239B05836070477047436837
:1028DC0000205B681B690B60704743685B68586934
:1028EC00424011404140596100207047436800202C
:1028FC005B6899617047436800205B689962704718
:10290C00436800205A6853694B4053617047036910
:10291C0030B598680024002804D1002A1AD1002070
:10292C0030BD280081420FD10868DD68002C06D12B
:10293C0098608D4200D1D86000200860EDE72060DF
:10294C008D42F9D1DC60F7E705680400002DE8D171
:10295C00002A07D09A68D8680A6099600028DED1EE
:10296C00D960DDE716204042DAE70B00896870B5C4
:10297C00002910D0012585405E680C688B681A0010
:10298C002A402B4202D030004B689847002C02D0D2
:10299C0021002468F2E770BDF0B5012685B0302423
:1029AC0002934368144058683300019494098B4097
:1029BC0034408C40456802369D432C434460846807
:1029CC000327A4461C008C406643F5430395D509A8
:1029DC003D4065432F006546B5432F438760032771
:1029EC00520A3A406243C568B5432A43C260019A11
:1029FC00202A0CD1072914DC23008B408B400F219B
:102A0C005943026A8A4302994B4313430362019B65
:102A1C0002681B095C43039B1A401443046005B015
:102A2C00F0BD0F211B0A5B435B435943426A8A4347
:102A3C0002994B4313434362E9E770B58024A40029
:102A4C001300224218D09A070FD55A072DD55022C1
:102A5C00DD060CD522431C051ED45B0517D50123BE
:102A6C008B4044686468A36211E01022F0E79C0676
:102A7C00F1D58024E400EDE73022DD0507D52200F6
:102A8C00DC0604D420241A00224023420AD100235D
:102A9C00FFF782FF002070BD01238B4044686468FF
:102AAC00A361F4E78022D200F1E786204042F2E7EE
:102ABC0010B5036901215860FEF75AFD10BD0822BC
:102ACC0043681B68D869104200D01A62DA69920612
:102ADC0003D500205B6A0B70704701204042FBE776
:102AEC00802243681B68D8691042FCD099627047F9
:102AFC0043681A68EFF31081012383F31088106880
:102B0C003F330343136081F31088704743681A689E
:102B1C00EFF31081012383F3108840201368834363
:102B2C00136081F31088704743681A68EFF31081C3
:102B3C00012383F3108810681F330343136081F360
:102B4C001088704743681A68EFF31081012383F3F0
:102B5C001088202013688343136081F3108870471A
:102B6C000120704703699960DA607047026910B5FB
:102B7C009368002B01D0D168984710BD002210B586
:102B8C0011001B20FEF7DAF81B20FEF7CBF810BD66
:102B9C00002210B511001C20FEF7D0F81C20FEF707
:102BAC00C1F810BD43681B68D8694006C00F704758
:102BBC00436800201B68DA69120602D518684006C3
:102BCC00C00F7047436830B5002080251B68141A6D
:102BDC00002C07DDDC692C4204D0441C085C986294
:102BEC00E0B2F4E730BD202243681B68D96911427A
:102BFC0003D019680120114206D1DA69002052066F
:102C0C0002D518684006C00F704743681B68D86926
:102C1C008006C00F7047F0B54368202600200825B9
:102C2C001B68141A002C0CDDDC69344209D05F6A75
:102C3C00441C0F54D869E4B2284200D01D62200015
:102C4C00EFE7F0BD0121436810B51B680222D8697B
:102C5C00DC69C00808400C4200D01043D96911420D
:102C6C0001D004221043C20701D508221A62820740
:102C7C0001D501221A620422104201D002211962EC
:102C8C001A6210BD7047002808D0C3681888C005A8
:102C9C00C00D0138FF3843425841C0B27047EFF3C2
:102CAC00108372B6FEE710B5FFF7F9FFF8B5050013
:102CBC000E00EFF3108772B6FFF7FCFA3100040038
:102CCC002800FFF7F0FF002F02D162B6BFF36F8F21
:102CDC002000FEF78DF9F8BD10B5EFF3108372B636
:102CEC00FEF718F8F9E70368426813605A6000238E
:102CFC0003604360704710B50400FFF7F4FF022235
:102D0C00637B934363730023A36010BD10B500284D
:102D1C0005D1EFF30580002802D1FEF751F810BD64
:102D2C0062B6BFF36F8FFAE710B5EFF3108072B68F
:102D3C00FFF7ECFF10BD03000068834200D10020B8
:102D4C00704710B5EFF3108472B6FFF73FFA002C02
:102D5C0002D162B6BFF36F8F10BD183870B5040086
:102D6C00EFF3108572B62823427B1A420BD183688D
:102D7C00002B01D0FFF7BFFF1422637B200093438D
:102D8C006373FFF723FA002D02D162B6BFF36F8F86
:102D9C0070BD10B5EFF3108472B60368002B08D029
:102DAC00FFF732FB0020002C02D162B6BFF36F8F0D
:102DBC0010BD16204042F6E770B504000D00EFF38D
:102DCC00108672B6FFF7F2FA012805DDA04203DB8C
:102DDC0029002000FEF756FE002E02D162B6BFF38A
:062DEC006F8F70BD7047FF
:022DF200FFFFE1
:082DF400F4D4FF7F0100000090
:102DFC00850C0008000000003D27000800000000C2
:102E0C00951300086C2E0008BD2A0008842E0008BB
:102E1C00BD2A00089C2E0008BD2A0008B42E00080C
:102E2C00BD2A0008CC2E0008BD2A0008E42E00089C
:102E3C00BD2A0008FC2E00087B280008142F00086F
:102E4C00BD1600082C2F0008BD160008442F0008E2
:102E5C00551A00085C2F00084514000800000000FB
:102E6C002B33000800000000080000204C0000205C
:102E7C0000000000C2300008383300088831000818
:102E8C009C3100085000002054020020BA30000889
:102E9C003E330008743100089C31000854000020B7
:102EAC0044020020B23000084433000860310008AE
:102EBC009C3100085800002034020020AA30000881
:102ECC004A3300084C3100089C3100085C0000209B
:102EDC0024020020A23000085033000838310008CA
:102EEC009C31000860000020140200209A30000879
:102EFC0056330008243100089C310008640000207F
:102F0C000402002092300008FD320008000000008E
:102F1C000000000048000020800100208C300008D8
:102F2C005C330008043200082832000868000020D6
:102F3C002C0000207E30000863330008E0310008CC
:102F4C00283200086C0000201C00002070300008A3
:102F5C006A33000800000000000000007000002030
:082F6C00000000006C300008B9
:102F740000000000A327000800000000A3270008A9
:102F840000000000A327000800000000A327000899
:102F940000000000A3270008142F0008BB28000825
:102FA400142F0008AD280008142F00089F280008DB
:102FB40000000000A327000800000000A327000869
:102FC40000000000A327000800000000A327000859
:102FD40000000000A327000800000000A327000849
:102FE40000000000A327000800000000A327000839
:102FF40000000000A327000800000000A327000829
:1030040000000000A327000800000000A327000818
:1030140000000000A327000800000000A327000808
:1030240000000000A327000800000000A3270008F8
:1030340000000000A327000800000000A3270008E8
:1030440000000000A3270008442F0008792B000883
:103054002C2F0008792B000800000000A32700088B
:0830640000000000A327000892
:10306C00FF7FFF7F0100FF7FFF7FFF7FFF7FFF7FE1
:10307C00FF7F0100FF7FFF7FFF7FFF7FFF7FFF7FD1
:10308C00FF7FFF7FFF7F0100FF7FFF7FFF7F01003E
:10309C00FF7FFF7FFF7F0100FF7FFF7FFF7F01002E
:1030AC00FF7FFF7FFF7F0100FF7FFF7FFF7F01001E
:0E30BC00FF7FFF7FFF7FFF7FFF7FFF7FFF7F94
:0230CA00FFFF06
:1030CC00FC2E0008E42E0008CC2E0008B42E0008BC
:1030DC009C2E0008842E0008000000000000000058
:1030EC0000000000000000000000000000000020B4
:1030FC000000000000000B06020000000C3100086C
:10310C0000000008EE320008240002070000002036
:10311C00F632000822000B11FFFF000000000050E7
:10312C00000000000500000001000000FFFF00008F
:10313C000004005001000000050000000200000027
:10314C00FFFF000000080050020000000500000016
:10315C0004000000FFFF0000000C00500300000002
:10316C000500000008000000FFFF000000100050E8
:10317C00040000000500000010000000FFFF00002C
:10318C0000140050050000000500000020000000A5
:10319C00472A0008DB280008E7280008F92800085F
:1031AC00032900080D290008A11400081B29000898
:1031BC0000000000012400000002000001250000B6
:1031CC0000000000010200000002000001030000EA
:1031DC00000000000038014000000000892B0008AE
:1031EC000300000000400000000000000000000090
:1031FC00C031000802000000004400400000000044
:10320C009D2B0008020000000000020000000000DE
:10321C0000000000D031000802000000CB2A00089A
:10322C00ED2A0008512C0008A117000835190008D8
:10323C00D12B0008232C0008FD2A0008192B0008AC
:10324C00BD2B0008352B0008512B0008B12B0008B2
:10325C00172C0008B915000811160008F32B0008EC
:10326C006D2B0008712B000800000000000000000E
:10327C000000000000000000000000000000000042
:10328C00000000000000000001000000020000002F
:10329C00030000000400000006000000070000000E
:1032AC000800000009000000FC2D00085C2E00083E
:1032BC00642E00086C2E00086C2E0008F5FFFFFF32
:1032CC000010000000307B696E69747D00626175CE
:1032DC00643A007B6368616E67657D00286E696C7B
:1032EC002900464C4153485F30005352414D5F30EA
:1032FC0000696E746572727570742D636F6E747282
:10330C006F6C6C65724034303032313830300005BF
:10331C0005060607070707070707070707070772CA
:10332C006363403430303231303030004750494FD5
:10333C0046004750494F45004750494F44004750BD
:10334C00494F43004750494F42004750494F4100B5
:10335C00554152545F3200554152545F31007379DC
:10336C00735F636C6F636B006D61696E00000000CE
:10337C005F2600086D280008B51200082513000808
:10338C0000000000751300080000000000C20100DE
:10339C0000000000000000000000000000C201005E
:1033AC000000000000000000000000000024F400F9
:0833BC00400000204000002049
:1033C40000000000000000000000000000000000F9
:1033D40000000000000000000000000000000000E9
:0C33E400000000000000000000000000DD
:0400000508000FD50B
:00000001FF
