:020000040800F2
:10000000680600208D1100085125000861110008C4
:100010006111000861110008611100080000000072
:10002000000000000000000000000000F50E0008C5
:100030006111000800000000AD0E0008091800085A
:10004000710F0008710F0008710F0008710F000890
:10005000710F0008710F0008710F0008710F000880
:10006000710F0008710F0008710F0008710F000870
:10007000710F0008710F0008710F0008710F000860
:10008000710F0008710F0008710F0008710F000850
:10009000710F0008710F0008710F0008710F000840
:1000A000710F0008710F0008710F0008710F000830
:1000B000710F0008710F0008710F0008710F000820
:1000C000710F0008710F0008710F0008710F000810
:1000D000710F0008710F0008710F0008710F000800
:0C00E000710F0008710F0008710F00087C
:1000EC0053B94AB9002908BF00281CBF4FF0FF3193
:1000FC004FF0FF3000F076B9ADF1080C6DE904CE8D
:10010C0000F006F8DDF804E0DDE9022304B07047E6
:10011C002DE9F047089E0D4604468846002B4DD12C
:10012C008A42944668D9B2FA82F252B101FA02F3C9
:10013C00C2F1200120FA01F10CFA02FC41EA030899
:10014C0094404FEA1C41B8FBF1F71FFA8CFE01FBFF
:10015C00178807FB0EF0230C43EA084398420AD990
:10016C001CEB030307F1FF3580F01E81984240F22F
:10017C001B81023F63441B1AB3FBF1F001FB1033EC
:10018C0000FB0EFEA4B244EA0344A6450AD91CEBBC
:10019C00040400F1FF3380F00981A64540F206818A
:1001AC00644402380021A4EB0E0440EA07401EB15F
:1001BC000023D440C6E90043BDE8F0878B4208D940
:1001CC00002E00F0EE800021C6E900050846BDE8CF
:1001DC00F087B3FA83F100294AD1AB4202D38242B1
:1001EC0000F2FC80841A65EB030301209846002E74
:1001FC00E2D0C6E90048DFE702B9FFDEB2FA82F2CC
:10020C00002A40F09180A1EB0C0001214FEA1C4721
:10021C001FFA8CFEB0FBF7F307FB1300250C45EA25
:10022C0000450EFB03F0A84208D91CEB050503F1B1
:10023C00FF3802D2A84200F2CE8043462D1AB5FBFD
:10024C00F7F007FB10550EFB00FEA4B244EA054480
:10025C00A64508D91CEB040400F1FF3502D2A645D3
:10026C0000F2B6802846A4EB0E0440EA03409EE759
:10027C00C1F120078B4022FA07FC4CEA030C25FA4B
:10028C0007FA4FEA1C49BAFBF9F820FA07F309FB05
:10029C0018AA8D401FFA8CFE1D4300FA01F308FBCF
:1002AC000EF02C0C44EA0A44A04202FA01F20BD9DB
:1002BC001CEB040408F1FF3A80F08880A04240F265
:1002CC008580A8F102086444241AB4FBF9F009FBF8
:1002DC00104400FB0EFEADB245EA0444A64508D915
:1002EC001CEB040400F1FF356CD2A6456AD9023828
:1002FC00644440EA0840A0FB0295A4EB0E04AC4217
:10030C00C846AE4656D353D0002E69D0B3EB080284
:10031C0064EB0E0422FA01F304FA07F71F43CC40F6
:10032C00C6E90074002147E70CFA02FCC2F1200177
:10033C0025FA01F34FEA1C4720FA01F195400D43D1
:10034C00B3FBF7F107FB11331FFA8CFE280C40EAC4
:10035C00034001FB0EF3834204FA02F408D91CEBB0
:10036C00000001F1FF382FD283422DD902396044AD
:10037C00C01AB0FBF7F307FB1300ADB245EA00451A
:10038C0003FB0EF0A84208D91CEB050503F1FF385E
:10039C0016D2A84214D9023B6544281A43EA0141FB
:1003AC0038E73146304607E72F46E4E61846F9E6CB
:1003BC004B45A9D2B9EB020865EB0C0E0138A3E74B
:1003CC004346EAE7284694E74146D1E7D0467BE727
:1003DC006444023847E7023B65442FE7084606E7CA
:1003EC003146E9E6704700BF2DE9F04395B0284D42
:1003FC00AB681B6913B1284602A99847254800F041
:10040C00F9FE0024224EDFF89080DFF89090AF6860
:10041C003B68002BFCD030460DF1070198470028B3
:10042C00F6D102219DF8070002F0F1F89DF8073093
:10043C007B2B03D100248DF81040E8E77D2B1ED1D7
:10044C000522414604A802F0BAF80028DFD10DF1CC
:10045C00150002F07EF8041EECDD4FF47A7001F00A
:10046C00B1FF0294FB6813B1304602A998474FF4D0
:10047C007A7001F0A7FF484600F0BCFEDAE73E2C8C
:10048C00C5D804F150026A4402F8403C0134BEE77E
:10049C00382D0008763000087D30000883300008C5
:1004AC00014B1860704700BF000000202DE9F04F91
:1004BC008B4692461C46002591B002909AF800009B
:1004CC0008B928465FE325280AF1010707D05946E9
:1004DC00029B98470028C0F25683013512E218227D
:1004EC0000210AA802F087F89AF80130252B78D061
:1004FC0000221046964694461646394617F8013B9C
:10050C002B2B00F09D8000F29480202B00F09B8020
:10051C00232B00F09B802EB19DF8306046F0040632
:10052C008DF83060BCF1000F05D09DF8306046F0BE
:10053C0008068DF83060BEF1000F05D09DF83060D4
:10054C0046F010068DF8306028B19DF8300040F070
:10055C0020008DF830002AB19DF8302042F0400286
:10056C008DF830209DF8302002F04400442803D14F
:10057C006FF386128DF830209DF830202A2B42F034
:10058C0080028DF830207BD19DF831204B1C42F03D
:10059C0001028DF831201A782E2A0CBF012100217E
:1005AC009DF8312061F341028DF8312074D15A78D5
:1005BC002A2A6AD000210A260133184610F8012B8A
:1005CC00A2F13007092F40F28E809DF830200E9159
:1005DC00C2F3400040EAD17161F341028DF8302042
:1005EC005AE00AF102078DF833309DF83130D90703
:1005FC0040F1498154F8049BB9F1000F07DA9DF8DA
:10060C003020C9F1000942F004028DF830205A075D
:10061C0040F1428154F8048BB8F1000F80F2418113
:10062C009DF831306FF341038DF831304FF0FF38C6
:10063C0037E12D2B0CD0302B7FF46DAF01225CE712
:10064C004FF0010C59E74FF0010E56E7012054E72B
:10065C00012652E733460CFB0202303A1E4616F8CE
:10066C00010BA0F13007092FF4D9994293D09DF8D2
:10067C0030100D92D20F62F341018DF830108AE7E1
:10068C000B4600224FF00A0CE8E79DF831200233AC
:10069C0042F004028DF831201F4617F8012B6C2A0A
:1006AC0041D025D8682A2BD06A2A46D04C2A4CD067
:1006BC001F4617F8012B9DF83130782A8DF833201E
:1006CC0000F2D980572A4DD8412A03D0453A022A44
:1006DC0000F2D18004229DF8323062F302038DF8CF
:1006EC00323001239EE006FB01210346303964E7DA
:1006FC00742A26D07A2ADBD106229DF831300DE0FF
:10070C005A78682A9DF8312006D1012161F3C6027E
:10071C008DF831209F1CCCE71346022262F3C603EE
:10072C008DF83130C5E75A786C2A9DF8312001D10B
:10073C000421EBE713460322F0E705229DF8313044
:10074C00ECE707229DF83130E8E7BDF8303023F4B0
:10075C00F04323F0020343F4804343F00203ADF86B
:10076C003030A6E7A2F15801202900F2848001A0C4
:10077C0050F821F045080008830800088308000899
:10078C008308000883080008830800088308000811
:10079C008308000883080008E106000883080008A5
:1007AC004508000805080008E1060008E1060008F5
:1007BC00E106000883080008050800088308000803
:1007CC008308000883080008830800084D08000807
:1007DC004508000869080008830800088308000819
:1007EC006908000883080008450800088308000809
:1007FC00830800084508000801209DF8321003F01A
:10080C00780360F30201402B8DF8321002BF9DF883
:10081C00301041F001018DF83010632A31D1003BCA
:10082C0018BF01239DF83020C2F340010B4363F342
:10083C0041028DF83020D8E602209DF83210DEE718
:10084C0003219DF8322003F07803A3F1400061F3FB
:10085C00020243428DF832204341E3E703219DF825
:10086C00322013F0780F61F3020214BF012300232E
:10087C008DF83220D6E79DF8303043F001038DF827
:10088C0030300023CEE79DF93020002AACBF4FF06A
:10089C00FF39DDF83490BAE69B077FF5C7AEDDF87B
:1008AC0038800023CDE90D339DF832309DF831109E
:1008BC0003F00703012BC1F3C30138D1CB1E042B6A
:1008CC0022D8DFE803F003090921210054F8043B86
:1008DC00DA17CDE90A3206E0073424F00704F4E80D
:1008EC000223CDE90A239DF8303013F0030656D0CD
:1008FC003B4652465946029801F0CFFD0028C0F203
:10090C0042810544BA46D9E554F8043B01294FEA23
:10091C00E372CDE90A3205D19DF828300A93002301
:10092C000B93E0E70229DED1BDF92830D0E7022B8A
:10093C0023D1CB1E042B13D8DFE803F0030A0A12D1
:10094C00120000232268201D0A920B930446CAE76A
:10095C00E01D20F00700F0E80223CDE90A23F5E7BB
:10096C0054F8043B01290A934FF000030B93D3D0A6
:10097C000229B8D1BDF82830D0E7042B09D1E31DEA
:10098C0023F0070303F10804D3E90023CDE90A237C
:10099C00A9E7032B04BF54F8043B0A93A3E79DF883
:1009AC0033007828AED8622822D825283FF48FADA2
:1009BC005828A7D1DDE90A010DF1260300930CAAF2
:1009CC0004AB01F024FD8246B8F1000F0DF12600B6
:1009DC000CDB9DF83020A0EB0A036FF386129845D0
:1009EC008DF8302002D9A8EB03030D9380463DE02F
:1009FC006338152886D801A252F820F0890A00081D
:100A0C00ED0A000811090008110900081109000875
:100A1C0011090008ED0A0008110900081109000865
:100A2C001109000811090008470B0008150B0008F4
:100A3C00190B00081109000811090008610A0008C7
:100A4C0011090008150B000811090008110900080C
:100A5C00150B0008B8F1000FDDF828A00ADB4146A1
:100A6C00504601F0A3FD00260AEB0008BAF1000F76
:100A7C000CD147E7504601F092FDF4E700260A9BA3
:100A8C000DF1100A8DF810300DF11108A8EB0A03C6
:100A9C0006B101339DF83220D00668D502335206D8
:100AAC000D9948BF0E9A0B4448BF9B18B9F1000F23
:100ABC0076DD9DF83020A9EB0309C2F38003039384
:100ACC0053076DD4500661D546B159463046029B4A
:100ADC009847002857DB039B01351E46302356E010
:100AEC001E070FD413F0100618BF2026DDE90A23C9
:100AFC00002BBFF65FAF524263EB43032D26CDE9CB
:100B0C000A2357E72B26F1E7002653E70A9840B350
:100B1C000DF126030093002104AB0CAA01F077FC25
:100B2C00BDF83230824603F0EF0343F4F04343F058
:100B3C0010030026ADF8323046E70A9B07293FF632
:100B4C00E1AEDFE801F00C04060C08080C0C1D707B
:100B5C00D8E61D80D6E6EA17C3E90052D2E61D603E
:100B6C00D0E6DFF8C8A006460AF105088EE71107A3
:100B7C0048BF013393E7184603935946029B9847A5
:100B8C000028039B04DA11B0BDE8F08F20234D44FC
:100B9C004A46002AA5EB090109F1FF39EBDC0D46A9
:100BAC0036B159463046029B98470028EBDB01359D
:100BBC009DF83230D90601D41A0706D55946302093
:100BCC00029B98470028DEDB01359DF83230DB06AE
:100BDC0007D559469DF83300029B98470028D2DB75
:100BEC0001350D9E2E44731B002B16DC43465246DA
:100BFC005946029801F051FC0028C4DB0544A94475
:100C0C00A9EB0503002B7FF77DAE59462020029BF4
:100C1C0098470028B7DB0135F2E759463020029B94
:100C2C0098470028AFDB0135DDE700BF8C300008AA
:100C3C004FF01002EFF3118382F31288BFF36F8F22
:100C4C0083F31188BFF36F8F024B034A00201A60A5
:100C5C00704700BF2C00002000127A00AF28F8B5B6
:100C6C00174604460E464FEA101214D80B4B53F895
:100C7C00225015B96FF01200F8BD284601F0FBFEAA
:100C8C000028F7D028463B46324604F00F0101F00D
:100C9C00B3FD0020F0E76FF01500EDE7302F0008F2
:100CAC0037B50124036803F01F038C4218D3404965
:100CBC00886940F001008861896901F001010191A6
:100CCC0001993C498A4234D012D8A1F568418A4234
:100CDC004ED001F580518A421AD0002003B030BDAD
:100CEC0050F8345005F01F059D425DD10134DCE70E
:100CFC0031498A424AD001F500618A42EDD12F4A2E
:100D0C00012B53682FD143F0E06343F0040307E059
:100D1C002A4A012B536805D143F0E06343F00203E8
:100D2C005360DAE723F0E06323F0020343F0E0635F
:100D3C00F6E7012B214A09D1536823F0E06323F035
:100D4C00C00343F0E06343F04003E9E7022B536830
:100D5C0004D143F0E06343F0C003E1E723F0E06328
:100D6C0023F0C003E2E723F0E06323F00403DDE7A4
:100D7C00124A012B536804D143F0E06343F008039B
:100D8C00CEE723F0E06323F00803CFE70B4A012BF7
:100D9C00536804D143F0E06343F00103C0E723F050
:100DAC00E06323F00103C1E76FF0150096E700BF85
:100DBC0000100240002C01400030014000000140B6
:100DCC00014910220A60704710ED00E072B64040F5
:100DDC0080F31188BFF36F8FBFF34F8F30BF62B6B4
:100DEC00BFF36F8F704700BF43B2002B08DB0122AB
:100DFC0000F01F0002FA00F0024A5B0942F82300DF
:100E0C00704700BF00E100E043B2002B01F101018B
:100E1C00ACBF03F16043064B4FEA0111C9B2ABBF43
:100E2C0003F5614300F00F0083F800131954704769
:100E3C0014ED00E030BFFFF7FDBF00BF08B5094B54
:100E4C00094A23F0604323F07F039360BFF34F8F75
:100E5C00BFF36F8F00F0BEFE01F078F900F084F95B
:100E6C0000F0C2FE0000000800ED00E0094A0A494B
:100E7C00936809689866D96608494B6843F08053B3
:100E8C004B60002383F31188BFF36F8F9368D86E88
:100E9C00704700BF2C0200206C30000800ED00E011
:100EAC000F498A684FF030001044EFF3098C80E84A
:100EBC00F01F102080F31288BFF36F8F094F4FF093
:100ECC0000668A698A603E60906E0023936680F3A8
:100EDC00118802F1300090E8F01F8CF309887047FC
:100EEC002C02002004ED00E01EF0040F0CBFEFF309
:100EFC000880EFF30980816911F8021C0229FFD0E8
:100F0C0001B501F017FB01BD42F8203C009B0B49D9
:100F1C0042F81C3C019B21F0010142F8183C029B59
:100F2C0042F8081C42F8143C4FF0807342F8043C21
:100F3C000023203A02658366704700BF072400082F
:100F4C00074B9860104681F30988002163B681F342
:100F5C001188BFF36F8F0022002301F04EFA00BFFF
:100F6C002C02002001B5EFF30580A0F110004FEA30
:100F7C00C0000449014409C99847BDE80140024931
:100F8C0008470000802D0008990F0008044B996851
:100F9C009869884203D003494FF080520A60704729
:100FAC002C02002004ED00E00C4B9A6A9A6A9A6AB3
:100FBC00920508D59A6B9A6A120404D518B19A6AEC
:100FCC0022F400429A620020044B9A6A9A6A9A6A46
:100FDC0042F47F429A620870704700BF00ED00E057
:100FEC000D4B9A6A9A6A9A6A920708D55A6B9A6A52
:100FFC00120604D518B19A6A22F080029A62002077
:10100C00054B9A6A9A6AD20658BF9A6A9A6A42F053
:10101C00FF029A620870704700ED00E070B5484B13
:10102C000E465B6800258AB0C3F3080385F311886C
:10103C00BFF36F8F02F07F41B1F17F4F11D102F0FE
:10104C000C0108290DD0110701D4064601250022F8
:10105C00033B8DF80720032B6AD8DFE803F0045418
:10106C00585C2E46F3E7364BDC6A14F002045FD171
:10107C00DA6A002A14DBDA6A520011D5B26932F846
:10108C00021C4DF60272914209D093F8282002B34B
:10109C0001200DF10701FFF7A3FF044600E03468BF
:1010AC009DF807309BB92022314602A801F098FA2E
:1010BC00099B002D3ED0C3F3080222B96FEA5323DB
:1010CC006FEA43230993204602A901F031FA0AB0D2
:1010DC0070BD93F829202AB101200DF10701FFF70B
:1010EC0063FFDAE75A8D92B2002AD9D09A6A9A6ACB
:1010FC009A6A9A6A9A6A9A6A9A6A6FEA02426FEADA
:10110C0012429A62CCE700200DF10701C3E70020E0
:10111C000DF10701E3E70A4B9A6A9A6A9A6A9A6A8E
:10112C009A6A9A6A9A6A6FEA02426FEA12429A6261
:10113C000024B5E723F4FF7323F00103C2E700BFDB
:10114C0000ED00E0024A536943F01003536170470D
:10115C0000ED00E0EFF30880EFF3098101B5724672
:10116C00FFF75CFF01BD00BF002310210348C2182C
:10117C0001332B2B82F80013F9D1704700E100E00A
:10118C00102080F3118808484FF40061401880F358
:10119C000988EFF314800221084380F31488BFF30D
:1011AC006F8FFFF74BFE000068070020064B9B6813
:1011BC00834207D1EFF3058323B1044A536843F00C
:1011CC008053536000F070BF2C02002000ED00E053
:1011DC00014B1860704700BF040000200239012940
:1011EC0002D8034B1B6818474FF0FF30704700BF05
:1011FC00040000200FB407B504AB53F8042B0221F4
:10120C0004480193FFF752F903B05DF804EB04B006
:10121C00704700BF1B2600082DE9F84304460E4614
:10122C0015464FF001080B4F02F10409B44201DBE3
:10123C00BDE8F8837A6908FA04F333EA020207D1AD
:10124C007B6155F834301BB1204659F8341098475F
:10125C000134EBE7000401400123044A8340116888
:10126C000B431360024B1856FFF7BEBD0004014040
:10127C00B03000081F2807DC0122044902FA00F0F4
:10128C000B6823EA00000860704700BF00040140AF
:10129C0003290FD8DFE801F0020F17230122154BA9
:1012AC0002FA00F0996821EA00019960DA6822EAF2
:1012BC000000D8607047012303FA00F00D4B9A68C8
:1012CC0002439A60F2E7012303FA00F0094BDA6853
:1012DC000243DA609A6822EA0000986070470123A2
:1012EC0003FA00F0034B9A6802439A60DA681043E1
:1012FC00DFE700BF00040140074B10B5044653F86C
:10130C00300028B943F8341003EBC4035A6010BD05
:10131C006FF00F00FBE700BF480100200022034BD9
:10132C0043F8302003EBC0035A607047480100209B
:10133C00086884B002280DD0032816D0F8B9114AD9
:10134C004B68516919435161526913400193019BD8
:10135C0004B070470B4A4B68D1691943D161D2690B
:10136C0013400293029B0020F2E7064A4B689169F6
:10137C0019439161926913400393039BF3E76FF058
:10138C008500E5E7001002400868022809D0032810
:10139C000FD0A8B90C4A4968536923EA0103536179
:1013AC007047094A4968D36923EA0103D3610020D5
:1013BC007047054A4968936923EA01039361F6E78C
:1013CC006FF08500704700BF00100240084B0968A1
:1013DC001B68062909D8DFE801F005050405080893
:1013EC0005005B080020136070476FF085007047A4
:1013FC002C00002000234FF4806230B5194C87B0CC
:10140C00CDE90332059301F053F901A801F04AF933
:10141C0023689A0706D4236843F0010323602368EA
:10142C009B07FCD5636823F003036360636823F0B8
:10143C00F0036360656815F00C05FBD1236801218E
:10144C0023F08073236001AA03AB074800F02AFB4A
:10145C00236823F00103236001F02BF9284607B021
:10146C0030BD00BF0010024000127A0008B50848D9
:10147C00084B186001F0FFFA38B10748FFF7A8FED7
:10148C000548FFF70DF8002008BD6FF01200FBE7D0
:10149C00382D0008C8010020A91400080A2838B506
:1014AC000446074D04D1286883680D215B68984772
:1014BC0028688368E1B25B689847204638BD00BF56
:1014CC00C8010020F8B50C461146B1F5005F1E4668
:1014DC004768026923D104F0030304339A000F23F5
:1014EC00934043EA94032E49DAB2023251F8222097
:1014FC00190C02EA134391FAA1F2B2FA82F2D34028
:10150C00BA689A4209D12046FFF7B4FE2046FFF78D
:10151C0005FF00212046FFF7BBFE002534E0B1F5A6
:10152C00804F37D020461F49FFF7E6FE0546A0BB8B
:10153C0004F0030104318B000F21994041EA94011E
:10154C00CAB2920002F1804202F58032BB68976801
:10155C00080C27EA114790FAA0F1B1FA81F103FACD
:10156C0001F13943B6F5802F91600FD0B6F5C02F3D
:10157C000ED0B6F5003F14BF002102212046FFF724
:10158C0087FE2046FFF768FE2846F8BD0121F5E7E7
:10159C000321F3E76FF08505F6E76FF00F05F3E72E
:1015AC0000000140DF27000870B545680B4C0C3576
:1015BC0051B1204601F05FFA68B1A3681B68294657
:1015CC002046BDE870401847204601F054FA10B18F
:1015DC00A3685B68F3E76FF0120070BD902C0008F5
:1015EC002DE9F843D0F804800769C146294C59F815
:1015FC00085B06467C60204601F03DFA18B96FF096
:10160C000400BDE8F883A368204649461B68984748
:10161C0004460028F3D1D8E9060173681A6800F073
:10162C0055FF0028EDDBEB6823F40053EB60EB680F
:10163C0043F00C03EB60D8F81430022B20D0012BB4
:10164C0023D023462046EA68034322F4B0521343C6
:10165C00EB602B6923F440532B6198F810302BB1BD
:10166C0073681A68536943F44073536130463968A0
:10167C0001F097F9EB68002043F40053EB60C0E7EE
:10168C004FF480534FF48060DDE74FF480534FF4F8
:10169C00C060D8E7902C00082DE9F0470A79436820
:1016AC00012A0D4606691C687CD0022A0CBF4FF437
:1016BC008061002195F8059095F806E0B9F1020FCC
:1016CC0096BF3D4B4FF4005833F81980BEF1040F10
:1016DC006BD0002A0CBF00234FF48053EF79A2F19A
:1016EC00030A012F14BF4FF0000C4FF4407CBAF1E9
:1016FC00010F5DD912B1BEF1040F59D019F0FD0FD5
:10170C0056D0BEF1020F53D9BEF1040F50D067B1C1
:10171C002A4A944207D0A2F57442944203D002F5AF
:10172C008062944244D1012F42D1E26822F40052EB
:10173C00E260E26802F4C06291421FBFE76827F4DE
:10174C00C0670F43E760226902F4405290451FBF07
:10175C00216921F4405141EA08012161E2682968BC
:10176C0002F4805293421FBFE26822F480521A4363
:10177C00E260636903F440739C451FBF636923F403
:10178C00407343EA0C0363613368994203D001F060
:10179C0008F92B6833600020E36843F40053E360DE
:1017AC00BDE8F0874FF4C06184E74FF4805395E7B0
:1017BC006FF08500F4E700BF70300008003801407E
:1017CC004FF0E0239A69196910B511F4803F9869BC
:1017DC000849094B01D1824206D21A680C6822448E
:1017EC001A604FF0E02212691B680A681344181A39
:1017FC0010BD00BF240200202802002008B5FFF70E
:10180C00DFFF0C4B0C4A186811680844106000226A
:10181C004FF4E1511A60094A1368C01AB0FBF1F099
:10182C0001FB0033136000F071FDBDE80840FFF7C9
:10183C00ADBB00BF28020020200200201C020020AB
:10184C001022094B002083F8232041F61F42074B3E
:10185C001A60074B18604FF0E0235A6198611A69BF
:10186C0042F007021A61704700ED00E024020020EC
:10187C0028020020F8B5324D59B1431C09D14FF064
:10188C00E022136923F0010313614FF07F432B60B7
:10189C00F8BD40F61913B0F1FF3F08BF1846441EBF
:1018AC00002C2F6832DD9C42A8BF1C464FF0100361
:1018BC00EFF3118683F31288BFF36F8FFFF780FF6E
:1018CC004FF0E02300221F49D3F818C00B681844CE
:1018DC001D4B08601A601D4B1B68C21A18D54FF4BB
:1018EC0080632B604FF0E0222C689369013C5461BB
:1018FC0000249C4538BFBC44ACEB030C60449461A1
:10190C00086086F31188BFF36F8FC1E70024CDE721
:10191C004FF4E15E0EFB042404F5E0541F34B4FBD9
:10192C00FEF41B1A0EFB0434B4F5806F04D9084B7B
:10193C009C42D6D82C60D5E74FF48064FAE700BF00
:10194C002402002020020020280200201C0200207B
:10195C0020DFFF0010B54FF01003EFF3118483F379
:10196C001288BFF36F8FFFF72BFF074B074A1B68DB
:10197C0012689B1A034484F31188BFF36F8F4FF4E2
:10198C00E150B3FBF0F010BD200200201C0200203F
:10199C0010B54FF01003EFF3118483F31288BFF3EB
:1019AC006F8FFFF70DFF044B1B68184484F31188ED
:1019BC00BFF36F8F10BD00BF20020020B8B10F4BDA
:1019CC00984216D80E4B984294BF002001200D4A25
:1019DC00136823F0070303431360136803F0070332
:1019EC00984208D0136803F00703984203D00120F3
:1019FC0070470220EBE70020704700BF006CDC0250
:101A0C0000366E01002002402DE9F041224C234F9C
:101A1C006368234EC3F3031316F803803B68054633
:101A2C0003FA08F8804531D3236843F080732360B0
:101A3C0023689B01FCD563680A6823F0F003134309
:101A4C006360636823F0030343F00203636063681D
:101A5C0003F00C03082BFAD163684A6823F4E063A3
:101A6C001343636063688A6823F460531343A84587
:101A7C00636003D92846FFF7A1FF58B90B68C3F37D
:101A8C000313F05CC5403D60002003E0FFF796FFB8
:101A9C000028C9D0BDE8F081001002402C000020C5
:101AAC0003310008F0B4184C0F46194623689D0109
:101ABC0027D4D2E9005623689A030ED42368012F49
:101ACC000CBF43F4802323F480232360236843F466
:101ADC008033236023689B03FCD506F44033760CDB
:101AEC000136B0FBF6F0626822F47C121A432A43EA
:101AFC00AD0C023542F4803268436260F0BCFFF7F3
:101B0C0083BF0120F0BC7047001002400E4B70B533
:101B1C0053F82040013053F82060A64200D870BD25
:101B2C00D4E900352846984765B1EB6830B10028F8
:101B3C00B8BF4042FF28A8BFFF2018705A7842F067
:101B4C0001025A700834E8E758300008702310B5C9
:101B5C000F4C012203FB0044002386B0CDE9042383
:101B6C000F22CDE90232182201930A4B0A4902FBDB
:101B7C00003301EB002100934FF480722046074B99
:101B8C0000F09CF8637B23F00403637306B010BD74
:101B9C00600000202C02002068060020E52A0008C6
:101BAC00012208B5094B02201A70FFF7AFFF01F0B4
:101BBC002FF80320FFF7AAFF00F0AAF8FEF714FC99
:101BCC00034A137B23F00103137308BD600200204A
:101BDC00D00000200248034A0021121A00F00BBD6D
:101BEC00600000206402002080B5DFF8B080A2B055
:101BFC0088F308882A4D00246B692A4E43F400733D
:101C0C006B61F02385F82230EC772C766C76AC7611
:101C1C0085F820406B6ADFF8909043F4E0236B6208
:101C2C00FFF790FAFFF7CCF84FF0FF33AB62EB62A3
:101C3C0040F20113ADF8243006ABB36000F01AFF8C
:101C4C002046FFF763FF0120FFF760FF00F01AFA50
:101C5C00164B174D0593012316494FF48062CDE9BD
:101C6C00034328464B46CDE901440094B56100F08E
:101C7C0025F807466A7B284622F004026A7300F0B6
:101C8C0065FF2046FFF762FF0B4B4A463946284654
:101C9C00F3603475C6F80480FFF752F9680F002022
:101CAC0000ED00E02C020020AD1B000813310008F1
:101CBC00D000002068020020600000207FB50C9E40
:101CCC0000F1580506730426C0E916550025044694
:101CDC00467307320B9E22F0070286738E180A9AFF
:101CEC00C0E906558560C5730292099A0192089A5B
:101CFC0000923246FFF708F9044B65659B6803B107
:101D0C005B6E3046636604B070BD00BF2C020020D1
:101D1C00F0B5224C224D87B02646AE4204F1300479
:101D2C000BD300F091F80A261C4C1E4FAC4220D36A
:101D3C0007B0BDE8F04000F089B954F8043C54E910
:101D4C000C01059354F8103C049354F8143C039381
:101D5C0054F8183C029354F81C3C019354F8203C62
:101D6C00009354E90A23FFF7A9FF54F8303C5E6551
:101D7C00D2E7626A531C09D022EAE27282FB062384
:101D8C0052EA0301206803D100F042F93034CDE768
:101D9C003946183000F040FAF8E700BF6000002028
:101DAC0060000020792B000810B5084C23685BB14B
:101DBC00FFF7D0FD03462068054A03440021BDE827
:101DCC001040136100F00ABF10BD00BF5802002084
:101DDC002C02002010B54FF01003EFF3118483F3A5
:101DEC001288BFF36F8F00220B4B90421A614FF099
:101DFC000A030A4A00FB03F309DC1360084B196061
:101E0C00FFF7D2FF84F31188BFF36F8F10BD022B45
:101E1C00B8BF0223F1E700BF2C02002058020020BB
:101E2C005402002049B9EFF3058030B9054B9A698B
:101E3C009B689A4201D0FFF719B881F31188BFF360
:101E4C006F8F70472C0200204FF01003EFF31181BD
:101E5C0083F31288BFF36F8F044B9A68D37B013BDB
:101E6C00D37381F31188BFF36F8F70472C0200205E
:101E7C0038B502460C4800F063FE0C4D044600B920
:101E8C00EC68AB684AB95A7BD20606D1A26922B972
:101E9C00DA897F2A01D9AB6138BD9C4201D0FFF7AA
:101EAC0083FFAC61F8E700BF480200202C02002041
:101EBC0070B590F90D200146002A437B04DA03F03B
:101ECC007F03437300F014FE4B7B154A63F07F03D2
:101EDC004B7302F11C05D2E90734AB421BD0D3B1D2
:101EEC0091F90E6093F90E0086420FD0801B0028EA
:101EFC000CDD5868C1E90030016059609068BDE89C
:101F0C007040431A58425841FFF7B2BFA34202D067
:101F1C001B68002BE6D1C1E9005421601162EDE78A
:101F2C002C020020014638B54FF01003EFF311845A
:101F3C0083F31288BFF36F8F154B164A9868156898
:101F4C00A84206D1FFF730FF84F31188BFF36F8FDF
:101F5C0038BD00251560104A1268BAB1C2897F2AB3
:101F6C0014D8427BD20611D10C4A90F90E5012684B
:101F7C0095420BDB0A4A904208D01A698A4202DC6D
:101F8C00FFF796FFDEE7521A1A61DDE70022FBE746
:101F9C002C02002050020020580200205402002085
:101FAC006000002070B490F90D20437B002A2ADBDE
:101FBC00DA0628D1826932BB144A63F07F0343737B
:101FCC0002F11C05D2E90734AB4217D0B3B190F93A
:101FDC000E6093F90E108E420BD0891B002908DD80
:101FEC005A68C0E9003210605860002070BCFFF7DE
:101FFC003FBFA34202D01B68002BEAD1C0E90054BA
:10200C0020601062F1E770BC704700BF2C0200200A
:10201C0010B54FF01002EFF3118482F31288BFF366
:10202C006F8F427B510704D484F31188BFF36F8FF9
:10203C0010BD22F004024273FFF7B4FF2146BDE845
:10204C0010400148FFF7EEBE6102002010B54FF0C2
:10205C001003EFF3118483F31288BFF36F8F084BD7
:10206C0000209A68D37B0133D373FFF701FF84F30D
:10207C001188BFF36F8FBDE8104000F057BD00BF53
:10208C002C0200200021044B084603F11C02C3E97A
:10209C000722FFF79FBE00BF2C020020014B98685F
:1020AC00704700BF2C0200202DE9F04104464FF090
:1020BC001003EFF3118683F31288BFF36F8F437B0A
:1020CC001A0705D586F31188BFF36F8FBDE8F08131
:1020DC0023F0200242F00801D20920D14173A368F9
:1020EC0013B1204600F00CFD04F1180000F060FD67
:1020FC004FF0000804F15807A56DBD4200D0B5B9EA
:10210C000120FFF7B5FE104B9B68A342DAD1EFF329
:10211C000583002BD6D13046FEF7A8FED2E703F09C
:10212C005F0343F00803437300F0E2FCD7E7284653
:10213C0000F0E6FC05F1180000F03AFD2846C5F861
:10214C006C80FFF72FFFD7E72C02002008B506485C
:10215C00064A0749121A00F043FABDE80840054A3E
:10216C000549064800F03CBA000000206000002041
:10217C001831000800000000183100080000002091
:10218C00034B1B680BB9FFF7E5BB0020704700BF82
:10219C005C020020114B10B51C689C4208BF002447
:1021AC00FFF7EEFF03466CB1D4E90402C01A62EBF0
:1021BC00E373012873F100020DDBB0F1004F73F1F2
:1021CC00000301DB6FF00040054B1B6913B1984213
:1021DC00A8BF184610BD0020F6E700BF3000002055
:1021EC002C02002030B5036868B10A4A526890424C
:1021FC0009D043B1D3E90421D0E90445121941EBCC
:10220C000501C3E90421426813605A600023C0E948
:10221C00003330BD30000020B3F1FF3F08BFB2F1F6
:10222C00FF3FF8B504461F46154667D081604FF056
:10223C001003EFF3118683F31288BFF36F8F6FF0E7
:10224C0001024FF0FF3C531B6CEB0703002B1BDB15
:10225C002B4BD3E90013521A6CEB0303551B63EBA6
:10226C000703012D73F10002BCBF01250023C0E957
:10227C0004532448D0E9003C834218D1C4E9000C33
:10228C00CCF80040446026E0FFF77AFF013547F1B7
:10229C0000072D1847EBE077C4E90457E9E7521A19
:1022AC0065EB07059C45C4E90425E7D01B68002BAA
:1022BC00E4D0D3E90417D4E904258A4275EB070E60
:1022CC00EDDA8A1A67EB0505C3E904255A68C4E9F7
:1022DC00003214605C60036883420BD09C4209D1CD
:1022EC00FFF758FF18B1084B1B69834202D000213D
:1022FC00FFF7C0FA86F31188BFF36F8FF8BD00BFEC
:10230C0040010020300000202C0200202DE9F84371
:10231C000546FFF707FE4FF01003EFF3118483F32C
:10232C001288BFF36F8F244EDFF890803560244DF8
:10233C00D8F80000326840454FEAE277D5E9001E34
:10234C000BD050B1D0E9043C9A4277EB0C0916DA69
:10235C009B1A6CEB070CC0E9043C52184EEB0707B8
:10236C00C5E9002700253560FFF714FF2946FFF764
:10237C0081FA84F31188BFF36F8FBDE8F883591885
:10238C004EEBE377D31A336000220023C0E9042319
:10239C00C5E90017FFF726FF84F31188BFF36F8F91
:1023AC00836898474FF01003EFF3118483F312887E
:1023BC00BFF36F8FBCE700BF5C0200203000002031
:1023CC004001002038B5044678B1FFF7E1FA054624
:1023DC0006480023A4FB0001054AFDF781FE0446D4
:1023EC00FFF7D6FA431BA342FAD338BD00A24A0426
:1023FC0040420F00704700207047044608B508465D
:10240C0011461A46A047FFF749FEFEF7CFFE2DE90D
:10241C00F84F9A46D37880466F2B0F461546A3F19A
:10242C00410B29D024D8582B14BF0A261026DDF8CE
:10243C0028903246002340463946FDF751FE092AC2
:10244C00D4B21ED83034B045E4B277F1000309F8A9
:10245C00014D01D3D14511D82B789B0605D5082EFB
:10246C0015D1AB7843F00803AB704846BDE8F88F44
:10247C0003F0F703702BD7E70826D8E780460F4602
:10248C00D7E7BBF1190F94BF37345734DBE7102E65
:10249C00EBD1AB7843F01003E6E72DE9F0410746AA
:1024AC00884615461E461446B442A4EB050002D3DA
:1024BC003EB923782BB1414614F8010BB8470028DC
:1024CC00F2DABDE8F081704700207047F8B5054698
:1024DC000F4609B90020F8BDFEF7E2FB064620BB0B
:1024EC000446286810F0C00FC0F381120ED16C683E
:1024FC0044F041042146C0F30720FEF7AFFB08353A
:10250C000028E8D10136BE42EBD1E3E7022A01D123
:10251C006C68EFE7012AEDD16C6814F4C07F0CBF36
:10252C0044F0020444F00404E4E76FF01500D2E731
:10253C0000F0B7BA0146006800F0B3BA00210120E0
:10254C00FFF7F6BF08B5FEF775FCBDE80840FEF7CF
:10255C001DBD30B502780346202A00F10100F9D0E8
:10256C00A2F109010429F5D92B2A08D02D2A0ABF7A
:10257C0003460021012100200A25013B06E0034609
:10258C000021F8E7C2F1300205FB002013F8012FFF
:10259C00A2F13004092CF5D901B9404230BD0346F3
:1025AC0000201A5C02B970470130FAE7034600209C
:1025BC001A5C0AB1884200D170470130F8E7034633
:1025CC0010B55AB10139841813F8010B11F8012F09
:1025DC00A34201D09042F7D0801A10BD1046FCE700
:1025EC0010B5431E0A44914200D110BD11F8014BA5
:1025FC0003F8014FF7E70346C9B20244934200D1F6
:10260C00704703F8011BF9E74FF0FF307047FEF7F6
:10261C00E5BD002208B511460620FEF7F5FB0022A9
:10262C0007201146FEF7F0FB002208201146FEF7AA
:10263C00EBFB002209201146FEF7E6FB00220A20E4
:10264C001146FEF7E1FB002217201146FEF7DCFBDA
:10265C00002228201146FEF7D7FB002008BD026996
:10266C0010210A20FEF7D8BD02690A210520FEF7C9
:10267C00D3BD026905210420FEF7CEBD02690421F9
:10268C000320FEF7C9BD026903210220FEF7C4BD79
:10269C00026902210120FEF7BFBD02690121002061
:1026AC00FEF7BABD4FF4E0120023C0E900237047D7
:1026BC0070477047436800205B689B680B607047ED
:1026CC0043685B68D86842400A404240DA600020A8
:1026DC007047436800205B681961704743680020AD
:1026EC005B6859617047436800205A68D3684B4057
:1026FC00D3607047036930B5986858B100248142A3
:10270C0012D10868DD6854B98D42986000D1D86048
:10271C00002008606AB9002030BD2846EFE78D42E2
:10272C00206008BFDC60F3E705680446002DF4D197
:10273C003AB19A68D8680A6099600028EBD1D960E0
:10274C00EAE76FF01500E7E791FAA1F3B3FA83F328
:10275C0070B50D0E0F2691FAA1F1B1FA81F1445921
:10276C009B0006FA03F3890024EA030402FA01F140
:10277C002143415170BD91FAA1F3B3FA83F370B5C3
:10278C000D0E032691FAA1F1B1FA81F144599B0087
:10279C0006FA03F3890024EA030402FA01F1214347
:1027AC00415170BD91FAA1F3B3FA83F370B50D0EDC
:1027BC00042691FAA1F1B1FA81F144599B0006FA71
:1027CC0003F3890024EA030402FA01F12143415185
:1027DC0070BD0B46896870B569B101255E680C68DF
:1027EC0085408A682A4002D030464B68984714B11D
:1027FC0021462468F5E770BD436870B5586801231D
:10280C001546072903FA01F2C8BF01F007014FEA88
:10281C000224C5BF03FA01F10C43144344F0806455
:10282C00EA0722D415F0060204D12146BDE8704017
:10283C00FFF78ABF022A01D10422F6E705F4C07221
:10284C00802A6FEA14264FEA14230BD193FAA3F3D0
:10285C00B3FA83F20123C168934031400B43082241
:10286C00C360E2E7C3683340F9E76B0654BF01224B
:10287C0009222146FFF768FF15F0200218BF042239
:10288C00214605F01805FFF78DFF082D05D1022212
:10289C002146BDE87040FFF76EBF0DB90122F7E786
:1028AC000322F5E713469A0510B519D59C0710D5E8
:1028BC005A072DD52122DC060DD542F084021C05C9
:1028CC001ED45B0517D5012344688B406468636193
:1028DC0011E00122EFE79C06F1D542F48272EEE79B
:1028EC0013F4807207D0DC0610D413F0200F0CBF49
:1028FC0002224FF482720023FFF77EFF002010BDEE
:10290C00012344688B4064682361F4E78422F2E776
:10291C006FF08500F3E7026901215060FEF744BEB9
:10292C00036882B00193019B43680193019B02B041
:10293C00704708B54368186803681A0701D5FFF794
:10294C00EFFF03689B0649BF43684FF0FF30002040
:10295C000B7008BD43681B681A681206FCD55960D9
:10296C00704708B54368186802680368C2F3C00270
:10297C00DB07036848BF42F00202990748BF42F0E8
:10298C000402D30701D5FFF7CBFF910701D5FFF761
:10299C00C7FF530701D5FFF7C3FFFFF7C1FF104671
:1029AC0008BDF7B5036947680D4657F8084B5E68D4
:1029BC00304600F060F8D8B1B368DB68C3B1394673
:1029CC00304601AA9847002812DB1921019B64228A
:1029DC004B43A900B3FBF1F1B1FBF2F002FB101376
:1029EC001B013233B3FBF2F303EB00139BB2A36076
:1029FC0003B0F0BD03691B680B6043681A68D368A9
:102A0C0003F4C063B3F5806F29D0A3F5C06CDCF17F
:102A1C00000343EB0C030B71136903F44053B3F540
:102A2C00805F1ED0B3F5405F1DD0002B14BF032375
:102A3C0001234B71D068D368C00403F4C06314D570
:102A4C00002B14BF032304238B715369002003F460
:102A5C004073A3F5407253425341CB71704702232C
:102A6C00D9E70023E5E70223E3E7002B0CBF0323A0
:102A7C000223E9E7704738B1C3681888C0F308002F
:102A8C00A0F580735842584170474FF01002EFF395
:102A9C00118382F31288BFF36F8FFEE708B5FFF73F
:102AAC00F4FFF8B505460E464FF01003EFF311870F
:102ABC0083F31288BFF36F8FFFF7F0FA31460446A9
:102ACC002846FFF7EBFF87F31188BFF36F8F204683
:102ADC00BDE8F840FEF76ABB08B54FF01002EFF303
:102AEC00118382F31288BFF36F8FFEF76FF9F4E74F
:102AFC00D0E9003213605A600023C0E900337047FC
:102B0C0008B5FFF7F5FF437B23F002034373002363
:102B1C00836008BD034620B9EFF305820AB9FEF7BE
:102B2C00A5B983F31188BFF36F8F70474FF0100373
:102B3C00EFF3118083F31288BFF36F8FFFF7EABFB7
:102B4C0003460068834208BF0020704710B54FF061
:102B5C001003EFF3118483F31288BFF36F8FFFF729
:102B6C0021FA84F31188BFF36F8F10BD014610B5A5
:102B7C004FF01003EFF3118483F31288BFF36F8FC0
:102B8C0010F80B3C13F0280F0DD151F8103C1838ED
:102B9C000BB1FFF7B5FF11F80B3C23F0140301F850
:102BAC000B3CFFF7FFF984F31188BFF36F8F10BD57
:102BBC0010B54FF01002EFF3118482F31288BFF3BB
:102BCC006F8F03683BB1FFF70DFB002084F3118876
:102BDC00BFF36F8F10BD6FF01500F7E770B50446AB
:102BEC000D464FF01003EFF3118683F31288BFF3F9
:102BFC006F8FFFF7CFFA012805DDA04203DB2946D2
:102C0C002046FEF737FE86F31188BFF36F8F70BD39
:022C1C007047FF
:022C1E00FFFFB6
:082C2000FCD4FF7F010000005D
:102C28003D0C000800000000D5240008000000004A
:102C380001140008902C000823290008A82C00087B
:102C480023290008C02C000823290008D82C0008D4
:102C580023290008F02C000823290008082D000863
:102C68001F260008202D0008ED150008382D000843
:102C7800ED150008502D00084D180008682D0008B3
:082C88007914000800000000AF
:102C9000C030000800000000080000203C000020B8
:102CA00000000000262F0008CD300008AC2F0008DF
:102CB000C02F0008400000200C0200201E2F00083A
:102CC000D3300008982F0008C02F000844000020CF
:102CD000FC010020162F0008D9300008842F0008BE
:102CE000C02F000848000020EC0100200E2F000833
:102CF000DF300008702F0008C02F00084C000020B3
:102D0000DC010020062F0008E53000085C2F0008D9
:102D1000C02F000850000020CC010020FE2E00082B
:102D20009230000800000000000000003800002081
:102D300048010020F82E0008EB300008243000087D
:102D4000443000085400002024000020EA2E00082F
:102D5000F230000804300008443000085800002019
:102D60001C000020DC2E0008F930000800000000E4
:102D7000000000005C00002000000000D82E0008C9
:102D80000000000049250008000000004925000857
:102D90000000000049250008000000004925000847
:102DA0000000000049250008000000004925000837
:102DB000202D0008A7260008202D00089D260008C9
:102DC000202D000893260008202D000889260008E1
:102DD000202D00087F26000800000000492500087B
:102DE00000000000492500080000000049250008F7
:102DF00000000000492500080000000049250008E7
:102E000000000000492500080000000049250008D6
:102E100000000000492500080000000049250008C6
:102E200000000000492500080000000049250008B6
:102E30000000000049250008202D00087526000824
:102E40000000000049250008000000004925000896
:102E50000000000049250008000000004925000886
:102E60000000000049250008000000004925000876
:102E70000000000049250008000000004925000866
:102E80000000000049250008000000004925000856
:102E90000000000049250008000000004925000846
:102EA0000000000049250008000000004925000836
:102EB0000000000049250008000000004925000826
:102EC000202D00086B26000800000000492500089E
:082ED000000000004925000884
:102ED800FF7FFF7F0100FF7FFF7FFF7FFF7FFF7F77
:102EE800FF7F0100FF7FFF7FFF7FFF7FFF7FFF7F67
:102EF800FF7FFF7FFF7F0100FF7FFF7FFF7F0100D4
:102F0800FF7FFF7FFF7F0100FF7FFF7FFF7F0100C3
:102F1800FF7FFF7FFF7F0100FF7FFF7FFF7FFF7F36
:062F2800FF7FFF7FFF7F29
:022F2E00FFFFA3
:102F3000082D0008F02C0008D82C0008C02C000830
:102F4000A82C0008000000000000000000000000A5
:102F5000000000000000000000000000FFFF000073
:102F60000008014000000000030000000500000010
:102F7000FFFF0000000C0140010000000300000002
:102F800009000000FFFF00000010014002000000E7
:102F90000300000011000000FFFF000000140140CA
:102FA000030000000300000021000000FFFF0000FC
:102FB0000018014004000000030000004100000070
:102FC000B1280008C1260008CD260008DF26000829
:102FD000E9260008F3260008D1140008012700089C
:102FE000000000000009000000000000400A00008E
:102FF000000000000002000000000000400300008C
:103000000000000000380140000000000300000044
:10301000004000000000000000000000E42F000855
:103020000200000000440040000000000200000018
:10303000000002000000000000000000F42F000863
:10304000020000003F290008612900086F290008DC
:10305000A5160008012A0008282C0008802C00086A
:10306000882C0008902C0008902C0008F5FFFFFF2A
:103070000010000000307B696E69747D006261752C
:10308000643A007B6368616E67657D00286E696CD9
:103090002900696E746572727570742D636F6E7439
:1030A000726F6C6C657240343030313034303000C7
:1030B000060708090A171717171728282828282885
:1030C0007263634034303032313030300047504921
:1030D0004F45004750494F44004750494F43004730
:1030E00050494F42004750494F4100554152545FAB
:1030F0003200554152545F31007379735F636C6FD6
:10310000636B0000000000000000000102030406E1
:083110000708096D61696E00FA
:1031180003240008152600083D130008951300082D
:1031280000000000D91300080000000000C20100E0
:103138000000000000C20100000000000024F400AC
:083148003000002030000020DF
:10315000000000000000000000000000000000006F
:10316000000000000000000000000000000000005F
:08317000000000000000000057
:040000050800118D51
:00000001FF
