:020000040800F2
:100000002007002085110008E32700085911000887
:10001000591100085911000859110008000000008A
:100020000000000000000000000000008D0E00082D
:100030005911000800000000390E0008651A000878
:100040003D0F00083D0F00083D0F00083D0F000860
:100050003D0F00083D0F00083D0F00083D0F000850
:100060003D0F00083D0F00083D0F00083D0F000840
:100070003D0F00083D0F00083D0F00083D0F000830
:100080003D0F00083D0F00083D0F00083D0F000820
:100090003D0F00083D0F00083D0F00083D0F000810
:1000A0003D0F00083D0F00083D0F00083D0F000800
:1000B0003D0F00083D0F00083D0F00083D0F0008F0
:1000C0003D0F00083D0F00083D0F00083D0F0008E0
:1000D0003D0F00083D0F00083D0F00083D0F0008D0
:1000E0003D0F00083D0F00083D0F00083D0F0008C0
:1000F0003D0F00083D0F00083D0F00083D0F0008B0
:100100003D0F00083D0F00083D0F00083D0F00089F
:100110003D0F00083D0F00083D0F00083D0F00088F
:100120003D0F00083D0F00083D0F00083D0F00087F
:100130003D0F00083D0F00083D0F00083D0F00086F
:100140003D0F00083D0F00083D0F00083D0F00085F
:100150003D0F00083D0F00083D0F00083D0F00084F
:100160003D0F00083D0F00083D0F00083D0F00083F
:100170003D0F00083D0F00083D0F00083D0F00082F
:040180003D0F000827
:1001840053B94AB9002908BF00281CBF4FF0FF31FA
:100194004FF0FF3000F076B9ADF1080C6DE904CEF4
:1001A40000F006F8DDF804E0DDE9022304B070474E
:1001B4002DE9F047089E0D4604468846002B4DD194
:1001C4008A42944668D9B2FA82F252B101FA02F331
:1001D400C2F1200120FA01F10CFA02FC41EA030801
:1001E40094404FEA1C41B8FBF1F71FFA8CFE01FB67
:1001F400178807FB0EF0230C43EA084398420AD9F8
:100204001CEB030307F1FF3580F01E81984240F296
:100214001B81023F63441B1AB3FBF1F001FB103353
:1002240000FB0EFEA4B244EA0344A6450AD91CEB23
:10023400040400F1FF3380F00981A64540F20681F1
:10024400644402380021A4EB0E0440EA07401EB1C6
:100254000023D440C6E90043BDE8F0878B4208D9A7
:10026400002E00F0EE800021C6E900050846BDE836
:10027400F087B3FA83F100294AD1AB4202D3824218
:1002840000F2FC80841A65EB030301209846002EDB
:10029400E2D0C6E90048DFE702B9FFDEB2FA82F233
:1002A400002A40F09180A1EB0C0001214FEA1C4789
:1002B4001FFA8CFEB0FBF7F307FB1300250C45EA8D
:1002C40000450EFB03F0A84208D91CEB050503F119
:1002D400FF3802D2A84200F2CE8043462D1AB5FB65
:1002E400F7F007FB10550EFB00FEA4B244EA0544E8
:1002F400A64508D91CEB040400F1FF3502D2A6453B
:1003040000F2B6802846A4EB0E0440EA03409EE7C0
:10031400C1F120078B4022FA07FC4CEA030C25FAB2
:1003240007FA4FEA1C49BAFBF9F820FA07F309FB6C
:1003340018AA8D401FFA8CFE1D4300FA01F308FB36
:100344000EF02C0C44EA0A44A04202FA01F20BD942
:100354001CEB040408F1FF3A80F08880A04240F2CC
:100364008580A8F102086444241AB4FBF9F009FB5F
:10037400104400FB0EFEADB245EA0444A64508D97C
:100384001CEB040400F1FF356CD2A6456AD902388F
:10039400644440EA0840A0FB0295A4EB0E04AC427E
:1003A400C846AE4656D353D0002E69D0B3EB0802EC
:1003B40064EB0E0422FA01F304FA07F71F43CC405E
:1003C400C6E90074002147E70CFA02FCC2F12001DF
:1003D40025FA01F34FEA1C4720FA01F195400D4339
:1003E400B3FBF7F107FB11331FFA8CFE280C40EA2C
:1003F400034001FB0EF3834204FA02F408D91CEB18
:10040400000001F1FF382FD283422DD90239604414
:10041400C01AB0FBF7F307FB1300ADB245EA004581
:1004240003FB0EF0A84208D91CEB050503F1FF38C5
:1004340016D2A84214D9023B6544281A43EA014162
:1004440038E73146304607E72F46E4E61846F9E632
:100454004B45A9D2B9EB020865EB0C0E0138A3E7B2
:100464004346EAE7284694E74146D1E7D0467BE78E
:100474006444023847E7023B65442FE7084606E731
:100484003146E9E6704700BF2DE9F04395B0284DA9
:10049400AB681B6913B1284602A99847254800F0A8
:1004A4006FFF0024224EDFF89080DFF89090AF6851
:1004B4003B68002BFCD030460DF10701984700281B
:1004C400F6D102219DF8070002F0EEF99DF80730FD
:1004D4007B2B03D100248DF81040E8E77D2B1ED13F
:1004E4000522414604A802F0B7F90028DFD10DF136
:1004F400150002F07BF9041EECDD4FF47A7002F073
:10050400C1F80294FB6813B1304602A998474FF42E
:100514007A7002F0B7F8484600F032FFDAE73E2C72
:10052400C5D804F150026A4402F8403C0134BEE7E5
:10053400943000088E350008953500089B35000876
:10054400014B1860704700BF000000202DE9F04FF8
:100554008B4692461C46002591B002909AF8000002
:1005640008B928465FE325280AF1010707D0594650
:10057400029B98470028C0F25683013512E21822E4
:1005840000210AA802F084F99AF80130252B78D0CA
:1005940000221046964694461646394617F8013B03
:1005A4002B2B00F09D8000F29480202B00F09B8088
:1005B400232B00F09B802EB19DF8306046F004069A
:1005C4008DF83060BCF1000F05D09DF8306046F026
:1005D40008068DF83060BEF1000F05D09DF830603C
:1005E40046F010068DF8306028B19DF8300040F0D8
:1005F40020008DF830002AB19DF8302042F04002EE
:100604008DF830209DF8302002F04400442803D1B6
:100614006FF386128DF830209DF830202A2B42F09B
:1006240080028DF830207BD19DF831204B1C42F0A4
:1006340001028DF831201A782E2A0CBF01210021E5
:100644009DF8312061F341028DF8312074D15A783C
:100654002A2A6AD000210A260133184610F8012BF1
:10066400A2F13007092F40F28E809DF830200E91C0
:10067400C2F3400040EAD17161F341028DF83020A9
:100684005AE00AF102078DF833309DF83130D9076A
:1006940040F1498154F8049BB9F1000F07DA9DF841
:1006A4003020C9F1000942F004028DF830205A07C5
:1006B40040F1428154F8048BB8F1000F80F241817B
:1006C4009DF831306FF341038DF831304FF0FF382E
:1006D40037E12D2B0CD0302B7FF46DAF01225CE77A
:1006E4004FF0010C59E74FF0010E56E7012054E793
:1006F400012652E733460CFB0202303A1E4616F836
:10070400010BA0F13007092FF4D9994293D09DF839
:1007140030100D92D20F62F341018DF830108AE748
:100724000B4600224FF00A0CE8E79DF83120023313
:1007340042F004028DF831201F4617F8012B6C2A71
:1007440041D025D8682A2BD06A2A46D04C2A4CD0CE
:100754001F4617F8012B9DF83130782A8DF8332085
:1007640000F2D980572A4DD8412A03D0453A022AAB
:1007740000F2D18004229DF8323062F302038DF836
:10078400323001239EE006FB01210346303964E741
:10079400742A26D07A2ADBD106229DF831300DE066
:1007A4005A78682A9DF8312006D1012161F3C602E6
:1007B4008DF831209F1CCCE71346022262F3C60356
:1007C4008DF83130C5E75A786C2A9DF8312001D173
:1007D4000421EBE713460322F0E705229DF83130AC
:1007E400ECE707229DF83130E8E7BDF8303023F418
:1007F400F04323F0020343F4804343F00203ADF8D3
:100804003030A6E7A2F15801202900F2848001A02B
:1008140050F821F0DD0800081B0900081B09000836
:100824001B0900081B0900081B0900081B09000814
:100834001B0900081B090008790700081B090008A8
:10084400DD0800089D0800087907000879070008FA
:10085400790700081B0900089D0800081B09000807
:100864001B0900081B0900081B090008E50800080B
:10087400DD080008010900081B0900081B0900081D
:10088400010900081B090008DD0800081B0900080D
:100894001B090008DD08000801209DF8321003F050
:1008A400780360F30201402B8DF8321002BF9DF8EB
:1008B400301041F001018DF83010632A31D1003B32
:1008C40018BF01239DF83020C2F340010B4363F3AA
:1008D40041028DF83020D8E602209DF83210DEE780
:1008E40003219DF8322003F07803A3F1400061F363
:1008F400020243428DF832204341E3E703219DF88D
:10090400322013F0780F61F3020214BF0123002395
:100914008DF83220D6E79DF8303043F001038DF88E
:1009240030300023CEE79DF93020002AACBF4FF0D1
:10093400FF39DDF83490BAE69B077FF5C7AEDDF8E2
:1009440038800023CDE90D339DF832309DF8311005
:1009540003F00703012BC1F3C30138D1CB1E042BD1
:1009640022D8DFE803F003090921210054F8043BED
:10097400DA17CDE90A3206E0073424F00704F4E874
:100984000223CDE90A239DF8303013F0030656D034
:100994003B4652465946029801F0DFFE0028C0F259
:1009A40042810544BA46D9E554F8043B01294FEA8B
:1009B400E372CDE90A3205D19DF828300A93002369
:1009C4000B93E0E70229DED1BDF92830D0E7022BF2
:1009D40023D1CB1E042B13D8DFE803F0030A0A1239
:1009E400120000232268201D0A920B930446CAE7D2
:1009F400E01D20F00700F0E80223CDE90A23F5E723
:100A040054F8043B01290A934FF000030B93D3D00D
:100A14000229B8D1BDF82830D0E7042B09D1E31D51
:100A240023F0070303F10804D3E90023CDE90A23E3
:100A3400A9E7032B04BF54F8043B0A93A3E79DF8EA
:100A440033007828AED8622822D825283FF48FAD09
:100A54005828A7D1DDE90A010DF1260300930CAA59
:100A640004AB01F034FE8246B8F1000F0DF126000C
:100A74000CDB9DF83020A0EB0A036FF38612984537
:100A84008DF8302002D9A8EB03030D9380463DE096
:100A94006338152886D801A252F820F0210B0008EB
:100AA400850B0008A9090008A9090008A90900087C
:100AB400A9090008850B0008A9090008A90900086C
:100AC400A9090008A9090008DF0B0008AD0B0008FC
:100AD400B10B0008A9090008A9090008F90A0008CF
:100AE400A9090008AD0B0008A9090008A909000814
:100AF400AD0B0008B8F1000FDDF828A00ADB414671
:100B0400504601F0A0FE00260AEB0008BAF1000FDF
:100B14000CD147E7504601F08FFEF4E700260A9B0C
:100B24000DF1100A8DF810300DF11108A8EB0A032D
:100B340006B101339DF83220D00668D5023352063F
:100B44000D9948BF0E9A0B4448BF9B18B9F1000F8A
:100B540076DD9DF83020A9EB0309C2F380030393EB
:100B640053076DD4500661D546B159463046029BB1
:100B74009847002857DB039B01351E46302356E077
:100B84001E070FD413F0100618BF2026DDE90A2330
:100B9400002BBFF65FAF524263EB43032D26CDE932
:100BA4000A2357E72B26F1E7002653E70A9840B3B8
:100BB4000DF126030093002104AB0CAA01F087FD7C
:100BC400BDF83230824603F0EF0343F4F04343F0C0
:100BD40010030026ADF8323046E70A9B07293FF69A
:100BE400E1AEDFE801F00C04060C08080C0C1D70E3
:100BF400D8E61D80D6E6EA17C3E90052D2E61D60A6
:100C0400D0E6DFF8C8A006460AF105088EE711070A
:100C140048BF013393E7184603935946029B98470C
:100C24000028039B04DA11B0BDE8F08F20234D4463
:100C34004A46002AA5EB090109F1FF39EBDC0D4610
:100C440036B159463046029B98470028EBDB013504
:100C54009DF83230D90601D41A0706D559463020FA
:100C6400029B98470028DEDB01359DF83230DB0615
:100C740007D559469DF83300029B98470028D2DBDC
:100C840001350D9E2E44731B002B16DC4346524641
:100C94005946029801F061FD0028C4DB0544A944CB
:100CA400A9EB0503002B7FF77DAE59462020029B5C
:100CB40098470028B7DB0135F2E759463020029BFC
:100CC40098470028AFDB0135DDE700BFA4350008F5
:100CD4000C4B1A6842F400721A601A6842F480627B
:100CE4001A604FF01002EFF3118382F31288BFF3FE
:100CF4006F8F83F31188BFF36F8F034B034A002078
:100D04001A607047003C02402C0000200024F400CC
:100D1400AF28F8B5174604460E464FEA101214D809
:100D24000B4B53F8225015B96FF01200F8BD28464A
:100D340002F008F80028F7D028463B46324604F073
:100D44000F0101F08AFE0020F0E76FF01500EDE7D7
:100D5400CC330008014910220A60704710ED00E00E
:100D640072B6404080F31188BFF36F8FBFF34F8F8B
:100D740030BF62B6BFF36F8F704700BF43B2002B22
:100D840008DB012200F01F0002FA00F0024A5B09AE
:100D940042F82300704700BF00E100E043B2002B9B
:100DA40001F10101ACBF03F16043064B4FEA0111AD
:100DB400C9B2ABBF03F5614300F00F0083F8001321
:100DC4001954704714ED00E030BFFFF7FDBF00BFBA
:100DD40008B5094B094A23F0604323F07F0393606D
:100DE400BFF34F8FBFF36F8F01F046F801F00EFB96
:100DF40000F0BAF901F04AF80000000800ED00E044
:100E0400094A0A49936809685867996708494B6809
:100E140043F080534B60002383F31188BFF36F8F3B
:100E24009368986F704700BFE00200208435000883
:100E340000ED00E012498A684FF030001044EFF3EF
:100E4400098C80E8F01F102080F31288BFF36F8FA5
:100E54000C4F4FF000668A698A603E60506F002331
:100E6400536780F3118804B5104600F0BDF9BDE85E
:100E7400044002F1300090E8F01F8CF309887047B9
:100E8400E002002004ED00E01EF0040F0CBFEFF3BD
:100E94000880EFF30980816911F8021C0229FFD050
:100EA40001B501F094FC01BD42F8203C009B0B49C4
:100EB40042F81C3C019B21F0010142F8183C029BC2
:100EC40042F8081C42F8143C4FF0807342F8043C8A
:100ED4000023203A02654367704700BFBF2600081D
:100EE400094A0346906870B113F1160F406E05D09D
:100EF400A0F120029A4205D8834203D2814228BF3E
:100F04000020704700207047E002002008B5094B1C
:100F14000D469860144600F067F9204685F3098869
:100F2400002163B681F31188BFF36F8F0022002381
:100F340001F0C3FBE002002001B5EFF30580A0F14E
:100F440010004FEAC0000449014409C99847BDE8AC
:100F54000140024908470000C4300008650F00083A
:100F6400044B99689869884203D003494FF0805232
:100F74000A607047E002002004ED00E038B5184B29
:100F840014469A6A9A6A9A6A0546900718D5586B65
:100F94009A6A120614D519B19A6A22F080029A62EA
:100FA4009A6A9A6AD1060ED49B6A9A070BD40020D7
:100FB4000B4A936A43F0FF0393620023237038BD06
:100FC4006FF01500ECE7064B5B681B05EFD529466F
:100FD400FFF786FF0028EAD080F309880220E7E7BC
:100FE40000ED00E00C4B9A6A9A6A9A6A920508D559
:100FF4009A6B9A6A120404D518B19A6A22F40042D0
:101004009A620020044B9A6A9A6A9A6A42F47F426E
:101014009A620870704700BF00ED00E070B5484B5D
:101024000D465B6800268AB0C3F3080386F3118873
:10103400BFF36F8F02F07F41B1F17F4F11D102F006
:101044000C0108290DD0110701D405460126002200
:10105400033B8DF80720032B6BD8DFE803F004551E
:10106400595D3546F3E7364BDC6A14F0020460D16F
:10107400DA6A002A15DBDA6A520012D5AA6932F854
:10108400021C4DF6027291420AD093F828200AB34A
:1010940001210DF107022846FFF770FF044600E026
:1010A4002C689DF807309BB92022294602A801F03C
:1010B400E4FB099B002E3ED0C3F3080222B96FEA79
:1010C40053236FEA43230993204602A901F07DFBD1
:1010D4000AB070BD93F829202AB101200DF107014F
:1010E400FFF780FFDAE75A8D92B2002AD9D09A6AC4
:1010F4009A6A9A6A9A6A9A6A9A6A9A6A6FEA024237
:101104006FEA12429A62CCE700210DF10702C2E7AE
:1011140000200DF10701E3E7094B9A6A9A6A9A6A7B
:101124009A6A9A6A9A6A9A6A6FEA02426FEA124261
:101134009A620024B5E723F4FF7323F00103C2E7A6
:1011440000ED00E0024A536943F010035361704715
:1011540000ED00E0EFF30880EFF3098101B572467A
:10116400FFF75CFF01BD00BF002310210348C21834
:101174000133512B82F80013F9D1704700E100E0EC
:10118400102080F3118808484FF40261401880F35E
:101194000988EFF314800221084380F31488BFF315
:1011A4006F8FFFF715FE000060080020064B9B6858
:1011B400834207D1EFF3058323B1044A536843F014
:1011C4008053536001F0D0B8E002002000ED00E04D
:1011D4000121024B024A034800F06EB800000220CD
:1011E40000000020F83300082021426E044B203A0E
:1011F4001A60044A1846C3E90112012100F066B8D6
:101204007801002000000B15F0B500261E4F8E4219
:1012140001DB1046F0BD44689CB353B104F1FF3CBC
:1012240014EA0C0F18D11F2C16D905681CEA050FF7
:1012340012D1202C0568D0F808C0D2B20FD9B4F16D
:10124400004F0ED8013CB4FA84F4C4F11F046400C6
:10125400072A4CEA040406D96FF01502D9E70824DA
:10126400F6E73E24F4E725F01F05154345F0100585
:1012740044F00104C7F89820C7F89C500132C7F81D
:10128400A04001360C30C2E700ED00E00522044B1B
:10129400C3F89420BFF34F8FBFF36F8F704700BF25
:1012A40000ED00E0BFF35F8F0022024BC3F89420EF
:1012B400704700BF00ED00E010B5034C0123227815
:1012C400FFF7A2FF207010BD1403002008B5094ADF
:1012D40000231278FFF798FF10F1160F02D0064A88
:1012E400072800DD08BDC2F89800C2F8A03001301C
:1012F400F6E700BF1403002000ED00E0144910B528
:101304000868082821D8FFF7CDFF00224968114C4E
:10131400904201F10C0105D10F4B1870FFF7B6FF95
:10132400002010BDC4F8982051F80C3C23F01F0392
:10133400134343F01003C4F89C3051F8043C0132C9
:1013440043F00103C4F8A030E2E74FF0FF30E8E7D0
:101354000434000800ED00E014030020014B186081
:10136400704700BF040000200239012902D8034B52
:101374001B6818474FF0FF30704700BF040000207F
:101384000FB407B504AB53F8042B022104480193AE
:10139400FFF7DCF803B05DF804EB04B0704700BF5E
:1013A400AD2800082DE9F84304460E4615464FF0D3
:1013B40001080B4F02F10409B44201DBBDE8F883D4
:1013C4007A6908FA04F333EA020207D17B6155F81B
:1013D40034301BB1204659F8341098470134EBE7F8
:1013E400003C01400123044A834011680B4313600D
:1013F400024B1856FFF7C2BC003C0140D735000829
:101404001F2807DC0122044902FA00F00B6823EAD2
:1014140000000860704700BF003C014003290FD85A
:10142400DFE801F0020F17230122154B02FA00F046
:10143400996821EA00019960DA6822EA0000D8601C
:101444007047012303FA00F00D4B9A6802439A6037
:10145400F2E7012303FA00F0094BDA680243DA6089
:101464009A6822EA000098607047012303FA00F0AA
:10147400034B9A6802439A60DA681043DFE700BFBF
:10148400003C0140074B10B5044653F8300028B91E
:1014940043F8341003EBC4035A6010BD6FF00F001F
:1014A400FBE700BF840100200022034B43F83020F7
:1014B40003EBC0035A607047840100200B6886B0B8
:1014C400062B39D8DFE803F00410242E38381A002C
:1014D4001B4A4B68116B19431163126B1340019340
:1014E400019B002006B07047154A4B68516B1943A5
:1014F4005163526B13400293029BF2E7104A4B680C
:10150400916B19439163926B13400393039BE8E738
:101514000B4A4B68116C19431164126C1340049309
:10152400049BDEE7064A4B68516C19435164526CC4
:1015340013400593059BD4E76FF08500D2E700BF05
:1015440000380240094B09681B6806290BD8DFE8FC
:1015540001F0050504080A0A05009B080020136031
:1015640070475B08FAE76FF0850070472C00002095
:1015740000214FF4A05330B587B0CDE900134FF4E8
:101584000043029300F070F803A801F000FA184B2E
:101594001A68900706D41A6842F001021A601A68A1
:1015A4009207FCD5124CA36823F00303A360A3683D
:1015B40023F0F003A360A56815F00C05FBD12368A4
:1015C400012123F080732360636803AA23F070630E
:1015D40043F0A063636007486B4600F0A3FB2368F5
:1015E40023F00103236001F0D9F9284607B030BD88
:1015F4000038024000127A000B6882B0062B2DD806
:10160400DFE803F0040D1E252C2C1400154A49684C
:10161400136B23EA01031363002002B07047114ADD
:101624004968536B23EA01035363F5E70D4A4B689A
:10163400916B19439163926B13400193019BEBE708
:10164400084A4968136C23EA01031364E4E7054A72
:101654004968536C23EA01035364DDE76FF08500A6
:10166400DBE700BF00380240064B82B01A6C42F040
:1016740080521A641B6C03F080530193019B02B0E7
:10168400704700BF0038024008B50848084B18608E
:1016940001F058FB38B10748FFF760FE0548FEF734
:1016A4004FFF002008BD6FF01200FBE794300008E4
:1016B4003C020020BD1600080A2838B50446074D30
:1016C40004D1286883680D215B689847286883687B
:1016D400E1B25B689847204638BD00BF3C02002059
:1016E40070B50546074C204601F02CFB30B1A368C9
:1016F40029462046BDE870401B6818476FF0120069
:1017040070BD00BF742F0008F7B50C461146B1F543
:10171400005F1E464768026923D104F003030433C3
:101724009A000F23934043EA94033449DAB2023215
:1017340051F82220190C02EA134391FAA1F2B2FAE9
:1017440082F2D340BA689A4209D12046FFF758FE84
:101754002046FFF7A9FE00212046FFF75FFE002583
:101764003EE0B1F5804F42D020462549FFF78AFE7E
:10177400054600283ED16B46224ABF6892E8030022
:1017840083E803001846FFF7ABFFC0B904F0030178
:1017940004318B000F21994041EA94010B0C93FA18
:1017A400A3F3B3FA83F3CAB2920002F1804202F5C2
:1017B4009C3290689F4020EA11410F439760B6F530
:1017C400802F10D0B6F5C02F0FD0B6F5003F14BF50
:1017D400002102212046FFF721FE2046FFF702FEEA
:1017E400284603B0F0BD0121F4E70321F2E76FF0CE
:1017F4008505F5E76FF00F05F2E700BF00380140FB
:10180400392A0008C433000870B544680C3421B187
:101814002046BDE87040FFF763BF074D284601F03E
:1018240091FA30B1AB6821462846BDE870405B6848
:1018340018476FF0120070BD742F00082DE9F843AB
:10184400D0F804800769C146294C59F8085B06465C
:101854007C60204601F076FA18B96FF00400BDE808
:10186400F883A368204649461B6898470446002825
:10187400F3D1D8E9060173681A6800F087FF0028DD
:10188400EDDBEB6823F40053EB60EB6843F00C03EF
:10189400EB60D8F81430022B20D0012B23D0234640
:1018A4002046EA68034322F4B0521343EB602B69E9
:1018B40023F440532B6198F810302BB173681A68E5
:1018C400536943F4407353613046396801F0CCF9ED
:1018D400EB68002043F40053EB60C0E74FF48053FF
:1018E4004FF48060DDE74FF480534FF4C060D8E7D5
:1018F400742F00082DE9F0470A794368012A0D4640
:1019040006691C6800F08180022A0CBF4FF48061D4
:10191400002195F8059095F806E0B9F1020F96BFFD
:101924003E4B4FF4005833F81980BEF1040F6FD0CA
:10193400002A0CBF00234FF48053EF79A2F1030A6D
:10194400012F14BF4FF0000C4FF4407CBAF1010F8B
:1019540061D912B1BEF1040F5DD019F0FD0F5AD058
:10196400BEF1020F57D9BEF1040F54D087B12C4AEF
:1019740094420BD0A2F54C42944207D002F5806207
:10198400944203D002F54C42944244D1012F42D1F7
:10199400E26822F40052E260E26802F4C06291421A
:1019A4001FBFE76827F4C0670F43E760226902F4AA
:1019B400405290451FBF216921F4405141EA08017A
:1019C4002161E268296802F4805293421FBFE268F1
:1019D40022F480521A43E260636903F440739C4525
:1019E4001FBF636923F4407343EA0C0363613368E4
:1019F400994203D001F038F92B6833600020E36882
:101A040043F40053E360BDE8F0874FF4C06180E71E
:101A14004FF4805391E76FF08500F4E788350008B0
:101A2400001001404FF0E0239A69196910B511F4D0
:101A3400803F98690849094B01D1824206D21A684D
:101A44000C6822441A604FF0E02212691B680A688D
:101A54001344181A10BD00BFD8020020DC02002075
:101A640008B5FFF7DFFF0C4B0C4A186811680844EF
:101A74001060002242F6E0611A60094A1368C01A35
:101A8400B0FBF1F001FB0033136000F09FFDBDE8F3
:101A94000840FFF765BA00BFDC020020D402002032
:101AA400D00200201022094B002083F8232042F6A4
:101AB400DF62074B1A60074B18604FF0E0235A614E
:101AC40098611A6942F007021A61704700ED00E05C
:101AD400D8020020DC020020F8B5324D59B1431C75
:101AE40009D14FF0E022136923F0010313614FF091
:101AF4007F432B60F8BD40F27553B0F1FF3F08BF40
:101B04001846441E002C2F6832DD9C42A8BF1C4698
:101B14004FF01003EFF3118683F31288BFF36F8F36
:101B2400FFF780FF4FF0E02300221F49D3F818C0CD
:101B34000B6818441D4B08601A601D4B1B68C21AC1
:101B440018D54FF480632B604FF0E0222C68936922
:101B5400013C546100249C4538BFBC44ACEB030CED
:101B640060449461086086F31188BFF36F8FC1E706
:101B74000024CDE742F6E06E0EFB042404F53B544A
:101B84001F34B4FBFEF41B1A0EFB0434B4F5806F4F
:101B940004D9084B9C42D6D82C60D5E74FF4806416
:101BA400FAE700BFD8020020D4020020DC020020A3
:101BB400D002002060CCFF0010B54FF01003EFF30B
:101BC400118483F31288BFF36F8FFFF72BFF074B4A
:101BD400074A1B6812689B1A034484F31188BFF3F5
:101BE4006F8F42F6E060B3FBF0F010BDD40200202A
:101BF400D002002010B54FF01003EFF3118483F3EB
:101C04001288BFF36F8FFFF70DFF044B1B68184456
:101C140084F31188BFF36F8F10BD00BFD40200207E
:101C2400054B1A681B6802F0007203F0006313434B
:101C340014BF01200020704700380240D0B1114B7E
:101C4400984219D8104B984218D8104B984294BF18
:101C5400002001200E4A136823F00F03034313608E
:101C6400136803F00F0383420AD0136803F00F03D1
:101C7400984205D0012070470320EBE70220E9E7F2
:101C840000207047804A5D050087930380C3C90123
:101C9400003C024038B50B681F4AC3F30313D35CFE
:101CA4001E4D20FA03F42B68A34227D31C4B1A6859
:101CB40042F080721A601A689201FCD59A6808682A
:101CC40022F0F00202439A609A6822F0030242F082
:101CD40002029A60124B9A6802F00C02082AFAD1A6
:101CE4009A68486822F4E05202439A609A688968C4
:101CF40022F460420A4300209A6004E02046FFF781
:101D04009DFF0028D2D02B68A34202D92046FFF7BA
:101D140095FF00B92C6038BD493600082C0000201E
:101D240000380240F8B50E46054614461946FFF73A
:101D340077FF002833D12768D4F804C007F03F03A5
:101D4400B5FBF3F5CCF3080005FB00F3A568154CCF
:101D5400280C01304000B3FBF0F023689A030FD441
:101D64002368012E0CBF43F4802323F480232360D3
:101D740023680C4A43F48033236013689B03FCD527
:101D8400084B094A5C68224042EA8C123A432A43CF
:101D940042F480025A60BDE8F840FFF77BBF01209F
:101DA400F8BD00BF003802400080BCFF0E4B70B588
:101DB40053F82040013053F82060A64200D870BD8B
:101DC400D4E900352846984765B1EB6830B100285E
:101DD400B8BF4042FF28A8BFFF2018705A7842F0CD
:101DE40001025A700834E8E7703500080023012224
:101DF40030B587B0CDE904230F22CDE90232182291
:101E04004FF4907501930B4B0B4C02FB00330B49C1
:101E140004EBC01405FB001100934FF480722046BC
:101E2400074B00F0A3F8637B23F00403637307B04C
:101E340030BD00BFE00200207000002040070020F9
:101E4400AB2D0008012208B5094B02201A70FFF7D8
:101E5400ADFF01F044F80320FFF7A8FF00F0B8F845
:101E6400FEF712FB034A137B23F00103137308BD2F
:101E740015030020F00000200248034A0021121A32
:101E840000F006BD700000201803002080B5DFF8C4
:101E9400BC80A6B088F308882D4D00246B692D4EB4
:101EA40043F400736B61F02385F82230EC772C76D1
:101EB4006C76AC7685F820406B6ADFF89C9043F42E
:101EC400E0236B62FFF73EF9FEF744FF4FF0FF3368
:101ED400AB62EB62FFF712FAFFF77AF940F20113F3
:101EE400ADF8243006ABB360CDE91F4400F029FF00
:101EF4002046FFF75BFF0120FFF758FF00F022FAAE
:101F0400164B174D0593012316494FF48062CDE912
:101F1400034328464B46CDE901440094B56100F0E3
:101F240025F807466A7B284622F004026A7300F00B
:101F340074FF2046FFF75AFF0B4B4A4639462846A2
:101F4400F3603475C6F80480FEF7E0FF80100020CB
:101F540000ED00E0E0020020491E000859360008A8
:101F6400F000002020030020700000202DE9FF4134
:101F74000E9E00F15805067304260F46C0E9165557
:101F84000025044646730D9E20378673D61D0C9A91
:101F940026F00706C0E90655C0E919768560C573C1
:101FA400C56602920B9A06F1200801920A9A8844A7
:101FB40000924246FEF778FF044B65659B6803B1C7
:101FC4001B6F4046236704B0BDE8F081E0020020A7
:101FD400F0B5224C224D87B02646AE4204F13004BF
:101FE4000BD300F091F80A261C4C1E4FAC4220D3B0
:101FF40007B0BDE8F04000F089B954F8043C54E956
:102004000C01059354F8103C049354F8143C0393C6
:1020140054F8183C029354F81C3C019354F8203CA7
:10202400009354E90A23FFF7A1FF54F8303C5E659E
:10203400D2E7626A531C09D022EAE27282FB0623C9
:1020440052EA0301206803D100F042F93034CDE7AD
:102054003946183000F040FAF8E700BF700000205D
:10206400700000203F2E000810B5084C23685BB1B7
:10207400FFF7A2FD03462068054A03440021BDE89A
:102084001040136100F011BF10BD00BF0C0300200D
:10209400E002002010B54FF01003EFF3118483F336
:1020A4001288BFF36F8F00220B4B90421A614FF0DE
:1020B4000A030A4A00FB03F309DC1360084B1960A6
:1020C400FFF7D2FF84F31188BFF36F8F10BD022B8B
:1020D400B8BF0223F1E700BFE00200200C03002098
:1020E4000803002049B9EFF3058030B9054B9A691C
:1020F4009B689A4201D0FEF783BE81F31188BFF337
:102104006F8F7047E00200204FF01003EFF311814E
:1021140083F31288BFF36F8F044B9A68D37B013B20
:10212400D37381F31188BFF36F8F7047E0020020EF
:1021340038B502460C4800F06AFE0C4D044600B95E
:10214400EC68AB684AB95A7BD20606D1A26922B9B7
:10215400DA897F2A01D9AB6138BD9C4201D0FFF7EF
:1021640083FFAC61F8E700BFFC020020E00200201E
:1021740070B590F90D200146002A437B04DA03F080
:102184007F03437300F01BFE4B7B154A63F07F0310
:102194004B7302F11C05D2E90734AB421BD0D3B117
:1021A40091F90E6093F90E0086420FD0801B00282F
:1021B4000CDD5868C1E90030016059609068BDE8E1
:1021C4007040431A58425841FFF7B2BFA34202D0AD
:1021D4001B68002BE6D1C1E9005421601162EDE7D0
:1021E400E0020020014638B54FF01003EFF31184EC
:1021F40083F31288BFF36F8F154B164A98681568DE
:10220400A84206D1FFF730FF84F31188BFF36F8F24
:1022140038BD00251560104A1268BAB1C2897F2AF8
:1022240014D8427BD20611D10C4A90F90E50126890
:1022340095420BDB0A4A904208D01A698A4202DCB2
:10224400FFF796FFDEE7521A1A61DDE70022FBE78B
:10225400E0020020040300200C03002008030020F7
:102264007000002070B490F90D20437B002A2ADB13
:10227400DA0628D1826932BB144A63F07F034373C0
:1022840002F11C05D2E90734AB4217D0B3B190F97F
:102294000E6093F90E108E420BD0891B002908DDC5
:1022A4005A68C0E9003210605860002070BCFFF723
:1022B4003FBFA34202D01B68002BEAD1C0E90054FF
:1022C40020601062F1E770BC704700BFE00200209C
:1022D40010B54FF01002EFF3118482F31288BFF3AC
:1022E4006F8F427B510704D484F31188BFF36F8F3F
:1022F40010BD22F004024273FFF7B4FF2146BDE88B
:1023040010400148FFF7EEBE1603002010B54FF051
:102314001003EFF3118483F31288BFF36F8F084B1C
:1023240000209A68D37B0133D373FFF701FF84F352
:102334001188BFF36F8FBDE8104000F05EBD00BF91
:10234400E00200200021044B084603F11C02C3E90B
:102354000722FFF79FBE00BFE0020020014B9868F0
:10236400704700BFE00200202DE9F04104464FF021
:102374001003EFF3118683F31288BFF36F8F437B4F
:102384001A0705D586F31188BFF36F8FBDE8F08176
:1023940023F0200242F00801D20920D14173A3683E
:1023A40013B1204600F013FD04F1180000F067FD9E
:1023B4004FF0000804F15807A56DBD4200D0B5B92F
:1023C4000120FFF7B5FE104B9B68A342DAD1EFF36F
:1023D4000583002BD6D13046FEF712FDD2E703F079
:1023E4005F0343F00803437300F0E9FCD7E7284692
:1023F40000F0EDFC05F1180000F041FD2846C5F899
:102404007880FFF72FFFD7E7E002002008B50648E1
:10241400064A0749121A00F030FABDE80840054A96
:102424000549064800F029BA000000207000002089
:10243400603600080000000060360008000000203C
:10244400034B1B680BB9FFF7B7BB0020704700BFF5
:1024540010030020114B10B51C689C4208BF0024D7
:10246400FFF7EEFF03466CB1D4E90402C01A62EB35
:10247400E373012873F100020DDBB0F1004F73F137
:10248400000301DB6FF00040054B1B6913B1984258
:10249400A8BF184610BD0020F6E700BF300000209A
:1024A400E002002030B5036868B10A4A52689042DD
:1024B40009D043B1D3E90421D0E90445121941EB11
:1024C4000501C3E90421426813605A600023C0E98E
:1024D400003330BD30000020B3F1FF3F08BFB2F13C
:1024E400FF3FF8B504461F46154667D081604FF09C
:1024F4001003EFF3118683F31288BFF36F8F6FF02D
:1025040001024FF0FF3C531B6CEB0703002B1BDB5A
:102514002B4BD3E90013521A6CEB0303551B63EBEB
:102524000703012D73F10002BCBF01250023C0E99C
:1025340004532448D0E9003C834218D1C4E9000C78
:10254400CCF80040446026E0FFF77AFF013547F1FC
:1025540000072D1847EBE077C4E90457E9E7521A5E
:1025640065EB07059C45C4E90425E7D01B68002BEF
:10257400E4D0D3E90417D4E904258A4275EB070EA5
:10258400EDDA8A1A67EB0505C3E904255A68C4E93C
:10259400003214605C60036883420BD09C4209D112
:1025A400FFF758FF18B1084B1B69834202D0002182
:1025B400FFF792FA86F31188BFF36F8FF8BD00BF5F
:1025C4007001002030000020E00200202DE9F843D3
:1025D4000546FFF707FE4FF01003EFF3118483F372
:1025E4001288BFF36F8F244EDFF890803560244D3E
:1025F400D8F80000326840454FEAE277D5E9001E7A
:102604000BD050B1D0E9043C9A4277EB0C0916DAAE
:102614009B1A6CEB070CC0E9043C52184EEB0707FD
:10262400C5E9002700253560FFF714FF2946FFF7A9
:1026340053FA84F31188BFF36F8FBDE8F8835918F8
:102644004EEBE377D31A336000220023C0E904235E
:10265400C5E90017FFF726FF84F31188BFF36F8FD6
:10266400836898474FF01003EFF3118483F31288C3
:10267400BFF36F8FBCE700BF1003002030000020C1
:102684007001002038B5044678B1FFF7B3FA054667
:1026940006480023A4FB0001054AFDF771FD04462A
:1026A400FFF7A8FA431BA342FAD338BD000E27074D
:1026B40040420F00704700207047044608B50846A2
:1026C40011461A46A047FFF749FEFEF76FFD2DE9B4
:1026D400F84F9A46D37880466F2B0F461546A3F1E0
:1026E400410B29D024D8582B14BF0A261026DDF814
:1026F40028903246002340463946FDF741FD092A19
:10270400D4B21ED83034B045E4B277F1000309F8EE
:10271400014D01D3D14511D82B789B0605D5082E40
:1027240015D1AB7843F00803AB704846BDE8F88F89
:1027340003F0F703702BD7E70826D8E780460F4647
:10274400D7E7BBF1190F94BF37345734DBE7102EAA
:10275400EBD1AB7843F01003E6E72DE9F0410746EF
:10276400884615461E461446B442A4EB050002D31F
:102774003EB923782BB1414614F8010BB847002821
:10278400F2DABDE8F081704700207047F8B50F46D3
:10279400A9B100263546041D54F8040C10F0F00FBE
:1027A400C2B20ED1256845F020052946C0F30720A2
:1027B400FEF7AEFA083418B90136B742ECD100205E
:1027C400F8BD102A08BF3025EFE700F0D1BA014662
:1027D400006800F0CDBA00210120FFF7F6BF08B56C
:1027E400FEF7F2FABDE80840FEF7BABB30B502784E
:1027F4000346202A00F10100F9D0A2F109010429BD
:10280400F5D92B2A08D02D2A0ABF0346002101211D
:1028140000200A25013B06E003460021F8E7C2F147
:10282400300205FB002013F8012FA2F13004092C1B
:10283400F5D901B9404230BD034600201A5C02B903
:1028440070470130FAE7034600201A5C0AB1884257
:1028540000D170470130F8E7034610B55AB1013989
:10286400841813F8010B11F8012FA34201D09042F0
:10287400F7D0801A10BD1046FCE710B5431E0A4479
:10288400914200D110BD11F8014B03F8014FF7E755
:102894000346C9B20244934200D1704703F8011BB6
:1028A400F9E74FF0FF307047FEF75EBD002208B530
:1028B40011460620FEF772FA002207201146FEF7A1
:1028C4006DFA002208201146FEF768FA002209205A
:1028D4001146FEF763FA00220A201146FEF75EFA5B
:1028E400002217201146FEF759FA0022282011462B
:1028F400FEF754FA002201201146FEF74FFA002297
:102904002A201146FEF74AFA002202201146FEF759
:1029140045FA002203201146FEF740FA002008BDC4
:10292400026917211620FEF73DBD02691621152004
:10293400FEF738BD026913211220FEF733BD026988
:1029440011211020FEF72EBD026910210A20FEF786
:1029540029BD02690A210520FEF724BD026905216B
:102964000420FEF71FBD026904210320FEF71ABDEF
:10297400026903210220FEF715BD0269022101202C
:10298400FEF710BD026901210020FEF70BBDF02304
:102994000822C0E90023002383607047704743681E
:1029A40000205B681B690B60704743685B6858696B
:1029B40042400A4042405A61002070474368002068
:1029C4005B6899617047436809045B6800209961FA
:1029D4007047436800205A6853694B4053617047FD
:1029E400036930B5986858B10024814212D108684F
:1029F400DD6854B98D42986000D1D8600020086029
:102A04006AB9002030BD2846EFE78D42206008BF38
:102A1400DC60F3E705680446002DF4D13AB19A6806
:102A2400D8680A6099600028EBD1D960EAE76FF0B2
:102A34001500E7E70B46896870B569B101255E6842
:102A44000C6885408A682A4002D030464B68984713
:102A540014B121462468F5E770BD4068F0B54468B8
:102A6400012067688840C2F3801627EA00078E4079
:102A74003E4390FAA0F7B7FA87F74FF0030E66606B
:102A8400D4F808C07F000EFA07F72CEA070C90FA76
:102A9400A0F7B7FA87F7C2F3C1167F00BE4046EA33
:102AA4000C06A66090FAA0F6B6FA86F6E7687600F9
:102AB4000EFA06F627EA060790FAA0F6B6FA86F6A4
:102AC40002F030057600C2F34122B2403A43202D91
:102AD400E26015D107292BDC90FAA0F2216A2AB30F
:102AE400B2FA82F20F26920006FA02F221EA0201F9
:102AF40090FAA0F2B2FA82F2920093400B4323625E
:102B040090FAA0F3B3FA83F390FAA0F00321B0FA99
:102B140080F022685B002D0901FA03F3400022EAE9
:102B2400030305FA00F018432060F0BD2A46D9E7F4
:102B3400020A666A92FAA2F181B1B1FA81F192FABB
:102B4400A2F20F27B2FA82F2890007FA01F1920089
:102B540026EA010193400B436362D1E72946EEE77D
:102B640038B50D4691050446134619D59A0710D574
:102B7400580730D55022D9060DD542F400721905F4
:102B84001ED4580515D501212046A940FFF71BFF87
:102B94000FE01022EFE79806F1D542F48062EEE7E9
:102BA400D10513D5DA0613D413F0200218BF4FF45D
:102BB4008062204600232946FFF74FFF002038BDDE
:102BC40001236168AB4049688B61F2E73022F0E78A
:102BD4004FF40072EDE76FF08500F0E70269012120
:102BE4005060FEF711BE036882B00193019B4368F5
:102BF4000193019B02B0704708B5436818680368E5
:102C04001A0701D5FFF7EFFF03689B0649BF436826
:102C14004FF0FF3000200B7008BD43681B681A6832
:102C24001206FCD55960704708B5436818680268F5
:102C34000368C2F3C002DB07036848BF42F0020224
:102C4400990748BF42F00402D30701D5FFF7CBFF31
:102C5400910701D5FFF7C7FF530701D5FFF7C3FF5E
:102C6400FFF7C1FF104608BDF7B5036947680D4675
:102C740057F8084B5E68304600F064F8F8B1B36862
:102C8400DB68E3B13946304601AA9847002816DBD1
:102C94001921E368642223F40043E360019B4B435E
:102CA400A900B3FBF1F1B1FBF2F002FB10131B011D
:102CB4003233B3FBF2F303EB00139BB2A36003B014
:102CC400F0BD03691B680B6043681A68D36803F49A
:102CD400C063B3F5806F29D0A3F5C06CDCF10003A9
:102CE40043EB0C030B71136903F44053B3F5805F9A
:102CF4001ED0B3F5405F1DD0002B14BF0323012366
:102D04004B71D068D368C00403F4C06314D5002B9E
:102D140014BF032304238B715369002003F440730D
:102D2400A3F5407253425341CB7170470223D9E754
:102D34000023E5E70223E3E7002B0CBF0323022370
:102D4400E9E7704738B1C3681888C0F30800A0F5F4
:102D540080735842584170474FF01002EFF31183CB
:102D640082F31288BFF36F8FFEE708B5FFF7F4FF15
:102D7400F8B505460E464FF01003EFF3118783F3C1
:102D84001288BFF36F8FFFF7E9FA314604462846ED
:102D9400FFF7EBFF87F31188BFF36F8F2046BDE881
:102DA400F840FEF703BA08B54FF01002EFF31183B1
:102DB40082F31288BFF36F8FFDF7D2FFF4E7D0E9F7
:102DC400003213605A600023C0E90033704708B52D
:102DD400FFF7F5FF437B23F0020343730023836073
:102DE40008BD034620B9EFF305820AB9FEF708B817
:102DF40083F31188BFF36F8F70474FF01003EFF325
:102E0400118083F31288BFF36F8FFFF7EABF034685
:102E14000068834208BF0020704710B54FF01003CC
:102E2400EFF3118483F31288BFF36F8FFFF71AFA5D
:102E340084F31188BFF36F8F10BD014610B54FF0B6
:102E44001003EFF3118483F31288BFF36F8F10F82C
:102E54000B3C13F0280F0DD151F8103C18380BB16E
:102E6400FFF7B5FF11F80B3C23F0140301F80B3CFA
:102E7400FFF7F8F984F31188BFF36F8F10BD10B515
:102E84004FF01002EFF3118482F31288BFF36F8FB7
:102E940003683BB1FFF706FB002084F31188BFF3FE
:102EA4006F8F10BD6FF01500F7E770B504460D463F
:102EB4004FF01003EFF3118683F31288BFF36F8F83
:102EC400FFF7C8FA012805DDA04203DB29462046A6
:102ED400FEF702FE86F31188BFF36F8F70BD704753
:082EE400D0D2FF7F01000000C5
:102EEC00D50C0008000000008D2700080000000031
:102EFC0075150008742F0008E12B00088C2F0008B2
:102F0C00E12B0008A42F0008E12B0008BC2F0008BF
:102F1C00E12B0008D42F0008E12B0008EC2F00084F
:102F2C00E12B000804300008E12B00081C300008DD
:102F3C00E12B000834300008E12B00084C3000086D
:102F4C00B128000864300008411800087C300008E3
:102F5C004118000894300008A91A0008AC30000889
:082F6C008D16000800000000B2
:102F7400EE35000800000000080000203C0000209E
:102F840000000000BA330008FB350008C434000810
:102F9400D834000840000020C0020020B2330008EA
:102FA40001360008B0340008D8340008440000207A
:102FB400B0020020AA330008073600089C34000839
:102FC400D834000848000020A0020020A2330008E2
:102FD4000D36000888340008D83400084C0000205E
:102FE400900200209A330008133600087434000855
:102FF400D8340008500000208002002092330008DA
:103004001936000860340008D83400085400002041
:10301400700200208A3300081F3600084C34000870
:10302400D8340008580000206002002082330008D1
:103034002536000838340008D83400085C00002025
:10304400500200207A3300082B360008243400088C
:10305400D8340008600000204002002072330008C9
:10306400B93500080000000000000000380000200E
:10307400840100206C330008313600083C35000818
:103084005C35000864000020240000205E33000842
:10309400383600081C3500085C350008680000203C
:1030A4001C000020503300083F36000800000000D8
:1030B400000000006C000020000000004C330008F9
:1030C40000000000DB2700086430000843290008E2
:1030D400643000082F2900086430000825290008FE
:1030E40000000000DB27000800000000DB270008C8
:1030F4006430000889290008643000087F2900082A
:103104006430000875290008643000086B29000841
:10311400643000086129000800000000DB27000873
:1031240000000000DB27000800000000DB27000887
:1031340000000000DB27000800000000DB27000877
:1031440000000000DB27000800000000DB27000867
:1031540000000000DB27000800000000DB27000857
:1031640000000000DB27000800000000DB27000847
:1031740000000000DB27000864300008572900081D
:1031840000000000DB27000800000000DB27000827
:1031940000000000DB27000800000000DB27000817
:1031A40000000000DB27000800000000DB27000807
:1031B40000000000DB27000800000000DB270008F7
:1031C40000000000DB27000800000000DB270008E7
:1031D40000000000DB27000800000000DB270008D7
:1031E40000000000DB27000800000000DB270008C7
:1031F40000000000DB27000800000000DB270008B7
:10320400643000084D29000800000000DB27000896
:10321400643000083929000800000000DB2700089A
:1032240000000000DB27000800000000DB27000886
:1032340000000000DB27000800000000DB27000876
:1032440000000000DB27000800000000DB27000866
:1032540000000000DB27000800000000DB27000856
:1032640000000000DB27000800000000DB27000846
:1032740000000000DB27000800000000DB27000836
:1032840000000000DB27000800000000DB27000826
:1032940000000000DB27000800000000DB27000816
:1032A40000000000DB27000800000000DB27000806
:1032B40000000000DB27000800000000DB270008F6
:1032C40000000000DB27000800000000DB270008E6
:1032D40000000000DB27000800000000DB270008D6
:1032E40000000000DB27000800000000DB270008C6
:1032F40000000000DB27000800000000DB270008B6
:1033040000000000DB27000800000000DB270008A5
:1033140000000000DB27000800000000DB27000895
:1033240000000000DB27000800000000DB27000885
:1033340000000000DB27000800000000DB27000875
:0833440000000000DB27000877
:10334C00FF7FFF7F0100FF7FFF7FFF7FFF7FFF7FFE
:10335C00FF7F0100FF7FFF7FFF7FFF7FFF7FFF7FEE
:10336C00FF7FFF7FFF7F0100FF7FFF7FFF7F01005B
:10337C00FF7FFF7FFF7F0100FF7FFF7FFF7F01004B
:10338C00FF7FFF7FFF7F0100FF7FFF7FFF7F01003B
:10339C00FF7FFF7FFF7F0100FF7FFF7FFF7F01002B
:1033AC00FF7FFF7FFF7F0100FF7FFF7FFF7FFF7F9E
:0633BC00FF7FFF7FFF7F91
:0233C200FFFF0B
:1033C40003000000004000004C30000834300008C6
:1033D4001C30000804300008EC2F0008D42F00082B
:1033E400BC2F0008A42F00088C2F00080000000048
:1033F40000000000000000200000000000000B0698
:10340400020000000C34000800000008AA3500087F
:103414002600020700000020B235000820000B112E
:10342400FFFF000000000240000000000000000058
:1034340001000000FFFF0000000402400100000042
:103444000000000002000000FFFF0000000802402E
:10345400020000000000000004000000FFFF000064
:10346400000C0240030000000000000008000000FF
:10347400FFFF0000001002400400000000000000F4
:1034840010000000FFFF00000014024005000000CF
:103494000000000020000000FFFF000000180240B0
:1034A400060000000000000040000000FFFF0000D4
:1034B400001C024007000000000000008000000023
:1034C400FFFF000000200240080000000000000090
:1034D40000010000652B0008A3290008AF2900089B
:1034E400C1290008CB290008D72900080D170008B6
:1034F400E529000800000000073800000002000071
:103504000739000000000000086E000000020000FF
:1035140008690000000000000048004000000000AE
:103524000200000000000400000000000000000091
:10353400FC340008020000000014014000000000F8
:103544000300000020000000000000000000000054
:103554000C35000802000000FD2B00081F2C000899
:103564002D2C0008F9180008C72C0008EC2E0008C0
:10357400642F00086C2F0008742F0008742F0008B3
:10358400F5FFFFFF0010000000307B696E69747D59
:1035940000626175643A007B6368616E67657D00F3
:1035A400286E696C2900464C4153485F30005352E1
:1035B400414D5F3000696E746572727570742D636D
:1035C4006F6E74726F6C6C6572403430303133637B
:1035D400303000060708090A171717171728282874
:1035E40028282801FF2AFFFF020372636340343056
:1035F400303233383030004750494F490047504942
:103604004F48004750494F47004750494F460047ED
:1036140050494F45004750494F44004750494F4394
:10362400004750494F42004750494F4100554152CD
:10363400545F3600554152545F33007379735F63AE
:103644006C6F636B000000000000000000010203C7
:0C36540004060708096D61696E000000A3
:10366000BB260008A7280008C1140008FD150008A3
:1036700000000000491500080000000000C2010021
:103680000000000000C20100000000000024F4005F
:08369000300000203000002092
:103698000000000000000000000000000000000022
:1036A8000000000000000000000000000000000012
:1036B8000000000000000000000000000000000002
:0836C8000000000000000000FA
:040000050800118559
:00000001FF
