:020000040800F2
:1000000000400420010C000823090008250900080D
:1000100027090008290900082B090008510C0008CD
:100020000000000000000000000000002D09000892
:100030002F090008000000003109000833090008FA
:10004000510C0008510C0008510C0008510C00081C
:10005000510C0008510C0008510C0008510C00080C
:10006000510C0008510C0008510C0008510C0008FC
:10007000510C0008510C0008510C0008510C0008EC
:10008000510C0008510C0008510C0008510C0008DC
:10009000510C0008510C0008510C0008510C0008CC
:1000A000510C0008510C0008510C0008510C0008BC
:1000B000510C0008510C0008510C0008510C0008AC
:1000C000510C0008510C0008510C0008510C00089C
:1000D00000000000510C0008510C0008510C0008F1
:1000E000510C0008510C0008510C0008510C00087C
:1000F000510C0008510C0008510C0008510C00086C
:10010000510C0008510C0008510C0008510C00085B
:10011000510C0008510C0008510C0008510C00084B
:10012000510C0008510C0008510C0008510C00083B
:10013000510C00083D090008510C0008510C000842
:10014000510C0008510C0008510C0008510C00081B
:10015000510C0008510C0008510C0008510C00080B
:100160000000000000000000510C0008510C0008C5
:10017000510C0008510C0008510C0008510C0008EB
:10018000510C0008510C0008510C00080000000040
:1001900000000000510C00080000000000000000FA
:1001A0000000000000000000510C0008510C000885
:1001B000510C0008510C0008510C0008510C0008AB
:1001C000510C0008510C0008000000000000000065
:1001D000000000000000000000000000510C0008BA
:1001E000510C0008510C0008000000000000000045
:1001F000510C0008510C0008510C000800000000D0
:1002000000000000510C0008510C00080000000024
:1002100000000000510C000800000000510C000814
:10022000510C00080000000000000000510C000804
:10023000510C000800000000000000000000000059
:10024000000000000000000000000000510C000849
:04025000510C000845
:1002540010B5054C237833B9044B13B10448AFF3FC
:1002640000800123237010BD5C000020000000000A
:100274004857000808B5034B1BB103490348AFF3C3
:10028400008008BD000000006000002048570008FE
:10029400034613F8012B002AFBD1181A01387047C2
:1002A40053B94AB9002908BF00281CBF4FF0FF31D9
:1002B4004FF0FF3000F0B0B9ADF1080C6DE904CE99
:1002C40000F006F8DDF804E0DDE9022304B070472D
:1002D4002DE9F04F099D884604468E46002B4AD1ED
:1002E4008A4217465FD9B2FA82F64EB1C6F12003AC
:1002F40001FA06FEB740B44020FA03F343EA0E0EB7
:100304004FEA17481FFA87FC230CBEFBF8F108FBE1
:1003140011EE01FB0CF243EA0E439A4207D9FB1893
:1003240001F1FF3002D29A4200F2548101469B1A35
:10033400A2B2B3FBF8F008FB103300FB0CFC42EA5A
:10034400034294450BD9BA1800F1FF332CBF0124A2
:100354000024944502D9002C00F03F81184640EA5D
:100364000140A2EB0C0200211DB1F2400023C5E9BB
:100374000023BDE8F08F8B4205D90DB1C5E900011A
:1003840000210846F5E7B3FA83F100294ED143452D
:10039400C0F01281824240F20F810846002DE8D05D
:1003A400C5E9004EE5E7002A00F0AC80B2FA82F617
:1003B400002E40F0BB808B1A4FEA124EBCB20121D2
:1003C400020C80B2B3FBFEFC0EFB1C3342EA034377
:1003D40004FB0CF29A420ED9FB180CF1FF382CBF27
:1003E4004FF001094FF000099A4203D9B9F1000F07
:1003F40000F0EC80C4469B1AB3FBFEF80EFB1833E6
:1004040004FB08F440EA034294420BD9BA1808F1F9
:10041400FF332CBF01200020944202D9002800F0B1
:10042400D1809846121B48EA0C409DE7C1F1200692
:100434008B4008FA01F400FA01F922FA06F728FAC7
:1004440006F88A401F4320FA06F3380C23431FFAA8
:1004540087FC1C0CB8FBF0FE00FB1E8844EA084431
:100464000EFB0CF8A0450ED93C190EF1FF3A2CBF37
:100474004FF0010B4FF0000BA04503D9BBF1000F67
:1004840000F0B880D646A4EB08041FFA83F8B4FB46
:10049400F0F300FB134403FB0CFC48EA0444A445BA
:1004A4000ED93C1903F1FF302CBF4FF001084FF077
:1004B4000008A44503D9B8F1000F00F09F8003465B
:1004C40043EA0E40A4EB0C04A0FB02EC6445734623
:1004D400E04602D307D1F14505D2BEEB02036CEB33
:1004E400070C0138E0465DB1B9EB030264EB080484
:1004F40004FA06F622FA01F3CC401E43C5E900646F
:10050400002136E7B1FBF2FC010C144680B296469A
:1005140041EA08412026904640EA01431046B1FBD7
:10052400F2F1A3EB080341EA0C414BE7B740C6F1F3
:10053400200301FA06F221FA03F84FEA174E20FAD3
:1005440003F3BCB2B0401343020C190C80B2B8FBE5
:10055400FEF90EFB198841EA084109FB04F88845B5
:1005640051D9791809F1FF3C2CBF4FF0010A4FF023
:10057400000A884502D9BAF1000F31D0A1EB080175
:10058400B1FBFEF909FB04F80EFB19119BB243EA17
:100594000143434535D2FB1809F1FF312CBF4FF01D
:1005A400010A4FF0000A4345BBD2BAF1000FB8D19B
:1005B400A9F102013B44B4E7841A68EB0302012069
:1005C4009646EBE63A44A8F102082BE7ACF1020C9C
:1005D4003B4410E702393B44A9E63A440238BEE6FC
:1005E400A7EB0808A9F1020C4144B1FBFEF909FB91
:1005F40004F8C9E7AEF1020E3C4444E7023B3C4434
:100604005EE749468DE7A1EB0801CC46B1FBFEF954
:1006140009FB04F8B8E700BF704700BF82B00D4B78
:10062400D3F88C2042F00102C3F88C20D3F88C203C
:1006340002F001020092009AD3F88C2042F00202E8
:10064400C3F88C20D3F88C3003F002030193019B90
:1006540002B07047000C02447047034638B141B100
:100664004AB10020186058609A60D9607047012030
:100674007047012070470120704702684068824239
:1006840014BF0020012070474368013382689A42F6
:1006940000D89B1A0068984214BF002001207047BC
:1006A40038B504460D46FFF7EFFF58B9E2686368B2
:1006B400D55463680133A268B3FBF2F102FB113332
:1006C400636038BD0120FCE738B504460D46FFF7EA
:1006D400D4FF60B9E2682368D35C2B7023680133CC
:1006E400A268B3FBF2F102FB1133236038BD012091
:1006F400FCE772B6FEE7000000B59DB05022002171
:1007040008A804F019FA00230293039304930593B1
:1007140006930793234A136923F0300343F020031D
:100724001361136903F030030193019B1D4B5B6953
:1007340013F0080FFAD00223089301220B92082128
:100744000C9140210D91129313920422149232229F
:1007540015921693179318930C23199300231A9345
:100764001B9308A800F0D8FFB8B91F2302930323F2
:10077400039300230493059306930793052102A88A
:1007840000F068FE58B9084A136823F0300343F0B8
:10079400200313601DB05DF804FBFFF7AAFFFFF709
:1007A400A8FF00BF000802440020024030B5ADF5A8
:1007B400005D8FB000F0A2FAFFF79EFFFFF72EFF57
:1007C40000F038F9FFF748FF4FF4FD5269460DEB8E
:1007D4000200FFF742FF4FF4E13000F0D1F94B4B38
:1007E40093E803000DF5FD53103318600DF5FD5328
:1007F40014331980090C0DF5FD53163319700DF5DA
:10080400FD501030FFF744FD81B20DF5FD5010305E
:1008140000F0D6F90024254625E00DF500503330CC
:1008240000F0DEF928BB0DF50053333319780DF5CC
:10083400FD50FFF735FF1CE00DF5005333331B78F3
:100844007B2B2DD004F5005238326A4402F8483C20
:1008540001347D2B26D001210DF50050333000F0FA
:10086400AFF9012D32D00DF5FD50FFF70DFF002833
:10087400D3D00DF5FD50FFF700FF0028F3D1244B32
:100884001B68DB6913F0800FEDD00DF50051333197
:100894000DF5FD50FFF718FF3E2CCDD90024CBE712
:1008A4000024CFE7002CD6D0002204F500533833BF
:1008B4006B4403F8482C0DF50052343215490DF5FC
:1008C400FF50103004F00AF90546C4E70A2000F08E
:1008D4004BFA0DF500533433186800F051F9C82071
:1008E40000F042FA0C4A0DF5FD53103307CA03C356
:1008F4001A700DF5FD501030FFF7CAFC81B20DF5EA
:10090400FD50103000F05CF90025ACE76C5700088E
:100914007C00002074570008805700087047FEE7E9
:10092400FEE7FEE7FEE7FEE770477047704708B54D
:1009340000F008FA08BD000008B5024803F062FCA4
:1009440008BD00BF7C00002010B503460C4A0D49C9
:100954000D48006840B10C4800680344521A9342A1
:1009640006D8094A136010BD0748084C0460F2E732
:1009740004F0EAF80C2303604FF0FF30F3E700BF04
:1009840000400420000400007800002060020020E1
:1009940010B42249D1F8883043F47003C1F8883088
:1009A4001F4B01221A600022DA611A621C681D487A
:1009B400204018609A62DA621A631B4858639A638B
:1009C400D8631A6458649A64186820F48020186004
:1009D4001A654FF000638B60144B9B6903F060430E
:1009E400B3F1604F02D0B3F1404F13D10F4BDB6929
:1009F40013F0010F05D00D4B0D4ADA6002F14432B9
:100A0400DA600A4BDA6942F00202DA61DA6942F02A
:100A14000102DA615DF8044B704700BF00ED00E0AD
:100A2400000C0244E3EAE2EA8002010100200240F1
:100A34003B2A190808B51848184B03604FF4E133F2
:100A4400436000238360C36003610C2242618361BD
:100A5400C36103624362836203F075FF80B94FF0A0
:100A640000410D4803F0EFFF68B94FF000610A48F8
:100A740004F00EF850B9084803F0C1FF48B908BDA6
:100A8400FFF737FEEBE7FFF734FEEEE7FFF731FE43
:100A9400F1E7FFF72EFEF2E77C000020004C004057
:100AA40010B5BCB0044600213791389139913A9180
:100AB4003B91D02202A804F03FF822681F4B9A42CF
:100AC40001D03CB010BD08220023CDE9022302A8C6
:100AD40001F07AFA70BB1A4BD3F89C2042F400223E
:100AE400C3F89C20D3F89C2002F400220092009AC0
:100AF400D3F88C2042F00102C3F88C20D3F88C3058
:100B040003F001030193019B0323379302233893DA
:100B1400002439943A9408233B9337A9094800F0F8
:100B240089FA224621463D2000F098F93D2000F044
:100B3400A5F9C6E7FFF7DDFDCDE700BF004C004097
:100B4400000C02440000024208B50268094B9A42B4
:100B540000D008BD084AD2F89C3023F40023C2F820
:100B64009C300321054800F01BFB3D2000F08AF96E
:100B7400EFE700BF004C0040000C024400000242BA
:100B840038B505460C4C204603F0FDFA0B4B2360A8
:100B940065600023A360E36023610C226261A361AA
:100BA400E36123626362A362204603F0CCFE00B9D2
:100BB40038BDFFF79EFDFBE77C000020004C0040A1
:100BC40059B1064B1B68DA6912F0800FF8D010F89F
:100BD400012B9A62013989B2F2E770477C00002048
:100BE400054B1B68DA6912F0200F01D10120704710
:100BF4005B6A0370002070477C0000200D48854626
:100C0400FFF7C6FE0C480D490D4A002302E0D458F4
:100C1400C4500433C4188C42F9D30A4A0A4C002342
:100C240001E013600432A242FBD303F093FFFFF709
:100C3400BDFDFEE700400420000000205C00002011
:100C4400FC5800085C0000205C020020FEE7000065
:100C540038B5274B1A78002A47D005464FF0E023D1
:100C64001C6914F004040DD0224B1C684FF47A71F3
:100C7400B1FBF2F2B4FBF2F4204600F007F950B3F2
:100C8400012033E000F050F901280ED0022817D0DB
:100C94000028F1D1174B1C68154A11784FF4FA5209
:100CA400B2FBF1F2B4FBF2F4E6E7114B1B784FF41C
:100CB4007A72B2FBF3F24FF4FA43B3FBF2F4DBE7DC
:100CC4000B4B1B784FF47A72B2FBF3F24FF40043F0
:100CD400B3FBF2F4D0E7002229464FF0FF3000F0D6
:100CE400BDF8054B1D60002000E0012038BD00BFA9
:100CF40004000020000000200800002010B503209C
:100D040000F09AF800F0BAFA0B4B1B6A03F00F03D9
:100D14000A4AD35CD8400A4B1860042000F0C6F895
:100D24000F20FFF795FF10B10124204610BD0446A3
:100D3400FFF7F4FDF9E700BF000C024494570008E4
:100D440000000020034B1B78034A11680B44136016
:100D5400704700BF0400002010010020014B1868F8
:100D6400704700BF1001002038B50446FFF7F6FFB6
:100D74000546B4F1FF3F02D0044B1B781C44FFF737
:100D8400EDFF401BA042FAD338BD00BF0400002091
:100D9400002807DB00F01F02400901239340024AA8
:100DA40042F82030704700BF00E100E000280CDB6F
:100DB40000F01F024009012393402030034A42F807
:100DC4002030BFF34F8FBFF36F8F704700E100E017
:100DD400002808DB0901C9B200F1604000F5614058
:100DE40080F80013704700F00F000901C9B2014BED
:100DF4001954704714ED00E000B500F00700C0F18D
:100E0400070CBCF1040F28BF4FF0040C031D062B84
:100E14000FD9C31E4FF0FF3E0EFA0CF021EA000179
:100E240099400EFA03FE22EA0E0241EA02005DF83E
:100E340004FB0023EEE70000074AD36823F4E063D1
:100E44001B041B0C000200F4E060034343F0BF6387
:100E540043F40033D360704700ED00E010B504465E
:100E6400054BD868C0F30220FFF7C6FF01462046B1
:100E7400FFF7AEFF10BD00BF00ED00E008B5FFF7BF
:100E840087FF08BD08B5FFF791FF08BD0138B0F131
:100E9400807F09D24FF0E0235861002098611A69DD
:100EA40042F003021A61704701207047042838D8C1
:100EB400DFE800F00A18283703004FF0E022136936
:100EC40043F00403136170474FF0E022136923F0E9
:100ED40004031361134AD2F8E43023F00C03C2F87C
:100EE400E43070474FF0E022136923F004031361E8
:100EF4000C4AD2F8E43023F00C0343F00403C2F8A4
:100F0400E43070474FF0E022136923F004031361C7
:100F1400044AD2F8E43023F00C0343F00803C2F887
:100F2400E4307047000C02444FF0E023186910F0DD
:100F340004000AD1074BD3F8E43003F00C03042B6C
:100F440005D0082B04D102207047042070470120EB
:100F5400704700BF000C024438B50446FFF7FEFE9C
:100F6400002C4DD0054694F85430DBB2022B06D049
:100F74002023A365002384F84C30012038BD226867
:100F8400536943F004035361052384F85430236800
:100F94001A6912F4005F17D1FFF7E0FE431B052B1B
:100FA400F5D9A36D43F01003A365032384F85430EB
:100FB400236D13F0800F02D0636F01221A73002394
:100FC40084F84C300120D9E75A6942F002025A6190
:100FD400042384F8543023684FF4FE42DA6001237A
:100FE40084F85430236D13F0800F05D0636F012211
:100FF4001A73236800229A64002084F84C00BDE729
:101004000120BBE7A0B190F85430DBB2022B03D02F
:101014002023836501207047042380F8543002683C
:10102400536943F4005343F00403536100207047B1
:1010340001207047F0B5002267E086682E40CC6836
:1010440004FA0EF434438460466826EA0C064C68BD
:10105400C4F300149440344344604C6804F0030423
:10106400032C00F09380C46825408C6804FA0EF4C5
:101074002C43C4604C6814F0805F45D09508464FFB
:10108400183557F8254002F00306F6004FF00F0C10
:101094000CFA06FC24EA0C0C404C04EA9024B440FC
:1010A40044EA0C0447F825403D68DC4325EA03067E
:1010B4004F6817F4801F01D043EA0506364D2E60B1
:1010C4006D6804EA05064F6817F4001F01D043EA6F
:1010D4000506314D6E60D5F8845004EA05064F6864
:1010E40017F4003F01D043EA05062B4DC5F8846090
:1010F400D5F880502C404E6816F4803F01D043EA66
:101104000504254BC3F8804001320B6833FA02F41E
:1011140041D04FF0010C0CFA02FC1CEA0303F3D09B
:101124004C68022C01D0122C14D1D508083550F883
:10113400254002F00706B6004FF00F0E0EFA06FE29
:1011440024EA0E0E0C6904F00F04B44044EA0E04C1
:1011540040F8254006684FEA420E032404FA0EF4D0
:10116400E54326EA04064C6804F0030404FA0EF48A
:10117400344304604C68661E012E7FF65EAF112C6A
:101184003FF45BAF122C7FF468AF56E78C68012CF8
:101194007FF469AF6EE7F0BD002002447F7F2F002B
:1011A400002331FA03F263D02DE9F04127E004680B
:1011B4005D004FF0030C0CFA05FC44EA0C040460D7
:1011C400DC08083450F8245003F00706B6004FF04A
:1011D4000F0E0EFA06FE25EA0E0540F82450846828
:1011E40024EA0C048460446824EA02024260C2686F
:1011F40022EA0C02C260013331FA03F236D0012232
:101204009A4012EA0108F6D09F0807F11805194C14
:1012140054F8256003F0030E4FEACE0E0F2505FAAD
:101224000EF52E40144C04EA902C0CFA0EFCB44536
:10123400BDD1104CD4F8806026EA0806C4F880605A
:10124400D4F8846026EA0806C4F88460266826EA8E
:1012540008062660666826EA08066660183754F8A9
:10126400276026EA050544F82750A0E7BDE8F08189
:10127400704700BF002002447F7F2F006D4BDB6965
:1012840003F01803082B00F0CE806A4BDB6913F0DF
:10129400180F0CD1674B1B6813F0200F00F0C580AA
:1012A400644B1B68C3F3C1036348D8407047614B68
:1012B400DB6903F01803102B00F0B9805D4BDB6988
:1012C40003F01803182B01D05B48704710B4594B36
:1012D400996A01F003019C6AC4F305209A6AC2F377
:1012E40000129B6BC3F3CC0302FB03F307EE903AAB
:1012F400F8EE677A14F47C5F00F0928001291ED026
:10130400032962D007EE100AF8EE476A9FED4B6A94
:1013140086EE267A474B5B6BC3F3080306EE903ADE
:10132400F8EE666A9FED466A67EE867A76EEA77AED
:10133400F7EE006A77EEA67A27EE277A61E03D4B56
:101344001B6813F0200F23D03A490A68C2F3C10284
:10135400394BD34007EE103AF8EE476A07EE100A0D
:10136400B8EE476A86EE867A4B6BC3F3080306EE43
:10137400903AF8EE666A9FED326A67EE867A76EE08
:10138400A77AF7EE006A77EEA67A27EE277A38E096
:1013940007EE100AF8EE476A9FED2A6A86EE267A6F
:1013A400244B5B6BC3F3080306EE903AF8EE666ACF
:1013B4009FED236A67EE867A76EEA77AF7EE006AE7
:1013C40077EEA67A27EE277A1BE007EE100AF8EEEE
:1013D400476A9FED1D6A86EE267A164B5B6BC3F354
:1013E400080306EE903AF8EE666A9FED156A67EE1A
:1013F400867A76EEA77AF7EE006A77EEA67A27EE7B
:10140400277A0C4B5B6BC3F34623013307EE903A08
:10141400F8EE677AC7EE276AFCEEE67A17EE900AD2
:101424005DF8044B70470948704703487047084803
:10143400704700BF000C02440090D0030024744A9B
:10144400000000390024744C20BCBE4B00093D0050
:1014540040787D01002800F0378170B50D460446C0
:101464009D4B1B6803F00F038B420BD29A4A1368FF
:1014740023F00F030B431360136803F00F038B4235
:1014840040F02481236813F0100F0ED06269934B4F
:101494001B6A1B0A03F070039A4206D98F490B6A30
:1014A40023F4E04343EA02230B62236813F0080F9A
:1014B4000ED02269894B1B6A1B0903F070039A4200
:1014C40006D986490B6A23F4E06343EA02130B62EC
:1014D400236813F0040F0CD0E268804B1B6A03F0FE
:1014E40070039A4205D97D490B6A23F070031A43AD
:1014F4000A62236813F0020F0CD0A268774B1B6AB0
:1015040003F00F039A4205D974490B6A23F00F03C1
:101514001A430A62236813F0010F6CD06368032B2B
:101524000AD0022B2CD0012B31D06C4A126812F055
:10153400020F07D10120C6E0684A126812F0007F4A
:1015440000F0C6806549CA6922F003021343CB61E7
:10155400FFF704FC06466368032B1FD0022B2CD034
:10156400012B39D05D4BDB6913F0180F43D0FFF723
:10157400F5FB801B41F288339842F3D90320A2E0A3
:10158400564A126812F4003FDCD101209BE0534A12
:10159400126812F4007FD5D1012094E04F4BDB692F
:1015A40003F01803182B26D0FFF7D8FB831B41F256
:1015B40088329342F2D9032085E0484BDB6903F07B
:1015C4001803102B17D0FFF7C9FB801B41F2883397
:1015D4009842F2D9032076E0404BDB6903F018030C
:1015E400082B08D0FFF7BAFB801B41F288339842DE
:1015F400F2D9032067E0236813F0020F0CD0A2682D
:10160400364B1B6A03F00F039A4205D233490B6A27
:1016140023F00F031A430A622F4B1B6803F00F03D6
:10162400AB420AD92C4A136823F00F032B431360EF
:10163400136803F00F03AB424CD1236813F0040F7B
:101644000CD0E268254B1B6A03F070039A4205D262
:1016540022490B6A23F070031A430A62236813F0C9
:10166400080F0ED022691D4B1B6A1B0903F070037F
:101674009A4206D219490B6A23F4E06343EA02133F
:101684000B62236813F0100F0ED06269134B1B6AB0
:101694001B0A03F070039A4206D210490B6A23F422
:1016A400E04343EA02230B62FFF7E8FD0B4B1B6A9E
:1016B40003F00F030A4AD35CD8400A4B18600A4B64
:1016C4001868FFF7C5FA70BD012070470120FAE7DA
:1016D4000120F8E70120F6E700200240000C024454
:1016E40094570008000000200800002008B5FFF708
:1016F400C5FD064B1B6A03F00F03054AD35C03F0D8
:101704001F03D840034B186008BD00BF000C0244FF
:101714009457000800000020002800F02883F8B542
:101724000446A24BDD6905F018059E6A06F003061F
:10173400036813F0100F28D0082D1AD0182D16D0D6
:10174400E369002B46D0994A136843F4807313600D
:10175400FFF704FB0746954B1B6813F4007F30D159
:10176400FFF7FCFAC01B0228F5D9032008E3022E78
:10177400E6D1E369002B00F0FC828C4A936923F4E0
:101784007C13216A43EA01439361236813F0010F38
:101794003AD0102D34D0182D30D06368B3F5803F83
:1017A4005AD0002B6FD1814B1A6822F480321A6010
:1017B4001A6822F480121A601A6822F480221A60CD
:1017C4004FE07A4A936923F47C13216A43EA014384
:1017D4009361DAE7754A136823F480731360FFF7A3
:1017E400BDFA0746714B1B6813F4007FCDD0FFF799
:1017F400B5FAC01B0228F5D90320C1E2032ECCD1CF
:101804006368002B00F0B782236813F0020F00F026
:10181400AE80002D78D0182D74D0E368002B00F032
:10182400D280624A136823F0180321690B431360C2
:10183400136843F001031360FFF790FA06465B4B0D
:101844001B6813F0020F40F0B580FFF787FA801B86
:101854000228F4D9032093E2544A136843F48033F2
:1018640013606368002B3ED0FFF778FA07464F4BAE
:101874001B6813F4003FC7D1FFF770FAC01B64283C
:10188400F5D903207CE2B3F5A02F10D0B3F5A81F3F
:101894001BD0464B1A6822F480321A601A6822F46C
:1018A40080221A601A6822F480121A60D9E73F4B2A
:1018B4001A6842F480221A601A6822F480121A60AC
:1018C4001A6842F480321A60CBE7384B1A6842F443
:1018D40080221A601A6842F480121A601A6842F46C
:1018E40080321A60BDE7FFF739FA07462F4B1B68B1
:1018F40013F4003F88D0FFF731FAC01B6428F5D9F0
:1019040003203DE2012E88D1E368002B00F03582EC
:1019140035B9264B1B6803F01803226993420ED194
:10192400FFF71CFA0646214B1B6813F0020F16D171
:10193400FFF714FA801B0228F5D9032020E21B4983
:101944000B6823F018031A430A60FFF7CFFE184B05
:101954001868FFF77DF90028E2D0012010E2134A4D
:10196400136923F4FE03616943EA014313612368A5
:1019740013F0080F52D0A369002B38D00B4AD2F8C9
:10198400F03043F08063C2F8F030FFF7E7F9064621
:10199400064BD3F8F03013F0006F3FD1FFF7DEF9B8
:1019A400801B0228F4D90320EAE100BF000C0244A2
:1019B400080000209B4A136923F4FE03616943EA8B
:1019C40001431361D3E7974A136823F001031360BB
:1019D400FFF7C4F90646934B1B6813F0020FC6D0F9
:1019E400FFF7BCF9801B0228F5D90320C8E18D4A12
:1019F400D2F8F03023F08063C2F8F030FFF7AEF98C
:101A04000646884BD3F8F03013F0006F06D0FFF78A
:101A1400A5F9801B0228F4D90320B1E1236813F04F
:101A2400040F00F0A080804B5B6A13F0010F18D004
:101A3400A368012B29D0002B43D17A4BD3F8F02093
:101A440022F00102C3F8F020D3F8F02022F0800243
:101A5400C3F8F020D3F8F02022F00402C3F8F020F9
:101A64001AE0714A536A43F001035362FFF776F9AF
:101A740006466D4B5B6A13F0010FD9D1FFF76EF97F
:101A8400801B0228F5D903207AE1664AD2F8F030A7
:101A940043F00103C2F8F030A368002B51D0FFF7E4
:101AA4005DF906465F4BD3F8F03013F0020F5AD1BC
:101AB400FFF754F9801B41F288339842F2D903208E
:101AC4005EE1052B15D0852B27D0564BD3F8F0209B
:101AD40022F00102C3F8F020D3F8F02022F004022F
:101AE400C3F8F020D3F8F02022F08002C3F8F020ED
:101AF400D2E74C4BD3F8F02042F00402C3F8F020B4
:101B0400D3F8F02022F08002C3F8F020D3F8F020BC
:101B140042F00102C3F8F020BEE7424BD3F8F020B4
:101B240042F00402C3F8F020D3F8F02042F080021F
:101B3400C3F8F020D3F8F02042F00102C3F8F020FB
:101B4400AAE7FFF70BF90646364BD3F8F03013F04B
:101B5400020F08D0FFF702F9801B41F28833984244
:101B6400F2D903200CE1236813F0200F29D0636A13
:101B74009BB12C4A136843F480531360FFF7EEF8CB
:101B84000646284B1B6813F4005F1AD1FFF7E6F8EA
:101B9400801B0228F5D90320F2E0224A136823F4BB
:101BA40080531360FFF7DAF806461E4B1B6813F4E4
:101BB400005F06D0FFF7D2F8801B0228F5D9032076
:101BC400DEE0A36A002B00F0DA80182D00F0898093
:101BD400022B13D0134A136823F080731360FFF7AA
:101BE400BDF804460F4B1B6813F0007F70D0FFF75D
:101BF400B5F8001B0228F5D90320C1E0094A13688F
:101C040023F080731360FFF7A9F80546054B1B68A2
:101C140013F0007F0AD0FFF7A1F8401B0228F5D982
:101C24000320ADE0000C0244000802445C4B9A6AB5
:101C340022F47C5222F00302E16A206B41EA002183
:101C44000A439A62626B013AC2F30802A16B01393A
:101C5400490289B20A43E16B0139090401F4FE0126
:101C64000A43216C0139090601F0FE410A435A6313
:101C74009A6A22F010029A62E26CD2009A639A6A1B
:101C840042F010029A629A6A22F00C02616C0A43D2
:101C94009A629A6A22F02002A16C0A439A629A6AB2
:101CA40042F480329A621A6842F080721A60FFF736
:101CB40055F804463A4B1B6813F0007F06D1FFF732
:101CC4004DF8001B0228F5D9032059E0002057E005
:101CD400334A936A23F4E02323F00303936200203E
:101CE4004EE02F4A916A506B012B4AD001F0030356
:101CF400E26A934247D1C1F30521236B994244D14F
:101D0400C0F30802636B013B9A4240D1C0F3462200
:101D1400A36B013B9A423CD1C0F30642E36B013B07
:101D24009A4238D1C0F30660236C013B984234D107
:101D34001B4B9B6BC3F3CC03E26C934201D1002099
:101D44001EE0174A936A23F010039362FFF706F824
:101D54000546FFF703F8A842FBD0E26CD200104B13
:101D64009A639A6A42F010029A62002008E0012005
:101D74007047012004E0012002E0012000E000207F
:101D8400F8BD0120FCE70120FAE70120F8E7012073
:101D9400F6E70120F4E70120F2E70120F0E700BFB5
:101DA400000C024408B5FFF7A1FC054B1B6AC3F302
:101DB4000213044AD35C03F01F03D84008BD00BFDC
:101DC400000C02448C57000808B5FFF78FFC054B44
:101DD4001B6AC3F30223044AD35C03F01F03D840F5
:101DE40008BD00BF000C02448C57000808B5FFF77B
:101DF4007DFC054B1B6AC3F30233044AD35C03F036
:101E04001F03D84008BD00BF000C02448C570008D3
:101E140038B50546344A136823F080631360FEF72F
:101E24009DFF0446304B1B6813F0006F06D0FEF78D
:101E340095FF001B0228F5D9032038BD2A4BDA6A26
:101E440022F47C5222F003022968686841EA0021E6
:101E54000A43DA62AA68013AC2F30802E96801395E
:101E6400490289B20A4329690139090401F4FE01CE
:101E74000A4369690139090601F0FE410A43DA633C
:101E8400DA6A22F00C02A9690A43DA62DA6A22F0F9
:101E94002002E9690A43DA62DA6A696A0A43DA62A1
:101EA400DA6A22F01002DA621A6C6FF3CF02296A3E
:101EB40042EAC1021A64DA6A42F01002DA621A686B
:101EC40042F080621A60FEF749FF0446064B1B6825
:101ED40013F0006F06D1FEF741FF001B0228F5D96D
:101EE4000320AAE70020A8E7000C024438B5054601
:101EF400344A136823F080531360FEF72FFF04461F
:101F0400304B1B6813F0005F06D0FEF727FF001B61
:101F14000228F5D9032038BD2A4B1A6B22F47C52CF
:101F240022F003022968686841EA00210A431A631F
:101F3400AA68013AC2F30802E9680139490289B280
:101F44000A4329690139090401F4FE010A43696954
:101F54000139090601F0FE410A435A641A6B22F062
:101F64000C02A9690A431A631A6B22F02002E96978
:101F74000A431A631A6B696A0A431A631A6B22F0DA
:101F840010021A639A6C6FF3CF02296A42EAC10203
:101F94009A641A6B42F010021A631A6842F0805273
:101FA4001A60FEF7DBFE0446064B1B6813F0005F65
:101FB40006D1FEF7D3FE001B0228F5D90320AAE7B9
:101FC4000020A8E7000C0244F8B50446036813F0A7
:101FD400807F08D0A04AD2F8E83023F04043816DD6
:101FE4000B43C2F8E830236813F0010F21D0E36DEE
:101FF400052B3ED8DFE803F011030B11111104F196
:102004000800FFF705FF054645B12E4613E004F12D
:102014003000FFF76BFF0546F6E700258E4AD2F83D
:10202400D83023F00703E16D0B43C2F8D830002603
:1020340001E000263546236813F0020F36D0236EE4
:10204400282B31D8DFE803F01D3030303030303009
:1020540018303030303030302A303030303030309A
:102064001D303030303030301D3030303030303092
:102074001D0001263546DEE704F10800FFF7C8FE1F
:102084000546002D40F0CC80734AD2F8D83023F0B6
:102094003803216E0B43C2F8D83007E004F1300056
:1020A400FFF724FF0546ECE701263546236813F0C5
:1020B400040F1AD0636E802B00F0C58000F2B58047
:1020C4003BB1402B40F0AE8004F10800FFF7A0FEC6
:1020D4000546002D40F0BD805F4AD2F8D83023F485
:1020E400E073616E0B43C2F8D830236813F0080F15
:1020F4001CD0A36EB3F5806F00F0C28000F2B180F3
:1021040043B1B3F5007F40F0A98004F10800FFF764
:102114007FFE0546002D40F0B9804F4AD2F8D830F2
:1021240023F46063A16E0B43C2F8D830236813F024
:10213400100F1CD0E36EB3F5005F00F0BB8000F21B
:10214400AA8043B1B3F5805F40F0A28004F1080097
:10215400FFF75EFE0546002D40F0B2803E4AD2F8FD
:10216400D83023F4E043E16E0B43C2F8D83023683F
:1021740013F0200F1CD0236FB3F5803F00F0B48020
:1021840000F2A38043B1B3F5004F40F09B8004F10B
:102194000800FFF73DFE0546002D40F0AB802E4AB7
:1021A400D2F8D83023F46033216F0B43C2F8D8300F
:1021B400236813F4805F1CD0636FB3F1007F00F0D9
:1021C400AD8000F29C8043B1B3F1807F40F09480F5
:1021D40004F10800FFF71CFE0546002D40F0A48022
:1021E4001D4AD2F8E03023F0E063616F0B43C2F87C
:1021F400E030236813F4005F00F0AB80A36FB3F505
:10220400803F00F0978040F29180B3F5003F00F0EA
:102214009680B3F5403F00F092800126354698E061
:102224002E4643E7012635465FE7B3F5807F3FF44A
:1022340050AFB3F5A07F3FF44CAFC02B3FF449AF90
:102244000126354651E704F13000FFF74FFE0546FD
:102254003FE72E4649E700BF000C024401263546FD
:1022640064E7B3F5006F3FF455AFB3F5206F3FF467
:1022740051AFB3F5C06F3FF44DAF0126354655E776
:1022840004F13000FFF732FE054643E72E464DE7E2
:10229400012635466BE7B3F5804F3FF45CAFB3F5E9
:1022A400A04F3FF458AFB3F5405F3FF454AF01265D
:1022B40035465CE704F13000FFF718FE05464AE7AF
:1022C4002E4654E70126354672E7B3F5003F3FF446
:1022D40063AFB3F5203F3FF45FAFB3F5C03F3FF4C6
:1022E4005BAF0126354663E704F13000FFF7FEFDDE
:1022F400054651E72E465BE70126354679E7B3F1FB
:10230400806F3FF46AAFB3F1A06F3FF466AFB3F1EF
:10231400407F3FF462AF012635466AE704F130009E
:10232400FFF7E4FD054658E72E4662E73BB1012678
:1023340035460EE004F13000FFF7D8FD0546D5B967
:102344009D4AD2F8E43023F44033A16F0B43C2F822
:10235400E430236813F4804F22D0E36FB3F5802F69
:102364000FD00AD9B3F5002F10D0B3F5402F0DD0FC
:102374000126354614E02E46EBE73BB101263546EF
:102384000EE004F13000FFF7B1FD0546DDB98A4ADD
:10239400D2F8E43023F44023E16F0B43C2F8E43075
:1023A400236813F4004F26D0D4F88030B3F5801F8F
:1023B4000FD00AD9B3F5001F10D0B3F5401F0DD0CC
:1023C4000126354617E02E46EAE73BB1012635469D
:1023D40011E004F13000FFF789FD054655B9764A4E
:1023E400D2F8E43023F44013D4F880100B43C2F83D
:1023F400E43000E02E46236813F4803F1BD0D4F869
:102404008430B3F1807F06D0B3F1007F08D03BB1B4
:10241400012635460FE004F13000FFF767FD05465D
:10242400CDB9654AD2F8E43023F04073D4F884106F
:102434000B43C2F8E430636813F4805F1DD0D4F812
:102444008830B3F1806F08D0B3F1006F0AD04BB17C
:102454000126354611E02E46EDE704F13000FFF782
:1024640045FD0546B5BB544AD2F8E43023F0406339
:10247400D4F888100B43C2F8E430636813F4006F97
:1024840009D04D4BDA6922F40042DA61DA69D4F8F2
:10249400C8100A43DA61236813F4003F32D0D4F839
:1024A4008C30B3F5007F26D019D83BB1B3F5807FCB
:1024B40012D104F10800FFF7ABFC05460DBB3E4A00
:1024C400D2F8DC3023F4E063D4F88C100B43C2F868
:1024D400DC3017E02E46D0E70126354612E0B3F58E
:1024E400806FEBD0B3F5A06FE8D0B3F5407FE5D0B3
:1024F4000126354606E004F13000FFF7F7FC0546F7
:10250400DCE72E46236813F4802F30D0D4F89030C3
:10251400B3F5005F24D017D83BB1B3F5805F10D179
:1025240004F10800FFF774FC0546FDB9224AD2F80D
:10253400DC3023F4E043D4F890100B43C2F8DC30D1
:1025440015E00126354612E0B3F5804FEDD0B3F522
:10255400A04FEAD0B3F5405FE7D00126354606E048
:1025640004F13000FFF7C2FC0546DEE72E4623687F
:1025740013F4001F23D0D4F8A030022B0BD005D9BC
:10258400033B022B0CD90126354618E0012B07D951
:102594000126354613E004F10800FFF739FC05462F
:1025A40065B9054AD2F8E83023F00703D4F8A0103F
:1025B4000B43C2F8E83002E0000C02442E46636884
:1025C40013F4007F06D0D4F8A430E3B1082B1AD05A
:1025D40001263546236813F0007F20D1236813F0C9
:1025E400806F00F0A580D4F89830102B00F0908014
:1025F40040F28A80202B00F09080302B00F08D80F8
:102604000126354694E045B9A049D1F8E82022F0E6
:1026140008021343C1F8E830DCE72E46DAE79C4AA7
:10262400536A43F001035362FEF798FB0746984B45
:102634005B6A13F0010F05D1FEF790FBC01B022863
:10264400F5D90325002D5BD1904BD3F8F03013F46A
:10265400407319D0D4F8BC209A4212D08B4AD2F8D5
:10266400F03023F44073D2F8F01041F48031C2F812
:10267400F010D2F8F01021F48031C2F8F010C2F852
:10268400F03013F0010F1ED1002D3BD1D4F8BC3033
:1026940003F44072B2F5407F27D07C4AD36923F417
:1026A4007C53D361794BD3F8F02022F44072C3F801
:1026B400F020D3F8F020D4F8BC10C1F30B010A4386
:1026C400C3F8F0208AE7FEF749FB07466F4BD3F8BF
:1026D400F03013F0020FD7D1FEF740FBC01B41F2DC
:1026E40088339842F2D90325CEE76849CA6922F4AF
:1026F4007C52C3F3171323F030031343CB61D1E7A8
:102704002E466BE72E4669E73BB1012635460FE0BE
:102714005E4A936A43F4003393620DBB5B4AD2F87A
:10272400E83023F03003D4F898100B43C2F8E830B3
:10273400236813F4800F06D0D4F89C3093B1402B57
:1027440021D001263546236813F0006F33D0D4F826
:10275400AC30042B56D8DFE803F01E494F23230086
:102764002E46E5E7494A936A43F40033936285B9F8
:10277400464AD2F8E43023F04003D4F89C100B43CB
:10278400C2F8E430DFE704F10800FFF741FB054637
:10279400EDE72E46D7E73D4A936A43F4003393624C
:1027A4009DBB3A4AD2F8E03023F00703D4F8AC10CA
:1027B4000B43C2F8E030236813F0805F46D0D4F8AE
:1027C400B030202B40D8DFE803F0223F3F3F3F3FAB
:1027D4003F3F333F3F3F3F3F3F3F393F3F3F3F3F17
:1027E4003F3F273F3F3F3F3F3F3F270004F1080063
:1027F400FFF70EFB0546D3E704F13000FFF776FB45
:102804000546CDE701263546D5E72E46D3E71F4AD0
:10281400936A43F40033936255BB1C4AD2F8E03008
:1028240023F03803D4F8B0100B43C2F8E0300DE0C5
:1028340004F10800FFF7ECFA0546EDE704F1300077
:10284400FFF754FB0546E7E701263546236813F0F6
:10285400005F30D0D4F8B430802B56D00DD8CBB133
:10286400402B07D104F10800FFF7D2FA054616E021
:102874002E46EBE7012635461DE0C02B0FD0B3F5FD
:10288400807F0CD00126354615E000BF000C0244C1
:1028940000080244694A936A43F400339362002DAA
:1028A40039D1664AD2F8E03023F4E073D4F8B41096
:1028B4000B43C2F8E030236813F0804F19D0D4F8EA
:1028C400B830B3F5806F37D02AD83BB1B3F5007F69
:1028D40023D104F10800FFF79BFA054695BB574A3C
:1028E400D2F8E03023F46063D4F8B8100B43C2F894
:1028F400E030636813F0020F41D0D4F8A830032B02
:1029040039D8DFE803F02621322604F13000FFF73E
:10291400EDFA0546C3E72E46CDE701263546E8E73E
:10292400B3F5006FDAD0B3F5206FD7D0B3F5C06F2D
:10293400D4D001263546DCE704F13000FFF7D6FA9F
:102944000546CBE72E46D4E73C4A936A43F400336A
:1029540093629DB9394AD2F8E43023F00303D4F8E2
:10296400A8100B43C2F8E43009E004F10800FFF7B3
:102974004FFA0546EDE70126354600E02E4663682A
:1029840013F0040F23D0D4F89430B3F5807F06D02D
:10299400B3F5007F14D03BB10126354617E0274A32
:1029A400936A43F40033936285B9244AD2F8E83039
:1029B40023F44073D4F894100B43C2F8E83006E0D3
:1029C40004F10800FFF724FA0546EDE72E46636894
:1029D40013F0100F21D0D4F8C430202B14D0302B96
:1029E40006D0102B16D1154A936A43F40033936230
:1029F40095B9124AD2F8E43023F03003D4F8C41065
:102A04000B43C2F8E43008E004F13000FFF76EFA3B
:102A14000546EDE7012600E02E46636813F0080F33
:102A240009D0064AD2F8E83023F0C003D4F8C01025
:102A34000B43C2F8E8303046F8BD00BF000C024436
:102A440030B580494A6BC2F308028B6A03F0030C69
:102A54008C6AC4F305258B6AC3F3001E8B6BC3F326
:102A6400CC030EFB03F314F47C5F00F0E68007EE66
:102A7400903AF8EE677ABCF1020F41D0BCF1030F33
:102A840057D0BCF1010F6DD10968C1F3C1016E4B80
:102A9400CB4007EE103AB8EE476A07EE105AB8EE8C
:102AA400477AC6EE076A07EE102AB8EE477A9FED1A
:102AB400676A67EE867A77EE277AB7EE007A77EE62
:102AC400877A66EEA77A5F4B1B6813F0007F6DD0A0
:102AD4005C4B9B6A13F4803F65D05A4B5B6BC3F32A
:102AE400462307EE103AB8EE477AF7EE006A37EE5F
:102AF400267AC7EE876AFCEEE66AC0ED006A57E004
:102B040007EE105AB8EE477A9FED516AC6EE076A8F
:102B140007EE102AB8EE477A9FED4C6A67EE867A84
:102B240077EE277AB7EE007A77EE877A66EEA77AA1
:102B3400C9E707EE105AB8EE477A9FED466AC6EE2B
:102B4400076A07EE102AB8EE477A9FED406A67EEEF
:102B5400867A77EE277AB7EE007A77EE877A66EE92
:102B6400A77AB0E7374B1968C1F3C101364BCB40A4
:102B740007EE103AB8EE476A07EE105AB8EE477AF5
:102B8400C6EE076A07EE102AB8EE477A9FED2F6A61
:102B940067EE867A77EE277AB7EE007A77EE877A51
:102BA40066EEA77A8FE70023036001E00023036049
:102BB400244B1B6813F0007F1AD0224B9B6A13F43A
:102BC400003F12D01F4B5B6BC3F3064307EE103A72
:102BD400B8EE477AF7EE006A37EE267AC7EE876AD0
:102BE400FCEEE66AC0ED016A04E00023436001E004
:102BF40000234360134B1B6813F0007F1AD0114B62
:102C04009B6A13F4802F12D00E4B5B6BC3F30663E5
:102C140007EE103AB8EE477AF7EE006A37EE267AF6
:102C2400C7EE876AFCEEE66AC0ED026A09E000239B
:102C3400836006E00023836003E0002303604360B5
:102C4400836030BD000C02440090D00300000039C2
:102C54000024744A20BCBE4B30B58049CA6BC2F311
:102C64000802CB6A03F0030CCC6AC4F30525CB6AD3
:102C7400C3F3001E0B6CC3F3CC030EFB03F314F479
:102C84007C5F00F0E68007EE903AF8EE677ABCF1DC
:102C9400020F41D0BCF1030F57D0BCF1010F6DD12D
:102CA4000968C1F3C1016E4BCB4007EE103AB8EE90
:102CB400476A07EE105AB8EE477AC6EE076A07EE7F
:102CC400102AB8EE477A9FED676A67EE867A77EE48
:102CD400277AB7EE007A77EE877A66EEA77A5F4BAB
:102CE4001B6813F0006F6DD05C4BDB6A13F4803FFC
:102CF40065D05A4BDB6BC3F3462307EE103AB8EEAC
:102D0400477AF7EE006A37EE267AC7EE876AFCEE5A
:102D1400E66AC0ED006A57E007EE105AB8EE477A4B
:102D24009FED516AC6EE076A07EE102AB8EE477A9D
:102D34009FED4C6A67EE867A77EE277AB7EE007AD3
:102D440077EE877A66EEA77AC9E707EE105AB8EEEF
:102D5400477A9FED466AC6EE076A07EE102AB8EE78
:102D6400477A9FED406A67EE867A77EE277AB7EE68
:102D7400007A77EE877A66EEA77AB0E7374B196860
:102D8400C1F3C101364BCB4007EE103AB8EE476AA7
:102D940007EE105AB8EE477AC6EE076A07EE102A15
:102DA400B8EE477A9FED2F6A67EE867A77EE277A38
:102DB400B7EE007A77EE877A66EEA77A8FE700237C
:102DC400036001E000230360244B1B6813F0006FD1
:102DD4001AD0224BDB6A13F4003F12D01F4BDB6B7B
:102DE400C3F3064307EE103AB8EE477AF7EE006AEB
:102DF40037EE267AC7EE876AFCEEE66AC0ED016A12
:102E040004E00023436001E000234360134B1B688C
:102E140013F0006F1AD0114BDB6A13F4802F12D019
:102E24000E4BDB6BC3F3066307EE103AB8EE477A3A
:102E3400F7EE006A37EE267AC7EE876AFCEEE66A9A
:102E4400C0ED026A09E00023836006E0002383608A
:102E540003E0002303604360836030BD000C024440
:102E64000090D003000000390024744A20BCBE4BFB
:102E740030B580494A6CC2F308020B6B03F0030CB3
:102E84000C6BC4F305250B6BC3F3001E8B6CC3F3EF
:102E9400CC030EFB03F314F47C5F00F0E68007EE32
:102EA400903AF8EE677ABCF1020F41D0BCF1030FFF
:102EB40057D0BCF1010F6DD10968C1F3C1016E4B4C
:102EC400CB4007EE103AB8EE476A07EE105AB8EE58
:102ED400477AC6EE076A07EE102AB8EE477A9FEDE6
:102EE400676A67EE867A77EE277AB7EE007A77EE2E
:102EF400877A66EEA77A5F4B1B6813F0005F6DD08C
:102F04005C4B1B6B13F4803F65D05A4B5B6CC3F373
:102F1400462307EE103AB8EE477AF7EE006A37EE2A
:102F2400267AC7EE876AFCEEE66AC0ED006A57E0CF
:102F340007EE105AB8EE477A9FED516AC6EE076A5B
:102F440007EE102AB8EE477A9FED4C6A67EE867A50
:102F540077EE277AB7EE007A77EE877A66EEA77A6D
:102F6400C9E707EE105AB8EE477A9FED466AC6EEF7
:102F7400076A07EE102AB8EE477A9FED406A67EEBB
:102F8400867A77EE277AB7EE007A77EE877A66EE5E
:102F9400A77AB0E7374B1968C1F3C101364BCB4070
:102FA40007EE103AB8EE476A07EE105AB8EE477AC1
:102FB400C6EE076A07EE102AB8EE477A9FED2F6A2D
:102FC40067EE867A77EE277AB7EE007A77EE877A1D
:102FD40066EEA77A8FE70023036001E00023036015
:102FE400244B1B6813F0005F1AD0224B1B6B13F4A5
:102FF400003F12D01F4B5B6CC3F3064307EE103A3D
:10300400B8EE477AF7EE006A37EE267AC7EE876A9B
:10301400FCEEE66AC0ED016A04E00023436001E0CF
:1030240000234360134B1B6813F0005F1AD0114B4D
:103034001B6B13F4802F12D00E4B5B6CC3F306632F
:1030440007EE103AB8EE477AF7EE006A37EE267AC2
:10305400C7EE876AFCEEE66AC0ED026A09E0002367
:10306400836006E00023836003E000230360436081
:10307400836030BD000C02440090D003000000398E
:103084000024744A20BCBE4B00F17E430B432CD079
:1030940000B58BB0A0F500130B4300F0B883B74B19
:1030A400984271F1000380F0F580A0F580530B4342
:1030B40000F06F8341F20103984271F1000380F044
:1030C4008B80212871F1000380F0438750EA0103CB
:1030D40000F04287013841F1FF31202871F10001ED
:1030E40034D300200BB05DF804FBA54AD2F8F030CD
:1030F40003F44073D2F8F02012F0020F03D0B3F5BA
:10310400807F00F01E879E4AD2F8F02012F0006FF4
:1031140003D0B3F5007F00F01787994A106810F4C4
:10312400003000F0F987B3F5407F01D000207047EC
:10313400D36903F47C53B3F5007FC0F00887D369E7
:10314400C3F305238F48B0FBF3F070471F28C8D89A
:1031540001A353F820F000BF51340008D73400080D
:10316400E730000853350008E7300008E73000086E
:10317400E7300008DD350008E7300008E7300008D4
:10318400E7300008E7300008E7300008E7300008BF
:10319400E730000877360008E7300008E730000819
:1031A400E7300008E7300008E7300008E73000089F
:1031B400E7300008E7300008E7300008E73000088F
:1031C400E7300008E7300008E7300008E73000087F
:1031D400E730000807370008A0F580330B4300F000
:1031E400D983B0F1011F71F100032FD2A0F5804300
:1031F4000B4300F06F83A0F500430B4300F09A8368
:10320400A0F5005008431FD15D4BD3F8E43013F40C
:10321400403300F04B83B3F5803F00F04A83584AB3
:10322400126812F0020F03D0B3F5003F00F046839A
:10323400534A126812F4007F00F0EB86B3F5403F66
:1032440000F0EA8600204DE700204BE7A0F50033AC
:103254000B4300F0D683A0F58020084318D1484BD7
:10326400D3F8DC3003F4E043B3F5405F00F05D8451
:1032740000F23484B3F5805F00F04B84B3F5005F53
:1032840000F04D84002B40F02684FEF78BFD29E7E7
:10329400002027E7022908BF002800F0B285002398
:1032A40083424FF002038B4170D300F170430B4310
:1032B40000F0D684344B984271F100031BD200F124
:1032C4007C430B4300F0E88500F178430B4300F0A6
:1032D4007D84A0F5800008430BD1294BD3F8E4305A
:1032E40013F0400F40F0AD8007A8FFF7A9FB089842
:1032F400F8E60020F6E600F160430B4300F0188581
:1033040000F14040084336D11D4BD3F8E03013F4AC
:10331400606300F05E851A4A126812F0006F03D0F1
:10332400B3F5007F00F05985154A126812F0005F6A
:1033340003D0B3F5806F00F05685114A126812F07D
:10334400020F03D0B3F5C06F00F053850C4A126826
:1033540012F4007F03D0B3F5006F00F0A586084A8D
:10336400126812F4003F00F0A286B3F5206F00F05B
:10337400A1860020B6E60020B4E600BF01002000CC
:10338400000C024440787D0101000010102908BFA0
:10339400002800F0B085002383424FF010038B41D6
:1033A40021D2B1F5007F08BF002800F06682B1F594
:1033B400805F08BF002842D1A34BD3F8E43013F058
:1033C400406300F00D83B3F1806F00F00D839E4ADB
:1033D400106810F002003FF485AEB3F1006F00F006
:1033E400098300207EE6042908BF002800F0C98371
:1033F400082908BF002820D1934AD2F8E83003F006
:10340400C003D2F8F02012F0020F02D0002B00F01B
:1034140060868D4AD2F8F02012F0006F02D0402B63
:1034240000F05B86884A126812F4007F00F0598627
:10343400802B00F05986002054E6002052E600203C
:1034440050E604A8FFF708FC06984BE67E4BD3F839
:10345400D83013F0070328D07B4A126812F0006FAB
:1034640001D0012B24D0784A126812F0005F01D0F9
:10347400022B22D0744A126812F0020F01D0032BDF
:1034840020D0714A126812F4007F02D0042B00F09D
:1034940066856D4AD2F8F02012F0020F00F06285C2
:1034A400052B00F0628500201CE6FEF78DFC19E672
:1034B40004A8FFF7D1FB059814E601A8FFF7D8FC90
:1034C40002980FE6604B1B68C3F3C1035F48D84002
:1034D40008E65D4BD3F8D83013F0380323D05A4AAA
:1034E400126812F0006F01D0082B1FD0102B22D0CD
:1034F400554A126812F0020F01D0182B20D0524AFC
:10350400126812F4007F02D0202B00F032854E4A5C
:10351400D2F8F02012F0020F00F02E85282B00F0D4
:103524002E850020DEE5FEF73DFCDBE504A8FFF771
:1035340093FB0598D6E501A8FFF79AFC0298D1E51C
:10354400414B1B68C3F3C1034048D840CAE53E4B16
:10355400D3F8D83013F4E0732AD03B4A126812F03F
:10356400006F01D0402B26D0374A126812F0005F5A
:1035740001D0802B24D0344A126812F0020F01D0FB
:10358400C02B22D0304A126812F4007F03D0B3F566
:10359400807F00F0F8842C4AD2F8F02012F0020F59
:1035A40000F0F484B3F5A07F00F0F384002099E5E3
:1035B400FEF7F8FB96E504A8FFF74EFB059891E5A6
:1035C40001A8FFF755FC02988CE51F4B1B68C3F359
:1035D400C1031E48D84085E51B4BD3F8D83013F4FB
:1035E40060632DD0184A126812F0006F02D0B3F550
:1035F400007F2DD0144A126812F0005F02D0B3F598
:10360400806F2AD0104A126812F0020F02D0B3F56C
:10361400C06F27D00C4A126812F4007F03D0B3F5B0
:10362400006F00F0BA84084AD2F8F02012F0020FBA
:1036340000F0B684B3F5206F00F0B584002051E5A6
:10364400FEF7B0FB4EE500BF000C02440090D0032F
:1036540004A8FFF701FB059844E501A8FFF708FC5F
:1036640002983FE5994B1B68C3F3C1039848D840BF
:1036740038E5964BD3F8D83013F4E0432DD0934A71
:10368400126812F0006F02D0B3F5805F28D08F4A21
:10369400126812F0005F02D0B3F5005F25D08B4AA8
:1036A400126812F0020F02D0B3F5405F22D0874AAD
:1036B400126812F4007F03D0B3F5804F00F07784D2
:1036C400824AD2F8F02012F0020F00F07384B3F5AE
:1036D400A04F00F07284002004E5FEF763FB01E5CF
:1036E40004A8FFF7B9FA0598FCE401A8FFF7C0FBAA
:1036F4000298F7E4754B1B68C3F3C1037448D840C0
:10370400F0E4724BD3F8D83013F460332DD06F4A01
:10371400126812F0006F02D0B3F5004F28D06B4A44
:10372400126812F0005F02D0B3F5803F25D0674ADB
:10373400126812F0020F02D0B3F5C03F22D0634AE0
:10374400126812F4007F03D0B3F5003F00F039840F
:103754005E4AD2F8F02012F0020F00F03584B3F57F
:10376400203F00F034840020BCE4FEF71BFBB9E4E6
:1037740004A8FFF771FA0598B4E401A8FFF778FBF1
:103784000298AFE4514B1B68C3F3C1035048D840BF
:10379400A8E44E4BD3F8E03013F0E06323D0B3F148
:1037A400807F23D0B3F1007F25D0484A126812F0FD
:1037B400020F02D0B3F1407F22D0444A126812F4BF
:1037C400007F03D0B3F1806F00F005843F4AD2F844
:1037D400F02012F0020F00F00184B3F1A06F00F0AA
:1037E400008400207EE4FEF701FB7BE404A8FFF7DD
:1037F40033FA059876E401A8FFF73AFB029871E4DE
:10380400324B1B68C3F3C1033148D8406AE42F4BE1
:10381400D3F8E83013F007031DD0012B1ED0022B80
:103824001FD02A4A126812F4003F02D0032B00F082
:10383400DC83264A126812F0020F01D0042B15D043
:10384400224A126812F4007F00F0D283052B00F0A4
:10385400D283002046E4FDF749FF43E4FDF70EFD63
:1038640040E404A8FFF7F8F906983BE4174B1B68FB
:10387400C3F3C1031648D84034E4144AD2F8E830FC
:1038840003F00803D2F8F02012F0020F02D0002B4C
:1038940000F0B4830D4AD2F8F02012F0006F00F06B
:1038A400B183002B40F0B18300201BE4FEF77AFAC9
:1038B40018E401A8FFF7DCFA039813E4034B1B6830
:1038C400C3F3C1030248D8400CE400BF000C024417
:1038D4000090D003B54BD3F8E43013F4402317D051
:1038E400B3F5802F18D0B14A126812F0020F02D03B
:1038F400B3F5002F16D0AD4A126812F4007F00F021
:103904008E83B3F5402F00F08D830020FFF7EABBD0
:10391400FEF748FAFFF7E6BB01A8FFF7A9FA0398F8
:10392400FFF7E0BBA14B1B68C3F3C103A048D84019
:10393400FFF7D8BB9D4BD3F8E43013F4401317D0F2
:10394400B3F5801F18D0994A126812F0020F02D002
:10395400B3F5001F16D0954A126812F4007F00F0E8
:103964006483B3F5401F00F063830020FFF7BABB04
:10397400FEF73CFAFFF7B6BB01A8FFF779FA039804
:10398400FFF7B0BB894B1B68C3F3C1038848D84019
:10399400FFF7A8BB854BD3F8E43013F040730ED087
:1039A400B3F1807F0FD0814A106810F002003FF419
:1039B40099ABB3F1007F0CD00020FFF793BBFEF767
:1039C400F1F9FFF78FBB01A8FFF752FA0398FFF74D
:1039D40089BB1368C3F3C1037548D840FFF782BBA2
:1039E400FEF704FAFFF77EBB01A8FFF741FA03983C
:1039F400FFF778BB1368C3F3C1036D48D840FFF7E2
:103A040071BB6A4BD3F8DC3003F4E063B3F5407F59
:103A140035D00DD8B3F5807F25D0B3F5007F28D0FD
:103A24001BB9FEF7E3F9FFF75DBB0020FFF75ABBB4
:103A3400B3F5806F2ED0B3F5A06F11D15B4AD2F8E5
:103A4400E83003F04043126812F0020F2DD063BB3C
:103A5400564B1B68C3F3C1035548D840FFF742BB1C
:103A64000020FFF73FBB04A8FFF7F6F80498FFF720
:103A740039BB01A8FFF7FCF90398FFF733BB4B4BA5
:103A8400D3F8F00010F002003FF42CAB4FF40040E8
:103A9400FFF728BB454BD3F8F00010F000603FF46B
:103AA40021AB4FF4FA40FFF71DBB404A126812F4F1
:103AB400007F03D0B3F1804F00F0BD823B4A12680F
:103AC40012F4003F00F0BA82B3F1004F00F0B98263
:103AD4000020FFF707BB0020FFF704BBB3F5804FBE
:103AE4002ED0B3F5A04F11D1304AD2F8E83003F00C
:103AF4004043126812F0020F2DD063BB2B4B1B689E
:103B0400C3F3C1032A48D840FFF7ECBA0020FFF7FB
:103B1400E9BA04A8FFF7A0F80498FFF7E3BA01A8EC
:103B2400FFF7A6F90398FFF7DDBA204BD3F8F000AE
:103B340010F002003FF4D6AA4FF40040FFF7D2BAC7
:103B44001A4BD3F8F00010F000603FF4CBAA4FF406
:103B5400FA40FFF7C7BA154A126812F4007F03D07F
:103B6400B3F1804F00F07082104A126812F4003FE3
:103B740000F06D82B3F1004F00F06C820020FFF77B
:103B8400B1BA0A4AD2F8E83003F44073126812F466
:103B9400003F02D0002B00F06082B3F5807F09D093
:103BA400B3F5007F0CD00020FFF79CBA000C024450
:103BB4000090D00307A8FEF743FF0898FFF792BAD6
:103BC40004A8FFF749F80598FFF78CBAA44BD3F87B
:103BD400E03003F00703042B00F24282DFE803F035
:103BE400060C120318009F48FFF77CBA07A8FEF7DB
:103BF40027FF0898FFF776BA04A8FFF72DF8049872
:103C0400FFF770BA01A8FFF733F90198FFF76ABA12
:103C1400934AD2F8E83003F04043126812F0020FDE
:103C240008D03BB98E4B1B68C3F3C1038E48D84000
:103C3400FFF758BA8A4A126812F4007F03D0B3F12E
:103C4400804F00F01082864A126812F4003F00F0A0
:103C54000D82B3F1004F00F00C820020FFF742BA4E
:103C64007F4BD3F8E03003F03803202B00F20482BA
:103C7400DFE813F02400020202020202020202023E
:103C8400020202022A0002020202020202020202EA
:103C940002020202300002020202020202020202D4
:103CA40002020202210002020202020202020202D3
:103CB4000202020236006B48FFF714BA07A8FEF7A7
:103CC400BFFE0898FFF70EBA04A8FEF7C5FF0498D4
:103CD400FFF708BA01A8FFF7CBF80198FFF702BA7B
:103CE4005F4AD2F8E83003F04043126812F0020F42
:103CF40008D03BB95A4B1B68C3F3C1035A48D84098
:103D0400FFF7F0B9564A126812F4007F03D0B3F1FA
:103D1400804F00F0B481524A126812F4003F00F060
:103D2400B181B3F1004F00F0B0810020FFF7DAB9A0
:103D34004B4BD3F8E03003F4E073802B2DD00BD839
:103D44002BB3402B05D104A8FEF786FF0498FFF798
:103D5400C9B90020FFF7C6B9C02B00F09981B3F5AB
:103D6400807F11D13E4AD2F8E83003F04043126814
:103D740012F0020F17D0B3B9394B1B68C3F3C10358
:103D84003948D840FFF7AEB90020FFF7ABB907A810
:103D9400FEF756FE0898FFF7A5B901A8FFF768F8E3
:103DA4000198FFF79FB92E4A126812F4007F03D0DE
:103DB400B3F1804F00F06F81294A126812F4003F7A
:103DC40000F06C81B3F1004F00F06B810020FFF72D
:103DD40089B9FDF7F9FFFFF785B904A8FEF73CFFA1
:103DE4000598FFF77FB901A8FFF742F80298FFF79B
:103DF40079B91B4B1B68C3F3C1031B48D840FFF7B9
:103E040071B9174BD3F8E43003F00303032B00F22A
:103E14005481DFE803F002060C12FDF767FCFFF79C
:103E240061B907A8FEF70CFE0898FFF75BB904A870
:103E3400FEF712FF0698FFF755B9094AD2F8E830A1
:103E440003F04043126812F0020F0FD073B9044B11
:103E54001B68C3F3C1030448D840FFF743B900BF4C
:103E6400000C02440080BB000090D003AB4A1268EF
:103E740012F4007F03D0B3F1804F00F02181A74AF0
:103E8400126812F4003F00F01E81B3F1004F00F0FD
:103E94001D810020FFF726B9A04AD2F8E83003F0CC
:103EA4003003126812F4005F02D0002B00F020816E
:103EB4009A4A126812F0007F01D0102B15D0974A4D
:103EC400D2F8F02012F0020F02D0202B00F0138160
:103ED400924AD2F8F02012F0006F00F01081302BDB
:103EE40000F010810020FFF7FDB807A8FEF7A8FD39
:103EF4000898FFF7F7B8894BD3F8E43003F03003A0
:103F0400102B12D0854A126812F0005F01D0202BCA
:103F140011D0824A126812F4005F00F0F780302B4F
:103F240000F0F7800020FFF7DDB807A8FEF788FD52
:103F34000898FFF7D7B801A8FEF79AFF0298FFF791
:103F4400D1B84FF4004070474FF4FA407047002056
:103F540070470020FFF7C6B80020FFF7C3B87048C9
:103F6400FFF7C0B80020FFF7BDB84FF40040FFF7DB
:103F7400B9B86B48FFF7B6B80020FFF7B3B84FF4F1
:103F84000040FFF7AFB86648FFF7ACB80020FFF772
:103F9400A9B84FF40040FFF7A5B86148FFF7A2B8ED
:103FA4000020FFF79FB84FF40040FFF79BB85C4830
:103FB400FFF798B80020FFF795B84FF40040FFF7DB
:103FC40091B85748FFF78EB80020FFF78BB84FF42D
:103FD4000040FFF787B85248FFF784B80020FFF786
:103FE40081B84FF40040FFF77DB84E48FFF77AB828
:103FF4000020FFF777B84A48FFF774B84FF4004041
:10400400FFF770B80020FFF76DB84FF4FA40FFF7E0
:1040140069B80020FFF766B84148FFF763B800208D
:10402400FFF760B83E48FFF75DB80020FFF75AB8C5
:104034003B48FFF757B83A48FFF754B80020FFF75A
:1040440051B83848FFF74EB83548FFF74BB8002051
:10405400FFF748B83348FFF745B83248FFF742B88E
:104064000020FFF73FB82E48FFF73CB80020FFF7C9
:1040740039B82C48FFF736B80020FFF733B8284882
:10408400FFF730B80020FFF72DB82648FFF72AB80D
:104094002548FFF727B82248FFF724B80020FFF788
:1040A40021B82048FFF71EB81D48FFF71BB80020B1
:1040B400FFF718B81B48FFF715B80020FFF712B830
:1040C4001748FFF70FB80020FFF70CB81548FFF7A3
:1040D40009B84FF40040FFF705B84FF4FA40FFF772
:1040E40001B80020FEF7FEBF48F21200FEF7FABF47
:1040F4000E48FEF7F7BF4FF40040FEF7F3BF002071
:10410400FEF7F0BF4FF4FA40FEF7ECBF0020FEF7D5
:10411400E9BF0648FEF7E6BF704700BF000C024443
:1041240000093D0040787D010080BB00006CDC028A
:10413400026852E8003F23F4907342E800310029FA
:10414400F6D1026802F1080353E8003F23F08053DC
:1041540023F00103083242E800310029F1D1C36E93
:10416400012B06D02023C0F88C300023C36643679C
:104174007047026852E8003F23F0100342E8003120
:104184000029F6D1EEE7F0B138B505462423C0F88E
:1041940088300268136823F0010313600368002465
:1041A4001C6003685C6003689C60FCF7CDFCC5F888
:1041B4009040C5F88840C5F88C40EC662C6785F8BB
:1041C4008440204638BD01207047704708B5026816
:1041D40052E8003F23F0400342E800310029F6D1C1
:1041E4002023C0F8883000238367FFF7EEFF08BD63
:1041F400704708B5C06D0023A0F85E30FFF7F8FFE4
:1042040008BD704770B504460268D36910689168A8
:1042140040F60F0C13EA0C0F0DD113F0200F10D041
:1042240010F0200F02D111F0805F0AD0636F93B3B6
:10423400204698472FE0B14D0D402DD1B04E30426D
:104244002AD1E56E012D00F0B38013F4801F03D052
:1042540011F4800F40F04A8113F0800F07D010F062
:10426400800F40F0518111F4000F40F04D8113F0A4
:10427400400F03D010F0400F40F04D8113F4000FB5
:1042840003D010F0804F40F04A8113F0807F02D0B9
:104294000028C0F2488170BD13F0010F09D010F45A
:1042A400807F06D001261662D4F890203243C4F8E9
:1042B400902013F0020F0BD011F0010F08D02268E8
:1042C40002261662D4F8902042F00402C4F890202A
:1042D40013F0040F0BD011F0010F08D0226804264C
:1042E4001662D4F8902042F00202C4F8902013F031
:1042F400080F0BD010F0200F00D13DB12268082523
:104304001562D4F890202A43C4F8902013F4006F67
:104314000CD010F0806F09D022684FF4006515624C
:10432400D4F8902042F02002C4F89020D4F89020D1
:10433400002AB0D013F0200F09D010F0200F02D1C2
:1043440011F0805F03D0636F0BB120469847D4F817
:10435400902023689B6813F0400F02D112F0280FBD
:104364001FD02046FFF7E4FE23689B6813F0400F3C
:1043740013D0D4F8803063B1624ADA66D4F880008E
:10438400FCF740FE002886D0D4F88000C36E98471E
:1043940081E72046FFF72CFF7DE72046FFF728FF43
:1043A40079E72046FFF724FF0023C4F8903072E732
:1043B40013F0100F3FF449AF10F0100F3FF445AF66
:1043C4001023136223689B6813F0400F52D0D4F873
:1043D400802013689B6C9BB2002B3CD0B4F85C101B
:1043E400994238D9A4F85E30136D812B26D0226807
:1043F40052E8003F23F4807342E800310029F6D1EB
:10440400226802F1080353E8003F23F00103083255
:1044140042E800310029F3D12023C4F88C30002372
:10442400E366226852E8003F23F0100342E80031BB
:104434000029F6D1D4F88000FCF78EFD022323670F
:10444400B4F85C10B4F85E309BB2C91A89B2204645
:10445400FFF7D7FE1FE7B4F85C1099427FF41BAF57
:10446400136D812B7FF417AF022323672046FFF7D8
:10447400C8FE10E7B4F85C10B4F85E309BB2C91AF9
:1044840089B2B4F85E309BB2002B3FF404AF00292C
:104494003FF401AF226852E8003F23F4907342E8EE
:1044A40000300028F6D1226802F1080353E8003FE7
:1044B40023F0805323F00103083242E8003000283F
:1044C400F1D12023C4F88C300023E36663672268AB
:1044D40052E8003F23F0100342E800300028F6D1F0
:1044E400022323672046FFF78CFED4E64FF48013A3
:1044F4001362204600F080FACDE600BF01000010F0
:1045040020010004F7410008A36F002B3FF4C3AE61
:1045140020469847BFE62046FFF758FEBBE62046F4
:1045240000F06CFAB7E6204600F067FAB3E600BF85
:1045340070B50446016883680269134342691343F2
:10454400C269134308686E4A02401A430A6022682B
:10455400536823F44053E1680B435360A169226814
:10456400684B9A4205D003F180539A4201D0236AE2
:104574001943936823F06E4323F430630B43936031
:104584002268D36A23F00F03616A0B43D362236862
:104594005D4A93421BD0A2F5744293423FD002F588
:1045A400806293423DD002F5806293423BD002F593
:1045B4008062934239D002F5A052934237D0514AD7
:1045C400934201D0002003E04FF4805000E001202A
:1045D4004C4A93422DD002F18052934229D0E36990
:1045E400B3F5004F54D00021FEF74EFD002800F033
:1045F4008380616A454A32F81120B0FBF2F36268A5
:1046040003EB5203B3FBF2F3A3F110014FF6EF7285
:10461400914273D822689BB2D360002059E00220F3
:10462400D6E70420D4E70820D2E71020D0E72020E2
:10463400CEE70021FEF728FD0146002848D0626A33
:10464400324B33F81220B0FBF2F3656805EB4500FA
:10465400984247D8B3EB053F46D800263346084670
:104664003146FBF71DFE090241EA106100026B08A6
:10467400C0182A46334641F10001FBF711FEA0F5AC
:104684004072234B9A4231D82368D860304620E0E8
:104694000021FEF7F9FC58B3616A1C4A32F8112074
:1046A400B0FBF2F261684B0803EB4203B3FBF1F396
:1046B400A3F110014FF6EF7291421BD89AB222F087
:1046C4000F02C3F3420313432268D360002000E0C7
:1046D40000200123A4F86A30A4F86830002363673B
:1046E400A36770BD0120F4E70120F2E70120F0E7A1
:1046F4000020EEE70120ECE70020EAE70120E8E7EC
:10470400F369FFCF0024004400380140A457000897
:10471400FFFC0F00836A13F0080F06D00268536889
:1047240023F40043816B0B435360836A13F0010F3E
:1047340006D00268536823F40033C16A0B43536004
:10474400836A13F0020F06D00268536823F480339F
:10475400016B0B435360836A13F0040F06D00268A5
:10476400536823F48023416B0B435360836A13F033
:10477400100F06D00268936823F48053C16B0B4377
:104784009360836A13F0200F06D00268936823F4C1
:104794000053016C0B439360836A13F0400F0AD0FB
:1047A4000268536823F48013416C0B435360436CD9
:1047B400B3F5801F0BD0836A13F0800F06D0026814
:1047C400536823F40023C16C0B43536070470268A1
:1047D400536823F4C003816C0B435360EBE72DE96A
:1047E400F84305460E4617469946DDF820802B68A7
:1047F400DC6936EA04040CBF01240024BC4236D12F
:10480400B8F1FF3FF3D0FCF7A9FAA0EB090040454B
:1048140030D8B8F1000F2FD02B681A6812F0040FAB
:10482400E5D0802EE3D0402EE1D0DA6912F0080FF3
:1048340011D1DA6912F4006FD9D04FF400621A6210
:104844002846FFF775FC2023C5F89030002385F82F
:10485400843003200CE008241C622846FFF768FC1F
:10486400C5F89040002385F88430012000E0002042
:10487400BDE8F8830320FBE70320F9E730B583B0F4
:1048840004460023C0F89030FCF768FA0546226815
:10489400126812F0080F10D123681B6813F0040F7C
:1048A40028D12023C4F88830C4F88C300020E06676
:1048B400206784F8840003B030BD6FF07E4300931A
:1048C400034600224FF400112046FFF788FF00281A
:1048D400E2D0226852E8003F23F0800342E800312E
:1048E4000029F6D12023C4F88830002384F88430CA
:1048F4000320E0E76FF07E4300932B4600224FF441
:1049040080012046FFF76BFF0028CAD0226852E8D6
:10491400003F23F4907342E800310029F6D1226865
:1049240002F1080353E8003F23F00103083242E890
:1049340000310029F3D12023C4F88C30002384F8FB
:1049440084300320B7E778B310B50446D0F8883034
:104954000BB32423C4F888302268136823F00103BE
:104964001360A36AE3B92046FFF7E2FD012811D0E2
:104974002268536823F4904353602268936823F0B9
:104984002A0393602268136843F0010313602046EE
:10499400FFF774FF10BD80F88430FCF781F8D8E786
:1049A4002046FFF7B7FEDEE701207047436E2BB9C0
:1049B4000123A0F86A30A0F86830704730B4036867
:1049C4009A68C2F342629968490F094D6B5CDB0037
:1049D400084C615C93FBF1F3A0F86A30AB5CDB003C
:1049E400A25C93FBF2F3A0F8683030BC704700BFC0
:1049F400C4570008BC57000870477047704790F8C8
:104A04008430012B1DD010B50446012380F8843076
:104A14002423C0F8883002681368116821F001016A
:104A2400116043F000534FF0005242660268136075
:104A3400FFF7BCFF2023C4F88830002084F88400EA
:104A440010BD0220704738B590F88430012B1DD07A
:104A54000446012380F884302423C0F88830036896
:104A64001D681A6822F001021A600268936823F034
:104A7400604319439160FFF799FF23681D60202369
:104A8400C4F88830002084F8840038BD0220FCE794
:104A940038B590F88430012B1DD00446012380F8EA
:104AA40084302423C0F8883003681D681A6822F013
:104AB40001021A600268936823F0606319439160ED
:104AC400FFF774FF23681D602023C4F8883000209A
:104AD40084F8840038BD0220FCE700000EB470B5F1
:104AE4009DB000254FF4017221AC1B95ADF8142044
:104AF40054F8046B02900690FBF7CAFB0B4B32464A
:104B0400039002A90B934FF6FF7307900848ADF882
:104B14001630234600680F951495019400F092F91D
:104B24001DB0BDE8704003B0704700BF394B0008AA
:104B34000C0000200020704702440346934200D139
:104B4400704703F8011BF9E7014B1868704700BF71
:104B54000C00002070B50D4D00260D4C641BA410F4
:104B6400A64209D10B4D00260B4C00F0EBFD641B53
:104B7400A410A64205D170BD55F8043B01369847F0
:104B8400EEE755F8043B01369847F2E7F45800087D
:104B9400F4580008F4580008F858000870477047A3
:104BA40038B50546002941D051F8043C0C1F002BB0
:104BB400B8BFE41800F0E0F81D4A136833B9636025
:104BC40014602846BDE8384000F0DCB8A34208D998
:104BD400206821188B4201BF19685B68091821609D
:104BE400EDE71A465B680BB1A342FAD91168501875
:104BF400A0420BD120680144501811608342E0D1D7
:104C040018685B68084453601060DAE702D90C2323
:104C14002B60D6E7206821188B4202BF19685B68B5
:104C24000918636008BF21605460CAE738BD00BF3B
:104C34005802002070B50F4E0C460546316811B974
:104C440000F032FC30602146284600F02DFC431C65
:104C540003D14FF0FF34204670BDC41C24F003047C
:104C6400A042F8D0211A284600F01EFC0130F2D1EF
:104C7400EFE700BF540200202DE9F843CD1C06469F
:104C840025F0030508350C2D38BF0C25002D01DB5C
:104C9400A94204D90C2333600020BDE8F883DFF86F
:104CA400D48000F069F8D8F800301C4644BB29468B
:104CB4003046FFF7BFFF431C044658D1D8F80040E4
:104CC4002746002F43D1002C4BD023683946304669
:104CD40004EB030900F0E8FB814542D1216830462A
:104CE4006D1A2946FFF7A6FF01303AD023682B44FA
:104CF4002360D8F800305A6862BBC8F800700FE02F
:104D04002268521B20D40B2A17D96119A3422560AB
:104D140018BF5960636808BFC8F8001062514B603F
:104D2400304600F02FF804F10B00231D20F007009B
:104D3400C21A1CBF1B1AA350AFE76268A3420CBF80
:104D4400C8F800205A60EBE723466468AEE73C46A7
:104D54007F68B6E71A465B68A342FBD10023536021
:104D6400DEE70C233046336000F00CF894E705606E
:104D7400D6E700BF580200200148FFF70FBF00BF6D
:104D8400500200200148FFF70ABF00BF5002002074
:104D940038B54B1C144603D14FF0FF35284638BDB7
:104DA4009389CDB223F020039381636B52688BB156
:104DB400A36B934208DD23685A1E226003F8015C4A
:104DC400636801336360E9E7214600F036FB00289D
:104DD400F1D0E1E72169236851B1994208D213F86F
:104DE400011CA94204D1013B013223606260D5E772
:104DF400C4E90F3204F1440363630323A36323462A
:104E040003F8465F23600123DCE710B50C46496BC9
:104E140069B104F14403994201D0FFF7C1FE0020B7
:104E2400236C6063636013B1E36B236010BD23697B
:104E34004FF0FF30236000236360A38943F0200315
:104E4400A381F3E72DE9F04F0C46ADF5237D002156
:104E540006460DF10408A64F0093CDF81881CDE95C
:104E64004411A449A091A449A19192F80090B9F1E8
:104E7400000F00F0588117F80930551C13F008038F
:104E840019D06368002B0FDD23681A78BA5C120707
:104E940001D42A46E9E7459A013301322360459259
:104EA4006268013A6260ECE7A19B2146304698476C
:104EB4000028E9D0EDE7B9F1250F40F08680419351
:104EC400439353782A2B04BF1023951C4FF00A02F6
:104ED40008BF4193AA461AF8011BA1F13003092B1C
:104EE4001ED9DFF818B20322584600F0EDFA38B1A3
:104EF400A0EB0B000123419A554683401343419391
:104F040015F8013B782B06D8572B10D8252B5CD0ED
:104F140056D8002B74D0032347930A23429387E087
:104F2400439B554602FB031130394391D2E7A3F169
:104F34005802202AEFD801A151F822F0135000089A
:104F44001B4F00081B4F00086D5000081B4F000842
:104F54001B4F00081B4F00081B4F00081B4F000885
:104F64001B4F00081B4F00088350000869500008BD
:104F7400CB4F0008CB4F0008CB4F00081B4F000855
:104F8400255000081B4F00081B4F00081B4F00084A
:104F94001B4F0008935000082D5000080B500008C8
:104FA4001B4F00081B4F00088F5000081B4F0008C0
:104FB400695000081B4F00081B4F000813500008DD
:104FC400453B022BA7D8052331E06368002B0DDD98
:104FD40023681A784A4540F0A6800133626823604A
:104FE400013A459B62600133459352E7A19B2146F8
:104FF400304698470028EBD04498002840F08B8036
:105004004FF0FF308BE0419A42F020024192419AE6
:1050140042F40072419210226E2B429202D905E0B2
:1050240000234293032302E008234293042347937B
:105034006368002B3ADD419B590604D423681A782F
:10504400BA5C120739D4479B022B48DC6B462246D4
:1050540041A9304600F06CF8012864D002287FF49E
:1050640018AFC9E70A22D7E72946404600F0ACF951
:10507400419B054643F0400341930123D7E7419BFD
:1050840043F0400341930023D1E70223CFE7419843
:10509400C3063FF5FEAE009BC007459A03F1040129
:1050A40000911B684CBF1A801A60F2E6A19B21464E
:1050B400304698470028BED09EE7459A0132459273
:1050C4006268013A002A626002DD01332360B5E7B9
:1050D400A19B2146304698470028AFD08CE7042B8B
:1050E4000EDC6B46224641A9304600F07BF8B3E75C
:1050F400EC570008954D00080F4E0008CC570008E7
:105104000A4B002B3FF4C5AE6B46224641A93046FC
:10511400AFF30080A0E7A3895B063FF571AF0DF5FF
:10512400237DBDE8F08F4498F9E700BF000000003C
:105134002DE9F84315468A6880460C4632B98A69D7
:10514400002A14BF4FF0FF3201228A602268002730
:10515400DFF88C90D1065FBF1A68111D19601668BC
:10516400A06988B1012807D12B681A7863699B5C10
:1051740053B9002F31D022E0022820D12B681B78AC
:1051840019F803301B071AD423680137DA065EBF07
:105194002B681B7806F8013B2A686B680132013BD7
:1051A4002A60A2686B60013AA26042B1002BD7DC8E
:1051B400D4F880312946404698470028D0D0236847
:1051C40013F0100305D1E2680132E260A26902B172
:1051D4003370236900203B442361BDE8F88300BF9A
:1051E400EC5700082DE9F04F984687B0724B0C46F7
:1051F4008246164627464FF0000B93E8070003ABA0
:1052040083E807006D4BA1696D4A032908BF1A465C
:10521400A36801925A1EB2F5AE7F89BF6FF4AE75D2
:105224004FF0000903EB050940F25D1388BFA3604A
:1052340057F81C3B43F450633D462360316803AB8D
:105244000222097853F82B0000F03EF928B3BBF191
:10525400010F59D162682AB92268082142F4007208
:1052640061602260226822F4A0622260A268511E5A
:10527400A16092B13268511C3160127805F8012B9B
:105284007268013A002A726007DCD4F88021314642
:1052940050469047002840F085800BF1010BBBF18C
:1052A400030FCBD163680BB90A23636063684FF0C3
:1052B400000B44496069C91A00F086F8A3682268A3
:1052C400002B3DD03168606991F800C010F80C00E3
:1052D400002835D0BCF1300F24D1100522D50BF1B4
:1052E400010BB9F1000F03D0013309F1FF39A360B9
:1052F4007368013B002B73601BDD3368013333603B
:10530400A368013BA360D9E7BBF1020FAED12268C9
:1053140002F4C061B1F5007FC4D1102142F480725F
:105324006160A2E722F4106222600B7805F8013B69
:10533400DEE7D4F880313146504698470028DFD064
:105344002368D9050DD5BD4209D905F1FF3915F8F2
:10535400011CD4F87C3132464D4650469847BD4234
:1053640028D0226812F0100213D12A7039466368DB
:105374005046019EB047D8F8003021681A1D11F03C
:10538400200FC8F800201B680FD01860E3680133B1
:10539400E360ED1B236900205D442B44236107B0C7
:1053A400BDE8F08F4FF0000BCAE7CA074CBF188066
:1053B4001860EBE70120F2E7605700085556000833
:1053C40035570008E057000870B50B7804460138DB
:1053D4005E2B04F1FF0513BF4A1C8A1C4B78002185
:1053E40008BF012100F8011FA842FBD10BB9501ED0
:1053F40070BD81F001011046E154024612F8015BD0
:105404002D2D05D05D2D16D0002DF1D02B46F2E7C1
:1054140046785D2EFAD0B342F8DC02301A460132E7
:105424009642A154FBDCF21A5D1C013AB342A8BFB8
:105434000022AB18E1E71046DAE72DE9F0410C460B
:10544400496B04F1440399421AD14FF48061FFF788
:1054540013FC18B94FF0FF30BDE8F0814FF48063BE
:10546400606300F2FD30A36394F84630837094F8CF
:105474004530437094F84430037020600020EBE71B
:10548400A66B77003A4600F03AF805460028E1D0CA
:1054940000EB060801463246404600F023F8C4F803
:1054A4000080C4E90D57E9E738B50023054D0446EB
:1054B40008462B60FBF748FA431C02D12B6803B162
:1054C400236038BD4C020020C9B20346024410B523
:1054D4009342184601D1002003E0047801338C4242
:1054E400F6D110BD0A44431E914200D1704710B555
:1054F40011F8014B914203F8014FF9D110BD2DE988
:10550400F041074614460D4621B91146BDE8F04165
:10551400FFF7B2BB2AB92546FFF742FB2846BDE890
:10552400F08100F007F98442064602D8B4EB500F2C
:10553400F4D821463846FFF79FFB804608B9454614
:10554400ECE7B4422246294628BF3246FFF7CAFF99
:1055540029463846FFF724FBF1E70000242B2DE908
:10556400F0478646904601D8012B06D1FFF7ECFAA6
:10557400162303600020BDE8F0870D4633482A4611
:1055840015F8014B065D16F00806F8D12D2C10D144
:105594002C780126951C33F0100215D1302C0DD136
:1055A4002A7802F0DF02582A08D16C7802351023D9
:1055B4000AE02B2C04BF2C78951CECE7002BF6D1C9
:1055C400302C14BF0A23082306F1004C00220CF1EE
:1055D400FF3C1046BCFBF3F903FB19CAA4F13007E6
:1055E400092F0FD83C46A3421BDD571C07D0814529
:1055F40014D301D1A24511DB00FB0340012215F8AD
:10560400014BEBE7A4F14107192F01D8373CEAE736
:10561400A4F16107192F04D8573CE4E74FF0FF3297
:10562400EDE7531C08D122236046CEF80030B8F1D0
:10563400000FA0D0691E06E006B14042B8F1000F89
:1056440099D0002AF6D1C8F8001094E7EC57000866
:10565400FFF784BF2DE9F04386460D46334E2846B6
:1056640015F8014B375D17F00807F8D12D2C10D130
:105674002C780127851C33F0100015D1302C0DD166
:10568400287800F0DF00582808D16C780235102300
:105694000AE02B2C04BF2C78851CECE7002BF6D1F8
:1056A400302C14BF0A2308234FF0FF380026B8FB20
:1056B400F3F803FB08F930466FEA0909A4F1300C4A
:1056C400BCF1090F10D86446A3421EDDB6F1FF3FBA
:1056D40007D0804516D301D1A14513DB00FB03405D
:1056E400012615F8014BE9E7A4F1410CBCF1190FAF
:1056F40001D8373CE8E7A4F1610CBCF1190F04D8D8
:10570400573CE1E74FF0FF36EBE7731C06D1222349
:105714003046CEF8003032B9BDE8F08307B14042DC
:10572400002AF9D006B1691E1160F5E7EC570008AC
:10573400FFF790BF51F8043C181F002BBCBF0B5857
:10574400C0187047F8B500BFF8BC08BC9E46704747
:0C575400F8B500BFF8BC08BC9E467047CA
:10576000E2570008E5570008E85700087B696E69B2
:10577000747D00007B626175643A25697D000000DC
:105780007B6368616E67657D0000000000000000BB
:1057900001020304000000000000000001020304F5
:1057A00006070809010002000400060008000A00BC
:1057B0000C001000200040008000000108040204DA
:1057C000080101010101010307010000686C4C00A0
:1057D000412D46612D663839303132333435363714
:1057E0005D002B2D00303000785800002020202054
:1057F0002020202020282828282820202020202081
:105800002020202020202020202020208810101060
:1058100010101010101010101010101004040404B8
:10582000040404040404101010101010104141412D
:105830004141410101010101010101010101010198
:10584000010101010101011010101010104242422B
:105850004242420202020202020202020202020268
:1058600002020202020202101010102000000000CA
:105870000000000000000000000000000000000028
:105880000000000000000000000000000000000018
:105890000000000000000000000000000000000008
:1058A00000000000000000000000000000000000F8
:1058B00000000000000000000000000000000000E8
:1058C00000000000000000000000000000000000D8
:1058D00000000000000000000000000000000000C8
:0C58E000000000000000000000000000BC
:0858EC00A8A9FF7F01000000E4
:0458F400790200082D
:0458F800550200084D
:1058FC000090D003010000001000000010000020F8
:10590C0000000000140100207C010020E4010020B4
:10591C00000000000000000000000000000000007B
:10592C00000000000000000000000000000000006B
:10593C00000000000000000000000000000000005B
:0C594C000000000000000000000000004F
:0400000508000C01E2
:00000001FF
